:020000040800F2
:100000000000022029070008250700086D57000896
:100010002507000825070008250700080000000044
:10002000000000000000000000000000250700089C
:10003000250700080000000025070008F156000809
:1000400025070008250700082507000825070008E0
:1000500025070008250700082507000825070008D0
:10006000250700082507000825070008F9520008A1
:100070000553000879400008115300081D5300087B
:10008000250B010829480008250700082507000856
:100090002507000825070008250700082507000890
:1000A0002507000825070008250700082507000880
:1000B0001DFF000829FF000835FF00085D48000803
:1000C0002507000869480008250700088DF7000883
:1000D00099F700085909010885090108B9090108BB
:1000E0002507000825070008000000002507000874
:1000F0002507000825070008250700082507000830
:10010000250700082507000841FF0008A5F700089B
:10011000ED090108210A0108250700082507000844
:100120002507000825070008C9F70008FDF70008A3
:10013000590B0108250700082507000825070008B6
:1001400000000000000000000000000000000000AF
:10015000250700082507000825070008550A01089B
:1001600075480008250700080157000825570008B2
:10017000250700084957000825070008250700083B
:100180002507000825070008890A0108BD0A01089B
:10019000B1F70008BDF7000825070008250700088B
:1001A000250700082507000825070008250700087F
:1001B0001950000825070008250700082507000832
:1001C00025070008250700082D3B0008393B0008DB
:1001D00025070008453B00082507000825070008FB
:1001E000250700082507000825070008250700083F
:1001F000250700082507000825070008250700082F
:10020000250700082507000825070008250700081E
:10021000250700082507000825070008250700080E
:100220002507000825070008250700080000000032
:100230002507000825070008000000002507000822
:1002400025070008250700082507000825070008DE
:1002500025070008250700082507000825070008CE
:1002600025070008250700082507000825070008BE
:100270002507000825070008F10A01080000000012
:1002800025070008250700082507000800000000D2
:08029000000000002507000832
:1002A00010B5054C237833B9044B13B10448AFF3B0
:1002B00000800123237010BD2806002400000000E8
:1002C000BC54010808B5034B1BB103490348AFF305
:1002D000008008BD000000002C060024BC5401086A
:1002E00001F0FF01102A2BDB10F0070F08D010F8E7
:1002F000013B013A8B422DD010F0070F42B3F6D1EB
:10030000F0B441EA012141EA014122F007047FF003
:1003100000070023F0E80256083C85EA010586EA5A
:10032000010685FA47F5A3FA87F586FA47F6A5FA96
:1003300087F68EB9EED1F0BC01F0FF0102F00702A2
:1003400032B110F8013B013A83EA010313B1F8D14D
:100350000020704701387047002D06BF354603382E
:10036000073815F0010F07D1013015F4807F02BF67
:10037000013015F4C03F0130F0BC0138704700BFB8
:100380007BB972B90029BEBF00204FF0004106E0E2
:1003900008BF00281CBF6FF000414FF0FF3000F095
:1003A000BFB9ADF1080C6DE904CE002909DB002BC3
:1003B0001ADB00F04DF8DDF804E0DDE9022304B0BB
:1003C0007047404261EB4101002B1BDB00F040F81D
:1003D000DDF804E0DDE9022304B0404261EB4101B5
:1003E000524263EB43037047524263EB430300F016
:1003F0002FF8DDF804E0DDE9022304B0404261EBB0
:1004000041017047524263EB430300F021F8DDF8ED
:1004100004E0DDE9022304B0524263EB430370477A
:1004200053B94AB9002908BF00281CBF4FF0FF315B
:100430004FF0FF3000F074B9ADF1080C6DE904CE57
:1004400000F006F8DDF804E0DDE9022304B07047AF
:100450002DE9F047089D04468E46002B4DD18A4277
:10046000944669D9B2FA82F252B101FA02F3C2F1AA
:10047000200120FA01F10CFA02FC41EA030E94403B
:100480004FEA1C48210CBEFBF8F61FFA8CF708FB5C
:1004900016E341EA034306FB07F199420AD91CEB34
:1004A000030306F1FF3080F01F81994240F21C8166
:1004B000023E63445B1AA4B2B3FBF8F008FB1033AE
:1004C00044EA034400FB07F7A7420AD91CEB0404E3
:1004D00000F1FF3380F00A81A74240F207816444B3
:1004E000023840EA0640E41B00261DB1D440002338
:1004F000C5E900433146BDE8F0878B4209D9002D9C
:1005000000F0EF800026C5E9000130463146BDE825
:10051000F087B3FA83F6002E4AD18B4202D382428F
:1005200000F2F980841A61EB030301209E46002D3E
:10053000E0D0C5E9004EDDE702B9FFDEB2FA82F293
:10054000002A40F09280A1EB0C014FEA1C471FFAF1
:100550008CFE0126200CB1FBF7F307FB131140EAD8
:1005600001410EFB03F0884208D91CEB010103F1A5
:10057000FF3802D2884200F2CB804346091AA4B267
:10058000B1FBF7F007FB101144EA01440EFB00FE3B
:10059000A64508D91CEB040400F1FF3102D2A645A0
:1005A00000F2BB800846A4EB0E0440EA03409CE73F
:1005B000C6F12007B34022FA07FC4CEA030C20FAEC
:1005C00007F401FA06F31C43F9404FEA1C4900FA0C
:1005D00006F3B1FBF9F8200C1FFA8CFE09FB181189
:1005E00040EA014108FB0EF0884202FA06F20BD9FC
:1005F0001CEB010108F1FF3A80F08880884240F24C
:100600008580A8F102086144091AA4B2B1FBF9F08F
:1006100009FB101144EA014100FB0EFE8E4508D98A
:100620001CEB010100F1FF346CD28E456AD902380F
:10063000614440EA0840A0FB0294A1EB0E01A142F4
:10064000C846A64656D353D05DB1B3EB080261EB62
:100650000E0101FA07F722FA06F3F1401F43C5E93C
:10066000007100263146BDE8F087C2F12003D84072
:100670000CFA02FC21FA03F3914001434FEA1C47B4
:100680001FFA8CFEB3FBF7F007FB10360B0C43EAA6
:10069000064300FB0EF69E4204FA02F408D91CEB56
:1006A000030300F1FF382FD29E422DD90238634454
:1006B0009B1B89B2B3FBF7F607FB163341EA0341F4
:1006C00006FB0EF38B4208D91CEB010106F1FF3843
:1006D00016D28B4214D9023E6144C91A46EA00463A
:1006E00038E72E46284605E70646E3E61846F8E6CC
:1006F0004B45A9D2B9EB020864EB0C0E0138A3E715
:100700004646EAE7204694E74046D1E7D0467BE7F5
:10071000023B614432E7304609E76444023842E76D
:10072000704700BFFEE700BF0B480C4A904203D061
:10073000121A0B4913F0EEF90A480B4A904203D003
:10074000121A002113F0F4F905F06EFA13F0B6F95D
:1007500001F0C4F8FEE700BF0000002424060024D6
:10076000F05401082806002448600024704700BFA8
:100770002DE9F04F40480D46404C414B2DED108B7C
:1007800094ED009A89B090ED00DA3E4CD3ED007AFA
:100790003D483E4BD4ED008ACDED017A90ED008AC4
:1007A0003B4CD3ED007A3B483B4BCDED027AD4ED88
:1007B000007A1446D0ED00BACDED037AD3ED007A7D
:1007C00036486BEEA7BA01F025FE002C00F06584D8
:1007D0009FED337ADFED337A29EE077A324A3348D8
:1007E000D2ED001A8DED047A28EEA77A68EE277A0A
:1007F0002F4ADFF8D8B0D2ED002ACDED067AF1EE1F
:10080000087A2C4ADFF8C8A0C7EE807A92ED003A49
:10081000294ADFF8C090DFF8C080DFF8C0E0DFF8D9
:10082000C0C0264F264E2749D2ED003A264A8DED0C
:10083000057ADBED00DA9AED009AD9ED00CA90ED69
:10084000006AD0ED016A90ED027A98ED00CA9EED43
:1008500000AA9CED001AD7ED008A96ED008AD0ED33
:10086000035A91ED002A92ED004ACDED077AD5E9C1
:10087000003503EB84041BE2100000241800002460
:10088000B806002414000024BC060024AC06002492
:10089000B4060024A80600241C000024C00600247E
:1008A000009CC43A00D7233C500600246006002474
:1008B000A00600245806002454060024A4060024A0
:1008C0005C0600249C060024480600240400002442
:1008D0000C000024080000244C0600249806002484
:1008E0004406002400409C4648E17A3F6666364054
:1008F0000AD7233C6666A63FB29D7F3F00D7A33C44
:100900000080F3375FED090AB4EEE09AF1EE10FAD9
:1009100000F3598379EE099AC9EE800A5FED0E9AC9
:10092000F4EE690AF1EE10FA79FEA00A5FED119A71
:10093000E5EEE97AF0EE089AF4EEE97AF1EE10FAD3
:1009400000F33E83F8EE089AF4EEE97AF1EE10FA3D
:1009500000F14583F3EE0BAA67EEA79AB2EE02FA16
:10096000B0EE6ABAA9EE8FBA79EEAA9A69EEA77AC2
:10097000C7EE8B9AF0EE087AB4EEE76AF1EE10FA61
:1009800000F31B83F8EE087AB4EEE76AF1EE10FA92
:1009900000F12283F3EE0BAA66EE067AB2EE02FABB
:1009A000B0EE6ABAA7EE8FBA77EEAA7A67EE867AC9
:1009B000C7EE8BAA79EEEA9AF0EE087AA9EEA06A61
:1009C000B4EEE76AF1EE10FA00F3F482F8EE087A7A
:1009D000B4EEE76AF1EE10FA00F1FB82F3EE0B9A47
:1009E00066EE067AB2EE02BAF0EE69AA77EEA99A3E
:1009F000E7EE8BAA69EE869AC9EEAA7AF0EE089A1B
:100A0000F4EEE96AF1EE10FA00F3D182F8EE089AFA
:100A1000F4EEE96AF1EE10FA00F1D882F3EE0BAAD7
:100A200066EEA69AB2EE02FAB0EE6ABAA9EE8FBAF4
:100A300079EEAA9A69EEA69AC9EE8BAA77EEEA7ABF
:100A4000E0EEA76AF0EE087AF4EEE76AF1EE10FA4B
:100A500000F3AA82F8EE087AF4EEE76AF1EE10FAF3
:100A600000F1C982F3EE0B9A66EEA67AB2EE02BAF4
:100A7000F0EE69AA77EEA99AE7EE8BAA69EEA69A3C
:100A8000C9EEAA7AF0EE089AB4EEE97AF1EE10FA1D
:100A900000F38782F8EE089AB4EEE97AF1EE10FAE4
:100AA00000F1A682F3EE0BAA67EE079AB2EE02FA05
:100AB000B0EE6ABAA9EE8FBA79EEAA9A69EE879A71
:100AC000C9EE8BAA77EEEA7AA0EEA77AF0EE087A62
:100AD000B4EEE77AF1EE10FA00F36082F8EE087AED
:100AE000B4EEE77AF1EE10FA00F17F82F3EE0B9AA2
:100AF00067EE077AB2EE02BAF0EE69AA77EEA99A2B
:100B0000E7EE8BAA69EE879AC9EEAA7AF0EE089A08
:100B1000F4EEE95AF1EE10FA00F33D82F8EE089A8D
:100B2000F4EEE95AF1EE10FA00F15C82F3EE0BAA52
:100B300065EEA59AB2EE02FAB0EE6ABAA9EE8FBAE5
:100B400079EEAA9A69EEA59AC9EE8BAA77EEEA7AAF
:100B5000E0EEA75A5FED9A7AB4EEE71AF1EE10FADA
:100B600000F11682B7EE00BAF1EE000AF0EE00AA2C
:100B7000F0EE4B7A3BEE41FAE1EE207AF6EE000A17
:100B8000F0EE609A67EEA57AE7EEA09AFFEE007AA3
:100B9000FBFE69FA79EEEFFAF0EE679AEFEEAA9AA9
:100BA000F0EE67FAF0EEE99A7BEE699AE9EEAAFABE
:100BB000EFEEA00AFBFE609A70EEE90AF0EE679A8B
:100BC000E0EEAA9AF0EEE99A7BEE699AE9EEAA7A4B
:100BD00061EE277AEFEE257A5FEDBA0A67EEA07A2A
:100BE000F0EE080AF4EEE07AF1EE10FA00F3CD81AF
:100BF000F8EE080AF4EEE07AF1EE10FA00F1018264
:100C0000F3EE0B9A67EEA70AB2EE02BAF0EE69AA0B
:100C1000E0EE8BAA70EEA90A60EEA77A87EEAABA78
:100C20002BEE08BAC5EE007AA3EC01BAA5EC01BA26
:100C3000B7EE005A32EE272A34EE274AF7EE007A52
:100C4000B4EEC52AF1EE10FAA8BF32EE452A84EEC2
:100C5000805ACEEE004A72EE852AB7EE005AF4EEC4
:100C6000C52A73EEA43AF1EE10FAA8BF72EEC52AB7
:100C70008EEE805A33EE053AB7EE005AB4EEC53A1E
:100C8000F1EE10FAA8BF33EE453AB7EE005AF4EE93
:100C9000C53AF1EE10FAB4EEE74AA8BF73EEC53AD2
:100CA000F1EE10FAA8BF34EE674A9C4200F0CC8106
:100CB0005FEDEF7AB4EEC9DA9DED045A5FEDF19A7B
:100CC000ADEEA75A5FEDF2EAF1EE10FA9FEDCEEA33
:100CD0009FEDCEBA9DED01FA79FEAE4A6DEE244A43
:100CE000B4EECAFADFEDCA7AF0EE45DA9FEDC95AE2
:100CF000DFEDC90A75FE0EAAEAEE894AF1EE10FA96
:100D0000DDED02FADFEDC5AAF4EEC1FAB0EE649AA9
:100D1000DDED054AECEE8B4AF0EE64CADDED064AE5
:100D2000ECEE0B4A39FEA7BA2FEE0BBA35FE20FACD
:100D3000F1EE10FAAFEE0ABA9FEDB9FAB0EE64CA5E
:100D4000DDED034AF4EEE84AB0EE4BAA39FEA7BA4D
:100D50002FEE8BBA75FE20FAF1EE10FAF4EEC8BA57
:100D6000AFEE81BA79FEA77A64EEA77A35FE205AF3
:100D7000F1EE10FAE5EE287A7AFE8EAAB0EE4B1A62
:100D8000F0EE678ADFEDA77A77FEAE4A6BEEA44AF3
:100D9000EAEE884AF4EECF4AB0EE648AF1EE10FA39
:100DA00007D526EE206A66EEA06A27EE207A65EE69
:100DB000A05ADFED9B7AF4EEE7BAF1EE10FA0CD50B
:100DC000DFED997AB4EEE78AF1EE10FA05DDF3EE85
:100DD0000E7AE8EE0D7AB0EE67DADDED077AB1EE65
:100DE000005A71EEA71AF7EE007AF4EEE71AF1EE68
:100DF00010FAA8BF71EEE71AF6EE007AF4EEE71AE1
:100E0000F1EE10FA40F1BC80FFEE007AE1EE857A57
:100E1000F7EE004ADFED850A6CEE277AB0EE645AF1
:100E2000A7EEA05ADFED827AF1EE000AEAEE274A39
:100E3000F6EE007AB4EEE72A2DEE855AF1EE10FABE
:100E400065EE244A65EE27EA35EE05EA40F1938027
:100E5000FFEE007AE2EE207AF6EE000AF4EEE02AE7
:100E600067EEA07AF1EE000AF1EE10FA7ED5BFEE41
:100E700000BAA2EEA0BAF6EE000ADFED6E9AF1EE2D
:100E800000AA2BEE29BAB4EEE03AF1EE10FA68D5DA
:100E9000FFEE000AE3EE2A0AF6EE00AADFED669AFC
:100EA00060EEA90AF4EEEA3AF1EE009AF1EE10FAD9
:100EB00052D5FFEE00AAE3EEA9AAB6EE00FADFEDE6
:100EC0005FFA77EE8B9AF1EE007AB4EECF4A79EEC4
:100ED000A09AF1EE10FAEAEEAF9A38D5FFEE000ACA
:100EE000E4EE270A60EEA90AF7EE007AF0EE08AA0F
:100EF00060EEA80A37EEE8BAEBEE290A6CEEA00A1B
:100F0000F4EEEA0AF1EE10FA16DCF8EE087AF4EEE6
:100F1000E70AF1EE10FA71D4F3EE0B9A60EEA07AC4
:100F2000B2EE02BAF0EE69AAE7EE8BAA77EEA97AE2
:100F300067EEA00AC0EEAA7AF3EE040AB4EEE09AD5
:100F4000F1EE10FA7FF5DEACDFED3D9AE4E4F0EE71
:100F5000080AE4EE670AC5E7F0EE08AAE3EEE9AA9C
:100F6000ABE7F0EE080AE3EE6A0A95E7B0EE08BADE
:100F7000A2EEE0BA7FE7F0EE087AE2EE607A6BE785
:100F8000F0EE087AE1EEC57A42E7B0EE48BA49E6FB
:100F9000F0EE657A20E6F7EE00AAD7E5F7EE007AE4
:100FA000B4E5F7EE00AA8DE5F7EE007A6AE5F7EE14
:100FB00000AA43E5F7EE007A20E5F7EE00AAF9E48F
:100FC000F7EE009AD6E4DFED1F9AA5E4FFEE00AA43
:100FD00034E5FFEE007A11E5FFEE00AAEAE4FFEE49
:100FE000009AC7E4FFEE00AAB0E5FFEE007A8DE5B7
:100FF000FFEE00AA66E5FFEE007A43E5FFEE007A19
:101000009AE7B1EE48BA0DE619FE7F3FA4707D3F26
:101010000012833A48E17A3F77BE7F3FEC51783F38
:101020006F12833A80C2F53C17B7D138CDCC4C3D16
:10103000C0956C3DAE47613EEC51383E9A99193EE1
:101040000000204200401C47164BCBED00DAC3EDF8
:10105000001A154B8AED009AC3ED002A134BC9ED17
:1010600000CA83ED003A124B88ED00CAC3ED003A86
:10107000104B8EED00AA8CED001AC7ED008A86EDAC
:10108000008A81ED002A80ED006AC0ED016A80EDE2
:10109000027AC0ED035A83ED004A09B0BDEC108B13
:1010A000BDE8F08F50060024A00600245806002456
:1010B00054060024480600242DE9F041002482B0A3
:1010C0001C4E0123DFF8788022461B4D3046D8F8AD
:1010D00000101A4F009403F07BF8052004F0BAFBCF
:1010E0002246396801232846009403F071F8052050
:1010F00004F0B0FB23460122D8F8001030460094DB
:1011000003F066F82146304603F054F9052004F058
:10111000A1FB2346012239682846009403F058F8C1
:101120002846214603F046F9052002B0BDE8F0410B
:1011300004F090BB1407002400070024E4510108C8
:10114000E851010870B5002482B0144D0122144EFC
:10115000234628460094316803F03AF82146284691
:1011600003F028F9052004F075FB0E4A01230E4810
:1011700011682246009403F02BF8052004F06AFB66
:101180002846012322463168009403F021F8052007
:1011900002B0BDE8704004F05DBB00BF140700243E
:1011A000E8510108E4510108000700242DE9F0414D
:1011B000072582B0DFF8E4800746354E25E0624619
:1011C000D8F80010CDF800C003F002F80024052084
:1011D00004F040FB0123224631682E48013D009473
:1011E00002F0F6FF052004F035FB234601222948D2
:1011F0003168009402F0ECFF2146264803F0DAF84B
:10120000052004F027FB6B1C14D0012247FA05F1DE
:101210004FF0000C204811EA02041346CFD1D8F851
:1012200000102346009402F0D3FF21461A4803F031
:10123000C1F8CBE72246D8F80010012316480094E5
:1012400002F0C6FF052004F005FB224631680123A9
:101250001048009402F0BCFF052004F0FBFA0E4891
:1012600003F09CF8234601223168054600940948A2
:1012700002F0AEFF2146074803F09CF8052004F079
:10128000E9FA85F00100C0B202B0BDE8F08100BF0C
:10129000E45101080007002414070024E851010864
:1012A0002DE9F043002283B0DFF8F48007460123E4
:1012B0003848D8F80010914600920725364E02F0C3
:1012C00087FF0024052004F0C5FA01232246316877
:1012D0003248009402F07CFF052004F0BBFA2D4850
:1012E00003F05CF801218646234601FA05FC0A4614
:1012F0002A48013D3168BEF1000F03D04CEA090CC9
:101300005FFA8CF9009402F063FF2146234803F052
:1013100051F86B1CD5D1002F33D0D8F800102346DC
:101320001C480122009402F053FF2146194803F0A3
:1013300041F80024052004F08DFA3168224601238B
:101340001648009402F044FF052004F083FA234677
:10135000012231681148009402F03AFF21460F48FB
:1013600003F028F8052004F075FA01232246D8F886
:1013700000100848009402F02BFF484603B0BDE877
:10138000F08301233A46D8F800100248009702F093
:101390001FFFCEE714070024E451010800070024D2
:1013A000E851010838B504460D46FFF785FEB42024
:1013B000FFF7FCFE60B12046FFF7F8FE40B128467B
:1013C000FFF7F4FE044618B1FFF7BCFE204638BD17
:1013D0000024FFF7B7FE204638BD00BF2DE9F041DD
:1013E00004460E461546FFF767FEB420FFF7DEFE03
:1013F00008B32046FFF7DAFEE8B1FFF75DFEB5203F
:10140000FFF7D4FE0746B0B185B1013D741E56FA10
:1014100085F8C6F1010630198542D4BF00200120AD
:10142000FFF73EFF04F8010F4445F4D1FFF78AFEB1
:101430003846BDE8F0810027FFF784FE3846BDE856
:10144000F08100BF10B5632182B080204124FFF7F6
:10145000A9FF0A2004F0FCF900215E20FFF7A2FF9B
:1014600001212B20FFF79EFF01212C20FFF79AFF7F
:1014700010212D20FFF796FF20212E20FFF792FF4D
:1014800001212F20FFF78EFF01213020FFF78AFF77
:1014900010213120FFF786FF20213220FFF782FF45
:1014A00000213320FFF77EFF00213420FFF77AFF71
:1014B00000213520FFF776FF04212046FFF772FF59
:1014C000601C02340221C0B2E4B2FFF76BFF592C5A
:1014D000F2D111215B20FFF765FF50215C20FFF75F
:1014E00061FF7C215D20FFF75DFF8C215E20FFF70F
:1014F00059FF642004F0ACF9002301220DF107012B
:101500005E208DF80730FFF769FF9DF80700A0F116
:101510008C00B0FA80F0400902B010BD10B586B062
:101520000446182204206946FFF758FFA01E6A46A9
:1015300006AC537812F8021B1B02944203F440736A
:1015400043EA010320F8023FF3D106B010BD00BF0B
:101550002DE9F04192B02025002407460DF118082E
:1015600030220021404612F0E3FA68464646FFF773
:10157000D5FF6A46414600E00C6832F8023B23443E
:10158000424541F8043BF7D1052004F061F9013DE3
:1015900001D0069CE9E7BA1E163756F8043B5B09F2
:1015A00022F8023FBA42F8D112B0BDE8F08100BF84
:1015B0001B4A1C4B10B452F8214053F82120031B46
:1015C000002B25DD824227DD42F2107C121B1649DA
:1015D0000CFB03F35DF8044B93FBF2F06045A8BFEE
:1015E000604681FB0032C317C3EB221365335B10E7
:1015F000B0FBF3F213445A10B0FBF2F313445B1048
:10160000B0FBF3F0184440106428A8BF6420704772
:1016100000205DF8044B704764205DF8044B704770
:10162000B451010884510108CBF08D280022A0F1AB
:10163000040C2DE9F04F13468DB006460D46964634
:1016400014460A750A705CF8042F724501DD1C46C9
:10165000964601330C2BF6D1BEF1060F03DC0020B9
:101660000DB0BDE8F08F04F10208A71EB8F10B0F12
:1016700027EAE777A8BF4FF00B08B845C0F2AD8066
:101680006FF0404C4FF0000908F1010EBA46BC441F
:101690003A464846494606EB8C0C5CF8043F23EA80
:1016A000E373994502FB0300194401DA9246994617
:1016B00001327245F1D1002900F098804FF47A7B15
:1016C0000BFB00F001EB810B01EB4B0BB0FBFBFBC9
:1016D000BBF57A7FA8BF4FF47A7B51464846FFF7A7
:1016E00067FF0123EC46C5F804B02B700023C5F852
:1016F0001090C5E9020A684604E001334CF8042B57
:101700000C2B0FD09F4206DC9845ACBF0021012175
:101710000A460029F1D056F8232001330C2B4CF84F
:10172000042BEFD1002319461E4650F8042B8A42A1
:1017300001DD1E46114601330C2BF6D1331B48BF89
:10174000A31B062945DD032BCCBF00240124002C5C
:101750003FD1A6F1020802360B2E28EAE878A8BF8E
:101760000B2646453FDB721C6FF04046404627463D
:10177000464421460DEB860656F8043F23EAE37300
:101780009C4203FB0077194401DA80461C46013075
:101790008242F1D139B34FF47A7601EB810307FB32
:1017A00006F601EB4301B6FBF1F6B6F57A7FA8BF6A
:1017B0004FF47A7641462046FFF7FAFE03460220B0
:1017C000AE616C62C5E9073801232B750DB0BDE829
:1017D000F08F01200DB0BDE8F08FBA464FF0000940
:1017E0004FF0FF3B79E74FF0FF36E3E74FF0FF3B69
:1017F00073E700BF2DE9F047374C82B00022234643
:1018000004F128088DF804208DF805201A789AB97B
:1018100014334345FAD100290BDD01EB810301AA02
:1018200000EB830312F8011B002939D014309842D1
:10183000F8D102B0BDE8F087002949DD01AD84464A
:1018400000224FF0FF3E4FF0C90A15F8016B5EB958
:10185000DCF804605F68B6EB070948BFA7EB060930
:10186000CA4501DD9646CA4601320CF1140C91427C
:10187000EBD1BEF1FF3F2BD00EEB8E020EF108052F
:1018800000EB82020DEB050E01250EF8045C556895
:101890005D6095689D60D5681269DD601A61B7E783
:1018A000217819B1217D0029C0D1012101EB8101ED
:1018B0000769466804EB8105D0E902ECC5E9016ED1
:1018C000C5E903C7012504F8215002F8015CADE722
:1018D00000221A709CE700BF700600242DE9F04F2B
:1018E0000021C7B0A548002400F070FE0421A348E1
:1018F00000F094FD02228DF825400AA88DF82420DE
:10190000099902F025F9042301220AA99C4802F052
:1019100033F99B4802F03EFB9A49012322460968AD
:101920009948009402F054FC984901232246096822
:101930009748009402F04CFCFFF784FD0FAB0028A1
:1019400040F0D4840693934A002493490DF1540A3D
:10195000924B0DF16C0B0A600DF18105904A914993
:1019600013600023904A8548136000F04FFD00206B
:101970008E4F02F013F88E4802F002F88D4801F005
:10198000FFFF8D4801F0FCFF8C4801F0F9FF8C4807
:1019900001F0F6FF8B4801F0F3FF03F057FF0790CB
:1019A0000021774802F00CFBDFED877A874B0DF1C1
:1019B000B40920EE270A50464FF0010883ED000AD3
:1019C000FFF7ACFD069A50464946A44607E0984505
:1019D0000B6001F10401B8BF984692450ED032F871
:1019E000023B002430F8026B9B1BF0D523460C60B1
:1019F00004319845B8BF98469245F0D123A92DA847
:101A00006446FFF713FE011E049140F3148203F0B5
:101A10001DFF0499079023A8FFF7ECFE3B78059380
:101A2000002B40F06D82002C00F05C840023684A9B
:101A3000137000235C4A13603B7D002B00F0DA80BA
:101A4000D7ED067ADFED636AF8EEE77A87EEA67ADD
:101A5000B5EEC07AF1EE10FA00F18B83F7EE007A62
:101A6000B4EEE77AF1EE10FA00F3D783F6EE007ADF
:101A7000B0EE084A37EE677A27EE044AD7ED077AC8
:101A8000DFED556AB8EEE77AC7EE267AF5EEC07A52
:101A9000F1EE10FA00F13083F7EE003AF4EEE37A5B
:101AA000F1EE10FA40F3F682F0EE637AB0EE677A68
:101AB000BAEE0E6AF1EE084AF2EE045AF0EE463A39
:101AC00067EE076AB0EE655AE7EE243A66EE876A7B
:101AD000A3EE875A26EE857AB5EEC07AF1EE10FABB
:101AE00040F14A83DFED3D6ADFED3D5A77EEE66A6D
:101AF0009FED3C7A86EEA56ADFED3A6AF4EEE67A6F
:101B0000F1EE10FA00F1ED82F7EE006AF4EEE67AFB
:101B1000F1EE10FA0BDCB0EE005AF0EE085A67EE68
:101B2000A76AE7EEC55A66EEA57A24EE274AB5EE17
:101B3000C06AF1EE10FA00F1DC82F7EE007AB4EE42
:101B4000E76AF1EE10FA00F36B83B0EE005ADFEDB6
:101B5000245AF0EE086A66EE067AE6EE456A67EE0B
:101B6000A67A67EEA57A204B83ED004A1F4B83EDE2
:101B7000007A1F4BC3ED007A43E000BFC00600248B
:101B8000D8060024E851010814070024E451010894
:101B9000000700245CCF0243180000240000C84264
:101BA0001000002471070008A80600247006002415
:101BB000C44F0108D84F0108EC4F0108105001082C
:101BC00038500108585001086666663F1C00002422
:101BD000B006002400007A440000C8429A99593F98
:101BE0009A99193E00000000B8060024AC060024B3
:101BF000B40600240023A44A1360A44A1360A44A34
:101C00001360A448002601F0BBFEA3484FEA680316
:101C1000049301F0B5FE59F8042B002A40F3FB8031
:101C200002EB8200049B03EB8000B0FBF8F0142869
:101C3000A8BF14205B236FEA0B048DF86C300DF104
:101C40006D03E1188142ACBF2021232103F8011B61
:101C50009D42F6D15D238DF8813000238DF88230CE
:101C60003B78002B00F0D580FB68B3420CBF3123DA
:101C70002023397D19B1396AB14208BF3223314678
:101C8000013600935B46854801F07AFE0C2EC2D1E6
:101C90007C262D2128220DF1E5008DF8E46011F05D
:101CA00047FF00213B788DF80D618DF80E11B3B11F
:101CB0007B6827224FF4FA70C3FB02014FF47A725B
:101CC0000023FEF75DFB272800F3D98020EAE073AC
:101CD000013303F58C7331226B4403F8342C3B7DC4
:101CE000BBB1BB6927224FF4FA700021C3FB02018C
:101CF0004FF47A720023FEF743FB272800F3C180DC
:101D000020EAE073013303F58C7332226B4403F84D
:101D1000342C634E4FF0010839A9624801F030FEBF
:101D20003378002B79D0B368002B40F382801901FF
:101D30005D4A3231A2FB012149091029A8BF1021B7
:101D40005B220BF1110C8DF86C200DF16D02101956
:101D50008842ACBF2020232002F8010B6245F6D157
:101D60005D22CDF800B0414650488DF87D2000221C
:101D700014368DF87E2056F8102C01F001FEB8F1D3
:101D8000020F53D14A4BB2EE047A9FED545AD3ED71
:101D9000006A484BFDEEE66A93ED006A3A4B16EE98
:101DA000901AD3ED005A394B65EE875AD3ED007A7D
:101DB000414BFDEEE56A93ED007A67EE857A16EE0B
:101DC000900A27EE057AFDEEC66A0028FDEEE77A56
:101DD000BDEEC77A16EE902A40DB384B83FB0043FA
:101DE000C417C4EBA3042B2304EB8406A0EB460624
:101DF0008DED037ACDED027A3148CDE90046059CA0
:101E000001F0BEFD2F4801F0BBFD3C2003F020FD9A
:101E1000C6E520232DE700200CE741462A4801F0C3
:101E2000AFFDB8F1020F06F11406ABD04FF0020877
:101E300076E7002184E703F009FD079B0499C01AA7
:101E4000B0F5FA6FFFF4E7AD002306983B753B70E1
:101E5000FFF77EFB1D4801F093FDD8E543421C4E81
:101E6000A6FB0346154CF60806EB8606A3EB4606D2
:101E700084FB0034C0172D23A0EBA404B8E728236B
:101E800027E728233FE700BFB8060024AC0600245C
:101E9000B40600247050010884500108A8500108BD
:101EA00070060024BC5001081F85EB51C850010882
:101EB0001800002410000024BC0600246766666633
:101EC0001851010854510108E850010860500108F8
:101ED000CDCCCCCC00007A44B459E53F0000C842D8
:101EE0000000484200000000006F313F9FCD2A3DB6
:101EF00068B32A3E0100704100A08C46CDCC4C3F17
:101F000003F0A4FC002C00F0EA81D7ED017A5FED2C
:101F10000F6AF8EEE77A87EEA67AB5EEC07AF1EEB0
:101F200010FA00F1F680F7EE007AB4EEE77AF1EEFF
:101F300010FA00F36F811FED185AF6EE006A1FEDDC
:101F4000146A27EE057A5FED1A5AE7EE066AB0EEDC
:101F5000676AA7EE266AE7EE067A67EEA55AD7ED1E
:101F6000027A5FED226AB8EEE77AC7EE267AF5EEDE
:101F7000C07AF1EE10FA40F1DB801FED276ABFEE68
:101F8000085A5FED287AF4EEC65AF1EE10FA40F1E5
:101F90003581B1EE087A5FED2C1ABAEE0E3A1FEDDC
:101FA0002D2AF2EE043A1FED2E4AF0EE465A5FED6E
:101FB0002F2AA7EE873AB0EE636A67EEA76AB2EE01
:101FC000081AF6EE004A66EEA76AA7EE836AB7EE35
:101FD000007A66EE866AB0EE646AF0EE474A66EE14
:101FE000816A66EEA16AA6EE824AA6EE846AE6EEF1
:101FF000864AA6EEA47A27EE227AF3EE046AB4EEBD
:10200000E67AF1EE10FA00F1EA805FED456AB4EE8F
:10201000667AF1EE10FA36FE877AB5EEC05AF1EE26
:1020200010FA6CD4F7EE006AB4EEE65AF1EE10FA4C
:1020300000F33F81B0EE004A5FED504AF0EE086ACF
:1020400025EE056AE5EE446A26EE266A26EE246A47
:10205000F5EEC07AF1EE10FA58D4F7EE006AF4EE1D
:10206000E67AF1EE10FA40F31381F0EE0C7ABD4BF4
:10207000BD4AC3ED005ABD4B83ED007ABC4B83EDE6
:10208000006ABC4BC3ED007A01231370BA4BBB4A04
:102090001360D1E4B1EE086ADFEDB94ABAEE0E5A28
:1020A000DFEDB86AF2EE045A27EEA77AA7EE865A59
:1020B00077EEE44A27EE277A84EEA66AE7EE855AA1
:1020C00027EE257AB5EEC07AF1EE10FA67D5DFED8E
:1020D000AE6A9FEDAD7AF4EEE67AF1EE10FA7FF596
:1020E00013ADB5EEC06A24EE264AF1EE10FA7FF584
:1020F00024ADDFEDA57A36E5DFEDA37AD6E4F5EE83
:10210000C07A9FEDA16AF1EE10FAA6D5F7EE007A3B
:10211000ADE7D7ED027ADFED9D6AB8EEE77AC7EE5C
:10212000267AF5EEC07AF1EE10FA7CD4DFED985AFB
:10213000B7EE007AF4EEC77AF1EE10FA52DC9FEDBA
:10214000947AF4EEC75A9FED937AF1EE10FA40F1CB
:10215000F08037EEC77ADFED906A87EE265AF5EE0B
:10216000C07AF1EE10FA23D5B3EE047ADFED885A87
:1021700053E7BFEE084A81E4F7EE006AB4EEE67A70
:10218000F1EE10FA40F3BD80DFED7D6ADFED7D5AA0
:1021900077EEE66AB0EE657A86EEA56AACE4B4EE58
:1021A000E37AF1EE10FA7FF783ACB0EE667AA3E43F
:1021B0009FED7A7ADFED765AF7EE006AF4EEE67A72
:1021C000F1EE10FA37DDDFED766A27EE267AF3EED0
:1021D000046AB4EEE67AF1EE10FA7FF516AFB0EECF
:1021E000667A1AE79FED6A6AF0EE477A9FED6D5ABC
:1021F000F4EEC65AF1EE10FA3FF5CBAEDFED6A6AA7
:10220000F4EEE65AF1EE10FA56DDF0EE665A9FED66
:10221000677AD1E7DFED665AA1E6B7EE084A2DE40A
:10222000DFED587A9FE4BFEE085A9FED5C7ADFED50
:10223000567ADFED575AB1EE086A9FED5E2ABAEE84
:102240000E3ADFED5D2AF2EE043A9FED5C4A67EE4E
:10225000A76AA7EE863AF2EE081A66EEA76AF6EECD
:10226000004AB7EE006AE7EE833A66EEA36A66EECE
:10227000A16A66EE826AA6EEA24AE6EE844AB0EE53
:10228000464AA6EEA44AA6EE846A27EE067AB4E68B
:10229000F0EE003AF0EE084A27EEA75AB0EE044AF4
:1022A000E7EEE34AF0EE667A25EE245AE5EE047A8C
:1022B000DDE69FED436ACBE69FED357AF4EEC75A33
:1022C000F1EE10FA3FF54BAFF5EEC07A9FED3D7A97
:1022D00025EE877AF1EE10FA3FF58FAE6CE703F04A
:1022E000B5FA12E603F0B2FAFFF7A0BB1C464FF4B2
:1022F0009670069303F0ACFA2046FFF729F9FFF732
:1023000022BBA7EE246ADFED1E3A67EE076A9FED57
:102310001D3A77EEE34A66EE876AB0EE465A84EEDF
:10232000836AE7EE055A26EEA57A27EE037AFFF7D1
:10233000E3BBDFED1D6A37EEC77A9FED176AF4EE57
:10234000E65A87EE065AF1EE10FAB5DDF5EEC07AE0
:10235000F1EE10FA7FF559AFF0EE665A9FED137A61
:102360005BE600BF18000024B00600241000002423
:10237000BC06002414000024EC51383FA8060024B9
:102380009A99593F9A99193E000000000000C842EE
:10239000000048429A99193FCDCCCC3E01007041D3
:1023A00067AEA943FFFF7F3F000096430000B442A1
:1023B000ABE68543006F313F9FCD2A3D68B32A3E8F
:1023C000CDCC4C3F9A99993E10B50B4800240B4A4E
:1023D0000B49046044610462C46311F053FB094A71
:1023E000094B4FF60B71D4601160C2E90144C3E997
:1023F0000014C3E9024410BDC006002400000024FC
:102400006D0700081407002400070024143001F0B1
:1024100009BA00BF143001F001BA00BF38B500F1AD
:10242000140504462DED028B284601F0E9F92846F3
:1024300001F0F4F92846B0EE408A01F0DDF9D0ED64
:10244000007AF8EE677A88EE277ABDEC028B84ED8D
:102450000E7A38BD10B540F203338EB000244FF62B
:102460000B7240F20341ADF8083009A80123ADF822
:102470001020ADF824202246ADF80C1000940299EB
:1024800007940C94CDE90544CDE90A4401F0A0FE7F
:1024900004A8012322460399009401F099FE09A89B
:1024A00001F07CFF10B901200EB010BD04A801F0AE
:1024B00075FFA0420CBF022020460EB010BD00BF29
:1024C0002DE9F04103239AB0012700240646CDE907
:1024D00014373B4BCDE9104340F20453CDE9164786
:1024E000ADF84830FFF7B6FFB842054625D00228C0
:1024F00045D040F60132334B0DF12C081894ADF85D
:102500002C200B981997CDF84A3000F0E3F810A969
:1025100006F13C0002F07CFF302003224FF07E5396
:1025200041460D930E93CDE90B02F26B06F11400B8
:1025300001F02AF91AB0BDE8F0811023214A06A95A
:1025400006908DF828300DF12C081F4BCDF84A204D
:1025500007930294CDE91804CDE9080402A802F01B
:102560008FF90823029A03A94046ADF80C508DF864
:102570000E40049505930B9400F0ECF8C7E700209B
:102580000121104B0DF12C083A460094CDF84A3049
:102590004FF60B730C94ADF82C302346CDE918019F
:1025A00040F601314046ADF818100699CDE90D44CA
:1025B00001F00EFE2146404601F0FCFEA7E700BFF9
:1025C00004020404040604030704010B2DE9F04788
:1025D00004462DED028B82B000294DD0012140F23E
:1025E000011200230091ADF804208DF80630364A20
:1025F0000127364B04F10409354904F129086260CA
:1026000040F20272A36040F60663E16004F1250A1D
:10261000A4F82520A4F82930278284F8277084F8AC
:102620002B7003F0B7FA054603F01AF9694606461F
:1026300050BB4DB304F130008DF8067003F032FA50
:10264000072D3CD104F114052046FFF739FF284639
:1026500001F0E4F82846B0EE408A01F0CDF8D0ED64
:10266000007AF8EE677A88EE277A84ED0E7A02B067
:10267000BDEC028BBDE8F08740F2011300918DF8AC
:102680000610ADF80430B2E704F1300003F00AFAA6
:10269000072D11D04946204602F03AFB0EB9002D15
:1026A000D0D1504601F090FE404601F08DFE04F17D
:1026B000120000F079F9C5E7002EF2D1C2E74946D1
:1026C000204602F025FBBDE70508050905070506BC
:1026D000050A060610B584B003460124ADF80400CF
:1026E00003A8ADF80C30ADF80E4001F06DFE2146A8
:1026F00003A801F045FF204603F0AAF8002103A833
:1027000001F03EFF204603F0A3F8214603A801F0A4
:1027100037FF04B010BD00BF10B5C2F3002384B072
:102720000C46017C8DF80D2043EA4402FA24022372
:102730008DF80C2003AA009402F038F918B1012496
:10274000204604B010BD04460A2003F081F820465C
:1027500004B010BD034670B543F8042B044684B0A2
:1027600007C983E80700A37983B91A210B461E2203
:10277000FA2523742046ADF80C20022303AA009505
:1027800002F014F928B1012004B070BD1B210B46E2
:10279000EDE70A2003F05CF84FF4B85200950223ED
:1027A000ADF80C20204603AA217C02F0FFF8002897
:1027B000E9D10A2003F04CF841F20272009502239D
:1027C000ADF80C20204603AA217C02F0EFF8002887
:1027D000D9D10A2003F03CF8042200950223ADF879
:1027E0000C20204603AA217C02F0E0F80028CAD180
:1027F0000A2003F02DF8062200950223ADF80C20E4
:10280000204603AA217C02F0D1F80028BBD10A207F
:1028100003F01EF841F2082200950223ADF80C20C7
:10282000204603AA217C02F0C1F80028ABD10A207F
:10283000064603F00DF80095022303AA217C2046EA
:10284000ADF80C6002F0B2F800289CD1304602F0DE
:10285000FFFF009522790C232046002A8DF80C30CA
:1028600003AA4FF0020314BF622142218DF80D101C
:10287000217C02F09BF8002885D1304602F0E8FF69
:102880002279D4E902310B43DBB20AB943F04003A9
:1028900062790AB143F020030E22FA258DF80D303B
:1028A0002046009502238DF80C2003AA217C02F01B
:1028B0007DF800287FF467AF0A2002F0C9FF1022DC
:1028C00000950223ADF80C20204603AA217C02F0DB
:1028D0006DF800287FF457AF0A2002F0B9FF1221EB
:1028E00000950223ADF80C1003AA217C204602F0CB
:1028F0005DF800287FF447AF0A2002F0A9FF01220B
:1029000009212046FFF708FF003818BF01203BE7E8
:10291000F0B5102387B0234C0122002501260027A3
:1029200002A920460195CDE902234FF48052CDE95A
:1029300004670AF0BFFB642003F06AFF02A94FF4AA
:1029400080522046CDE9046702261027CDE90267B0
:102950000AF0B0FB0322102302A92046CDE902238E
:1029600000230422CDE904234FF480520AF0A2FB95
:1029700040F23223042202A9019310232046CDE91C
:102980000223019A012305924FF4805204930AF026
:1029900091FB40F6060120460AF0ACFB284607B042
:1029A000F0BD00BF300700241C4B00221C494FF033
:1029B000400C30B5054689B00220596007219A6065
:1029C0001A620124DA620A224FF4006EDC60069279
:1029D0002022CDE9000104200821CDE902010320D5
:1029E0001021CDE9040108206946C3E904024FF42F
:1029F000C072181DC3E906C24FF48052C3E909E250
:102A00000AF02EFB38B92846FFF782FF003818BFBE
:102A1000012009B030BD204609B030BD2C0700248C
:102A200040410052614A0021D0B513688EB00A912E
:102A3000002B40F0B9805E4B01214FF683700C24CF
:102A400011600221D3F8D4200026032742F48052DB
:102A5000C3F8D420D3F8D42002F480520092009A14
:102A6000D3F8E02042F01002C3F8E020D3F8E020D1
:102A700002F010020192019AD3F8E02042F04002E5
:102A8000C3F8E020D3F8E02002F040020292029A5C
:102A9000D3F8E02042F00802C3F8E020D3F8E020A9
:102AA00002F008020392039AD3F8E02042F4807205
:102AB000C3F8E020D3F8E02002F480720492049A74
:102AC000D3F8E02042F08002C3F8E020D3F8E02001
:102AD00002F080020592059AD3F8E02042F020022D
:102AE000C3F8E020D3F8E02002F020020692069A14
:102AF000D3F8E02042F00402C3F8E020D3F8E0303D
:102B00000C9403F0040307930323079A0B93CDE976
:102B1000080108A9274805F001FD48F237120223F1
:102B200008A925480C94CDE90823CDE90A6705F0EA
:102B3000F5FC4CF20372022308A920480C94CDE95D
:102B40000823CDE90A6705F0E9FC40F2FF620223A1
:102B500008A91B480C94CDE90823CDE90A6705F0C4
:102B6000DDFC4FF60C72022308A916480C94CDE93F
:102B70000823CDE90A6705F0D1FC4FF63F02022396
:102B800008A911480C94CDE90823CDE90A6705F09E
:102B9000C5FC2022022308A90A480C94CDE90A6743
:102BA000CDE9082305F0BAFC0EB0D0BD28070024FB
:102BB000004402580010025800180258000C025835
:102BC00000200258001C0258001402582DE9F04F52
:102BD000DFF8108406460D46144608F118002DED66
:102BE000028B89B000AF02F00BFDD8F8183073B338
:102BF000D8F81C30D8F80490002B43690BBF4FF075
:102C0000080A4FF0100A4FF0020B4FF0040BB9F115
:102C1000000F2AD0A200EA46012B02F1070222F09F
:102C20000702ADEB020D6846ADEB020D694600F000
:102C30003F81022B00F0D680002B6FD02246C84780
:102C4000D5462437BD46BDEC028BBDE8F08FD8F8E1
:102C50001C30002BF5D0D8F804904FF0080A4FF044
:102C6000020B4369B9F1000FD4D1FB61D8F80030F1
:102C7000BB61002BE5D0D54802F034FD6B46BBF1BB
:102C8000020F786108EE103AFB6900F083816A4612
:102C90005146A2EBC40295466200EA46B2FBFBF243
:102CA000AAEBC40085460AEB8200EE46F861ADEB64
:102CB000010DF8690EEB820CC7F810C0EC46ADEBC5
:102CC000010D00EB8201CCF80400CCF8081001EBF8
:102CD00082013869E946CCF80C1000EB8201CCF88F
:102CE00000A001EB8202C9E900E0C9E90212012B50
:102CF00000F06483022B00F06C82002B00F08081D6
:102D0000620849466046BB69984718EE103A243776
:102D10009D46BD46BDEC028BBDE8F08F002C8DD0EA
:102D20001A46D8ED0C6A9FEDB27A8446331D36F907
:102D300022E00CF1080C07EE90EA33F922E00232AF
:102D4000F8EEE77A944267EE877A67EEA67A4CED62
:102D5000027A07EE90EAF8EEE77A67EE877A67EE96
:102D6000A67A4CED017AE2D8F9612246C847984E1E
:102D7000D8ED0D6A0020F9692B1D9FED9E7A9FED1D
:102D80009E6ADFED9E5A22E0F4EEC67AF1EE10FA6A
:102D9000C0F2C88447F6FE72D1ED017A45F82020D2
:102DA00066EEA77AF4EEC77AF1EE10FA40F2F08000
:102DB000F4EEC67AF1EE10FAC0F2D58447F6FE7250
:102DC00043F820200230083184427FF639AFD1ED3C
:102DD000007A66EEA77AF4EEC77AF1EE10FAD3D84D
:102DE0003246D9E7002C3FF429AFD8ED0C6A84466F
:102DF0009FED787A0022331D8E4656F822100CF192
:102E0000080C07EE901A53F822100232F8EEE77A17
:102E1000944267EE877A67EEA67A4CED027A07EE67
:102E2000901AF8EEE77A67EE877A67EEA67A4CEDAD
:102E3000017AE2D871462246C7F81CE0C847664EC0
:102E4000D8ED0D6A0020F9692B1D9FED6A7A9FED80
:102E50006A6ADFF894C120E0F4EEC67AF1EE10FA67
:102E6000C0F279843246D1ED017A45F8202066EE31
:102E7000A77AF4EEC77AF1EE10FA40F28780F4EE0A
:102E8000C67AF1EE10FAC0F25E84324643F8202092
:102E90000230083184427FF6D3AED1ED007A66EE7F
:102EA000A77AF4EEC77AF1EE10FAD5D86246DAE7DF
:102EB000002C3FF4C3AED8ED0C6A86469FED477AEE
:102EC0004FF0000C331D56F82C200EF1080E82F442
:102ED0000002A2F5000207EE902A53F82C200CF114
:102EE000020CF8EEE77A82F400026445A2F50002D3
:102EF00067EE877A67EEA67A4EED027A07EE902AA1
:102F0000F8EEE77A67EE877A67EEA67A4EED017AF9
:102F1000D9D8F9612246C847314ED8ED0D6A002054
:102F2000F9692B1D9FED337A9FED336ADFF8BCC042
:102F30001FE0F4EEC67AF1EE10FAC0F2FC833246DE
:102F4000D1ED017A45F8202066EEA77AF4EEC77A33
:102F5000F1EE10FA18D9F4EEC67AF1EE10FAC0F2DA
:102F6000DA83324643F820200230083184427FF66B
:102F700067AED1ED007A66EEA77AF4EEC77AF1EE8D
:102F800010FAD6D86246DBE76246EBE762467DE799
:102F9000324615E7A100D6466208073121F0070145
:102FA000ADEB010DEA46ADEB010D6946ADEB0E0D43
:102FB0000AEB8200EC46ADEB0E0D01EB8202F861EC
:102FC000E946CCE900A0C9E9001290E68007002498
:102FD0000280FFFF000000300082FF7F000000340D
:102FE00082FF7F0064070024007E00807E0080FF57
:102FF0000000003804FF7FBF04FF7F3F00FEFF4654
:10300000002C00F0C982BBF1020FD8F8242000F098
:10301000FA827969C7F8049002EB810E5FED0C5AD1
:103020008A00DCF808100EF104007A611A46DCF818
:103030000C303B61331DD7F810903D61FD69C7E945
:1030400002CB8C46834636F92210D8ED0C7A06EE78
:10305000101A33F9221006EE901A3EF92210B8EE3B
:10306000C66A07EE101AF8EEE66A3BF92210B8EECF
:10307000C77A26EE256A66EEA56A27EE257A26EE41
:10308000276A66EEA76A27EE277A07EE901A51089C
:103090000232F8EEE77A0AEB8100944280ED006A92
:1030A00005EB810067EEA57AC0ED006A0CEB8100AC
:1030B00009EB810180ED007A98ED0C7A67EE877A52
:1030C000C1ED007ABFD8D7F804903D69D7E902CBAB
:1030D00060466208BB6949469847D8F82C307A693F
:1030E000D8ED0D6A1A441FED3D7A1FED3D6A2B1D88
:1030F000904602F1040A5FED3F5A0022A84ED9E93A
:1031000000EC51E0F4EEC67AF1EE10FAC0F2C7829C
:1031100047F6FE7045F822000CEB0100D0ED007A76
:1031200066EEA77AF4EEC77AF1EE10FA4BD9F4EE18
:10313000C67AF1EE10FAC0F2BA8247F6FE70BBF121
:10314000020F43F822002BD0D9F808000844D0ED34
:10315000007A66EEA77AF4EEC77AF1EE10FA36D965
:10316000F4EEC67AF1EE10FAC0F2CD8247F6FE70A8
:1031700048F82200D9F80C000144D1ED007A66EE3F
:10318000A77AF4EEC77AF1EE10FA1ED9F4EEC67AF9
:10319000F1EE10FAC0F2AF8247F6FE714AF8221043
:1031A000023294427FF6B1AD51080EEB81008900E6
:1031B000D0ED007A66EEA77AF4EEC77AF1EE10FA57
:1031C000A0D83046A6E73046B9E73146E6E73046B4
:1031D000CEE7002C00F0E081BBF1020FD8F82430DC
:1031E00000F0E1817A69DCF8081003EB820EC7F881
:1031F00004909300DFED6B5A0EF1040000227B6116
:10320000DCF80C303B61331DD7F810903D61FD694F
:10321000C7E902CB8C46834656F82210D8ED0C7ACB
:1032200007EE101A53F82210B8EEC76A07EE101A0C
:103230005EF82210F8EEC76A07EE101A26EE256A2D
:103240005BF82210B8EEC77A66EEA56A26EE276A0A
:1032500027EE257A66EEA76A27EE277A07EE901A00
:1032600051080232F8EEE77A0AEB8100944280EDD1
:10327000006A05EB810067EEA57AC0ED006A0CEBF1
:10328000810009EB810180ED007A98ED0C7A67EE00
:10329000877AC1ED007ABFD8D7F804903D69D7E9A5
:1032A00002CB60466208BB6949469847D8F82C3083
:1032B0007A69D8ED0D6A1A449FED3E7A9FED3E6A19
:1032C000131D9246DFF8E4C00022FB612B1D364E31
:1032D000D9E9008E4EE0F4EEC67AF1EE10FAC0F2B3
:1032E000FC81304645F822000EEB0100D0ED007A5B
:1032F00066EEA77AF4EEC77AF1EE10FA49D9F4EE49
:10330000C67AF1EE10FAC0F2EF813046BBF1020F3F
:1033100043F822002AD0D9F808000844D0ED007AFA
:1033200066EEA77AF4EEC77AF1EE10FA35D9F4EE2C
:10333000C67AF1EE10FAC0F2C98130464AF822008E
:10334000D9F80C000144D1ED007A66EEA77AF4EECC
:10335000C77AF1EE10FA1ED9F4EEC67AF1EE10FA41
:10336000C0F2AD813146F86940F822100232944231
:103370007FF6CBAC510808EB81008900D0ED007AD4
:1033800066EEA77AF4EEC77AF1EE10FAA3D860469B
:10339000A8E76046BAE76146E5E76046CEE700BFCA
:1033A0000280FFFF000000300082FF7F007E00806F
:1033B0000000003404FF7FBF04FF7F3F002C00F0BB
:1033C000EB807A690021D8F82430C7F8109003EB1D
:1033D000820ED7F81C909300FD610EF104021FEDE0
:1033E0000C6A7B61331D154656F821204808D8ED3C
:1033F0000C6ABBF1020F82F40002A2F5000207EE94
:10340000902A53F8212082F40002B8EEE77AA2F560
:10341000000227EE067A07EE902A0AEB8002F8EE09
:10342000E77A27EE267A67EE867A82ED007A09EB54
:1034300080024FEA800067EEA67AC2ED007A27D0BC
:103440005EF8212082F40002A2F5000207EE902A25
:1034500055F8212082F40002B8EEE77AA2F50002C6
:1034600027EE067A07EE902ADCF80820F8EEE77AD5
:10347000024427EE267A67EE867A82ED007A98ED8E
:103480000C7ADCF80C2067EE877A0244C2ED007AF1
:1034900002318C42A8D8D7F8109060466208BB6908
:1034A0004946FD699847D8F82C307A69D8ED0D6AFD
:1034B0001A441FED407A1FED406A131D9246DFF853
:1034C000C4C20022FB612B1DAB4ED9E9008E4EE039
:1034D000F4EEC67AF1EE10FAC0F2C580304645F837
:1034E00022000EEB0100D0ED007A66EEA77AF4EE32
:1034F000C77AF1EE10FA49D9F4EEC67AF1EE10FA75
:10350000C0F2BF803046BBF1020F43F822002AD040
:10351000D9F808000844D0ED007A66EEA77AF4EEF8
:10352000C77AF1EE10FA35D9F4EEC67AF1EE10FA58
:10353000C0F2AE8030464AF82200D9F80C000144AF
:10354000D1ED007A66EEA77AF4EEC77AF1EE10FAC2
:103550001ED9F4EEC67AF1EE10FAC0F28B80314635
:10356000F86940F82210023294427FF6CEAB51083F
:1035700008EB81008900D0ED007A66EEA77AF4EEC0
:10358000C77AF1EE10FAA3D86046A8E76046BAE71A
:103590006146E5E76046CEE7224649466046BB699C
:1035A0009847FFF7B2BBC7F810B0002298ED0C6A3D
:1035B000331DDFED726AD7F81CB0786956F8221017
:1035C00007EE901A53F82210B8EEE77A07EE901A39
:1035D00051080232F8EEE77A27EE267A0AEB810EDE
:1035E00094420BEB810167EEA67A27EE067A67EE2E
:1035F000867A8EED007AC1ED007ADFD88300D7F8A5
:1036000010B07B614DE61A46C7F810B098ED0C6A11
:10361000331DDFED5B6AD7F81CB0786936F92210EC
:1036200007EE101A33F9221007EE901AB8EEC77A97
:1036300051080232F8EEE77A27EE267A0AEB810E7D
:1036400094420BEB810167EEA67A27EE067A67EECD
:10365000867A8EED007AC1ED007ADFD88300D7F844
:1036600010B07B6134E5F0EE675AFEEEE45A15EED9
:10367000900A34E7F0EE675AFEEEE45A15EE901A1F
:103680006EE7F0EE675AFEEEE45A15EE900A3AE75E
:10369000F0EE675AFEEEE45A15EE900A4BE767EE3D
:1036A000A57AFDEEE77A17EE900A00B232E567EEF2
:1036B000A57AFDEEE77A17EE900A00B23FE5F0EE4C
:1036C000675AFEEEE05A15EE901A4CE6F0EE675A95
:1036D000FEEEE05A15EE900A30E6F0EE675AFEEE86
:1036E000E05A15EE900AFDE5F0EE675AFEEEE05A5C
:1036F00015EE900A0AE667EEA57AFDEEE77A17EE78
:10370000901A09B24AE567EEA57AFDEEE77A17EE60
:10371000900A00B22CE5F0EE675AFEEEE45A15EE80
:10372000902A1FE467EEA57AFDEEE77A17EE902A5D
:1037300012B2FFF731BBF0EE675AFEEEE45A15EE17
:10374000902AFFF7FDBBF0EE675AFEEEE05A15EE49
:10375000902AFFF79BBBF0EE675AFEEEE05A15EE9B
:10376000902AFFF780BB67EEA57AFDEEE77A17EEA9
:10377000902A12B2FFF724BB82FF7F0000000030C6
:10378000000000387E0080FF30B5184C154685B02B
:10379000046004F1080EEC460FC98EE80F00D4ED6A
:1037A000047AF5EEC07A8CE80F00F1EE10FA1ADD1B
:1037B000B7EE006A94ED057A27EE277AC6EE276AFF
:1037C00084ED0D7AC4ED0C6A6DB1204640F8185FA7
:1037D00001F016FF064903690020064A2162A26231
:1037E000E36005B030BD012005B030BD64070024A2
:1037F000002000300000003000680830704700BF33
:10380000B1F5807F03680A4628BF4FF48072B1F596
:10381000807F9A6094BF00200120704700681830B4
:1038200001F04EBF30B5046883B00D46E3694BB17B
:10383000A3680020E26A616A9B00009004F11C000A
:1038400001F0E0FEA3680748A26A9B00216A00908D
:1038500004F1180001F0D6FE0020C4E9005003B0C6
:1038600030BD00BFCD2B000810B4074B4FF07E5188
:1038700030240022032019619C60D8605DF8044B5D
:103880005961C3E90622704764070024704700BFEE
:10389000F8B5134F3C687F2C07D98023114A42F2B8
:1038A00024411C463B60A2F87E100F4D2B68012B73
:1038B0000AD90C4E0D4D22463146284600F02CF90F
:1038C0000028F8D13860F8BD22460649074800F0C4
:1038D00023F90028F7D12B68386001332B60F8BD3D
:1038E000A0070024A40700249C0700242408002427
:1038F00030B4154C2168F1B14B1E144DE81810F886
:1039000001298C4619460A2A01D00D2A02D14BB151
:10391000013BF4E70CF102037F2B10D980232360D5
:1039200030BC70470122022323600D200A23685413
:10393000AB5430BC704701220223044DF4E70CF174
:1039400001026146F0E700BFA0070024A40700249D
:1039500010B5094C02460B46084821680844C1F1DD
:10396000800110F04DFA236818442060FFF7C0FF73
:10397000FFF78EFF10BD00BFA0070024A40700249E
:103980000FB400B583B004A951F8040B0191FFF7FF
:10399000DFFF03B05DF804EB04B0704710B50446D8
:1039A00000210A4800F032F8002C094B14BF022213
:1039B000002208481A60FFF7E3FF0748FFF7E0FF1F
:1039C0000A20BDE8104001F043BF00BF24080024D6
:1039D0009C070024EC510108FC510108064A0749E4
:1039E000074808B510F04EF8034A04490548BDE8F9
:1039F000084010F047B800BF000000248D380008D0
:103A00002408002428080024704700BF012910B5AD
:103A100006D0022915D051B1BDE8104006F060BCB7
:103A20000A46344834490AF0F5FDE8B1FEE7334B65
:103A30000A46334C334934481C600AF0EBFD68B148
:103A4000FEE701222C492B480AF0E4FD00B1FEE715
:103A50002E4928480AF000FEC0B1FEE72B492A484B
:103A60000AF0FAFD60B1FEE7284922480AF0F4FDA9
:103A700000B1FEE726491F480AF07CFD08B3FEE7C7
:103A8000244921480AF076FDA8B1FEE720491948EB
:103A90000AF070FD00B1FEE716480AF0F3FD024699
:103AA00040B9164B164C174917481C600AF0B2FD76
:103AB00068B1FEE7FEE714480AF0E4FD0028ABD049
:103AC000FEE70C480AF0DEFD0028A5D0FEE70F490E
:103AD0000D480AF0C1FD00B1FEE70E490A480AF0A0
:103AE00049FD00B1FEE708480AF0CCFD002893D05C
:103AF000FEE700BFC80A0024BC000024640D0024B7
:103B0000093A0008A00000242C0800242401002405
:103B10008000002470000024084691B208B502F02D
:103B200073F9003818BF012008BD00BF014805F037
:103B3000B5BE00BF60380024014805F0AFBE00BF2D
:103B400060380024014805F0A9BE00BF6038002499
:103B500000B583B04FF0000E4FF0030C4274ADF887
:103B60000410BDF8043080F810E0A0F802C0038013
:103B700003B05DF804FB00BF2DE9F04FDFF81C83B4
:103B800000258DB0C04C037008F140034260074629
:103B900001920E46202229464046C4F86831C4F8F6
:103BA0006481CDE90255CDE90455CDE90655CDE94D
:103BB0000855CDE90A550FF0BBFF2022294604F530
:103BC000A170C4F83151C4F83551C4F83951C4F862
:103BD0003D510FF0ADFF019B84F8485284F830311D
:103BE0007A68002A6AD02B4604F59871454606F19A
:103BF000100A9E46F01856F803B0E2180EF1010EB6
:103C0000D0F80CC0D0F80490D0F8088044F803B085
:103C1000C2F80CC04FF0000CC2F80490C2F8088043
:103C2000008A25F802CB10821AF8032001F8012F30
:103C3000002A70D07A684FF001001233724584F880
:103C40004802D7D84FF4802290489DF804300821CC
:103C50004FF000084FF00009C4F884310023C4E994
:103C60005B020122C4F8743184F88031C4E95E211A
:103C700094F84812C4E96489A9B3C4F898210022D1
:103C800084F8813184F888313B78C4E96722002BBD
:103C900038D0012200200121013B84F8A421C4E98D
:103CA0006C01082B30D8DFE813F0BD00C200C7005C
:103CB000CC00D100D600DB00E100E8009DF8043024
:103CC0000121C4F87421C4F884314FF4802384F8AE
:103CD00080216E4AC4E95B2308230022C4E95E13F5
:103CE0000023C4E964230123002284F881310023E6
:103CF00084F888310323C4F898313B78C4E96722FB
:103D0000002BC6D184F8A431614803F0B9F9034609
:103D100038B1FFBEFEE77A68123372453FF66AAFEC
:103D200090E702A95A48029303F008FB8246002854
:103D300076D1042240F2FF710A90CDE9081294F87E
:103D40003021002A00F0F3804FF006080AEBCA0386
:103D50004FEACA0904EB43035B7C072B07D8DFE873
:103D600003F0595C5653504D4A04072307930FFA4A
:103D70008AF6D14406EBC60604EB490904EB460774
:103D80007500384600F020FB99F81030042B00F342
:103D9000AA80022B00F3BD8000F0B98004EB0A0377
:103DA000002283F8202114F81630002B78D0022B43
:103DB00000F08A80012B40F0B2807B78012B00F06C
:103DC000B080002B334B18BF002305A93048CDE944
:103DD000053802F081FD002840F0AC800AF1010AAC
:103DE00094F830315FFA8AFA534540F2A0802A4BAA
:103DF00053F82A80AAE706230793B8E70523079319
:103E0000B5E704230793B2E703230793AFE7022341
:103E10000793ACE700230793A9E701230793A6E7DD
:103E2000FFBEFEE703224023C4E96A236CE70722B2
:103E30006023C4E96A2367E70F228023C4E96A2369
:103E400062E71F22A023C4E96A235DE73F22C02363
:103E5000C4E96A2358E77F22E023C4E96A2353E7D1
:103E6000FF224FF48073C4E96A234DE740F2FF124A
:103E70004FF49073C4E96A2346E740F2FF324FF4EF
:103E8000A073C4E96A233FE7700D002400200240BC
:103E9000DC0E00240002B0250C5201080040003066
:103EA0007B78062B37D0072B3DD0022B4AD0032B33
:103EB0004AD0002B4CD0012B48D0042B4AD0052BE4
:103EC000254B18BF002380E77B78042B25D0052BDA
:103ED0002BD08BB3012B31D0022B31D0032B1F4BB6
:103EE00018BF002371E70323043504EB0A0B4FF0DE
:103EF000000925448BF82031284609F1010900F01A
:103F000063FA9BF8203104354B45F5DC4BE7012380
:103F1000EAE70223E8E7124B57E7124B55E7002385
:103F200053E7114B51E7114B4FE7114B4DE70DB0E4
:103F3000BDE8F08FFFBEFEE70E4B46E70E4B44E7B1
:103F40000E4B42E70E4B40E70E4B3EE70E4B3CE775
:103F50000E4B3AE70E4B38E70000B84F0020903682
:103F60000800900C1000C0102000F0148000501DBC
:103F7000000180210004002A0008302E0010603269
:103F80000040C03A0080F03E00005247000021434C
:103F90000000844B38B5094C40F2FF724FF001111C
:103FA00004F5B675284603F077F994F83021D4F873
:103FB00064112846BDE8384002F0E2BE700D0024CE
:103FC000064B0F29D3F8643198BF03EB41031B88DC
:103FD00000EE103ABBEEC80A704700BF700D002417
:103FE000214B02689A4200D07047204A00232048A3
:103FF000D2F8D81030B51F4C41F0200183B0C4F87E
:10400000D001092004F5E875C4E975034FF4806018
:10401000C2F8D810D2F8D8204FF40061C4E9773044
:1040200094F8480202F02002C4F8E4114FF4005161
:10403000984201922846C4F8E811C4E97C33019BF8
:1040400014BF00234FF48073C4F8EC3103F09CFBE1
:1040500008B1FFBEFEE704F5B673C4F8B851C4F862
:10406000083203B030BD00BF0020024000440258B7
:1040700040000240700D0024014803F0FDBE00BF67
:10408000400F002402682DE9F84F4B4B9A4201D0B3
:10409000BDE8F88F494D95F84832002BF8D095F8D7
:1040A0003031002B77D0002405F10C0905F5A176FD
:1040B00005F59877A04613E003F0010117F811BC4D
:1040C000A9F1080000F05CFABBF1010F25D895F8C2
:1040D0003031013409F112090236A2B293422BD9D0
:1040E00017F8012F002AF4D0D5F864310021327876
:1040F00033F81400D5F8683103EB041323F81200E9
:10410000338801339BB233805FFA83FA3A789A425C
:10411000D2D88A46A6F80080D0E7CAF34001A9F1B8
:10412000040000F02DFABBF1020FCAF38001CED0DB
:10413000484600F025FACAE7002395F848022049CE
:1041400009229842C5F8D8314FF48060C5F8D011E3
:10415000C5F8D4214FF400614FF40052C5F8DC31AA
:1041600008BF4FF48073C5F8E821C5E97801002243
:104170001448C5E97B32C5F8F42103F005FB08B10A
:10418000FFBEFEE795F83021D5F864110E48BDE872
:10419000F84F02F0F5BD0A4909224FF48060C5F8D6
:1041A000D831C5E974124FF400614FF40052C5E9EB
:1041B0007730C5E97912DAE700200240700D00245B
:1041C00040000240400F0024DC0E0024704700BF76
:1041D00010B592B0ADF804100180C9B2149C0B293F
:1041E000C460C0E901233FD090F801C0BCF10F0FBB
:1041F0003AD8022A3FD0032A02D0012A00D0002256
:104200000E92012B02D0022B18BF0023022C0F9319
:104210002CD0032C2AD0012C28D000230A2910935B
:1042200027D85C4A02EB812202610A2914D8DFE810
:1042300001F0A39587796B5D4F4133250600564BFE
:10424000D3F8E01041F48061C3F8E010D3F8E03017
:1042500003F480630C930C9B01230DA9104603FA11
:104260000CF30D9304F05AF912B010BD0A29109402
:10427000D7D90022D8E711220E92C2E7464BD3F8D5
:10428000E01041F40071C3F8E010D3F8E03003F41B
:1042900000730B930B9BDFE73F4BD3F8E01041F427
:1042A0008071C3F8E010D3F8E03003F480730A9310
:1042B0000A9BD1E7384BD3F8E01041F08001C3F8F6
:1042C000E010D3F8E03003F080030993099BC3E7C3
:1042D000314BD3F8E01041F04001C3F8E010D3F8BF
:1042E000E03003F040030893089BB5E72A4BD3F86E
:1042F000E01041F02001C3F8E010D3F8E03003F003
:1043000020030793079BA7E7234BD3F8E01041F066
:104310001001C3F8E010D3F8E03003F01003069367
:10432000069B99E71C4BD3F8E01041F00801C3F855
:10433000E010D3F8E03003F008030593059B8BE70A
:10434000154BD3F8E01041F00401C3F8E010D3F8A6
:10435000E03003F004030493049B7DE70E4BD3F895
:10436000E01041F00201C3F8E010D3F8E03003F0B0
:1043700002030393039B6FE7074BD3F8E01041F070
:104380000101C3F8E010D3F8E03003F00103029319
:10439000029B61E7000002580044025808B5012161
:1043A00043780069994089B204F0C0FA003818BF18
:1043B000012008BD01230A464178006903FA01F192
:1043C00089B204F0B9BA00BF8378022B30B5044635
:1043D0008FB037D0032B33D0012B31D000230A9379
:1043E000E378012B2AD0022B28D000230B93002343
:1043F00020460C9302F0EAF80546204602F0EEF85B
:1044000023780990082B13D8DFE803F01F324558B2
:104410006B7E91A40500594BD3F8E02042F48072E2
:10442000C3F8E020D3F8E03003F480730893089BCE
:1044300009A9284604F072F80FB030BD0B93D6E7F7
:104440000A93CDE711230A93CAE74C4B09A92846E2
:10445000D3F8E02042F00102C3F8E020D3F8E030C6
:1044600003F001030093009B04F058F80FB030BD37
:10447000424B09A92846D3F8E02042F00202C3F8D3
:10448000E020D3F8E03003F002030193019B04F035
:1044900045F80FB030BD394B09A92846D3F8E020C4
:1044A00042F00402C3F8E020D3F8E03003F0040344
:1044B0000293029B04F032F80FB030BD2F4B09A9D4
:1044C0002846D3F8E02042F00802C3F8E020D3F8F1
:1044D000E03003F008030393039B04F01FF80FB0D0
:1044E00030BD264B09A92846D3F8E02042F010023F
:1044F000C3F8E020D3F8E03003F010030493049BEA
:1045000004F00CF80FB030BD1C4B09A92846D3F8B5
:10451000E02042F02002C3F8E020D3F8E03003F0BE
:1045200020030593059B03F0F9FF0FB030BD134B3B
:1045300009A92846D3F8E02042F04002C3F8E02061
:10454000D3F8E03003F040030693069B03F0E6FF48
:104550000FB030BD094B09A92846D3F8E02042F03E
:104560008002C3F8E020D3F8E03003F08003079323
:10457000079B03F0D3FF0FB030BD00BF00440258CB
:1045800070B506460D4602F021F80446304602F0AA
:1045900025F82A1E0146204618BF0122BDE87040BA
:1045A00004F0CAB90023122270B586B0CDE9022307
:1045B00004930368032B01D804230593061D841D6F
:1045C000304602F003F80546304602F007F803468D
:1045D00001A92846019303F0A1FF204601F0F6FF50
:1045E000034620461C4601F0F9FF01A90346204678
:1045F000019303F093FF06B070BD00BF634A0368E8
:10460000934210B58CB028D0614A934258D0614A89
:10461000934200F09480604A934201D00CB010BDE8
:104620005E4C5F48D4F8E03043F00203C4F8E03059
:10463000D4F8E03003F002030A930A9BFFF7B2FFBD
:10464000D4F8F43043F08003C4F8F430D4F8F430F4
:1046500003F080030B930B9BE0E7504C5148D4F8D8
:10466000E03043F00203C4F8E030D4F8E03003F067
:1046700002030193019BFFF795FFD4F8E830002275
:104680001F2043F400131146C4F8E830D4F8E83092
:1046900003F400130293029BD4F8D83043F00103D3
:1046A000C4F8D830D4F8D83003F001030393039B47
:1046B00002F0B8FE1F200CB0BDE8104002F0F0BEC2
:1046C000364C3948D4F8E03043F08003C4F8E03089
:1046D000D4F8E03003F080030493049BD4F8E03076
:1046E00043F00203C4F8E030D4F8E03003F00203F2
:1046F0000593059BFFF756FFD4F8E83000222120F0
:1047000043F480031146C4F8E830D4F8E83003F4E9
:1047100080030693069BD4F8D83043F00103C4F815
:10472000D830D4F8D83003F001030793079B02F088
:1047300079FE21200CB0BDE8104002F0B1BE1B484C
:10474000FFF730FF154B00224820D3F8E840114610
:1047500044F40004C3F8E840D3F8E84004F400044B
:104760000894089CD3F8D84044F00104C3F8D8401A
:10477000D3F8D83003F001030993099B02F052FEED
:1047800048200CB0BDE8104002F08ABE0054004042
:1047900000580040005C0040001C005800440258D3
:1047A00048120024C00F0024981000247011002427
:1047B0002DE9F0431A4B87B000254FF010099E46B3
:1047C000EC46184BFF22E04667461A700EF11806B9
:1047D0000EF13004CDE90055CDE90255ADF8009059
:1047E000BCE80F00CDE90455AEE80F009CE80300DB
:1047F0000095ADF800908EE80300B8E80F000FC6F2
:104800009CE803000095ADF8009086E803000FCF08
:104810000FC49CE8030084E8030007B0BDE8F08300
:1048200020000024BC0F002410B5EFF3108472B6F2
:10483000084B1A78120602D504B962B610BD1B786F
:10484000D82205485BB202FB0300143003F014FBCE
:10485000F2E700BFBC0F0024C00F0024014804F0A1
:1048600003BF00BF4C100024014804F0FDBE00BF90
:1048700024110024014804F0F7BE00BFFC110024FD
:104880002DE9F0430F68D8243F4D85B007FB04F4B1
:10489000032F05EB0403036040DCCB680E46012BBD
:1048A0003CD84DD04FF0D808B646DFF8FC9008FB56
:1048B0000758BEE80F00C446ACE80F00DEF8003031
:1048C0000DF1100ECCF80030D8F808C099E80F00B0
:1048D0000EE90F000EEB8703BCF1010F53F8103CFB
:1048E000C8F88C3031D0BCF1020F42D0BCF1000FBF
:1048F00035D0317C8C34D823002201202C4403FB9A
:1049000007534900C3E92602C3F894102046C3E9BF
:104910002822C3E92A2204F099FC18B1012005B02D
:10492000BDE8F0830146204604F0AAFE0028F5D138
:104930000146204604F0CEFE003818BF0120EEE705
:104940000B7C103B672BADD9E8E701F021F90F4B49
:1049500098420CBF0E4B0F4BC8F89030C9E701F0DE
:1049600017F90A4B98420CBF0B4B0C4BC8F8903010
:10497000BFE701F00DF9054B98420CBF084B094BFE
:10498000C8F89030B5E700BFC00F0024000E27071D
:104990002D0FB0303211D0205F4390608A62E0303A
:1049A000200BA0101A098010904F01082DE9F0414A
:1049B000D0F8008082B00D4617461E4608F18C04E0
:1049C000204604F059FE2028FAD1D8F80C3073B9EB
:1049D0006D002046089C33463A46A9B2009404F084
:1049E0008BFC003818BF012002B0BDE8F081089BA5
:1049F00032463946204604F053FDF2E7044B1022BC
:104A00001A7483F8E82083F8C02183F8982270474D
:104A1000C00F002430B5002395B04FF480710622FA
:104A200004460B9306921393CDE90C13CDE90E3394
:104A3000CDE9113301F0AEF807282BD004F11005B1
:104A400041F2883206A9284605F096FD28B10123D7
:104A5000184684F85C3015B030BD0222022306A946
:104A60002846CDE9002310220123CDE902230022AC
:104A70004FF48003CDE9042305224FF080730692A2
:104A80006A460F9341F2883305F0E2FE0028DED13A
:104A900015B030BD0323012084F85C3015B030BD63
:104AA00070B50023A4B04FF080724FF480750446B7
:104AB000ADF806300D93CDE910320122CDE90E5349
:104AC000CDE91223CDE91433002943D0F02300F1BE
:104AD000100508AEADF80630C02341F288323146E9
:104AE0002846089305F048FD28B10123184684F8AC
:104AF0005C3024B070BD41F288320DF106012846C9
:104B000005F0A4FD03460028EFD105224FF4807183
:104B10001E93284616924FF080721B9321931F928A
:104B200002AA9FED1F7BCDE91C13CDE922338DED49
:104B3000027B9FED1D7B41F2883316A98DED047B2E
:104B40009FED1B7B8DED067B05F082FE0028CCD10E
:104B500024B070BD00F1100508AE612341F2883227
:104B600031462846089305F007FD0028BDD141F2E3
:104B700088320DF10601284605F0E6FD0028B4D183
:104B8000BDF80630204623F0780343F04003ADF82B
:104B90000630FFF73FFF00289ED0A6E7AFF3008066
:104BA00000000000010000001000000001000000F3
:104BB00000000000000040002DE9F04F00234FF4FA
:104BC000807501264FF0807804462DED028BABB046
:104BD0008DF8073013932193299314950E96CDF8F1
:104BE0005C80CDE91533CDE91863CDE91A33CDE901
:104BF0002253CDE92433CDE9273306231C9300F05B
:104C0000C9FF072808D004F1100741F288321CA917
:104C1000384605F0B1FC40B10123184684F85C30F9
:104C20002BB0BDEC028BBDE8F08F4FF0020A4FF0C5
:104C3000020B4FF0050941F2883308AA1CA9384637
:104C4000CDF89480CDF870909FED2D8BCDE908AB19
:104C50004FF0000A4FF4800B8DED0A8BCDE90CABC1
:104C600005F0F6FD0028D7D141F2883238460EA96A
:104C700005F082FC0028CFD1402341F288320DF1AB
:104C8000070138468DF8073005F0E0FC0028C3D155
:104C900041F288330EA902AA3846CDF83890CDF8F3
:104CA0005C809FED197B8DED048BCDE906AB8DED1E
:104CB000027B05F0CDFD03460028ADD1CDF8709004
:104CC0004FF00109CDF894804FF00008219308AA15
:104CD00029931CA938462295CDE92333CDE9273302
:104CE00041F288338DED0A8BCDE90CABCDE9088913
:104CF00005F0AEFD002893D0304684F85C608FE765
:104D00001000000001000000400000004000000012
:104D10002DE9F043624CA3B00D46046000F03AFF69
:104D2000072800F0A980286823466968AA6807C395
:104D30001E46AB8926F8043B3046257B677B05F091
:104D4000FDFBE0B9574B012D4FF00108E0612361F5
:104D500014BF4FF480134FF40003C4E9058893FA9D
:104D6000A3F3B3FA83F34FF48079013BC4F82490A2
:104D7000C4E90B003046236205F074FB38B1012210
:104D8000134684F85C20184623B0BDE8F083662300
:104D90000B90139041F2883206A90693CDE90C904E
:104DA000CDE90E00CDE91100304605F0E5FB002805
:104DB000E5D1992341F2883206A93046069305F0E1
:104DC000DBFB0028DBD105231C9019906A46149365
:104DD0004FF08073219014A91D9341F288339FED09
:104DE0002A7BCDE91A90CDE91F008DED007B9FED68
:104DF000287B30468DED027B9FED277B8DED047B7C
:104E000005F026FD0028BAD129462046FFF748FEC6
:104E10000028B4D12046FFF7CFFE03460028AED1CC
:104E2000002FB0D1189330460027002606AA14A9F7
:104E3000CDF86890CDE91F33EB2314934FF4406312
:104E40001B934FF4005317934FF440431C93A0233C
:104E50001693062319934FF0805321934FF040731C
:104E6000CDE906671D9305F06BFD034600288AD047
:104E7000434684F85C8086E701230322184684F8C1
:104E80005C2023B0BDE8F0830000000001000000BA
:104E900010000000010000000000000000004000C1
:104EA00020130024005000522DE9F04F8FB0414BE9
:104EB0000024026800AF9A427C63C7E90944C7E94D
:104EC0000B4403D03C37BD46BDE8F08F3A4B40F66B
:104ED00009213A48EB46D3F8D42007F11C0607F124
:104EE000220A4FF0020942F480424FF00308C3F84F
:104EF000D420D3F8D42002F48042BA60BA68D3F840
:104F0000E02042F04002C3F8E020D3F8E02002F0B5
:104F10004002FA60FA68D3F8E02042F02002C3F8B9
:104F2000E020D3F8E02002F020023A613A69D3F899
:104F3000E02042F01002C3F8E020D3F8E02002F0B5
:104F400010027A617A69D3F8E02042F00202C3F8D5
:104F5000E020D3F8E030F86103F002033984BB614C
:104F6000174B7B60BB697B6853F8040F7B6001F0D3
:104F70002DFB7B680546186801F030FB16F8013BF5
:104F8000786207F124012846C7F830807B63C7E9BF
:104F90000A9403F0C3FA5645E5D100225C2011467D
:104FA00002F040FA5C2002F07BFA3C37DD46BD4659
:104FB000BDE8F08F00500052004402580A0A090967
:104FC0007C130024114B02689A4200D07047104AAB
:104FD00070B5D2F8D4300F4C23F4804304F1180696
:104FE000C2F8D43054F8040F01F0F0FA05462068F6
:104FF00001F0F4FA0146284603F0D0FBB442F1D1A7
:105000005C20BDE8704002F059BA00BF0050005269
:10501000004402587C130024014805F01DBD00BF68
:1050200030130024084B1A1D981D03F1080110B419
:105030009C1C9A6603F10A02C3E91834C3E91B01F8
:105040005DF8044B5A6770472013002438B5036895
:1050500071B9026A00F1280500F5AC74012A0CBF91
:10506000002140218BBB1D4B5722C0F858310DE069
:10507000426A00F1C00500F5E874012A0CBF002166
:105080004021EBB1164B5A22C0F8D0310023204604
:10509000C4E901214FF480524FF480616362626180
:1050A0004FF48042C4E903314FF48073C4E906230E
:1050B0004FF40033236202F067FB58B1FFBEFEE7F6
:1050C000084B5822C0F8D031E0E7074B5922C0F80E
:1050D0005831DBE7C5E92044A56338BD1000024024
:1050E0007000024028000240580002402DE9F043C1
:1050F000821D05468BB0031D05F10A010830CDE97C
:10510000052305F10C02AB69CDE907010992002BDB
:105110003DD0EB69B3FA83F84FEA58180123022215
:1051200005AE0AAF4FF006090393CDE9012356F807
:10513000044B2B792278934216D02B68F3B1012BC4
:1051400002D1F2B10A230493204601F047FA034644
:105150002046009301F03AFA694603F0DFF9BE42B7
:10516000E5D10BB0BDE8F083697963789942E4D169
:10517000B8F1000FF3D02B68002BE0D1CDF81090E0
:10518000E2E76378022B14BF0A230823DBE74FF022
:105190000108C3E7534A0368934230B505468BB014
:1051A00055D02032934252D04F4A934204D02032FD
:1051B000934201D00BB030BD4C4C4D48D4F8E03098
:1051C00043F00103C4F8E030D4F8E03003F0010309
:1051D0000593059BD4F8E03043F00803C4F8E030B1
:1051E000D4F8E03003F008030693069BD4F8E030CF
:1051F00043F04003C4F8E030D4F8E03003F040035B
:105200000793079BD4F8F03043F40003C4F8F03060
:10521000D4F8F03003F400030893089BFFF766FF0F
:10522000D4F8D830296843F001032F4A3048C4F835
:10523000D830891AD4F8D83018BF012103F00103FF
:105240000993099B0BB0BDE83040FFF7FFBE274C28
:105250002848D4F8E03043F00103C4F8E030D4F833
:10526000E03003F001030093009BD4F8E03043F0FA
:105270001003C4F8E030D4F8E03003F010030193D9
:10528000019BD4F8E03043F04003C4F8E030D4F898
:10529000E03003F040030293029BD4F8F03043F473
:1052A0008003C4F8F030D4F8F03003F480030393A3
:1052B000039BFFF71BFFD4F8D830296843F00103A4
:1052C000084A0C48C4F8D830891AD4F8D83018BF26
:1052D000012103F001030493049B0BB0BDE83040AF
:1052E000FFF7B4BE04580140045C0140004402587A
:1052F000F415002498130024014802F0BDBD00BF3E
:10530000F0140024014802F0B7BD00BF6815002466
:10531000014802F0B1BD00BF4C170024014802F063
:10532000ABBD00BFC41700241A4A0368934210B4EF
:105330000BD02032934208D0174A934216D0203225
:10534000934213D05DF8044B7047144B0022D3F8FE
:105350005442C3F85822002CF4D0D3F84802D3E9C1
:10536000931223465DF8044B520818470B4B00225A
:10537000D3F8B044C3F8B424002CE3D0D3F8AC2461
:10538000D3F8A814D3F8A404520823465DF8044BBC
:10539000184700BF04580140045C014098130024E2
:1053A000184A0368934210B40BD02032934208D0BD
:1053B000154A934217D02032934214D05DF8044B23
:1053C0007047124BD3E994245208C3F85822002C9A
:1053D000F4D0D3E99201234601EB820100EB820075
:1053E0005DF8044B1847094BD3F8AC24D3F8B0440C
:1053F0005208C3F8B424002CE0D0D3F8A814D3F892
:10540000A404E8E704580140045C01409813002418
:105410002DE9F04F0C684FF41776754F87B004FBF9
:1054200006F6012C07EB060AC0F800A000F3A080E6
:105430000D468E464FF00008D44669A3D3E90023F9
:1054400069A1D1E90001CDE9022306ABCAF8508277
:1054500003EB8403CDE9040153F810BC53F8083C76
:10546000CAE992880193BEE80F00ACE80F00BEE8DD
:105470000F00ACE80F00019B9EE80300CAF828B0BB
:10548000CAF8C0308CE803002B69042B0CD8DFE885
:1054900003F0737D879103004FF41773554A03FBA4
:1054A00004739A64C3F8E020AA692B6A002A43D0E7
:1054B000002B4FF4177308BF022203FB047318BFBD
:1054C0000322DA6201221A63EA696B6A002A40D178
:1054D000191E4FF4177318BF012103FB0473C3E9AE
:1054E00031126B69022B05D8434A12F80380434AF4
:1054F00052F823904FF4177306F1280042464946AC
:1055000003FB04740023384463646363E365C4F8F5
:10551000DC30C4F8CC30C4F8F430C4E90F33C4E94B
:105520001533C4E93533C4E93B33022307F036FBB6
:10553000002849D0FFBEFEE7191E4FF4177318BFAD
:10554000012103FB0473C3E90B12EA696B6A002AA9
:10555000BED0002B4FF4177308BF022203FB047365
:1055600018BF0322C3F8C4200122C3F8C820B8E73B
:10557000012007B0BDE8F08F4FF417734FF4FA52D3
:1055800003FB04739A64C3F8E0208DE74FF41773AC
:105590004FF47A5203FB04739A64C3F8E02083E764
:1055A0004FF417734FF4FA4203FB04739A64C3F881
:1055B000E02079E74FF417734BF6803203FB047356
:1055C0009A64C3F8E0206FE706F1C0000223424668
:1055D0004946384407F0E2FA0028CAD0FFBEFEE789
:1055E00004580140045C014024580140245C0140FF
:1055F00098130024007701004C5201085052010812
:105600000068704770B5046882B015460E46C4F84D
:105610005032C4E99212069AC4F85422A269012AAF
:1056200026D0626A012A9AB211D0294604F1C0003C
:10563000019207F06FFB236A019A012B10D02946D3
:1056400004F1280007F066FB002002B070BD04F1F1
:10565000C000019207F0F0FB236A019A012BEED102
:10566000314604F1280007F0E7FB002002B070BDCE
:10567000226A012A9AB211D0294604F12800019227
:1056800007F048FB636A019A012B10D0294604F108
:10569000C00007F03FFB002002B070BD04F12800FD
:1056A000019207F0C9FB636A019A012BEED13146E2
:1056B00004F1C00007F0C0FB002002B070BD00BFC5
:1056C00003681B69042B05D8044A02EB830393ED9E
:1056D000000A70479FED020A704700BF5C52010844
:1056E00000803B470368D3F858027047704700BFFB
:1056F00008B501F07BF8BDE8084001F05BBF00BFD2
:10570000064808B503680BB103F01AF904480368AA
:105710001BB1BDE8084004F0C1B808BD70420024C8
:10572000683C0024064808B503680BB103F008F98B
:10573000044803681BB1BDE8084004F0AFB808BDD9
:1057400070420024683C0024064808B503680BB189
:1057500003F0F6F8044803681BB1BDE8084004F004
:105760009DB808BD70420024683C0024364BDA6ABC
:10577000520062D59A6A9A6A9A6A9B6A180600D59C
:1057800000BE314B9B6A990600D500BE2E4B9B6A2A
:10579000DA0600D500BE2C4B9B6A1B0700D500BE65
:1057A000294B9B6A980700D500BE274B9B6AD907F7
:1057B00000D500BE244B9B6A1A0400D500BE224BC4
:1057C0009B6A9B0400D500BE1F4B9B6AD80400D582
:1057D00000BE1D4B9B6A190500D500BE1A4B9B6A83
:1057E0005A0500D500BE184B9B6A9B0500D500BE2C
:1057F000154B9B6AD80500D500BE134B9B6A9901D7
:1058000000D500BE104B9B6ADA0100D500BE0E4BDE
:105810009B6A1B0300D500BE0B4B9B6A580300D547
:1058200000BE094B9B6A990300D500BE064B9B6ADC
:10583000DA0306D400BE00BEFEE7DB6A9B07FAD59A
:10584000F8E700BEF6E700BF00ED00E000F0DABFC9
:1058500000F0DEBF014601480AF0F2BB50180024F8
:105860000A4B9B6803F17843B3F5003F0BD3084B19
:10587000986848B19868012806D09868022803D033
:105880009B68032070470120704700BF00ED00E0D7
:10589000000080382DE9F041CEB004464C220021B2
:1058A0000AA80EF045F92022002102A80EF040F9C6
:1058B000BC2200211EA80EF03BF9022004F0EAFCF5
:1058C0002368012B4FF0000354D0534A0225019363
:1058D000C820D16A514B21F00101D162D26A02F095
:1058E000010201929A6942F440429A619B6903F471
:1058F00040430193019B494A93699B04FCD5484965
:105900000224002201268B6A04274FF0080823F0A6
:10591000030323438B62052316900AA818934FF4C0
:1059200080331096179419941597CDF86880CDE9B7
:105930001B222122CDE91344CDE90A2305F094F975
:1059400000B1FEE73F220323294602A8CDE9022346
:1059500000220823CDE9042340224023CDE9062379
:1059600040234FF48062CDE9082305F0ABFC0346E9
:10597000B8B1FEE7294A04250093F0209169264B2F
:1059800041F440419161926902F440420092DA6A26
:1059900042F00102DA62DB6A03F001030093009B2C
:1059A000A9E720224FF4805125934FF440152B9204
:1059B00080222D931EA83093269135914FF480714B
:1059C000249234920C223394439140F22711209276
:1059D0001022CDF884802A971F96CDE92E34CDE988
:1059E0003B334FF48033CDE9224631930024469374
:1059F0000623CDE93E4527934FF48063094C2C9351
:105A00001E94CDE9281205F0B9FE00B1FEE704F0BE
:105A100067FC4EB0BDE8F081000400580048025811
:105A2000004402580F130F0370B584B0012401F035
:105A30006FFD4FF480764FF04052194B68460025B9
:105A4000ADF800400396CDE9012301F07FFD192256
:105A50004FF0404368468DF8082001938DF80F40C1
:105A6000ADF80D608DF801408DF80A5001F06EFD23
:105A700002230B2268468DF80F508DF801304FF04D
:105A800062538DF808200193ADF80D408DF80A405F
:105A900001F05CFD042001F049FD04B070BD00BFC1
:105AA0000E00010330B50D46044685B0D1E9000172
:105AB00084E8030000F06AFEAB79A3B30BF0CCF9E5
:105AC000FEF776FE09F022FE0AF0C8FE2B798BBBAA
:105AD0006B799BB1BFF34F8FBFF36F8F2A4B0022BF
