:020000040800F2
:1000000000000220A10A00089D0A00088995000846
:100010009D0A00089D0A00089D0A000800000000D3
:100020000000000000000000000000009D0A000821
:100030009D0A0008000000009D0A00080D950008B8
:100040009D0A00089D0A00089D0A00089D0A0008F4
:100050009D0A00089D0A00089D0A00089D0A0008E4
:100060009D0A00089D0A00089D0A0008E98F000803
:10007000F58F0008BD700008019000080D90000881
:10008000A9500108697B00089D0A00089D0A000824
:100090009D0A00089D0A00089D0A00089D0A0008A4
:1000A0009D0A00089D0A00089D0A00089D0A000894
:1000B000A1440108AD440108B94401089D7B000832
:1000C0009D0A0008A97B00089D0A0008113D01084F
:1000D0001D3D0108DD4E0108094F01083D4F010893
:1000E0009D0A00089D0A0008000000009D0A000803
:1000F0009D0A00089D0A00089D0A00089D0A000844
:100100009D0A00089D0A0008C5440108293D010810
:10011000714F0108A54F0108897300089D0A000866
:10012000717300087D7300084D3D0108813D010891
:10013000DD5001089D0A00089D0A00089D0A00087C
:1001400000000000000000000000000000000000AF
:100150009D0A00089D0A00089D0A0008D94F010861
:10016000B57B00089D0A00081D9500084195000810
:100170009D0A0008659500089D0A00089D0A000870
:100180009D0A00089D0A00080D5001084150010811
:10019000353D0108413D01089D0A00089D0A0008FF
:1001A0009D0A00089D0A00089D0A00089D0A000893
:1001B000098D00089D0A00089D0A00089D0A000894
:1001C0009D0A00089D0A0008796B0008856B0008ED
:1001D0009D0A0008916B00089D0A00089D0A00080E
:1001E0009D0A00089D0A00089D0A00089D0A000853
:1001F0009D0A00089D0A00089D0A00089D0A000843
:100200009D0A00089D0A00089D0A00089D0A000832
:100210009D0A00089D0A00089D0A00089D0A000822
:100220009D0A00089D0A00089D0A000800000000C1
:100230009D0A00089D0A0008000000009D0A0008B1
:100240009D0A00089D0A00089D0A00089D0A0008F2
:100250009D0A00089D0A00089D0A00089D0A0008E2
:100260009D0A00089D0A00089D0A00089D0A0008D2
:100270009D0A00089D0A0008755001080000000052
:100280009D0A00089D0A00089D0A00080000000061
:08029000000000009D0A0008B7
:1002A00010B5054C237833B9044B13B10448AFF3B0
:1002B00000800123237010BD780700240000000097
:1002C00018B4010808B5034B1BB103490348AFF349
:1002D000008008BD000000007C07002418B401085D
:1002E00001F0FF01102A2BDB10F0070F08D010F8E7
:1002F000013B013A8B422DD010F0070F42B3F6D1EB
:10030000F0B441EA012141EA014122F007047FF003
:1003100000070023F0E80256083C85EA010586EA5A
:10032000010685FA47F5A3FA87F586FA47F6A5FA96
:1003300087F68EB9EED1F0BC01F0FF0102F00702A2
:1003400032B110F8013B013A83EA010313B1F8D14D
:100350000020704701387047002D06BF354603382E
:10036000073815F0010F07D1013015F4807F02BF67
:10037000013015F4C03F0130F0BC0138704700BFB8
:1003800081F0004102E000BF83F0004330B54FEA46
:1003900041044FEA430594EA050F08BF90EA020FB3
:1003A0001FBF54EA000C55EA020C7FEA645C7FEA46
:1003B000655C00F0E2804FEA5454D4EB5555B8BF69
:1003C0006D420CDD2C4480EA020281EA030382EADA
:1003D000000083EA010180EA020281EA0303362D6C
:1003E00088BF30BD11F0004F4FEA01314FF4801C3F
:1003F0004CEA113102D0404261EB410113F0004F51
:100400004FEA03334CEA133302D0524263EB430307
:1004100094EA050F00F0A780A4F10104D5F1200EA5
:100420000DDB02FA0EFC22FA05F2801841F1000100
:1004300003FA0EF2801843FA05F359410EE0A5F1D4
:1004400020050EF1200E012A03FA0EFC28BF4CF005
:10045000020C43FA05F3C01851EBE37101F00045BB
:1004600007D54FF0000EDCF1000C7EEB00006EEBC8
:100470000101B1F5801F1BD3B1F5001F0CD3490852
:100480005FEA30004FEA3C0C04F101044FEA4452A9
:1004900012F5800F80F09A80BCF1004F08BF5FEA30
:1004A000500C50F1000041EB045141EA050130BD10
:1004B0005FEA4C0C404141EB0101013C28BFB1F522
:1004C000801FE9D291F0000F04BF01460020B1FA6D
:1004D00081F308BF2033A3F10B03B3F120020CDA40
:1004E0000C3208DD02F1140CC2F10C0201FA0CF01E
:1004F00021FA02F10CE002F11402D8BFC2F1200C83
:1005000001FA02F120FA0CFCDCBF41EA0C01904038
:10051000E41AA2BF01EB0451294330BD6FEA040481
:100520001F3C1CDA0C340EDC04F11404C4F120026C
:1005300020FA04F001FA02F340EA030021FA04F37E
:1005400045EA030130BDC4F10C04C4F1200220FAD5
:1005500002F001FA04F340EA0300294630BD21FA13
:1005600004F0294630BD94F0000F83F4801306BFD9
:1005700081F480110134013D4EE77FEA645C18BFCD
:100580007FEA655C29D094EA050F08BF90EA020F64
:1005900005D054EA000C04BF1946104630BD91EA5C
:1005A000030F1EBF0021002030BD5FEA545C05D15F
:1005B0004000494128BF41F0004130BD14F580049E
:1005C0003CBF01F5801130BD01F0004545F0FE4112
:1005D00041F470014FF0000030BD7FEA645C1ABF47
:1005E000194610467FEA655C1CBF0B46024650EA7E
:1005F000013406BF52EA033591EA030F41F40021AA
:1006000030BD00BF90F0000F04BF0021704730B52F
:100610004FF4806404F132044FF000054FF0000104
:1006200050E700BF90F0000F04BF0021704730B5C5
:100630004FF4806404F1320410F0004548BF40429A
:100640004FF000013EE700BF42004FEAE2014FEAEF
:1006500031014FEA02701FBF12F07F4393F07F4FCA
:1006600081F06051704732F07F4208BF704793F0CD
:100670007F4F04BF41F40021704730B54FF46074E0
:1006800001F0004521F000411CE700BF50EA0102E3
:1006900008BF704730B54FF000050AE050EA01028C
:1006A00008BF704730B511F0004502D5404261EBFC
:1006B00041014FF4806404F132045FEA915C3FF43D
:1006C000D8AE4FF003025FEADC0C18BF03325FEADA
:1006D000DC0C18BF033202EBDC02C2F1200300FA8B
:1006E00003FC20FA02F001FA03FE40EA0E0021FAB0
:1006F00002F11444BDE600BF7BB972B90029BEBF48
:1007000000204FF0004106E008BF00281CBF6FF03A
:1007100000414FF0FF3000F0BFB9ADF1080C6DE9BA
:1007200004CE002909DB002B1ADB00F04DF8DDF8C0
:1007300004E0DDE9022304B07047404261EB41016F
:10074000002B1BDB00F040F8DDF804E0DDE90223BC
:1007500004B0404261EB4101524263EB43037047F6
:10076000524263EB430300F02FF8DDF804E0DDE9CB
:10077000022304B0404261EB41017047524263EBF7
:10078000430300F021F8DDF804E0DDE9022304B0C2
:10079000524263EB4303704753B94AB9002908BF7B
:1007A00000281CBF4FF0FF314FF0FF3000F074B94C
:1007B000ADF1080C6DE904CE00F006F8DDF804E0B8
:1007C000DDE9022304B070472DE9F047089D044697
:1007D0008E46002B4DD18A42944669D9B2FA82F2F4
:1007E00052B101FA02F3C2F1200120FA01F10CFA30
:1007F00002FC41EA030E94404FEA1C48210CBEFB68
:10080000F8F61FFA8CF708FB16E341EA034306FBF0
:1008100007F199420AD91CEB030306F1FF3080F07F
:100820001F81994240F21C81023E63445B1AA4B2CC
:10083000B3FBF8F008FB103344EA034400FB07F76E
:10084000A7420AD91CEB040400F1FF3380F00A81AF
:10085000A74240F207816444023840EA0640E41BA4
:1008600000261DB1D4400023C5E900433146BDE850
:10087000F0878B4209D9002D00F0EF800026C5E9F2
:10088000000130463146BDE8F087B3FA83F6002E0A
:100890004AD18B4202D3824200F2F980841A61EB82
:1008A000030301209E46002DE0D0C5E9004EDDE7A0
:1008B00002B9FFDEB2FA82F2002A40F09280A1EB88
:1008C0000C014FEA1C471FFA8CFE0126200CB1FBDD
:1008D000F7F307FB131140EA01410EFB03F08842D6
:1008E00008D91CEB010103F1FF3802D2884200F263
:1008F000CB804346091AA4B2B1FBF7F007FB1011F5
:1009000044EA01440EFB00FEA64508D91CEB040492
:1009100000F1FF3102D2A64500F2BB800846A4EBED
:100920000E0440EA03409CE7C6F12007B34022FAD8
:1009300007FC4CEA030C20FA07F401FA06F31C4307
:10094000F9404FEA1C4900FA06F3B1FBF9F8200C14
:100950001FFA8CFE09FB181140EA014108FB0EF05A
:10096000884202FA06F20BD91CEB010108F1FF3AAA
:1009700080F08880884240F28580A8F102086144B6
:10098000091AA4B2B1FBF9F009FB101144EA0141C4
:1009900000FB0EFE8E4508D91CEB010100F1FF346F
:1009A0006CD28E456AD90238614440EA0840A0FB07
:1009B0000294A1EB0E01A142C846A64656D353D0DD
:1009C0005DB1B3EB080261EB0E0101FA07F722FA01
:1009D00006F3F1401F43C5E9007100263146BDE82A
:1009E000F087C2F12003D8400CFA02FC21FA03F38D
:1009F000914001434FEA1C471FFA8CFEB3FBF7F00E
:100A000007FB10360B0C43EA064300FB0EF69E4232
:100A100004FA02F408D91CEB030300F1FF382FD2CB
:100A20009E422DD9023863449B1B89B2B3FBF7F673
:100A300007FB163341EA034106FB0EF38B4208D94C
:100A40001CEB010106F1FF3816D28B4214D9023E8D
:100A50006144C91A46EA004638E72E46284605E7AB
:100A60000646E3E61846F8E64B45A9D2B9EB02087C
:100A700064EB0C0E0138A3E74646EAE7204694E70C
:100A80004046D1E7D0467BE7023B614432E730463F
:100A900009E76444023842E7704700BFFEE700BF41
:100AA0000B480C4A904203D0121A0B4917F0A2FBD4
:100AB0000A480B4A904203D0121A002117F0A8FBF3
:100AC00008F0C2FF17F06AFB00F054F8FEE700BF21
:100AD000000000247807002450B40108780700249F
:100AE00080630024704700BF002840D000292DE912
:100AF000F043CCBF00260126BEBBFDEEC07A1C4BE6
:100B0000441E7F2717EE909A83FB09234FEAE97E64
:100B1000CEEB630E0EEB4E03F046A9EB830E23469D
:100B200014F901CFBCEB0E0203F1020348BFAEEB98
:100B30000C021B1AC2F10C05AA42A8BF2A46BA42EF
:100B400001DA174666469942E9DC07EE909A08EB0F
:100B50004808F8EEE77A06EB880630EE670A07EEFB
:100B6000906AF8EEE77A37EE800ABDE8F0837047C6
:100B7000ABAAAA2A2DE9F04F00213C482DED0C8BA1
:100B8000ADF5037D04F048FD0421384804F06CFC09
:100B9000374B002135481C6807F0F8FF0368013B1C
:100BA000012B01F2F38744686EAB0DEE903A0E2CE8
:100BB00001D82F4B1C602E4A13680E2B02F02080A8
:100BC00013682C4A41F28830136008F04FFD02F0A0
:100BD00027FB02F06FFA3BAB002842F006800E9331
:100BE00000250124022636A92348399437963A95E0
:100BF000389506F0D7FB31462A461F4806F050FCD0
:100C00001E4B22461E4819682B46009506F080FCB4
:100C100029461B4806F06EFD03238DF874503246BA
:100C20008DF8753031A81D9905F0B8FF224631A91D
:100C3000042314482C4605F0C5FF124806F0D0F9ED
:100C40001EAB22930DF17A0323931FAB24934DF235
:100C5000D863ADF878304CF27C43ADF87A300A4B6B
:100C60001F9308F001FD064618E000BF940700241A
:100C70000800002404000024B4070024E8A30108AD
:100C8000D4070024AC070024EF4FC63706F0BEF9A6
:100C900003460A2001351C4408F0E8FC08F0E4FC97
:100CA000034600219E489B1BB3F5FA6FEED355B364
:100CB00042F234129FED9B6AF7EE006AB4FBF5F343
:100CC0009BB2934238BF134607EE903AADF87830A6
:100CD000A3F5FA53B8EEE77A07EE903AF8EEE77A22
:100CE000A7EEC67AFCEEC77A17EE903A9BB2ADF843
:100CF0007A30A3F5FA5307EE903AF8EEE77A86EEEB
:100D0000A77A8DED1F7A884F0025884B3C681A46DC
:100D1000874904EB8403874E874802EB4313049210
:100D200093ED018A854B78EE087AC1ED007A84490B
:100D30000B608449356004F08FFB834BC82033601F
:100D400008F094FC3220356008F090FC002005F09B
:100D50004BFE7E4805F03AFE7D4805F037FE3B68C5
:100D6000A6000E2B1D46A8BF0E25002BC1F25087F2
:100D70000023049A194692F87C000133A03200B98E
:100D80000131AB42F7DD694B0022049393F87C00FC
:100D9000A03300B901326F489842F7D1049B264432
:100DA000BDEEC88A6C4803EB46147601D4ED027A96
:100DB0009B59FDEEE77A8DED008ACDED017A05F0C5
:100DC00005FE664805F002FE94F83D30002B01F068
:100DD000FB86634805F0FAFD624805F0F7FD6248BE
:100DE00005F0F4FD614805F0F1FD08F03DFC1590BB
:100DF00008F03AFC0B9008F037FC4B4B11901B6845
:100E00000E2B1846A8BF0E20002BC1F2048700232A
:100E1000464A1D4692F87C100133A03201B90135D3
:100E20008342F7DD002D01F0F686514E002417961F
:100E300040F6FF7200214F48013406F031FB40F6C6
:100E4000FF7201214B4806F02BFB4B4B6E203360A9
:100E500008F00CFC00224748114606F021FB002256
:100E60000121444806F01CFB00238C20336008F06D
:100E7000FDFBA542DCD19FED419AF7EE008ABDF85B
:100E80007A9000233E4AB0EE49AAF0EE499ACA464B
:100E900041AE9146129320930C930A9316930993B3
:100EA000189307930D9319930693CDE92533CDE954
:100EB0002733CDE92933CDE92B33CDE92D33CDE9E6
:100EC0002F33CDE91A330021154806F09FF850451D
:100ED00080F01B85B0F5FA5F40F25387A0F5FA5019
:100EE0009DED1F7A274B07EE900AB8EEE78ADFEDFB
:100EF000267A28EE078AB4EE678A83ED008A079B7C
:100F0000F1EE10FAA8BF002307933046012402F047
:100F10003DF955AB30460E9A194610933EE000BF9E
:100F2000AC070024CDCCCC3D08000024889A0108F1
:100F300070010024DC080024940700240000C8424B
:100F400068010024C9360008CDCCCC3EA496010827
:100F5000B8960108E8A30108CC960108E8960108B4
:100F60000C9701085C970108A4970108C497010831
:100F7000E8080024B4070024CDCC4C3D000000005C
:100F80001008002464010024CDCCCC3E9C420B60B0
:100F900001F10401B8BF1C4696420ED032F8023B64
:100FA000002730F8025B5B1BF0D53B460F60043135
:100FB0009C42B8BF1C469642F0D104221DEE901A06
:100FC00055A802F09BF9074608F04EFB0546002F96
:100FD00040F358850D9B1690002B00F0CC864FF007
:100FE0000108CE4BCE4A1360079B002B01F0FF8215
:100FF000099B83F0010318EA0303099300F01C879F
:101000001A9BEB1A952BC74B01F31D841B680E2B03
:1010100001F0A083002F40F3198708F025FB1590FD
:1010200008F022FB0B9039461DEE900A02F02AFAD6
:1010300099F800300593002B40F0E985069B002BC2
:1010400000F0DA8500230F93B64BD3F80080B8F197
:101050000E0F02D01B68B44A13600023B34F20ADBB
:101060002193B9464793149708F0FEFA21AB47A99C
:101070000DF1A40C0DF1B40E9A46139325AA3B462C
:10108000089493F800B0BBF1000F00F04D840127E5
:10109000B8F10E0F10600F7000F05084A24F049C46
:1010A0003F6807EB870704EB471797ED217AD3EDED
:1010B000027A2F78F8EEE77A002F40F06E8401274D
:1010C000CCED007ACEF800008AF800701433984F07
:1010D00001310CF1040C9F420AF1010A0EF1040ED9
:1010E00005F1010502F10402CBD1B8F10E0F089C05
:1010F00000F0F9869DF884302BB19DF8803013B153
:1011000001238C4A13709DF81C318DF880309DF8B6
:101110001D318DF881309DF81E318DF882309DF89B
:101120001F318DF88330804B1D68059B002B00F02C
:101130005B85D9ED017ADFED806AB8EEE77AC7EE1C
:10114000267AF5EEC07AF1EE10FA00F12986B7EEB4
:10115000007AF4EE477AF1EE10FA77FE277A99EDED
:10116000027ADFED766AB8EEC77A87EE26BAB5EE78
:10117000C0BAF1EE10FA00F10F86B7EE007AB4EEC5
:1011800047BAF1EE10FA37FE0BBA05EB8503049A65
:10119000B6EE007ADFED6A6A02EB4313F7EE00AABF
:1011A000AF0093ED036A93ED01CA67EE867AD3ED43
:1011B00002BAA7EEA67AF0EE6A6AE7EE276AE6EED2
:1011C000A7AA6CEE2AAAB4EEEACAF1EE10FA00F36E
:1011D0000386F4EE6BAAF1EE10FA7BFEAAAA7B1945
:1011E000049A02EB431A9AF888301BB10F9B002B2C
:1011F00041F00281B4EEEACAF1EE10FA40F3DB8569
:10120000B5EEC0BAF0EE4CBAF1EE10FA00F1E0859E
:10121000F7EE007AB4EEE7BAF1EE10FA0FDCB1EEB9
:10122000086AFAEE0E6AF2EE047A2BEE0B7AEBEE17
:10123000066A27EE0B7AEBEE267A67EE277A7B19A1
:10124000049A9FED405AB6EE007A02EB4313DFEDAD
:101250003E5ADFED3B6AF7EE00AAD3ED114A9FED4F
:101260003B6A67EEA47AD3ED150AF4EEC60A67EE80
:10127000857AF1EE10FAE7EEA56AA6EEA77AF0EE0F
:101280006A6AE7EE276AE6EEA7AAC0F22486F0EEC5
:101290006B7A7B19049AB3EE047A02EB4313D3ED15
:1012A000106A67EEA67A67EEAAAAF4EEC7AAF1EE74
:1012B00010FA00F1BD85DFED267AF4EE67AAF1EEB3
:1012C00010FA77FEAAAADFED237ADFED236A7BEE20
:1012D000677A87EEA67AB5EEC07AF1EE10FA00F1E1
:1012E0009B85F7EE007AB4EEE77AF1EE10FA01F39F
:1012F0005A80B0EE006ADFED196AF0EE087A67EE08
:1013000007CAE7EE467A6CEEA7CA6CEEA6CAB5EE3F
:10131000C0BAF1EE10FA00F1878521E09A99593FA1
:1013200064010024080000240400002410080024A4
:1013300060080024EC08002400007A440000C84241
:1013400068B32A3E006F313F9FCD2A3D77BE7F3F75
:1013500000A08C469A99193FCDCCCC3ECDCC4C3FC9
:10136000F7EE007AB4EEE7BAF1EE10FA09DCF0EE2F
:10137000006AB0EE087A6BEE0B7AABEE667A67EE37
:10138000877A7B19049AB7EE00CA02EB431393EDF8
:10139000137A069BA7EE27CA2BB9F0EE4B8A08F00A
:1013A00063F908F061F9CD4B2F44F7EE007ADFEDD9
:1013B000CC6AC3ED00BA049BCA4A03EB4717CA4B79
:1013C00097ED207AC3ED00AA77EEC77AC74BC3ED3D
:1013D00000CAE7EE287AC64B83ED00CA01231370DA
:1013E000C44B67EEA67AC3ED007A0A9B002B00F38C
:1013F000DB830C9B002B00F00F8408F035F9129B67
:10140000C31A002B13DB0A9B0022013B11460C92EE
:101410000A9300F18C03B848129306F041F80022B9
:101420000121B54806F03CF80023179A136099F89B
:101430001430002B00F0E882B8F10E0F00F0E482C7
:10144000D9ED067ADFEDAD6AF8EEE77A87EEA67A97
:10145000B5EEC07AF1EE10FA00F13185F7EE007AC0
:10146000B4EEE77AF1EE10FA01F34081F6EE007A7D
:10147000F0EE085A37EE677A67EE255AD9ED077A0B
:101480009FED9F7AF8EEE77A87EE876AB5EEC06A3D
:10149000F1EE10FA00F11785F7EE006AB4EEE66A95
:1014A000F1EE10FA40F3E984B0EE666AF0EE467AA7
:1014B000BAEE0E5AB1EE084AF2EE046AF0EE453A80
:1014C00027EEA77AF0EE664AE7EE843A27EE277A0F
:1014D000E7EEA34A27EE247AB5EEC07AF1EE10FAD1
:1014E00041F164809FED877ADFED876A36EE477AB7
:1014F000DFED867A87EE265ADFED846A05EB8503F9
:10150000049AAF0002EB4313B4EEE66A93ED187A47
:10151000F1EE10FA67EE877A00F1F185B7EE007A06
:10152000B4EEC76AF1EE10FA0BDCF0EE004AF0EE12
:10153000086A26EE067AE6EE646A27EE267A65EEFB
:10154000875AB5EEC05AF1EE10FA00F1C084B7EE3A
:10155000007AB4EEC75AF1EE10FA09DCB0EE006A78
:10156000F0EE086A25EE057AE5EE466A27EE267A61
:10157000674B2F44C3ED005A664BC3ED007A049BC2
:1015800003EB4717644BD7ED177A67EE277AC3ED65
:10159000007A08F069F8119BC01A772840F242825D
:1015A00008F062F85D4B11901B680E2B5B4B1B68BB
:1015B0001F4601F0AD810E2B4FF00001A8BF0E2792
:1015C000002B09DB564A0B4692F87C000133A0320F
:1015D00000B90131BB42F7DD514B002293F87C008A
:1015E000A03300B901324F489842F7D105EB850589
:1015F000049B4D4803EB45176B01049D97ED027A60
:10160000D7ED017ABDEEC77AEB58FDEEE77A8DEDA6
:10161000017ACDED007A05F0D9F944484FEA640A21
:1016200005F0D4F9424805F0D1F90027DDF840B0C3
:101630005BF8042B002A40F3DB8402EB82000AEB08
:101640008000B0FBF4F01428A8BF14205B230DF237
:1016500035184DA98DF834314346CD43591981428F
:10166000ACBF2021232103F8011B0DF2491199423F
:10167000F4D15D238DF8493100238DF84A3199F872
:101680000030002B00F0B184D9F80C30BB420CBF05
:101690003123202399F8141021B1D9F82010B94230
:1016A00008BF32233946013700934DAB214805F07E
:1016B0008DF90C2FBCD17C2428222D210DF2851010
:1016C0008DF88441AA4616F0A3FD1B4F00238DF828
:1016D000AD4131248DF8AE3130E000BF70010024FF
:1016E000EC51383FE408002468010024F808002485
:1016F0006C010024DC080024B407002400007A44B4
:101700000000C8429A99593F9A99193E000000007A
:10171000F4080024E0080024F00800240800002455
:10172000889A0108E8A3010894980108B098010874
:10173000C4980108E89801081008002497F800E010
:101740004FF0270C4FF4FA7000214FF47A72002307
:10175000BEF1000F10D07D68C5FB0C01FEF7CCFF79
:10176000272820EAE0704FF02803D8BF431C03F578
:1017700002736B4403F8844C01341437E4B2352C03
:10178000DCD161A9AC4805F021F95546DDF850A03F
:1017900001270DF245149AF80030002B00F0318437
:1017A000DAF80830002B40F3A5871901A34A32313B
:1017B000A2FB012149091029A8BF10215B228DF845
:1017C00034210DF2351250198842ACBF202023205D
:1017D00002F8010B9442F6D14DAA3946984800927E
:1017E0005D228DF8452100228DF84621DAF804208B
:1017F00005F0ECF8022F0AF1140A40F0FC83B7EE72
:10180000007ADFED906AF6EE007A37EE488AE8EE6D
:10181000267AFDEEE77A17EE903A17EE901A642BCF
:10182000A8BF6421002B21EAE17140F366870A0119
:10183000824B3232A3FB023252095B238DF83431E2
:1018400005EB08039342ACBF2023232308F8013B98
:10185000A045F5D15D234DAA7B488DF84531002385
:101860008DF8463105F0B2F8784BF2EE044A9FED60
:10187000755AD3ED006A764BFDEEE66A93ED006A89
:10188000744B16EE901AFDEEC66AD3ED005A724BF9
:1018900065EEA45A16EE902AD3ED007A6F4BFDEE5A
:1018A000E56A93ED007A67EE857A16EE900A27EEE8
:1018B000057AFDEEE77A0028BDEEC77AC0F23887D8
:1018C000674BC51783FB0043C5EBA3052B2305EB33
:1018D0008504A0EB440405988DED037ACDED027AE2
:1018E00006906048CDE9005405F070F85E4805F0B8
:1018F0006DF8032007F0BAFEBDF87AA000215B481E
:1019000005F084FB5045FFF4E5AAB0F5FA5FF7EE69
:10191000007A8CBF00230123B0EE678A0793544BF3
:10192000C3ED007AFFF7F1BA1768C71B272F63DCF6
:101930000127B8F10E0F0F707FF4B0ABD3ED017A31
:10194000DFED4C6AF8EEE77A87EEA67AB5EEC07A5C
:10195000F1EE10FA54D4F7EE007AB4EEE77AF1EE35
:1019600010FA4DDCF0EE477A434CFEEECF7A17EEDC
:10197000907AD3ED027A032FF8EEE77AA8BF032717
:1019800054F82770049C07EB870704EB471797ED83
:10199000217A2F78002F3FF492ABBBF1000F3FF478
:1019A00095ABF6EE006A9CED006AB5EEC07A67EE84
:1019B000A67AF1EE10FAE6EE267ACCED007A7FF701
:1019C00085AB77EEC67AF3EE026AF4EEE67AF1EED4
:1019D00010FA7FF77BABBDEEC77ADEF80070C71B4D
:1019E00017EE104AA742FFF671AB0127CEF80000B0
:1019F0008AF80070FFF76ABB81F800B0FFF766BB9A
:101A00009FED1E7AFFF753BB0023124A1360124A60
:101A100013601B4A136007F027FE119BC01A77283A
:101A20003FF6BEAD059B0320069307F01FFEBDF8F1
:101A30007AA0FFF748BA00BFFC9801081F85EB5158
:101A4000089901080000C842589901087001002453
:101A500068010024F4080024E0080024F8080024A9
:101A60006766666674990108B0990108AC0700249E
:101A70006401002400007A44589A01080000C84319
:101A8000F0080024169BA0EB03080D9BB8F13B0F58
:101A9000CCBF4FF000084FF00108002B7FF4A1AA43
:101AA000079B002B01F0DF80189B002B00F02283A6
:101AB000EB1AB3F5FA6FC0F0C1860023C84A049947
:101AC0001360C84A136803EB83035B01C9581368AA
:101AD0000D9A0E2B9E46A8BF4FF00E0E002B0CDB6E
:101AE000C1481346944690F87C200133A0300AB9CF
:101AF0000CF1010C9E45F6DA6246BB484FF0000C33
:101B000090F87C30A0300BB90CF1010CB74B83423C
:101B1000F6D16346B64804F059FFB24B1B680E2B52
:101B20001846A8BF0E20002BC0F262870023AE4AE1
:101B30009C4692F87C100133A03209B90CF1010CDB
:101B40008342F6DD6346CDF828C0002B00F05087B5
:101B500040F6FF720021A748CDF8248005F0A0FCD4
:101B600040F6FF720121A34805F09AFCA24B179A98
:101B7000136005F16E031293079BCDE90B5301230C
:101B80000D9307F071FD401BB0F5FA6F80F0668190
:101B900007F06AFD0B9BC01A41F28733984200F2AE
:101BA000E9821595FFF73FBA07F05EFD129BC31A55
:101BB000002BFFF63CAC0C9B002B7FF424AC00F117
:101BC0006E030C9940F6FF728A48129305F068FC88
:101BD00040F6FF720121874805F062FC864B179A98
:101BE000136001230C9322E4844B059A1A7000239E
:101BF0007B4A1360FFF7F9BB07F036FD199BC01A4B
:101C0000C72894BF002301230F93FFF71DBA07F0E5
:101C10002BFD1990FFF712BA059B002B00F0F781FE
:101C2000D9ED017ADFED766AF8EEE77A87EEA67AEB
:101C3000B5EEC07AF1EE10FA00F16285F7EE007AA7
:101C4000B4EEE77AF1EE10FA00F39386D9ED026A6A
:101C5000DFED6C5AB8EEE66AC6EE256AF5EEC06AAC
:101C6000F1EE10FA40F10487F6EE006AB0EE006A79
:101C7000FFEE00BAB6EE08CA77EE666AB0EE67BA53
:101C8000E7EE06BAF0EEE66AA7EE46BAE6EEC67AE8
:101C9000B0EE677AB5EEC0BAF1EE10FAF5EEC0BA62
:101CA00048BF9FED5CBAF1EE10FAB5EEC07A48BFBE
:101CB000DFED58BAF1EE10FA40F18B879FED557ABF
:101CC000B1EEC70AB5EE400AF1EE10FA01F100805C
:101CD000F1EEC07AB5EE40BA6CEE27AAF1EE10FA3A
:101CE00000F1F087B1EECB0AB5EE400AF1EE10FA42
:101CF00000F1CC87F1EEC07AF5EE40BA2CEE27BAAF
:101D0000F1EE10FA00F1BC87B1EEEB0AB5EE400A35
:101D1000F1EE10FA00F1AE87F1EEC07A9FED3A7A5B
:101D2000069B6CEE277A67EE877A002B40F01586CB
:101D3000B0EE679AB0EE4BAAF0EE6A9ADFED33AAE6
:101D400000212C4869EEAA7AFCEEE77A17EE903A69
:101D50009AB205F0A5FB6AEE2AAA01212548FCEEFD
:101D6000EAAA1AEE903A9AB205F09AFB179B83ED15
:101D7000009AFFF75CBB012309930D9B1893FFF7B3
:101D80004CB9DFED247A224BB0EE678AC3ED007ABE
:101D900001230793FFF7B9B89FED1EBAFFF7F5B916
:101DA000DFED1C7AFFF7DBB99AF89C30F0EE4CAA15
:101DB000002B40F07383F4EEEABAF1EE10FAB5EEC0
:101DC000C0BA58BFF0EE6ABAF1EE10FA7FF520AA59
:101DD000DFED107AFFF733BAF0EE4CAAFFF7FFB948
:101DE000DC08002408000024889A0108E8A3010800
:101DF000CC970108B4070024CDCC4C3DE408002466
:101E000000007A440000C842CDCC4C3D00F07F4534
:101E10006401002400000000B5EEC0BA5FED03CA03
:101E2000F1EE10FA7FF59CAA5FED067AFFF7A9BAEA
:101E3000F0EE47AAFFF747BAB34B1B680E2B00F032
:101E40008984002FCDF824803FF7E7A80B9507F091
:101E50000BFC401BB0F5FA6FFFF49AAE00230E980E
:101E600089F8143089F8003001F0AAF9A74804F085
:101E7000ADFD07F0F9FB05468AE6B1EE085A9FED85
:101E8000A44AFAEE0E4ADFEDA33AF2EE047A26EE09
:101E9000067AE6EE054A36EE444A27EE067A84EEE6
:101EA000235AE6EE247A67EE277AF5EEC07AF1EE51
:101EB00010FA40F17183DFED987AFFF71DBBFFEE5A
:101EC000085AFFF7DBBA9FED946AFFF7EFBA9FED70
:101ED000927AFFF74DBB8BEE8C0A15F089FF6CEE02
:101EE000007AFFF7D6B98D4F0025DFF884A2DDF820
:101EF0004CB01BF8013B23BB47AB5B5D1BB920AA71
:101F0000525D02B17B7001354C370AF1140A042D81
:101F1000EFD10023824A089C13609DF81C318DF894
:101F200080309DF81D318DF881309DF81E318DF87F
:101F300082309DF81F318DF883307A4B1D68FFF792
:101F400054BADAED017ADFED786AB8EEE77AC7EED7
:101F5000267AF5EEC07AF1EE10FA00F13983F7EE49
:101F600000AAF4EEEA7AF1EE10FA67DDB3EE09DAD0
:101F7000DFED6EBADFED6E0A0B249FED6ECADFED6A
:101F80006ECADFED6EAA9FED6EBA8CEE2C0A15F0CC
:101F90002FFF20EE2C0A20EE0D0AF3EE047A60EEFD
:101FA0002AAAF4EEE7AAF1EE10FA00F11D83DFEDA4
:101FB000657AF4EE67AAF1EE10FA77FEAAAA6248F3
:101FC00003F04EFAF7EE001AB0EE402A2146F0EE8A
:101FD0004B0A3846B0EE6A1AB0EE4C0A7BEEA11AF4
:101FE00001F0C6FA4F4B1C608DE72023FFF752BB70
:101FF0000020FFF72BBB9AF800300227002B7FF45C
:10200000CFAB3946514804F0E1FCFFF7F3BBDFEDFD
:10201000427ADFED4F5AF0EE676AB0EE677A9FEDD5
:102020004D6AE9EE257AA9EE867AEAEE066AB0EE06
:10203000679AF0EE479AB0EE66AA7FE6B1EE007AB4
:10204000454ADFED463AF6EE006A9FED454A67EEF7
:10205000877A9FED446A9FED445ADFED394ABDEE21
:10206000E77A17EE103A032BA8BF032352F8234058
:1020700007EE103A049A04EB8403B8EEC77A02EB39
:1020800043133A4A77EEC77A93ED117AD3ED205A8B
:1020900027EE237AD3ED01CA3AEEE5BAD3ED150A5D
:1020A00093ED10DAA7EE046AD3ED13BAF4EEC50A85
:1020B0003BEE25BA2BEE24BAE7EE066AB0EE6A6A6A
:1020C000A7EE266AE7EE06AAB0EE677ABEEECF7AF2
:1020D00017EE103A032BA8BF0323F1EE10FA02EB20
:1020E000830393ED000A2CEE800AB0EE40CABFF6DF
:1020F00052AF4AE7CDF8248018950B9541E565EE7F
:10210000A65AFFF71EBA00BF080000243C98010839
:102110009A99593F9A99193E000000003400002412
:10212000DC0800240400002400007A449A99993FB6
:10213000CDCC4C3E0000FA4500007A45827A7C40C6
:10214000EC51383F00A08C469407002428990108E0
:10215000CDCCCC3D6666E63E589A0108006F313F13
:102160009FCD2A3D68B32A3E77BE7F3F789A01080B
:10217000100800244FF0000807F076FA0897074689
:10218000C346C2464546CDF82C90DDF85C80DDF8AC
:102190003890059407F068FA854BC41BDFED856A1B
:1021A0009FED857AB7EE00BAA3FB042342F6E06206
:1021B0001B0A02FB134307EE903AF8EEE77A87EE2C
:1021C000A60A20EE070A15F00BFCF6EE007A3BEEAD
:1021D000400AF0EE006AB7EE007A20EE270AF7EE2A
:1021E000007A70EE00AA3BEE6ABA7AEEE7AAF6EE43
:1021F000007AB5EEC0BA30EE670AF1EE10FAF5EEED
:10220000C0AAF0EEC07A48BF9FED6CBAF1EE10FAAA
:10221000A7EEE67A48BFDFED69AAB5EEC07AF1EE27
:1022200010FA00F19F80B5EE407AF1EE10FA00F15D
:10223000FC84B1EEC70AB5EE400AF1EE10FA00F1E7
:10224000FA84F1EEC0BAB5EE40BAF1EE10FA00F140
:10225000F884B1EECB0AB5EE400AF1EE10FA00F1C7
:10226000F684B1EEC0BAF5EE40AAF1EE10FA00F134
:10227000F484B1EEEA0AB5EE400AF1EE10FA00F18C
:10228000CE84F1EEC07A9FED4ECA0021DFED4DAA5B
:102290004D486BEE8CBA67EEAAAAFCEEEBBA1BEEC9
:1022A000903A9AB205F0FCF82BEE0CBA01214648A0
:1022B000BCEECBBA1BEE103A9AB205F0F1F8002151
:1022C0004248C8ED00AA04F0A1FEB0F5FA5F4CD96F
:1022D00095BBB4F5FA6F82440BF1010B2CD342F29B
:1022E00034129FED3B6AF7EE006A0125BAFBFBF35F
:1022F0009BB2934238BF1346A3F5FA5207EE903AC9
:1023000007EE102AF8EEE77A229AB8EEC77A138021
:10231000239AE7EE467AFCEEE77A17EE903A9BB204
:102320001380A3F5FA5307EE903A249BF8EEE77A70
:1023300086EEA77A83ED007A47A800F027FF47A82A
:102340004A46002132F8023B30F8024B1B1B9942EF
:10235000B8BF19469642F5D1092906DC0A2007F0D4
:1023600085F917E79FED157A63E700221648059C6B
:102370001146089FDDF82C9005F092F8012100220B
:10238000114805F08DF80023179A136007F06CF9D7
:102390000B9007F069F9BDF8781015900D4804F01E
:1023A00015FBFEF740BEDFED0CCAFEF7B0BF00BF65
:1023B000F119760500803B46DB0FC94000000000A4
:1023C00000F07F45CDCC4C3DB4070024AC07002481
:1023D000CDCCCC3D4C980108CDCC4C3F0000DC432B
:1023E0004CA6AA3ECDCC4C3E00008A42977F8A4143
:1023F000C0956C3D68B32A3E1FED085AF7EE006A9F
:102400005FED095ACAEE857A5FED0A3A1FED0A7A46
:102410001FED0A4AB0EE470ADAE9230177EEE64AF1
:1024200037EEA66AC4EE867AB0EE656AF0EE665ABA
:1024300067EEA74A77EEA77AA4EEA36AE6EE245ADF
:102440005FED154AB6EE006A67EEA57A5FED175AA2
:10245000A7EE840AFEF748FB70EE477AB0EE467AA4
:10246000B0EE666A67EEA47AA7EEA57AA7EE276AB1
:10247000E6EE276A66EE85AAB4EEEACAF1EE10FA35
:102480003FF792ACF4EE6ABA9AF89C30F1EE10FA8B
:1024900048BFF0EE6BAA002B3EF4ACAE002800F073
:1024A0000A830029CCBF00230123002B40F00383C3
:1024B000FDEEC07A9E46CA4A00F1FF3B08904FF0FD
:1024C0007F0A17EE903A704682FB032CDA17C2EBB4
:1024D0006C02DFF864C302EB4202A3EB82030C330D
:1024E000ACFB032C4FEADC0C0CEB4C0CA3EB8C0C80
:1024F00073461BF9012FB2EB0C0E48BFACEB020E7A
:10250000D64501DA1846F24601339942F1DC02461B
:102510000898B2EE087A02F1020C02F1040A92FB6A
:10252000F1F301FB132B03EB430310F90BE00EEB6C
:1025300083039CFBF1FE01FB1ECC0EEB4E0E10F94B
:102540000CC00CEB8E0CACEB030C0CF10C0C07EE7E
:1025500090CAF8EEE77A9AFBF1FC87EE870A01FB56
:102560001CA20CEB4C0C825602EB8C0CACEB030364
:102570000CEE903A15F0D4FBF2EE087AF8EEECCAC5
:10258000984B83ED000A8CEEA70A15F0C9FB964B19
:1025900083ED000AFEF72EBEF4EEE67AF1EE10FAB5
:1025A0007EF786AFF0EE667AFEF7A6BFF7EE007A0A
:1025B000B4EEE77AF1EE10FA40F36E839FED8B7A7A
:1025C000DFED8B6A36EE477A87EE265AFEF794BF28
:1025D000B3EE0ECADFED87BAB0EE08DA0924F6EEE4
:1025E000000AF0EE4CCACCE4F0EE67AAE7E4824BB6
:1025F0000799D3F800A002238048CDF820A1479383
:1026000006F0C4FA834607F0D5F9002840F02B8283
:10261000DBF804309A450AD008220021774806F0FA
:10262000CBF947AB08220021744806F0C1F9724B80
:1026300000211B680E2B9C46A8BF4FF00E0C002BF0
:1026400009DB6F4A0B4692F87C000133A03200B9D7
:1026500001316345F7DD6A4B002293F87C00A0331B
:1026600000B9013267489842F7D1634B04981B6860
:1026700003EB83035B01C358634804F0A7F95E4B87
:102680001B680E2B1846A8BF0E20002BC0F29981A4
:1026900000235B4A9C4692F87C100133A03209B9B2
:1026A0000CF1010C8342F6DD6346CDF828C0002B07
:1026B00000F0878140F6FF7200215448CDF8248055
:1026C00004F0EEFE40F6FF720121504804F0E8FEEF
:1026D0004F4B179900220B6005F16E031B9212936A
:1026E000012318920C930D92FEF794BCF7EE085A52
:1026F000FEF7C4BE0021FFF761B80022FFF79DB8C6
:10270000D9ED027A9FED437AF8EEE77AC7EE876A51
:10271000F5EEC06AF1EE10FA40F13E81B7EE00BA74
:10272000DFED3DBAB6EE08CA9FED3B7AFFF7C8BAB7
:1027300043423A4CA4FB0354E40804EB8404A3EBA7
:102740004404374B83FB0053C017A0EBA3052D2394
:10275000FFF7C1B81B9BD3B1EB1A002B17DB27483F
:1027600002F07EFEDFED2F1AB0EE402A9FED2E1A0A
:10277000DFED1E0A0A219FED2D0A2D4800F0F8FE1C
:1027800000232C4A1B9382F84D30936D53670A9BAC
:10279000002B40F095810C9BC3B1129BEB1A002BD0
:1027A00014DB0A9B00221948013B11460A9305F1EC
:1027B0008C03129304F074FE00220121134804F0EC
:1027C0006FFE0023179A136000230C9303200B95D0
:1027D000CDF8248006F04AFF1595FEF774BB00BFC4
:1027E000ABAAAA2A2C000024300000249A99593F51
:1027F0009A99193E6666E63F080000249407002473
:10280000889A0108E8A3010810980108B407002479
:10281000CDCC4C3D0000C84200000000CDCCCCCC5B
:10282000676666663433F33F0020FD4500001643BB
:102830008000002434000024ABAAAAAACDF824808A
:102840000B95FFF79EB91868DDF810C0421C00F127
:102850001001B94B4FEAE27E83FB02B31344CEEB87
:10286000E303C3EB0313D31A013203EB830E0CEB28
:102870004E1E9EF87CE0BEF1000F00F0F280914207
:10288000E7D1AE4B002118601B680E2B9C46A8BFF9
:102890004FF00E0C002B09DBA94A0B4692F87C0086
:1028A0000133A03200B901316345F7DDA44B0022AA
:1028B00093F87C00A03300B90132A2489842F7D1C6
:1028C0009E4B04981B6803EB83035B01C3589E482F
:1028D00004F07CF840F6FF7200219C4804F0E0FD13
:1028E00040F6FF720121994804F0DAFD984B179ADF
:1028F000136005F16E02914B12921B680E2B099B1F
:102900000C9300F08C8001231A950A93FEF782BB8A
:102910000E2B4FF00001A8BF0E27002B09DB884AC1
:102920000B4692F87C000133A03200B90131BB4262
:10293000F7DD834B002293F87C00A03300B901320D
:1029400080489842F7D105EB8505049B81486D01CD
:102950005B5904F03BF8FEF760BE9FED7F6ADFED48
:102960007F5A2AEE867A6BEE066A67EE867AFFF762
:1029700056BB99ED027A9FED7A6AB8EEC77AC7EE38
:10298000066AF5EEC06AF1EE10FA40F18880F0EECA
:1029900067BA9FED74BAC5E6B7EE00BAF4EECB6A3B
:1029A000F1EE10FA73DCFFEE00BA9FED6E7AB5EE31
:1029B000006AF6EE087AE6EE867AB0EE67CAFFF7AE
:1029C00069B900226148CDF8248011460C9204F0C8
:1029D00067FD002201215D4804F062FD0023179A83
:1029E00013600C9B0A931B9318930D93FEF712BB75
:1029F00000225648CDF8248011460A9204F050FD7A
:102A000000220121514804F04BFD0023179A0B9539
:102A100013600A9B0C9301230D93FFF7B2B80024B7
:102A2000514B524A1C7000235148136002F018FDAC
:102A3000DFED501AB0EE402A9FED4F1AB3EE0E0AAA
:102A4000DFED4E0A09214E4800F092FD4C4AD36852
:102A50005470936205F19603CDE91A5301230A934A
:102A6000B4E618460DE70821584606F037FDCFE5D5
:102A7000F4EEE76AF1EE10FA44DDF6EE006AB0EE2D
:102A8000006AFFEE00BAB0EE67CAFFF7F5B8DFEDF7
:102A900035BAB7EE00CA9FED337AFFF711B9F4EEFD
:102AA000E76AF1EE10FA42DCBFEE00BA9FED2D7A34
:102AB000F0EE67BA7BE7DFED33CA9FED330A59E5E5
:102AC000129BEB1A002BFFF681AE0C9B002B7FF4C0
:102AD00068AE0A9B002B7FF779AE0C9940F6FF7227
:102AE0001A4804F0DDFC40F6FF720121174804F09B
:102AF000D7FC05F16E03179A1293154B1360079BD1
:102B00000C9363E6B6EE006AF0EE005AB0EE67BAD8
:102B100037EE466AFFEE00BAA7EE65BAB0EEC66AB7
:102B2000E7EE25BAE6EE657AB0EE677A3FE7F0EEBB
:102B300067BA9FED0CBAACE7898888880800002442
:102B4000889A0108E8A3010828980108B40700241E
:102B5000CDCC4C3D64980108CDCC0C3F6666E63E7A
:102B60000000C84200000000E4080024DC08002443
:102B700094070024B81E0540000087439A99593FE6
:102B80003400002407000000ABAAAA3F0123002163
:102B90005248CDE96E3405F0F9FF054606F00AFF0C
:102BA00088BB6B689C423DF4FFAF082200214B4874
:102BB00005F002FF6EAB0822002148480DEE903A66
:102BC00005F0F6FEFDF7F3BF454803F0FFFEFEF704
:102BD00003B9B5EE407AF1EE10FA7FF571A8B0EEC8
:102BE000470A15F099FAFFF76DB81C464FF4967036
:102BF0000E9306F03BFD204600F0E2FAFDF7F0BF31
:102C00000923FDF7DEBF0821284606F067FCC8E768
:102C10000021FEF7B8B8334B1793FEF72CB915F027
:102C20007BFAF0EE407AFFF72EBBB0EE470A15F0C4
:102C300073FAFFF700BB15F06FFAF0EE40BAFFF73A
:102C400002BBB0EE4B0A15F067FAFFF704BB15F0B4
:102C500063FAB0EE40BAFFF706BBB0EE6A0A15F0B1
:102C60005BFAFFF708BB079B159DCDF824801893EE
:102C7000FEF787BF15F050FAF0EE407AFFF74EB836
:102C8000B0EE6B0A15F048FAFFF740B815F044FAB9
:102C9000F0EE407AFFF730B8A7EE045ADFED123AB3
:102CA00067EE077A9FED113A36EE634A67EE877A50
:102CB000F0EE454A84EE035AE7EE246A67EEA67A00
:102CC000FEF71ABCB0EE4B0A15F026FAFFF70CB867
:102CD00015F022FAF0EE407AFEF7FCBF94070024CC
:102CE00034970108E80800249A99593F9A99193EA7
:102CF00010B509480024094A094904604461046286
:102D0000C46314F065FE074B4FF60B72C3E902442F
:102D1000C3E9002410BD00BF940700240000002474
:102D2000E50A0008D40700242DE9F041002482B010
:102D30001C4E0123DFF8788022461B4D3046D8F820
:102D400000101A4F009404F0E3FB052006F090FCFD
:102D50002246396801232846009404F0D9FB052057
:102D600006F086FC23460122D8F800103046009475
:102D700004F0CEFB2146304604F0BCFC052006F0F2
:102D800077FC2346012239682846009404F0C0FBF2
:102D90002846214604F0AEFC052002B0BDE8F04113
:102DA00006F066BCFC070024E8070024ECA3010839
:102DB000F0A3010870B5002482B0144D0122144E16
:102DC000234628460094316804F0A2FB2146284699
:102DD00004F090FC052006F04BFC0E4A01230E483F
:102DE00011682246009404F093FB052006F040FC95
:102DF0002846012322463168009404F089FB05200F
:102E000002B0BDE8704006F033BC00BFFC070024F0
:102E1000F0A30108ECA30108E80700242DE9F04124
:102E2000072582B0DFF8E4800746354E25E062468C
:102E3000D8F80010CDF800C004F06AFB002405208B
:102E400006F016FC0123224631682E48013D00940D
:102E500004F05EFB052006F00BFC23460122294806
:102E60003168009404F054FB2146264804F042FCEB
:102E7000052006F0FDFB6B1C14D0012247FA05F17A
:102E80004FF0000C204811EA02041346CFD1D8F8C5
:102E900000102346009404F03BFB21461A4804F03E
:102EA00029FCCBE72246D8F80010012316480094ED
:102EB00004F02EFB052006F0DBFB224631680123DF
:102EC0001048009404F024FB052006F0D1FB0E48C6
:102ED00004F004FC234601223168054600940948A9
:102EE00004F016FB2146074804F004FC052006F018
:102EF000BFFB85F00100C0B202B0BDE8F08100BFA9
:102F0000ECA30108E8070024FC070024F0A3010853
:102F10002DE9F043002283B0DFF8F4800746012357
:102F20003848D8F80010914600920725364E04F034
:102F3000EFFA0024052006F09BFB012322463168AE
:102F40003248009404F0E4FA052006F091FB2D4885
:102F500004F0C4FB01218646234601FA05FC0A461B
:102F60002A48013D3168BEF1000F03D04CEA090C3C
:102F70005FFA8CF9009404F0CBFA2146234804F060
:102F8000B9FB6B1CD5D1002F33D0D8F800102346E5
:102F90001C480122009404F0BBFA2146194804F0B1
:102FA000A9FB0024052006F063FB316822460123BB
:102FB0001648009404F0ACFA052006F059FB2346AD
:102FC000012231681148009404F0A2FA21460F480A
:102FD00004F090FB052006F04BFB01232246D8F8B5
:102FE00000100848009404F093FA484603B0BDE886
:102FF000F08301233A46D8F800100248009704F005
:1030000087FACEE7FC070024ECA30108E8070024B8
:10301000F0A3010838B504460D46FFF785FEB4203D
:10302000FFF7FCFE60B12046FFF7F8FE40B12846EE
:10303000FFF7F4FE044618B1FFF7BCFE204638BD8A
:103040000024FFF7B7FE204638BD00BF2DE9F04150
:1030500004460E461546FFF767FEB420FFF7DEFE76
:1030600008B32046FFF7DAFEE8B1FFF75DFEB520B2
:10307000FFF7D4FE0746B0B185B1013D741E56FA84
:1030800085F8C6F1010630198542D4BF0020012021
:10309000FFF73EFF04F8010F4445F4D1FFF78AFE25
:1030A0003846BDE8F0810027FFF784FE3846BDE8CA
:1030B000F08100BF10B5632182B080204124FFF76A
:1030C000A9FF0A2006F0D2FA00215E20FFF7A2FF36
:1030D00001212B20FFF79EFF01212C20FFF79AFFF3
:1030E00010212D20FFF796FF20212E20FFF792FFC1
:1030F00001212F20FFF78EFF01213020FFF78AFFEB
:1031000010213120FFF786FF20213220FFF782FFB8
:1031100000213320FFF77EFF00213420FFF77AFFE4
:1031200000213520FFF776FF04212046FFF772FFCC
:10313000601C02340221C0B2E4B2FFF76BFF592CCD
:10314000F2D111215B20FFF765FFF0215C20FFF732
:1031500061FF48215D20FFF75DFF8C215E20FFF7B6
:1031600059FF642006F082FA002301220DF10701C5
:103170005E208DF80730FFF769FF9DF80700A0F18A
:103180008C00B0FA80F0400902B010BD10B586B0D6
:103190000446182204206946FFF758FFA01E6A461D
:1031A00006AC537812F8021B1B02944203F44073DE
:1031B00043EA010320F8023FF3D106B010BD00BF7F
:1031C0002DE9F04192B02025002407460DF11808A2
:1031D00030220021404615F01BF868464646FFF7AE
:1031E000D5FF6A46414600E00C6832F8023B2344B2
:1031F000424541F8043BF7D1052006F037FA013D7E
:1032000001D0069CE9E7BA1E163756F8043B5B0965
:1032100022F8023FBA42F8D112B0BDE8F08100BFF7
:1032200010B50A4982B000240123094822460968E2
:10323000009404F06DF90749012322460968064805
:10324000009404F065F902B010BD00BFF0A30108BE
:10325000FC070024ECA30108E8070024002306492A
:10326000064A4FF60B70CB600860C1E90133C2E932
:103270000003C2E902337047FC070024E80700247A
:10328000A0F10A021C4B002A53F8211030DD8142C4
:1032900030DD42F210700A3900FB02F292FBF1F3CA
:1032A0008342A8BF0346002B1A46B8BF5A1C5210CF
:1032B000511C93FBF1F2521848BF0132511093FB9D
:1032C000F1F2521848BF0132521093FBF2F18A1802
:1032D00048BF0132521093FBF2F313445A1C07DB30
:1032E000002BB8BF013358106428A8BF6420704772
:1032F0000020704764207047F4A301082DE9F04FC7
:10330000B2F1000B95B0039140F3B7800B460BEB85
:103310008B0103EB8101002203F8142B9942FAD1AF
:10332000044608AE00F130072068103454F80C1C35
:10333000354654F8082C103654F8043CBC420FC5EE
:10334000F2D14FF0000A5B465646002208A8154607
:10335000144650F8041BA94201DD14460D46013203
:103360000C2AF6D1092D27DD56B304AD002101E06A
:103370008E4225D055F8042B0131A01A48BF101BEE
:103380000328F5DCA51E04F1020808AA02EB850259
:103390000B2D4FF0000105F1010502F1040298BF69
:1033A00042F8041C4545F3DD0AF1010A3246564550
:1033B000B8BF52469A42C8DB304615B0BDE8F08F20
:1033C00004F10208A51EB8F10B0FC34625EAE5710A
:1033D000A8BF4FF00B0B8B454ADB6FF0404C4FF012
:1033E000000908AA0BF1010B8C440846CE464F4653
:1033F00002EB8C0C5CF8042F22EAE2724A4500FBD7
:1034000002EE174401DD0146914601308345F1D1BA
:1034100087B34FF47A7202FB0EFE07EB870207EBCD
:103420004207BEFBF7F7B7F57A7FA8BF4FF47A776C
:1034300006EB860248464FEA860B0293019201365C
:103440000091FFF71DFF0BF15003019A4FF0010CA3
:1034500000990DEB030B039B4BF8404C03EB8204EC
:1034600003F822C0029BC4E90170C4E903198CE788
:103470004FF000094FF0FF37DAE70026304615B06D
:10348000BDE8F08F2DE9F0470023384E82B006F1F9
:103490005009019333461A789AB914334B45FAD13F
:1034A00000290BDD01EB810101AD00EB810115F875
:1034B000013B002B38D014308842F8D102B0BDE86F
:1034C000F08700294EDD0DF1040E844600224FF0F6
:1034D000FF384FF0C90A1EF8014B4CB9DCF8044024
:1034E0005D68671B48BF2F1BBA4501DD9046BA4691
:1034F00001320CF1140C9142EDD1B8F1FF3F31D003
:1035000008EB880208F1080400EB82020DEB0408C6
:10351000012408F8044C54685C6094689C60D4688A
:103520001269DC601A61B8E732461478143234B19B
:103530000133042BBFD014781432002CF8D103EBE4
:103540008303D0F810C0446806EB8302D0E902E799
:10355000C2E9014EC2E9037C012206F8232005F8E6
:10356000012CA8E700221A7097E700BF100800247A
:10357000DFED517AB0EE407A416061EE277AC0ED1E
:10358000030A80ED027A80ED041A87EE820AC0ED0C
:10359000051AF8B540F2011304460D4603802DEDDF
:1035A000028B9FED468AF0EE428A80ED098A80ED1B
:1035B000088A80ED078A80ED068A80ED0A8A80ED10
:1035C0000C8A80ED0D8A14F039FBF7EE007A37EEA5
:1035D000C00AB4EEC80AF1EE10FA60D4B4EE670A7D
:1035E000F1EE10FA37FE800A354E05EB8503AF0089
:1035F00084ED0E0A06EB4313D3ED197AF5EEC07A8B
:10360000F1EE10FA4ED99FED2F7ABFEE000A67EE69
:10361000877A67EEA87A80EE270A14F00FFB7B19F1
:1036200084ED0F0A06EB4313D3ED1A7AF5EEC07A58
:10363000F1EE10FA3CD99FED237ABFEE000A67EE57
:10364000877A67EEA87A80EE270A14F0F7FA7B19DA
:1036500084ED100A06EB4313D3ED1D7AF5EEC07A24
:10366000F1EE10FA21D99FED172ABFEE000A67EE9E
:10367000827A67EEA88A80EE280A14F0DFFA3D44C9
:1036800084ED110A06EB451696ED1C0A14F048FB72
:1036900084ED120A84ED0B0ABDEC028BF8BDB0EE8E
:1036A000480AA1E79FED050AB9E79FED040AE6E79E
:1036B0009FED020ACBE700BFDB0FC9C0000000008E
:1036C00034A401086F12833A934BD3ED007AF5EEE0
:1036D000C07A2DE9F04FF1EE10FA8B462DED108BEC
:1036E000ADB00C9201F18B86B0EE677AF7EE007AFE
:1036F000B4EE677AF1EE10FA77FE877ACDED0F7AA5
:10370000864A8749D2ED007A864B874AD1ED00BAC6
:1037100093ED00CA8549D2ED009A854B854A91ED1B
:10372000009AD3ED00CA8449D2ED00FA834B844A53
:10373000D1ED00AACDED0D7AD3ED008A814BD2ED0B
:10374000007A8148CDED297AD3ED007A7F4CCDED1A
:103750002A7A01F085FE7E4BB0EE408AD3F800A0B5
:103760007C4BBAF10F0F1B6828BF4FF0000A0E9375
:103770002368534500F0B680774F0AEB8A0307EBC6
:103780004313D3ED1B7A4FEA8A03F5EEC07A019317
:10379000F1EE10FA41F22B869FED707ABFEE000A2F
:1037A00067EE877A67EE887A80EE270A14F046FA89
:1037B000019B534407EB4313D3ED197A684BF5EEA5
:1037C000C07A83ED000AF1EE10FA41F22C869FEDEB
:1037D000637ABFEE000A67EE877A67EE887A80EE3A
:1037E000270A14F02BFA019B534407EB4313D3ED44
:1037F0001A7A5C4BF5EEC07A83ED000AF1EE10FA0E
:1038000041F20D869FED557ABFEE000A67EE877A8A
:1038100067EE887A80EE270A14F010FA019B03EB1A
:103820000A05514B07EB451583ED000A0023D5ED42
:103830001D7AF5EEC07AF1EE10FA41F2EA859FEDBD
:10384000477ABFEE000A67EE877A67EE887A80EEE5
:10385000270A14F0F3F9454BF0EE407A95ED1C0A77
:10386000C3ED007A14F05CFAD5ED257A404BF5EE05
:10387000C07A83ED000AF1EE10FA41F3D8859FED8E
:10388000377ABFEE000A67EE877A67EE887A80EEB5
:10389000270A14F0D3F9374B83ED000A019B5344F8
:1038A00007EB4317D7F898200023C4F800A0324C48
:1038B000DDED0D7AE360A360636023602F4B1A6037
:1038C0002F4BC3ED007A2F4BC3ED00BA2E4BC3ED47
:1038D000009A2E4B83ED00CA2D4BC3ED00CA2D4B31
:1038E000C3ED00FADFED1D7A2B4BF4EEE7AAF1EE03
:1038F00010FA55DD93ED007AB4EEE77AF1EE10FAA6
:103900004ED8264A1178002956D0002111700E9AFF
:103910000E2A4DD150E000BFE808002470010024B9
:1039200068010024F40800246C010024F808002435
:10393000E0080024F0080024DC08002464010024CE
:103940002C000024300000249407002420000024D0
:10395000040000240800002434A401086F12833AF4
:10396000D4080024C4080024C8080024CC0800247B
:10397000BC080024D008002480080024D8080024B3
:10398000140000241C0000241800002490080024C7
:1039900060080024AC080024B8080024EC080024C7
:1039A000484A117881B1002111700E9A0E2A0BD06D
:1039B000454A114600220A60444A454811684FF0C2
:1039C0007E52016043490A60C3ED00AA0C9B002BA4
:1039D00001F04882B1EE087ADFED3F7A3F4F0AEB03
:1039E0008A034FEA8A024FF0000887EE087A07EB55
:1039F0004313019293F83D201E7E149293F83020D9
:103A000093F82450189293F83C20354C199293F86F
:103A10009C208DED137A29EEA77A8DED107A29EE90
:103A2000277A68EEA77A8DED117ACDED127AD3ED73
:103A30000A7A9FED2C7ACDED157AD3ED0D7ACDED86
:103A4000167AD3ED127A67EE677ACDED257AD3ED4B
:103A5000167ACDED177AD3ED057ACDED067AD3ED52
:103A6000087ACDED077AD3ED0B7ACDED277AD3ED39
:103A70000E7ACDED287AD3ED147ACDED1A7A1B9219
:103A8000D3ED047A184BCDED057A1C93174BCDF886
:103A900008A01D93164B1E93164B1F93164B209395
:103AA000164B0393164B2193164B2293164B2393DD
:103AB000164B2493044B0493054B2693054B9946D0
:103AC00000F0E9BCEC0800247C080024BC080024B9
:103AD000280000242400002400D7233C34A401083B
:103AE0008008002433337340D4080024CC08002419
:103AF000D0080024D8080024140000241C0000244E
:103B0000180000249008002460080024AC08002459
:103B10006F12833A17B7D13894ED035AD4ED003AB7
:103B200094ED014AD4ED024A5FED077AF4EEE7AA7C
:103B3000F1EE10FA0CD55FED097AB4EEE76AF1EE1A
:103B400010FA05DDF3EE0E7AE6EE2B7AF0EE67BAA8
:103B5000E34BF1EE000ADDED137AD3ED002A77EEA8
:103B6000A22AF7EE007AF4EEE72AF1EE10FAA4BFEB
:103B700072EEE72ADA4BF6EE007AC3ED002AF4EE95
:103B8000E72AF1EE10FA40F18E85FFEE007AE2EEC0
:103B9000A07AF7EE002ADFEDD30A21EE271A149B54
:103BA000F0EE627AE1EE207A67EE277A67EE827AAB
:103BB000002B00F06B859FEDCC2ADDE90132E1EEB0
:103BC000822A134407EB431393ED077A27EE877A93
:103BD00027EE227A8DED0B7A9DED157A022EC34BDE
:103BE00027EE877A93ED000A8DED087A9DED167A1F
:103BF00027EE877A8DED097A9DED177A27EE877A81
:103C00008DED0A7A00F06886032E00F03486012ECE
:103C100000F08886B6EE007AB4EEC70AB1EE007AFC
:103C2000F1EE10FA40F1AC87FFEE002AE0EE072A31
:103C30009DED067A62EE872AAD4B022DD3ED000A88
:103C400000F02986032D00F06186012D00F09A8690
:103C5000B6EE007AF4EEC70AB1EE007AF1EE10FA91
:103C600040F1A687BFEE00DAA0EE87DA9DED077A75
:103C70002DEE07DA9F4B93ED001A189B022B00F0F4
:103C80001D86032B00F03686012B00F0C485B6EEAE
:103C9000007AB4EEC71AB1EE007AF1EE10FA40F1F4
:103CA0009187BFEE00BAA1EE07BA9DED277A2BEE01
:103CB00007BA914BD3ED001A199B022B00F09D859A
:103CC000032B00F08E85012B00F05B85B6EE007AA9
:103CD000B1EE002AF4EEC71AF1EE10FA40F15E8759
:103CE000BFEE00AA9DED287AA1EE82AA2AEE07AACD
:103CF0009DED1AFAB5EEC0FAF1EE10FA40F3E18448
:103D00007E497F4A0B68DFED7FDA83EA43339FED1C
:103D10007E7A83EA534383EA431302EE103A0B6040
:103D2000F8EEC28A92ED002AF0EE42EADDE90131B6
:103D3000D8EEADEA0B4407EB431393ED1EEAAEEE6B
:103D4000872A82ED002A98EEAD2A32EE022AA8EEEA
:103D5000ED2A22EE0E2AA8EEAD2A22EE0F2A72EEEE
:103D60008D2A1B9B72EE8B2A72EE8A2A32EE827AA1
:103D7000002B00F0FE80DDED292A022E634B22EE9F
:103D8000A7AADDED2A2AD3ED00EA22EEA7EA01F088
:103D90004F80032E01F04080012E00F0FB87F6EEED
:103DA000002AF4EEE2EAF1EE002AF1EE10FA41F117
:103DB000E482BFEE002AAEEEA22ADDED062A22EE54
:103DC000222A5348022DD0ED00DA01F01780032D8E
:103DD00001F03C80012D00F0AD87F6EE002AF1EEF7
:103DE000008AF4EEE2DAF1EE10FA41F1DE82FFEE43
:103DF000002AEDEEA82ADDED078A62EEA82A32EE4F
:103E0000222A4449DFED442A022E91ED00DAA2EE87
:103E1000227A00F08187032E00F07287012E00F0D5
:103E20003F87F6EE002AB1EE002AB4EEE2DAF1EEB8
:103E300010FA41F19882FFEE002AEDEE022A9DED84
:103E4000062A62EE828ADFF8D4C0022D9CED00BA09
:103E500000F01887032D00F00987012D00F0D686A9
:103E6000F6EE002AB1EE00FAB4EEE2BAF1EE10FA84
:103E700041F18D82BFEE002ADDED072AABEE0F2A5D
:103E800062EE222A9DED052A78EEA22A6AEE028AC7
:103E900088EE882AF7EE008A32EE2E2ADFED1EEA3F
:103EA000A2EEAE7AB4EEE82AF1EE10FAA8BF32EE36
:103EB000682A83ED002ADDE90132134407EB43133E
:103EC00093ED072A22EE0AAA22EE0E2ACAEE082A4B
:103ED00072EEAD2AF7EE00DAF4EEED2A20E000BF34
:103EE00070080024CDCC4C3DC0956C3D9408002456
:103EF0009808002478080024740800240C0000248A
:103F00006408002400000030CDCC4C3F9C08002405
:103F1000A4080024A00800246666663FA8080024C0
:103F2000F1EE10FAA8BF72EEED2AC0ED002ADDED29
:103F3000052A6EEE228AC8EE882A72EE8D2AB7EE26
:103F400000DAF4EECD2AF1EE10FAA8BF72EECD2A17
:103F5000C1ED002AC2EE082A72EE8B2AB7EE00BA33
:103F6000F4EECB2AF1EE10FAA8BF72EECB2ACCED1C
:103F7000002AEE4BB6EE002AD3ED002AF4EEC22A58
:103F8000B1EE002AF1EE10FA40F19683FFEE008ABE
:103F9000E2EE828A67EE288AB7EE002A68EEA68AE9
:103FA00072EE666AE6EE878AB0EE087A69EEA89A43
:103FB000F4EEC79AF1EE10FA17DCB8EE087AF4EED8
:103FC000C79AF1EE10FA00F12185F3EE0B6A29EEA3
:103FD000A97AB2EE022AF0EE668AE7EE028A37EE9E
:103FE000267A67EE299A89EEA82AB3EE047AF4EECF
:103FF000C75AF1EE10FA00F15C839FEDCD7AF4EE32
:10400000C75AF1EE10FA00F3B98375EEA55A85EEA2
:10401000887ADDED256AA6EE852ADFEDC66AB4EE64
:10402000667AF1EE10FA36FE877AF0EE086AB4EEA0
:10403000E62AF1EE10FA00F35B83F8EE086AB4EEBC
:10404000E62AF1EE10FA00F1CD84F3EE0B5A62EE9F
:10405000026AF2EE029AF0EE658AE6EEA98A76EE40
:10406000A56A26EE822AC2EE286AF0EE085AF4EE1D
:10407000E53AF1EE10FA00F33583F8EE085AF4EE63
:10408000E53AF1EE10FA00F1C584B3EE0B2A63EEC7
:10409000A35AF2EE029AF0EE428AE5EEA98A75EE94
:1040A000825A65EEA35A85EEA82A76EEC26AE6EE3B
:1040B000873AF0EE086AF4EEE63AC4ED003AF1EE23
:1040C00010FA00F30283F8EE086AF4EEE63AF1EE35
:1040D00010FA00F18B84F3EE0B5A63EEA36AF2EE52
:1040E000028AB0EE652AA6EEA82A76EEA56A66EEEA
:1040F000A33AC3EE826AF0EE085AB4EEE54AF1EE56
:1041000010FA00F3EC82F8EE085AB4EEE54AF1EE4C
:1041100010FA00F17784F3EE0B3A64EE045AF2EEF3
:10412000028AB0EE632AA5EEA82A75EEA35A65EEC0
:10413000845AC5EE823A76EEE36AA7EE264AF0EE9E
:10414000086AB4EEE64A84ED014AF1EE10FA00F393
:10415000D882F8EE086AB4EEE64AF1EE10FA00F101
:104160004D84F3EE0B5A64EE046AB2EE022AF0EECE
:10417000653AE6EE823A76EEA56A26EE844AC4EE09
:10418000236AF0EE085AF4EEE54AF1EE10FA00F375
:10419000B582F8EE085AF4EEE54AF1EE10FA00F1B5
:1041A0002984B3EE0B4A64EEA45AB2EE022AF0EE72
:1041B000443AE5EE823A75EE845A65EEA45A85EEED
:1041C000A34A76EEC46AE7EE264AF0EE086AF4EEF9
:1041D000E64AC4ED024AF1EE10FA00F38C82F8EEE2
:1041E000086AF4EEE64AF1EE10FA00F18B84F3EE81
:1041F0000B5A64EEA46AF2EE023AB0EE654AA6EEFD
:10420000A34A76EEA56A66EEA44AC4EE846AF0EE8E
:10421000085AB4EEE55AF1EE10FA00F36682F8EEB1
:10422000085AB4EEE55AF1EE10FA00F1F783F3EE16
:104230000B4A65EE055AF2EE023AB0EE644AA5EE7C
:10424000A34A75EEA45A65EE855AC5EE844A76EE09
:10425000E46AA7EE265A9FED387AB4EEC73AF1EE3B
:1042600010FA84ED035A3BD4B7EE004AB1EE007A5F
:10427000F0EE004AF0EE446A74EE433AE3EE076A69
:10428000B6EE007AF0EE475A66EE856AE6EE875A99
:10429000FFEE006ABBFE652A35EEC22AF0EE665AD2
:1042A000E2EE245AB0EE662AF0EEE55A74EE655A54
:1042B000A5EEA42AA2EE077AFBFE475A37EE657AEE
:1042C000F0EE665AE7EE245AF0EEE55A74EE655ABF
:1042D000E5EEA46A63EE266AE3EE856AB0EE665AFE
:1042E0009FED167A25EE075AB0EE087AB4EEC75A5B
:1042F000F1EE10FA26DCB8EE087AB4EEC75AF1EE09
:1043000010FA00F18E83F3EE0B6A25EE057AF2EED9
:10431000024AF0EE665AE7EE245A37EE267A27EE86
:10432000055A85EE257A26EE076A0BE06808002418
:1043300000409C4648E17A3F0AD7233C6666A63F88
:10434000000070430E9B29EE066A0E2B00F071836D
:104350009DED057ADBF8003067EE877ADDED0F5AC8
:1043600003EB88035FED0A6A87EE887ADDED0B7A4E
:1043700083ED006ADBF8043003EB8803C7EE887A2C
:1043800083ED006AE04B9FEDE16A37EE007AB7EE0D
:10439000000AB4EEC07A77EEA07AF7EE000AF1EEEA
:1043A00010FAF4EEE07AA8BF37EE407AF1EE10FA98
:1043B00083ED007AB7EE007AD54BA8BF77EEE07AAE
:1043C000C3ED007ADDED087AD24BC7EE887A37EE7E
:1043D000811ADDED097AC7EE887AB4EEC71AF1EEDC
:1043E00010FAA8BF31EE471AB7EE007A83ED001A33
:1043F000C94B77EEA11ADDED0A7AC7EE887AF4EEA2
:10440000C71AF1EE10FAA8BF71EEC71AB7EE007A1C
:10441000C3ED001AC14B77EEA22AF6EE007AF4EE55
:10442000C72AF1EE10FAA8BF72EEC72AC3ED002A20
:10443000BB4B93ED007A75EEC75AA5EE867AE7EE90
:10444000267A83ED007AB74B19680131FCEEE77AE2
:1044500017EE90AABAF1F00F28BF4FF0F00AEF293B
:1044600084BFB04B00218A451960AF4B94BF4FF019
:10447000000A4FF0010A1B78534506D05146AB485D
:1044800003F038F9A84B83F800A008F101080C9B51
:10449000434500F0E7841C9BF7EE005A9DED0D6A42
:1044A000D3ED007A039A35EEE77A209B92ED005A1D
:1044B000D3ED006A27EE067AB4EEEB5AA6EEA77AA1
:1044C000F1EE10FA83ED007A00F1DB80984B93ED6A
:1044D000004A75EEC45A6BEEA55A219A229BD2ED82
:1044E000007AE5EE045ADDED109A9FED924A93EDC5
:1044F000006AE7EE849ADFED904AB4EECC6ADFED15
:104500008F6A0399DFED8E7AF1EE10FA9FED8D5AE6
:10451000C1ED005AC2ED009A239A54BFF0EE661A1C
:10452000F0EE641A249954BFF0EE453AF0EE673A83
:1045300092ED002AD1ED002A6CEE211AB4EEEC2A9D
:10454000E6EE231AF1EE10FAF4EEEF2AB7EE006A67
:1045500054BFB0EE663AB0EE643A54BFB0EE451ABE
:10456000B0EE671AF1EE10FAC3ED001A1E9B2CEEA6
:10457000833A48BFF0EE646AD3ED003A58BFF0EEDC
:10458000457A1F9B36EE636A6FEEA66AA2EE013A89
:104590009DED111AE2EEA76AD3ED007A6A4B26EE82
:1045A000276AD9ED007A82ED003AA7EEA36AD3ED2F
:1045B000007AC1ED006AA7EE841A89ED006A26EE42
:1045C0002A6A83ED001A049BD3ED004AF4EEC64A32
:1045D000F1EE10FA51D4DFED4D7AF4EEE7AAF1EEE8
:1045E00010FA4ADC524B93ED004AF7EE007A049A37
:1045F0009DED129A269B77EEC43A93ED005A23EE76
:10460000866A35EE675AA4EE846ADFED4A4A82ED87
:10461000006A4E4A92ED004AA4EE249A82ED009A76
:104620001D9AD2ED004AE5EE247AB0EE672AC3ED7A
:10463000007ADFED367AB4EEE76AF1EE10FA7FF534
:104640006BAADFED407AD4ED003A94ED014AD4ED47
:10465000024A63EEA73A94ED035A24EE274A64EE29
:10466000A74A25EE275AC4ED003A84ED014AC4ED6D
:10467000024A84ED035AFFF757BA354B93ED004ACF
:10468000B3E7DFED345A9FED344A24E7DDE9013228
:10469000134407EB431393ED077A27EE877A8DEDEA
:1046A0000B7AFFF799BAF0EE087AE2EEE07AFFF7BC
:1046B00070BADFED2A5AAAE4F0EE088AE2EEC28A66
:1046C00068E49FED272AFFF74ABBF0EE085AF7EEA1
:1046D000006AB4EEE54AF1EE10FA7FF714ADF7EE9A
:1046E000003A28E5B7EE002ADFE4F7EE004AAEE52F
:1046F000F7EE006AB9E4F7EE006A88E5B7EE004A23
:104700005FE5F7EE006A3CE5940800246F12833AF7
:1047100098080024780800247408002468080024FD
:10472000C0080024B4080024B0080024D4070024E2
:10473000C8080024A4707D3F00D7A33C0012833A30
:1047400048E17A3F77BE7F3F6C08002410000024C8
:10475000C408002400481D3AAED87F3F0000204224
:104760000000000000401C47DB0F4940DB0F49C040
:1047700083F9A23F6666663E7B81CF3E5FED075AB6
:1047800045E471EEA18A1FED087A1FED082A1FED9E
:1047900008AAA8EE872A5FED088AB5EEC02A62EE65
:1047A000288A22EE0AAAF1EE10FA48BFB1EE422A98
:1047B000A8EEC2AA5FED118AB5EEC0AAB1EE4A2AF0
:1047C000F1EE10FA54BFB0EE4A7AB0EE427AAAEE99
:1047D000072A9DED287AA2EE28AA2AEE47AAFFF71B
:1047E00087BAB0EE002A9DED287ABFEE00AAA1EEAE
:1047F00082AA2AEE07AAFFF77BBAB6EE007AF4EE99
:10480000C71AF1EE10FA00F1E7819DED287AB1EEBA
:1048100047AAFFF76DBA71EE011A1FED2D2A1FEDA1
:104820002D7A1FED2DBAA1EE827A1FED2D2A5FEDB4
:104830002F1AB5EEC07A27EE022A27EE0BBAF1EE58
:1048400010FA48BFB1EE477AA2EE47BAB5EEC0BA49
:10485000B1EE4B2AF1EE10FA54BFB0EE4B7AB0EE47
:10486000427AABEE072A9DED277AA2EE21BA2BEE13
:1048700047BAFFF71EBAB0EE007AD94BFFEE002A16
:10488000022DD3ED000AE0EE072A9DED067A62EED6
:10489000872A7FF4D7A9B6EE007AF4EEC70AF1EEC4
:1048A00010FA00F17781CF4B9DED077A93ED001A56
:1048B000189BB1EE47DA022B7FF4E3A9B6EE007A3B
:1048C000B4EEC71AF1EE10FA00F156819DED277A89
:1048D000B1EE47BAFFF7EDB9B6EE007AB4EEC70A0B
:1048E000F1EE10FA00F144819DED067AF1EE472ACF
:1048F000FFF7A2B9B0EE002A9DED277ABFEE00BA0D
:10490000A1EE02BA2BEE07BAFFF7D3B9B0EE007AE8
:10491000BFEE00DAA0EE87DA9DED077A2DEE07DA1A
:10492000FFF7A8B930EE002ADFEDB62A9FEDB67A80
:10493000A2EE227ADFEDB02A9FEDB02AB5EEC07A62
:1049400027EE022A67EE222AF1EE10FA48BFB1EEF6
:10495000477AE2EE472AF5EEC02AB1EE627AF1EE2E
:1049600010FA54BFB0EE622AB0EE472AA2EE827A65
:104970009FEDA32AE7EE022A9DED067A62EEC72A92
:10498000FFF75AB970EEA01A9FED9E2A9FED9E7A0E
:104990009FED99DAA1EE827A9FED982AB5EEC07A62
:1049A00027EE022A27EE0DDAF1EE10FA48BFB1EE3B
:1049B000477AA2EE47DAB5EEC0DAB1EE4D7AF1EE03
:1049C00010FA54BFB0EE4D2AB0EE472AADEE027A8F
:1049D0009FED8B2AA7EE02DA9DED077A2DEE47DADE
:1049E000FFF748B9FFEE006AFFF73FBBFFEE006A32
:1049F000FFF781BBBFEE004AFFF7E3BBFFEE006AA3
:104A0000FFF7BFBBFFEE003AFFF795BBBFEE002AF2
:104A1000FFF7EBBABFEE002AFFF747BBFFEE004AF5
:104A200015E40E9BB1EE466A0E2B29EE066A7FF462
:104A30008FAC00226C4B9FED6D5A2B9203F5987A48
:104A40006B4A106893F800E0BEF1000F5ED05A7810
:104A50005968002A00F08980D3ED035A93ED0A7A51
:104A6000F7EE006AB4EEE57AF1EE10FA4CBF93ED82
:104A70000F6A93ED106A76EEC66A66EEA56AE7EEF7
:104A8000066AC3ED0A6A3AB99FED5A7AF4EEC76A2C
:104A9000F1EE10FA00F16284B7EE007AD3ED0B5A12
:104AA000D3ED114A01EB810275EEC75A07EB4212B2
:104AB000B0EE476A92F818C08A00A5EEA46ABCF16D
:104AC000020FD3ED025A83ED0B6A26EE256AD3ED71
:104AD000065A00F0F681BCF1030F00F0C881BCF16A
:104AE000010F00F00784B6EE007AF1EE004AF4EE12
:104AF000C75AF1EE10FA40F17584BFEE007AA5EEC8
:104B0000A47ABAE1FFEE006AFFF781BBDFED376AF6
:104B10004C3335EE265A534594D12B9B0BB1344B75
:104B20001860B0EE087AB4EEC75AF1EE10FA00F34E
:104B30006284B8EE087AB4EEC75AF1EE10FA00F1CA
:104B40006484F3EE0B6A25EE057AB2EE026AF0EEAB
:104B5000665AE7EE065A37EE267A27EE055A85EEB4
:104B6000256A26EE096AFFF7F3BBDFED205A75E7E9
:104B7000DDED062AFFF760B89DED27BAFFF799B87B
:104B8000F0EE082AE0EE472A9DED067A62EE872ACB
:104B9000FFF752B89DED07DAFFF76CB8B0EE08AA40
:104BA0009DED287AA1EEC2AA2AEE07AAFFF7A0B8C7
:104BB000B0EE08DAA0EEC7DA9DED077A2DEE07DA3F
:104BC000FFF758B8B0EE08BAA1EE47BA9DED277AC4
:104BD0002BEE07BAFFF76DB89DED28AAFFF788B84E
:104BE0009808002478080024340000240000000005
:104BF0000C00002417B7D13983F9A23F7B81CF3E47
:104C00006666663EDB0F4940DB0F49C03BEE0B2A70
:104C10005FED042A1FED04FAA2EE22FA1FED0A2A24
:104C20005FED0A2AB5EEC0FA6FEE222A2FEE022AB5
:104C3000F1EE10FA48BFB1EE4FFAA2EECF2AB5EE70
:104C4000C02AB1EE42FAF1EE10FA54BFF0EE422A59
:104C5000F0EE4F2AA2EE22FA5FED172AAFEE222ADB
:104C6000DDED072A62EE622AFFF70CB9B0EE00FA1A
:104C7000DDED072ABFEE002AABEE0F2A62EE222AF4
:104C8000FFF700B9F6EE002AB4EEE2BADDED072A2E
:104C9000F1EE10FA3FF5F6A8F1EE622AFFF7F2B84E
:104CA0007DEE0D8A5FED292A1FED292A1FED2DBA11
:104CB000A8EEA22A5FED302AB5EEC02A22EE0BBA8A
:104CC00062EE222AF1EE10FA48BFB1EE422AEBEE74
:104CD000422A1FED35BAF5EEC02AB1EE622AF1EE96
:104CE00010FA54BFF0EE628AF0EE428AA2EEA82AD1
:104CF000E2EE0B2A9DED062A62EEC28AFFF7A3B808
:104D0000B0EE002AFFEE002AEDEE022A9DED062A03
:104D100062EE828AFFF797B8F6EE002AB4EEE2DA86
:104D2000F1EE10FA00F14B83DDED062AF1EE628A16
:104D3000FFF789B83DEEADBA5FED4E2A5FED4E8AC2
:104D4000EBEE228A5FED542A1FED54BAF5EEC08ACD
:104D500028EE8BBA68EEA22AF1EE10FA48BFF1EE07
:104D6000688AEBEE682AF5EEC02AF1EE628AF1EE6F
:104D700010FA54BFB0EE62BAB0EE68BAE2EE8B8AB7
:104D80001FED61BAE8EE8B2ADDED078A62EEE82AB4
:104D9000FFF735B87EEEAE8A1FED662A5FED662A14
:104DA000B448E8EE822A9FEDB92ADFEDB98AD0ED4A
:104DB00000DAF5EEC02A62EEA88A22EE822AF1EE2F
:104DC00010FA48BFF1EE622AA8EEE22AB5EEC02A38
:104DD000F1EE422AF1EE10FA54BFF0EE428AF0EE04
:104DE000628A022DE2EE282ADFEDAA8AA2EEA82A24
:104DF000DDED062A22EE622A7EF4E9AFF6EE002A05
:104E0000F4EEE2DADDED072AF1EE10FA3EF5F7AF47
:104E1000F1EE622AFEF7F3BFF0EE002ABFEE002AA1
:104E2000AEEEA22ADDED062A22EE222AFEF7C9BF47
:104E3000F6EE002AF4EEE2EAF1EE10FA00F1B182A9
:104E4000DDED062AB1EE622AFEF7BBBFF0EE008A66
:104E5000FFEE002AEDEEA82ADDED078A62EEA82A11
:104E6000FEF7CDBF2DB0BDEC108BBDE8F08FF0EE9E
:104E7000004ABFEE007AA5EEA47A02EB010CD3ED56
:104E8000073A07EB4C1CDCED054A9CF824C027EEE2
:104E9000247ABCF1020F78D0BCF1030F6ED0BCF1C4
:104EA000010F1AD0F6EE004AB1EE004AF4EEE43AF1
:104EB000F1EE10FA40F19182FFEE004AE3EE844AEF
:104EC00037E0F6EE004AF4EEE45AFFEE004AF1EE67
:104ED00010FA58BFB0EE647ACFE733EEA33ADFEDB5
:104EE000694A9FED694AA3EE244ADFED684A9FEDC7
:104EF000683AB5EEC04A24EE033A64EE244AF1EE75
:104F000010FA48BFB1EE444AE3EE444AF5EEC04A17
:104F1000B1EE644AF1EE10FA54BFB0EE643AB0EE6E
:104F2000443AA4EE834A9FED5B3AE4EE034AF1EE85
:104F3000644A02EB010C93ED083A07EB4C1C9CED24
:104F4000084A9CF830C0A4EE247ABCF1020F00F0AD
:104F50008380BCF1030F78D0BCF1010F23D0F6EEB3
:104F6000004AB1EE004AB4EEE43AF1EE10FA40F134
:104F70002F82FFEE004AE3EE044A40E0B0EE004A22
:104F8000FFEE004AE3EE844AD3E7F6EE004ABFEEB6
:104F9000004AF4EEE43AF7EE004AF1EE10FA58BF98
:104FA000F0EE444AC5E733EE032ADFED364A9FEDC3
:104FB000364AA2EE244ADFED354A9FED352AB5EE9A
:104FC000C04A24EE022A64EE244AF1EE10FA48BFE9
:104FD000B1EE444AE2EE444AF5EEC04AB1EE644A0C
:104FE000F1EE10FA54BFB0EE642AB0EE442AA4EEFB
:104FF000824A9FED282AE4EE024AF1EE644A02EB6F
:10500000010C93ED094A07EB4C1C9CED0B2A9CF814
:105010003CC0A2EE247ABCF1020F00F05D81BCF12D
:10502000030F00F05281BCF1010F37D0F6EE004AB9
:10503000B4EEE44AF1EE004AF1EE10FA40F1C38119
:10504000BFEE002AA4EE242A54E0B0EE004AFFEEA0
:10505000004AE3EE044AD2E7F6EE004ABFEE004A09
:10506000B4EEE43AF7EE004AF1EE10FA58BFF0EE73
:10507000444AC4E7A408002400000030CDCC4C3FD3
:105080006666A63FDB0F4940DB0F49C083F9A23FAC
:105090007B81CF3E6666663E0000000074EE048AA7
:1050A0001FED082A5FED084AE8EE824A1FED092A43
:1050B0005FED098AF5EEC04A64EEA88A24EE822AE2
:1050C000F1EE10FA48BFF1EE644AA8EEE42AB5EE1C
:1050D000C02AF1EE424AF1EE10FA54BFF0EE428AD5
:1050E000F0EE648AE2EE284A5FED168AA4EEA82A62
:1050F000B1EE422A02EB010C07EB4C1CDCED0E8AF0
:10510000DCED149AA8EE827AF5EEC09AF1EE10FA70
:10511000F0EE474A27DD80EA403093ED0C7A1FED30
:105120002A2A80EA5040B0EE47DA1FED2CBA80EA16
:1051300040109CED1EAACDF8ACE008EE900AF8EE07
:10514000E88A98EE82DAADEE0B7A83ED0C7A98EE6F
:10515000827A37EE077AA8EEC27A27EE0A7AA8EEAC
:10516000827AE9EE874A93ED057A24EE877AF0EEAB
:10517000084AB4EEE47AF1EE10FA00F3A380F8EEF8
:10518000084AB4EEE47AF1EE10FA00F1E480B3EEEE
:105190000B2A67EE074AF2EE029AF0EE428AE4EE3C
:1051A000A98A74EE824A24EE877A87EE282A02EBD7
:1051B000010C07EB4C1CDCED044A02EB010C66EE23
:1051C000244A07EB4C1C84EE887A77EE255A93ED3F
:1051D0000D7A72EE474A93ED0E2AA2EE247AF7EE8C
:1051E000004AF4EEE45A83ED0D7AF1EE10FAA8BF0E
:1051F00075EEE45ADCED074A02EB010C0A4466EE58
:10520000244AC3ED065A07EB4C1C07EB4212C4EECE
:10521000885ADCED0A4A66EE244A75EEA33AF7EEA8
:10522000005AF4EEE53AF1EE10FAA8BF73EEE53A53
:10523000C4EE885AC3ED073A35EE833AF7EE005ACA
:10524000B4EEE53AF1EE10FAA8BF33EE653AD2EDCE
:105250000D5A26EE256A83ED083AC6EE085AB7EED7
:10526000006A35EE844AB4EEC64AF1EE10FAA8BFE1
:1052700034EE464A1FED7E6A27EE067AB0EE086AE3
:1052800083ED094AB4EEC67AF1EE10FA3FF740AC6E
:10529000B8EE086AB4EEC67AF1EE10FA57D4F3EE1F
:1052A0000B5A27EE076AB2EE024AF0EE654AE6EEC6
:1052B000044A36EE256A26EE077A87EE246A66EE01
:1052C000866A25E4B7EE002A71E7F0EE004ABFEEE9
:1052D000002AA4EE242A0DE7F6EE004AB7EE002AD3
:1052E000B4EEE44AFFEE004AF1EE10FA58BFB0EE19
:1052F000642AFFE635EEA54A1FED9E7A5FED9E4AD1
:10530000E4EE074A1FED9F7A1FED9F4AF5EEC04A73
:1053100024EE844A24EE877AF1EE10FA48BFF1EECB
:10532000644AA4EE647AB5EEC07AF1EE474AF1EE33
:1053300010FA54BFB0EE474AB0EE644AE7EE044AB2
:105340001FEDAC4AA4EE847AB1EE477A95E5F1EE12
:10535000666AFFF7DDBBBFEE002A28E75FEDB26AA1
:105360001A70FFF7D5BBF0EE082AEDEE422A9DED4C
:10537000062A62EE828AFEF766BDB0EE082AAEEE1D
:10538000E22ADDED062A22EE222AFEF71ABDB0EE51
:10539000082ADDED072AABEE4F2A62EE222AFEF73D
:1053A00071BD9DED062AFEF70CBDF0EE082AEDEE6C
:1053B000E82ADDED078A62EEA82AFEF720BDDDEDC2
:1053C000068AFEF740BDB0EE082AA4EE642A91E6F4
:1053D000F0EE084AE3EE444A11E6F0EE084AE3EE46
:1053E000C44AA6E5B0EE087AA5EEE47A45E51FEDDD
:1053F000D60AFEF7DDB9B0EE496AFEF7A9BF5FED48
:10540000DA7ACDED0F7AFEF77BB9B1EE496AFEF795
:105410009FBF0E4A95ED1C0A1360FEF723BA9FED5D
:105420000C0AFEF7FBB99FED0A0AFEF7DCB9F5EEB0
:10543000C07A084B1A460023F1EE10FA13603EF7CB
:105440002DAA4FF07E52FEF72FBA00BFCC080024E1
:1054500000000000D0080024143001F009BA00BF99
:10546000143001F001BA00BF38B500F1140504464C
:105470002DED028B284601F0E9F9284601F0F4F9F8
:105480002846B0EE408A01F0DDF9D0ED007AF8EE62
:10549000677A88EE277ABDEC028B84ED0E7A38BDF0
:1054A00010B540F203338EB000244FF60B7240F279
:1054B0000341ADF8083009A80123ADF81020ADF87C
:1054C00024202246ADF80C100094029907940C9405
:1054D000CDE90544CDE90A4402F01AF804A80123F5
:1054E00022460399009402F013F809A802F0F6F896
:1054F00010B901200EB010BD04A802F0EFF8A042D0
:105500000CBF022020460EB010BD00BF2DE9F041B7
:1055100003239AB0012700240646CDE914373B4BFC
:10552000CDE9104340F20453CDE91647ADF84830B9
:10553000FFF7B6FFB842054625D0022845D040F611
:105540000132334B0DF12C081894ADF82C200B9838
:105550001997CDF84A3000F0E3F810A906F13C00A5
:1055600003F0CEFD302003224FF07E5341460D93D1
:105570000E93CDE90B02F26B06F1140001F02AF94B
:105580001AB0BDE8F0811023214A06A906908DF8D3
:1055900028300DF12C081F4BCDF84A2007930294B8
:1055A000CDE91804CDE9080402A802F009FB08239C
:1055B000029A03A94046ADF80C508DF80E400495B0
:1055C00005930B9400F0ECF8C7E700200121104B85
:1055D0000DF12C083A460094CDF84A304FF60B7383
:1055E0000C94ADF82C302346CDE9180140F601317A
:1055F0004046ADF818100699CDE90D4401F088FF3A
:105600002146404602F076F8A7E700BF04020404F2
:10561000040604030704010B2DE9F04704462DEDB1
:10562000028B82B000294DD0012140F201120023EB
:105630000091ADF804208DF80630364A0127364B2C
:1056400004F10409354904F12908626040F202724C
:10565000A36040F60663E16004F1250AA4F8252062
:10566000A4F82930278284F8277084F82B7004F07E
:10567000A1F9054604F002F86946064650BB4DB351
:1056800004F130008DF8067004F01AF9072D3CD1B2
:1056900004F114052046FFF739FF284601F0E4F82D
:1056A0002846B0EE408A01F0CDF8D0ED007AF8EE51
:1056B000677A88EE277A84ED0E7A02B0BDEC028B11
:1056C000BDE8F08740F2011300918DF80610ADF8A7
:1056D0000430B2E704F1300004F0F2F8072D11D0E5
:1056E0004946204603F098F80EB9002DD0D1504617
:1056F00002F00AF8404602F007F804F1120000F048
:1057000079F9C5E7002EF2D1C2E74946204603F0F9
:1057100083F8BDE70508050905070506050A06061D
:1057200010B584B003460124ADF8040003A8ADF819
:105730000C30ADF80E4001F0E7FF214603A802F05F
:10574000BFF8204603F092FF002103A802F0B8F84A
:10575000204603F08BFF214603A802F0B1F804B005
:1057600010BD00BF10B5C2F3002384B00C46017C0D
:105770008DF80D2043EA4402FA2402238DF80C2010
:1057800003AA009402F0B2FA18B10124204604B032
:1057900010BD04460A2003F069FF204604B010BD86
:1057A000034670B543F8042B044684B007C983E868
:1057B0000700A37983B91A210B461E22FA25237408
:1057C0002046ADF80C20022303AA009502F08EFAC1
:1057D00028B1012004B070BD1B210B46EDE70A2063
:1057E00003F044FF4FF4B85200950223ADF80C20AB
:1057F000204603AA217C02F079FA0028E9D10A2088
:1058000003F034FF41F2027200950223ADF80C2040
:10581000204603AA217C02F069FA0028D9D10A2087
:1058200003F024FF042200950223ADF80C2020464B
:1058300003AA217C02F05AFA0028CAD10A2003F0F8
:1058400015FF062200950223ADF80C20204603AA7E
:10585000217C02F04BFA0028BBD10A2003F006FF9E
:1058600041F2082200950223ADF80C20204603AA3D
:10587000217C02F03BFA0028ABD10A20064603F057
:10588000F5FE0095022303AA217C2046ADF80C60AA
:1058900002F02CFA00289CD1304603F0E7FE009578
:1058A00022790C232046002A8DF80C3003AA4FF0F1
:1058B000020314BF622142218DF80D10217C02F0F9
:1058C00015FA002885D1304603F0D0FE2279D4E9BC
:1058D00002310B43DBB20AB943F0400362790AB1EB
:1058E00043F020030E22FA258DF80D302046009556
:1058F00002238DF80C2003AA217C02F0F7F900287E
:105900007FF467AF0A2003F0B1FE10220095022356
:10591000ADF80C20204603AA217C02F0E7F900280C
:105920007FF457AF0A2003F0A1FE12210095022355
:10593000ADF80C1003AA217C204602F0D7F900280C
:105940007FF447AF0A2003F091FE0122092120468F
:10595000FFF708FF003818BF01203BE7F0B5102320
:1059600087B0234C012200250126002702A92046EA
:105970000195CDE902234FF48052CDE904670BF085
:10598000D5FB642004F054FE02A94FF48052204657
:10599000CDE9046702261027CDE902670BF0C6FBAC
:1059A0000322102302A92046CDE90223002304226A
:1059B000CDE904234FF480520BF0B8FB40F23223C0
:1059C000042202A9019310232046CDE90223019A63
:1059D000012305924FF4805204930BF0A7FB40F68D
:1059E000060120460BF0C2FB284607B0F0BD00BF01
:1059F000040900241C4B00221C494FF0400C30B518
:105A0000054689B00220596007219A601A62012474
:105A1000DA620A224FF4006EDC6006922022CDE9A1
:105A2000000104200821CDE9020103201021CDE965
:105A3000040108206946C3E904024FF4C072181D2E
:105A4000C3E906C24FF48052C3E909E20BF044FBFC
:105A500038B92846FFF782FF003818BF012009B087
:105A600030BD204609B030BD00090024404100523D
:105A7000614A0021D0B513688EB00A91002B40F026
:105A8000B9805E4B01214FF683700C241160022116
:105A9000D3F8D4200026032742F48052C3F8D42040
:105AA000D3F8D42002F480520092009AD3F8E02078
:105AB00042F01002C3F8E020D3F8E02002F0100218
:105AC0000192019AD3F8E02042F04002C3F8E020AE
:105AD000D3F8E02002F040020292029AD3F8E020CC
