:020000040800F2
:1000000000000220A10A00089D0A0008DD6A00081D
:100010009D0A00089D0A00089D0A000800000000D3
:100020000000000000000000000000009D0A000821
:100030009D0A0008000000009D0A0008616A00088F
:100040009D0A00089D0A00089D0A00089D0A0008F4
:100050009D0A00089D0A00089D0A00089D0A0008E4
:100060009D0A00089D0A00089D0A000869660008AC
:1000700075660008E9500008816600088D66000872
:10008000FD250108955B00089D0A00089D0A0008EF
:100090009D0A00089D0A00089D0A00089D0A0008A4
:1000A0009D0A00089D0A00089D0A00089D0A000894
:1000B000F5190108011A01080D1A0108C95B0008A9
:1000C0009D0A0008D55B00089D0A0008651201081A
:1000D00071120108312401085D24010891240108EE
:1000E0009D0A00089D0A0008000000009D0A000803
:1000F0009D0A00089D0A00089D0A00089D0A000844
:100100009D0A00089D0A0008191A01087D120108BD
:10011000C5240108F9240108B55300089D0A000808
:100120009D530008A9530008A1120108D512010827
:10013000312601089D0A00089D0A00089D0A000852
:1001400000000000000000000000000000000000AF
:100150009D0A00089D0A00089D0A00082D25010837
:10016000E15B00089D0A0008716A0008956A0008B2
:100170009D0A0008B96A00089D0A00089D0A000847
:100180009D0A00089D0A00086125010895250108BF
:1001900089120108951201089D0A00089D0A0008AD
:1001A0009D0A00089D0A00089D0A00089D0A000893
:1001B000896300089D0A00089D0A00089D0A00083E
:1001C0009D0A00089D0A0008A54B0008B14B0008D5
:1001D0009D0A0008BD4B00089D0A00089D0A000802
:1001E0009D0A00089D0A00089D0A00089D0A000853
:1001F0009D0A00089D0A00089D0A00089D0A000843
:100200009D0A00089D0A00089D0A00089D0A000832
:100210009D0A00089D0A00089D0A00089D0A000822
:100220009D0A00089D0A00089D0A000800000000C1
:100230009D0A00089D0A0008000000009D0A0008B1
:100240009D0A00089D0A00089D0A00089D0A0008F2
:100250009D0A00089D0A00089D0A00089D0A0008E2
:100260009D0A00089D0A00089D0A00089D0A0008D2
:100270009D0A00089D0A0008C92501080000000029
:100280009D0A00089D0A00089D0A00080000000061
:08029000000000009D0A0008B7
:1002A00010B5054C237833B9044B13B10448AFF3B0
:1002B00000800123237010BD3006002400000000E0
:1002C000C078010808B5034B1BB103490348AFF3DD
:1002D000008008BD0000000034060024C07801083A
:1002E00001F0FF01102A2BDB10F0070F08D010F8E7
:1002F000013B013A8B422DD010F0070F42B3F6D1EB
:10030000F0B441EA012141EA014122F007047FF003
:1003100000070023F0E80256083C85EA010586EA5A
:10032000010685FA47F5A3FA87F586FA47F6A5FA96
:1003300087F68EB9EED1F0BC01F0FF0102F00702A2
:1003400032B110F8013B013A83EA010313B1F8D14D
:100350000020704701387047002D06BF354603382E
:10036000073815F0010F07D1013015F4807F02BF67
:10037000013015F4C03F0130F0BC0138704700BFB8
:1003800081F0004102E000BF83F0004330B54FEA46
:1003900041044FEA430594EA050F08BF90EA020FB3
:1003A0001FBF54EA000C55EA020C7FEA645C7FEA46
:1003B000655C00F0E2804FEA5454D4EB5555B8BF69
:1003C0006D420CDD2C4480EA020281EA030382EADA
:1003D000000083EA010180EA020281EA0303362D6C
:1003E00088BF30BD11F0004F4FEA01314FF4801C3F
:1003F0004CEA113102D0404261EB410113F0004F51
:100400004FEA03334CEA133302D0524263EB430307
:1004100094EA050F00F0A780A4F10104D5F1200EA5
:100420000DDB02FA0EFC22FA05F2801841F1000100
:1004300003FA0EF2801843FA05F359410EE0A5F1D4
:1004400020050EF1200E012A03FA0EFC28BF4CF005
:10045000020C43FA05F3C01851EBE37101F00045BB
:1004600007D54FF0000EDCF1000C7EEB00006EEBC8
:100470000101B1F5801F1BD3B1F5001F0CD3490852
:100480005FEA30004FEA3C0C04F101044FEA4452A9
:1004900012F5800F80F09A80BCF1004F08BF5FEA30
:1004A000500C50F1000041EB045141EA050130BD10
:1004B0005FEA4C0C404141EB0101013C28BFB1F522
:1004C000801FE9D291F0000F04BF01460020B1FA6D
:1004D00081F308BF2033A3F10B03B3F120020CDA40
:1004E0000C3208DD02F1140CC2F10C0201FA0CF01E
:1004F00021FA02F10CE002F11402D8BFC2F1200C83
:1005000001FA02F120FA0CFCDCBF41EA0C01904038
:10051000E41AA2BF01EB0451294330BD6FEA040481
:100520001F3C1CDA0C340EDC04F11404C4F120026C
:1005300020FA04F001FA02F340EA030021FA04F37E
:1005400045EA030130BDC4F10C04C4F1200220FAD5
:1005500002F001FA04F340EA0300294630BD21FA13
:1005600004F0294630BD94F0000F83F4801306BFD9
:1005700081F480110134013D4EE77FEA645C18BFCD
:100580007FEA655C29D094EA050F08BF90EA020F64
:1005900005D054EA000C04BF1946104630BD91EA5C
:1005A000030F1EBF0021002030BD5FEA545C05D15F
:1005B0004000494128BF41F0004130BD14F580049E
:1005C0003CBF01F5801130BD01F0004545F0FE4112
:1005D00041F470014FF0000030BD7FEA645C1ABF47
:1005E000194610467FEA655C1CBF0B46024650EA7E
:1005F000013406BF52EA033591EA030F41F40021AA
:1006000030BD00BF90F0000F04BF0021704730B52F
:100610004FF4806404F132044FF000054FF0000104
:1006200050E700BF90F0000F04BF0021704730B5C5
:100630004FF4806404F1320410F0004548BF40429A
:100640004FF000013EE700BF42004FEAE2014FEAEF
:1006500031014FEA02701FBF12F07F4393F07F4FCA
:1006600081F06051704732F07F4208BF704793F0CD
:100670007F4F04BF41F40021704730B54FF46074E0
:1006800001F0004521F000411CE700BF50EA0102E3
:1006900008BF704730B54FF000050AE050EA01028C
:1006A00008BF704730B511F0004502D5404261EBFC
:1006B00041014FF4806404F132045FEA915C3FF43D
:1006C000D8AE4FF003025FEADC0C18BF03325FEADA
:1006D000DC0C18BF033202EBDC02C2F1200300FA8B
:1006E00003FC20FA02F001FA03FE40EA0E0021FAB0
:1006F00002F11444BDE600BF7BB972B90029BEBF48
:1007000000204FF0004106E008BF00281CBF6FF03A
:1007100000414FF0FF3000F0BFB9ADF1080C6DE9BA
:1007200004CE002909DB002B1ADB00F04DF8DDF8C0
:1007300004E0DDE9022304B07047404261EB41016F
:10074000002B1BDB00F040F8DDF804E0DDE90223BC
:1007500004B0404261EB4101524263EB43037047F6
:10076000524263EB430300F02FF8DDF804E0DDE9CB
:10077000022304B0404261EB41017047524263EBF7
:10078000430300F021F8DDF804E0DDE9022304B0C2
:10079000524263EB4303704753B94AB9002908BF7B
:1007A00000281CBF4FF0FF314FF0FF3000F074B94C
:1007B000ADF1080C6DE904CE00F006F8DDF804E0B8
:1007C000DDE9022304B070472DE9F047089D044697
:1007D0008E46002B4DD18A42944669D9B2FA82F2F4
:1007E00052B101FA02F3C2F1200120FA01F10CFA30
:1007F00002FC41EA030E94404FEA1C48210CBEFB68
:10080000F8F61FFA8CF708FB16E341EA034306FBF0
:1008100007F199420AD91CEB030306F1FF3080F07F
:100820001F81994240F21C81023E63445B1AA4B2CC
:10083000B3FBF8F008FB103344EA034400FB07F76E
:10084000A7420AD91CEB040400F1FF3380F00A81AF
:10085000A74240F207816444023840EA0640E41BA4
:1008600000261DB1D4400023C5E900433146BDE850
:10087000F0878B4209D9002D00F0EF800026C5E9F2
:10088000000130463146BDE8F087B3FA83F6002E0A
:100890004AD18B4202D3824200F2F980841A61EB82
:1008A000030301209E46002DE0D0C5E9004EDDE7A0
:1008B00002B9FFDEB2FA82F2002A40F09280A1EB88
:1008C0000C014FEA1C471FFA8CFE0126200CB1FBDD
:1008D000F7F307FB131140EA01410EFB03F08842D6
:1008E00008D91CEB010103F1FF3802D2884200F263
:1008F000CB804346091AA4B2B1FBF7F007FB1011F5
:1009000044EA01440EFB00FEA64508D91CEB040492
:1009100000F1FF3102D2A64500F2BB800846A4EBED
:100920000E0440EA03409CE7C6F12007B34022FAD8
:1009300007FC4CEA030C20FA07F401FA06F31C4307
:10094000F9404FEA1C4900FA06F3B1FBF9F8200C14
:100950001FFA8CFE09FB181140EA014108FB0EF05A
:10096000884202FA06F20BD91CEB010108F1FF3AAA
:1009700080F08880884240F28580A8F102086144B6
:10098000091AA4B2B1FBF9F009FB101144EA0141C4
:1009900000FB0EFE8E4508D91CEB010100F1FF346F
:1009A0006CD28E456AD90238614440EA0840A0FB07
:1009B0000294A1EB0E01A142C846A64656D353D0DD
:1009C0005DB1B3EB080261EB0E0101FA07F722FA01
:1009D00006F3F1401F43C5E9007100263146BDE82A
:1009E000F087C2F12003D8400CFA02FC21FA03F38D
:1009F000914001434FEA1C471FFA8CFEB3FBF7F00E
:100A000007FB10360B0C43EA064300FB0EF69E4232
:100A100004FA02F408D91CEB030300F1FF382FD2CB
:100A20009E422DD9023863449B1B89B2B3FBF7F673
:100A300007FB163341EA034106FB0EF38B4208D94C
:100A40001CEB010106F1FF3816D28B4214D9023E8D
:100A50006144C91A46EA004638E72E46284605E7AB
:100A60000646E3E61846F8E64B45A9D2B9EB02087C
:100A700064EB0C0E0138A3E74646EAE7204694E70C
:100A80004046D1E7D0467BE7023B614432E730463F
:100A900009E76444023842E7704700BFFEE700BF41
:100AA0000B480C4A904203D0121A0B4914F07AFEFC
:100AB0000A480B4A904203D0121A002114F080FE1B
:100AC00006F06CFA14F042FE01F0CCFBFEE700BF2A
:100AD0000000002430060024F478010830060024C9
:100AE000E8610024704700BF814BD3ED007AF5EE3A
:100AF000C07A2DE9F04FF1EE10FA8A462DED108BF9
:100B000099B0049200F18D87B0EE677AF7EE007A23
:100B1000B4EE677AF1EE10FA77FE877ACDED067AB9
:100B20007449754A754BD1ED007A92ED00BA74495B
:100B3000D3ED00BA734A744B91ED00AA92ED009A7E
:100B4000724993ED00CA724A724B7348D1ED00CAE4
:100B5000CDED057AD2ED009AD3ED008A02F096FC35
:100B60006E4BB0EE408A6E4C1B681A462368072A0B
:100B700028BF0022934201925AD06A49C2EBC203B5
:100B800001EB03130291D3ED1B7AD300F5EEC07A8B
:100B90000393F1EE10FA40F240879FED707ABFEEBA
:100BA000000A67EE877A67EE887A80EE270A14F0EB
:100BB00085FB019A039B9B1A029A02EB0313D3ED68
:100BC000197A594BF5EEC07A83ED000AF1EE10FA6E
:100BD00040F231879FED617ABFEE000A67EE877AB7
:100BE00067EE887A80EE270A14F068FB019A039B6F
:100BF0009B1A029A02EB0313D3ED1A7A4B4BF5EED4
:100C0000C07A83ED000AF1EE10FA40F210879FEDF2
:100C1000537ABFEE000A67EE877A67EE887A80EE35
:100C2000270A14F04BFB424B019A83ED000A226025
:100C3000049B002B00F0EC86B1EE087ADFED3D7AE4
:100C4000019B0025374A87EE087AD900C3EBC3031E
:100C50000292039102EB0313DFF8ECB0364C93F8E9
:100C60003D2093F83C6093F8189093F8248093F813
:100C70003070D3ED14EA0B92304A8DED0A7A2AEEE9
:100C8000277A8DED077A29EE277A68EEA77A8DED1F
:100C9000087ACDED097AD3ED0A7A9FED297ACDED68
:100CA0000C7AD3ED0D7ACDED0D7AD3ED167ACDED2C
:100CB0000E7AD3ED057ACDED137AD3ED127A67EE85
:100CC000677ACDED117AD3ED087ACDED147AD3EDB4
:100CD0000B7ACDED157AD3ED0E7ACDED167AD3EDF4
:100CE000047A114BCDED0F7A1093164B129668E2F1
:100CF000D80600242800002420000024E006002458
:100D000024000024E4060024D0060024DC0600248D
:100D1000CC0600241C000024E80600245806002409
:100D200018000024246F0108C8060024C00600240F
:100D3000C406002400D7233C6C0600240C000024C9
:100D400033337340100000245406002400409C46B6
:100D500048E17A3F0AD7233C6666A63F6F12833A82
:100D60005FED067AF4EEE75AF1EE10FA00F38785AC
:100D700075EEA55AC5EE887ADDED115AA5EE856AA5
:100D80005FED0D5AF4EE657AF1EE10FA75FEA77A72
:100D9000F0EE085AB4EEE56AF1EE10FA00F376844C
:100DA000F8EE085AB4EEE56AF1EE10FA00F1F285B9
:100DB000B3EE0B2A66EE065AF2EE02AAF0EE421AE3
:100DC000E5EEAA1A75EE825A25EE866AC6EE215A1B
:100DD000B0EE086AF4EEC63AF1EE10FA00F3608461
:100DE000B8EE086AF4EEC63AF1EE10FA00F1CE85DC
:100DF000B3EE0B2A23EEA36AF2EE02AAF0EE421A39
:100E0000E6EE2A1A36EE026A26EE236A86EE212ADA
:100E100075EEC25AB0EE086AE5EEA73AF4EEC63AAD
:100E2000C4ED003AF1EE10FA00F34484B8EE086A1B
:100E3000F4EEC63AF1EE10FA00F1B485F3EE0B5A77
:100E400023EEA36AF2EE021AB0EE652AA6EE212A7C
:100E500036EE256A66EE233A83EE826AF0EE085A91
:100E6000B4EEE54AF1EE10FA00F32E84F8EE085ADB
:100E7000B4EEE54AF1EE10FA00F19085F3EE0B3A8C
:100E800064EE045AF2EE021AB0EE632AA5EEA12A2D
:100E900075EEA35A65EE845AC5EE823A36EE636A61
:100EA000A7EE864AB0EE086AB4EEC64A84ED014A5F
:100EB000F1EE10FA00F31284B8EE086AB4EEC64AF6
:100EC000F1EE10FA00F17685F3EE0B5A24EE046A87
:100ED000B2EE022AF0EE653AE6EE023A36EE256A06
:100EE00026EE044A84EE236AF0EE085AF4EEE54A50
:100EF000F1EE10FA00F3EF83F8EE085AF4EEE54A4B
:100F0000F1EE10FA00F15285B3EE0B4A64EEA45AEA
:100F1000B2EE022AF0EE443AE5EE823A75EE845AD9
:100F200065EEA45A85EEA34A36EE446AE7EE864A99
:100F3000B0EE086AF4EEC64AC4ED024AF1EE10FAC9
:100F400000F3C683B8EE086AF4EEC64AF1EE10FA72
:100F500000F11085F3EE0B5A24EEA46AF2EE023A89
:100F6000B0EE654AA6EE234A36EE256A66EE244ABE
:100F700084EE846AF0EE085AB4EEE55AF1EE10FA07
:100F800000F39583F8EE085AB4EEE55AF1EE10FA44
:100F900000F1F484F3EE0B4A65EE055AF2EE023AE4
:100FA000B0EE644AA5EEA34A75EEA45A65EE855AE2
:100FB000C5EE844A36EE646AA7EE865A5FED9B7AE8
:100FC000B4EEE73AF1EE10FA84ED035A3BD4B7EEF3
:100FD000004AF1EE007AF0EE004AB0EE446A74EE98
:100FE000433AA3EE276AF6EE007AF0EE675A26EE51
:100FF000056AE6EE275ABFEE006ABBFE652A35EEAB
:10100000C22AF0EE465AE2EE245AB0EE462AF0EE3C
:10101000E55A74EE655AA5EEA42AE2EE277AFBFEA5
:10102000675A77EEE57AF0EE465AE7EEA45AF0EE0C
:10103000E55A74EE655AA5EEA46A23EE066AA3EE9D
:10104000856AB0EE465A5FEDBC7A25EE275AF0EE7F
:10105000087AB4EEE75AF1EE10FA19DCF8EE087AE5
:10106000B4EEE75AF1EE10FA00F18C84B3EE0B6A9D
:1010700065EE057AF2EE024AF0EE465AE7EEA45A21
:1010800077EE867A27EE855AC5EE257A27EE277AFF
:10109000DDED0F7A2AEE077ADAF8001066EEA76A1D
:1010A000DDED065A01EB85011FEDD46AE04EC6EE78
:1010B000887A81ED007ADAF80410DFEDDE6A01EB60
:1010C000850181ED007AB7EE007ADB4977EE897A07
:1010D000B7EE009AF4EEC97AF1EE10FAA8BF77EEF7
:1010E000C97AC1ED007AC1EE087AD44977EEA88AB0
:1010F000CEEE087AF4EEC78AF1EE10FAA8BF78EEC9
:10110000C78AB7EE007AC1ED008ACD4937EE800A72
:10111000CDEE887AB4EEC70AF1EE10FAA8BF30EE31
:10112000470AB7EE007A81ED000AC64977EEA00AB9
:10113000CDEE087AF4EEC70AF1EE10FAA8BF70EE11
:10114000C70AB7EE007AC1ED000ABF4977EEA22ABE
:10115000F6EE007AF4EEC72AF1EE10FAA8BF72EEAE
:10116000C72AC1ED002AB94991ED007A75EEC75A38
:10117000A5EE867AE7EE267A81ED007A3168481C82
:10118000FCEEE77A17EE901AF02928BFF021EF283D
:1011900084BF0020A64E81423060AD4E94BF002136
:1011A00001213078884207D0AA48179104F0B8FA94
:1011B0001799A94BA94A317001350499A94200F049
:1011C00027841099F7EE005A9DED056AD1ED007A5B
:1011D000A34975EEE76A92ED007AD1ED004A66EE1A
:1011E000866AF4EECB4AE7EE276AF1EE10FAC2ED1A
:1011F000006A00F143829B49D1ED003A75EEE35A53
:101200006BEE255A9849964891ED003AE4EEA35AC0
:101210009FED965AB4EEEB3A9FED956A93ED004A36
:10122000DFED944AF1EE10FA934EDDED07AAC0ED22
:10123000005A924854BFF0EE462AF0EE452A9FED40
:10124000907AE4EE24AAD0ED003ADFED8E7A6BEED0
:10125000A22AF4EECC3A96ED004A54BFB0EE672ACB
:10126000B0EE472A9DED09AAF1EE10FAC3ED00AAEF
:10127000B4EEEC4AE3EE022A54BFB0EE672AB0EEB9
:10128000472A54BFB0EE463AB0EE453AF1EE10FAB6
:101290002CEE033A48BFB0EE456AC1ED002A48BFC4
:1012A000F0EE477A78499BED007AA3EE823A2CEE75
:1012B000866A9DED082AA7EE242AA4EE276AD1EDBE
:1012C000007AB7EE007AF4EEE97A80ED003A6E48E3
:1012D000F1EE10FA8BED002A86ED006A4CBF6B49E7
:1012E000604991ED005A6A4937EE457A27EE297A2E
:1012F000A7EE857A91ED005ADFED5E7AA5EE27AA7A
:10130000DFED647AB4EEE77A80ED007AF1EE10FA60
:1013100081ED00AA00F19F8194ED035AD4ED003ACB
:1013200094ED014AD4ED024ADFED5A7AF4EEE79AE1
:10133000F1EE10FA0CD5DFED587AB4EEE77AF1EE63
:1013400010FA05DDF3EE0E7AE7EE0B7AB0EE67BA2F
:101350005249B1EE001ADDED0A1AD1ED007A71EEB4
:10136000A77AF7EE001AF4EEE17AF1EE10FAA4BFD4
:1013700077EEE17A4949F6EE001AC1ED007AF4EE13
:10138000E17AF1EE10FA40F16181FFEE001AE7EE2A
:10139000811AB7EE001A0B9922EE212ADFED401ACE
:1013A000F0EE417AE2EE217A66EEA76A002900F0BB
:1013B0004281019803999FED3B2A091A0298A2EEF7
:1013C000821A00EB0111D1ED077A66EEA77A27EEBB
:1013D000811ADDED0C7AB9F1020F174926EEA7EA62
:1013E000DDED0D7A91ED009A66EEA7DADDED0E7A6D
:1013F00026EEA7DA00F03682B9F1030F00F0728210
:10140000B9F1010F00F03F82F6EE007AF1EE002A0A
:10141000B4EEE79AF1EE10FA40F1EB82FFEE007ABB
:10142000E9EE227ADDED132A67EEA27A3CE000BFF6
:10143000B806002400007043A8060024AC0600246F
:10144000640600246006002450060024BC06002424
:10145000B406002428070024100000240C000024F7
:1014600014000024C4060024A406002400D7A33CD2
:101470000012833AA4707D3FB00600244C0600247D
:1014800048E17A3F77BE7F3F68060024C00600240B
:10149000080000246F12833A17B7D1385C06002485
:1014A000CDCC4C3DC0956C3DDE49B8F1020FD1ED7D
:1014B000008A00F09F81B8F1030F00F0A881B8F115
:1014C000010F00F06881F6EE002AF4EEE28AF1EEF8
:1014D000002AF1EE10FA40F18382FFEE001AE8EEE6
:1014E000A21ADDED142A61EEA21ACF49022F91ED66
:1014F000000A00F04381032F00F03581012F00F036
:10150000F080F6EE002AB4EEE20AF1EE002AF1EEE7
:1015100010FA40F15382BFEE002AA0EE222ADDED40
:10152000152A22EE222AC149D1ED000A1299022978
:1015300000F00C81032900F00F82012900F0DD8109
:10154000F6EE002AB1EE00FAF4EEE20AF1EE10FA3D
:1015500040F13D82FFEE002AE0EE8F2A9DED16FA63
:1015600062EE8F2AF5EEC0EAF1EE10FA40F38B80BE
:10157000AF48016881EA413181EA514181EA411174
:101580000FEE101A0160BAEEE0FA2FEE2EFA77EEA7
:10159000A17AA84977EE827A77EEA22AF6EE007A4F
:1015A00032EE8FFAD1ED002AF4EEE72AF1EE007A5E
:1015B000F1EE10FA3AD5BFEE002AA2EEA72A2FEEDE
:1015C000022AF7EE007A22EE062A37EEC66AA6EE67
:1015D0000F2AB0EE086A6AEE82AAF4EEC6AAF1EE0D
:1015E00010FA61DCF8EE087AF4EEE7AAF1EE10FAF0
:1015F00000F1BD81B3EE0B6A6AEEAA7AF2EE021A2E
:10160000B0EE462AA7EEA12A77EE867A67EEAAAA5E
:101610008AEE826AF3EE047AF4EEE75AF1EE10FAFB
:101620007FF59EABDFED845AFFF7A4BBB0EE082A2E
:10163000A2EEE72AC3E701980399091A029800EB82
:10164000011191ED071A26EE811AC2E6F0EE081A92
:10165000E7EEC11A9DE6DFED797AD4ED003A94ED1C
:10166000014AD4ED024A63EEA73A94ED035A24EE00
:10167000274A64EEA74A25EE275A55E6DFED705A51
:10168000DFED703ABCE59FED76FA80E7B0EE086AD0
:10169000F7EE005AF4EEC63AF1EE10FA7FF7A0AB7F
:1016A000B7EE002AFFF7B4BBB0EE676AB2E7F7EE19
:1016B000004A7FE4F0EE085AB7EE006AB4EEE54A5D
:1016C000F1EE10FA7FF7D2ABF7EE003AFFF7E6BB88
:1016D000B7EE006A4EE4B7EE004A25E4B7EE006AC2
:1016E00002E470EE000A9FED592ADFED592A4F49B6
:1016F000E0EE822A9FED572ADFED570AF5EEC02A69
:1017000062EEA00A22EE822AF1EE10FA48BFF1EE54
:10171000622AA0EEE22AB5EEC02AF1EE422AF1EEEC
:1017200010FA54BFF0EE420AF0EE620AE2EE202A0E
:10173000DFED4A0AA2EEA02AD1ED000A1299DDEDF2
:10174000152A022922EE622A7FF4F4AEF6EE002A70
:10175000F4EEE20ADDED162AF1EE10FA3FF502AFE3
:10176000F1EE622AFEE6F0EE002ABFEE002AA0EEBD
:10177000222ADDED152A22EE222AD4E6F6EE002AF0
:10178000B4EEE20AF1EE10FA00F13C81DDED152A2B
:10179000B1EE622AC7E678EEA81A9FED2C2ADFED9B
:1017A0002C2AE1EE822ADFED2B1A9FED2B2AF5EE93
:1017B000C02A22EE822A62EEA11AF1EE10FA48BF88
:1017C000F1EE622AE2EE621AF5EEC01AF1EE612A3B
:1017D000F1EE10FA54BFB0EE612AB0EE622AE1EEEB
:1017E000822A9FED1E2AE2EE821ADDED142A61EEB6
:1017F000E21A7AE6F6EE002AF4EEE28AF1EE10FA48
:1018000000F10381DDED142AF1EE621A6DE6F0EECF
:10181000002AFFEE001AE8EEA21ADDED142A61EEAE
:10182000A21A62E6AC0600246406002460060024C6
:1018300004000024500600240000204277BE7F3FB1
:1018400000481D3AAED87F3F00401C47DB0F49409F
:10185000DB0F49C083F9A23F7B81CF3E6666663EBF
:1018600000000000F6EE007AB4EEE79ADDED137AA0
:10187000F1EE10FA3FF518AEF1EE677A14E65FED7F
:101880000E5AFFF777BA39EE092A5FED107A5FED4D
:10189000102AE2EE272A5FED117A1FED112AF5EEEC
:1018A000C02A22EE822A62EEA77AF1EE10FA48BF31
:1018B000F1EE622AE2EE627AF5EEC07AF1EE672A84
:1018C000F1EE10FA54BFB0EE672AB0EE622AE7EEEE
:1018D000822A1FED1E2AE2EE827ADDED132A67EEE0
:1018E000E27AE1E5F0EE002AFFEE007AE9EE227AF4
:1018F000DDED132A67EEA27AD6E570EEA0FA5FED71
:101900002D2A1FED2DFAAFEEA2FA5FED2E2A5FED24
:101910002EFAB5EEC0FA6FEE2FFA6FEE222AF1EE34
:1019200010FA48BFB1EE4FFAEFEECF2AF5EEC02A1B
:10193000B1EE62FAF1EE10FA54BFF0EE62FAF0EE98
:101940004FFAA2EEAFFA5FED3BFAEFEE2F2A9DEDD4
:1019500016FA62EECF2A05E6B0EE00FAFFEE002A94
:10196000E0EE8F2A9DED16FA62EE8F2AFAE5BFEEC1
:10197000006A4FE6BFEE006AFFF7FCBAFFEE004ACE
:10198000FFF718BBB1EE477AFFF782BBBFEE002A24
:10199000FFF73EBAFFEE005AFFF71ABAFFEE003A21
:1019A000FFF77CBABFEE006AFFF758BABFEE004AF5
:1019B000FFF7BABABFEE006AFFF796BAB0EE082A90
:1019C000A0EE622ADDED152A22EE222AABE5F0EE2A
:1019D000082AE0EECF2A9DED16FA62EE8F2AC1E5C5
:1019E000F0EE081AE8EEE21ADDED142A61EEA21A12
:1019F0007BE5F0EE087AE9EE627ADDED132A67EE18
:101A0000A27A51E59DED152A8DE5DDED141A6CE500
:101A100019B0BDEC108BBDE8F08F1FED6F0AFFF71A
:101A2000C8B85FED717ACDED067AFFF779B81FED92
:101A3000740AFFF7F8B81FED760AFFF7D7B800BFB2
:101A40002DE9F041002482B01C4E0123DFF878809C
:101A500022461B4D3046D8F800101A4F009403F070
:101A60006DFD052005F0AEF82246396801232846B1
:101A7000009403F063FD052005F0A4F8234601223D
:101A8000D8F800103046009403F058FD2146304647
:101A900003F046FE052005F095F82346012239683B
:101AA0002846009403F04AFD2846214603F038FEFC
:101AB000052002B0BDE8F04105F084B850070024CD
:101AC0003C070024347201083872010870B5002404
:101AD00082B0144D0122144E2346284600943168EA
:101AE00003F02CFD2146284603F01AFE052005F0E0
:101AF00069F80E4A01230E4811682246009403F04B
:101B00001DFD052005F05EF82846012322463168B8
:101B1000009403F013FD052002B0BDE8704005F00D
:101B200051B800BF50070024387201083472010810
:101B30003C0700242DE9F041072582B0DFF8E4805E
:101B40000746354E25E06246D8F80010CDF800C0B3
:101B500003F0F4FC0024052005F034F801232246AC
:101B600031682E48013D009403F0E8FC052005F0A3
:101B700029F82346012229483168009403F0DEFC4D
:101B80002146264803F0CCFD052005F01BF86B1C10
:101B900014D0012247FA05F14FF0000C204811EA59
:101BA00002041346CFD1D8F800102346009403F066
:101BB000C5FC21461A4803F0B3FDCBE72246D8F80E
:101BC000001001231648009403F0B8FC052004F02F
:101BD000F9FF2246316801231048009403F0AEFC5F
:101BE000052004F0EFFF0E4803F08EFD234601228E
:101BF000316805460094094803F0A0FC21460748D7
:101C000003F08EFD052004F0DDFF85F00100C0B279
:101C100002B0BDE8F08100BF347201083C07002427
:101C200050070024387201082DE9F043002283B0E8
:101C3000DFF8F480074601233848D8F800109146B1
:101C400000920725364E03F079FC0024052004F0AD
:101C5000B9FF0123224631683248009403F06EFC3C
:101C6000052004F0AFFF2D4803F04EFD012186460C
:101C7000234601FA05FC0A462A48013D3168BEF1B7
:101C8000000F03D04CEA090C5FFA8CF9009403F0C2
:101C900055FC2146234803F043FD6B1CD5D1002F92
:101CA00033D0D8F8001023461C480122009403F0DA
:101CB00045FC2146194803F033FD0024052004F0BB
:101CC00081FF3168224601231648009403F036FC58
:101CD000052004F077FF2346012231681148009463
:101CE00003F02CFC21460F4803F01AFD052004F0F8
:101CF00069FF01232246D8F800100848009403F039
:101D00001DFC484603B0BDE8F08301233A46D8F8ED
:101D100000100248009703F011FCCEE750070024A2
:101D2000347201083C0700243872010838B50446B3
:101D30000D46FFF785FEB420FFF7FCFE60B120469C
:101D4000FFF7F8FE40B12846FFF7F4FE044618B14D
:101D5000FFF7BCFE204638BD0024FFF7B7FE204643
:101D600038BD00BF2DE9F04104460E461546FFF789
:101D700067FEB420FFF7DEFE08B32046FFF7DAFE69
:101D8000E8B1FFF75DFEB520FFF7D4FE0746B0B11E
:101D900085B1013D741E56FA85F8C6F10106301969
:101DA0008542D4BF00200120FFF73EFF04F8010F59
:101DB0004445F4D1FFF78AFE3846BDE8F08100279C
:101DC000FFF784FE3846BDE8F08100BF10B56321FF
:101DD00082B080204124FFF7A9FF0A2004F0F0FE22
:101DE00000215E20FFF7A2FF01212B20FFF79EFFBD
:101DF00001212C20FFF79AFF10212D20FFF796FFDD
:101E000020212E20FFF792FF01212F20FFF78EFFC8
:101E100001213020FFF78AFF10213120FFF786FFD4
:101E200020213220FFF782FF00213320FFF77EFFC1
:101E300000213420FFF77AFF00213520FFF776FFDD
:101E400004212046FFF772FF601C02340221C0B259
:101E5000E4B2FFF76BFF592CF2D111215B20FFF7A1
:101E600065FFF0215C20FFF761FF4C215D20FFF74B
:101E70005DFF8C215E20FFF759FF642004F0A0FE77
:101E8000002301220DF107015E208DF80730FFF7D6
:101E900069FF9DF80700A0F18C00B0FA80F04009BE
:101EA00002B010BD10B586B0044618220420694661
:101EB000FFF758FFA01E6A4606AC537812F8021BC3
:101EC0001B02944203F4407343EA010320F8023FEB
:101ED000F3D106B010BD00BF2DE9F04192B020252E
:101EE000002407460DF1180830220021404613F067
:101EF00067FC68464646FFF7D5FF6A46414600E064
:101F00000C6832F8023B2344424541F8043BF7D1C8
:101F1000052004F055FE013D01D0069CE9E7BA1EFC
:101F2000163756F8043B5B0922F8023FBA42F8D153
:101F300012B0BDE8F08100BFA0F10A021C4B002ADC
:101F400053F8211030DD814230DD42F210700A3941
:101F500000FB02F292FBF1F38342A8BF0346002B81
:101F60001A46B8BF5A1C5210511C93FBF1F252187A
:101F700048BF0132511093FBF1F2521848BF0132B1
:101F8000521093FBF2F18A1848BF0132521093FBB2
:101F9000F2F313445A1C07DB002BB8BF013358106F
:101FA0006428A8BF642070470020704764207047F1
:101FB000F46E01080022A0F1040C2DE9F04F134645
:101FC0008DB006460D46964614460A750A705CF8B2
:101FD000042F724501DD1C46964601330C2BF6D1C9
:101FE000BEF1090F03DC00200DB0BDE8F08F04F155
:101FF0000208A71EB8F10B0F27EAE777A8BF4FF03A
:102000000B08B845C0F2AD806FF0404C4FF00009AE
:1020100008F1010EBA46BC443A464846494606EB2A
:102020008C0C5CF8043F23EAE373994502FB030040
:10203000194401DA9246994601327245F1D10029DC
:1020400000F098804FF47A7B0BFB00F001EB810BE2
:1020500001EB4B0BB0FBFBFBBBF57A7FA8BF4FF44A
:102060007A7B51464846FFF767FF0123EC46C5F8E7
:1020700004B02B700023C5F81090C5E9020A684629
:1020800004E001334CF8042B0C2B0FD09F4206DCEC
:102090009845ACBF002101210A460029F1D056F82D
:1020A000232001330C2B4CF8042BEFD100231946CD
:1020B0001E4650F8042B8A4201DD1E4611460133AC
:1020C0000C2BF6D1331B48BFA31B092945DD032B7D
:1020D000CCBF00240124002C3FD1A6F10208023617
:1020E0000B2E28EAE878A8BF0B2646453FDB721C7A
:1020F0006FF0404640462746464421460DEB860693
:1021000056F8043F23EAE3739C4203FB007719442B
:1021100001DA80461C4601308242F1D139B34FF4D6
:102120007A7601EB810307FB06F601EB4301B6FB70
:10213000F1F6B6F57A7FA8BF4FF47A76414620468D
:10214000FFF7FAFE03460220AE616C62C5E907386C
:1021500001232B750DB0BDE8F08F01200DB0BDE857
:10216000F08FBA464FF000094FF0FF3B79E74FF090
:10217000FF36E3E74FF0FF3B73E700BF2DE9F04781
:10218000374C82B00022234604F128088DF8042041
:102190008DF805201A789AB914334345FAD10029ED
:1021A0000BDD01EB810301AA00EB830312F8011B95
:1021B000002939D014309842F8D102B0BDE8F08738
:1021C000002949DD01AD844600224FF0FF3E4FF06B
:1021D000C90A15F8016B5EB9DCF804605F68B6EBFC
:1021E000070948BFA7EB0609CA4501DD9646CA465E
:1021F00001320CF1140C9142EBD1BEF1FF3F2BD018
:102200000EEB8E020EF1080500EB82020DEB050EBF
:1022100001250EF8045C55685D6095689D60D56881
:102220001269DD601A61B7E7217819B1217D0029B3
:10223000C0D1012101EB81010769466804EB8105EA
:10224000D0E902ECC5E9016EC5E903C7012504F830
:10225000215002F8015CADE700221A709CE700BF34
:102260007C0600242DE9F04F0021894800242DED43
:102270000A8BD7B001F0E6F90421854801F00AF98C
:1022800041F2883004F09CFC82490123224609680F
:102290008148009403F052F98049012322460968DD
:1022A0007F48009403F04AF9FFF790FD19AB00282E
:1022B00041F03B80099300240125022614A97948A6
:1022C00015961894CDE9164503F082F8314622465A
:1022D000744803F0FBF8744B2A4674481968234687
:1022E000009403F02BF92146704803F019FA0323F8
:1022F0008DF8384032468DF839300FA80E9902F02B
:1023000063FC2A4604230FA96948254602F070FCA5
:10231000674802F07BFE04F051FC064607E002F03D
:102320008BFE03460A2001341D4404F049FC04F0EE
:1023300045FC034600215E489B1BB3F5FA6FEED3C4
:10234000002C00F0FD8742F23412B7EE007AB5FBA4
:10235000F4F4A3B2934238BF13460B93A3F5FA5398
:1023600007EE903AF8EEE77AC7EE27AA514B00261F
:1023700051491B685148C3EBC303514F01EB031490
:1023800050491D01504B94ED018A78EE087AC0ED5A
:10239000007A4E4803603E483E6001F073F84C4BB3
:1023A000C8203B6004F00CFC32203E6004F008FCC6
:1023B000002002F02FFB474802F01EFB464802F0C7
:1023C0001BFBD4ED027ABDEEC88A3B49FDEEE77AED
:1023D000384A4B598DED008ACDED017A11680722FC
:1023E0003E48013102F008FB3D4802F005FB94F83D
:1023F0003D30002B00F094873A4802F0FDFA3A484D
:102400000DF17C0902F0F8FA384802F0F5FA9FED78
:102410003B9A37480DF1AC0A02F0EEFAB0EE49AA49
:1024200004F0CCFB0023F0EE499ADFF8CC801C4688
:102430000DF1C10B06900C9304F0C0FB0A940890B8
:10244000059400211A4802F0F7FDB0F5FA5F00F29A
:10245000B7820023274A136004F0B0FB0A9B069062
:10246000002B40F0688641F288331A46069B9A1882
:102470000A9308930C920F4B3DAF484601261B6808
:102480000493FFF70FFD48463946099A40E000BF24
:10249000E80600243872010850070024347201084D
:1024A0003C070024080700243C7201082807002488
:1024B0000007002458060024246F01082800002487
:1024C000CC060024E90A00080000C84220000024CD
:1024D000CDCCCC3E546C0108686C01087C6C0108C2
:1024E000986C0108BC6C01080C6D0108406D010876
:1024F000606D01081C0000247C0600240000000020
:102500009E420B6001F10401B8BF1E4691450ED0FA
:1025100032F8023B002530F8024B1B1BF0D52B464E
:102520000D6004319E42B8BF1E469145F0D133A9DB
:102530003DA8FFF73FFD051E40F38E8204F03EFBF1
:10254000069004F03BFB0890294633A8FFF716FEDF
:1025500098F800300793002B40F08C83059B002BEC
:1025600000F0B7861FED1B6A0023734AF0EE467A2F
:10257000DFED725AF0EE466A1370B0EE467A704B99
:1025800083ED006A9FED6F6AE9EE257AA9EE867AFF
:10259000EAEE066AB0EE679AF0EE479AB0EE66AAE7
:1025A0009FED698A0021694869EE887AFCEEE77A36
:1025B00017EE903A9AB202F089FF6AEE087A01218A
:1025C0006248FCEEE77A17EE903A9AB202F07EFF8C
:1025D0005F4B83ED009A98F81430002B00F0CC800C
:1025E000D8ED067ADFED5B6AF8EEE77A87EEA67A39
:1025F000B5EEC07AF1EE10FA00F1FB84F7EE007A46
:10260000B4EEE77AF1EE10FA00F31A86F6EE007AED
:10261000B0EE086A37EE677A27EE066AD8ED077AD9
:10262000DFED4D6AB8EEE77AC7EE267AF5EEC07AAE
:10263000F1EE10FA00F1B984F7EE006AF4EEE67AF2
:10264000F1EE10FA40F38F84F0EE667AB0EE677A1E
:10265000FAEE0E5AB1EE084AB2EE045AF0EE653ABE
:1026600067EE076AF0EE454AE7EE043A66EE876ADF
:10267000E3EE874A66EEA46AF5EEC06AF1EE10FA60
:1026800040F13185DFED356A9FED355A77EEE66A28
:102690009FED347AC6EE855A049A9FED325AC2EB0A
:1026A000C2033149D400F4EEC57A01EB0313D3ED34
:1026B000186AF1EE10FA27EE267A00F11085F7EE8F
:1026C000006AF4EEE67AF1EE10FA0BDCF0EE004A66
:1026D000B0EE085A67EEA76AA7EEE45A66EE857A6E
:1026E00026EE276AF5EEC05AF1EE10FA00F1858465
:1026F000F7EE007AF4EEE75AF1EE10FA09DCB0EEEC
:10270000005AF0EE086A65EEA57AE5EEC56A67EE56
:10271000A67A164A049B82ED006A154AE31A82EDF6
:10272000007A114A02EB031393ED177A114B67EE0F
:10273000877AC3ED007A26E0D4060024CDCCCC3DC8
:10274000CC0600246666E63E00F07F4508070024BC
:10275000D806002400007A440000C8429A99593FE4
:102760009A99193E00000000246F0108E006002439
:10277000D0060024DC0600240023A34A1360A34AE9
:102780001360A34A1360A348002502F035F9A2485C
:102790007310049302F030F957F8042B002A40F329
:1027A000018102EB8200049B03EB8000B0FBF6F09A
:1027B0001428A8BF14205B236FEA0A048DF8AC30FC
:1027C0000DF1AD03E1188142ACBF2021232103F8B4
:1027D000011B9B45F6D15D238DF8C13000238DF898
:1027E000C23098F80030002B00F0DA80D8F80C30B6
:1027F000AB420CBF3123202398F8141021B1D8F834
:102800002010A94208BF32232946013500935346C0
:10281000824802F0F1F80C2DBED17C252D21282212
:102820000DF225108DF8245112F0CAFF002198F8FE
:1028300000308DF84D518DF84E11BBB1D8F80430F1
:1028400027224FF4FA70C3FB02014FF47A7200237F
:10285000FDF752FF272800F3F28120EAE0730133ED
:1028600003F5AC7331226B4403F8342C98F8143020
:10287000C3B1D8F8183027224FF4FA700021C3FBF7
:1028800002014FF47A720023FDF736FF272800F388
:10289000D88120EAE073013303F5AC7332226B4434
:1028A00003F8342C5E4D012649A95E4802F0A4F8D5
:1028B0002B78002B78D0AB68002B7FDD19015A4AAA
:1028C0003231A2FB012149091029A8BF10215B2246
:1028D0000AF111078DF8AC200DF1AD0210198842F4
:1028E000ACBF2020232002F8010B9742F6D15D22D5
:1028F000CDF800A031464D488DF8BD20002214359A
:102900008DF8BE2055F8102C02F076F8022E53D127
:10291000474BB2EE047A9FED475AD3ED006A464B1F
:10292000FDEEE66A93ED006A374B16EE901AD3ED92
:10293000005A364B65EE875AD3ED007A3F4BFDEED9
:10294000E56A93ED007A67EE857A16EE900A27EE37
:10295000057AFDEEC66A0028FDEEE77ABDEEC77A7D
:1029600016EE902A3EDB364BC51783FB0043C5EBC2
:10297000A3052B2305EB8504A0EB440407988DEDFC
:10298000037ACDED027A05902E48CDE9005402F08D
:1029900033F82D4802F030F83C2004F011F950E5EE
:1029A000202329E7002006E73146284802F024F8D2
:1029B000022E05F11405ABD0022679E7002186E747
:1029C0000B9B834240F21D83A0F5FA5007EE900A5C
:1029D000F8EEE77A67EEAA7A1D4BC3ED007A002382
:1029E0000A9348E543421B4CA4FB0354E40804EB60
:1029F0008404A3EB4404124B83FB0053C017A0EBE9
:102A0000A3052D23BAE700BFE0060024D00600246A
:102A1000DC060024A46D0108B86D0108DC6D010816
:102A20007C060024F06D01081F85EB51FC6D010848
:102A3000280000240000C84220000024E4060024EE
:102A4000676666664C6E0108886E01081C6E010898
:102A50001C000024CDCCCCCC04F0B0F8069BC01AEE
:102A6000B0F5FA6F80F0C08304F0A8F8089BC01A94
:102A700041F2873398427FF667AD00230CEE105A7F
:102A80001C4604F09BF808960D9726460746099DBC
:102A9000CDE9064404F092F86B4BC41BDFED6B6A82
:102AA0009FED6B7AF7EE008AA3FB042342F6E06207
:102AB0001B0A02FB134307EE903AF8EEE77A87EE23
:102AC000A60A20EE070A12F0CBFAF6EE007A38EEEC
:102AD000C00AB6EE006AB7EE007A60EE277AF0EE32
:102AE000006A37EEA78A77EEC67A78EEC88AF0EEEB
:102AF000E77A38EE478AB7EE007AF5EEC08AA7EE9D
:102B0000E67AF1EE10FAB5EEC08A48BFDFED518AE1
:102B1000F1EE10FAB5EEC07A48BF9FED4E8AF1EEA5
:102B200010FA66D4B5EE407AF1EE10FA00F10F8497
:102B3000B1EEC70AB5EE400AF1EE10FA00F10D84CD
:102B4000B1EEC0BAF5EE408AF1EE10FA00F10B8456
:102B5000B1EEE80AB5EE400AF1EE10FA00F1098490
:102B6000F1EEC08AB5EE408AF1EE10FA00F107846A
:102B7000B1EEC80AB5EE400AF1EE10FA00F1058494
:102B8000B1EEC07ADFED34BA00219FED348A3448CB
:102B90006BEE2B7A27EE088AFCEEE77A17EE903A76
:102BA0009AB202F093FC68EEAB7A01212C48FCEE5D
:102BB000E77A17EE903A9AB202F088FC294B83ED3F
:102BC000008ACEB125A8FFF76DF925A82A46002175
:102BD00032F8023B30F8024B1B1B9942B8BF194632
:102BE0009145F5D1092900F30E830A2003F0E8FF8F
:102BF00050E79FED187A9BE7069B31461A48013350
:102C0000069302F019FA079AB4F5FA6F0244079294
:102C1000D8D3069BB7EE007A0126B2FBF3F342F25B
:102C200034129BB2934238BF13460B93A3F5FA5369
:102C300007EE903AF8EEE77AC7EE27AAC2E7282314
:102C40000EE6282328E600BFF119760500803B46F2
:102C5000DB0FC9400000000000F07F45CDCCCC3D2B
:102C600008070024D80600240007002400007A4446
:102C70000000C84203F0A2FF059B002B00F0038375
:102C8000D8ED017A1FED077AF8EEE77AC7EE87BA3A
:102C9000F5EEC0BAF1EE10FA00F1B981B7EE007AA4
:102CA000F4EEC7BAF1EE10FA37FE2B7AD8ED027ABD
:102CB0005FED116AF8EEE77A87EEA6CAB5EEC0CAF4
:102CC000F1EE10FA00F1A081F7EE008AB4EEE8CA46
:102CD000F1EE10FA78FE8C8A049AF6EE006ACD497D
:102CE000F7EE007AC2EBC2039FEDCB6AD40001EB92
:102CF0000313D3ED035A93ED018A27EE257A93ED62
:102D000002BAE7EE066AB0EE676AA6EE876AE6EEFA
:102D1000077A68EE277AB4EEE78AF1EE10FA00F34C
:102D20005681F4EE4B7AF1EE10FA7BFE277AB4EE80
:102D3000E78AF1EE10FA40F34C81F5EEC08AB0EE6E
:102D400048BAF1EE10FA00F15181B7EE007AF4EED4
:102D5000C78AF1EE10FA0FDCB1EE086AFAEE0E6ADD
:102D6000F2EE047A28EEA87AE8EE866A27EE287A50
:102D7000E8EEA67A27EE277A049BF6EE006AA54ACB
:102D8000F7EE007AE31ADFEDA54A9FEDA55A02EBB4
:102D900003139FEDA16ADFEDA35A93ED114AD3ED22
:102DA000150A27EE047AF4EEE50A27EE247AF1EE0E
:102DB00010FAA7EE056AE6EE076AB0EE676AA6EEBD
:102DC000876AE6EE077AF0EE67CAC0F20682F0EE96
:102DD0004B7A049BB3EE047A8E4AE31A02EB031398
:102DE000D3ED106A67EEA67A67EEAC7AF4EEC77A96
:102DF000F1EE10FA00F1E8809FED8B7AF4EE477A5D
:102E0000F1EE10FA77FE277A9FED887A9FED886AB7
:102E100038EEC77AC7EE066AF5EEC06AF1EE10FA30
:102E200000F1C780B7EE007AF4EEC76AF1EE10FA4F
:102E300000F30A82B0EE005ADFED7E5AB0EE087A57
:102E400026EEA66AA6EEC57A26EE076A26EE256A63
:102E5000F5EEC08AF1EE10FA00F1B380F7EE006AE9
:102E6000F4EEE68AF1EE10FA09DCF0EE005AB0EE6C
:102E7000087A68EEA86AA8EEE57A66EE876A6E4A76
:102E8000B7EE007A049BF5EEC0BA82ED00BA6B4A49
:102E9000E31AF1EE10FAC2ED007AF0EE477A5D4ADD
:102EA00002EB0313664AD3ED135A664BE5EEA67A9E
:102EB00083ED006A644BC3ED007A4FF00103137099
:102EC000624B634A136040F1D180B5EEC0CAF1EEA7
:102ED00010FA40F1BC81F0EE478A9FED5FBAF6EE42
:102EE00008CADFED5D6AB1EEE60AB5EE400AF1EE22
:102EF00010FA00F17A82F1EEC07AF5EE408A27EE00
:102F0000AC8AF1EE10FA00F16B82B1EEE80AB5EE90
:102F1000400AF1EE10FA00F15E82F1EEC07AB5EEF1
:102F200040BA6CEEA78AF1EE10FA00F14F82B1EED2
:102F3000CB0AB5EE400AF1EE10FA00F14282F1EE52
:102F4000C07A9FED447A059B6CEEA77A67EE877A8C
:102F5000002B40F0E480B0EE679AB0EE68AAF0EE85
:102F6000489AFFF71DBBF1EE085A9FED3C4AFAEE76
:102F70000E4ADFED3B3AB2EE045A27EEA77AE7EEAF
:102F8000A54A37EEC44A27EE277AC4EE235AA7EEA5
:102F9000A45A27EE057AB5EEC07AF1EE10FA40F1A8
:102FA000B4809FED2D7AFFF777BBDFED2B7AFFF72B
:102FB0004DBBF5EEC08A9FED286AF1EE10FA7FF561
:102FC0004DAFDFED256A5AE7F0EE477A1CE7F0EEE9
:102FD000487AB4EEE7BAF1EE10FAF5EEC08A58BFBF
:102FE000B0EE67BAF1EE10FA7FF5AFAE9FED1A7A48
:102FF000C2E6BFEE086AFFF711BBDFED177AFFF7F5
:1030000088BBF7EE007AE7E4DFED138A64E69FED14
:10301000127A4BE6246F010868B32A3E006F313FF5
:103020009FCD2A3D77BE7F3F00A08C469A99193FDD
:10303000CDCCCC3ECDCC4C3F280000242000002439
:10304000D4060024E406002424000024EC51383F78
:10305000CC060024CDCCCC3D000000009A99593F0D
:103060009A99193ECDCC0C3F6666E63EF4EEC7BA9F
:10307000F1EE10FAB5EEC0CA00F3FD80F1EE10FAE1
:1030800040F10481F6EE007AB0EE006ABFEE00BABD
:10309000F6EE08CA7BEEE77AF0EE478AABEE86BA28
:1030A000F0EEE77AEBEEC68AA7EEC67AF0EE476A54
:1030B000F5EEC08AF1EE10FAB5EEC0BA48BF5FED8A
:1030C0001A8AF1EE10FAF5EEC06A48BF1FED1EBA7B
:1030D000F1EE10FA40F119815FED216A03E726EE67
:1030E000056AFFF7FFBAB7EE007AF4EEC76AF1EEB1
:1030F00010FA40F350815FED276A1FED275A77EEF3
:10310000E66AC6EE855AFFF7C7BAB4EEE67AF1EE84
:1031100010FA7FF79DAAB0EE667AFFF7BDBA1FEDF1
:103120002F6A5FED2F5A28EE067A68EE866A67EE00
:10313000867AFFF727BA069B0C9A9B1A002BC0F2DF
:10314000E080AC48AC4B02680446013283FB0213BA
:103150009918D317C3EBA103C3EBC303D31AA74A30
:103160000360016803680131A548C3EBC3031B0179
:10317000D358072201F040FC2468002C24DB0025F2
:1031800040F6FF7200219F48013502F09FF940F69A
:10319000FF7201219B4802F099F99B4E9B4B6E20D8
:1031A000336003F00DFD00229648114602F08EF9BF
:1031B00000220121934802F089F900238C2033601A
:1031C00003F0FEFCAC42DBDA03F0F8FC00F5FA6336
:1031D0000C93069B0893FFF74EB98BEE080A12F08A
:1031E000DFF868EE007AF4E50023099888F81430D7
:1031F00088F80030FEF770FE854801F0FDFB03F013
:10320000DDFC069030E400227E48089E1CEE105A39
:1032100011460D9F02F05AF901210022794802F06F
:1032200055F90023784A136003F0C8FC089003F0B6
:10323000C5FC0B990690774801F0DEFBFFF784B9D7
:10324000B7EE086AFFF7EAB99FED736A00E6B4EEDD
:10325000C7CAF1EE10FA27DCBFEE00BADFED6F6AE5
:10326000F0EE478AB5EE007AF6EE087AECEE077AD1
:10327000F0EE67CA1CE7F1EE10FA1ED5B0EE47BAC1
:10328000DFED668A2BE603F099FCF9E4B4EEC7CAD9
:10329000F6EE007AB0EE006AF1EE10FABFEE00BA78
:1032A00020DDF0EE47CAF5E6F0EE478A9FED5BBA07
:1032B000F7EE00CADFED596A15E6B4EEC7CAF1EEC3
:1032C00010FA0ADCFFEE008ADFED546AB0EE47BA6E
:1032D000C8E703F073FCFFF745B9B0EE47BADFED7E
:1032E0004F8AE5E77BEEE77AF0EE478AABEE86BAE7
:1032F000F0EEE77AEBEEC68AA7EEC67AF0EE476A02
:10330000B0E7069B0893FFF7B6B8F5EE406AF1EE1A
:1033100010FA7FF5E8ADB0EE660A12F0D5F9E4E5F3
:103320003F4801F069FBFFF76AB81C464FF49670FE
:10333000099303F045FC2046FEF7CEFDFEF7BBBF28
:103340004DF2D863DFED37AA0B93FFF70FB8B0EE5D
:10335000470A12F0B9F9FFF7EDBB12F0B5F9B0EE7C
:1033600040BAFFF7EFBBB0EE680A12F0ADF9FFF715
:10337000F1BB12F0A9F9F0EE408AFFF7F3BBB0EE13
:10338000480A12F0A1F9FFF7F5BB12F09DF9B0EE73
:10339000407AFFF7F7BBE6EE845ADFED233A26EEDC
:1033A000A67A9FED223A37EEE34A27EE267AF0EE30
:1033B000654AC4EE035AA6EEA45A27EE057AFFF733
:1033C0006BB912F081F9F0EE407ABAE5B0EE4B0A33
:1033D00012F07AF9ADE512F077F9F0EE407A9EE559
:1033E000B0EE680A12F070F991E512F06DF9F0EEA6
:1033F000407A82E55806002493244992246F0108FC
:10340000686D010808070024D8060024CDCCCC3D07
:103410007C6D01088C6D0108CDCC4C3F0000000094
:10342000E46C0108247BB2379A99593F9A99193E66
:1034300010B50E4800240E4A0E490460446104622F
:10344000C46311F005FE0C494FF60B700B4A0C4B90
:103450000860CC60C1E90144C2E90004C2E9024449
:10346000C3E90004C3E9024410BD00BFE80600241C
:1034700000000024E50A0008500700243C0700244F
:1034800028070024143001F009BA00BF143001F0FD
:1034900001BA00BF38B500F1140504462DED028BCA
:1034A000284601F0E9F9284601F0F4F92846B0EE83
:1034B000408A01F0DDF9D0ED007AF8EE677A88EE07
:1034C000277ABDEC028B84ED0E7A38BD10B540F240
:1034D00003338EB000244FF60B7240F20341ADF877
:1034E000083009A80123ADF81020ADF824202246A9
:1034F000ADF80C100094029907940C94CDE90544A2
:10350000CDE90A4402F01AF804A8012322460399DF
:10351000009402F013F809A802F0F6F810B901209F
:103520000EB010BD04A802F0EFF8A0420CBF0220BC
:1035300020460EB010BD00BF2DE9F04103239AB024
:10354000012700240646CDE914373B4BCDE9104353
:1035500040F20453CDE91647ADF84830FFF7B6FF07
:10356000B842054625D0022845D040F60132334BFB
:103570000DF12C081894ADF82C200B981997CDF864
:103580004A3000F0E3F810A906F13C0003F0F8F827
:10359000302003224FF07E5341460D930E93CDE928
:1035A0000B02F26B06F1140001F02AF91AB0BDE823
:1035B000F0811023214A06A906908DF828300DF1DC
:1035C0002C081F4BCDF84A2007930294CDE918042C
:1035D000CDE9080402A802F009FB0823029A03A916
:1035E0004046ADF80C508DF80E40049505930B94B1
:1035F00000F0ECF8C7E700200121104B0DF12C087A
:103600003A460094CDF84A304FF60B730C94ADF85F
:103610002C302346CDE9180140F601314046ADF883
:1036200018100699CDE90D4401F088FF2146404667
:1036300002F076F8A7E700BF0402040404060403BE
:103640000704010B2DE9F04704462DED028B82B0F3
:1036500000294DD0012140F2011200230091ADF864
:1036600004208DF80630364A0127364B04F1040950
:10367000354904F12908626040F20272A36040F605
:103680000663E16004F1250AA4F82520A4F8293096
:10369000278284F8277084F82B7003F035FC0546E8
:1036A00003F096FA6946064650BB4DB304F130006C
:1036B0008DF8067003F0AEFB072D3CD104F1140524
:1036C0002046FFF739FF284601F0E4F82846B0EE1F
:1036D000408A01F0CDF8D0ED007AF8EE677A88EEF6
:1036E000277A84ED0E7A02B0BDEC028BBDE8F0873C
:1036F00040F2011300918DF80610ADF80430B2E7E6
:1037000004F1300003F086FB072D11D04946204616
:1037100002F0B6FC0EB9002DD0D1504602F00AF8E6
:10372000404602F007F804F1120000F079F9C5E70D
:10373000002EF2D1C2E74946204602F0A1FCBDE7C7
:103740000508050905070506050A060610B584B033
:1037500003460124ADF8040003A8ADF80C30ADF821
:103760000E4001F0E7FF214603A802F0BFF8204613
:1037700003F026FA002103A802F0B8F8204603F06F
:103780001FFA214603A802F0B1F804B010BD00BF33
:1037900010B5C2F3002384B00C46017C8DF80D20D7
:1037A00043EA4402FA2402238DF80C2003AA009471
:1037B00002F0B2FA18B10124204604B010BD04464C
:1037C0000A2003F0FDF9204604B010BD034670B591
:1037D00043F8042B044684B007C983E80700A379A3
:1037E00083B91A210B461E22FA2523742046ADF810
:1037F0000C20022303AA009502F08EFA28B10120C2
:1038000004B070BD1B210B46EDE70A2003F0D8F988
:103810004FF4B85200950223ADF80C20204603AABD
:10382000217C02F079FA0028E9D10A2003F0C8F9D6
:1038300041F2027200950223ADF80C20204603AA43
:10384000217C02F069FA0028D9D10A2003F0B8F9E6
:10385000042200950223ADF80C20204603AA217C07
:1038600002F05AFA0028CAD10A2003F0A9F9062268
:1038700000950223ADF80C20204603AA217C02F01B
:103880004BFA0028BBD10A2003F09AF941F2082232
:1038900000950223ADF80C20204603AA217C02F0FB
:1038A0003BFA0028ABD10A20064603F089F90095BF
:1038B000022303AA217C2046ADF80C6002F02CFA0A
:1038C00000289CD1304603F07BF9009522790C2327
:1038D0002046002A8DF80C3003AA4FF0020314BFD3
:1038E000622142218DF80D10217C02F015FA00288A
:1038F00085D1304603F064F92279D4E902310B43D3
:10390000DBB20AB943F0400362790AB143F0200305
:103910000E22FA258DF80D302046009502238DF8F1
:103920000C2003AA217C02F0F7F900287FF467AF8E
:103930000A2003F045F9102200950223ADF80C206F
:10394000204603AA217C02F0E7F900287FF457AF54
:103950000A2003F035F9122100950223ADF80C106E
:1039600003AA217C204602F0D7F900287FF447AF54
:103970000A2003F025F9012209212046FFF708FF5C
:10398000003818BF01203BE7F0B5102387B0234C67
:10399000012200250126002702A920460195CDE934
:1039A00002234FF48052CDE904670AF069FE6420D7
:1039B00004F0E8F802A94FF480522046CDE90467EC
:1039C00002261027CDE902670AF05AFE03221023CF
:1039D00002A92046CDE9022300230422CDE90423D5
:1039E0004FF480520AF04CFE40F23223042202A926
:1039F000019310232046CDE90223019A0123059269
:103A00004FF4805204930AF03BFE40F60601204634
:103A10000AF056FE284607B0F0BD00BF6C07002430
:103A20001C4B00221C494FF0400C30B5054689B0B4
:103A30000220596007219A601A620124DA620A2280
:103A40004FF4006EDC6006922022CDE900010420D4
:103A50000821CDE9020103201021CDE9040108204D
:103A60006946C3E904024FF4C072181DC3E906C2D7
:103A70004FF48052C3E909E20AF0D8FD38B928466C
:103A8000FFF782FF003818BF012009B030BD204683
:103A900009B030BD6807002440410052614A00214E
:103AA000D0B513688EB00A91002B40F0B9805E4B00
:103AB00001214FF683700C2411600221D3F8D42029
:103AC0000026032742F48052C3F8D420D3F8D42030
:103AD00002F480520092009AD3F8E02042F01002E3
:103AE000C3F8E020D3F8E02002F010020192019A1E
:103AF000D3F8E02042F04002C3F8E020D3F8E02001
:103B000002F040020292029AD3F8E02042F008024A
:103B1000C3F8E020D3F8E02002F008020392039AF1
:103B2000D3F8E02042F48072C3F8E020D3F8E0201C
:103B300002F480720492049AD3F8E02042F08002EA
:103B4000C3F8E020D3F8E02002F080020592059A45
:103B5000D3F8E02042F02002C3F8E020D3F8E020C0
:103B600002F020020692069AD3F8E02042F0040206
:103B7000C3F8E020D3F8E0300C9403F0040307937B
:103B80000323079A0B93CDE9080108A9274805F0FC
:103B9000ABFF48F23712022308A925480C94CDE95F
:103BA0000823CDE90A6705F09FFF4CF20372022358
:103BB00008A920480C94CDE90823CDE90A6705F04F
:103BC00093FF40F2FF62022308A91B480C94CDE941
:103BD0000823CDE90A6705F087FF4FF60C72022330
:103BE00008A916480C94CDE90823CDE90A6705F029
:103BF0007BFF4FF63F02022308A911480C94CDE940
:103C00000823CDE90A6705F06FFF2022022308A9E7
:103C10000A480C94CDE90A67CDE9082305F064FF52
:103C20000EB0D0BD640700240044025800100258B2
:103C300000180258000C025800200258001C0258BC
:103C4000001402582DE9F04FDFF8108406460D46A7
:103C5000144608F118002DED028B89B000AF02F078
:103C600087FED8F8183073B3D8F81C30D8F8049011
:103C7000002B43690BBF4FF0080A4FF0100A4FF0BA
:103C8000020B4FF0040BB9F1000F2AD0A200EA4654
:103C9000012B02F1070222F00702ADEB020D68468C
:103CA000ADEB020D694600F03F81022B00F0D6809B
:103CB000002B6FD02246C847D5462437BD46BDEC01
:103CC000028BBDE8F08FD8F81C30002BF5D0D8F867
:103CD00004904FF0080A4FF0020B4369B9F1000F4E
:103CE000D4D1FB61D8F80030BB61002BE5D0D548BA
:103CF00002F0B0FE6B46BBF1020F786108EE103A9D
:103D0000FB6900F083816A465146A2EBC4029546E6
:103D10006200EA46B2FBFBF2AAEBC40085460AEB5E
:103D20008200EE46F861ADEB010DF8690EEB820CF6
:103D3000C7F810C0EC46ADEB010D00EB8201CCF8EA
:103D40000400CCF8081001EB82013869E946CCF890
:103D50000C1000EB8201CCF800A001EB8202C9E953
:103D600000E0C9E90212012B00F06483022B00F08D
:103D70006C82002B00F08081620849466046BB6976
:103D8000984718EE103A24379D46BD46BDEC028B8D
:103D9000BDE8F08F002C8DD01A46D8ED0C6A9FED4F
:103DA000B27A8446331D36F922E00CF1080C07EE96
:103DB00090EA33F922E00232F8EEE77A944267EEB5
:103DC000877A67EEA67A4CED027A07EE90EAF8EE73
:103DD000E77A67EE877A67EEA67A4CED017AE2D849
:103DE000F9612246C847984ED8ED0D6A0020F9695E
:103DF0002B1D9FED9E7A9FED9E6ADFED9E5A22E07D
:103E0000F4EEC67AF1EE10FAC0F2C88447F6FE72FC
:103E1000D1ED017A45F8202066EEA77AF4EEC77A54
:103E2000F1EE10FA40F2F080F4EEC67AF1EE10FAFC
:103E3000C0F2D58447F6FE7243F8202002300831E4
:103E400084427FF639AFD1ED007A66EEA77AF4EEC0
:103E5000C77AF1EE10FAD3D83246D9E7002C3FF4F6
:103E600029AFD8ED0C6A84469FED787A0022331D85
:103E70008E4656F822100CF1080C07EE901A53F8F3
:103E800022100232F8EEE77A944267EE877A67EE04
:103E9000A67A4CED027A07EE901AF8EEE77A67EE12
:103EA000877A67EEA67A4CED017AE2D8714622460F
:103EB000C7F81CE0C847664ED8ED0D6A0020F969C6
:103EC0002B1D9FED6A7A9FED6A6ADFF894C120E0AE
:103ED000F4EEC67AF1EE10FAC0F279843246D1EDF2
:103EE000017A45F8202066EEA77AF4EEC77AF1EE63
:103EF00010FA40F28780F4EEC67AF1EE10FAC0F2C2
:103F00005E84324643F820200230083184427FF636
:103F1000D3AED1ED007A66EEA77AF4EEC77AF1EE71
:103F200010FAD5D86246DAE7002C3FF4C3AED8EDDC
:103F30000C6A86469FED477A4FF0000C331D56F809
:103F40002C200EF1080E82F40002A2F5000207EE0A
:103F5000902A53F82C200CF1020CF8EEE77A82F448
:103F600000026445A2F5000267EE877A67EEA67A42
:103F70004EED027A07EE902AF8EEE77A67EE877A3E
:103F800067EEA67A4EED017AD9D8F9612246C84784
:103F9000314ED8ED0D6A0020F9692B1D9FED337A63
:103FA0009FED336ADFF8BCC01FE0F4EEC67AF1EE95
:103FB00010FAC0F2FC833246D1ED017A45F8202098
:103FC00066EEA77AF4EEC77AF1EE10FA18D9F4EE9D
:103FD000C67AF1EE10FAC0F2DA83324643F82020B6
:103FE0000230083184427FF667AED1ED007A66EE8A
:103FF000A77AF4EEC77AF1EE10FAD6D86246DBE77C
:104000006246EBE762467DE7324615E7A100D646F9
:104010006208073121F00701ADEB010DEA46ADEB77
:10402000010D6946ADEB0E0D0AEB8200EC46ADEBDF
:104030000E0D01EB8202F861E946CCE900A0C9E966
:10404000001290E6BC0700240280FFFF0000003051
:104050000082FF7F0000003482FF7F00A007002461
:10406000007E00807E0080FF0000003804FF7FBFDC
:1040700004FF7F3F00FEFF46002C00F0C982BBF129
:10408000020FD8F8242000F0FA827969C7F804906A
:1040900002EB810E5FED0C5A8A00DCF808100EF17D
:1040A00004007A611A46DCF80C303B61331DD7F806
:1040B00010903D61FD69C7E902CB8C46834636F915
:1040C0002210D8ED0C7A06EE101A33F9221006EE03
:1040D000901A3EF92210B8EEC66A07EE101AF8EEF2
:1040E000E66A3BF92210B8EEC77A26EE256A66EE3C
:1040F000A56A27EE257A26EE276A66EEA76A27EEDE
:10410000277A07EE901A51080232F8EEE77A0AEBA6
:104110008100944280ED006A05EB810067EEA57A8C
:10412000C0ED006A0CEB810009EB810180ED007AA3
:1041300098ED0C7A67EE877AC1ED007ABFD8D7F890
:1041400004903D69D7E902CB60466208BB694946E5
:104150009847D8F82C307A69D8ED0D6A1A441FEDCB
:104160003D7A1FED3D6A2B1D904602F1040A5FED7A
:104170003F5A0022A84ED9E900EC51E0F4EEC67A8D
:10418000F1EE10FAC0F2C78247F6FE7045F8220041
:104190000CEB0100D0ED007A66EEA77AF4EEC77A58
:1041A000F1EE10FA4BD9F4EEC67AF1EE10FAC0F245
:1041B000BA8247F6FE70BBF1020F43F822002BD003
:1041C000D9F808000844D0ED007A66EEA77AF4EE3C
:1041D000C77AF1EE10FA36D9F4EEC67AF1EE10FA9B
:1041E000C0F2CD8247F6FE7048F82200D9F80C00E4
:1041F0000144D1ED007A66EEA77AF4EEC77AF1EECB
:1042000010FA1ED9F4EEC67AF1EE10FAC0F2AF82BF
:1042100047F6FE714AF82210023294427FF6B1ADA1
:1042200051080EEB81008900D0ED007A66EEA77A86
:10423000F4EEC77AF1EE10FAA0D83046A6E7304681
:10424000B9E73146E6E73046CEE7002C00F0E081E2
:10425000BBF1020FD8F8243000F0E1817A69DCF874
:10426000081003EB820EC7F804909300DFED6B5A41
:104270000EF1040000227B61DCF80C303B61331D41
:10428000D7F810903D61FD69C7E902CB8C468346A3
:1042900056F82210D8ED0C7A07EE101A53F82210B7
:1042A000B8EEC76A07EE101A5EF82210F8EEC76A79
:1042B00007EE101A26EE256A5BF82210B8EEC77AD0
:1042C00066EEA56A26EE276A27EE257A66EEA76ACD
:1042D00027EE277A07EE901A51080232F8EEE77AB5
:1042E0000AEB8100944280ED006A05EB810067EEE5
:1042F000A57AC0ED006A0CEB810009EB810180ED2D
:10430000007A98ED0C7A67EE877AC1ED007ABFD813
:10431000D7F804903D69D7E902CB60466208BB69D3
:1043200049469847D8F82C307A69D8ED0D6A1A4476
:104330009FED3E7A9FED3E6A131D9246DFF8E4C082
:104340000022FB612B1D364ED9E9008E4EE0F4EEC3
:10435000C67AF1EE10FAC0F2FC81304645F8220030
:104360000EEB0100D0ED007A66EEA77AF4EEC77A84
:10437000F1EE10FA49D9F4EEC67AF1EE10FAC0F275
:10438000EF813046BBF1020F43F822002AD0D9F862
:1043900008000844D0ED007A66EEA77AF4EEC77AFA
:1043A000F1EE10FA35D9F4EEC67AF1EE10FAC0F259
:1043B000C98130464AF82200D9F80C000144D1EDF9
:1043C000007A66EEA77AF4EEC77AF1EE10FA1ED9FB
:1043D000F4EEC67AF1EE10FAC0F2AD813146F8691A
:1043E00040F82210023294427FF6CBAC510808EB21
:1043F00081008900D0ED007A66EEA77AF4EEC77AE4
:10440000F1EE10FAA3D86046A8E76046BAE7614625
:10441000E5E76046CEE700BF0280FFFF0000003006
:104420000082FF7F007E00800000003404FF7FBF19
:1044300004FF7F3F002C00F0EB807A690021D8F860
:104440002430C7F8109003EB820ED7F81C9093002D
:10445000FD610EF104021FED0C6A7B61331D1546F0
:1044600056F821204808D8ED0C6ABBF1020F82F4FF
:104470000002A2F5000207EE902A53F8212082F4F0
:104480000002B8EEE77AA2F5000227EE067A07EE00
:10449000902A0AEB8002F8EEE77A27EE267A67EE9A
:1044A000867A82ED007A09EB80024FEA800067EE9F
:1044B000A67AC2ED007A27D05EF8212082F40002AD
:1044C000A2F5000207EE902A55F8212082F400029E
:1044D000B8EEE77AA2F5000227EE067A07EE902AF8
:1044E000DCF80820F8EEE77A024427EE267A67EE39
:1044F000867A82ED007A98ED0C7ADCF80C2067EE73
:10450000877A0244C2ED007A02318C42A8D8D7F8EB
:10451000109060466208BB694946FD699847D8F823
:104520002C307A69D8ED0D6A1A441FED407A1FEDE0
:10453000406A131D9246DFF8C4C20022FB612B1DA6
:10454000AB4ED9E9008E4EE0F4EEC67AF1EE10FAE9
:10455000C0F2C580304645F822000EEB0100D0EDD8
:10456000007A66EEA77AF4EEC77AF1EE10FA49D92E
:10457000F4EEC67AF1EE10FAC0F2BF803046BBF11D
:10458000020F43F822002AD0D9F808000844D0EDE1
:10459000007A66EEA77AF4EEC77AF1EE10FA35D912
:1045A000F4EEC67AF1EE10FAC0F2AE8030464AF868
:1045B0002200D9F80C000144D1ED007A66EEA77A0A
:1045C000F4EEC77AF1EE10FA1ED9F4EEC67AF1EEE7
:1045D00010FAC0F28B803146F86940F8221002329E
:1045E00094427FF6CEAB510808EB81008900D0EDF4
:1045F000007A66EEA77AF4EEC77AF1EE10FAA3D845
:104600006046A8E76046BAE76146E5E76046CEE760
:10461000224649466046BB699847FFF7B2BBC7F8D8
:1046200010B0002298ED0C6A331DDFED726AD7F8E6
:104630001CB0786956F8221007EE901A53F8221031
:10464000B8EEE77A07EE901A51080232F8EEE77AF0
:1046500027EE267A0AEB810E94420BEB810167EE7E
:10466000A67A27EE067A67EE867A8EED007AC1ED9D
:10467000007ADFD88300D7F810B07B614DE61A4688
:10468000C7F810B098ED0C6A331DDFED5B6AD7F800
:104690001CB0786936F9221007EE101A33F922108F
:1046A00007EE901AB8EEC77A51080232F8EEE77AB0
:1046B00027EE267A0AEB810E94420BEB810167EE1E
:1046C000A67A27EE067A67EE867A8EED007AC1ED3D
:1046D000007ADFD88300D7F810B07B6134E5F0EEC4
:1046E000675AFEEEE45A15EE900A34E7F0EE675A88
:1046F000FEEEE45A15EE901A6EE7F0EE675AFEEE03
:10470000E45A15EE900A3AE7F0EE675AFEEEE45AE4
:1047100015EE900A4BE767EEA57AFDEEE77A17EE05
:10472000900A00B232E567EEA57AFDEEE77A17EE61
:10473000900A00B23FE5F0EE675AFEEEE05A15EE41
:10474000901A4CE6F0EE675AFEEEE05A15EE900A2B
:1047500030E6F0EE675AFEEEE05A15EE900AFDE5FF
:10476000F0EE675AFEEEE05A15EE900A0AE667EEA2
:10477000A57AFDEEE77A17EE901A09B24AE567EEE0
:10478000A57AFDEEE77A17EE900A00B22CE5F0EE7E
:10479000675AFEEEE45A15EE902A1FE467EEA57AFA
:1047A000FDEEE77A17EE902A12B2FFF731BBF0EE7A
:1047B000675AFEEEE45A15EE902AFFF7FDBBF0EEC5
:1047C000675AFEEEE05A15EE902AFFF79BBBF0EE1B
:1047D000675AFEEEE05A15EE902AFFF780BB67EEAF
:1047E000A57AFDEEE77A17EE902A12B2FFF724BB06
:1047F00082FF7F0000000030000000387E0080FF54
:1048000030B5184C154685B0046004F1080EEC462E
:104810000FC98EE80F00D4ED047AF5EEC07A8CE86B
:104820000F00F1EE10FA1ADDB7EE006A94ED057A8A
:1048300027EE277AC6EE276A84ED0D7AC4ED0C6A5E
:104840006DB1204640F8185F02F092F806490369FE
:104850000020064A2162A262E36005B030BD01205B
:1048600005B030BDA007002400200030000000305B
:1048700000680830704700BFB1F5807F03680A46C2
:1048800028BF4FF48072B1F5807F9A6094BF0020FA
:10489000012070470068183002F0CAB830B50468CB
:1048A00083B00D46E3694BB1A3680020E26A616AF8
:1048B0009B00009004F11C0002F05CF8A36807481C
:1048C000A26A9B00216A009004F1180002F052F8DD
:1048D0000020C4E9005003B030BD00BF453C0008D3
:1048E00010B4074B4FF07E51302400220320196191
:1048F0009C60D8605DF8044B5961C3E9062270479B
:10490000A0070024704700BFF8B5134F3C687F2C08
:1049100007D98023114A42F224411C463B60A2F889
:104920007E100F4D2B68012B0AD90C4E0D4D2246DF
:104930003146284600F02CF90028F8D13860F8BD3F
:1049400022460649074800F023F90028F7D12B68D2
:10495000386001332B60F8BDDC070024E007002439
:10496000D80700246008002430B4154C2168F1B148
:104970004B1E144DE81810F801298C4619460A2AD6
:1049800001D00D2A02D14BB1013BF4E70CF1020337
:104990007F2B10D98023236030BC70470122022373
:1049A00023600D200A236854AB5430BC70470122A9
:1049B0000223044DF4E70CF101026146F0E700BF69
:1049C000DC070024E007002410B5094C02460B4622
:1049D000084821680844C1F1800111F059F82368A2
:1049E00018442060FFF7C0FFFFF78EFF10BD00BF27
:1049F000DC070024E00700240FB400B583B004A94D
:104A000051F8040B0191FFF7DFFF03B05DF804EBF1
:104A100004B0704710B5044600210A4800F032F88F
:104A2000002C094B14BF0222002208481A60FFF72D
:104A3000E3FF0748FFF7E0FF0A20BDE8104002F05F
:104A4000BFB800BF60080024D807002440720108E6
:104A500050720108064A0749074808B510F0F8FAED
:104A6000034A04490548BDE8084010F0F1BA00BF08
:104A700000000024054900086008002464080024A0
:104A8000704700BF012910B506D0022915D051B1D9
:104A9000BDE8104006F00ABF0A46344834490BF01E
:104AA00025FBE8B1FEE7334B0A46334C3349344823
:104AB0001C600BF01BFB68B1FEE701222C492B4860
:104AC0000BF014FB00B1FEE72E4928480BF030FB39
:104AD000C0B1FEE72B492A480BF02AFB60B1FEE784
:104AE000284922480BF024FB00B1FEE726491F4865
:104AF0000BF0ACFA08B3FEE7244921480BF0A6FA04
:104B0000A8B1FEE7204919480BF0A0FA00B1FEE772
:104B100016480BF023FB024640B9164B164C1749BA
:104B200017481C600BF0E2FA68B1FEE7FEE7144894
:104B30000BF014FB0028ABD0FEE70C480BF00EFB8B
:104B40000028A5D0FEE70F490D480BF0F1FA00B19F
:104B5000FEE70E490A480BF079FA00B1FEE7084873
:104B60000BF0FCFA002893D0FEE700BF040B0024F2
:104B7000C8000024A00D0024814A0008AC000024D5
:104B800068080024300100248C0000247C000024EC
:104B9000084691B208B502F0F1FA003818BF0120BA
:104BA00008BD00BF014806F05FB900BF003A00240D
:104BB000014806F059B900BF003A0024014806F048
:104BC00053B900BF003A002400B583B04FF0000E87
:104BD0004FF0030C4274ADF80410BDF8043080F8B7
:104BE00010E0A0F802C0038003B05DF804FB00BF32
:104BF0002DE9F04FDFF81C8300258DB0C04C037009
:104C000008F140034260074601920E4620222946E1
:104C10004046C4F86831C4F86481CDE90255CDE955
:104C20000455CDE90655CDE90855CDE90A5510F0F2
:104C3000C7FD2022294604F5A170C4F83151C4F8FB
:104C40003551C4F83951C4F83D5110F0B9FD019BFC
:104C500084F8485284F830317A68002A6AD02B46AA
:104C600004F59871454606F1100A9E46F01856F86C
:104C700003B0E2180EF1010ED0F80CC0D0F8049089
:104C8000D0F8088044F803B0C2F80CC04FF0000C14
:104C9000C2F80490C2F80880008A25F802CB10827E
:104CA0001AF8032001F8012F002A70D07A684FF01B
:104CB00001001233724584F84802D7D84FF480229D
:104CC00090489DF8043008214FF000084FF000098B
:104CD000C4F884310023C4E95B020122C4F87431B2
:104CE00084F88031C4E95E2194F84812C4E96489EB
:104CF000A9B3C4F89821002284F8813184F888315E
:104D00003B78C4E96722002B38D001220020012122
:104D1000013B84F8A421C4E96C01082B30D8DFE8FA
:104D200013F0BD00C200C700CC00D100D600DB00EC
:104D3000E100E8009DF804300121C4F87421C4F8B2
:104D400084314FF4802384F880216E4AC4E95B23C8
:104D500008230022C4E95E130023C4E9642301236D
:104D6000002284F88131002384F888310323C4F8B9
:104D700098313B78C4E96722002BC6D184F8A4316E
:104D8000614803F037FB034638B1FFBEFEE77A689F
:104D9000123372453FF66AAF90E702A95A48029370
:104DA00003F086FC8246002876D1042240F2FF718F
:104DB0000A90CDE9081294F83021002A00F0F3801F
:104DC0004FF006080AEBCA034FEACA0904EB430393
:104DD0005B7C072B07D8DFE803F0595C5653504D36
:104DE0004A04072307930FFA8AF6D14406EBC60656
:104DF00004EB490904EB46077500384600F09AFCBD
:104E000099F81030042B00F3AA80022B00F3BD8028
:104E100000F0B98004EB0A03002283F8202114F883
:104E20001630002B78D0022B00F08A80012B40F046
:104E3000B2807B78012B00F0B080002B334B18BF81
:104E4000002305A93048CDE9053802F0FFFE00280F
:104E500040F0AC800AF1010A94F830315FFA8AFA26
:104E6000534540F2A0802A4B53F82A80AAE7062334
:104E70000793B8E705230793B5E704230793B2E741
:104E800003230793AFE702230793ACE700230793BD
:104E9000A9E701230793A6E7FFBEFEE7032240230D
:104EA000C4E96A236CE707226023C4E96A2367E741
:104EB0000F228023C4E96A2362E71F22A023C4E9EA
:104EC0006A235DE73F22C023C4E96A2358E77F22B3
:104ED000E023C4E96A2353E7FF224FF48073C4E957
:104EE0006A234DE740F2FF124FF49073C4E96A233E
:104EF00046E740F2FF324FF4A073C4E96A233FE76C
:104F0000A80D002400200240140F00240002B02548
:104F100060720108004000307B78062B37D0072BE9
:104F20003DD0022B4AD0032B4AD0002B4CD0012B72
:104F300048D0042B4AD0052B254B18BF002380E70F
:104F40007B78042B25D0052B2BD08BB3012B31D0B4
:104F5000022B31D0032B1F4B18BF002371E7032313
:104F6000043504EB0A0B4FF0000925448BF820317F
:104F7000284609F1010900F0DDFB9BF820310435DA
:104F80004B45F5DC4BE70123EAE70223E8E7124B48
:104F900057E7124B55E7002353E7114B51E7114BED
:104FA0004FE7114B4DE70DB0BDE8F08FFFBEFEE7B8
:104FB0000E4B46E70E4B44E70E4B42E70E4B40E7E5
:104FC0000E4B3EE70E4B3CE70E4B3AE70E4B38E7F5
:104FD0000000B84F002090360800900C1000C01060
:104FE0002000F0148000501D000180210004002AE0
:104FF0000008302E001060320040C03A0080F03EC1
:1050000000005247000021430000844B38B5094C92
:1050100040F2FF724FF0011104F5B675284603F017
:10502000F5FA94F83021D4F864112846BDE83840E8
:1050300003F060B8A80D0024044B0F29D3F86431A5
:1050400098BF03EB41031888704700BFA80D0024E8
:10505000214B02689A4200D07047204A0023204822
:10506000D2F8D81030B51F4C41F0200183B0C4F8FD
:10507000D001092004F5E875C4E975034FF4806098
:10508000C2F8D810D2F8D8204FF40061C4E97730C4
:1050900094F8480202F02002C4F8E4114FF40051E1
:1050A000984201922846C4F8E811C4E97C33019B78
:1050B00014BF00234FF48073C4F8EC3103F04AFEB0
:1050C00008B1FFBEFEE704F5B673C4F8B851C4F8E2
:1050D000083203B030BD00BF002002400044025837
:1050E00040000240A80D0024014804F0ABB900BF05
:1050F000780F002402682DE9F84F4B4B9A4201D0FB
:10510000BDE8F88F494D95F84832002BF8D095F856
:105110003031002B77D0002405F10C0905F5A1767C
:1051200005F59877A04613E003F0010117F811BCCC
:10513000A9F1080000F0DAFBBBF1010F25D895F8C2
:105140003031013409F112090236A2B293422BD94F
:1051500017F8012F002AF4D0D5F8643100213278F5
:1051600033F81400D5F8683103EB041323F8120068
:10517000338801339BB233805FFA83FA3A789A42DC
:10518000D2D88A46A6F80080D0E7CAF34001A9F138
:10519000040000F0ABFBBBF1020FCAF38001CED0DC
:1051A000484600F0A3FBCAE7002395F848022049CF
:1051B00009229842C5F8D8314FF48060C5F8D01163
:1051C000C5F8D4214FF400614FF40052C5F8DC312A
:1051D00008BF4FF48073C5F8E821C5E978010022C3
:1051E0001448C5E97B32C5F8F42103F0B3FD08B1DA
:1051F000FFBEFEE795F83021D5F864110E48BDE8F2
:10520000F84F02F077BF0A4909224FF48060C5F8D1
:10521000D831C5E974124FF400614FF40052C5E96A
:105220007730C5E97912DAE700200240A80D0024A2
:1052300040000240780F0024140F0024704700BF84
:105240004F4B02689A4200D070474E4BD3F8E8109B
:1052500030B541F000514C4C85B0D4F84821C3F82A
:10526000E810D3F8E81001F0005101910199D3F84A
:10527000E01041F00101C3F8E010D3F8E03003F092
:1052800001030293029B32F002033DD0013A012A4E
:105290006BD9D4F84C31012B0AD0002236201146AC
:1052A00003F07AFA362005B0BDE8304003F0B2BA18
:1052B000D4F8483133F0020234D0013B012BECD852
:1052C000442240233149324DC4F88C100021284635
:1052D000C4F8B010C4E9242300224FF48063C4E969
:1052E00026234FF400624FF40053C4E928234FF4FF
:1052F00080724FF48033C4E92A2303F02BFD80B978
:10530000E560C4F8C440C8E74FF48062032303A8F3
:10531000ADF80C208DF80E3000F00CFAD4F84821CE
:10532000B4E7FEE71B4BA2634322636140231A4D9F
:10533000C4E9062300224FF480632846C4E9082309
:105340004FF400624FF40053C4E90A234FF4807213
:105350004FF48033C4E90C2303F0FCFC20B9D4F8EB
:105360004831A560E464A8E7FEE74FF4A062032398
:1053700003A8ADF80C208DF80E3000F0DBF988E7BB
:105380000074004000440258F80F00242804024032
:1053900084100024100402400C100024014804F082
:1053A00051B800BF0C100024014804F04BB800BFF6
:1053B0008410002410B5054C204603F017FB04F5BB
:1053C0008270BDE8104009F029BB00BFF80F00242F
:1053D00030B58C463A4C3B4D8DB0046004F5A27E4E
:1053E000BCE80F00AEE80F00DCF800302046256076
:1053F000CEF8003003F09CFA0023D4F84C5103930C
:10540000C5B11622012D049217D00022D4F85411F0
:10541000D4F848319142CDE9062218BF0222059204
:1054200033F0020235D0013B012B3CD90025284640
:105430000DB030BD02230493E7E7234A0093C4F87C
:105440000C31C4F81431C4F80421C4F81C31CDE97E
:10545000013301F057FDD4F844314BF68032C4F8E3
:105460000851002B08BF1346B0FBF3F304F582701C
:10547000C4F8103109F03CF90028D8D1202302905B
:10548000694604F58270009309F080FB0028BCD0C7
:10549000CDE703A90A4803F0DDFA78B9D4F848311A
:1054A000013B012BC2D8102203A9054803F0D2FA10
:1054B000051E18BF012528460DB030BD0125B6E7F1
:1054C000F80F002400740040001000402DE9F04166
:1054D0000668D6F84C5105BBD6F850310C46174635
:1054E000002B0CBF4FF008084FF0000831F002030A
:1054F00005D0013C012C14D92846BDE8F0811346A3
:10550000294642463046013C03F056FA29463046C9
:1055100003F024FA012CEFD803E001252846BDE86A
:10552000F0813B4642461021304603F045FA1021F7
:10553000304603F013FA2846BDE8F08110B592B06A
:10554000ADF804100180C9B2149C0B29C460C0E9F5
:1055500001233FD090F801C0BCF10F0F3AD8022AC6
:105560003FD0032A02D0012A00D000220E92012B44
:1055700002D0022B18BF0023022C0F932CD0032C37
:105580002AD0012C28D000230A29109327D85C4A5E
:1055900002EB812202610A2914D8DFE801F0A39509
:1055A00087796B5D4F4133250600564BD3F8E010E9
:1055B00041F48061C3F8E010D3F8E03003F4806375
:1055C0000C930C9B01230DA9104603FA0CF30D93C9
:1055D00004F08AFA12B010BD0A291094D7D900221B
:1055E000D8E711220E92C2E7464BD3F8E01041F4FF
:1055F0000071C3F8E010D3F8E03003F400730B93AC
:105600000B9BDFE73F4BD3F8E01041F48071C3F808
:10561000E010D3F8E03003F480730A930A9BD1E7DB
:10562000384BD3F8E01041F08001C3F8E010D3F814
:10563000E03003F080030993099BC3E7314BD3F8B3
:10564000E01041F04001C3F8E010D3F8E03003F07F
:1056500040030893089BB5E72A4BD3F8E01041F0CC
:105660002001C3F8E010D3F8E03003F020030793E3
:10567000079BA7E7234BD3F8E01041F01001C3F8D4
:10568000E010D3F8E03003F010030693069B99E78F
:105690001C4BD3F8E01041F00801C3F8E010D3F838
:1056A000E03003F008030593059B8BE7154BD3F817
:1056B000E01041F00401C3F8E010D3F8E03003F04B
:1056C00004030493049B7DE70E4BD3F8E01041F0F4
:1056D0000201C3F8E010D3F8E03003F002030393B3
:1056E000039B6FE7074BD3F8E01041F00101C3F8CB
:1056F000E010D3F8E03003F001030293029B61E76E
:10570000000002580044025808B50121437800699E
:10571000994089B204F0F0FB003818BF012008BDA1
:1057200001230A464178006903FA01F189B204F0C5
:10573000E9BB00BF8378022B30B504468FB037D069
:10574000032B33D0012B31D000230A93E378012BB4
:105750002AD0022B28D000230B93002320460C9341
:1057600002F0EEF80546204602F0F2F823780990A0
:10577000082B13D8DFE803F01F3245586B7E91A445
:105780000500594BD3F8E02042F48072C3F8E020C2
:10579000D3F8E03003F480730893089B09A92846E6
:1057A00004F0A2F90FB030BD0B93D6E70A93CDE712
:1057B00011230A93CAE74C4B09A92846D3F8E020E5
:1057C00042F00102C3F8E020D3F8E03003F0010317
:1057D0000093009B04F088F90FB030BD424B09A93B
:1057E0002846D3F8E02042F00202C3F8E020D3F8C4
:1057F000E03003F002030193019B04F075F90FB050
:1058000030BD394B09A92846D3F8E02042F0040204
:10581000C3F8E020D3F8E03003F004030293029BC6
:1058200004F062F90FB030BD2F4B09A92846D3F818
:10583000E02042F00802C3F8E020D3F8E03003F0A3
:1058400008030393039B04F04FF90FB030BD264BC0
:1058500009A92846D3F8E02042F01002C3F8E0205E
:10586000D3F8E03003F010030493049B04F03CF9F8
:105870000FB030BD1C4B09A92846D3F8E02042F0F8
:105880002002C3F8E020D3F8E03003F020030593B2
:10589000059B04F029F90FB030BD134B09A9284628
:1058A000D3F8E02042F04002C3F8E020D3F8E03023
:1058B00003F040030693069B04F016F90FB030BDC9
:1058C000094B09A92846D3F8E02042F08002C3F82A
:1058D000E020D3F8E03003F080030793079B04F047
:1058E00003F90FB030BD00BF0044025870B5064642
:1058F0000D4602F025F80446304602F029F82A1E2B
:105900000146204618BF0122BDE8704004F0FABAF3
:105910000023122270B586B0CDE9022304930368F8
:10592000032B01D804230593061D841D304602F085
:1059300007F80546304602F00BF8034601A9284651
:10594000019304F0D1F8204601F0FAFF0346204607
:105950001C4601F0FDFF01A903462046019304F017
:10596000C3F806B070BD00BF634A0368934210B528
:105970008CB028D0614A934258D0614A934200F0DB
:105980009480604A934201D00CB010BD5E4C5F48D9
:10599000D4F8E03043F00203C4F8E030D4F8E0304B
:1059A00003F002030A930A9BFFF7B2FFD4F8F43026
:1059B00043F08003C4F8F430D4F8F43003F08003EB
:1059C0000B930B9BE0E7504C5148D4F8E03043F088
:1059D0000203C4F8E030D4F8E03003F0020301938E
:1059E000019BFFF795FFD4F8E83000221F2043F415
:1059F00000131146C4F8E830D4F8E83003F400137B
:105A00000293029BD4F8D83043F00103C4F8D83095
:105A1000D4F8D83003F001030393039B02F0BCFEDB
:105A20001F200CB0BDE8104002F0F4BE364C3948DF
:105A3000D4F8E03043F08003C4F8E030D4F8E0302C
:105A400003F080030493049BD4F8E03043F0020396
:105A5000C4F8E030D4F8E03003F002030593059B6E
:105A6000FFF756FFD4F8E8300022212043F48003EA
:105A70001146C4F8E830D4F8E83003F48003069304
:105A8000069BD4F8D83043F00103C4F8D830D4F8DA
:105A9000D83003F001030793079B02F07DFE21201D
:105AA0000CB0BDE8104002F0B5BE1B48FFF730FF58
:105AB000154B00224820D3F8E840114644F4000476
:105AC000C3F8E840D3F8E84004F400040894089CC4
:105AD000D3F8D84044F00104C3F8D840D3F8D83004
