:020000040800F2
:1000000000000220C10A0008BD0A0008B1A60008CD
:10001000BD0A0008BD0A0008BD0A00080000000073
:10002000000000000000000000000000BD0A000801
:10003000BD0A000800000000BD0A000835A600083F
:10004000BD0A0008BD0A0008BD0A0008BD0A000874
:10005000BD0A0008BD0A0008BD0A0008BD0A000864
:10006000BD0A0008BD0A0008BD0A000811A1000869
:100070001DA10008E581000829A1000835A100089C
:10008000E9610108918C0008BD0A0008BD0A00085A
:10009000BD0A0008BD0A0008BD0A0008BD0A000824
:1000A000BD0A0008BD0A0008BD0A0008BD0A000814
:1000B000E1550108ED550108F9550108C58C000806
:1000C000BD0A0008D18C0008BD0A0008514E010885
:1000D0005D4E01081D600108496001087D6001084E
:1000E000BD0A0008BD0A000800000000BD0A0008A3
:1000F000BD0A0008BD0A0008BD0A0008BD0A0008C4
:10010000BD0A0008BD0A000805560108694E01082D
:10011000B1600108E5600108B1840008BD0A00086B
:1001200099840008A58400088D4E0108C14E01087D
:100130001D620108BD0A0008BD0A0008BD0A0008CA
:1001400000000000000000000000000000000000AF
:10015000BD0A0008BD0A0008BD0A000819610108AF
:10016000DD8C0008BD0A000845A6000869A6000845
:10017000BD0A00088DA60008BD0A0008BD0A0008D7
:10018000BD0A0008BD0A00084D610108816101082F
:10019000754E0108814E0108BD0A0008BD0A00081D
:1001A000BD0A0008BD0A0008BD0A0008BD0A000813
:1001B000319E0008BD0A0008BD0A0008BD0A0008FB
:1001C000BD0A0008BD0A0008A17C0008AD7C00083B
:1001D000BD0A0008B97C0008BD0A0008BD0A000875
:1001E000BD0A0008BD0A0008BD0A0008BD0A0008D3
:1001F000BD0A0008BD0A0008BD0A0008BD0A0008C3
:10020000BD0A0008BD0A0008BD0A0008BD0A0008B2
:10021000BD0A0008BD0A0008BD0A0008BD0A0008A2
:10022000BD0A0008BD0A0008BD0A00080000000061
:10023000BD0A0008BD0A000800000000BD0A000851
:10024000BD0A0008BD0A0008BD0A0008BD0A000872
:10025000BD0A0008BD0A0008BD0A0008BD0A000862
:10026000BD0A0008BD0A0008BD0A0008BD0A000852
:10027000BD0A0008BD0A0008B561010800000000C1
:10028000BD0A0008BD0A0008BD0A00080000000001
:0802900000000000BD0A000897
:1002A00010B5054C237833B9044B13B10448AFF3B0
:1002B00000800123237010BD4008002400000000CE
:1002C000D0D2010808B5034B1BB103490348AFF373
:1002D000008008BD0000000044080024D0D20108BE
:1002E00010F8012B11F8013B012A28BF9A42F7D0E0
:1002F000D01A70470000000000000000000000005D
:1003000001F0FF01102A2BDB10F0070F08D010F8C6
:10031000013B013A8B422DD010F0070F42B3F6D1CA
:10032000F0B441EA012141EA014122F007047FF0E3
:1003300000070023F0E80256083C85EA010586EA3A
:10034000010685FA47F5A3FA87F586FA47F6A5FA76
:1003500087F68EB9EED1F0BC01F0FF0102F0070282
:1003600032B110F8013B013A83EA010313B1F8D12D
:100370000020704701387047002D06BF354603380E
:10038000073815F0010F07D1013015F4807F02BF47
:10039000013015F4C03F0130F0BC0138704700BF98
:1003A00081F0004102E000BF83F0004330B54FEA26
:1003B00041044FEA430594EA050F08BF90EA020F93
:1003C0001FBF54EA000C55EA020C7FEA645C7FEA26
:1003D000655C00F0E2804FEA5454D4EB5555B8BF49
:1003E0006D420CDD2C4480EA020281EA030382EABA
:1003F000000083EA010180EA020281EA0303362D4C
:1004000088BF30BD11F0004F4FEA01314FF4801C1E
:100410004CEA113102D0404261EB410113F0004F30
:100420004FEA03334CEA133302D0524263EB4303E7
:1004300094EA050F00F0A780A4F10104D5F1200E85
:100440000DDB02FA0EFC22FA05F2801841F10001E0
:1004500003FA0EF2801843FA05F359410EE0A5F1B4
:1004600020050EF1200E012A03FA0EFC28BF4CF0E5
:10047000020C43FA05F3C01851EBE37101F000459B
:1004800007D54FF0000EDCF1000C7EEB00006EEBA8
:100490000101B1F5801F1BD3B1F5001F0CD3490832
:1004A0005FEA30004FEA3C0C04F101044FEA445289
:1004B00012F5800F80F09A80BCF1004F08BF5FEA10
:1004C000500C50F1000041EB045141EA050130BDF0
:1004D0005FEA4C0C404141EB0101013C28BFB1F502
:1004E000801FE9D291F0000F04BF01460020B1FA4D
:1004F00081F308BF2033A3F10B03B3F120020CDA20
:100500000C3208DD02F1140CC2F10C0201FA0CF0FD
:1005100021FA02F10CE002F11402D8BFC2F1200C62
:1005200001FA02F120FA0CFCDCBF41EA0C01904018
:10053000E41AA2BF01EB0451294330BD6FEA040461
:100540001F3C1CDA0C340EDC04F11404C4F120024C
:1005500020FA04F001FA02F340EA030021FA04F35E
:1005600045EA030130BDC4F10C04C4F1200220FAB5
:1005700002F001FA04F340EA0300294630BD21FAF3
:1005800004F0294630BD94F0000F83F4801306BFB9
:1005900081F480110134013D4EE77FEA645C18BFAD
:1005A0007FEA655C29D094EA050F08BF90EA020F44
:1005B00005D054EA000C04BF1946104630BD91EA3C
:1005C000030F1EBF0021002030BD5FEA545C05D13F
:1005D0004000494128BF41F0004130BD14F580047E
:1005E0003CBF01F5801130BD01F0004545F0FE41F2
:1005F00041F470014FF0000030BD7FEA645C1ABF27
:10060000194610467FEA655C1CBF0B46024650EA5D
:10061000013406BF52EA033591EA030F41F4002189
:1006200030BD00BF90F0000F04BF0021704730B50F
:100630004FF4806404F132044FF000054FF00001E4
:1006400050E700BF90F0000F04BF0021704730B5A5
:100650004FF4806404F1320410F0004548BF40427A
:100660004FF000013EE700BF42004FEAE2014FEACF
:1006700031014FEA02701FBF12F07F4393F07F4FAA
:1006800081F06051704732F07F4208BF704793F0AD
:100690007F4F04BF41F40021704730B54FF46074C0
:1006A00001F0004521F000411CE700BF50EA0102C3
:1006B00008BF704730B54FF000050AE050EA01026C
:1006C00008BF704730B511F0004502D5404261EBDC
:1006D00041014FF4806404F132045FEA915C3FF41D
:1006E000D8AE4FF003025FEADC0C18BF03325FEABA
:1006F000DC0C18BF033202EBDC02C2F1200300FA6B
:1007000003FC20FA02F001FA03FE40EA0E0021FA8F
:1007100002F11444BDE600BF7BB972B90029BEBF27
:1007200000204FF0004106E008BF00281CBF6FF01A
:1007300000414FF0FF3000F0BFB9ADF1080C6DE99A
:1007400004CE002909DB002B1ADB00F04DF8DDF8A0
:1007500004E0DDE9022304B07047404261EB41014F
:10076000002B1BDB00F040F8DDF804E0DDE902239C
:1007700004B0404261EB4101524263EB43037047D6
:10078000524263EB430300F02FF8DDF804E0DDE9AB
:10079000022304B0404261EB41017047524263EBD7
:1007A000430300F021F8DDF804E0DDE9022304B0A2
:1007B000524263EB4303704753B94AB9002908BF5B
:1007C00000281CBF4FF0FF314FF0FF3000F074B92C
:1007D000ADF1080C6DE904CE00F006F8DDF804E098
:1007E000DDE9022304B070472DE9F047089D044677
:1007F0008E46002B4DD18A42944669D9B2FA82F2D4
:1008000052B101FA02F3C2F1200120FA01F10CFA0F
:1008100002FC41EA030E94404FEA1C48210CBEFB47
:10082000F8F61FFA8CF708FB16E341EA034306FBD0
:1008300007F199420AD91CEB030306F1FF3080F05F
:100840001F81994240F21C81023E63445B1AA4B2AC
:10085000B3FBF8F008FB103344EA034400FB07F74E
:10086000A7420AD91CEB040400F1FF3380F00A818F
:10087000A74240F207816444023840EA0640E41B84
:1008800000261DB1D4400023C5E900433146BDE830
:10089000F0878B4209D9002D00F0EF800026C5E9D2
:1008A000000130463146BDE8F087B3FA83F6002EEA
:1008B0004AD18B4202D3824200F2F980841A61EB62
:1008C000030301209E46002DE0D0C5E9004EDDE780
:1008D00002B9FFDEB2FA82F2002A40F09280A1EB68
:1008E0000C014FEA1C471FFA8CFE0126200CB1FBBD
:1008F000F7F307FB131140EA01410EFB03F08842B6
:1009000008D91CEB010103F1FF3802D2884200F242
:10091000CB804346091AA4B2B1FBF7F007FB1011D4
:1009200044EA01440EFB00FEA64508D91CEB040472
:1009300000F1FF3102D2A64500F2BB800846A4EBCD
:100940000E0440EA03409CE7C6F12007B34022FAB8
:1009500007FC4CEA030C20FA07F401FA06F31C43E7
:10096000F9404FEA1C4900FA06F3B1FBF9F8200CF4
:100970001FFA8CFE09FB181140EA014108FB0EF03A
:10098000884202FA06F20BD91CEB010108F1FF3A8A
:1009900080F08880884240F28580A8F10208614496
:1009A000091AA4B2B1FBF9F009FB101144EA0141A4
:1009B00000FB0EFE8E4508D91CEB010100F1FF344F
:1009C0006CD28E456AD90238614440EA0840A0FBE7
:1009D0000294A1EB0E01A142C846A64656D353D0BD
:1009E0005DB1B3EB080261EB0E0101FA07F722FAE1
:1009F00006F3F1401F43C5E9007100263146BDE80A
:100A0000F087C2F12003D8400CFA02FC21FA03F36C
:100A1000914001434FEA1C471FFA8CFEB3FBF7F0ED
:100A200007FB10360B0C43EA064300FB0EF69E4212
:100A300004FA02F408D91CEB030300F1FF382FD2AB
:100A40009E422DD9023863449B1B89B2B3FBF7F653
:100A500007FB163341EA034106FB0EF38B4208D92C
:100A60001CEB010106F1FF3816D28B4214D9023E6D
:100A70006144C91A46EA004638E72E46284605E78B
:100A80000646E3E61846F8E64B45A9D2B9EB02085C
:100A900064EB0C0E0138A3E74646EAE7204694E7EC
:100AA0004046D1E7D0467BE7023B614432E730461F
:100AB00009E76444023842E7704700BFFEE700BF21
:100AC0000B480C4A904203D0121A0B4918F0BAFC9A
:100AD0000A480B4A904203D0121A002118F0C0FCB9
:100AE0000AF046F818F06AFC00F054F8FEE700BF80
:100AF000000000243C08002408D30108400800241A
:100B000088BF0324704700BF002840D000292DE98A
:100B1000F043CCBF00260126BEBBFDEEC07A1C4BC5
:100B2000441E7F2717EE909A83FB09234FEAE97E44
:100B3000CEEB630E0EEB4E03F046A9EB830E23467D
:100B400014F901CFBCEB0E0203F1020348BFAEEB78
:100B50000C021B1AC2F10C05AA42A8BF2A46BA42CF
:100B600001DA174666469942E9DC07EE909A08EBEF
:100B70004808F8EEE77A06EB880630EE670A07EEDB
:100B8000906AF8EEE77A37EE800ABDE8F0837047A6
:100B9000ABAAAA2A2DE9F04F00212F482DED0A8B90
:100BA000ADF5037D05F0B0FD04212B4805F0D4FC24
:100BB00005F090FA41F2883009F0ECFD02F026FBD6
:100BC00002F06EFA3BAB002841F0FC870E93002543
:100BD0000124022636A9214837963A95CDE93854A2
:100BE00007F074FC31462A461C4807F0EDFC1C4B0C
:100BF00022461C4819682B46009507F01DFD294622
:100C0000184807F00BFE03238DF8745032468DF818
:100C1000753031A81D9907F055F82246042331A9F3
:100C200011482C4607F062F80F4807F06DFA4DF2B4
:100C3000D863ADF878304CF27C43ADF87A301EAB17
:100C400022930DF17A0323931FAB2493074B1F9339
:100C500009F09EFD064613E05C0800247C08002491
:100C600030B901089C08002474080024EF4FC637EF
:100C700007F060FA03460A2001351C4409F08AFD9A
:100C800009F086FD034600219E489B1BB3F5FA6FD1
:100C9000EED355B342F234129FED9B6AF7EE006A31
:100CA000B4FBF5F39BB2934238BF134607EE903A7C
:100CB000ADF87830A3F5FA53B8EEE77A07EE903A3C
:100CC000F8EEE77AA7EEC67AFCEEC77A17EE903A0E
:100CD0009BB2ADF87A30A3F5FA5307EE903AF8EEEE
:100CE000E77A86EEA77A8DED1F7A884FB023884A7F
:100CF00000253C68874E03FB0423874A8749D3EDD0
:100D0000017A874B77EEA77A8648C3ED007A864B47
:100D10001360356005F018FC844BC820336009F07F
:100D200039FD3220356009F035FD002006F0D4FE93
:100D300004F0A6FD7E4806F0C1FE7E4806F0BEFE29
:100D40003B680E2B1D46A8BF0E25002BC1F2458720
:100D50000023794A194692F87C000133B03200B979
:100D600001319D42F7DA0022734B93F87C00B033D7
:100D700000B9013271489842F7D1B023644D7048F0
:100D800004FB03F3EC18EB5894ED027AD4ED017AEE
:100D9000BDEEC77AFDEEE77A8DED017ACDED007AF2
:100DA00006F08CFE674806F089FE94F83D30002B73
:100DB00001F0F786644806F081FE644806F07EFE86
:100DC000634806F07BFE634806F078FE09F0E0FC1D
:100DD000139009F0DDFC0B9009F0DAFC4B4B1990F5
:100DE0001B680E2B1846A8BF0E20002BC1F2F886F8
:100DF0000023514A1D4692F87C100133B03201B9EC
:100E000001359842F7DA002D01F0EA86524E0024AF
:100E1000169640F6FF7200215048013407F0D4FBCB
:100E200040F6FF7201214D4807F0CEFB4C4B6E207F
:100E3000336009F0AFFC00224848114607F0C4FBBC
:100E400000220121454807F0BFFB00238C203360BE
:100E500009F0A0FCA542DCD19FED429AF7EE008A92
:100E6000414A0023B0EE49AABDF87A80F0EE499AD3
:100E70000DF5827B9246109320930D930A93149361
:100E80000993179307930C9318930693CDE9253391
:100E9000CDE92733CDE92933CDE92B33CDE92D3306
:100EA000CDE92F33CDE91A3304F0F4FC00211548C5
:100EB00007F040F9404580F05885B0F5FA5F40F200
:100EC0002C87A0F5FA509DED1F7A284B07EE900A6B
:100ED000B8EEE78ADFED267A28EE078AB4EE678A55
:100EE00083ED008A079BF1EE10FAA8BF0023079359
:100EF0005846012402F040F955AB58460E9A19465F
:100F000012933FE074080024CDCCCC3D08000024AF
:100F1000B05A0324543E03247C010024B136000857
:100F2000840100245C0800240000C842CDCCCC3EE3
:100F3000F0AA010804AB0108E0AE010830B90108CD
:100F400018AB010834AB010858AB0108A8AB010885
:100F5000F0AB010810AC0108603E03247C080024BB
:100F6000CDCC4C3D00000000D808002470010024C6
:100F7000CDCCCC3E9C420B6001F10401B8BF1C46B5
:100F800093450ED032F8023B002630F8025B5B1B23
:100F9000F0D533460E6004319C42B8BF1C469345E1
:100FA000F0D104226EA955A802F09EF9064609F078
:100FB000EFFB0546002E40F325850C9B1490002B7B
:100FC00000F0A5860127C34BC34A1360079B002B83
:100FD00001F0B882099B83F001033B40099300F0C4
:100FE000FB861A9BEB1A952BBC4B01F365831B68A0
:100FF0000E2B01F0C883002E40F3F78609F0C8FBE2
:10100000139009F0C5FB0B9031466EA802F030FA40
:101010009AF800300593002B40F0C185069B002B09
:1010200000F0B28500230F93AC4BD3F80080B8F1E9
:101030000E0F02D01B68AA4A136000232DAF29AE01
:1010400020AD21934793A74B159309F0A1FB21AA4B
:10105000A44B864647A911920DF1840C25AA9A4605
:10106000089404971878002800F013840124B8F13C
:101070000E0FC2F800E00C7000F01684984CD4F803
:101080000090D3ED027A2C78F8EEE77A002C40F04D
:1010900034840498C6ED007AC0F800E001208CF892
:1010A0000000049814330131043604300CF1010CB3
:1010B0000135043204908C489842D3D1B8F10E0F18
:1010C000089C00F0E5869DF884302BB19DF88030B7
:1010D00013B10123854A13709DF81C318DF88030BF
:1010E0009DF81D318DF881309DF81E318DF88230CC
:1010F0009DF81F318DF883307D4B1B78002B00F05D
:101100000E85059B7B4D002B00F01385DAED017AEF
:10111000DFED796AB8EEE77AC7EE267AF5EEC07AA7
:10112000F1EE10FA00F10486B7EE007AF4EE477A99
:10113000F1EE10FA77FE277A9AED027ADFED6F6A08
:10114000B8EEC77A87EE26BAB5EEC0BAF1EE10FA5D
:1011500000F12E86B7EE007AB4EE47BAF1EE10FA3F
:1011600037FE0BBA95ED036AB6EE007ADFED646ADE
:10117000F7EE00AA67EE867A95ED01CAD5ED02BAC0
:10118000A7EEA67AF0EE6A6AE7EE276AE6EEA7AA6D
:101190006CEE2AAAB4EEEACAF1EE10FA00F3048665
:1011A000F4EE6BAAF1EE10FA7BFEAAAA95F888304D
:1011B0001BB10F9B002B41F0D380F4EECCAAF1EED3
:1011C00010FA40F1E085B5EEC0BAF0EE4CBAF1EE9F
:1011D00010FA00F1E585F7EE007AB4EEE7BAF1EE29
:1011E00010FA0FDCB1EE086AFAEE0E6AF2EE047A3B
:1011F0002BEE0B7AEBEE066A27EE0B7AEBEE267AF5
:1012000067EE277A95ED117AF7EE00AA9FED3D5A29
:1012100067EE877ADFED3C5ADFED396AB6EE007A89
:10122000D5ED150A67EE857A9FED386AF4EEC60AA9
:10123000E7EEA56AF1EE10FAA6EEA77AF0EE6A6A7A
:10124000E7EE276AE6EEA7AAC0F21A86F0EE6B7AFE
:10125000D5ED106AB3EE047A67EEA67A67EEAAAA15
:10126000F4EEC7AAF1EE10FA00F1B285DFED287AAC
:10127000F4EE67AAF1EE10FA77FEAAAADFED257A5E
:10128000DFED256A7BEE677A87EEA67AB5EEC07A47
:10129000F1EE10FA00F19085F7EE007AB4EEE77AFD
:1012A000F1EE10FA01F32681B0EE006ADFED1B6A61
:1012B000F0EE087A67EE07CAE7EE467A6CEEA7CA48
:1012C0006CEEA6CAB5EEC0BAF1EE10FA00F17C855C
:1012D00026E000BF9A99593F7001002408000024BD
:1012E00004000024D808002428090024643E0324B4
:1012F000384103248801002400007A440000C842D9
:1013000068B32A3E006F313F9FCD2A3D77BE7F3FB5
:1013100000A08C469A99193FCDCCCC3ECDCC4C3F09
:10132000F7EE007AB4EEE7BAF1EE10FA09DCF0EE6F
:10133000006AB0EE087A6BEE0B7AABEE667A67EE77
:10134000877AB7EE00CA95ED137A069BA7EE27CAF7
:101350002BB9F0EE4B8A09F01BFA09F019FAF7EEF7
:10136000007A95ED207AC24B0126DFEDC26A77EE56
:10137000C77AC3ED00BAC04BE7EE287AC3ED00AAE6
:10138000BE4BC3ED00CABE4B83ED00CA67EEA67A22
:10139000BC4B1E70BC4BC3ED007A0A9B002B00F3C4
:1013A000D3830D9B002B00F0038409F0F1F9109B0F
:1013B000C31A002B13DB0A9B0022013B11460D923E
:1013C0000A9300F18C03B148109307F0FDF8002256
:1013D0000121AE4807F0F8F80023169A13609AF836
:1013E0001430002B00F0D082002E00F0CD82DAED18
:1013F000067ADFEDA76AF8EEE77A87EEA67AB5EE11
:10140000C07AF1EE10FA00F13785F7EE007AB4EE0B
:10141000E77AF1EE10FA01F3FB80F6EE007AF0EED7
:10142000085A37EE677A67EE255ADAED077A9FEDAC
:10143000997AF8EEE77A87EE876AB5EEC06AF1EE40
:1014400010FA00F11185F7EE006AB4EEE66AF1EEEB
:1014500010FA40F3E784B0EE666AF0EE467ABAEE30
:101460000E5AB1EE084AF2EE046AF0EE453A27EE63
:10147000A77AF0EE664AE7EE843A27EE277AE7EE9F
:10148000A34A27EE247AB5EEC07AF1EE10FA41F1C4
:101490003F809FED817ADFED816A36EE477ADFED9E
:1014A000807A87EE265ADFED7E6A95ED187AB4EEE3
:1014B000E66A67EE877AF1EE10FA00F1E285B7EEA0
:1014C000007AB4EEC76AF1EE10FA0BDCF0EE004AD7
:1014D000F0EE086A26EE067AE6EE646A27EE267AD1
:1014E00065EE875AB5EEC05AF1EE10FA00F1C084ED
:1014F000B7EE007AB4EEC75AF1EE10FA09DCB0EE9E
:10150000006AF0EE086A25EE057AE5EE466A27EEF7
:10151000267A644BD5ED176AC3ED005A624BC3EDD2
:10152000007A67EE267A614BC3ED007A04F09AF9EF
:101530000646002840F0358209F02AF9199BC01AA6
:10154000772840F22E8209F023F9594B19901B6835
:101550000E2B01F0BB82564B31461B680E2B1F46EB
:10156000A8BF0E27002B09DB524A334692F87C00B5
:101570000133B03200B90131BB42F7DD4D4B0022DF
:1015800093F87C00B03300B901324B489842F7D150
:10159000D5ED027A2B68FDEEE77A4848CDED017A69
:1015A000D5ED017AFDEEE77ACDED007A06F086FA08
:1015B00043484FEA640806F081FA424806F07EFA92
:1015C0000026DDF8489059F8042B002A40F3EE82FB
:1015D00002EB820008EB8000B0FBF4F01428A8BFF7
:1015E00014205B230DF235174DA98DF834313B469D
:1015F000CD43E9188142ACBF2021232103F8011B10
:101600000DF249119942F4D15D238DF8493100233F
:101610008DF84A319AF80030002B00F0C582DAF8D4
:101620000C30B3420CBF312320239AF8141021B19F
:10163000DAF82010B14208BF322331460136009358
:101640004DAB214806F03AFA0C2EBCD17C2428225E
:101650002D210DF285108DF88441A84617F000FF6A
:101660001A4E00238DF8AD4131248DF8AE312FE0B4
:1016700084010024EC51383F7C010024703E032497
:10168000800100245C3E0324543E03247C08002493
:1016900000007A440000C8429A99593F9A99193E2D
:1016A000000000006C3E0324583E0324683E0324DF
:1016B00008000024E0AE010830B90108ECAC0108D4
:1016C00008AD01081CAD010840AD0108D808002490
:1016D00096F800E04FF0270C4FF4FA7000214FF419
:1016E0007A720023BEF1000F10D07568C5FB0C01A3
:1016F000FFF712F8272820EAE0704FF02803D8BF40
:10170000431C03F502736B4403F8844C0134143614
:10171000E4B2352CDCD161A9A848454606F0CEF9E3
:1017200001260DF24514DDF8548098F80030002BA6
:1017300001F09A80D8F80830002B41F38C81190110
:101740009F4A3231A2FB012149091029A8BF10216B
:101750005B228DF834210DF2351250198842ACBF4E
:101760002020232002F8010B9442F6D14DAA3146E5
:10177000944808F1140800925D228DF8452100225A
:101780008DF8462158F8102C06F098F9022E41F0F9
:101790007480B7EE007ADFED8C6AF6EE007A37EEF1
:1017A000488AE8EE267AFDEEE77A17EE903A17EED1
:1017B000901A642BA8BF6421002B21EAE17141F348
:1017C0004D810A017E4B3232A3FB023252095B2368
:1017D0008DF83431EB199A42D4BF2023232307F824
:1017E000013BA742F6D15D234DAA78488DF84531DB
:1017F00000238DF8463106F061F9754BF2EE044A8C
:101800009FED715AD3ED006A724BFDEEE66A93EDDF
:10181000006A714B16EE901AFDEEC66AD3ED005ABF
:101820006E4B65EEA45A16EE902AD3ED007A6C4BFF
:10183000FDEEE56A93ED007A67EE857A16EE900A82
:1018400027EE057AFDEEE77A0028BDEEC77AC1F2F1
:101850000881644BC51783FB0043C5EBA3052B230D
:1018600005EB8504A0EB440405988DED037ACDEDDE
:10187000027A06905C48CDE9005406F01FF95B48F7
:1018800006F01CF9032008F085FFBDF87A80FFF709
:101890000BBB1468AEEB0404272C63DC0124B8F105
:1018A0000E0F0C707FF4EAABD3ED017ADFED506AD6
:1018B000F8EEE77A87EEA67AB5EEC07AF1EE10FA86
:1018C00078D4F7EE007AB4EEE77AF1EE10FA00F38E
:1018D000A582F0EE477A474FFEEECF7A17EE904A98
:1018E000D3ED027A032CF8EEE77AA8BF032457F869
:1018F00024902C78002C3FF4CCAB00283FF4D1ABE3
:10190000B6EE007AB0203C4CD6ED006A67EE877ADE
:1019100000FB0949E6EE877A99ED217AB5EEC07AA7
:10192000F1EE10FAC6ED007A7FF7BBAB77EEE67A00
:10193000F3EE026AF4EEE67AF1EE10FA7FF7B1AB5D
:10194000049FBDEEC77A386817EE104AAEEB000070
:10195000A042FFF6A6AB0120C7F800E08CF800001B
:10196000FFF79FBB0870FFF79CBBB0F5FA5FF7EE7F
:10197000007A8CBF00230123B0EE678A07931F4BC8
:10198000C3ED007AFFF7B4BA0023134A1360134A79
:1019900013601B4A136003F065FF064600283FF4FE
:1019A000CBAD059B0320069308F0F4FEBDF87A80CA
:1019B000FFF77ABA4FF00909FFF763BB54AD01088E
:1019C0001F85EB5160AD01080000C842B0AD0108B1
:1019D000840100247C0100246C3E0324583E03242F
:1019E000703E032467666666CCAD010808AE010848
:1019F00000007A44B0AE0108B05A032470010024FC
:101A0000683E0324149BC71A0C9B3B2FCCBF0027B6
:101A10000127002B7FF4D7AA079B002B01F024811C
:101A2000179B002B00F02983EB1AB3F5FA6FC0F077
:101A30001A860023C04AC1481360B022036802FB23
:101A400003F3BF4AD15803680C9A0E2B9E46A8BFD9
:101A50004FF00E0E002B0CDBBA481346944690F85C
:101A60007C200133B0300AB90CF1010C9E45F6DA46
:101A70006246B4484FF0000C90F87C30B0300BB99F
:101A80000CF1010CB04B8342F6D16346AF4806F02F
:101A900015F8AA4B1B680E2B1846A8BF0E20002B6A
:101AA000C0F289870023A74A9C4692F87C10013334
:101AB000B03209B90CF1010C8342F6DD6346CDF872
:101AC00028C0002B00F0778740F6FF720021A04865
:101AD000099706F079FD40F6FF7201219C4806F057
:101AE00073FD9C4B169A0B95136005F16E031093D2
:101AF000079B0D9301230C9308F04AFE401BB0F5A1
:101B0000FA6F80F07A8108F043FE0B9BC01A41F215
:101B10008733984200F2E6821395FFF775BA8E4B31
:101B2000874A1D68B02303FB0525059B002B7FF426
:101B3000EDAA0023894A0126137000237E4A136010
:101B40000A9B002B7FF72DAC08F022FE109BC31AD6
:101B5000002BFFF644AC0D9B002B7FF42CAC00F166
:101B60006E030D9940F6FF727948109306F02CFD34
:101B700040F6FF720121764806F026FD754B169A55
:101B8000136001230D932AE408F002FE189BC01A8B
:101B9000C72894BF002301230F93FFF745BA08F02D
:101BA000F7FD1890FFF73ABA20233EE5002018E52C
:101BB000059B002B00F04A82DAED017ADFED686ABE
:101BC000F8EEE77A87EEA67AB5EEC07AF1EE10FA73
:101BD00000F12A85F7EE007AB4EEE77AF1EE10FA1A
:101BE00000F37586DAED026ADFED5E5AB8EEE66A5A
:101BF000C6EE256AF5EEC06AF1EE10FA40F14387B1
:101C0000F6EE006AB0EE006AFFEE00BAB6EE08CA61
:101C100077EE666AB0EE67BAE7EE06BAF0EEE66A0D
:101C2000A7EE46BAE6EEC67AB0EE677AB5EEC0BA6F
:101C3000F1EE10FAF5EEC0BA48BF9FED4EBAF1EEE4
:101C400010FAB5EEC07A48BFDFED4ABAF1EE10FAED
:101C500040F1AC879FED477AB1EEC70AB5EE400A76
:101C6000F1EE10FA00F1E487F1EEC07AB5EE40BA79
:101C700067EE8CAAF1EE10FA01F10E80B1EECB0AFC
:101C8000B5EE400AF1EE10FA01F10080F1EEC07AF3
:101C9000F5EE40BA27EE8CBAF1EE10FA00F1F087BB
:101CA000B1EEEB0AB5EE400AF1EE10FA00F1E28770
:101CB000F1EEC07A9FED2C7A069B67EE8C7A67EE88
:101CC000877A002B40F0DC85B0EE679AB0EE4BAA25
:101CD000F0EE6A9ADFED25AA00211D4869EEAA7A86
:101CE000FCEEE77A17EE903A9AB206F06DFC6AEED7
:101CF0002AAA01211648FCEEEAAA1AEE903A9AB2F4
:101D000006F062FC169B83ED009AFFF768BB012387
:101D100009930C9B1793FFF771B9DFED167A144BFB
:101D2000B0EE678AC3ED007A01230793FFF7E0B8AE
:101D3000DFED107AFFF700BA543E032408000024B8
:101D4000B05A0324E0AE010830B9010818AC01080C
:101D50007C080024CDCC4C3D040000245C3E0324D0
:101D600000007A440000C842CDCC4C3D00F07F45D5
:101D7000700100240000000095F89C30F0EE4CAAA1
:101D8000002B40F03F83F4EEEABAF1EE10FAB5EE24
:101D9000C0BA58BFF0EE6ABAF1EE10FA7FF51BAA8E
:101DA0005FED0C7AFFF72EBAF0EE4CAAFFF7FEB902
:101DB0001FED10BAFFF7D6B9B5EEC0BA5FED13CA82
:101DC000F1EE10FA7FF5ACAA5FED167AFFF7B9BA1B
:101DD000F0EE47AAFFF752BAAC4B1B680E2B00F08F
:101DE000D284002E09973FF709A90B9508F0D0FC83
:101DF000401BB0F5FA6FFFF486AE00230E988AF808
:101E000014308AF8003001F0D1F903F02BFD0028DE
:101E100000F0428508F0BCFC054674E64FF00B0963
:101E2000FFF72FB9B1EE085A9FED994AFAEE0E4A24
:101E3000DFED983AF2EE047A26EE067AE6EE054AEF
:101E400036EE444A27EE067A84EE235AE6EE247AEA
:101E500067EE277AF5EEC07AF1EE10FA40F14E8384
:101E6000DFED8D7AFFF71FBB9FED8B6AFFF7F5BAA9
:101E70009FED897AFFF74DBBFFEE085AFFF7D5BA01
:101E80008BEE8C0A17F0C4F860EE0C7AFFF7E0B91D
:101E9000824EA0F150070025DDF8448018F8013B80
:101EA0004BBB47AB5B5D1BB920AA525D02B173709F
:101EB00001354C361437042DF0D10023784A1360D5
:101EC0009DF81C318DF880309DF81D318DF88130E2
:101ED0009DF81E318DF882309DF81F318DF88330CA
:101EE000704B1B7803F0FF06002B00F09583002653
:101EF0006D4DFFF752BAD7ED017ADFED6C6AB8EE9F
:101F0000E77AC7EE267AF5EEC07AF1EE10FA00F124
:101F10001483B7EE007AF4EEC77AF1EE10FA00F30C
:101F20009D84B1EE007A624A67EE877ABDEEE77A69
:101F300017EE103A032BA8BF032307EE103A52F80E
:101F400023905C4AB8EEC77A77EEC77AB0EE677A2C
:101F5000BEEECF7A17EE103A032BA8BF032302EB95
:101F60008303D3ED00CAB023534A9FED544AB6EE23
:101F7000007A03FB0923DFED524ADFED526AF7EEE8
:101F800000AAD3ED117A93ED206A67EE847ADFED33
:101F90004E5AD3ED150A7AEEC6BA9FED4C5AE7EECB
:101FA000A46A93ED01BAF4EEE50A7BEE86BA6BEE15
:101FB0002CCAF1EE10FA6BEE85BAA7EEA67AF0EE17
:101FC0006A6AE7EE876AE7EEA6AAB0EE6ACAC0F2CE
:101FD0004383F0EE6CAAB023374AF3EE047A03FB96
:101FE000092393ED107A6AEE87AA6AEE8CAAF4EEC2
:101FF000E7AAF1EE10FA00F19D82DFED357AF4EEFA
:1020000067AAF1EE10FA77FEAAAA2B4AB023F7EEE0
:10201000007A304803FB0923D3ED131A71EEA71A97
:10202000CDED041A04F094FAB0EE6A1ADDED041A4C
:10203000B0EE402A4946F0EE6B0A3046B0EE6C0A2C
:1020400001F08CFA244BC3F8009031E7DFED127AEF
:10205000DFED225AF0EE676AB0EE677A9FED206AF4
:10206000E9EE257AA9EE867AEAEE066AB0EE679A7C
:10207000F0EE479AB0EE66AA2CE6099717950B95F5
:102080003AE565EEA65AFFF72DBA00BF0800002416
:102090009A99593F9A99193E000000004000002487
:1020A000543E0324384103248801002400007A446C
:1020B000B0AE0108D0AE0108B05A0324006F313F22
:1020C0009FCD2A3D68B32A3E77BE7F3FEC51383F13
:1020D00000A08C465C08002404000024CDCCCC3D3C
:1020E0006666E63E002708F053FBCDF820A00546C3
:1020F000B846B946DDF838A0CDE90446169E08F08A
:1021000047FB864B441BDFED866A9FED867AB7EE70
:1021100000BAA3FB042342F6E0621B0A02FB13434E
:1021200007EE903AF8EEE77A87EEA60A20EE070A65
:1021300016F002FDF6EE007A3BEE400AF6EE006A7B
:10214000B0EE007A20EE270AF7EE007A70EE00AAD1
:1021500030EE660A3BEE6ABAB0EEC00A7AEEE7AA43
:10216000F7EE007AB5EEC0BAE0EE477AF1EE10FA7B
:10217000F5EEC0AA48BF9FED6CBAF1EE10FAF5EE8D
:10218000C07A48BFDFED68AAF1EE10FA00F19F8037
:10219000F5EE407AF1EE10FA00F12685B1EEE70A8D
:1021A000B5EE400AF1EE10FA00F12A85F1EEC0BA60
:1021B000B5EE40BAF1EE10FA00F12885B1EECB0A87
:1021C000B5EE400AF1EE10FA00F12685B1EEC0BA84
:1021D000F5EE40AAF1EE10FA00F12485B1EEEA0A1C
:1021E000B5EE400AF1EE10FA00F10485F1EEC07A86
:1021F0009FED4ECA0021DFED4EAA4E486BEE8CBA21
:1022000067EEAAAAFCEEEBBA1BEE903A9AB206F081
:10221000DBF92BEE0CBA01214648BCEECBBA1BEE23
:10222000103A9AB206F0D0F900214348C6ED00AA50
:1022300005F080FFB0F5FA5F4CD997BBB4F5FA6FA3
:10224000814408F101082CD342F234129FED3B6A1D
:10225000F7EE006A0127B9FBF8F39BB2934238BF4F
:102260001346A3F5FA5207EE903A07EE102AF8EE5D
:10227000E77A229AB8EEC77A1380239AE7EE467A75
:10228000FCEEE77A17EE903A9BB21380A3F5FA536F
:1022900007EE903A249BF8EEE77A86EEA77A83ED74
:1022A000007A47A800F068FF47A85246002132F89C
:1022B000023B30F8024B1B1B9942B8BF19469345AD
:1022C000F5D1092906DC0A2008F064FA17E7DFEDEA
:1022D000167A63E700221748DDF820A01146DDE9F1
:1022E000044606F071F901210022124806F06CF94B
:1022F0000023169A136008F04BFA0B9008F048FA86
:10230000139003F0AFFA00287EF47EAEBDF878108B
:102310000B4805F0D3FBFEF777BE00BFF119760539
:1023200000803B46DB0FC9400000000000F07F4505
:10233000CDCC4C3D7C08002474080024CDCCCC3D91
:10234000A4AC01080000DC434CA6AA3ECDCC4C3E18
:1023500000008A42977F8A41C0956C3D68B32A3E4F
:102360001FED085AF7EE006A5FED095ACAEE857A4A
:102370005FED0A3A1FED0A7A1FED0A4AB0EE470AEE
:10238000D5E9230177EEE64A37EEA66AC4EE867AEF
:10239000B0EE656AF0EE665A67EEA74A77EEA77A66
:1023A000A4EEA36AE6EE245A5FED154AB6EE006A83
:1023B00067EEA57A5FED175AA7EE840AFEF7A4FB35
:1023C00070EE477AB0EE467AB0EE666A67EEA47AAF
:1023D000A7EEA57AA7EE276AE6EE276A66EE85AA3B
:1023E000B4EEEACAF1EE10FA3FF7C6ACF4EE6ABA00
:1023F00095F89C30F1EE10FA48BFF0EE6BAA002B76
:102400003EF4DBAE002940F38483B0FA80FE4FEA4D
:102410005E1E002800F07D83FDEEC07A944E00F130
:10242000FF3C4FF07F0817EE903A86FB0326DA1741
:10243000C2EB66028F4E02EB4202A3EB82030C3327
:10244000A6FB0326F60806EB4606A3EB86067346B4
:102450001CF9012F971B48BFB71A474501DA9E4662
:10246000B84601339942F3DC0EF102030EF1040683
:102470009EFBF1F201FB12EE02EB420210F90E702C
:1024800007EB820293FBF1F701FB173307EB4707DA
:10249000C35603EB870396FBF1F701FB17619B1A09
:1024A000405607EB470100EB81018A1A0BEE902A98
:1024B000D5F8A420B2EE08CA02EB420203EB820276
:1024C00007EE902AB8EEE70A80EE0C0A16F0D4FC6C
:1024D000694B83ED000AF8EEEBBA8BEE8C0A16F02E
:1024E000CBFC664B95ED01CAD5ED02BA83ED000A2F
:1024F000FEF763BEDFED62CAFEF7E4BEF4EEE67AF5
:10250000F1EE10FA7EF7ABAFF0EE667AFEF7CBBFD6
:10251000F7EE007AB4EEE77AF1EE10FA40F38E832C
:102520009FED587ADFED586A36EE477A87EE265AE5
:10253000FEF7B9BFF0EE67AA67E5F7EE00CA4FF005
:10254000090910E503F0ECFF504B1B680E2B9C466D
:10255000A8BF4FF00E0C002BC0F22183079B4C4A02
:10256000194692F87C000133B03200B9013163455D
:10257000F7DD474B002293F87C00B03300B90132FD
:1025800044489842F7D1414BB0201B6800FB03F34D
:102590004148C358414805F091FA3C4B40481968FE
:1025A00005F08CFA394B1B680E2B1846A8BF0E207D
:1025B000002BC0F29F810023354A9C4692F87C1084
:1025C0000133B03209B90CF1010C9842F6DA6346D6
:1025D000CDF828C0002B00F08D8140F6FF7200215D
:1025E0003048099705F0F0FF40F6FF7201212D48B1
:1025F00005F0EAFF2C4B169900220B6005F16E03E3
:102600001B921093012317920D930C92FEF7F3BCCB
:10261000F7EE085AFEF709BF244B1F4A1D68B02386
:1026200003FB0525FEF7B9BEDAED027A9FED207AAD
:10263000F8EEE77AC7EE876AF5EEC06AF1EE10FAB7
:1026400040F12F81B7EE00BADFED1ABAB6EE08CA34
:102650009FED187AFFF700BB8CEE8B0A16F0D8FCC2
:102660006BEE00AAB7E409970B95FFF745BA00BFD8
:10267000ABAAAA2AABAAAAAA2C00002430000024E4
:10268000CDCC4C3F9A99593F9A99193E08000024A5
:10269000E0AE010830B90108B05A03245CAC01086F
:1026A00074AC01087C080024CDCC4C3D040000240F
:1026B0000000C84200000000D3F800C0A1460CF1A1
:1026C00001020CF11000DFF884E3D317B0218EFB78
:1026D000024EC44C9644C3EBEE03C3EB0313D31A70
:1026E000013201FB034191F87C10002900F0B08118
:1026F0009042E8D14C46BC4B0021C3F800C01B6897
:102700000E2B9C46A8BF4FF00E0C002B09DBB54AE0
:102710000B4692F87C000133B03200B901316345B9
:10272000F7DDB04B002293F87C00B03300B90132E2
:10273000AE489842F7D1AC4BB0201B6800FB03F3C6
:10274000AB48C358AB4805F0B9F940F6FF72002119
:10275000A94805F039FF40F6FF720121A64805F0AF
:1027600033FFA64B169A136005F16E029E4B109232
:102770001B680E2B00F0D480099B1A950D93012342
:102780000A93FEF738BC1B9B002B40D0EB1A002BA2
:102790003DDB9B4BB0EE087ADFED9A7AD3ED00AAD1
:1027A00093ED0F8A2AEE888A28EE078AB4EEE78A2C
:1027B000F1EE10FA00F1D681DFED937AB4EE678A7C
:1027C000F1EE10FA37FE888A904BF7EE001ADFED33
:1027D000907A93ED007A8F48E7EE271ACDED041A30
:1027E00003F0B6FEB0EE481ADDED041AB0EE402A52
:1027F000DFED890AB0EE6A0A0A21884800F0AEFED1
:102800000023874A1B9382F84D30936D53670A9BD0
:10281000002B40F082810D9BC3B1109BEB1A002B63
:1028200014DB0A9B00227448013B11460A9305F110
:102830008C03109305F0C8FE002201216E4805F0BC
:10284000C3FE0023169A136000230D9303200B95FB
:10285000099707F09FFF1395FEF726BBF0EE00CA1D
:102860004FF00B09FFF77FBB31466E4805F026F9A4
:10287000022E08F114083EF48CAF0226FEF755BF75
:102880009FED696ADFED695A2AEE867A6BEE066A79
:1028900067EE867AFFF7E2BB654805F00FF9FFF7B0
:1028A000B9BAB7EE00BAF4EECB6AF1EE10FA00F363
:1028B000F980FFEE00BA9FED5F7AB5EE006AF6EEA2
:1028C000087AE6EE867AB0EE67CAFFF7AFB99AEDFE
:1028D000027A9FED596AB8EEC77AC7EE066AF5EE3E
:1028E000C06AF1EE10FA40F1E580F0EE67BA9FEDB4
:1028F00051BAABE6002209973F48174611460D92A0
:1029000005F062FE3A4601213B4805F05DFE0023DA
:10291000169A0A9713601B9717970C97FEF76BBBD5
:10292000464BB0EE087ADFED377AD3ED00AA93ED8F
:102930000F8A0023424A2AEE888A13700023414AF4
:1029400028EE078A1360B4EEE78AF1EE10FA00F180
:102950000681DFED2D7AB4EE678AF1EE10FA37FECC
:10296000888A394BF7EE001ADFED297A93ED007A69
:10297000099BE7EE271A27480D9305F196031B9351
:10298000CDED041A03F0E4FDB0EE481ADDED041AB3
:10299000B0EE402ADFED200AB0EE6A0A0921204895
:1029A00000F0DCFD1E4A1A95D36893620023537031
:1029B00001230A934AE7002209970F481746114658
:1029C0000A9205F001FE3A4601210B4805F0FCFD94
:1029D0000023169A0B95136001230D970C93FFF7B4
:1029E0008BB800BFE0AE01080800002430B9010830
:1029F000B05A032480AC01087C080024CDCC4C3DA7
:102A0000946103240000704200007A46DC610324D4
:102A10009A99193F5C0800249A99593F8C00002428
:102A20004000002480AD0108CDCC0C3F6666E63E38
:102A300094AC0108000000000000C842E4600324D8
:102A40005C3E0324543E03242C6103248988888837
:102A50004C469C464FE60021FEF77ABE0022FEF768
:102A6000B6BE43428F4CA4FB0354E40804EB840439
:102A7000A3EB44048C4B83FB0053C017A0EBA305CE
:102A80002D23FEF7F1BEF4EEE76AF1EE10FA71DDE8
:102A9000F6EE006AB0EE006AFFEE00BAB0EE67CA6A
:102AA000FFF7B6B8DFED81BAB7EE00CA9FED7F7AC7
:102AB000FFF7D2B8F4EEE76AF1EE10FA55DCBFEE9C
:102AC00000BA9FED7A7AF0EE67BAF6E6784B3146B7
:102AD0001B680E2B1F46A8BF0E27002B09DB754A6B
:102AE000334692F87C000133B03200B90131BB4269
:102AF000F7DD704B002293F87C00B03300B901324F
:102B00006D489842F7D12B686C4804F0D7FFFEF768
:102B10004FBDDFED6BBA0423CAE4109BEB1A002B08
:102B2000FFF694AE0D9B002B7FF47BAE0A9B002B2F
:102B30007FF78CAE0D9940F6FF72624805F044FDB8
:102B400040F6FF7201215F4805F03EFD05F16E037E
:102B5000169A10935C4B1360079B0D9376E6B0EECC
:102B6000678AFEE6B0EE678A2EE6F0EE67BA9FED62
:102B70004FBA99E7B6EE006AF0EE005AB0EE67BAC7
:102B800037EE466AFFEE00BAA7EE65BAB0EEC66A47
:102B9000E7EE25BAE6EE657AB0EE677A8DE607993C
:102BA000E7E44A4804F08AFFFEF707B9B5EE407A39
:102BB000F1EE10FA7FF550A8B0EE470A16F0BCFB14
:102BC000FFF74CB81C464FF496700E9307F0E2FDE9
:102BD000204600F0EBFAFDF7FABF0021FEF7C3B87C
:102BE0003B4B1693FEF738B9B0EE670A16F0A4FB1C
:102BF000FFF7D6BA16F0A0FBF0EE407AFFF7F8BA6E
:102C000016F09AFBF0EE40BAFFF7D2BAB0EE4B0ADC
:102C100016F092FBFFF7D4BA16F08EFBB0EE40BA76
:102C2000FFF7D6BAB0EE6A0A16F086FBFFF7D8BAFD
:102C300016F082FBF0EE407AFFF718B8A7EE045AC0
:102C4000DFED243A67EE077A9FED233A36EE634ACA
:102C500067EE877AF0EE454A84EE035AE7EE246A7F
:102C600067EEA67AFEF71FBC079B139D0997179383
:102C7000FEF742BF16F060FBF0EE407AFFF71AB89D
:102C8000B0EE6B0A16F058FBFFF70CB816F054FBC9
:102C9000F0EE407AFEF7FCBFB0EE4B0A16F04CFBAC
:102CA000FEF7EEBFCDCCCCCC6766666600000000B8
:102CB00008000024E0AE010830B90108BCAC0108EE
:102CC000070000007C080024CDCC4C3D80AB0108FF
:102CD000603E03249A99593F9A99193E10B50948C4
:102CE0000024094A0949046044610462C46315F080
:102CF0000FFF074B4FF60B72C3E90244C3E90024F0
:102D000010BD00BF5C08002400000024050B000873
:102D10009C0800242DE9F041002482B01C4E0123C0
:102D2000DFF8788022461B4D3046D8F800101A4F45
:102D3000009405F081FC052007F02EFD224639683D
:102D400001232846009405F077FC052007F024FDB8
:102D500023460122D8F800103046009405F06CFCA0
:102D60002146304605F05AFD052007F015FD2346A3
:102D7000012239682846009405F05EFC2846214669
:102D800005F04CFD052002B0BDE8F04107F004BDA0
:102D9000C4080024B008002434B9010838B9010877
:102DA00070B5002482B0144D0122144E23462846EB
:102DB0000094316805F040FC2146284605F02EFDC0
:102DC000052007F0E9FC0E4A01230E48116822464F
:102DD000009405F031FC052007F0DEFC28460123B5
:102DE00022463168009405F027FC052002B0BDE8BA
:102DF000704007F0D1BC00BFC408002438B90108F6
:102E000034B90108B00800242DE9F041072582B04B
:102E1000DFF8E4800746354E25E06246D8F800101A
:102E2000CDF800C005F008FC0024052007F0B4FC34
:102E30000123224631682E48013D009405F0FCFB39
:102E4000052007F0A9FC2346012229483168009497
:102E500005F0F2FB2146264805F0E0FC052007F0CE
:102E60009BFC6B1C14D0012247FA05F14FF0000CBB
:102E7000204811EA02041346CFD1D8F800102346A7
:102E8000009405F0D9FB21461A4805F0C7FCCBE7B2
:102E90002246D8F8001001231648009405F0CCFB18
:102EA000052007F079FC2246316801231048009480
:102EB00005F0C2FB052007F06FFC0E4805F0A2FCF0
:102EC00023460122316805460094094805F0B4FB09
:102ED0002146074805F0A2FC052007F05DFC85F0BF
:102EE0000100C0B202B0BDE8F08100BF34B90108F2
:102EF000B0080024C408002438B901082DE9F043C3
:102F0000002283B0DFF8F480074601233848D8F860
:102F10000010914600920725364E05F08DFB0024E7
:102F2000052007F039FC012322463168324800941D
:102F300005F082FB052007F02FFC2D4805F062FC10
:102F400001218646234601FA05FC0A462A48013D2E
:102F50003168BEF1000F03D04CEA090C5FFA8CF91E
:102F6000009405F069FB2146234805F057FC6B1CD3
:102F7000D5D1002F33D0D8F8001023461C480122A9
:102F8000009405F059FB2146194805F047FC002440
:102F9000052007F001FC3168224601231648009401
:102FA00005F04AFB052007F0F7FB234601223168B4
:102FB0001148009405F040FB21460F4805F02EFC17
:102FC000052007F0E9FB01232246D8F80010084845
:102FD000009405F031FB484603B0BDE8F0830123BF
:102FE0003A46D8F800100248009705F025FBCEE7D6
:102FF000C408002434B90108B008002438B9010815
:1030000038B504460D46FFF785FEB420FFF7FCFEF9
:1030100060B12046FFF7F8FE40B12846FFF7F4FE06
:10302000044618B1FFF7BCFE204638BD0024FFF768
:10303000B7FE204638BD00BF2DE9F04104460E46DC
:103040001546FFF767FEB420FFF7DEFE08B3204603
:10305000FFF7DAFEE8B1FFF75DFEB520FFF7D4FE1B
:103060000746B0B185B1013D741E56FA85F8C6F128
:10307000010630198542D4BF00200120FFF73EFF32
:1030800004F8010F4445F4D1FFF78AFE3846BDE845
:10309000F0810027FFF784FE3846BDE8F08100BFCD
:1030A00010B5632182B080204124FFF7A9FF0A20D8
:1030B00007F070FB00215E20FFF7A2FF01212B200B
:1030C000FFF79EFF01212C20FFF79AFF10212D20F2
:1030D000FFF796FF20212E20FFF792FF01212F20DE
:1030E000FFF78EFF01213020FFF78AFF10213120EA
:1030F000FFF786FF20213220FFF782FF00213320D7
:10310000FFF77EFF00213420FFF77AFF00213520F2
:10311000FFF776FF04212046FFF772FF601C0234A0
:103120000221C0B2E4B2FFF76BFF592CF2D111219A
:103130005B20FFF765FFF0215C20FFF761FF48216E
:103140005D20FFF75DFF8C215E20FFF759FF6420B3
:1031500007F020FB002301220DF107015E208DF80E
:103160000730FFF769FF9DF80700A0F18C00B0FA67
:1031700080F0400902B010BD10B586B00446182298
:1031800004206946FFF758FFA01E6A4606AC537834
:1031900012F8021B1B02944203F4407343EA01033A
:1031A00020F8023FF3D106B010BD00BF2DE9F04179
:1031B00092B02025002407460DF118083022002186
:1031C000404616F04DF968464646FFF7D5FF6A4679
:1031D000414600E00C6832F8023B2344424541F886
:1031E000043BF7D1052007F0D5FA013D01D0069C3C
:1031F000E9E7BA1E163756F8043B5B0922F8023F8E
:10320000BA42F8D112B0BDE8F08100BF10B50A494A
:1032100082B000240123094822460968009405F081
:103220000BFA07490123224609680648009405F075
:1032300003FA02B010BD00BF38B90108C408002469
:1032400034B90108B008002400230649064A4FF6A5
:103250000B70CB600860C1E90133C2E90003C2E929
:1032600002337047C4080024B0080024A0F10A0209
:103270001C4B002A53F8211030DD814230DD42F230
:1032800010700A3900FB02F292FBF1F38342A8BFEF
:103290000346002B1A46B8BF5A1C5210511C93FB10
:1032A000F1F2521848BF0132511093FBF1F252185B
:1032B00048BF0132521093FBF2F18A1848BF013225
:1032C000521093FBF2F313445A1C07DB002BB8BFD8
:1032D000013358106428A8BF64207047002070474D
:1032E000642070473CB901082DE9F04FB2F1000BA2
:1032F00095B0039140F3B7800B460BEB8B0103EBCA
:103300008101002203F8142B9942FAD1044608AE39
:1033100000F130072068103454F80C1C354654F87E
:10332000082C103654F8043CBC420FC5F2D14FF0C3
:10333000000A5B465646002208A81546144650F877
:10334000041BA94201DD14460D4601320C2AF6D1B8
:10335000092D27DD56B304AD002101E08E4225D0B2
:1033600055F8042B0131A01A48BF101B0328F5DCC7
:10337000A51E04F1020808AA02EB85020B2D4FF0EE
:10338000000105F1010502F1040298BF42F8041C96
:103390004545F3DD0AF1010A32465645B8BF5246AB
:1033A0009A42C8DB304615B0BDE8F08F04F1020840
:1033B000A51EB8F10B0FC34625EAE571A8BF4FF073
:1033C0000B0B8B454ADB6FF0404C4FF0000908AA0D
:1033D0000BF1010B8C440846CE464F4602EB8C0C99
:1033E0005CF8042F22EAE2724A4500FB02EE174421
:1033F00001DD0146914601308345F1D187B34FF499
:103400007A7202FB0EFE07EB870207EB4207BEFB58
:10341000F7F7B7F57A7FA8BF4FF47A7706EB860205
:1034200048464FEA860B0293019201360091FFF75E
:103430001DFF0BF15003019A4FF0010C00990DEBA9
:10344000030B039B4BF8404C03EB820403F822C0B0
:10345000029BC4E90170C4E903198CE74FF000092D
:103460004FF0FF37DAE70026304615B0BDE8F08FA1
:103470002DE9F0470023384E82B006F15009019340
:1034800033461A789AB914334B45FAD100290BDD2B
:1034900001EB810101AD00EB810115F8013B002B2F
:1034A00038D014308842F8D102B0BDE8F087002946
:1034B0004EDD0DF1040E844600224FF0FF384FF030
:1034C000C90A1EF8014B4CB9DCF804405D68671B63
:1034D00048BF2F1BBA4501DD9046BA4601320CF1B8
:1034E000140C9142EDD1B8F1FF3F31D008EB8802C6
:1034F00008F1080400EB82020DEB0408012408F82F
:10350000044C54685C6094689C60D4681269DC6008
:103510001A61B8E732461478143234B10133042BFF
:10352000BFD014781432002CF8D103EB8303D0F809
:1035300010C0446806EB8302D0E902E7C2E9014EFD
:10354000C2E9037C012206F8232005F8012CA8E734
:1035500000221A7097E700BFD8080024DFED507AE8
:10356000B0EE407A40F20113416061EE277AC0ED7F
:10357000030A038080ED027A87EE820A80ED041A46
:10358000C0ED051A70B52DED028B9FED468AF0EE69
:10359000428A04460D4680ED098A80ED088A80ED56
:1035A000078A80ED068A80ED0A8A80ED0C8A80ED1C
:1035B0000D8A15F0EFFBF7EE007A37EEC00AB4EE95
:1035C000C80AF1EE10FA5ED4B4EE670AF1EE10FA12
:1035D00037FE800A344EB02384ED0E0A03FB0563E8
:1035E000D3ED197AF5EEC07AF1EE10FA4ED99FEDCF
:1035F0002F7ABFEE000A67EE877A67EEA87A80EE30
:10360000270A15F0C7FBB02384ED0F0A03FB0563FF
:10361000D3ED1A7AF5EEC07AF1EE10FA3CD99FEDAF
:10362000237ABFEE000A67EE877A67EEA87A80EE0B
:10363000270A15F0AFFBB02384ED100A03FB0563E6
:10364000D3ED1D7AF5EEC07AF1EE10FA21D99FED97
:10365000172ABFEE000A67EE827A67EEA88A80EE2C
:10366000280A15F097FBB02184ED110A01FB0565CE
:1036700095ED1C0A15F000FC84ED120A84ED0B0A8E
:10368000BDEC028B70BDB0EE480AA3E79FED050AC2
:10369000B9E79FED040AE6E79FED020ACBE700BF1A
:1036A000DB0FC9C000000000B05A03246F12833A38
:1036B000D54BD3ED007AF5EEC07A2DE9F04FF1EE5F
:1036C00010FA88462DED108BA3B0069201F1828787
:1036D000B0EE677AF7EE007AB4EE677AF1EE10FAA0
:1036E00077FE877ACDED0C7AC84BC949D3ED007AC5
:1036F000C84ACDED077AD1ED007AC74BC749B0EE85
:1037000067BAD2ED007AC64A93ED009ACDED087AF9
:10371000D1ED008AC34BD2ED007AC349CDED097AD1
:10372000D3ED007AC14AC24BCDED0A7AD1ED007AD1
:1037300092ED008ABF49F0EE67AAD3ED007ABE4A47
:10374000CDED1C7AD1ED007ABC4BCDED1D7AD2EDDA
:10375000007ABB48F0EE67BAD3ED007AB94DCDEDF3
:103760001E7A02F0F5FEB849F0EE409A9FEDB77A66
:10377000D1ED007AB64B67EE877AB64A67EE807A6B
:10378000FDEEE77ACDED1F7AD3ED007AB24BCDEDA9
:10379000207AD2ED007A1F682A78B04B0F2F2C7850
:1037A000D2B2297828BF00271878CDED217A1C7075
:1037B000002941F0CA86B023A94C03FB0744A94B5A
:1037C000A94E1B680B933368BB4202D1904200F0B4
:1037D000AB80D4ED1B7AF5EEC07AF1EE10FA41F22F
:1037E000FF869FED9A0A67EE807ABFEE000A67EEC9
:1037F000A97A80EE270A15F0CDFAD4ED197A9B4B01
:10380000F5EEC07A83ED000AF1EE10FA41F2F0868F
:103810009FED8E0A67EE807ABFEE000A67EEA97A06
:1038200080EE270A15F0B6FAD4ED1A7A904BF5EE31
:10383000C07A83ED000AF1EE10FA41F2D5869FEDD1
:10384000830A67EE807ABFEE000A67EEA97A80EEFF
:10385000270A15F09FFAD4ED1D7A9FED86AA864BB4
:10386000F4EECA7A83ED000AF1EE10FA41F298867E
:103870009FED760A67EE807ABFEE000A67EEA97ABE
:1038800080EE270A15F086FA7C4B83ED000A94ED52
:103890001C0A15F0F1FAD4ED257A794BF4EECA7AC8
:1038A00083ED000AF1EE10FA41F38C869FED677A02
:1038B000BFEE000A67EE877A67EEA97A80EE270AE4
:1038C00015F068FAD4ED257A6E4B376083ED000A67
:1038D0000023F5EEC07A6C4EDDED077AF360F1EE71
:1038E00010FAB36073603360CCBFD4F898204FF007
:1038F0007E52664BDFF8B4911A60654BC9ED007AD1
:1039000083ED00BA634BDDED087A83ED009A624BDC
:10391000C3ED007A614BDDED097AC3ED007A604BAF
:10392000DDED0A7AC3ED007A2B78002B00F0E780FA
:103930005C4E5D4D33682A689A4200F0E080D4ED19
:103940001B7AF5EEC07AF1EE10FA41F259869FED3E
:103950003F7ABFEE000A67EE877A67EEA97A80EEBB
:10396000270A15F017FAD4ED197A404BF5EEC07A14
:1039700083ED000AF1EE10FA41F260869FED337A92
:10398000BFEE000A67EE877A67EEA97A80EE270A13
:1039900015F000FAD4ED1A7A354BF5EEC07A83EDC6
:1039A000000AF1EE10FA41F245869FED287ABFEE4B
:1039B000000A67EE877A67EEA97A80EE270A15F08B
:1039C000E9F9D4ED1D7A9FED2BAA2B4BF4EECA7AC0
:1039D00083ED000AF1EE10FA41F216869FED1B7A94
:1039E000BFEE000A67EE877A67EEA97A80EE270AB3
:1039F00015F0D0F9214B83ED000A94ED1C0A15F067
:103A00003BFAD4ED257A53E0603E03248401002480
:103A10007C0100246C3E032480010024703E0324BA
:103A2000583E0324683E0324543E032470010024BE
:103A30002C000024300000247401002478010024AC
:103A40005C080024384103243C0000246F12833AB0
:103A5000340000243800002404000024343E0324F1
:103A6000B05A032408000024200000244C3E032404
:103A70003C3E032400000000403E0324443E032457
:103A8000303E0324483E032448090024503E0324CA
:103A90001C00002418000024E03B02242809002414
:103AA0001C3E032434410324283E03241400002434
:103AB000484BF4EECA7A83ED000AF1EE10FA41F3B6
:103AC000B5859FED457ABFEE000A67EE877A67EE0F
:103AD000A97A80EE270A15F05DF9D4ED257A3F4BDF
:103AE000326883ED000AF5EEC07A2A603C4AF1EEB6
:103AF00010FACCBFD4F898304FF07E531360DFED4E
:103B0000367A384BF4EEE7AAF1EE10FA0FDD93EDBA
:103B1000007AB4EEE77AF1EE10FA08D8324A11785A
:103B200089B1002111700B9A0E2A08D10BE02E4AA0
:103B3000117881B1002111700B9A0E2A0BD02B4AFB
:103B4000114600220A60234A294811684FF07E522C
:103B5000016028490A60C3ED00AAF0EE6AFA069BEC
:103B6000002B01F07182F1EE087A234BF0EE4BAAA4
:103B700000271193C7EEA97A204BDFF8A09012938B
:103B8000164B1F4E1393164B14931E4B00931E4B54
:103B900015931E4BCDED107A16931D4BDFED1D7A5C
:103BA00017931D4B29EE277A1893104B8DED0D7A44
:103BB00028EEA77A019368EE277A0D4BF0EE6B8A18
:103BC0008DED0E7A19930B4BCDED0F7A1A9300F011
:103BD000BABD00BF303E03246F12833A483E03242F
:103BE000503E03242C3E0324643E03244409002455
:103BF00028000024240000244C3E0324443E0324D7
:103C0000480900241C00002418000024E03B022482
:103C10002809002400D7233C1C3E03241400002460
:103C2000E24B93ED003A36EE436A169B2AEE866A23
:103C3000DDED080A93ED005A1599A3EE836AB4EE00
:103C4000E05A179ADA48D1ED001AF1EE10FA92ED27
:103C5000004A9FEDD87ADFEDD86ADFEDD84A9DEDB6
:103C6000090A9DED0DAA90ED002AB4EEC04A189DF8
:103C7000A1EEA4AA9DED0E1A54BFF0EE471AF0EE85
:103C8000661ADFEDCF2AA2EE241ADFEDCE5AD5ED6B
:103C9000004A60EEA11A9DED0A2A54BFF0EE653A83
:103CA000F0EE623AF1EE10FA81ED00AAF4EEC24AAB
:103CB0001399E5EE231A009854BFB0EE473AB0EEE0
:103CC000663A91ED005A54BFF0EE653AF0EE623A72
:103CD0001499F1EE10FA80ED006A20EE033AB44830
:103CE00058BFF0EE476AC3ED001AB7EE007A019BA9
:103CF000A4EE233AD1ED003A1A9948BFF0EE625A89
:103D000037EE457A80ED001A91ED004A62EE266AA0
:103D100027EE237AE4EEA56A82ED003AA4EE057A56
:103D200093ED005AC5ED006A67EE2F3A81ED007AF7
:103D3000B4EEE35AF1EE10FA00F125859FEDA27A78
:103D4000F4EEC7FAF1EE10FA00F31D85974B93EDF0
:103D5000004AB7EE007A199B1299D3ED005A77EE1C
:103D6000442A9A4A75EEC75A9DED0F9AD2ED004A41
:103D700062EEA33AE5EE043A91ED005A9FED8F4AC8
:103D8000A5EE857A0199A4EE849AC1ED003AB0EED1
:103D9000472A9FED8D7A82ED009AF4EEC73A83EDC3
:103DA000002AF1EE10FA00F10185D6ED035A96EDE6
:103DB000004AD6ED014A96ED025A9FED837AF4EE61
:103DC000C7FAF1EE10FA0CD59FED817AF4EEC73AFE
:103DD000F1EE10FA05DDB3EE0E7AA3EEAA7AF0EE5C
:103DE00047AA7C4BF1EE000A9DED107AD3ED002A34
:103DF00077EE222AB7EE007AF4EEC72AF1EE10FA37
:103E0000A4BF72EEC72A734BB6EE007AC3ED002A48
:103E1000F4EEC72AF1EE10FA40F1C284BFEE007A48
:103E2000A2EEA07AF7EE002ADFED6B0A21EE071A68
:103E300094F83D30B0EE627AA1EE207A27EE877AD0
:103E400027EE027A002B00F0A384DFED647A94ED74
:103E5000072AE1EEA72A67EE027A67EEA27ACDED95
:103E6000057AD4ED0A7A217E67EE277A5C4B022927
:103E700093ED008ACDED027AD4ED0D7A67EE277AC4
:103E8000CDED037AD4ED167A67EE277ACDED047A7C
:103E900000F0A286032900F03487012900F003878F
:103EA000F6EE007AB4EEE78AF1EE007AF1EE10FA5F
:103EB00040F19387BFEE00BAA8EE27BA94F8242009
:103EC000D4ED052A474B022A22EE8BBA93ED000A65
:103ED00000F0DA86032A00F0CF86012A00F09E86E1
:103EE000F6EE007AB4EEE70AF1EE007AF1EE10FA9F
:103EF00040F16D87BFEE00DAA0EE27DA94F830309B
:103F0000D4ED081A3848022B21EE8DDAD0ED000AE4
:103F100000F07586032B00F02186012B00F0F08560
:103F2000F6EE007AB1EE001AF4EEE70AF1EE10FABE
:103F300040F15987FFEE00CAE0EE81CA94F83C30A8
:103F4000D4ED0B7A2948022B6CEEA7CA90ED001A2B
:103F500000F0C785032B00F03786012B00F00686A2
:103F6000F6EE007AF1EE00BAB4EEE71AF1EE10FACE
:103F700040F13F87BFEE00CAA1EE2BCA94ED14EAD0
:103F8000D4ED0E7AB5EEC0EA2CEE27CAF1EE10FAA7
:103F900040F38B85164D17482B68DFED17EA83EA4F
:103FA0004333DFED167A83EA534329E0403E03248E
:103FB000340900240012833A00D7A33CA4707D3F4B
:103FC00048E17A3F77BE7F3F6F12833A10000024AA
:103FD00017B7D13838090024CDCC4C3DC0956C3D85
:103FE000E43B0224E83B0224400900243C0900246D
:103FF0000C0000242C09002400000030CDCC4C3FE4
:1040000083EA43130BEE903A2B60F8EEEBDAD0ED37
:1040100000BAB0EE6BFA9DEEAEFAEFEE27BAD4ED31
:104020001E7AC0ED00BADDEEAEBA7BEEABBAEDEEB5
:10403000EEBA6BEEA77AEDEEAE7A2EEE27EA3BEE05
:104040000DBA94F89C303BEE2CBA7BEE0C7A77EEEE
:104050008E7A002B00F0CC80D94D02299DED1CBA40
:10406000DDED1DBA2BEE07BA94ED28EA6BEE87DA88
:1040700095ED00DA00F0DC87032900F0CF870129F5
:1040800000F09E87F6EE00BAB4EEEBDAF1EE00BA7D
:10409000F1EE10FA41F13982BFEE00CAADEE2BCA43
:1040A00022EE8CCAC748022AD0ED00CA00F07C87F5
:1040B000032A00F06F87012A00F03E87F6EE00BA6F
:1040C000F1EE00EAF4EEEBCAF1EE10FA41F11582DE
:1040D000FFEE00BAECEEAEBA61EEABBA7CEE2BBAF4
:1040E000B94B022993ED00CAEBEE8E7ACDED1B7A27
:1040F00000F01687032900F00987012900F0D8860F
:10410000F6EE00BAF1EE00EAB4EEEBCAF1EE10FA08
:1041100041F10F82FFEE00BAECEE2EBA62EEAB2A4E
:10412000AA49022AD1ED00BA00F0B686032A00F0AF
:10413000A986012A00F07686F6EE00EAB1EE00FAD2
:10414000F4EEEEBAF1EE10FA41F1EB81FFEE00EA87
:10415000EBEE8FEA61EEAE1A72EEA12AD4ED041AEC
:10416000DDED1B7A61EE8BEAE2EE8E7AB7EE00EAC5
:10417000CEEEA92A22EE0BBA61EEAD1A22EE2D2A5E
:1041800072EE8D2AF4EECE2AF1EE10FAA8BF72EE8E
:10419000CE2AC5ED002ACBEE292A72EEAC2AF7EE24
:1041A00000CAF4EEEC2AF1EE10FAA8BF72EEEC2A87
:1041B000C0ED002AC1EEA92A72EE8C2AB7EE00CA21
:1041C000F4EECC2AF1EE10FAA8BF72EECC2AC3EDC1
:1041D000002AC2EE292A72EEAB2AF7EE00BAF4EEFC
:1041E000EB2AF1EE10FAA8BF72EEEB2AC1ED002A1D
:1041F000774BB6EE002AD3ED002AF4EEC22AB1EED8
:10420000002AF1EE10FA40F1F082FFEE001AE2EE21
:10421000821A67EEA11AB7EE002A61EEA61A72EEB4
:10422000666AE6EEA71AF0EE087A2AEE21AAB4EE44
:10423000E7AAF1EE10FA17DCF8EE087AB4EEE7AA76
:10424000F1EE10FA00F18585F3EE0B6A6AEE0A7A58
:10425000B2EE022AF0EE661AE7EE821A77EEA67A3E
:1042600027EE8AAA8AEE212AF3EE047AB4EEE76AF0
:10427000F1EE10FA00F1B682DFED567AB4EEE76A9D
:10428000F1EE10FA00F3B78436EE066AC6EE297A2C
:10429000D4ED126A9FED506A66EE666AA6EEA52A14
:1042A000DFED4E6AF4EE667AF1EE10FA76FEA77A4A
:1042B000F0EE086AB4EEE62AF1EE10FA00F3FC83A1
:1042C000F8EE086AB4EEE62AF1EE10FA00F12D8558
:1042D000B3EE0B6A62EE026AB2EE02AAF0EE461A82
:1042E000E6EE8A1A76EE866A26EE822AC2EE216A07
:1042F000B0EE086AB4EEC64AF1EE10FA00F3D983C4
:10430000B8EE086AB4EEC64AF1EE10FA00F11D8567
:10431000B3EE0B2A24EE046AB2EE02AAF0EE421AC1
:10432000E6EE0A1A36EE026A26EE046A86EE212AC4
:1043300076EEC26AA6EEA74AF0EE086AB4EEE64A46
:1043400086ED004AF1EE10FA00F3C283F8EE086A37
:10435000B4EEE64AF1EE10FA00F1DB84B3EE0B6A3C
:1043600064EE046AF2EE021AB0EE462AA6EEA12A24
:1043700076EE866A26EE844AC4EE026AB0EE086AD9
:10438000F4EEC64AF1EE10FA00F39F83B8EE086A25
:10439000F4EEC64AF1EE10FA00F1D384B3EE0B4A04
:1043A00024EEA46AF2EE021AB0EE442AA6EE212A06
:1043B00036EE046A26EE246A86EE024A14E000BF56
:1043C0000C3E0324143E0324103E0324183E032411
:1043D0003009002400409C463333734048E17A3F63
:1043E0000AD7233C6666A63F76EEC46AE7EEA64A85
:1043F000F0EE086AF4EEE64AC6ED014AF1EE10FA74
:1044000000F36083F8EE086AF4EEE64AF1EE10FA83
:1044100000F19384B3EE0B6A64EEA46AB2EE022A52
:10442000B0EE464AA6EE824A76EE866A66EEA44A68
:10443000C4EE846AB0EE086AB4EEC65AF1EE10FA21
:1044400000F33D83B8EE086AB4EEC65AF1EE10FAF6
:1044500000F16F84F3EE0B4A25EE056AB2EE022AF4
:10446000B0EE644AA6EE024A36EE246A26EE056AEB
:10447000C6EE044A76EEE46AA7EEA65AF0EE086AA3
:10448000B4EEE65A86ED025AF1EE10FA00F32683F6
:10449000F8EE086AB4EEE65AF1EE10FA00F1418443
:1044A000B3EE0B6A65EE056AB2EE024AF0EE464ADA
:1044B000E6EE844A76EE866A26EE855AC5EE246AD2
:1044C000B0EE086AF4EEC65AF1EE10FA00F3038378
:1044D000B8EE086AF4EEC65AF1EE10FA00F11D8447
:1044E000B3EE0B5A25EEA56AB2EE024AF0EE454A4B
:1044F000E6EE044A36EE056A26EE256A86EE245A72
:1045000076EEC56AE7EEA65A5FED4B7AB4EEE73A6F
:10451000F1EE10FAC6ED035A3BD4F7EE004AF1EE85
:10452000007AB0EE005AF0EE646A34EEC34AE3EE6D
:10453000276AF6EE007AB0EE676A66EEA56AA6EE26
:10454000A76AFFEE006ABBFE462A36EE422AB0EEAC
:10455000666AA2EE056AB0EE662AB0EEC66A34EE6E
:10456000C66AA6EE052AE2EE277ABBFE676A77EEF8
:10457000C67AB0EE666AA7EE856AB0EEC66A34EE19
:10458000C66AE6EE056A63EE266AE4EE256AF0EE98
:10459000665A5FED6C7A65EEA75AF0EE087AF4EE93
:1045A000E75AF1EE10FA19DCF8EE087AF4EEE75A61
:1045B000F1EE10FA00F1D183F3EE0B6A65EEA57A05
:1045C000B2EE025AB0EE666AA7EE856A77EEA67A78
:1045D00067EEA55AC5EE867A63EEA73AD4ED2A5A5D
:1045E000F5EEC05AF1EE10FA00F3AB81F0EE636A1B
:1045F000D4ED2B7AF5EEC07AF1EE10FA00F3FA80E2
:104600000B9B69EE266A0E2B00F03481D8F800303F
:10461000B7EE006ADDED0C5A03EB8703C3ED006AC9
:10462000D8F8043003EB8703C3ED006AD4ED047AB5
:10463000CE4B27EE277ADFEDCE6AC7EE297AB7EEAA
:10464000007A37EE888ADDED057AC7EEA97AB4EEF6
:10465000C68AF1EE10FAA8BF38EE468A9FEDC56A09
:1046600083ED008AC44B37EE800ADDED027AC7EE97
:10467000A97AB4EEC70AF1EE10FAA8BF30EE470AE5
:10468000B7EE007A83ED000ABC4B77EEA00ADDEDB1
:10469000037AC7EEA97AF4EEC70AF1EE10FAA8BFC2
:1046A00070EEC70AB7EE007AC3ED000AB44B37EEDE
:1046B000811ADDED047AC7EEA97AB4EEC71AF1EEDD
:1046C00010FAA8BF31EE471AB7EE007A83ED001A50
:1046D000AC4B77EEA22AF6EE007AF4EEC72AF1EEA2
:1046E00010FAA8BF72EEC72AC3ED002AA64B93EDBD
:1046F000007A75EEC75AA5EE867AE7EE267A83ED44
:10470000007AA24B19680131FCEEE77A17EE905A55
:10471000F02D28BFF025EF2984BF9C4B00218D424E
:1047200019609B4B94BF002501251B78AB4205D037
:104730002946984804F072F8954B1D700137069B86
:10474000BB4200F08184119BB7EE006ADDED075A91
:1047500093ED007A009B76EE477AD9ED006AD3EDAF
:10476000003A67EEA57AF4EEEA3AE6EE877AF1EEE1
:1047700010FAC9ED007A7FF553AA9FED876A9FED85
:10478000873AFFF752BA864B93ED004AFFF7E1BA3A
:1047900094ED072A67EE027ACDED057AFFF761BB4B
:1047A000B0EE087AA2EEE07AFFF73CBB9FED7D7A8F
:1047B00096ED004AD6ED014A96ED025A24EE074ADC
:1047C000D6ED035A64EE874A25EE075A65EE875AFE
:1047D00086ED004AC6ED014A86ED025AC6ED035A3F
:1047E000FFF7EBBA9FED706A50E5F0EE081AE2EEC3
:1047F000C21A0EE51F9B48F69F416C4867EEA33A2C
:104800009942D0F88022A8BF19460129ACBF531A9B
:1048100002F1FF33002B02DA03F50C43A0336449A5
:10482000D0EDA15ADFED637A01EB830301EB820146
:10483000013265EEA77A93ED006ADFED5F5A48F624
:104840009F43E6EE257ADDED205A9A42E5EEA73A3F
:10485000C0EDA17AC1ED003A00F38282C0F8802257
:10486000DDED217A0B9BE7EE866A0E2B69EE266A58
:104870007FF4CCAEDFF85CB14FF0000A4F4B9FEDF8
:10488000505ADBF8000003F5987E93F800C0BCF1A5
:10489000000F00F069825A785968002A00F094826B
:1048A000D3ED035AD3ED0A7AF7EE006AF4EEE57A17
:1048B000F1EE10FA4CBF93ED0F6A93ED106A76EEAD
:1048C000C66A66EEA56AE7EE866AC3ED0A6A3AB979
:1048D000DFED3C7AF4EEE76AF1EE10FA00F10986BA
:1048E000F7EE007AD3ED0B5AD3ED114AB025364AD4
:1048F00075EEE75AB0EE676A05FB01252D7EA5EE41
:10490000A46AD3ED025A022D83ED0B6A26EE256AC6
:10491000D3ED065A00F0F083032D00F0E683012D5D
:1049200000F09783F6EE007AF1EE004AF4EEE75AD3
:10493000F1EE10FA40F11B86FFEE007AE5EEA47A64
:10494000B3E3224865EEA35ADFED217A40F2BF4C73
:1049500000F13005DFF880E065EEA75ADFED186A58
:104960000021A5F5813A62463EE000BFE43B022407
:10497000000070436F12833AE83B02244009002490
:104980003C09002430090024383E0324243E03243B
:10499000203E03249C08002400481D3AAED87F3FE7
:1049A0003C3E032477BE7F3F00002042583902245A
:1049B000580900249A99993E3333333F400000242C
:1049C0000000000017B7D139B05A0324BC3D0324BE
:1049D0008FC2753C0C00002480B90108CDCCCC3EC0
:1049E0009A99193F5EF8042B50F804CB4FF4DC631E
:1049F000D5ED007A4FF0000B03FB01C31FED096AF0
:104A00001FED095A0CF1010C0AEB830367EE867A5D
:104A1000944501F1010193ED006AE6EE057AB0EEEE
:104A2000655A76EE866AA8EEA75AE5EC017A83ED20
:104A3000005AB4BF40F804CC40F804BC0829D1D1D6
:104A4000EF4840F25D25DFF8C4C30021A64650F8C8
:104A5000042B40F25D23B0EE666A002403FB0123C1
:104A6000F6EE005A0132013103F55C53AA420AEB1B
:104A70008303D3ED007AA7EEA56A77EEE67AF0EE2F
:104A8000676A83ED006AB4BF40F8042C40F8044C18
:104A9000042902D05CF8045BD9E7F0EE636A9DED6F
:104AA0001E6A7446E6EE276AA2E59FEDD6EAFFF796
:104AB000C6BAB7EE002A3BE4F7EE006A18E4F7EE58
:104AC000004AD7E4F7EE006AB4E4B7EE004A8BE49C
:104AD000F7EE006A52E4B7EE005A11E5F7EE006A0D
:104AE000EEE4F6EE007AB7EE00CAB4EEE71AFFEE97
:104AF000007AF1EE10FA58BFB0EE67CAFFF73EBA7F
:104B000070EEA0BA9FEDC21ADFEDC27ADFEDC2CA25
:104B1000EBEE817A9FEDC11AF5EEC07A27EE811A8D
:104B200067EEACCAF1EE10FA48BFF1EE677AE1EE3B
:104B300067CAF5EEC0CAF1EE6C7AF1EE10FA54BF16
:104B4000B0EE6C1AB0EE671AECEE817A9FEDB41AF3
:104B5000E7EE81CAF1EE6CCAFFF7F0B9B0EE001AC9
:104B6000FFEE00CAE0EE81CAFFF7E8B931EE01CAF4
:104B7000DFEDA7BADFEDA77ADFEDA9DAECEE2B7A4D
:104B80009FEDA5CADFEDA5BAF5EEC07A67EEABBA28
:104B900027EE8CCAF1EE10FA48BFF1EE677AABEE61
:104BA000E7CAB5EEC0CAF1EE4CBAF1EE10FA54BF46
:104BB000F0EE4C7AF0EE6B7AECEE27BAABEEADCAC3
:104BC000B1EE4CCAFFF7DAB9F0EE00BABFEE00CA98
:104BD000A1EE2BCAFFF7D2B9F6EE007AB7EE00BA13
:104BE000B4EEE78AFFEE007AF1EE10FA58BFB0EEAD
:104BF00067BAFFF763B99FED846AFFF747BBF6EE2C
:104C0000007AF7EE00CAF4EEE70AFFEE007AF1EE62
:104C100010FA58BFF0EE67CAFFF790B930EE001AED
:104C2000DFED7B1ADFED7B7A9FED7BDAE1EE217A17
:104C3000DFED7A1AF5EEC07A67EEA11A27EE8DDA6B
:104C4000F1EE10FA48BFF1EE677AA1EEE7DAB5EEC1
:104C5000C0DAF1EE4D7AF1EE10FA54BFF0EE4D1AD3
:104C6000F0EE671AEDEE217ADFED6D1AA7EEA1DA0C
:104C7000B1EE4DDAFFF742B9F0EE007ABFEE00DA9E
:104C8000A0EE27DAFFF73AB9F6EE007AB7EE00DACF
:104C9000B4EEE70AFFEE007AF1EE10FA58BFB0EE7C
:104CA00067DAFFF72BB978EE081ADFED592ADFED46
:104CB000597A9FED59BAE1EEA27ADFED582AF5EE66
:104CC000C07A67EEA22A27EE8BBAF1EE10FA48BF3F
:104CD000F1EE677AA2EEE7BAB5EEC0BAF1EE4B7A22
:104CE000F1EE10FA54BFF0EE4B2AF0EE672AEBEE2D
:104CF000227ADFED4B2AA7EEA2BAB1EE4BBAFFF74C
:104D0000DDB8F0EE007ABFEE00BAA8EE27BAFFF7E2
:104D1000D5B8FFEE006AFFF731BBBFEE005AFFF7D0
:104D2000EFBBFFEE006AFFF7CBBBFFEE006AFFF7B9
:104D3000DFBAFFEE004AFFF79DBBFFEE006AFFF708
:104D400079BBBFEE004AFFF74FBBBFEE002AFFF76B
:104D5000EFBABFEE002AFFF787BAF1EE633A3DE4FF
:104D60000023C0F880327BE5DFED266A4C3335EE58
:104D7000265A9E457FF489ADBAF1000F01D0CBF8D9
:104D80000000F0EE087AB4EEE75AF1EE10FA00F304
:104D90001D84F8EE087AB4EEE75AF1EE10FA00F14D
:104DA0002B84F3EE0B6A65EE057AF2EE025AB0EE52
:104DB000666AA7EEA56A77EEA67A27EE855AC5EE53
:104DC000066A66EE896A21E4DFED0E5A6AE5B0EE06
:104DD00008DAA0EE67DAFFF791B8B0EE08BAA8EEED
:104DE00067BAFFF76BB8F0EE08CAE0EEC1CAFFF78A
:104DF000A5B8B0EE08CAA1EE6BCAFFF7BFB800BFF6
:104E0000DC3D03240000000000401C4770B901088D
:104E1000DB0F4940DB0F49C083F9A23F7B81CF3EC6
:104E20006666663E7BEEABEA1FED06FAF0EE6E7A42
:104E30005FED09EAA7EEAEFA5FED09EA5FED097AE8
:104E4000B5EEC0FA6FEE277A6FEE2EEAF1EE10FAA9
:104E500048BFB1EE4FFAE7EECFEAF5EEC0EAB1EEA9
:104E60006EFAF1EE10FA54BFF0EE6E7AF0EE4F7A71
:104E7000AEEEA7FA5FED167AEFEE27EA6EEEE11AD4
:104E8000FFF76AB9B0EE00FAFFEE00EAEBEE8FEA48
:104E900061EEAE1AFFF760B9F6EE00EAF4EEEEBA94
:104EA000F1EE10FA3FF558A9F1EE611AFFF754B987
:104EB0003CEE0CFA5FED2ABA5FED2AEAEFEE2BEA40
:104EC0005FED2BBA1FED2BFAF5EEC0EA2EEE8FFA4E
:104ED0006EEEABBAF1EE10FA48BFF1EE6EEAEFEE0D
:104EE0006EBAF5EEC0BAF1EE6BEAF1EE10FA54BF0D
:104EF000B0EE6BFAB0EE6EFAEBEE8FEA1FED38FA19
:104F0000EEEE8FBA6BEEE22AFFF70AB9F0EE00EA96
:104F1000FFEE00BAECEE2EBA62EEAB2AFFF700B954
:104F2000F6EE00BAB4EEEBCAF1EE10FA3FF5F8A8CF
:104F3000F1EE622AFFF7F4B83CEEACFA5FED4CBA42
:104F40005FED4CEAEFEE2BEA5FED4DBA1FED4DFA47
:104F5000F5EEC0EA2EEE8FFA6EEEABBAF1EE10FA75
:104F600048BFF1EE6EEAEFEE6EBAF5EEC0BAF1EEC2
:104F70006BEAF1EE10FA54BFB0EE6BFAB0EE6EFAD7
:104F8000EBEE8FEA1FED5AFAEEEE8FBA6BEEE1BA56
:104F9000FFF7A4B8F0EE00EAFFEE00BAECEEAEBA0E
:104FA00061EEABBAFFF79AB8F6EE00BAF4EEEBCAD0
:104FB000F1EE10FA00F1B182F1EE61BAFFF78EB8AE
:104FC0007DEE0DCA1FED6ECA5FED6EBAECEE8CBAC7
:104FD0001FED6FCA5FED6FCAF5EEC0BA6BEEACCADB
:104FE0002BEE8CCAF1EE10FA48BFF1EE6BBAACEEC4
:104FF000EBCAB5EEC0CAF1EE4CBAF1EE10FA54BFEE
:10500000F0EE4CCAF0EE6BCAECEE2CBA5FED7CCA47
:10501000ABEEACCA2CEE62CAFFF744B8F0EE00BAB1
:10502000BFEE00CAADEE2BCA22EE8CCAFFF73AB82B
:10503000F6EE00BAB4EEEBDAF1EE10FA00F181828E
:10504000B1EE62CAFFF72EB823B0BDEC108BBDE8FD
:10505000F08F35EEA54A5FED927A5FED924AE4EE6D
:10506000274A5FED937A1FED934AF5EEC04A24EE8E
:10507000844A64EEA77AF1EE10FA48BFF1EE644A72
:10508000E4EE647AF5EEC07AF1EE674AF1EE10FADA
:1050900054BFB0EE674AB0EE644AE7EE844A1FEDB3
:1050A000A04AE4EE847AF1EE677AB02593ED073AF0
:1050B00005FB0125D5ED054A95F8245067EEA47A45
:1050C000022D78D0032D6FD0012D21D0F6EE004AAD
:1050D000B1EE004AB4EEE43AF1EE10FA40F1428249
:1050E000FFEE004AE3EE044A3EE0F0EE004AFFEE37
:1050F000007AE5EEA47AD8E7F6EE004AF4EEE45A38
:10510000FFEE004AF1EE10FA58BFF0EE647ACCE7F9
:1051100073EE033A5FEDC24A1FEDC24AA3EEA44A02
:105120005FEDC34A5FEDC33AB5EEC04A64EE233A81
:1051300064EE244AF1EE10FA48BFB1EE444AE3EEC1
:10514000C44AF5EEC04AB1EE644AF1EE10FA54BF1B
:10515000F0EE643AF0EE443AA4EEA34A5FEDD03AA2
:10516000E4EE234AF1EE644AB02593ED082A05FBEC
:10517000012595ED084A95F83050E4EE247A022D89
:105180007CD0032D73D0012D23D0F6EE004AB1EE72
:10519000004AB4EEE42AF1EE10FA40F1DE81FFEEAF
:1051A000004AE2EE044A40E0B0EE004AFFEE004A58
:1051B000E3EE044AD8E7F6EE004ABFEE004AB4EE4A
:1051C000E43AF7EE004AF1EE10FA58BFF0EE444A26
:1051D000CAE772EE023ADFEDE84A9FEDE84AA3EE35
:1051E000A44ADFEDE74ADFEDE73AB5EEC04A64EEE8
:1051F000233A64EE244AF1EE10FA48BFB1EE444A75
:10520000E3EEC44AF5EEC04AB1EE644AF1EE10FA9C
:1052100054BFF0EE643AF0EE443AA4EEA34ADFED58
:10522000DA3AE4EE234AF1EE644AB025D3ED093AC6
:1052300005FB012595ED0B4A95F83C50E4EE247AE8
:10524000022D00F04281032D00F03881012D23D082
:10525000F6EE004AF4EEE43AF1EE004AF1EE10FA0E
:1052600040F17681BFEE004AA3EEA44A40E0B0EEE2
:10527000004AFFEE004AE2EE044AD6E7F6EE004AA4
:10528000BFEE004AB4EEE42AF7EE004AF1EE10FA5F
:1052900058BFF0EE444AC8E773EEA31A9FEDB64A32
:1052A000DFEDB64AE1EE844A9FEDB54ADFEDB51A6F
:1052B000F5EEC04A64EEA11A24EE844AF1EE10FA2B
:1052C00048BFF1EE644AA1EEE44AB5EEC04AF1EE01
:1052D000444AF1EE10FA54BFF0EE441AF0EE641AAC
:1052E000E4EE214ADFEDA81AA4EEA14AB1EE444A49
:1052F000B02505FB0125D5ED0E1A95ED14AAE1EEBA
:10530000847AB5EEC0AAF1EE10FAF0EE674A26DD17
:1053100080EA4030D3ED0C7A9FED9C4AE24680EA69
:105320005040B0EE67CADFED9ABA80EA401095EDC2
:105330001EBA01EE900AF8EEE11A91EE84CAECEE84
:105340002B7AC3ED0C7AD1EE847A77EEA77AE1EE70
:10535000C47A67EE8B7AE1EE847AEAEE274AD3EDDF
:10536000057A64EEA77AF0EE084AF4EEE47AF1EEFC
:1053700010FA00F3A080F8EE084AF4EEE47AF1EEB9
:1053800010FA00F1B380B3EE0B4A67EEA74AB2EE13
:1053900002AAF0EE441AE4EE8A1A74EE844A64EE2D
:1053A000A77A87EEA14AB02505FB0125D5ED044A71
:1053B000B02566EE244A05FB0125C4EEA97A77EEF6
:1053C000A55AD3ED0D7A74EE674A93ED0E4AE4EEDA
:1053D000247AF7EE004AF4EEE45AC3ED0D7AF1EECA
:1053E00010FAA8BF75EEE45AD5ED074AB02566EE6F
:1053F000244AC3ED065A05FB0125C4EEA95AD5ED92
:105400000A4AB02505FB012266EE244A35EE833AAE
:10541000F7EE005AB4EEE53AF1EE10FAA8BF33EE1B
:10542000653AC4EEA95A83ED073A35EE822AF7EEC3
:10543000005AB4EEE52AF1EE10FAA8BF32EE652A62
:10544000D2ED0D5A26EE256A83ED082AC6EE295ABA
:10545000B7EE006A75EEA33AF4EEC63AF1EE10FA32
:10546000A8BF73EEC63A9FED4B6A67EE867AB0EE40
:10547000086AC3ED093AF4EEC67AF1EE10FA3FF786
:1054800075ACB8EE086AF4EEC67AF1EE10FA2AD4DA
:10549000F3EE0B5A27EEA76AB2EE024AF0EE654A27
:1054A000E6EE044A36EE256A66EE277A87EEA46AAF
:1054B00066EE866A5AE4B7EE004A74E7F0EE004AF8
:1054C000BFEE004AA3EEA44A12E7F6EE004AB7EE9A
:1054D000004AF4EEE43AFFEE004AF1EE10FA58BF4B
:1054E000B0EE644A04E7F1EE666A3FE4BFEE004ABC
:1054F00059E7DFED296A1A7038E4F0EE08BAECEEED
:10550000EEBA61EEABBAFEF7E9BDB0EE08CAADEE99
:105510006BCA22EE8CCAFEF7C5BDF0EE61BAFEF78B
:10552000DDBDF0EE08EAEBEECFEA61EEAE1AFEF773
:1055300013BEF0EE08BAECEE6EBA62EEAB2AFEF7DE
:10554000EFBDB0EE62CAFEF7ADBD144CFEF737B941
:10555000B0EE084AA3EEE44ACAE6F0EE084AE2EEEC
:10556000444A62E6F0EE084AE3EE444AFCE5F0EE17
:10557000087AE5EEE47A98E5DB0F4940DB0F49C095
:1055800083F9A23F7B81CF3E6666663E0000003015
:10559000CDCC4C3F6666A63F000000008801002489
:1055A000284B94ED1C0A83ED00AA13F065FCD4EDA2
:1055B000257A254BF5EEC07A83ED000AF1EE10FA5C
:1055C0003EF774A9B0EE4A0AFEF77EB9F0EE496ADA
:1055D000FFF71CB8DFED1D7ACDED0C7AFEF784B82D
:1055E0009FED1A0AFEF709B99FED180AFEF733B9C5
:1055F0009FED160AFEF718B9F1EE496AFFF706B8F3
:105600009FED120AFEF7AFB90E4B94ED1C0A83ED25
:1056100000AA13F031FCD4ED257A0B4BF5EEC07ADD
:1056200083ED000AF1EE10FA3EF74BAAB0EE4A0AFB
:10563000FEF755BA9FED050AFEF7C3B99FED030AC1
:10564000FEF7A8B9443E0324303E032400000000C6
:105650000378092B03D110F8013F092BFBD0202B35
:10566000F9D02D2B22D02B2BB7EE000A08BF01302A
:105670000278DFED1F7AA2F13003D9B2092910D8E0
:1056800007EE103AF2EE046A10F8012FB8EEC77A6E
:10569000A2F13003A7EEA67AD9B20929F0EE477A33
:1056A000EED92E2A06D020EE270A7047BFEE000A58
:1056B0000130DDE742780130A2F13003DAB2092A85
:1056C000F1D89FED0C7A10F8012F06EE903AA2F176
:1056D0003003B8EEE66ADFED076ADAB2E6EE077A83
:1056E000092A27EE267AEED920EE270A704700BF56
:1056F00000000000CDCCCC3D0378092B03D110F87D
:10570000013F092BFBD0202BF9D02D2B19D02B2BAF
:105710004FF0010C08BF01300178A1F13002D3B283
:10572000092B17D8002310F8011F03EB830302EBAA
:105730004303A1F13002D1B20929F4D903FB0CF0E3
:105740007047417801304FF0FF3CA1F13002D3B2F5
:10575000092BE7D9002070470B68CBB101380D4900
:1057600030B50D4D00EB030E08E00A8810F801CFAC
:1057700092B2704504F802C00B8008D00B882A88CA
:105780000133064C92B2C3F308039A42EDD130BD07
:10579000704700BF8C4003248E4003248C3E0324BA
:1057A00038B50F4BB0220F4D1C680F480F2C28BF87
:1057B000002402FB04F4291913F044FE295969B1AD
:1057C0000A4C1722204613F087FF094A0020064999
:1057D0001368E07501330C60136038BD0549EFE7CD
:1057E00004000024B05A032488010024743E0324DA
:1057F0003441032490BC0108B5EEC00A014610B53F
:10580000F1EE10FA82B024D42022BDEEC07ADFED92
:10581000136AF6EE007A42F20F73B8EEC76A30EE02
:10582000460AE0EE267AFDEEE77A17EE904A9C42B1
:1058300007DD17EE103AA4F51C540133103C07EEB7
:10584000103A17EE103A0648009402F037F902B009
:1058500010BDB1EE400A2D22D7E700BF00401C4624
:105860009CB90108044B1B7803F0FF001BB1034BEC
:10587000187880F00100704738410324394103242F
:1058800000220249024802F0EFB900BF5957000850
:10589000800800242DE9F04FAF4CB04E23883288A9
:1058A0009BB292B29A422DED028B83B070D0AC4F76
:1058B000AC4D0BE09E2B03DC581CAB4A2860D15446
:1058C0002288338892B29BB29A4261D023889BB2DD
:1058D000FA5C23880D2AD1B203F10103C3F3080354
:1058E00023802B6801D00A29E4D100229E489342EC
:1058F000C25402DC00232B60E2E79C4913F000FF56
:1059000081460028F6D09A49FAF7EAFC002800F010
:10591000898098494846FAF7E3FC804600283CD045
:1059200095494846FAF7DCFC002800F06B81934962
:105930004846FAF7D5FC8046002800F0828090495E
:105940004846FAF7CDFC8046002800F0F0808D49EB
:105950004846FAF7C5FC002800F0C9818A49484644
:10596000FAF7BEFC002800F0B88088494846FAF7EC
:10597000B7FC002800F0F28285494846FAF7B0FCEF
:10598000002800F069824946824802F097F8B1E7A2
:1059900003B0BDEC028BBDE8F08F744913F0B0FE8C
:1059A0008246002800F0BF807B49FAF799FC002866
:1059B00000F082816D49404613F0A2FE8346002824
:1059C00000F0B18075495046FAF78AFC002840F093
:1059D000B18173495846FAF783FC002800F05F82D2
:1059E00070495846FAF77CFC002800F096816E4911
:1059F0005846FAF775FC002840F097816B4B6C4ACB
:105A0000C3F88C200722C3F89020DFF8F0C15A4673
:105A100051466848DCF800300133CCF8003002F021
:105A20004DF867E7514913F06BFE18B1FFF764FEBC
:105A300000286DD1604B002260481A7002F03EF8D9
:105A400058E7DFF868915E48D9F8001002F036F8A0
:105A50005C4B5D48196802F031F84346042209EBBB
:105A60000201032B13D8DFE803F030271E0219F8D8
:105A700002305648013B5649564ADBB251F83810BD
:105A8000022B98BF50F82320534802F017F808F172
:105A900001084F4BB8F12A0F03EBC80300F0D48084
:105AA0009A889B79DBE74A4B19F8022053F83810A3
:105AB0004A4802F003F8EAE7454B59F8022053F848
:105AC0003810464801F0FAFFE1E7414B91ED000A3A
:105AD00053F83800FFF790FED9E7414B414AD3F81D
