:020000040800F2
:1000000000000220A10A00089D0A00086D7B00087C
:100010009D0A00089D0A00089D0A000800000000D3
:100020000000000000000000000000009D0A000821
:100030009D0A0008000000009D0A0008F17A0008EF
:100040009D0A00089D0A00089D0A00089D0A0008F4
:100050009D0A00089D0A00089D0A00089D0A0008E4
:100060009D0A00089D0A00089D0A0008F97600080C
:100070000577000879610008117700081D770008EE
:100080008D360108256C00089D0A00089D0A0008AD
:100090009D0A00089D0A00089D0A00089D0A0008A4
:1000A0009D0A00089D0A00089D0A00089D0A000894
:1000B000852A0108912A01089D2A0108596C000827
:1000C0009D0A0008656C00089D0A0008F5220108D9
:1000D00001230108C1340108ED340108213501086C
:1000E0009D0A00089D0A0008000000009D0A000803
:1000F0009D0A00089D0A00089D0A00089D0A000844
:100100009D0A00089D0A0008A92A01080D2301087C
:100110005535010889350108456400089D0A000825
:100120002D640008396400083123010865230108A3
:10013000C13601089D0A00089D0A00089D0A0008B2
:1001400000000000000000000000000000000000AF
:100150009D0A00089D0A00089D0A0008BD35010897
:10016000716C00089D0A0008017B0008257B0008CF
:100170009D0A0008497B00089D0A00089D0A0008A6
:100180009D0A00089D0A0008F1350108253601087E
:1001900019230108252301089D0A00089D0A00086B
:1001A0009D0A00089D0A00089D0A00089D0A000893
:1001B000197400089D0A00089D0A00089D0A00089D
:1001C0009D0A00089D0A0008355C0008415C000893
:1001D0009D0A00084D5C00089D0A00089D0A000861
:1001E0009D0A00089D0A00089D0A00089D0A000853
:1001F0009D0A00089D0A00089D0A00089D0A000843
:100200009D0A00089D0A00089D0A00089D0A000832
:100210009D0A00089D0A00089D0A00089D0A000822
:100220009D0A00089D0A00089D0A000800000000C1
:100230009D0A00089D0A0008000000009D0A0008B1
:100240009D0A00089D0A00089D0A00089D0A0008F2
:100250009D0A00089D0A00089D0A00089D0A0008E2
:100260009D0A00089D0A00089D0A00089D0A0008D2
:100270009D0A00089D0A0008593601080000000088
:100280009D0A00089D0A00089D0A00080000000061
:08029000000000009D0A0008B7
:1002A00010B5054C237833B9044B13B10448AFF3B0
:1002B00000800123237010BD70070024000000009F
:1002C000A88E010808B5034B1BB103490348AFF3DF
:1002D000008008BD0000000074070024A88E0108FB
:1002E00001F0FF01102A2BDB10F0070F08D010F8E7
:1002F000013B013A8B422DD010F0070F42B3F6D1EB
:10030000F0B441EA012141EA014122F007047FF003
:1003100000070023F0E80256083C85EA010586EA5A
:10032000010685FA47F5A3FA87F586FA47F6A5FA96
:1003300087F68EB9EED1F0BC01F0FF0102F00702A2
:1003400032B110F8013B013A83EA010313B1F8D14D
:100350000020704701387047002D06BF354603382E
:10036000073815F0010F07D1013015F4807F02BF67
:10037000013015F4C03F0130F0BC0138704700BFB8
:1003800081F0004102E000BF83F0004330B54FEA46
:1003900041044FEA430594EA050F08BF90EA020FB3
:1003A0001FBF54EA000C55EA020C7FEA645C7FEA46
:1003B000655C00F0E2804FEA5454D4EB5555B8BF69
:1003C0006D420CDD2C4480EA020281EA030382EADA
:1003D000000083EA010180EA020281EA0303362D6C
:1003E00088BF30BD11F0004F4FEA01314FF4801C3F
:1003F0004CEA113102D0404261EB410113F0004F51
:100400004FEA03334CEA133302D0524263EB430307
:1004100094EA050F00F0A780A4F10104D5F1200EA5
:100420000DDB02FA0EFC22FA05F2801841F1000100
:1004300003FA0EF2801843FA05F359410EE0A5F1D4
:1004400020050EF1200E012A03FA0EFC28BF4CF005
:10045000020C43FA05F3C01851EBE37101F00045BB
:1004600007D54FF0000EDCF1000C7EEB00006EEBC8
:100470000101B1F5801F1BD3B1F5001F0CD3490852
:100480005FEA30004FEA3C0C04F101044FEA4452A9
:1004900012F5800F80F09A80BCF1004F08BF5FEA30
:1004A000500C50F1000041EB045141EA050130BD10
:1004B0005FEA4C0C404141EB0101013C28BFB1F522
:1004C000801FE9D291F0000F04BF01460020B1FA6D
:1004D00081F308BF2033A3F10B03B3F120020CDA40
:1004E0000C3208DD02F1140CC2F10C0201FA0CF01E
:1004F00021FA02F10CE002F11402D8BFC2F1200C83
:1005000001FA02F120FA0CFCDCBF41EA0C01904038
:10051000E41AA2BF01EB0451294330BD6FEA040481
:100520001F3C1CDA0C340EDC04F11404C4F120026C
:1005300020FA04F001FA02F340EA030021FA04F37E
:1005400045EA030130BDC4F10C04C4F1200220FAD5
:1005500002F001FA04F340EA0300294630BD21FA13
:1005600004F0294630BD94F0000F83F4801306BFD9
:1005700081F480110134013D4EE77FEA645C18BFCD
:100580007FEA655C29D094EA050F08BF90EA020F64
:1005900005D054EA000C04BF1946104630BD91EA5C
:1005A000030F1EBF0021002030BD5FEA545C05D15F
:1005B0004000494128BF41F0004130BD14F580049E
:1005C0003CBF01F5801130BD01F0004545F0FE4112
:1005D00041F470014FF0000030BD7FEA645C1ABF47
:1005E000194610467FEA655C1CBF0B46024650EA7E
:1005F000013406BF52EA033591EA030F41F40021AA
:1006000030BD00BF90F0000F04BF0021704730B52F
:100610004FF4806404F132044FF000054FF0000104
:1006200050E700BF90F0000F04BF0021704730B5C5
:100630004FF4806404F1320410F0004548BF40429A
:100640004FF000013EE700BF42004FEAE2014FEAEF
:1006500031014FEA02701FBF12F07F4393F07F4FCA
:1006600081F06051704732F07F4208BF704793F0CD
:100670007F4F04BF41F40021704730B54FF46074E0
:1006800001F0004521F000411CE700BF50EA0102E3
:1006900008BF704730B54FF000050AE050EA01028C
:1006A00008BF704730B511F0004502D5404261EBFC
:1006B00041014FF4806404F132045FEA915C3FF43D
:1006C000D8AE4FF003025FEADC0C18BF03325FEADA
:1006D000DC0C18BF033202EBDC02C2F1200300FA8B
:1006E00003FC20FA02F001FA03FE40EA0E0021FAB0
:1006F00002F11444BDE600BF7BB972B90029BEBF48
:1007000000204FF0004106E008BF00281CBF6FF03A
:1007100000414FF0FF3000F0BFB9ADF1080C6DE9BA
:1007200004CE002909DB002B1ADB00F04DF8DDF8C0
:1007300004E0DDE9022304B07047404261EB41016F
:10074000002B1BDB00F040F8DDF804E0DDE90223BC
:1007500004B0404261EB4101524263EB43037047F6
:10076000524263EB430300F02FF8DDF804E0DDE9CB
:10077000022304B0404261EB41017047524263EBF7
:10078000430300F021F8DDF804E0DDE9022304B0C2
:10079000524263EB4303704753B94AB9002908BF7B
:1007A00000281CBF4FF0FF314FF0FF3000F074B94C
:1007B000ADF1080C6DE904CE00F006F8DDF804E0B8
:1007C000DDE9022304B070472DE9F047089D044697
:1007D0008E46002B4DD18A42944669D9B2FA82F2F4
:1007E00052B101FA02F3C2F1200120FA01F10CFA30
:1007F00002FC41EA030E94404FEA1C48210CBEFB68
:10080000F8F61FFA8CF708FB16E341EA034306FBF0
:1008100007F199420AD91CEB030306F1FF3080F07F
:100820001F81994240F21C81023E63445B1AA4B2CC
:10083000B3FBF8F008FB103344EA034400FB07F76E
:10084000A7420AD91CEB040400F1FF3380F00A81AF
:10085000A74240F207816444023840EA0640E41BA4
:1008600000261DB1D4400023C5E900433146BDE850
:10087000F0878B4209D9002D00F0EF800026C5E9F2
:10088000000130463146BDE8F087B3FA83F6002E0A
:100890004AD18B4202D3824200F2F980841A61EB82
:1008A000030301209E46002DE0D0C5E9004EDDE7A0
:1008B00002B9FFDEB2FA82F2002A40F09280A1EB88
:1008C0000C014FEA1C471FFA8CFE0126200CB1FBDD
:1008D000F7F307FB131140EA01410EFB03F08842D6
:1008E00008D91CEB010103F1FF3802D2884200F263
:1008F000CB804346091AA4B2B1FBF7F007FB1011F5
:1009000044EA01440EFB00FEA64508D91CEB040492
:1009100000F1FF3102D2A64500F2BB800846A4EBED
:100920000E0440EA03409CE7C6F12007B34022FAD8
:1009300007FC4CEA030C20FA07F401FA06F31C4307
:10094000F9404FEA1C4900FA06F3B1FBF9F8200C14
:100950001FFA8CFE09FB181140EA014108FB0EF05A
:10096000884202FA06F20BD91CEB010108F1FF3AAA
:1009700080F08880884240F28580A8F102086144B6
:10098000091AA4B2B1FBF9F009FB101144EA0141C4
:1009900000FB0EFE8E4508D91CEB010100F1FF346F
:1009A0006CD28E456AD90238614440EA0840A0FB07
:1009B0000294A1EB0E01A142C846A64656D353D0DD
:1009C0005DB1B3EB080261EB0E0101FA07F722FA01
:1009D00006F3F1401F43C5E9007100263146BDE82A
:1009E000F087C2F12003D8400CFA02FC21FA03F38D
:1009F000914001434FEA1C471FFA8CFEB3FBF7F00E
:100A000007FB10360B0C43EA064300FB0EF69E4232
:100A100004FA02F408D91CEB030300F1FF382FD2CB
:100A20009E422DD9023863449B1B89B2B3FBF7F673
:100A300007FB163341EA034106FB0EF38B4208D94C
:100A40001CEB010106F1FF3816D28B4214D9023E8D
:100A50006144C91A46EA004638E72E46284605E7AB
:100A60000646E3E61846F8E64B45A9D2B9EB02087C
:100A700064EB0C0E0138A3E74646EAE7204694E70C
:100A80004046D1E7D0467BE7023B614432E730463F
:100A900009E76444023842E7704700BFFEE700BF41
:100AA0000B480C4A904203D0121A0B4915F02AFF4A
:100AB0000A480B4A904203D0121A002115F030FF69
:100AC00007F0B4FA15F0F2FE01F0D0FFFEE700BF28
:100AD000000000246C070024DC8E0108700700244D
:100AE00060630024704700BFC24BD3ED007AF5EE7F
:100AF000C07A2DE9F04FF1EE10FA0F462DED108B74
:100B0000A3B0079201F1A783B0EE677AF7EE007AFF
:100B1000B4EE677AF1EE10FA77FE877ACDED0B7AB4
:100B2000B549B64AB64BD1ED007AD2ED00CAB54907
:100B3000D3ED00FAB44AB54BD1ED009A92ED009A8C
:100B4000B34993ED00FAB34AB34BB448D1ED00EA90
:100B5000CDED087AD2ED00AAD3ED008A03F0DEFCD9
:100B6000AF4AB0EE408AAF4B1268AF4C1B680D2AFB
:100B7000099328BF002223680092934200F09D80D1
:100B8000AA4D02EB021305EBC303D3ED1B7A13014D
:100B9000F5EEC07A0393F1EE10FA41F254839FED23
:100BA000A47ABFEE000A67EE877A67EE887A80EE55
:100BB000270A15F0CBFB039B009A134405EBC303F4
:100BC000D3ED197A9B4BF5EEC07A83ED000AF1EE76
:100BD00010FA41F252839FED967ABFEE000A67EE5B
:100BE000877A67EE887A80EE270A15F0AFFB039BC1
:100BF000009A134405EBC303D3ED1A7A8E4BF5EE3E
:100C0000C07A83ED000AF1EE10FA41F232839FEDD3
:100C1000887ABFEE000A67EE877A67EE887A80EE00
:100C2000270A15F093FB039B009A134405EBC303BB
:100C3000D3ED1D7A814BF5EEC07A83ED000AF1EE1B
:100C400010FA41F212839FED7A7ABFEE000A67EE46
:100C5000877A67EE887A80EE270A15F077FBF0EE48
:100C6000407A009E039BDFF808823344DFF804A239
:100C700005EBC305724B95ED1C0AC3ED007A15F028
:100C8000D7FB002326606F4CDDED087AE360A3609C
:100C9000636023606C4BC8ED007A83ED000A6B4BF8
:100CA000CAED00EAC3ED00CA694BC3ED009A694B77
:100CB000C3ED00FA684B83ED00FADFED5D7A674B18
:100CC000F4EEE7AAF1EE10FA0FDD93ED007AB4EE40
:100CD000E77AF1EE10FA08D8614A117889B100215B
:100CE0001170099A0C2A08D10BE05D4A117871B194
:100CF00000211170099A0C2A09D05A4A1146002283
:100D00000A60514ADFF870B11268CBF80020C3EDD9
:100D100000AA079B002B00F0FC87B1EE087ADFEDFC
:100D2000527A009A0026414D87EE087A02EB0213B0
:100D30001201DFF83C8105EBC303DFF838A1039211
:100D400093F83D203F4C10921A7EDFF82CB114929C
:100D500093F82420159293F8302016928DED0F7A97
:100D600029EEA77A93F83C208DED0C7A29EE277AAC
:100D700068EEA77A17923B4A8DED0D7ACDED0E7A8B
:100D8000D3ED0A7A9FED397ACDED117AD3ED0D7A54
:100D9000CDED127AD3ED167ACDED137AD3ED057A37
:100DA000CDED1E7AD3ED127A67EE677ACDED1D7A1E
:100DB000D3ED087ACDED1F7AD3ED0B7ACDED207A05
:100DC000D3ED0E7ACDED217AD3ED147A0292CDEDEA
:100DD000067AD3ED047A174BCDED187A1993184B98
:100DE0001A931A4B01931A4B1B931A4B1C931A4BD1
:100DF00099467FE24C080024640100245C01002431
:100E000058080024600100245C08002444080024E1
:100E100054080024400800245801002460080024DD
:100E20001000002404000024500100243481010833
:100E30006F12833A3C080024300800243408002450
:100E400038080024AC070024280800244C010024A2
:100E5000480100240C0800248C07002424080024E6
:100E600050080024A807002400D7233C33337340E4
:100E700044010024180800245401002400409C462A
:100E800048E17A3F0AD7233C6666A63F00007043DC
:100E90001FED067AF4EEC75AF1EE10FA00F347851B
:100EA00075EEA55A85EE887ADDED1D5AE5EE856A68
:100EB0005FED0D5AB4EE657AF1EE10FA35FE877AE1
:100EC000F0EE085AF4EEE56AF1EE10FA00F31D8533
:100ED000F8EE085AF4EEE56AF1EE10FA00F1378602
:100EE000F3EE0B4A66EEA65AB2EE021AF0EE641A60
:100EF000E5EE811A75EEA45A65EEA66AC6EEA15A11
:100F0000F0EE086AB4EEE63AF1EE10FA00F3078567
:100F1000F8EE086AB4EEE63AF1EE10FA00F11B863C
:100F2000F3EE0B4A63EE036AB2EE021AF0EE641AB5
:100F3000E6EE811A76EEA46A66EE836AC6EEA14AF0
:100F400075EEE45AF0EE086AA5EE873AB4EEE63A9A
:100F500084ED003AF1EE10FA00F3E584F8EE086A49
:100F6000B4EEE63AF1EE10FA00F10486F3EE0B5A15
:100F700063EE036AF2EE021AF0EE654AE6EEA14A6B
:100F800076EEA56A26EE833AC3EE246AF0EE085A9E
:100F9000F4EEE53AF1EE10FA00F3B384F8EE085AF5
:100FA000F4EEE53AF1EE10FA00F1DD85F3EE0B4ACE
:100FB00063EEA35AF2EE021AB0EE643AA5EEA13A3D
:100FC00075EEA45A65EEA35AC5EE834A76EEE46A3E
:100FD000E7EE263AF0EE086AF4EEE63AC4ED013A9E
:100FE000F1EE10FA00F38984F8EE086AF4EEE63ABE
:100FF000F1EE10FA00F1B385F3EE0B5A63EEA36A3B
:10100000B2EE023AF0EE654AE6EE834A76EEA56A63
:1010100066EEA33AC3EEA46AF0EE085AB4EEE54ACF
:10102000F1EE10FA00F36584F8EE085AB4EEE54AE2
:10103000F1EE10FA00F11886F3EE0B4A64EE045A52
:10104000B2EE023AF0EE643AE5EE833A75EEA45A57
:1010500065EE845AC5EEA34A76EEE46AA7EE264A08
:10106000F0EE086AB4EEE64A84ED024AF1EE10FAB8
:1010700000F33184F8EE086AB4EEE64AF1EE10FAB5
:1010800000F17C85F3EE0B5A64EE046AF2EE023A4C
:10109000F0EE654AE6EEA34A76EEA56A26EE844AAD
:1010A000C4EE246AF0EE085AB4EEE55AF1EE10FAF6
:1010B00000F31B84F8EE085AB4EEE55AF1EE10FA8C
:1010C00000F16085F3EE0B4A65EE055AF2EE023A46
:1010D000B0EE644AA5EEA34A75EEA45A65EE855AB1
:1010E000C5EE844A76EEE46AA7EE265A1FED9B7A97
:1010F000F4EEC72AF1EE10FA84ED035A3BD4B7EEB2
:10110000004AB1EE007AF0EE004AF0EE446A74EE66
:10111000623AE2EE876AB6EE007AF0EE475A66EE81
:10112000856AE6EE875AFFEE006ABBFE653A35EE49
:10113000C33AF0EE665AE3EE245AB0EE663AF0EEA9
:10114000E55A74EE655AA5EEA43AA3EE077AFBFEC3
:10115000475A37EE657AF0EE665AE7EE245AF0EE1B
:10116000E55A74EE655AE5EEA46A62EEA66AE3EE0D
:10117000856AB0EE665A1FEDBC7A25EE075AB0EECE
:10118000087AB4EEC75AF1EE10FA19DCB8EE087A14
:10119000B4EEC75AF1EE10FA00F1F884F3EE0B6AE0
:1011A00025EE057AF2EE024AF0EE665AE7EE245A90
:1011B00037EE267A27EE055A85EE257A26EE076A5F
:1011C000099B2AEE066A0C2B00F0E8849DED187A44
:1011D0003B6867EE877ADDED0B5A03EB86035FED24
:1011E000D56ADC4A87EE887A83ED006A7B681168ED
:1011F00003EB8603CDEE087A83ED006AD64B9FEDB4
:10120000D76A37EE297AF7EE009AB4EEE97A37EE2C
:10121000899ACCEE087AF1EE10FAA8BF37EE697A17
:1012200083ED007AB7EE007ACD4BB4EEC79A77EE35
:10123000A88ACEEE087AF1EE10FAA8BF39EE479AE6
:10124000B7EE007A83ED009AF4EEC78AC54BF1EE53
:1012500010FA37EE800ACDEE887AA8BF78EEC78AFA
:10126000B7EE007AC3ED008AB4EEC70ABE4BF1EECA
:1012700010FAA8BF30EE470A37EE822AB7EE007A9E
:1012800083ED000AF6EE007AB84BB4EEC72AF1EE11
:1012900010FAA8BF32EE472A83ED002AB44B93ED33
:1012A000007A75EEC75AA5EE867AE7EE267A83EDC8
:1012B000007A4B1CFCEEE77A17EE901AF02928BF53
:1012C000F021EF2B84BF0023A24A99421360A94B5F
:1012D00094BF002101211B788B4206D0A6480491BF
:1012E00005F066FAA34B049919700136079BB342C7
:1012F00000F00F85199BF7EE005A9DED086AD3EDBB
:10130000007A019B35EEE77AD8ED006AD3ED004A0A
:1013100027EE067AF4EEEC4AA6EEA77AF1EE10FA82
:1013200088ED007A00F17782944BD3ED003A75EEA8
:10133000E35A1C9B6CEEA55A1B9A93ED003A9FED65
:10134000905AE4EEA35AB4EEEF3ADFED8E6AD9ED8F
:10135000003A92ED004AF1EE10FADFED8B4A9DED76
:101360000CBAF4EECF3A9FED896A54BFF0EE661ADC
:10137000F0EE451ADFED867AA4EE24BA9AED004A23
:1013800054BFF0EE672AF0EE462A9DED0D1AF1EEFD
:1013900010FA0199B4EEEE4A9DED0EAA6FEEA11A75
:1013A000C1ED005A82ED00BAE3EE221A54BFF0EE0E
:1013B000662AF0EE452A54BFB0EE673AB0EE463AE0
:1013C000F1EE10FA6FEE222A48BFF0EE456AC3ED47
:1013D000001A48BFF0EE467A029BE3EE832A9BEDAB
:1013E000005A6EEEA66AE4EE276A93ED004A694B56
:1013F000B4EEEA4AC9ED002AD3ED007AA7EEA41AAA
:10140000F1EE10FACAED006AF7EE007A35EE675A8F
:1014100083ED001A4CBF604B584BD3ED004A029B42
:1014200037EEE46A26EE2A6AA4EE246ADFED564A15
:1014300083ED006A594B93ED004AA4EE24AA83ED94
:1014400000AA1A9BD3ED004AE5EE247AB0EE672A93
:10145000CBED007ADFED417AB4EEE76AF1EE10FAF7
:1014600000F1BE8194ED035A94ED003AD4ED013AB7
:1014700094ED024ADFED397AF4EEE7AAF1EE10FAC4
:101480000CD5DFED477AB4EEE76AF1EE10FA05DD30
:10149000F3EE0E7AE6EE2C7AF0EE67CA414BF1EEEF
:1014A000000ADDED0F7AD3ED004A77EEA44AF7EE9D
:1014B000007AF4EEE74AF1EE10FAA4BF74EEE74AC0
:1014C000384BF6EE007AC3ED004AF4EEE74AF1EE4F
:1014D00010FA40F18081FFEE007AE4EEA07AF7EE98
:1014E000004ADFED310A21EE271A109BF0EE647AF4
:1014F000E1EE207A67EE277A67EE827A002B00F021
:101500006081039B009A9FED292A1344E1EE824AF1
:1015100005EBC30393ED077A27EE877A27EE24DAEB
:101520009DED117A0C4B27EE87CA9DED127AD3ED13
:10153000009A149B27EE87EA9DED137A022B67EE43
:1015400087DA00F0C482032B00F07A81012B00F0CF
:101550008D822DE020080024100800246F12833AA9
:1015600014080024A4070024A007002494070024E2
:101570002C0800241C080024A0080024340800249F
:1015800000D7A33C0012833AA4707D3F48E17A3F24
:1015900077BE7F3F98070024300800240C00002409
:1015A00017B7D1389C070024CDCC4C3DC0956C3D7D
:1015B000B6EE007AF1EE004AF4EEC79AF1EE10FAB8
:1015C00000F14081B0EE087AA9EEE47ADDED1E4A22
:1015D00027EE247A8DED047AD74B93ED009A159B74
:1015E000022B00F04081032B00F03582012B00F02C
:1015F000C981F6EE004AB4EEE49AF1EE004AF1EE4B
:1016000010FA40F16883FFEE000A9DED1F7AE9EEC3
:10161000240A60EE870AC94BD3ED008A169B022B81
:1016200000F03481032B00F00B82012B00F0D981F4
:10163000F6EE004AF4EEE48AF1EE004AF1EE10FA1A
:1016400040F15E83BFEE001A9DED207AA8EEA41A49
:1016500021EE071ABA4B93ED000A179B022B00F0FC
:101660002881032B00F0DF80012B00F03F82F6EE93
:10167000004AB4EEE40AF1EE004AF1EE10FA00F18D
:10168000D480F0EE081A9DED217AE0EE641A21EE86
:10169000877A8DED057ADDED064AF5EEC04AF1EE6A
:1016A00010FA40F3BD80A749A74A0B68D2ED004A63
:1016B00083EA4333DFEDA5BADFEDA51A83EA53438E
:1016C00083EA431307EE103A0B60039B0099B8EED0
:1016D000C72A0B4405EBC30393ED1E7A8DED0A7AFE
:1016E000B0EE647A92EE2B7AE7EE214A9DED0A7A0B
:1016F000C2ED004AD2EE2B4A74EEA44AE2EE6B4AE7
:1017000064EE874AE2EE2B4A9DED062A64EE824A99
:101710009DED047A9DED052A37EE207A8D4B37EE4C
:10172000017A37EE027A93ED002A77EE244AB6EE7C
:10173000007AB4EEC72AB1EE007AF1EE10FA3BD58A
:10174000FFEE001AE2EE071A64EEA11AB7EE007A75
:1017500061EEA61A77EE666AE6EEA41AF0EE086A63
:101760002BEE21BAB4EEE6BAF1EE10FA00F3B08037
:10177000B8EE087AB4EEC7BAF1EE10FA00F1F781CC
:10178000F3EE0B6A2BEE0B7AF2EE021AF0EE664ADB
:10179000E7EE214A37EE267A27EE0BBACBEE246A23
:1017A000B3EE047AF4EEC75AF1EE10FA7FF570AB9F
:1017B000DFED695AFFF776BBF0EE081AE2EE471A42
:1017C000C2E7039B009A134405EBC30393ED077A2A
:1017D00027EE87DAA4E6F0EE087AE4EEE07A7EE619
:1017E000DFED5E7A94ED003AD4ED013A94ED024AD1
:1017F00023EE273A94ED035A63EEA73A24EE274AE4
:1018000025EE275A84ED003AC4ED013A84ED024AF0
:1018100084ED035A2EE6DFED525ADFED523A88E5A9
:10182000DFED514A74E7F0EE004AFFEE001A9DED3D
:10183000217AE0EE241A21EE877A8DED057A2AE7E7
:10184000F0EE004ABFEE007A3B4B93ED009AA9EE12
:10185000A47ADDED1E4A159B022B27EE247A8DED2E
:10186000047A7FF4C0AEF6EE004AB4EEE49AF1EEEC
:1018700010FA00F13982314B9DED1F7AD3ED008AC9
:10188000169BF1EE470A022B7FF4CCAEF6EE004A2F
:10189000F4EEE48AF1EE10FA00F12982284B9DED76
:1018A000207A93ED000A179BB1EE471A022B7FF4C2
:1018B000D8AEF6EE004A9DED217AB4EEE40AF1EEE0
:1018C00010FA00F11A82B1EE477A8DED057AE2E660
:1018D000F0EE476A64E7F0EE085AF7EE006AB4EEFD
:1018E000E55AF1EE10FA7FF7E5ABF7EE004AFFF7A5
:1018F000F9BBF7EE004AFFF7AFBBF7EE006AFFF760
:101900008BBBF7EE004AFFF761BBF0EE086AF7EE1B
:10191000005AB4EEE63AF1EE10FA7FF7F9AAF7EEC4
:10192000004AFFF70DBBF7EE006AFFF72FBBDFEDB4
:101930000F5AFFF7B7BA00BF14080024A407002409
:10194000A0070024080000249007002400000030B5
:10195000CDCC4C3F940700240000204277BE7F3F4F
:1019600000481D3AAED87F3F0000000000401C47F1
:10197000DB0F4940DB0F49C083F9A23F7B81CF3E9B
:101980006666663E79EE091A1FED072A5FED074A83
:101990005FED070AE1EE824A1FED082A9DED1F7AEE
:1019A000F5EEC04A24EE822A64EEA00AF1EE10FAA7
:1019B00048BFF1EE644AE2EE640AF5EEC00AF1EEC9
:1019C000604AF1EE10FA54BFB0EE602AB0EE642A1D
:1019D000E0EE824A1FED162AE4EE820A60EEC70AA4
:1019E00019E678EEA81A1FED1E2A5FED1E4A1FEDBC
:1019F0001E1AE1EE824A1FED1F2A9DED207AF5EEB8
:101A0000C04A24EE822A24EE811AF1EE10FA48BF71
:101A1000F1EE644AA2EE641AB5EEC01AF1EE414A44
:101A2000F1EE10FA54BFB0EE412AB0EE642AE1EEB6
:101A3000024A1FED2D2AA4EE821A21EE471A09E66A
:101A4000F0EE004A9DED207ABFEE001AA8EEA41A2F
:101A500021EE071AFEE5F0EE004A9DED1F7AFFEE3B
:101A6000000AE9EE240A60EE870AD4E539EEA92AD5
:101A70001FED417A5FED414AE2EE074A1FED427ADF
:101A80001FED422AF5EEC04A24EE822A24EE877A20
:101A9000F1EE10FA48BFF1EE644AA2EE647AB5EEB8
:101AA000C07AF1EE474AF1EE10FA54BFB0EE472A81
:101AB000B0EE642AE7EE024A1FED4F2AA4EE827AC6
:101AC000DDED1E4A27EE647A8DED047A84E5B6EEEC
:101AD000007AF4EEC79A9DED1E7AF1EE10FA00F14D
:101AE0000981B1EE477A8DED047A75E570EE001A42
:101AF0001FED612A5FED614A9DED217AE1EE824A98
:101B00005FED631A1FED632AF5EEC04A24EE822AC8
:101B100064EEA11AF1EE10FA48BFF1EE644AE2EE6B
:101B2000641AF5EEC01AF1EE614AF1EE10FA54BFF4
:101B3000B0EE612AB0EE642AE1EE824A1FED702A0F
:101B4000E4EE821A21EEC77A8DED057AA3E5FFEE69
:101B5000005AFFF7D5B9FFEE004AFFF7F1B9FFEEE3
:101B6000006AFFF759BAFFEE004AFFF72FBAFFEEFF
:101B7000006A15E6FFEE006AFFF708BAFFEE006A9A
:101B8000FFF790BAFFEE004AFFF7ACBA099BB1EE3F
:101B9000466A0C2B2AEE066A7FF418AB0022C54B6E
:101BA0009FEDD05A0492C44A106893F800E0BEF149
:101BB000000F5DD05A785968002A00F08980D3ED73
:101BC000035A93ED0A7AF7EE006AB4EEE57AF1EE85
:101BD00010FA4CBF93ED0F6A93ED106A76EEC66A69
:101BE00066EEA56AE7EE066AC3ED0A6A3AB99FEDAA
:101BF000B37AF4EEC76AF1EE10FA00F10C83B7EE97
:101C0000007AD3ED0B5AD3ED114A01EB011293ED9B
:101C1000063A75EEC75A05EBC202B0EE476A92F873
:101C200018C00A01A5EEA46ABCF1020FD3ED025A56
:101C300083ED0B6A26EE256A00F0C880BCF1030F25
:101C400000F0BD80BCF1010F68D0B6EE007AF1EE75
:101C5000005AB4EEC73AF1EE10FA40F1EF82BFEE4F
:101C6000007AA3EE257A85E0FFEE004AFFF7F4B98B
:101C7000DFED9C6A4C33924A35EE265A934294D15A
:101C8000049B0BB18C4B1860B0EE087AB4EEC75AC7
:101C9000F1EE10FA00F3DB82B8EE087AB4EEC75A20
:101CA000F1EE10FA00F1DD82F3EE0B6A25EE057A13
:101CB000B2EE026AF0EE665AE7EE065A37EE267A80
:101CC00027EE055A85EE256A26EE0A6AFFF77EBAE8
:101CD000DFED845A75E7F0EE080A9DED1F7AE9EE14
:101CE000640A60EE870A96E4DDED1F0A93E49DED39
:101CF000201AAFE48DED047A6EE48DED057ACAE426
:101D0000B0EE081A9DED207AA8EEE41A21EE071A2B
:101D1000A0E423B0BDEC108BBDE8F08F73EE034A56
:101D20009FED687ADFED685AE4EE875A9FED677A97
:101D3000DFED674AF5EEC05A65EEA44A25EE877AD4
:101D4000F1EE10FA48BFF1EE655AA4EEE57AB5EE71
:101D5000C07AF1EE475AF1EE10FA54BFF0EE474A5E
:101D6000F0EE654AE7EE245ADFED5A4AA5EEA47A72
:101D7000B1EE477A02EB010CD3ED073A05EBCC0C40
:101D8000DCED055A9CF824C027EE257ABCF1020F41
:101D900000F08180BCF1030F76D0BCF1010F21D09F
:101DA000F6EE005AF1EE004AF4EEE53AF1EE10FAE2
:101DB00040F13F82FFEE005AE3EEA45A3EE0F0EE1F
:101DC000005ABFEE007AA3EE257AD3E7F6EE005A6A
:101DD000B4EEE53AFFEE005AF1EE10FA58BFB0EE5D
:101DE000657AC7E733EEA34ADFED365ADFED364AB0
:101DF000E4EE254ADFED355A9FED354AF5EEC04A4F
:101E000024EE844A64EEA55AF1EE10FA48BFF1EED2
:101E1000644AE4EE645AF5EEC05AF1EE654AF1EE1A
:101E200010FA54BFB0EE654AB0EE644AE5EE844A5B
:101E30009FED284AE4EE845AF1EE655A02EB010C5C
:101E400093ED084A05EBCC0CDCED084A9CF830C059
:101E5000A4EEA57ABCF1020F00F09F80BCF1030F45
:101E600000F09480BCF1010F3ED0F6EE005AF1EE86
:101E7000004AB4EEE54AF1EE10FA40F1D581FFEEEA
:101E8000005AE4EE245A5BE0F0EE004AFFEE005AFE
:101E9000E3EEA45AD2E7F6EE005AFFEE004AF4EE63
:101EA000E53AF7EE005AF1EE10FA58BFF0EE645A38
:101EB000C4E700BF140000240800002417B7D1397C
:101EC00044010024DB0F4940DB0F49C083F9A23FE6
:101ED0007B81CF3E6666663E00000030CDCC4C3F35
:101EE0006666A63F0000000074EE042A5FED0B5A00
:101EF0005FED0B4AE2EEA54A5FED0C5A5FED0C2A4E
:101F0000F5EEC04A64EEA22A64EEA55AF1EE10FA8C
:101F100048BFF1EE644AE2EEE45AF5EEC05AF1EE43
:101F2000654AF1EE10FA54BFF0EE652AF0EE642A2D
:101F3000E5EEA24A5FED192AE4EEA25AF1EE655AE7
:101F400002EB010CD3ED094A05EBCC0CDCED0B2ABE
:101F50009CF83CC0A2EEA57ABCF1020F00F04781CC
:101F6000BCF1030F00F03C81BCF1010F23D0F6EE71
:101F7000005AF1EE002AF4EEE54AF1EE10FA40F1D3
:101F80004E81FFEE005AE4EEA25A40E0F0EE004A25
:101F9000FFEE005AE4EE245AD2E7F6EE005AFFEEC6
:101FA000004AB4EEE54AF7EE005AF1EE10FA58BFD7
:101FB000F0EE645AC4E774EEA41A5FED3E5A5FED8A
:101FC0003E2AE1EEA52A5FED3F5A5FED3F1AF5EE9E
:101FD000C02A62EEA11A62EEA55AF1EE10FA48BFCD
:101FE000F1EE622AE1EEE25AF5EEC05AF1EE652A10
:101FF000F1EE10FA54BFF0EE651AF0EE621AE5EE5B
:10200000A12A5FED4C1AE2EEA15AF1EE655A02EBFD
:10201000010C05EBCC0C9CED141ADCED0E2AB5EE90
:10202000C01AA2EEA57AF1EE10FA27DD80EA403060
:10203000D3ED0C5A5FED582A80EA5040F0EE65BAB5
:102040001FED5ABA80EA4010DCED1E0ACDF810E010
:1020500001EE900AF8EEE11AD1EEA2BAEBEE8B5A3D
:10206000C3ED0C5AD1EEA25A75EEA55AE1EEE25A32
:1020700065EEA00AE1EEA20AA1EE207AD3ED055AA0
:1020800027EE257AF0EE085AB4EEE57AF1EE10FA72
:1020900000F3A380F8EE085AB4EEE57AF1EE10FAF8
:1020A00000F1B680F3EE0B2A67EE075AB2EE021A81
:1020B000F0EE621AE5EE811A75EEA25A25EE877AE5
:1020C000C7EE212A02EB010C05EBCC0CDCED045A27
:1020D00002EB010C66EE255A05EBCC0C85EE887AF6
:1020E00037EE033A93ED0D7A72EEC75AD3ED0E2A0E
:1020F000A2EEA57AF7EE005AB4EEE53A83ED0D7A3A
:10210000F1EE10FAA8BF33EE653A83ED063A9CED86
:10211000073A02EB010C0A4426EE033A05EBCC0C1D
:1021200005EBC202C3EE085A75EEA33AF7EE005A69
:10213000F4EEE53AF1EE10FAA8BF73EEE53AC3ED1E
:10214000073ADCED0A3A66EE233AC3EE885A35EEDA
:10215000844AF7EE005AB4EEE54AF1EE10FAA8BF51
:1021600034EE654AD2ED0D5A26EE256A83ED084A13
:10217000C6EE085AB7EE006A75EEA44AF4EEC64AF7
:10218000F1EE10FAA8BF74EEC64A1FEDAB6A27EE57
:10219000067AB0EE086AC3ED094AB4EEC67AF1EEEB
:1021A00010FA3FF767ADB8EE086AB4EEC67AF1EE02
:1021B00010FA2AD4F3EE0B5A27EE076AB2EE024A5F
:1021C000F0EE654AE6EE044A36EE256A26EE077A18
:1021D00087EE246A66EE866A4CE5F7EE002A71E720
:1021E000F0EE002AFFEE005AE4EEA25A0FE7F6EEF8
:1021F000005AFFEE002AF4EEE54AF7EE005AF1EE3F
:1022000010FA58BFF0EE625A01E7F1EE666A31E566
:10221000FFEE002A56E75FEDCD6A1A702AE5F0EE70
:10222000085AE4EEE25AF2E6F0EE085AE4EE645A96
:1022300086E6F0EE085AE3EEE45AFFE5B0EE087ADF
:10224000A3EE657A96E51FEDD90AFEF7B4BCB0EEB1
:102250004A6AFEF7BBBF5FEDDD7ACDED0B7AFEF784
:102260005FBCB1EE4A6AFEF7B1BF5FEDE27AFEF7FE
:10227000F8BC1FEDE40AFEF7D6BC1FEDE60AFEF738
:10228000B6BC00BF2DE9F041002482B01C4E0123F2
:10229000DFF8788022461B4D3046D8F800101A4FE0
:1022A000009404F093F9052005F0D4FC2246396827
:1022B00001232846009404F089F9052005F0CAFCA2
:1022C00023460122D8F800103046009404F07EF92D
:1022D0002146304604F06CFA052005F0BBFC23468D
:1022E000012239682846009404F070F928462146F6
:1022F00004F05EFA052002B0BDE8F04105F0AABC8A
:10230000C8080024B40800241C880108208801089B
:1023100070B5002482B0144D0122144E2346284685
:102320000094316804F052F92146284604F040FA3E
:10233000052005F08FFC0E4A01230E481168224645
:10234000009404F043F9052005F084FC284601239D
:1023500022463168009404F039F9052002B0BDE846
:10236000704005F077BC00BFC80800242088010831
:102370001C880108B40800242DE9F041072582B02B
:10238000DFF8E4800746354E25E06246D8F80010B5
:10239000CDF800C004F01AF90024052005F05AFC1D
:1023A0000123224631682E48013D009404F00EF9C5
:1023B000052005F04FFC234601222948316800948E
:1023C00004F004F92146264804F0F2F9052005F04E
:1023D00041FC6B1C14D0012247FA05F14FF0000CB0
:1023E000204811EA02041346CFD1D8F80010234642
:1023F000009404F0EBF821461A4804F0D9F9CBE731
:102400002246D8F8001001231648009404F0DEF8A4
:10241000052005F01FFC2246316801231048009476
:1024200004F0D4F8052005F015FC0E4804F0B4F9CA
:1024300023460122316805460094094804F0C6F895
:102440002146074804F0B4F9052005F003FC85F0A7
:102450000100C0B202B0BDE8F08100BF1C880108D5
:10246000B4080024C8080024208801082DE9F0439E
:10247000002283B0DFF8F480074601233848D8F8FB
:102480000010914600920725364E04F09FF8002474
:10249000052005F0DFFB0123224631683248009415
:1024A00004F094F8052005F0D5FB2D4804F074F9EC
:1024B00001218646234601FA05FC0A462A48013DC9
:1024C0003168BEF1000F03D04CEA090C5FFA8CF9B9
:1024D000009404F07BF82146234804F069F96B1C52
:1024E000D5D1002F33D0D8F8001023461C48012244
:1024F000009404F06BF82146194804F059F90024BF
:10250000052005F0A7FB31682246012316480094F8
:1025100004F05CF8052005F09DFB2346012231689C
:102520001148009404F052F821460F4804F040F995
:10253000052005F08FFB01232246D8F8001008483B
:10254000009404F043F8484603B0BDE8F08301234B
:102550003A46D8F800100248009704F037F8CEE762
:10256000C80800241C880108B40800242088010839
:1025700038B504460D46FFF785FEB420FFF7FCFE94
:1025800060B12046FFF7F8FE40B12846FFF7F4FEA1
:10259000044618B1FFF7BCFE204638BD0024FFF703
:1025A000B7FE204638BD00BF2DE9F04104460E4677
:1025B0001546FFF767FEB420FFF7DEFE08B320469E
:1025C000FFF7DAFEE8B1FFF75DFEB520FFF7D4FEB6
:1025D0000746B0B185B1013D741E56FA85F8C6F1C3
:1025E000010630198542D4BF00200120FFF73EFFCD
:1025F00004F8010F4445F4D1FFF78AFE3846BDE8E0
:10260000F0810027FFF784FE3846BDE8F08100BF67
:1026100010B5632182B080204124FFF7A9FF0A2072
:1026200005F016FB00215E20FFF7A2FF01212B2001
:10263000FFF79EFF01212C20FFF79AFF10212D208C
:10264000FFF796FF20212E20FFF792FF01212F2078
:10265000FFF78EFF01213020FFF78AFF1021312084
:10266000FFF786FF20213220FFF782FF0021332071
:10267000FFF77EFF00213420FFF77AFF002135208D
:10268000FFF776FF04212046FFF772FF601C02343B
:102690000221C0B2E4B2FFF76BFF592CF2D1112135
:1026A0005B20FFF765FFF0215C20FFF761FF4C2105
:1026B0005D20FFF75DFF8C215E20FFF759FF64204E
:1026C00005F0C6FA002301220DF107015E208DF806
:1026D0000730FFF769FF9DF80700A0F18C00B0FA02
:1026E00080F0400902B010BD10B586B00446182233
:1026F00004206946FFF758FFA01E6A4606AC5378CF
:1027000012F8021B1B02944203F4407343EA0103D4
:1027100020F8023FF3D106B010BD00BF2DE9F04113
:1027200092B02025002407460DF118083022002120
:10273000404614F0F5F868464646FFF7D5FF6A466E
:10274000414600E00C6832F8023B2344424541F820
:10275000043BF7D1052005F07BFA013D01D0069C32
:10276000E9E7BA1E163756F8043B5B0922F8023F28
:10277000BA42F8D112B0BDE8F08100BFA0F10A0260
:102780001C4B002A53F8211030DD814230DD42F22B
:1027900010700A3900FB02F292FBF1F38342A8BFEA
:1027A0000346002B1A46B8BF5A1C5210511C93FB0B
:1027B000F1F2521848BF0132511093FBF1F2521856
:1027C00048BF0132521093FBF2F18A1848BF013220
:1027D000521093FBF2F313445A1C07DB002BB8BFD3
:1027E000013358106428A8BF642070470020704748
:1027F00064207047048101082DE9F04FB2F1000B0D
:1028000095B0039140F3B7800B460BEB8B0103EBC4
:102810008101002203F8142B9942FAD1044608AE34
:1028200000F130072068103454F80C1C354654F879
:10283000082C103654F8043CBC420FC5F2D14FF0BE
:10284000000A5B465646002208A81546144650F872
:10285000041BA94201DD14460D4601320C2AF6D1B3
:10286000092D27DD56B304AD002101E08E4225D0AD
:1028700055F8042B0131A01A48BF101B0328F5DCC2
:10288000A51E04F1020808AA02EB85020B2D4FF0E9
:10289000000105F1010502F1040298BF42F8041C91
:1028A0004545F3DD0AF1010A32465645B8BF5246A6
:1028B0009A42C8DB304615B0BDE8F08F04F102083B
:1028C000A51EB8F10B0FC34625EAE571A8BF4FF06E
:1028D0000B0B8B454ADB6FF0404C4FF0000908AA08
:1028E0000BF1010B8C440846CE464F4602EB8C0C94
:1028F0005CF8042F22EAE2724A4500FB02EE17441C
:1029000001DD0146914601308345F1D187B34FF493
:102910007A7202FB0EFE07EB870207EB4207BEFB53
:10292000F7F7B7F57A7FA8BF4FF47A7706EB860200
:1029300048464FEA860B0293019201360091FFF759
:102940001DFF0BF15003019A4FF0010C00990DEBA4
:10295000030B039B4BF8404C03EB820403F822C0AB
:10296000029BC4E90170C4E903198CE74FF0000928
:102970004FF0FF37DAE70026304615B0BDE8F08F9C
:102980002DE9F0470023384E82B006F1500901933B
:1029900033461A789AB914334B45FAD100290BDD26
:1029A00001EB810101AD00EB810115F8013B002B2A
:1029B00038D014308842F8D102B0BDE8F087002941
:1029C0004EDD0DF1040E844600224FF0FF384FF02B
:1029D000C90A1EF8014B4CB9DCF804405D68671B5E
:1029E00048BF2F1BBA4501DD9046BA4601320CF1B3
:1029F000140C9142EDD1B8F1FF3F31D008EB8802C1
:102A000008F1080400EB82020DEB0408012408F829
:102A1000044C54685C6094689C60D4681269DC6003
:102A20001A61B8E732461478143234B10133042BFA
:102A3000BFD014781432002CF8D103EB8303D0F804
:102A400010C0446806EB8302D0E902E7C2E9014EF8
:102A5000C2E9037C012206F8232005F8012CA8E72F
:102A600000221A7097E700BFBC0700242DE9F04F41
:102A700000219E4800242DED108BF5B001F02AFEB8
:102A800004219A4801F04EFD41F2883005F0E0F84B
:102A900097490123224609689648009403F096FD61
:102AA00095490123224609689448009403F08EFD5D
:102AB000FFF7AEFD2DAB002841F04E840B930024B0
:102AC0000125022628A98E4829962C94CDE92A456D
:102AD00003F0C6FC31462246894803F03FFD894B8E
:102AE0002A46894819682346009403F06FFD214661
:102AF000854803F05DFE03238DF8504032468DF883
:102B0000513023A8149903F0A7F82A46042323A9D7
:102B10007E48254603F0B4F87C4803F0BFFA05F080
:102B200095F8064607E003F0CFFA03460A20013481
:102B30001D4405F08DF805F089F80346002173481F
:102B40009B1BB3F5FA6FEED3002C01F0108442F218
:102B50003412B7EE007AB5FBF4F39BB2934238BF60
:102B600013461193A3F5FA5307EE903AF8EEE77A7D
:102B7000C7EE277ACDED137A654B0025654F1C68AB
:102B8000654A04EB0413654E654907EBC3035748D8
:102B900093ED018A634B78EE087AC2ED007A624ABF
:102BA0001360356001F0B6FC604BC820336005F05F
:102BB0004FF83220356005F04BF8002002F072FF2C
:102BC0005B4802F061FF5B4802F05EFF504B25015D
:102BD0001B680C2B1E46A8BF0C26002BC1F2D0830D
:102BE00000233A46194692F87C000133883200B936
:102BF0000131B342F7DD474B0022059393F87C0087
:102C0000883300B901324C489842F7D1059B2544DE
:102C1000BDEEC88A494803EBC50453F83530D4EDFE
:102C2000027A8DED008AFDEEE77ACDED017A02F0B1
:102C30002BFF434802F028FF94F83D30002B01F0B1
:102C40008683404802F020FFDFED3F8AB7EE00AAFE
:102C50003E4833AF02F018FF3D4802F015FFF0EE9A
:102C6000689A3C48B0EE689A02F00EFF3A4D04F0C4
:102C7000EDFF089004F0EAFF0A9004F0E7FF00235C
:102C80000C901293159310930793CDE91733CDE968
:102C90001933CDE91B33CDE91D33CDE91F33CDE920
:102CA00021330021194803F00FFAB0F5FA5F00F262
:102CB000FA852A4B9FED248A83ED008A04F0C6FF33
:102CC000109B0890002B40F0D987089B03F6B83280
:102CD00010930A93129238460124FFF705FD47AB83
:102CE00038460B9A1946AC460E9341E06008002422
:102CF00020880108C80800241C880108B4080024A2
:102D00008008002424880108A008002478080024F2
:102D100004000024348101086401002440080024D8
:102D2000E90A00080000C8425C010024CDCCCC3E7A
:102D3000B47D0108C87D01081C880108DC7D0108FC
:102D4000F87D01081C7E0108000000006C7E01086F
:102D5000A07E0108C07E0108BC07002458010024A1
:102D60009C420B6001F10401B8BF1C4697420ED093
:102D700032F8023B002530F8026B9B1BF0D52B4646
:102D80000D6004319C42B8BF1C469742F0D104222A
:102D900060A947A86546FFF72FFDB0F1000840F392
:102DA000B98504F053FF089004F050FF0A904146A3
:102DB00060A8FFF7E5FD2B780693002B40F0BD8659
:102DC000079B002B00F0B586DD4BD3F80080B8F1EF
:102DD0000C0F02D01B68DB4A13600023DA4D0DF1A3
:102DE0007C09169339930F9504F030FF16AB39A97F
:102DF0000DF16C0E0DF1540C9A460D9317AA2B464B
:102E0000099493F800B0BBF1000F00F0C6840126CE
:102E1000B8F10C0F10600E7000F0C984C94E059C0B
:102E2000366806EB061604EBC60696ED217AD3ED5E
:102E3000027A9CF80060F8EEE77A002E40F0E78412
:102E40000126CEED007AC9F800008AF8006014333C
:102E5000BE4E01310EF1040E9E420AF1010A09F143
:102E600004090CF1010C02F10402CAD1B8F10C0FF3
:102E7000099C00F082879DF858302BB19DF85430A2
:102E800013B10123B24A13709DF8E4308DF8543029
:102E90009DF8E5308DF855309DF8E6308DF85630C8
:102EA0009DF8E7308DF85730A64B1E68069B002B27
:102EB00000F02186D5ED017A9FEDA67AF8EEE77A4B
:102EC00087EE87DAB5EEC0DAF1EE10FA00F1398656
:102ED000B7EE007AB4EEC7DAF1EE10FA37FE0D7AEB
:102EE000D5ED027ADFED9C6AF8EEE77AC7EEA6DA56
:102EF000F5EEC0DAF1EE10FA00F14A86B7EE00CA3C
:102F0000F4EECCDAF1EE10FA3CFE2DCA06EB061315
:102F1000059AF6EE006A9FED916A02EBC303F7EEA5
:102F2000007A4FEA0619D3ED035AD3ED01BA27EE22
:102F3000257AD3ED02CAE7EE066AB0EE676AA6EE1E
:102F4000876AE6EE077A6BEEA77AF4EEE7BAF1EE5F
:102F500010FA00F30A86F4EE6C7AF1EE10FA7CFEB9
:102F6000A77AF4EEE7BAF1EE10FA40F30086B5EE78
:102F7000C0CAF0EE6BCAF1EE10FA00F10586F7EE6A
:102F8000007AB4EEE7CAF1EE10FA0FDCB1EE086A8F
:102F9000FAEE0E6AF2EE047A2CEE0C7AECEE066A89
:102FA00027EE0C7AECEE267A67EE277A09EB060319
:102FB000059A9FED6B5AB6EE007A02EBC303DFED84
:102FC000695ADFED666AB7EE00BAD3ED114A9FED9C
:102FD000666A67EEA47AD3ED150AF4EEC60A67EEC8
:102FE000857AF1EE10FAE7EEA56AA6EEA77AF0EE82
:102FF0004B6AE7EE276AA6EEA7BAB0EE4BEAC0F23C
:103000001386B0EE6CBA09EB0603059AF3EE047A68
:1030100002EBC303D3ED10BA2BEE2BBA2BEE0EBA94
:10302000B4EEE7BAF1EE10FA00F19B85DFED4F7ACE
:10303000B4EE67BAF1EE10FA37FE8BBADFED4C7AD8
:10304000DFED4C6A7CEE677A87EEA67AB5EEC07A41
:10305000F1EE10FA00F17985F7EE007AB4EEE77A36
:10306000F1EE10FA01F39280B0EE006ADFED426AF1
:10307000F0EE087A27EE07EAE7EE467A2EEE27EA28
:103080002EEE26EAB5EEC0CAF1EE10FA00F1658523
:10309000F7EE007AB4EEE7CAF1EE10FA09DCF0EED2
:1030A000006AB0EE087A6CEE0C7AACEE667A67EEE7
:1030B000877A09EB0603059AF7EE00BA02EBC30321
:1030C00093ED137A079BE7EE27BAABB904F0BEFD88
:1030D000B0EE4CAA04F0BAFDD5ED017ADFED1D6A21
:1030E000F8EEE77A9FED1C7A87EEA6DAD5ED027A44
:1030F000F8EEE77AC7EE87DA204BB144DFED206ABD
:10310000C3ED00CA059BF7EE007A1E4A03EBC9091E
:103110001D4B99ED207A83ED00BA77EEC77A1B4BF1
:1031200083ED00EAE7EE0A7A194BC3ED00BA0123FA
:103130001370184B67EEA67AC3ED007A32E000BF39
:103140000400002410000024BC0700240C08002404
:103150005008002400007A440000C84268B32A3EA8
:10316000006F313F9FCD2A3D77BE7F3F00A08C4648
:103170009A99193FCDCCCC3ECDCC4C3F6401002474
:10318000EC51383F480800245C0100245C0800240E
:10319000600100244008002400000000CDCCCC3D9C
:1031A00000F07F45B5EEC0DAF1EE10FA00F1F784D9
:1031B000F7EE007AB4EEE7DAF1EE10FAF5EEC0DAE7
:1031C00000F3DC87F1EE10FA41F16480F6EE006A5C
:1031D000B0EE006AFFEE00CAB6EE08CA7DEE666A7F
:1031E000F0EE67BAEDEE06CAF0EEE66AEDEE46BA2C
:1031F000E6EEC67AB0EE677AF5EEC0BAF1EE10FAF6
:10320000F5EEC0CA48BF5FED1CBAF1EE10FAB5EE9C
:10321000C07A48BF5FED20CAF1EE10FA41F1898013
:103220001FED237AB1EEC70AB5EE400AF1EE10FAAF
:1032300001F11A81B1EEC07AF5EE40BA2CEE07BA70
:10324000F1EE10FA01F10A81B1EEEB0AB5EE400A97
:10325000F1EE10FA01F11A81F1EEC06AF5EE40CA02
:103260006CEE26BAF1EE10FA01F10A81B1EEEC0A29
:10327000B5EE400AF1EE10FA01F1FC80F1EEC07AF1
:10328000079B1FED3A7A83F001036CEE277ADBB2DD
:1032900067EE877A002B00F0B484069B002B00F0C9
:1032A000B084F0EE678AF0EE6B9AB0EE4B9A1FEDA9
:1032B00044BA0021D14869EE0B7AFCEEE77A17EEAA
:1032C000903A9AB203F04AF929EE8BBA0121CB4821
:1032D000BCEECBBA1BEE103A9AB203F03FF9C84BE2
:1032E000C3ED008A2B7D002B00F0C882B8F10C0FD3
:1032F00000F0C482D5ED067ADFEDC26AF8EEE77A17
:1033000087EEA67AB5EEC07AF1EE10FA00F1888465
:10331000F7EE007AB4EEE77AF1EE10FA00F38A875E
:10332000F6EE007AF0EE085A37EE677A67EE255A25
:10333000D5ED077ADFEDB46AB8EEE77AC7EE267A04
:10334000F5EEC07AF1EE10FA00F16684B7EE006A8D
:10335000F4EEC67AF1EE10FA40F33184F0EE467ADC
:10336000B0EE677ABAEE0E5AF1EE084AB2EE046A8F
:10337000F0EE453A67EE076AB0EE464AE7EE243AC9
:1033800066EE876AA3EE874A66EE846AF5EEC06A47
:10339000F1EE10FA40F1FE86DFED9C6A9FED9C6A2B
:1033A00077EEE66A9FED9B7A86EE864A9FED996AF4
:1033B00006EB0613059A4FEA061902EBC303F4EE77
:1033C000C67AD3ED186AF1EE10FA27EE267A00F1EC
:1033D0009386F7EE006AF4EEE67AF1EE10FA0BDC73
:1033E000B0EE005AB0EE086A67EEA76AA7EEC56AAB
:1033F00066EE867A65EEA75AB5EEC04AF1EE10FA8F
:1034000000F11A84F7EE007AB4EEE74AF1EE10FA12
:1034100009DCB0EE006AF0EE086A64EE047AE4EECD
:10342000466A67EEA67A7C4BB144C3ED005A7B4BEB
:1034300083ED007A059B03EBC909794B99ED177A67
:1034400067EE877AC3ED007A04F000FC0C9BC01A8B
:10345000772840F2218204F0F9FB724B0C901B6834
:103460000C2B704B1B689C4600F023870C2B4FF0F5
:103470000001A8BF4FF00C0C002B09DB6A4A0B4679
:1034800092F87C000133883200B901316345F7DDE1
:10349000654B002293F87C00883300B90132634801
:1034A0009842F7D106EB0616059B614803EBC60C64
:1034B00053F836309CED027ADCED017ABDEEC77A26
:1034C000FDEEE77A8DED017ACDED007A02F0DCFABF
:1034D00058484FEA640A02F0D7FA574802F0D4FA83
:1034E0004FF00008DDF838B05BF8042B002A40F3F9
:1034F0005A8502EB82000AEB8000B0FBF4F014283E
:10350000A8BF14205B230DF1FD093FA98DF8FC3005
:103510004B46CE4399198142ACBF2021232103F8A9
:10352000011B0DF211119942F4D15D238DF8113177
:1035300000238DF812312B78002B00F03185EB68D9
:1035400043450CBF31232023297D19B1296A414508
:1035500008BF3223414608F1010800933FAB3748CA
:1035600002F092FAB8F10C0FBED17C2428222D2152
:103570000DF24D108DF84C41AA4613F0D1F9DFF849
:10358000C48000238DF8754131248DF8763198F888
:1035900000E04FF0270C4FF4FA7000214FF47A72DC
:1035A0000023BEF1000F11D0D8F80450C5FB0C0168
:1035B000FDF7A2F8272820EAE0704FF02803D8BFD3
:1035C000431C03F5E8736B4403F8844C013408F1A1
:1035D0001408E4B2352CDAD153A9194802F054FA90
:1035E0005546DDF83CA04FF001080DF20D149AF895
:1035F0000030002B00F0E18426E000BF80080024AA
:103600004C08002400007A440000C8429A99593FAF
:103610009A99193E0000000058080024440800242C
:103620005408002404000024348101081C88010887
:10363000347F0108507F0108647F0108887F0108FA
:103640009C7F0108BC070024DAF80830002B40F307
:10365000F58519019E4A3231A2FB01214909102941
:10366000A8BF10215B228DF8FC200DF1FD029019FE
:103670008842ACBF2020232002F8010B9442F6D1EF
:103680003FAA4146934800925D228DF80D21002209
:103690008DF80E21DAF8042002F0F6F9B8F1020FE5
:1036A0000AF1140A40F08284B7EE007ADFED8A6AEC
:1036B000F6EE007A37EE488AE8EE267AFDEEE77AF3
:1036C00017EE903A17EE901A642BA8BF6421002BD6
:1036D00021EAE17140F3B5850A017D4B3232A3FB4B
:1036E000023252095B238DF8FC3009EB06039A4243
:1036F000D4BF2023232309F8013B4C45F5D15D239A
:103700003FAA76488DF80D3100238DF80E3102F076
:10371000BBF9734BF2EE044A9FED6F5AD3ED006A8A
:10372000704BFDEEE66A93ED006A6F4B16EE901A51
:10373000FDEEC66AD3ED005A6C4B65EEA45A16EE48
:10374000902AD3ED007A6A4BFDEEE56A93ED007A9C
:1037500067EE857A16EE900A27EE057AFDEEE77A97
:103760000028BDEEC77AC0F26F85624BC61783FB97
:103770000043C6EBA3062B2306EB8604A0EB440410
:103780005D488DED037ACDED027ACDE9006402F05B
:103790007BF95A4802F078F97EE01668861B272EDE
:1037A00064DC0126B8F10C0F0E707FF437ABD3ED5B
:1037B000017ADFED536AF8EEE77A87EEA67AB5EE86
:1037C000C07AF1EE10FA55D4F7EE007AB4EEE77A4B
:1037D000F1EE10FA4EDCF0EE477A4A4CFEEECF7A6C
:1037E00017EE906AD3ED027A032EF8EEE77AA8BFBF
:1037F000032654F82660059C06EB061604EBC60665
:1038000096ED217A9CF80060002E3FF419ABBBF1D5
:10381000000F3FF41CABF6EE006A9EED006AB5EEB9
:10382000C07A67EEA67AF1EE10FAE6EE267ACEEDD1
:10383000007A7FF70CAB77EEC67AF3EE026AF4EE0D
:10384000E67AF1EE10FA7FF702ABBDEEC77AD9F84F
:103850000060861B17EE104AA642FFF6F8AA012662
:10386000C9F800008AF80060FFF7F1BA81F800B0EB
:10387000FFF7EDBA9FED247AFFF7D9BA00231A4A71
:1038800013601A4A1360214A136004F0DFF90C9B9D
:10389000C01A77283FF6DFAD032004F0D9F9069B64
:1038A0000793FFF7FEB9119B984280F07581A0F550
:1038B000FA5007EE900AB8EEE78ADDED137A28EEAB
:1038C000278A134B83ED008A00231093FFF703BA76
:1038D0001F85EB51A87F01080000C842F87F01084E
:1038E000640100245C0100245808002444080024DA
:1038F0005C08002467666666148001085080010831
:1039000000007A44E48001080000C8435408002401
:103910005801002404F09AF9089BC01AB0F5FA6F18
:1039200080F0EE8304F092F90A9BC01A41F28733CB
:1039300098427FF63CAA4FF0000904F087F90895F9
:103940008246CB464E46DDF82C905D46069404F048
:103950007DF9BB4BA0EB0A04DFEDBA6A9FEDBA7AA2
:10396000F7EE00BAA3FB042342F6E0621B0A02FB57
:10397000134307EE903AF8EEE77A87EEA60A20EEB8
:10398000070A12F0B5FBF6EE007A3BEEC00AF0EE45
:10399000006AB7EE007A20EE270AF7EE007A30EEE2
:1039A00000BA7BEECBBA3BEE67BAF6EE007AF5EEE4
:1039B000C0BA30EE670AF1EE10FAB5EEC0BAF0EE1A
:1039C000C07A48BFDFEDA1BAF1EE10FAA7EEE67AB1
:1039D00048BF9FED9EBAB5EEC07AF1EE10FA66D4FC
:1039E000B5EE407AF1EE10FA00F12085B1EEC70A8B
:1039F000B5EE400AF1EE10FA00F1C584B1EEC0CA8E
:103A0000F5EE40BAF1EE10FA00F1C384B1EEEB0A24
:103A1000B5EE400AF1EE10FA00F1F684F1EEC0BA0C
:103A2000B5EE40BAF1EE10FA00F1F484B1EECB0A33
:103A3000B5EE400AF1EE10FA00F1F284F1EEC07A30
:103A4000DFED83CA00219FED83BA83482CEE2CCA98
:103A500027EE8BBABCEECCCA1CEE103A9AB202F03A
:103A60007DFD6BEEACBA01217B48FCEEEBBA1BEEA0
:103A7000903A9AB202F072FD784B83ED00BACEB163
:103A800039A8FEF731FE39A84A46002132F8023B38
:103A900030F8024B1B1B9942B8BF19469742F5D12B
:103AA000092900F33A830A2004F0D2F84FE79FED8A
:103AB000677A9BE731466A4802F006FBB4F5FA6F75
:103AC00005F101058344DBD342F23412B7EE007AEC
:103AD0000126BBFBF5F39BB2934238BF134611930B
:103AE000A3F5FA5307EE903AF8EEE77AC7EE277A95
:103AF000CDED137AC4E79FED557A5A4B069AF0EE56
:103B0000477AF0EE476ADFED535A1A70564B83ED51
:103B1000007A9FED566AE8EEA57AA9EE067AE9EEFC
:103B2000866AF0EE678AB0EE479AF0EE669AFFF783
:103B3000BEBB04F08BF8FFF747B904F087F8FFF736
:103B40003FB99FED427AFFF7CBB9B5EEC0CA9FED02
:103B50003FEAF1EE10FA7FF59BAADFED3C7AFFF722
:103B6000A8BAB0EE67BAFFF769BAF0EE6B7AF4EE76
:103B7000E7CAF1EE10FAB5EEC0CA58BFF0EE67CA58
:103B8000F1EE10FA7FF5FBA9DFED307AFFF70EBA00
:103B90009FED2ECAFFF7BAB9B7EE008A91E6F5EEAF
:103BA000C0DAF1EE10FA40F1D382F7EE00BADFEDA1
:103BB00027CAB6EE08CA9FED257AFFF733BBB1EEF0
:103BC000084ADFED2B4ABAEE0E5ADFED2A3AB2EE82
:103BD000047A67EEA76AA7EE845A77EEE44A66EEA7
:103BE000A76A84EEA34AA7EE857A26EE877AB5EE19
:103BF000C07AF1EE10FA40F1DF829FED147AFFF700
:103C0000D5BB9FED1D6ADFED195A2BEE067A6BEEE0
:103C1000866A67EE867A7CE7DFED0C7AFFF7A0BB59
:103C2000FFEE085AFFF784BB8CEEAB0A12F068FC7B
:103C30002BEE80BAFFF7E7B9DFED047AFFF7F3BBAD
:103C4000F119760500803B46DB0FC94000000000FB
:103C500000F07F45CDCCCC3D800800244C080024EA
:103C60007808002448080024400800246666E63EE0
:103C70009A99593F9A99193ECDCC0C3F089B129ABC
:103C80009B1A002BC0F23B83CF4B059E1C68621C25
:103C900004F10E00CD49D31781FB02C1C3EBA10390
:103CA00003EB430103EB8103D31A013203EB03114E
:103CB00006EBC10191F87C10002900F024839042AA
:103CC000E8D1C14B1C601B680C2B1846A8BF0C2008
:103CD000002BC0F23A830023BD4A1C4692F87C10A8
:103CE0000133883201B901348342F7DDB84B002239
:103CF00093F87C10883301B90132B6499942F7D163
:103D0000B14B05991B68B44803EB031351F83330EA
:103D1000214601F0B9FE2CB3002640F6FF720021C7
:103D2000AE48013602F01AFC012140F6FF72AB48A2
:103D300002F014FCAA4BAB4A6E20136003F088FF1C
:103D40000022A648114602F009FC00220121A348E6
:103D500002F004FC0023A34A8C20136003F078FFD8
:103D6000B442DAD103F072FF00F5FA639FED9E8A48
:103D70001293089B0A93FEF7AEBFA6F1500B09956C
:103D8000DFF8A8924FF0000A5D460D9EA34616F894
:103D9000013BABBB39AB13F80A302BB915AA12F8AB
:103DA0000A1009B189F801300AF1010A09F14C0938
:103DB0001435BAF1040FEAD18C4B5C46DFED8A7AF8
:103DC000099DC3ED007A9DF8E4308DF854309DF8DC
:103DD000E5308DF855309DF8E6308DF856309DF879
:103DE000E7308DF85730824B1E68069B002B40F061
:103DF0002383F0EE676ADFED7F5AB0EE677A88E6DC
:103E0000D5ED017ADFED7C6AB8EEE77AC7EE267A67
:103E1000F5EEC07AF1EE10FA00F1D881B7EE00BAF3
:103E2000F4EECB7AF1EE10FA40F302819FED6EDAF8
:103E3000B3EE09FA9FED71CA0B24F0EE4DCADFED27
:103E4000700ADFED70AADFED70EAB7EE00EADFED91
:103E50006FDA9FED6FBADFED6FBA8AEEAE0A12F03D
:103E60004FFB2EEE800A20EE0F0AB3EE047A20EE0E
:103E70000BBAB4EEC7BAF1EE10FA00F1D8819FED9B
:103E8000667AB4EE47BAF1EE10FA37FE0BBAF7EEE7
:103E900000FA624800F042FBB0EE40FA9FED600A83
:103EA00001233CEE2FCADFED50EA2BEE000AC9F8E1
:103EB0000440C9ED02AAC9ED03BA80EE0F0A89EDEC
:103EC00004BA89ED05CAC9ED09EAC9ED08EAC9EDE8
:103ED00007EAC9ED06EAC9ED0AEAC9ED0CEAC9ED3F
:103EE0000DEA89F8003089F8013012F02FFA7FEEE0
:103EF000C07AF4EEEE7AF1EE10FA00F17781F4EE8A
:103F00006F7AF1EE10FAB5EEC0EA7FFEA77AC9ED3E
:103F10000E7AF1EE10FA40F27381DFED427ABFEED5
:103F2000000A6EEE277A67EE8F7A80EE270A12F08B
:103F30000DFA89ED0F0AF5EEC0DAF1EE10FA40F253
:103F40006981DFED387ABFEE000A6DEEA77A67EE81
:103F50008F7A80EE270A12F0F9F989ED100AF5EE52
:103F6000C0CAF1EE10FA40F25F81DFED2E7ABFEEAB
:103F7000000A6CEEA7CA2CEE8FFA80EE0F0A12F040
:103F8000E5F9F0EE407AB0EE4D0AC9ED117A12F083
:103F90004FFA174B89ED120A1C6089ED0B0A03E7F3
:103FA0002023FFF7D1BA0020FFF7ACBA9AF800300F
:103FB0004FF00208002B7FF447AB41461A4801F04E
:103FC00063FDFFF76BBB00BF040000244FECC44E41
:103FD000348101081C880108C87E0108800800247B
:103FE000CDCCCC3D4C08002400000000400800244B
:103FF00010000024CDCCCC3D00007A449A99993F22
:10400000CDCC4C3E0000FA4500007A45000020432C
:10401000827A7C40EC51383F00A08C466008002436
:10402000DB0FC9C06F12833AC87F01081400002457
:10403000B1EE007ADA4ADFEDDB3AF6EE006A9FED88
:10404000DA4A67EE877A9FEDD96A9FEDD95ADFED9C
:10405000D94ABDEEE77A17EE103A032BA8BF032327
:1040600052F8234007EE103A059A04EB0413B8EE19
:10407000C77A02EBC303D04A77EEC77A93ED117A81
:10408000D3ED205A27EE237AD3ED01EA7BEE65BA11
:10409000D3ED150A93ED10FAA7EE046A93ED13CA57
:1040A00093ED19EAF4EEC50AD3ED1ADA7BEEA5BA60
:1040B000D3ED1DCA93ED1CDA6BEEA4BAE7EE066AE7
:1040C000B0EE4B6AA7EE266AA7EE06BAB0EE677AA4
:1040D000BEEECF7A17EE103A032BA8BF0323F1EE02
:1040E00010FA02EB830393ED000A2EEE800AF0EE45
:1040F00040AABFF6B8AEB0E665EE865AFFF77CB9C7
:1041000000230B982B752B70FEF708FBAB4801F0D2
:10411000BBFC03F09BFD089004E40022A848069C29
:104120001146089D02F01AFA01210022A44802F06B
:1041300015FA0023A34A136003F088FD0A9003F0E8
:1041400085FD11990890A04801F09EFCFEF72FBE56
:10415000F7EE00BAF4EEEBDAF1EE10FA00F392802B
:10416000FFEE00CA9FED997AF5EE006AF6EE087A46
:10417000EDEEA67AB0EE67CAFFF73EB8F1EE10FAA0
:1041800074D5F0EE67CADFED91BA12E59FED90EAC3
:10419000FEF778BFB7EE007AF4EEC76AF1EE10FAD8
:1041A00040F37A81DFED966A9FED966A77EEE66AD4
:1041B00086EE864AFFF7FAB8B4EEC67AF1EE10FA48
:1041C0007FF7D0A8B0EE467AFFF7F0B8F3EE0EAA6C
:1041D000DFED80CAB0EE00DA9FED7FCAB0EE08FADC
:1041E0000924F6EE000AF0EE6AEA2EE6B5EEC0EA21
:1041F000F0EE6E7AF1EE10FAC9ED0E7A3FF68DAE62
:10420000F5EEC0DA9FED710A89ED0F0AF1EE10FAB2
:104210003FF697AEF5EEC0CA9FED6C0A89ED100A25
:10422000F1EE10FA3FF6A1AEDFED687AABE6B0EE44
:1042300047BA2CE6F7EE085AFFF77AB80021FFF7E5
:1042400011BA0022FFF74EBA4342644CA4FB036448
:10425000E40804EB8404A3EB4404614B83FB006398
:10426000C017A0EBA3062D23FFF78ABAF4EEE7DA16
:10427000F1EE10FA49DCFFEE00BA9FED547AF0EE51
:1042800067CA71E7DFED51CAB7EE00CA9FED4F7AFA
:10429000FEF7C8BFF4EEE7DAF6EE006AB0EE006AA9
:1042A000F1EE10FAFFEE00CA34DDB0EE67CAFEF799
:1042B00095BF0C2B4FF00001A8BF4FF00C0C002B4A
:1042C00009DB484A0B4692F87C000133883200B97A
:1042D00001316345F7DD434B002293F87C008833BE
:1042E00000B9013240489842F7D106EB0616059B0B
:1042F0003E4853F8363001F0C7FBFFF7E9B8089B9A
:104300000A93FEF7E8BC1C46DBE4F0EE67CADFED7B
:104310002FBAB9E77DEE666AF0EE67BAEDEE06CA2F
:10432000F0EEE66AEDEE46BAE6EEC67AB0EE677AF1
:104330001AE7B5EE407AF1EE10FA7EF573AFB0EE03
:10434000470A12F071FAFEF76FBF0024CEE4284846
:1043500001F09AFBFEF778BC1C464FF496700B9365
:1043600003F076FC2046FEF7D9F9FEF7A8BBDFED97
:10437000217A4DF2D863CDED137A1193FEF7FCBB91
:104380000021FEF738BC12F04FFAB0EE40CAFFF73A
:1043900037BBB0EE6B0A12F047FAFFF739BB00BF2C
:1043A000E4800108006F313F9FCD2A3D68B32A3E6B
:1043B00077BE7F3FEC51383FF4800108DC7E010876
:1043C000800800244C080024EC7E01080000000056
:1043D000CDCC4C3F000034426666E63FCDCCCCCC21
:1043E00067666666348101081C880108047F01083D
:1043F000447E0108247BB23700007A440000C842A2
:104400009A99593F9A99193E12F00EFAF0EE40BA75
:10441000FFF706BBB0EE4B0A12F006FAFFF708BB37
:1044200012F002FAF0EE407AFFF70ABBB0EE470A4C
:1044300012F0FAF9FFF7DCBAD5ED017A5FED126AF6
:10444000F8EEE77A1FED137A87EEA6DAD5ED027A59
:10445000F8EEE77AC7EE87DAFEF7A4BEB0EE6B0A95
:1044600012F0E2F9FEF7F2BE12F0DEF9B0EE407A99
:10447000FEF7E2BE12F0D8F9F0EE407AFEF700BF88
:10448000B0EE6C0A12F0D0F9FEF7F2BE12F0CCF9E1
:10449000F0EE406AFEF7E2BEA6EEA45A1FED284AEF
:1044A00026EEA67A5FED293A77EEC44A27EE267A01
:1044B00084EEA34AA6EE856A27EE067AFEF776BF5B
:1044C00010B50E4800240E4A0E490460446104628F
:1044D000C46311F005FE0C494FF60B700B4A0C4BF0
:1044E0000860CC60C1E90144C2E90004C2E90244A9
:1044F000C3E90004C3E9024410BD00BF6008002402
:1045000000000024E50A0008C8080024B4080024BC
:10451000A0080024143001F009BA00BF143001F0E3
:1045200001BA00BF38B500F1140504462DED028B29
:10453000284601F0E9F9284601F0F4F92846B0EEE2
:10454000408A01F0DDF9D0ED007AF8EE677A88EE66
:10455000277ABDEC028B84ED0E7A38BD10B540F29F
:1045600003338EB000244FF60B7240F20341ADF8D6
:10457000083009A80123ADF81020ADF82420224608
:10458000ADF80C100094029907940C94CDE9054401
:10459000CDE90A4402F01AF804A80123224603993F
:1045A000009402F013F809A802F0F6F810B90120FF
:1045B0000EB010BD04A802F0EFF8A0420CBF02201C
:1045C00020460EB010BD00BF2DE9F04103239AB084
:1045D000012700240646CDE914373B4BCDE91043B3
:1045E00040F20453CDE91647ADF84830FFF7B6FF67
:1045F000B842054625D0022845D040F60132334B5B
:104600000DF12C081894ADF82C200B981997CDF8C3
:104610004A3000F0E3F810A906F13C0003F0F8F886
:10462000302003224FF07E5341460D930E93CDE987
:104630000B02F26B06F1140001F02AF91AB0BDE882
:10464000F0811023214A06A906908DF828300DF13B
:104650002C081F4BCDF84A2007930294CDE918048B
:10466000CDE9080402A802F009FB0823029A03A975
:104670004046ADF80C508DF80E40049505930B9410
:1046800000F0ECF8C7E700200121104B0DF12C08D9
:104690003A460094CDF84A304FF60B730C94ADF8BF
:1046A0002C302346CDE9180140F601314046ADF8E3
:1046B00018100699CDE90D4401F088FF21464046C7
:1046C00002F076F8A7E700BF04020404040604031E
:1046D0000704010B2DE9F04704462DED028B82B053
:1046E00000294DD0012140F2011200230091ADF8C4
:1046F00004208DF80630364A0127364B04F10409B0
:10470000354904F12908626040F20272A36040F664
:104710000663E16004F1250AA4F82520A4F82930F5
:10472000278284F8277084F82B7003F035FC054647
:1047300003F096FA6946064650BB4DB304F13000CB
:104740008DF8067003F0AEFB072D3CD104F1140583
:104750002046FFF739FF284601F0E4F82846B0EE7E
:10476000408A01F0CDF8D0ED007AF8EE677A88EE55
:10477000277A84ED0E7A02B0BDEC028BBDE8F0879B
:1047800040F2011300918DF80610ADF80430B2E745
:1047900004F1300003F086FB072D11D04946204676
:1047A00002F0B6FC0EB9002DD0D1504602F00AF846
:1047B000404602F007F804F1120000F079F9C5E76D
:1047C000002EF2D1C2E74946204602F0A1FCBDE727
:1047D0000508050905070506050A060610B584B093
:1047E00003460124ADF8040003A8ADF80C30ADF881
:1047F0000E4001F0E7FF214603A802F0BFF8204673
:1048000003F026FA002103A802F0B8F8204603F0CE
:104810001FFA214603A802F0B1F804B010BD00BF92
:1048200010B5C2F3002384B00C46017C8DF80D2036
:1048300043EA4402FA2402238DF80C2003AA0094D0
:1048400002F0B2FA18B10124204604B010BD0446AB
:104850000A2003F0FDF9204604B010BD034670B5F0
:1048600043F8042B044684B007C983E80700A37902
:1048700083B91A210B461E22FA2523742046ADF86F
:104880000C20022303AA009502F08EFA28B1012021
:1048900004B070BD1B210B46EDE70A2003F0D8F9E8
:1048A0004FF4B85200950223ADF80C20204603AA1D
:1048B000217C02F079FA0028E9D10A2003F0C8F936
:1048C00041F2027200950223ADF80C20204603AAA3
:1048D000217C02F069FA0028D9D10A2003F0B8F946
:1048E000042200950223ADF80C20204603AA217C67
:1048F00002F05AFA0028CAD10A2003F0A9F90622C8
:1049000000950223ADF80C20204603AA217C02F07A
:104910004BFA0028BBD10A2003F09AF941F2082291
:1049200000950223ADF80C20204603AA217C02F05A
:104930003BFA0028ABD10A20064603F089F900951E
:10494000022303AA217C2046ADF80C6002F02CFA69
:1049500000289CD1304603F07BF9009522790C2386
:104960002046002A8DF80C3003AA4FF0020314BF32
:10497000622142218DF80D10217C02F015FA0028E9
:1049800085D1304603F064F92279D4E902310B4332
:10499000DBB20AB943F0400362790AB143F0200365
:1049A0000E22FA258DF80D302046009502238DF851
:1049B0000C2003AA217C02F0F7F900287FF467AFEE
:1049C0000A2003F045F9102200950223ADF80C20CF
:1049D000204603AA217C02F0E7F900287FF457AFB4
:1049E0000A2003F035F9122100950223ADF80C10CE
:1049F00003AA217C204602F0D7F900287FF447AFB4
:104A00000A2003F025F9012209212046FFF708FFBB
:104A1000003818BF01203BE7F0B5102387B0234CC6
:104A2000012200250126002702A920460195CDE993
:104A300002234FF48052CDE904670AF069FE642036
:104A400004F0E8F802A94FF480522046CDE904674B
:104A500002261027CDE902670AF05AFE032210232E
:104A600002A92046CDE9022300230422CDE9042334
:104A70004FF480520AF04CFE40F23223042202A985
:104A8000019310232046CDE90223019A01230592C8
:104A90004FF4805204930AF03BFE40F60601204694
:104AA0000AF056FE284607B0F0BD00BFE408002417
:104AB0001C4B00221C494FF0400C30B5054689B014
:104AC0000220596007219A601A620124DA620A22E0
:104AD0004FF4006EDC6006922022CDE90001042034
:104AE0000821CDE9020103201021CDE904010820AD
:104AF0006946C3E904024FF4C072181DC3E906C237
:104B00004FF48052C3E909E20AF0D8FD38B92846CB
:104B1000FFF782FF003818BF012009B030BD2046E2
:104B200009B030BDE008002440410052614A002134
:104B3000D0B513688EB00A91002B40F0B9805E4B5F
:104B400001214FF683700C2411600221D3F8D42088
:104B50000026032742F48052C3F8D420D3F8D4208F
:104B600002F480520092009AD3F8E02042F0100242
:104B7000C3F8E020D3F8E02002F010020192019A7D
:104B8000D3F8E02042F04002C3F8E020D3F8E02060
:104B900002F040020292029AD3F8E02042F00802AA
:104BA000C3F8E020D3F8E02002F008020392039A51
:104BB000D3F8E02042F48072C3F8E020D3F8E0207C
:104BC00002F480720492049AD3F8E02042F080024A
:104BD000C3F8E020D3F8E02002F080020592059AA5
:104BE000D3F8E02042F02002C3F8E020D3F8E02020
:104BF00002F020020692069AD3F8E02042F0040266
:104C0000C3F8E020D3F8E0300C9403F004030793DA
:104C10000323079A0B93CDE9080108A9274805F05B
:104C2000ABFF48F23712022308A925480C94CDE9BE
:104C30000823CDE90A6705F09FFF4CF203720223B7
:104C400008A920480C94CDE90823CDE90A6705F0AE
:104C500093FF40F2FF62022308A91B480C94CDE9A0
:104C60000823CDE90A6705F087FF4FF60C7202238F
:104C700008A916480C94CDE90823CDE90A6705F088
:104C80007BFF4FF63F02022308A911480C94CDE99F
:104C90000823CDE90A6705F06FFF2022022308A947
:104CA0000A480C94CDE90A67CDE9082305F064FFB2
:104CB0000EB0D0BDDC080024004402580010025899
:104CC00000180258000C025800200258001C02581C
:104CD000001402582DE9F04FDFF8108406460D4607
:104CE000144608F118002DED028B89B000AF02F0D8
:104CF00087FED8F8183073B3D8F81C30D8F8049071
:104D0000002B43690BBF4FF0080A4FF0100A4FF019
:104D1000020B4FF0040BB9F1000F2AD0A200EA46B3
:104D2000012B02F1070222F00702ADEB020D6846EB
:104D3000ADEB020D694600F03F81022B00F0D680FA
:104D4000002B6FD02246C847D5462437BD46BDEC60
:104D5000028BBDE8F08FD8F81C30002BF5D0D8F8C6
:104D600004904FF0080A4FF0020B4369B9F1000FAD
:104D7000D4D1FB61D8F80030BB61002BE5D0D54819
:104D800002F0B0FE6B46BBF1020F786108EE103AFC
:104D9000FB6900F083816A465146A2EBC402954646
:104DA0006200EA46B2FBFBF2AAEBC40085460AEBBE
:104DB0008200EE46F861ADEB010DF8690EEB820C56
:104DC000C7F810C0EC46ADEB010D00EB8201CCF84A
:104DD0000400CCF8081001EB82013869E946CCF8F0
:104DE0000C1000EB8201CCF800A001EB8202C9E9B3
:104DF00000E0C9E90212012B00F06483022B00F0ED
:104E00006C82002B00F08081620849466046BB69D5
:104E1000984718EE103A24379D46BD46BDEC028BEC
:104E2000BDE8F08F002C8DD01A46D8ED0C6A9FEDAE
:104E3000B27A8446331D36F922E00CF1080C07EEF5
:104E400090EA33F922E00232F8EEE77A944267EE14
:104E5000877A67EEA67A4CED027A07EE90EAF8EED2
:104E6000E77A67EE877A67EEA67A4CED017AE2D8A8
:104E7000F9612246C847984ED8ED0D6A0020F969BD
:104E80002B1D9FED9E7A9FED9E6ADFED9E5A22E0DC
:104E9000F4EEC67AF1EE10FAC0F2C88447F6FE725C
:104EA000D1ED017A45F8202066EEA77AF4EEC77AB4
:104EB000F1EE10FA40F2F080F4EEC67AF1EE10FA5C
:104EC000C0F2D58447F6FE7243F820200230083144
:104ED00084427FF639AFD1ED007A66EEA77AF4EE20
:104EE000C77AF1EE10FAD3D83246D9E7002C3FF456
:104EF00029AFD8ED0C6A84469FED787A0022331DE5
:104F00008E4656F822100CF1080C07EE901A53F852
:104F100022100232F8EEE77A944267EE877A67EE63
:104F2000A67A4CED027A07EE901AF8EEE77A67EE71
:104F3000877A67EEA67A4CED017AE2D8714622466E
:104F4000C7F81CE0C847664ED8ED0D6A0020F96925
:104F50002B1D9FED6A7A9FED6A6ADFF894C120E00D
:104F6000F4EEC67AF1EE10FAC0F279843246D1ED51
:104F7000017A45F8202066EEA77AF4EEC77AF1EEC2
:104F800010FA40F28780F4EEC67AF1EE10FAC0F221
:104F90005E84324643F820200230083184427FF696
:104FA000D3AED1ED007A66EEA77AF4EEC77AF1EED1
:104FB00010FAD5D86246DAE7002C3FF4C3AED8ED3C
:104FC0000C6A86469FED477A4FF0000C331D56F869
:104FD0002C200EF1080E82F40002A2F5000207EE6A
:104FE000902A53F82C200CF1020CF8EEE77A82F4A8
:104FF00000026445A2F5000267EE877A67EEA67AA2
:105000004EED027A07EE902AF8EEE77A67EE877A9D
:1050100067EEA67A4EED017AD9D8F9612246C847E3
:10502000314ED8ED0D6A0020F9692B1D9FED337AC2
:105030009FED336ADFF8BCC01FE0F4EEC67AF1EEF4
:1050400010FAC0F2FC833246D1ED017A45F82020F7
:1050500066EEA77AF4EEC77AF1EE10FA18D9F4EEFC
:10506000C67AF1EE10FAC0F2DA83324643F8202015
:105070000230083184427FF667AED1ED007A66EEE9
:10508000A77AF4EEC77AF1EE10FAD6D86246DBE7DB
:105090006246EBE762467DE7324615E7A100D64659
:1050A0006208073121F00701ADEB010DEA46ADEBD7
:1050B000010D6946ADEB0E0D0AEB8200EC46ADEB3F
:1050C0000E0D01EB8202F861E946CCE900A0C9E9C6
:1050D000001290E6340900240280FFFF0000003037
:1050E0000082FF7F0000003482FF7F001809002447
:1050F000007E00807E0080FF0000003804FF7FBF3C
:1051000004FF7F3F00FEFF46002C00F0C982BBF188
:10511000020FD8F8242000F0FA827969C7F80490C9
:1051200002EB810E5FED0C5A8A00DCF808100EF1DC
:1051300004007A611A46DCF80C303B61331DD7F865
:1051400010903D61FD69C7E902CB8C46834636F974
:105150002210D8ED0C7A06EE101A33F9221006EE62
:10516000901A3EF92210B8EEC66A07EE101AF8EE51
:10517000E66A3BF92210B8EEC77A26EE256A66EE9B
:10518000A56A27EE257A26EE276A66EEA76A27EE3D
:10519000277A07EE901A51080232F8EEE77A0AEB06
:1051A0008100944280ED006A05EB810067EEA57AEC
:1051B000C0ED006A0CEB810009EB810180ED007A03
:1051C00098ED0C7A67EE877AC1ED007ABFD8D7F8F0
:1051D00004903D69D7E902CB60466208BB69494645
:1051E0009847D8F82C307A69D8ED0D6A1A441FED2B
:1051F0003D7A1FED3D6A2B1D904602F1040A5FEDDA
:105200003F5A0022A84ED9E900EC51E0F4EEC67AEC
:10521000F1EE10FAC0F2C78247F6FE7045F82200A0
:105220000CEB0100D0ED007A66EEA77AF4EEC77AB7
:10523000F1EE10FA4BD9F4EEC67AF1EE10FAC0F2A4
:10524000BA8247F6FE70BBF1020F43F822002BD062
:10525000D9F808000844D0ED007A66EEA77AF4EE9B
:10526000C77AF1EE10FA36D9F4EEC67AF1EE10FAFA
:10527000C0F2CD8247F6FE7048F82200D9F80C0043
:105280000144D1ED007A66EEA77AF4EEC77AF1EE2A
:1052900010FA1ED9F4EEC67AF1EE10FAC0F2AF821F
:1052A00047F6FE714AF82210023294427FF6B1AD01
:1052B00051080EEB81008900D0ED007A66EEA77AE6
:1052C000F4EEC77AF1EE10FAA0D83046A6E73046E1
:1052D000B9E73146E6E73046CEE7002C00F0E08142
:1052E000BBF1020FD8F8243000F0E1817A69DCF8D4
:1052F000081003EB820EC7F804909300DFED6B5AA1
:105300000EF1040000227B61DCF80C303B61331DA0
:10531000D7F810903D61FD69C7E902CB8C46834602
:1053200056F82210D8ED0C7A07EE101A53F8221016
:10533000B8EEC76A07EE101A5EF82210F8EEC76AD8
:1053400007EE101A26EE256A5BF82210B8EEC77A2F
:1053500066EEA56A26EE276A27EE257A66EEA76A2C
:1053600027EE277A07EE901A51080232F8EEE77A14
:105370000AEB8100944280ED006A05EB810067EE44
:10538000A57AC0ED006A0CEB810009EB810180ED8C
:10539000007A98ED0C7A67EE877AC1ED007ABFD873
:1053A000D7F804903D69D7E902CB60466208BB6933
:1053B00049469847D8F82C307A69D8ED0D6A1A44D6
:1053C0009FED3E7A9FED3E6A131D9246DFF8E4C0E2
:1053D0000022FB612B1D364ED9E9008E4EE0F4EE23
:1053E000C67AF1EE10FAC0F2FC81304645F8220090
:1053F0000EEB0100D0ED007A66EEA77AF4EEC77AE4
:10540000F1EE10FA49D9F4EEC67AF1EE10FAC0F2D4
:10541000EF813046BBF1020F43F822002AD0D9F8C1
:1054200008000844D0ED007A66EEA77AF4EEC77A59
:10543000F1EE10FA35D9F4EEC67AF1EE10FAC0F2B8
:10544000C98130464AF82200D9F80C000144D1ED58
:10545000007A66EEA77AF4EEC77AF1EE10FA1ED95A
:10546000F4EEC67AF1EE10FAC0F2AD813146F86979
:1054700040F82210023294427FF6CBAC510808EB80
:1054800081008900D0ED007A66EEA77AF4EEC77A43
:10549000F1EE10FAA3D86046A8E76046BAE7614685
:1054A000E5E76046CEE700BF0280FFFF0000003066
:1054B0000082FF7F007E00800000003404FF7FBF79
:1054C00004FF7F3F002C00F0EB807A690021D8F8C0
:1054D0002430C7F8109003EB820ED7F81C9093008D
:1054E000FD610EF104021FED0C6A7B61331D154650
:1054F00056F821204808D8ED0C6ABBF1020F82F45F
:105500000002A2F5000207EE902A53F8212082F44F
:105510000002B8EEE77AA2F5000227EE067A07EE5F
:10552000902A0AEB8002F8EEE77A27EE267A67EEF9
:10553000867A82ED007A09EB80024FEA800067EEFE
:10554000A67AC2ED007A27D05EF8212082F400020C
:10555000A2F5000207EE902A55F8212082F40002FD
:10556000B8EEE77AA2F5000227EE067A07EE902A57
:10557000DCF80820F8EEE77A024427EE267A67EE98
:10558000867A82ED007A98ED0C7ADCF80C2067EED2
:10559000877A0244C2ED007A02318C42A8D8D7F84B
:1055A000109060466208BB694946FD699847D8F883
:1055B0002C307A69D8ED0D6A1A441FED407A1FED40
:1055C000406A131D9246DFF8C4C20022FB612B1D06
:1055D000AB4ED9E9008E4EE0F4EEC67AF1EE10FA49
:1055E000C0F2C580304645F822000EEB0100D0ED38
:1055F000007A66EEA77AF4EEC77AF1EE10FA49D98E
:10560000F4EEC67AF1EE10FAC0F2BF803046BBF17C
:10561000020F43F822002AD0D9F808000844D0ED40
:10562000007A66EEA77AF4EEC77AF1EE10FA35D971
:10563000F4EEC67AF1EE10FAC0F2AE8030464AF8C7
:105640002200D9F80C000144D1ED007A66EEA77A69
:10565000F4EEC77AF1EE10FA1ED9F4EEC67AF1EE46
:1056600010FAC0F28B803146F86940F822100232FD
:1056700094427FF6CEAB510808EB81008900D0ED53
:10568000007A66EEA77AF4EEC77AF1EE10FAA3D8A4
:105690006046A8E76046BAE76146E5E76046CEE7C0
:1056A000224649466046BB699847FFF7B2BBC7F838
:1056B00010B0002298ED0C6A331DDFED726AD7F846
:1056C0001CB0786956F8221007EE901A53F8221091
:1056D000B8EEE77A07EE901A51080232F8EEE77A50
:1056E00027EE267A0AEB810E94420BEB810167EEDE
:1056F000A67A27EE067A67EE867A8EED007AC1EDFD
:10570000007ADFD88300D7F810B07B614DE61A46E7
:10571000C7F810B098ED0C6A331DDFED5B6AD7F85F
:105720001CB0786936F9221007EE101A33F92210EE
:1057300007EE901AB8EEC77A51080232F8EEE77A0F
:1057400027EE267A0AEB810E94420BEB810167EE7D
:10575000A67A27EE067A67EE867A8EED007AC1ED9C
:10576000007ADFD88300D7F810B07B6134E5F0EE23
:10577000675AFEEEE45A15EE900A34E7F0EE675AE7
:10578000FEEEE45A15EE901A6EE7F0EE675AFEEE62
:10579000E45A15EE900A3AE7F0EE675AFEEEE45A44
:1057A00015EE900A4BE767EEA57AFDEEE77A17EE65
:1057B000900A00B232E567EEA57AFDEEE77A17EEC1
:1057C000900A00B23FE5F0EE675AFEEEE05A15EEA1
:1057D000901A4CE6F0EE675AFEEEE05A15EE900A8B
:1057E00030E6F0EE675AFEEEE05A15EE900AFDE55F
:1057F000F0EE675AFEEEE05A15EE900A0AE667EE02
:10580000A57AFDEEE77A17EE901A09B24AE567EE3F
:10581000A57AFDEEE77A17EE900A00B22CE5F0EEDD
:10582000675AFEEEE45A15EE902A1FE467EEA57A59
:10583000FDEEE77A17EE902A12B2FFF731BBF0EED9
:10584000675AFEEEE45A15EE902AFFF7FDBBF0EE24
:10585000675AFEEEE05A15EE902AFFF79BBBF0EE7A
:10586000675AFEEEE05A15EE902AFFF780BB67EE0E
:10587000A57AFDEEE77A17EE902A12B2FFF724BB65
:1058800082FF7F0000000030000000387E0080FFB3
:1058900030B5184C154685B0046004F1080EEC468E
:1058A0000FC98EE80F00D4ED047AF5EEC07A8CE8CB
:1058B0000F00F1EE10FA1ADDB7EE006A94ED057AEA
:1058C00027EE277AC6EE276A84ED0D7AC4ED0C6ABE
:1058D0006DB1204640F8185F02F092F8064903695E
:1058E0000020064A2162A262E36005B030BD0120BB
:1058F00005B030BD18090024002000300000003041
:1059000000680830704700BFB1F5807F03680A4621
:1059100028BF4FF48072B1F5807F9A6094BF002059
:10592000012070470068183002F0CAB830B504682A
:1059300083B00D46E3694BB1A3680020E26A616A57
:105940009B00009004F11C0002F05CF8A36807487B
:10595000A26A9B00216A009004F1180002F052F83C
:105960000020C4E9005003B030BD00BFD54C000892
:1059700010B4074B4FF07E513024002203201961F0
:105980009C60D8605DF8044B5961C3E906227047FA
:1059900018090024704700BFF8B5134F3C687F2CEE
:1059A00007D98023114A42F224411C463B60A2F8E9
:1059B0007E100F4D2B68012B0AD90C4E0D4D22463F
:1059C0003146284600F02CF90028F8D13860F8BD9F
:1059D00022460649074800F023F90028F7D12B6832
:1059E000386001332B60F8BD5409002458090024A5
:1059F00050090024D809002430B4154C2168F1B1B5
:105A00004B1E144DE81810F801298C4619460A2A35
:105A100001D00D2A02D14BB1013BF4E70CF1020396
:105A20007F2B10D98023236030BC704701220223D2
:105A300023600D200A236854AB5430BC7047012208
:105A40000223044DF4E70CF101026146F0E700BFC8
:105A5000540900245809002410B5094C02460B468D
:105A6000084821680844C1F1800111F0C1F8236899
:105A700018442060FFF7C0FFFFF78EFF10BD00BF86
:105A800054090024580900240FB400B583B004A9B8
:105A900051F8040B0191FFF7DFFF03B05DF804EB51
:105AA00004B0704710B5044600210A4800F032F8EF
:105AB000002C094B14BF0222002208481A60FFF78D
:105AC000E3FF0748FFF7E0FF0A20BDE8104002F0BF
:105AD000BFB800BFD8090024500900242888010855
