:020000040800F2
:1000000000000220A10A00089D0A00086D6E000889
:100010009D0A00089D0A00089D0A000800000000D3
:100020000000000000000000000000009D0A000821
:100030009D0A0008000000009D0A0008F16D0008FC
:100040009D0A00089D0A00089D0A00089D0A0008F4
:100050009D0A00089D0A00089D0A00089D0A0008E4
:100060009D0A00089D0A00089D0A0008F969000819
:10007000056A00087D540008116A00081D6A00081E
:100080008D290108295F00089D0A00089D0A0008C3
:100090009D0A00089D0A00089D0A00089D0A0008A4
:1000A0009D0A00089D0A00089D0A00089D0A000894
:1000B000851D0108911D01089D1D01085D5F000857
:1000C0009D0A0008695F00089D0A0008F5150108EF
:1000D00001160108C1270108ED27010821280108A0
:1000E0009D0A00089D0A0008000000009D0A000803
:1000F0009D0A00089D0A00089D0A00089D0A000844
:100100009D0A00089D0A0008A91D01080D16010896
:100110005528010889280108495700089D0A000848
:10012000315700083D5700083116010865160108CF
:10013000C12901089D0A00089D0A00089D0A0008BF
:1001400000000000000000000000000000000000AF
:100150009D0A00089D0A00089D0A0008BD280108A4
:10016000755F00089D0A0008016E0008256E0008F2
:100170009D0A0008496E00089D0A00089D0A0008B3
:100180009D0A00089D0A0008F12801082529010898
:1001900019160108251601089D0A00089D0A000885
:1001A0009D0A00089D0A00089D0A00089D0A000893
:1001B000196700089D0A00089D0A00089D0A0008AA
:1001C0009D0A00089D0A0008394F0008454F0008A5
:1001D0009D0A0008514F00089D0A00089D0A00086A
:1001E0009D0A00089D0A00089D0A00089D0A000853
:1001F0009D0A00089D0A00089D0A00089D0A000843
:100200009D0A00089D0A00089D0A00089D0A000832
:100210009D0A00089D0A00089D0A00089D0A000822
:100220009D0A00089D0A00089D0A000800000000C1
:100230009D0A00089D0A0008000000009D0A0008B1
:100240009D0A00089D0A00089D0A00089D0A0008F2
:100250009D0A00089D0A00089D0A00089D0A0008E2
:100260009D0A00089D0A00089D0A00089D0A0008D2
:100270009D0A00089D0A0008592901080000000095
:100280009D0A00089D0A00089D0A00080000000061
:08029000000000009D0A0008B7
:1002A00010B5054C237833B9044B13B10448AFF3B0
:1002B00000800123237010BD4006002400000000D0
:1002C0001081010808B5034B1BB103490348AFF384
:1002D000008008BD000000004406002410810108D1
:1002E00001F0FF01102A2BDB10F0070F08D010F8E7
:1002F000013B013A8B422DD010F0070F42B3F6D1EB
:10030000F0B441EA012141EA014122F007047FF003
:1003100000070023F0E80256083C85EA010586EA5A
:10032000010685FA47F5A3FA87F586FA47F6A5FA96
:1003300087F68EB9EED1F0BC01F0FF0102F00702A2
:1003400032B110F8013B013A83EA010313B1F8D14D
:100350000020704701387047002D06BF354603382E
:10036000073815F0010F07D1013015F4807F02BF67
:10037000013015F4C03F0130F0BC0138704700BFB8
:1003800081F0004102E000BF83F0004330B54FEA46
:1003900041044FEA430594EA050F08BF90EA020FB3
:1003A0001FBF54EA000C55EA020C7FEA645C7FEA46
:1003B000655C00F0E2804FEA5454D4EB5555B8BF69
:1003C0006D420CDD2C4480EA020281EA030382EADA
:1003D000000083EA010180EA020281EA0303362D6C
:1003E00088BF30BD11F0004F4FEA01314FF4801C3F
:1003F0004CEA113102D0404261EB410113F0004F51
:100400004FEA03334CEA133302D0524263EB430307
:1004100094EA050F00F0A780A4F10104D5F1200EA5
:100420000DDB02FA0EFC22FA05F2801841F1000100
:1004300003FA0EF2801843FA05F359410EE0A5F1D4
:1004400020050EF1200E012A03FA0EFC28BF4CF005
:10045000020C43FA05F3C01851EBE37101F00045BB
:1004600007D54FF0000EDCF1000C7EEB00006EEBC8
:100470000101B1F5801F1BD3B1F5001F0CD3490852
:100480005FEA30004FEA3C0C04F101044FEA4452A9
:1004900012F5800F80F09A80BCF1004F08BF5FEA30
:1004A000500C50F1000041EB045141EA050130BD10
:1004B0005FEA4C0C404141EB0101013C28BFB1F522
:1004C000801FE9D291F0000F04BF01460020B1FA6D
:1004D00081F308BF2033A3F10B03B3F120020CDA40
:1004E0000C3208DD02F1140CC2F10C0201FA0CF01E
:1004F00021FA02F10CE002F11402D8BFC2F1200C83
:1005000001FA02F120FA0CFCDCBF41EA0C01904038
:10051000E41AA2BF01EB0451294330BD6FEA040481
:100520001F3C1CDA0C340EDC04F11404C4F120026C
:1005300020FA04F001FA02F340EA030021FA04F37E
:1005400045EA030130BDC4F10C04C4F1200220FAD5
:1005500002F001FA04F340EA0300294630BD21FA13
:1005600004F0294630BD94F0000F83F4801306BFD9
:1005700081F480110134013D4EE77FEA645C18BFCD
:100580007FEA655C29D094EA050F08BF90EA020F64
:1005900005D054EA000C04BF1946104630BD91EA5C
:1005A000030F1EBF0021002030BD5FEA545C05D15F
:1005B0004000494128BF41F0004130BD14F580049E
:1005C0003CBF01F5801130BD01F0004545F0FE4112
:1005D00041F470014FF0000030BD7FEA645C1ABF47
:1005E000194610467FEA655C1CBF0B46024650EA7E
:1005F000013406BF52EA033591EA030F41F40021AA
:1006000030BD00BF90F0000F04BF0021704730B52F
:100610004FF4806404F132044FF000054FF0000104
:1006200050E700BF90F0000F04BF0021704730B5C5
:100630004FF4806404F1320410F0004548BF40429A
:100640004FF000013EE700BF42004FEAE2014FEAEF
:1006500031014FEA02701FBF12F07F4393F07F4FCA
:1006600081F06051704732F07F4208BF704793F0CD
:100670007F4F04BF41F40021704730B54FF46074E0
:1006800001F0004521F000411CE700BF50EA0102E3
:1006900008BF704730B54FF000050AE050EA01028C
:1006A00008BF704730B511F0004502D5404261EBFC
:1006B00041014FF4806404F132045FEA915C3FF43D
:1006C000D8AE4FF003025FEADC0C18BF03325FEADA
:1006D000DC0C18BF033202EBDC02C2F1200300FA8B
:1006E00003FC20FA02F001FA03FE40EA0E0021FAB0
:1006F00002F11444BDE600BF7BB972B90029BEBF48
:1007000000204FF0004106E008BF00281CBF6FF03A
:1007100000414FF0FF3000F0BFB9ADF1080C6DE9BA
:1007200004CE002909DB002B1ADB00F04DF8DDF8C0
:1007300004E0DDE9022304B07047404261EB41016F
:10074000002B1BDB00F040F8DDF804E0DDE90223BC
:1007500004B0404261EB4101524263EB43037047F6
:10076000524263EB430300F02FF8DDF804E0DDE9CB
:10077000022304B0404261EB41017047524263EBF7
:10078000430300F021F8DDF804E0DDE9022304B0C2
:10079000524263EB4303704753B94AB9002908BF7B
:1007A00000281CBF4FF0FF314FF0FF3000F074B94C
:1007B000ADF1080C6DE904CE00F006F8DDF804E0B8
:1007C000DDE9022304B070472DE9F047089D044697
:1007D0008E46002B4DD18A42944669D9B2FA82F2F4
:1007E00052B101FA02F3C2F1200120FA01F10CFA30
:1007F00002FC41EA030E94404FEA1C48210CBEFB68
:10080000F8F61FFA8CF708FB16E341EA034306FBF0
:1008100007F199420AD91CEB030306F1FF3080F07F
:100820001F81994240F21C81023E63445B1AA4B2CC
:10083000B3FBF8F008FB103344EA034400FB07F76E
:10084000A7420AD91CEB040400F1FF3380F00A81AF
:10085000A74240F207816444023840EA0640E41BA4
:1008600000261DB1D4400023C5E900433146BDE850
:10087000F0878B4209D9002D00F0EF800026C5E9F2
:10088000000130463146BDE8F087B3FA83F6002E0A
:100890004AD18B4202D3824200F2F980841A61EB82
:1008A000030301209E46002DE0D0C5E9004EDDE7A0
:1008B00002B9FFDEB2FA82F2002A40F09280A1EB88
:1008C0000C014FEA1C471FFA8CFE0126200CB1FBDD
:1008D000F7F307FB131140EA01410EFB03F08842D6
:1008E00008D91CEB010103F1FF3802D2884200F263
:1008F000CB804346091AA4B2B1FBF7F007FB1011F5
:1009000044EA01440EFB00FEA64508D91CEB040492
:1009100000F1FF3102D2A64500F2BB800846A4EBED
:100920000E0440EA03409CE7C6F12007B34022FAD8
:1009300007FC4CEA030C20FA07F401FA06F31C4307
:10094000F9404FEA1C4900FA06F3B1FBF9F8200C14
:100950001FFA8CFE09FB181140EA014108FB0EF05A
:10096000884202FA06F20BD91CEB010108F1FF3AAA
:1009700080F08880884240F28580A8F102086144B6
:10098000091AA4B2B1FBF9F009FB101144EA0141C4
:1009900000FB0EFE8E4508D91CEB010100F1FF346F
:1009A0006CD28E456AD90238614440EA0840A0FB07
:1009B0000294A1EB0E01A142C846A64656D353D0DD
:1009C0005DB1B3EB080261EB0E0101FA07F722FA01
:1009D00006F3F1401F43C5E9007100263146BDE82A
:1009E000F087C2F12003D8400CFA02FC21FA03F38D
:1009F000914001434FEA1C471FFA8CFEB3FBF7F00E
:100A000007FB10360B0C43EA064300FB0EF69E4232
:100A100004FA02F408D91CEB030300F1FF382FD2CB
:100A20009E422DD9023863449B1B89B2B3FBF7F673
:100A300007FB163341EA034106FB0EF38B4208D94C
:100A40001CEB010106F1FF3816D28B4214D9023E8D
:100A50006144C91A46EA004638E72E46284605E7AB
:100A60000646E3E61846F8E64B45A9D2B9EB02087C
:100A700064EB0C0E0138A3E74646EAE7204694E70C
:100A80004046D1E7D0467BE7023B614432E730463F
:100A900009E76444023842E7704700BFFEE700BF41
:100AA0000B480C4A904203D0121A0B4915F0AAF8D1
:100AB0000A480B4A904203D0121A002115F0B0F8F0
:100AC00006F034FC15F072F801F0A4FCFEE700BF5C
:100AD000000000243C060024448101084006002454
:100AE00008620024704700BFB64BD3ED007AF5EEE4
:100AF000C07A2DE9F04FF1EE10FA0F462DED108B74
:100B0000A1B0089201F15C80B0EE677AF7EE007A4E
:100B1000B4EE677AF1EE10FA77FE877ACDED0B7AB4
:100B2000A949AA4AAA4BD1ED007AD2ED00CAA94937
:100B3000D3ED00FAA84AA94BD1ED009A92ED009AA4
:100B4000A74993ED00FAA74AA74BA848D1ED00EAC0
:100B5000CDED097AD2ED00AAD3ED008A02F060FE55
:100B6000A34BB0EE408AA34C1E6823680D2E28BF0D
:100B70000026B34200F0A1809F4B1A460293C6EBB9
:100B8000461302EB8303D3ED1B7A7301F5EEC07AB3
:100B90000593F1EE10FA41F209809FED987ABFEECD
:100BA000000A67EE877A67EE887A80EE270A14F0EB
:100BB0004DFD7301029A9B1B02EB8303D3ED197A5F
:100BC0008F4BF5EEC07A83ED000AF1EE10FA41F298
:100BD00005809FED8A7ABFEE000A67EE877A67EE9E
:100BE000887A80EE270A14F031FD7301029A9B1B6C
:100BF00002EB8303D3ED1A7A824BF5EEC07A83EDD4
:100C0000000AF1EE10FA40F2E5879FED7C7ABFEE24
:100C1000000A67EE877A67EE887A80EE270A14F07A
:100C200015FD7301029A9B1B02EB8303D3ED1D7A22
:100C3000754BF5EEC07A83ED000AF1EE10FA40F242
:100C4000C5879FED6E7ABFEE000A67EE877A67EE82
:100C5000887A80EE270A14F0F9FCF0EE407A7301EE
:100C6000029ADFF8CCB19B1BDFF8C8A1DFF8C8916E
:100C700002EB8303DFF8C48193ED1C0A634BC3EDE1
:100C8000007A14F055FD624BDDED097A2660C3ED64
:100C9000007A604B604CC3ED00CA0023CBED009A94
:100CA000E360A360636023605C4BCAED00FA89EDEA
:100CB00000FAC8ED00EA83ED000ADFED507A584BE8
:100CC000F4EEE7AAF1EE10FA07DD93ED007AB4EE48
:100CD000E77AF1EE10FA40F26D87C3ED00AA089BA7
:100CE000002B00F05E87B1EE087ADFED4E7A7301DB
:100CF000414ADFF84881002587EE087A0593C6EB64
:100D000046130292DFF828B102EB8303DFF824A137
:100D1000DFF8249193F83D2093F83C1010921A7E4E
:100D20003D4C149293F82420159293F830208DEDC9
:100D30000F7A29EEA77A1692364A8DED0C7A29EEB3
:100D4000277A68EEA77A8DED0D7ACDED0E7AD3ED88
:100D50000A7A9FED357ACDED117AD3ED0D7ACDED8E
:100D6000127AD3ED167ACDED137AD3ED057ACDED67
:100D70001C7AD3ED127A67EE677ACDED1A7AD3ED4D
:100D8000087ACDED1D7AD3ED0B7ACDED1E7AD3ED39
:100D90000E7ACDED1F7AD3ED147ACDED067AD3ED30
:100DA000047A174B07960E4618934146174B01924B
:100DB0001993174B1D4A9846CDED177A0B461B9792
:100DC0007BE200BFF4060024340000242C00002441
:100DD000FC0600243000002400070024EC06002458
:100DE000F8060024E8060024280000240407002454
:100DF0001000002420000024347401086F12833A8C
:100E0000E4060024D8060024DC060024E0060024C2
:100E1000140000241C0000247C060024D0060024BA
:100E2000CC06002400D7233C333373402400002435
:100E300018000024B40600245C060024C006002428
:100E400000409C4648E17A3F0AD7233C6666A63FAD
:100E5000000070431FED067AF4EEC75AF1EE10FA67
:100E600000F34C8575EEA55A85EE887ADDED1A5AA9
:100E7000E5EE856A5FED0D5AB4EE657AF1EE10FA93
:100E800035FE877AF0EE085AF4EEE56AF1EE10FAD4
:100E900000F30585F8EE085AF4EEE56AF1EE10FA73
:100EA00000F15586F3EE0B4A66EEA65AB2EE021A30
:100EB000F0EE641AE5EE811A75EEA45A65EEA66AA4
:100EC000C6EEA15AF0EE086AB4EEE63AF1EE10FA78
:100ED00000F3EF84F8EE086AB4EEE63AF1EE10FAA9
:100EE00000F13186F3EE0B4A63EE036AB2EE021AAA
:100EF000F0EE641AE6EE811A76EEA46A66EE836A74
:100F0000C6EEA14A75EEE45AF0EE086AA5EE873AFD
:100F1000B4EEE63A84ED003AF1EE10FA00F3EA841A
:100F2000F8EE086AB4EEE63AF1EE10FA00F1178630
:100F3000F3EE0B5A63EE036AF2EE021AF0EE654A24
:100F4000E6EEA14A76EEA56A26EE833AC3EE246A5F
:100F5000F0EE085AF4EEE53AF1EE10FA00F3C3842D
:100F6000F8EE085AF4EEE53AF1EE10FA00F1F385E6
:100F7000F3EE0B4A63EEA35AF2EE021AB0EE643AB5
:100F8000A5EEA13A75EEA45A65EEA35AC5EE834AC2
:100F900076EEE46AE7EE263AF0EE086AF4EEE63A18
:100FA000C4ED013AF1EE10FA00F39984F8EE086A04
:100FB000F4EEE63AF1EE10FA00F1B285F3EE0B5AD8
:100FC00063EEA36AB2EE023AF0EE654AE6EE834AB9
:100FD00076EEA56A66EEA33AC3EEA46AF0EE085A6E
:100FE000B4EEE54AF1EE10FA00F37584F8EE085A13
:100FF000B4EEE54AF1EE10FA00F18E85F3EE0B4AFD
:1010000064EE045AB2EE023AF0EE643AE5EE833A48
:1010100075EEA45A65EE845AC5EEA34A76EEE46AEC
:10102000A7EE264AF0EE086AB4EEE64A84ED024ADC
:10103000F1EE10FA00F34184F8EE086AB4EEE64AE5
:10104000F1EE10FA00F17385F3EE0B5A64EE046AC8
:10105000F2EE023AF0EE654AE6EEA34A76EEA56AB3
:1010600026EE844AC4EE246AF0EE085AB4EEE55A3D
:10107000F1EE10FA00F32B84F8EE085AB4EEE55ABC
:10108000F1EE10FA00F15785F3EE0B4A65EE055AC2
:10109000F2EE023AB0EE644AA5EEA34A75EEA45A07
:1010A00065EE855AC5EE844A76EEE46AA7EE265AC6
:1010B0001FED9B7AF4EEC72AF1EE10FA84ED035A85
:1010C0003BD4B7EE004AB1EE007AF0EE004AF0EE03
:1010D000446A74EE623AE2EE876AB6EE007AF0EEA7
:1010E000475A66EE856AE6EE875AFFEE006ABBFE57
:1010F000653A35EEC33AF0EE665AE3EE245AB0EEA6
:10110000663AF0EEE55A74EE655AA5EEA43AA3EEFF
:10111000077AFBFE475A37EE657AF0EE665AE7EE3D
:10112000245AF0EEE55A74EE655AE5EEA46A62EED2
:10113000A66AE3EE856AB0EE665A1FEDBC7A25EE2C
:10114000075AB0EE087AB4EEC75AF1EE10FA19DC7D
:10115000B8EE087AB4EEC75AF1EE10FA00F1EF8457
:10116000F3EE0B6A25EE057AF2EE024AF0EE665ACD
:10117000E7EE245A37EE267A27EE055A85EE257AD1
:1011800026EE076A9DED177A2AEE066A1B9867EE2F
:10119000877ADDED0B5A01685FEDD36A87EE887AB6
:1011A00001EB850181ED006A4168CDEE087A01EB23
:1011B000850181ED006ADD499FEDDD6A37EE297A10
:1011C000F7EE009AB4EEE97A37EE899ACCEE087A17
:1011D000F1EE10FAA8BF37EE697A81ED007AB7EE2A
:1011E000007AD449B4EEC79A77EEA88ACEEE087A90
:1011F000F1EE10FAA8BF39EE479AB7EE007A81ED0A
:10120000009AF4EEC78ACC49F1EE10FA37EE800A64
:10121000CDEE887AA8BF78EEC78AB7EE007AC1ED26
:10122000008AB4EEC70AC549F1EE10FAA8BF30EE45
:10123000470A37EE822AB7EE007A81ED000AF6EE11
:10124000007ABF49B4EEC72AF1EE10FAA8BF32EE19
:10125000472A81ED002ABB4991ED007A75EEC75A05
:10126000A5EE867AE7EE267A81ED007AB6490F463A
:101270000968481CFCEEE77A17EE901AF02928BF9F
:10128000F021EF2884BF0020AF4F81423860AF4F7C
:1012900094BF002101213878884209D0AC480A92D5
:1012A000CDE9031304F006FC03990A9A049B3970F4
:1012B00001350899A94200F074841899F7EE005A94
:1012C0009DED096AD1ED007A019935EEE77AD8ED06
:1012D000006AD1ED004A27EE067AF4EEEC4AA6EE5B
:1012E000A77AF1EE10FA88ED007A00F17C82994934
:1012F000D1ED003A75EEE35A9AED003A6CEEA55A3C
:101300009FED955AB4EEEF3ADFED946AE4EEA35AFE
:10131000D9ED003A9BED004AF1EE10FADFED904A6C
:101320009DED0CBAF4EECF3A9FED8E6A54BFF0EE0D
:10133000661AF0EE451ADFED8C7AA4EE24BA93ED2E
:10134000004A54BFF0EE672AF0EE462A0199F1EE0A
:1013500010FA9DED0D1AB4EEEE4AC1ED005A6FEE93
:10136000A11A82499DED0EAA8BED00BAE3EE221A76
:1013700054BFF0EE662AF0EE452A54BFB0EE673A4D
:10138000B0EE463AF1EE10FA6FEE222A48BFF0EEC8
:10139000456ACAED001A48BFF0EE467A92ED005A4F
:1013A000E3EE832A6EEEA66AE4EE276A91ED004A28
:1013B0006F49B4EEEA4AC9ED002AD1ED007AA7EEF2
:1013C000A41AF1EE10FAC3ED006AF7EE007A35EEDA
:1013D000675A81ED001A4CBF66495E49D1ED004A5B
:1013E000624937EEE46A26EE2A6AA4EE246ADFED4B
:1013F0005C4A81ED006A604991ED004AA4EE24AA9E
:1014000081ED00AA1999D1ED004AE5EE247AB0EEFB
:10141000672AC2ED007ADFED467AB4EEE76AF1EEB4
:1014200010FA00F1C58194ED035A94ED003AD4ED21
:10143000013A94ED024ADFED3E7AF4EEE7AAF1EECE
:1014400010FA0CD5DFED4D7AB4EEE76AF1EE10FA42
:1014500005DDF3EE0E7AE6EE2C7AF0EE67CA484927
:10146000F1EE000ADDED0F7AD1ED004A77EEA44AE5
:10147000F7EE007AF4EEE74AF1EE10FAA4BF74EE4C
:10148000E74A3F49F6EE007AC1ED004AF4EEE74A3A
:10149000F1EE10FA40F18781FFEE007AE4EEA07AD7
:1014A000F7EE004ADFED370A21EE271A1099F0EE29
:1014B000647AE1EE207A67EE277A67EE827A002975
:1014C00000F06681079805999FED2F2A091A029866
:1014D000E1EE824A00EB810191ED077A27EE877AEF
:1014E00027EE24DA9DED117A104927EE87CA9DED8B
:1014F000127AD1ED009A149927EE87EA9DED137ABE
:10150000022967EE87DA00F0BD82032900F08081AE
:10151000012900F01D82B6EE007AF1EE004AF4EEE9
:10152000C79AF1EE10FA00F175812FE0B806002499
:101530006F12833ABC06002474060024700600244F
:1015400064060024D4060024C8060024C40600242F
:1015500044070024DC06002400D7A33C0012833A91
:10156000A4707D3F48E17A3F77BE7F3F7806002434
:1015700068060024D80600240C00002417B7D138D0
:101580006C060024CDCC4C3DC0956C3DB0EE087A85
:10159000A9EEE47ADDED1C4A27EE247A8DED037A7C
:1015A000D84991ED009A1599022900F04481032948
:1015B00000F0A782012900F03682F6EE004AB4EE70
:1015C000E49AF1EE004AF1EE10FA40F1E182FFEE0A
:1015D000000A9DED1D7AE9EE240A60EE870ACA49E9
:1015E000D1ED008A1699022900F03881032900F014
:1015F0000F82012900F0DD81F6EE004AF4EEE48A64
:10160000F1EE004AF1EE10FA40F1AD82BFEE001AA1
:101610009DED1E7AA8EEA41A21EE071ABB49022EF0
:1016200091ED000A00F02C81032E00F0E480012EE1
:1016300000F03682F6EE004AB4EEE40AF1EE004A1B
:10164000F1EE10FA00F1D980F0EE081A9DED1F7A44
:10165000E0EE641A21EE877A8DED047ADDED064A1C
:10166000F5EEC04AF1EE10FA40F3C280DFF8C4C2D2
:10167000079FDCF80010A64881EA4131DFEDA5BAEA
:10168000D0ED004A81EA5141DFEDA31A81EA411110
:1016900007EE101ACCF800100599B8EEC72AC91B3E
:1016A000029F07EB810191ED1E7A8DED0A7AB0EE73
:1016B000647A92EE2B7AE7EE214A9DED0A7AC0ED2C
:1016C000004AD2EE2B4A74EEA44AE2EE6B4A64EE74
:1016D000874AE2EE2B4A9DED062A64EE824A9DED92
:1016E000037A9DED042A37EE207A8C4937EE017A91
:1016F00037EE027A91ED002A77EE244AB6EE007AB0
:10170000B4EEC72AB1EE007AF1EE10FA3BD5FFEE47
:10171000001AE2EE071A64EEA11AB7EE007A61EE43
:10172000A61A77EE666AE6EEA41AF0EE086A2BEEC9
:1017300021BAB4EEE6BAF1EE10FA00F3D880B8EEB2
:10174000087AB4EEC7BAF1EE10FA00F1ED81F3EECB
:101750000B6A2BEE0B7AF2EE021AF0EE664AE7EE17
:10176000214A37EE267A27EE0BBACBEE246AB3EE87
:10177000047AF4EEC75AF1EE10FA7FF56BABDFEDA9
:10178000685AFFF771BBF0EE081AE2EE471AC2E79B
:1017900007980599091A029800EB810191ED077AE3
:1017A00027EE87DA9EE6F0EE087AE4EEE07A77E656
:1017B000DFED5C7A94ED003AD4ED013A94ED024A03
:1017C00023EE273A94ED035A63EEA73A24EE274A14
:1017D00025EE275A84ED003AC4ED013A84ED024A21
:1017E00084ED035A27E6DFED505ADFED503A83E5EA
:1017F000DFED564A73E7F0EE004AFFEE001A9DED6A
:101800001F7AE0EE241A21EE877A8DED047A25E71F
:10181000F0EE004ABFEE007A3A4991ED009AA9EE47
:10182000A47ADDED1C4A1599022927EE247A8DED64
:10183000037A7FF4BCAEF6EE004AB4EEE49AF1EE21
:1018400010FA00F1A28130499DED1D7AD1ED008A98
:101850001699F1EE470A02297FF4C8AEF6EE004A67
:10186000F4EEE48AF1EE10FA00F18C819DED1E7A1F
:10187000022E2649B1EE471A91ED000A7FF4D4AE4C
:10188000F6EE004A9DED1F7AB4EEE40AF1EE10FA8E
:1018900000F17581B1EE477A8DED047ADEE6F0EE67
:1018A000086AF7EE005AB4EEE63AF1EE10FA7FF766
:1018B00011ABF7EE004AFFF725BBF0EE085AF7EE42
:1018C000006AB4EEE55AF1EE10FA7FF7D5ABF7EE09
:1018D000004AFFF7E9BBF7EE004AFFF79FBBF7EEC0
:1018E000006AFFF77BBBF7EE004AFFF751BBF0EE53
:1018F000476A3CE7F7EE006AFFF72ABBDFED0C5AB8
:10190000FFF7B2BABC060024740600247006002457
:101910006006002400000030CDCC4C3F640600245B
:101920000000204277BE7F3F00481D3AAED87F3F7F
:1019300000401C4708000024DB0F4940DB0F49C072
:1019400083F9A23F7B81CF3E6666663E00000000C1
:1019500039EEA92A1FED087A5FED084AE2EE074A40
:101960001FED097A1FED092AF5EEC04A24EE822AFE
:1019700024EE877AF1EE10FA48BFF1EE644AA2EE47
:10198000647AB5EEC07AF1EE474AF1EE10FA54BF30
:10199000B0EE472AB0EE642AE7EE024A1FED162A9F
:1019A000A4EE827ADDED1C4A27EE647A8DED037A8F
:1019B000F6E578EEA81A1FED202A5FED204A1FED0C
:1019C000201AE1EE824A1FED212A9DED1E7AF5EEE6
:1019D000C04A24EE822A24EE811AF1EE10FA48BFA2
:1019E000F1EE644AA2EE641AB5EEC01AF1EE414A75
:1019F000F1EE10FA54BFB0EE412AB0EE642AE1EEE7
:101A0000024A1FED2F2AA4EE821A21EE471A05E69C
:101A1000F0EE004A9DED1E7ABFEE001AA8EEA41A61
:101A200021EE071AFAE579EE091A1FED3D2A5FED5E
:101A30003D4A5FED3D0AE1EE824A1FED3E2A9DEDF3
:101A40001D7AF5EEC04A24EE822A64EEA00AF1EE79
:101A500010FA48BFF1EE644AE2EE640AF5EEC00AFD
:101A6000F1EE604AF1EE10FA54BFB0EE602AB0EE2B
:101A7000642AE0EE824A1FED4C2AE4EE820A60EE10
:101A8000C70AACE5B6EE007AF4EEC79A9DED1C7A73
:101A9000F1EE10FA70D4B1EE477A8DED037A7FE55E
:101AA00070EE001A1FED5C2A5FED5C4A9DED1F7A17
:101AB000E1EE824A5FED5E1A1FED5E2AF5EEC04A46
:101AC00024EE822A64EEA11AF1EE10FA48BFF1EE7C
:101AD000644AE2EE641AF5EEC01AF1EE614AF1EEE4
:101AE00010FA54BFB0EE612AB0EE642AE1EE824AE9
:101AF0001FED6B2AE4EE821A21EEC77A8DED047A8F
:101B0000ACE5F0EE004A9DED1D7AFFEE000AE9EE2D
:101B1000240A60EE870A62E5FFEE004AFFF77EBA0C
:101B2000FFEE006AFFF75ABAFFEE006A1FE6FFEE0B
:101B3000006AFFF799BAFFEE004AFFF7B5BAB1EEB7
:101B4000466AFFF71FBBFFEE004AFFF7DBB9FFEE67
:101B5000005AFFF7B7B9FFEE004AFFF719BAFFEED8
:101B6000006AFFF7F5B9B0EE081A9DED1E7AA8EEEF
:101B7000E41A21EE071A51E58DED037A10E58DED9B
:101B8000047A6BE59DED1E1A48E5DDED1D0A26E59C
:101B9000F0EE080A9DED1D7AE9EE640A60EE870A10
:101BA0001DE521B0BDEC108BBDE8F08F1FED990A4B
:101BB000FEF7FFBF0B490C4A09681160FFF78DB8AB
:101BC000DFED0A7ACDED0B7AFEF7AABFDFED077ADB
:101BD000FFF745B89FED050AFFF723B89FED030A0D
:101BE000FFF703B8D0060024240000240000000002
:101BF0002DE9F041002482B01C4E0123DFF87880EB
:101C000022461B4D3046D8F800101A4F009403F0BE
:101C10005FFE052005F09EF922463968012328461B
:101C2000009403F055FE052005F094F923460122A7
:101C3000D8F800103046009403F04AFE21463046A2
:101C400003F038FF052005F085F9234601223968A5
:101C50002846009403F03CFE2846214603F02AFF64
:101C6000052002B0BDE8F04105F074B96C0700240E
:101C700058070024807A0108847A010870B500248E
:101C800082B0144D0122144E234628460094316838
:101C900003F01EFE2146284603F00CFF052005F048
:101CA00059F90E4A01230E4811682246009403F0A8
:101CB0000FFE052005F04EF9284601232246316823
:101CC000009403F005FE052002B0BDE8704005F069
:101CD00041B900BF6C070024847A0108807A0108AA
:101CE000580700242DE9F041072582B0DFF8E48091
:101CF0000746354E25E06246D8F80010CDF800C002
:101D000003F0E6FD0024052005F024F90123224616
:101D100031682E48013D009403F0DAFD052005F0FE
:101D200019F92346012229483168009403F0D0FDB7
:101D30002146264803F0BEFE052005F00BF96B1C7A
:101D400014D0012247FA05F14FF0000C204811EAA7
:101D500002041346CFD1D8F800102346009403F0B4
:101D6000B7FD21461A4803F0A5FECBE72246D8F876
:101D7000001001231648009403F0AAFD052005F089
:101D8000E9F82246316801231048009403F0A0FDD1
:101D9000052005F0DFF80E4803F080FE23460122FF
:101DA000316805460094094803F092FD2146074832
:101DB00003F080FE052005F0CDF885F00100C0B2EB
:101DC00002B0BDE8F08100BF807A01085807002406
:101DD0006C070024847A01082DE9F043002283B0C7
:101DE000DFF8F480074601233848D8F80010914600
:101DF00000920725364E03F06BFD0024052005F008
:101E0000A9F80123224631683248009403F060FDAE
:101E1000052005F09FF82D4803F040FE012186467D
:101E2000234601FA05FC0A462A48013D3168BEF105
:101E3000000F03D04CEA090C5FFA8CF9009403F010
:101E400047FD2146234803F035FE6B1CD5D1002FFA
:101E500033D0D8F8001023461C480122009403F028
:101E600037FD2146194803F025FE0024052005F022
:101E700071F83168224601231648009403F028FDCA
:101E8000052005F067F823460122316811480094C7
:101E900003F01EFD21460F4803F00CFE052005F05F
:101EA00059F801232246D8F800100848009403F09E
:101EB0000FFD484603B0BDE8F08301233A46D8F849
:101EC00000100248009703F003FDCEE76C070024E2
:101ED000807A010858070024847A010838B504463E
:101EE0000D46FFF785FEB420FFF7FCFE60B12046EB
:101EF000FFF7F8FE40B12846FFF7F4FE044618B19C
:101F0000FFF7BCFE204638BD0024FFF7B7FE204691
:101F100038BD00BF2DE9F04104460E461546FFF7D7
:101F200067FEB420FFF7DEFE08B32046FFF7DAFEB7
:101F3000E8B1FFF75DFEB520FFF7D4FE0746B0B16C
:101F400085B1013D741E56FA85F8C6F101063019B7
:101F50008542D4BF00200120FFF73EFF04F8010FA7
:101F60004445F4D1FFF78AFE3846BDE8F0810027EA
:101F7000FFF784FE3846BDE8F08100BF10B563214D
:101F800082B080204124FFF7A9FF0A2004F0E0FF7F
:101F900000215E20FFF7A2FF01212B20FFF79EFF0B
:101FA00001212C20FFF79AFF10212D20FFF796FF2B
:101FB00020212E20FFF792FF01212F20FFF78EFF17
:101FC00001213020FFF78AFF10213120FFF786FF23
:101FD00020213220FFF782FF00213320FFF77EFF10
:101FE00000213420FFF77AFF00213520FFF776FF2C
:101FF00004212046FFF772FF601C02340221C0B2A8
:10200000E4B2FFF76BFF592CF2D111215B20FFF7EF
:1020100065FFF0215C20FFF761FF4C215D20FFF799
:102020005DFF8C215E20FFF759FF642004F090FFD4
:10203000002301220DF107015E208DF80730FFF724
:1020400069FF9DF80700A0F18C00B0FA80F040090C
:1020500002B010BD10B586B00446182204206946AF
:10206000FFF758FFA01E6A4606AC537812F8021B11
:102070001B02944203F4407343EA010320F8023F39
:10208000F3D106B010BD00BF2DE9F04192B020257C
:10209000002407460DF1180830220021404613F0B5
:1020A000BFFD68464646FFF7D5FF6A46414600E059
:1020B0000C6832F8023B2344424541F8043BF7D117
:1020C000052004F045FF013D01D0069CE9E7BA1E5A
:1020D000163756F8043B5B0922F8023FBA42F8D1A2
:1020E00012B0BDE8F08100BFA0F10A021C4B002A2B
:1020F00053F8211030DD814230DD42F210700A3990
:1021000000FB02F292FBF1F38342A8BF0346002BCF
:102110001A46B8BF5A1C5210511C93FBF1F25218C8
:1021200048BF0132511093FBF1F2521848BF0132FF
:10213000521093FBF2F18A1848BF0132521093FB00
:10214000F2F313445A1C07DB002BB8BF01335810BD
:102150006428A8BF6420704700207047642070473F
:10216000047401080022A0F1040C2DE9F04F13467D
:102170008DB006460D46964614460A750A705CF800
:10218000042F724501DD1C46964601330C2BF6D117
:10219000BEF1090F03DC00200DB0BDE8F08F04F1A3
:1021A0000208A71EB8F10B0F27EAE777A8BF4FF088
:1021B0000B08B845C0F2AD806FF0404C4FF00009FD
:1021C00008F1010EBA46BC443A464846494606EB79
:1021D0008C0C5CF8043F23EAE373994502FB03008F
:1021E000194401DA9246994601327245F1D100292B
:1021F00000F098804FF47A7B0BFB00F001EB810B31
:1022000001EB4B0BB0FBFBFBBBF57A7FA8BF4FF498
:102210007A7B51464846FFF767FF0123EC46C5F835
:1022200004B02B700023C5F81090C5E9020A684677
:1022300004E001334CF8042B0C2B0FD09F4206DC3A
:102240009845ACBF002101210A460029F1D056F87B
:10225000232001330C2B4CF8042BEFD1002319461B
:102260001E4650F8042B8A4201DD1E4611460133FA
:102270000C2BF6D1331B48BFA31B092945DD032BCB
:10228000CCBF00240124002C3FD1A6F10208023665
:102290000B2E28EAE878A8BF0B2646453FDB721CC8
:1022A0006FF0404640462746464421460DEB8606E1
:1022B00056F8043F23EAE3739C4203FB007719447A
:1022C00001DA80461C4601308242F1D139B34FF425
:1022D0007A7601EB810307FB06F601EB4301B6FBBF
:1022E000F1F6B6F57A7FA8BF4FF47A7641462046DC
:1022F000FFF7FAFE03460220AE616C62C5E90738BB
:1023000001232B750DB0BDE8F08F01200DB0BDE8A5
:10231000F08FBA464FF000094FF0FF3B79E74FF0DE
:10232000FF36E3E74FF0FF3B73E700BF2DE9F047CF
:10233000374C82B00022234604F128088DF804208F
:102340008DF805201A789AB914334345FAD100293B
:102350000BDD01EB810301AA00EB830312F8011BE3
:10236000002939D014309842F8D102B0BDE8F08786
:10237000002949DD01AD844600224FF0FF3E4FF0B9
:10238000C90A15F8016B5EB9DCF804605F68B6EB4A
:10239000070948BFA7EB0609CA4501DD9646CA46AC
:1023A00001320CF1140C9142EBD1BEF1FF3F2BD066
:1023B0000EEB8E020EF1080500EB82020DEB050E0E
:1023C00001250EF8045C55685D6095689D60D568D0
:1023D0001269DD601A61B7E7217819B1217D002902
:1023E000C0D1012101EB81010769466804EB810539
:1023F000D0E902ECC5E9016EC5E903C7012504F87F
:10240000215002F8015CADE700221A709CE700BF82
:102410008C0600242DE9F04F0021924800242DED78
:102420000C8BD5B001F0D8FA04218E4801F0FCF9EC
:1024300041F2883004F08CFD8B4901232246096863
:102440008A48009403F044FA894901232246096826
:102450008848009403F03CFAFFF790FD17AB002882
:1024600041F02281089300240125022612A9824806
:1024700013961694CDE9144503F074F931462246BB
:102480007D4803F0EDF97D4B2A467D4819682346C7
:10249000009403F01DFA2146794803F00BFB032357
:1024A0008DF8304032468DF831300DA80C9902F08D
:1024B00055FD2A4604230DA97248254602F062FD07
:1024C000704802F06DFF04F041FD064607E002F09F
:1024D0007DFF03460A2001341D4404F039FD04F059
:1024E00035FD0346002167489B1BB3F5FA6FEED319
:1024F000002C01F0E48042F23412B7EE007AB5FB12
:10250000F4F4A3B2934238BF13460A93A3F5FA53E7
:1025100007EE903AF8EEE77AC7EE27BA5A4B002654
:102520005A491B685A48C3EB43135A4F01EB8304C3
:1025300059499D00594B94ED018A78EE087AC0ED17
:10254000007A5748036047483E6001F065F9554BF3
:10255000C8203B6004F0FCFC32203E6004F0F8FC34
:10256000002002F021FC504802F010FC4F4802F01D
:102570000DFCD4ED027ABDEEC88A4449FDEEE77A3F
:10258000414A4B598DED008ACDED017A11680D223B
:102590004748013102F0FAFB464802F0F7FB94F895
:1025A0003D30002B01F07B80434802F0EFFB4348B5
:1025B0000DF1A40A02F0EAFB414802F0E7FB4148B2
:1025C00002F0E4FBDFED409A04F0C0FC0023F0EEE3
:1025D00069AA9FED3EBA1C46B0EE69AADFF8F490F6
:1025E0000DF1B90B254606900B9304F0AFFC09944E
:1025F00007900021234802F0E9FEB0F5FA5F00F2EF
:102600002C83334B9FED309A83ED009A04F09EFCAF
:10261000099B0690002B40F0398741F288331A4617
:10262000069B9A18099307930B920DF1EC081DA8CD
:10263000FFF710FD01271DA84146089A08E00B602E
:102640009F4201F10401B8BF1F461DAB934243D026
:1026500032F8023B002630F8024B1B1BEFD5334605
:102660000E60EDE704070024847A01086C0700245B
:10267000807A01085807002424070024887A01087A
:10268000440700241C0700240400002434740108BB
:1026900034000024E8060024E90A00080000C842CB
:1026A0002C000024CDCCCC3EB4700108C8700108C9
:1026B000DC700108F87001081C7101086C710108D8
:1026C000A0710108C0710108000000000000704204
:1026D000280000248C06002431A93BA8FFF742FD06
:1026E000061E40F30C8304F031FC069004F02EFC2F
:1026F0000790314631A8FFF719FE99F8003005938D
:10270000002B40F0DC8585F00106002D00F07C8573
:10271000814B1A680C2A03D07F4B80491B680B60E1
:102720007E4B1D68059B002B40F0FC839FED7C6A6F
:1027300000237C4A6C01F0EE467ADFED7B5AF0EE26
:10274000466A1370B0EE467A784B83ED006A9FEDCF
:10275000786AE9EEA57AAAEE067AEAEE866AF0EEE3
:10276000679AB0EE47AAF0EE66AA9FED728A002142
:1027700071486AEE087AFCEEE77A17EE903A9AB260
:1027800003F06EF86AEE887A01216B48FCEEE77A76
:1027900017EE903A9AB203F063F8684BC3ED009AD3
:1027A00099F81430002B00F0DD80D9ED067ADFEDCA
:1027B000646AF8EEE77A87EEA67AB5EEC07AF1EEB3
:1027C00010FA00F13F86F7EE007AB4EEE77AF1EE08
:1027D00010FA00F30787F6EE007AB0EE086A37EEDB
:1027E000677A27EE066AD9ED077ADFED566AF8EECA
:1027F000E77A87EEA67AB5EEC07AF1EE10FA00F12C
:10280000E185F7EE006AB4EEE67AF1EE10FA40F3F5
:102810005A85F0EE667AB0EE677AFAEE0E5AB1EEAD
:10282000084AB2EE045AF0EE653A67EEA76AF0EE97
:10283000454AE7EE843A66EEA76AE3EEA74A66EEFB
:10284000A46AF5EEC06AF1EE10FA40F10386DFEDFE
:102850003E6A9FED3E5A77EE666ADFED317AC6EE4C
:10286000855A9FED2F5A631B394A02EB8303B4EE5E
:10287000C57AD3ED186AF1EE10FA67EEA67A00F188
:10288000E585F7EE006AB4EEE67AF1EE10FA0BDCBD
:10289000F0EE004AB0EE085A67EE076AA7EE645AF7
:1028A00026EE857A26EE076AF5EEC05AF1EE10FAAA
:1028B00000F15E85B7EE007AF4EEC75AF1EE10FA39
:1028C00009DCB0EE005AF0EE086A25EEA57AE5EED6
:1028D000C56A27EE267A1F4B1D4A83ED006A1E4B00
:1028E000C3ED007A631B641B02EB8303D3ED177AFD
:1028F0001A4B67EE277AC3ED007A074B1B680C2B47
:102900003CD1054A124B11680D2253F82430013195
:10291000134802F03BFA49E00400002410000024B0
:1029200000000000F0060024CDCCCC3DE8060024D9
:102930006666E63E00F07F4524070024F406002486
:1029400000007A440000C8429A99593F9A99193E6A
:1029500034740108FC060024EC060024F806002468
:10296000047201080023C64A641B1360C54A136041
:10297000C54A1360C54B1B680C2BC2D0C34BC4485F
:102980001968C44B013103EB840253F8243092EDF3
:10299000027AD2ED017A0D22BDEEC77AFDEEE77A1A
:1029A0008DED017ACDED007A02F0F0F9BA480025FC
:1029B00002F0ECF9B9487B10049302F0E7F958F8FB
:1029C000042B002A40F3388102EB8200049B03EBC6
:1029D0008000B0FBF7F01428A8BF14205B230DF192
:1029E000A5066FEA0A048DF8A4303346E118814247
:1029F000ACBF2021232103F8011B9B45F6D15D23A9
:102A00008DF8B93000238DF8BA3099F80030002BDA
:102A100000F01081D9F80C30AB420CBF31232023D9
:102A200099F8141021B1D9F82010A94208BF322317
:102A30002946013500935346994802F0A7F90C2D19
:102A4000BDD17C252D2128220DF21D108DF81C51A1
:102A500013F0E6F8002199F800308DF845518DF813
:102A60004611BBB1D9F8043027224FF4FA70C3FBEA
:102A700002014FF47A720023FDF73EFE272800F38F
:102A8000338220EAE073013303F5A87331226B44EB
:102A900003F8342C99F81430C3B1D9F81830272230
:102AA0004FF4FA700021C3FB02014FF47A72002345
:102AB000FDF722FE272800F3198220EAE073013394
:102AC00003F5A87332226B4403F8342C754F47A9E1
:102AD00075484FF0010802F059F93B780AF11105E9
:102AE000002B00F0B180BB68002B40F3B2801801CE
:102AF0006E4A3230A2FB002040091028A8BF1020E7
:102B00005B228DF8A4200DF1A50211198142ACBF02
:102B10002021232102F8011BAA42F6D15D22CDF823
:102B200000A0414662488DF8B52000228DF8B620FD
:102B30007A6802F02BF9B8F1020F07F114077DD182
:102B4000B7EE007ADFED5B6AF6EE007A37EE499A6F
:102B5000E9EE267AFDEEE77A17EE903A17EE901A34
:102B6000642BA8BF6421002B21EAE17173DD0A0107
:102B70004E4B3232A3FB023252095B238DF8A43054
:102B800033199A42D4BF2023232306F8013BB542D0
:102B9000F6D15D23524648488DF8B53000238DF8B4
:102BA000B63002F0F3F8454BF2EE044A9FED415A7D
:102BB000D3ED006A424BFDEEE66A93ED006A304BBE
:102BC00016EE901AFDEEC66AD3ED005A2D4B65EE57
:102BD000A45A16EE902AD3ED007A3A4BFDEEE56A40
:102BE00093ED007A67EE857A16EE900A27EE057A65
:102BF000FDEEE77A0028BDEEC77A6FDB324BC517D2
:102C000083FB0043C5EBA3052B2305EB8504A0EB59
:102C100044048DED037ACDED027A2C48CDE90054C1
:102C2000059D02F0B3F82A4802F0B0F83C2004F009
:102C30008FF9DEE42023F3E60020CFE63B784FF067
:102C40000208002B7FF44FAF4146224802F09EF865
:102C500071E7002054E700228FE70A9B984280F03A
:102C60008B83A0F5FA5007EE900AB8EEE79A29EEAA
:102C70002B9A194B83ED009A00230993D5E400BFEA
:102C8000FC060024EC060024F806002404000024BE
:102C9000347201083474010850720108647201082A
:102CA000887201088C0600249C7201081F85EB5174
:102CB000A87201080000C842F8720108340000241C
:102CC0002C00002400070024676666661473010860
:102CD00050730108C8720108280000244342844C44
:102CE000A4FB0354E40804EB8404A3EB4404814BE9
:102CF00083FB0053C017A0EBA3052D2389E704F045
:102D000025F9069BC01AB0F5FA6F80F0268404F00E
:102D10001DF9079BC01A41F2873398427FF6E9AC50
:102D200000220DEE106A144604F010F906970746CB
:102D3000CDF81C802646DDF82080CDE904452546E7
:102D400004F004F96C4BC41BDFED6C6A9FED6C7AE8
:102D5000F7EE008AA3FB042342F6E0621B0A02FBA3
:102D6000134307EE903AF8EEE77A87EEA60A20EED4
:102D7000070A12F03DFBF6EE007A38EEC00AB6EE16
:102D8000006AB7EE007A60EE277AF0EE006A37EE5E
:102D9000A78A77EEC67A78EEC88AF0EEE77A38EE40
:102DA000478AB7EE007AF5EEC08AA7EEE67AF1EE32
:102DB00010FAB5EEC08A48BFDFED528AF1EE10FA84
:102DC000B5EEC07A48BF9FED4F8AF1EE10FA67D496
:102DD000B5EE407AF1EE10FA00F17884B1EEC70A50
:102DE000B5EE400AF1EE10FA00F17684B1EEC0CAF9
:102DF000F5EE408AF1EE10FA00F17484B1EEE80AC3
:102E0000B5EE400AF1EE10FA00F17284F1EEC08ADC
:102E1000B5EE408AF1EE10FA00F17084B1EEC80A06
:102E2000B5EE400AF1EE10FA00F16E84B1EEC07A10
:102E3000DFED35CA00219FED358A35486CEE2C7ADE
:102E400027EE088AFCEEE77A17EE903A9AB202F083
:102E500007FD68EEAC7A01212D48FCEEE77A17EE0B
:102E6000903A9AB202F0FCFC2A4B83ED008AD5B16D
:102E700023A8FFF7EFF823A84246002132F8023BCF
:102E800030F8024B1B1B9942B8BF19461DAB934249
:102E9000F4D1092900F371830A2004F059F84FE7AF
:102EA0009FED187A9AE729461B4802F08FFA049B97
:102EB000B4F5FA6F06F1010603440493D8D342F245
:102EC0003412B7EE007A0125B3FBF6F39BB29342BE
:102ED00038BF13460A93A3F5FA5307EE903AF8EE7B
:102EE000E77AC7EE27BAC3E72823CDE52823E7E52D
:102EF000CDCCCCCC67666666F119760500803B4682
:102F0000DB0FC9400000000000F07F45CDCCCC3D78
:102F100024070024F40600241C07002400007A443F
:102F20000000C842D9ED017A1FED047AF8EEE77A85
:102F3000C7EE87CAF5EEC0CAF1EE10FA00F1BC8107
:102F4000B7EE007AF4EEC7CAF1EE10FA37FE2C7A2B
:102F5000D9ED027A5FED0E6AF8EEE77A87EEA6DA2F
:102F6000B5EEC0DAF1EE10FA00F16982B7EE008A30
:102F7000B4EEC8DAF1EE10FA38FE0D8AC5EB45134F
:102F8000E249F6EE006A9FEDE26A01EB8303F7EE99
:102F9000007A6C01D3ED035A93ED01CA27EE257A2E
:102FA000D3ED028AE7EE066AB0EE676AA6EE876A9C
:102FB000E6EE077A6CEE277AB4EEE7CAF1EE10FA85
:102FC00000F3EB81F4EE687AF1EE10FA78FEA77A5E
:102FD0000C2A4BFE277AB4EEE7CAF1EE10FA40F362
:102FE000E181B5EEC08AF0EE4C8AF1EE10FA00F104
:102FF000E681F7EE007AB4EEE78AF1EE10FA0FDC24
:10300000B1EE086AFAEE0E6AB2EE047A68EE087A59
:10301000E8EE066A67EE887AA8EE267A67EE877A87
:10302000631BBA4ADFEDBB4AF6EE006A02EB83038C
:103030009FEDB95A9FEDB66AB7EE007A93ED114A4B
:10304000DFEDB65A67EE847AD3ED150AF4EEE50AA1
:1030500067EEA47AF1EE10FAA7EE856AE6EE276A2B
:10306000B0EE476AA6EEA76AA6EE277AF0EE47DA38
:10307000C0F26082F0EE687A631BA44AF3EE046A41
:1030800002EB830393ED106A67EE867A67EEAD7A02
:10309000F4EEE67AF1EE10FA00F17C819FEDA07A71
:1030A000F4EE477AF1EE10FA77FE277A9FED9D7ADB
:1030B0009FED9D6A38EE477AC7EE066AF5EEC06A64
:1030C000F1EE10FA00F15B81B7EE007AF4EEC76A18
:1030D000F1EE10FA00F38382B0EE005ADFED935A5E
:1030E000B0EE087A26EEA66AA6EEC57A26EE076A44
:1030F00026EE256AB5EEC08AF1EE10FA00F147819E
:10310000F7EE006AB4EEE68AF1EE10FA09DCF0EEB2
:10311000005AB0EE087A68EE086AA8EE657A66EEA4
:10312000876A834BB7EE007A784AF5EEC0CAC3EDE2
:10313000008A804BF1EE10FAC3ED007AF0EE477A88
:103140007D4B83ED006AA4EB050302EB83037B4A0E
:1031500093ED136A7A4BE6EE267AC3ED007A4FF0D0
:1031600001031370774B784A136040F12F81B5EE5D
:10317000C0DAF1EE10FA40F11E82F0EE478A9FEDC0
:1031800079CAF6EE08DADFED776AB1EEE60AB5EE57
:10319000400AF1EE10FA00F1EB82F1EEC07AF5EEA2
:1031A000408A2DEEA78AF1EE10FA00F1DC82B1EE32
:1031B000E80AB5EE400AF1EE10FA00F1CF82F1EE26
:1031C000C07AB5EE40CA6DEEA78AF1EE10FA00F1B2
:1031D000C082B1EECC0AB5EE400AF1EE10FA00F171
:1031E000B382F1EEC07A9FED597A6DEEA77A67EE61
:1031F000877A002E00F0A581F0EE679AF0EE68AABB
:10320000B0EE48AAFFF7B1BA03F0A0FE504B1A681F
:103210000C2A7FF481AA059B002B00F09182D9ED46
:10322000017A9FED4C7AF8EEE77AC7EE87CAF5EEA1
:10323000C0CAF1EE10FA00F1E481F7EE007AF4EE84
:10324000E7CAF1EE10FA00F30382F1EE007A424988
:1032500042486CEEA77ABDEEE77A17EE103A032BE0
:10326000A8BF032307EE103A51F82310B8EEC77A2F
:1032700077EEC77AB0EE677ABEEECF7A17EE103AE5
:10328000032BA8BF032300EB830393ED00BA344B59
:10329000F5EEC0CA1D48196019461B68F1EE10FA18
:1032A0000D68C3EB4313059E00EB8303D3ED017A56
:1032B0002BEE27BA7FF544AE9FED2A7A48E603F05D
:1032C00045FEFFF720BAF1EE085A9FED274AFAEEC5
:1032D0000E4ADFED263AB2EE045A67EE077AE7EEC1
:1032E000254A37EE444A67EE877AC4EE235AA7EEA2
:1032F000245A67EE857AF5EEC07AF1EE10FA40F1C5
:10330000BB80DFED187AFFF7ACBA00BF3474010858
:1033100068B32A3E006F313F9FCD2A3D77BE7F3F85
:1033200000A08C469A99193FCDCCCC3ECDCC4C3FD9
:10333000340000242C00002400070024F0060024A0
:1033400030000024EC51383FE8060024CDCCCC3DC1
:103350000400002400007A44E4730108F4730108B7
:1033600010000024000000009A99593F9A99193ED4
:103370001FED047AFFF7AFBAB7EE009A79E4B5EE25
:10338000C08A1FED086AF1EE10FA7FF5B9AE5FED65
:103390000B6AC6E6F0EE667A88E60C2A00F02E810B
:1033A000F0EE4C7AF4EEE78AF1EE10FAB5EEC08A50
:1033B00058BFF0EE678AF1EE10FA7FF51AAE5FEDB6
:1033C000177A2DE65FED197AFFF725BAF4EEC7CA32
:1033D000F1EE10FAB5EEC0DA00F30881F1EE10FA62
:1033E00040F11C81F6EE007AB0EE006ABFEE00CA32
:1033F000F6EE08DA7CEEE77AF0EE478AACEE86CAA3
:10340000F0EEE77AECEEC68AA7EEC67AF0EE476AEF
:10341000F5EEC08AF1EE10FAB5EEC0CA48BF5FED16
:103420002F8AF1EE10FAF5EEC06A48BF1FED33CADD
:10343000F1EE10FA40F128815FED366AA5E61FED46
:10344000378A9BE5BFEE086AFFF7CDB926EE056A1D
:10345000FFF72ABAF7EE007AF4EEE76AF1EE10FA17
:1034600040F358815FED406A1FED405A77EE666A7F
:10347000C6EE855AFFF7F5B9F4EEE67AF1EE10FAEA
:103480007FF7CBA9F0EE667AFFF7EBB9069B0B9AB4
:103490009B1A002BC0F2EF80B84EB94A3168B94888
:1034A000013182FB0132CB17C3EBA2030D2203EBE8
:1034B000430403EB8403B44CCB1A336031683368A4
:1034C0000131C3EB431354F8233001F05FFC34683F
:1034D000002C24DB002640F6FF720021AB480136A9
:1034E00002F0BEF940F6FF720121A84802F0B8F9D7
:1034F000A74FA84B6E203B6003F02AFD0022A34893
:10350000114602F0ADF900220121A04802F0A8F90D
:1035100000238C203B6003F01BFDB442DBDA03F098
:1035200015FD00F5FA639FED9C9A0B93069B07939C
:10353000FFF77BB888EE8C0A12F062F96CEE007A25
:103540009AE59FED966ADFED965A28EE067A68EEC8
:10355000866A67EE867AFFF7FAB80023089889F83A
:10356000143089F80030FEF78FFD8E4801F00EFC14
:1035700003F0ECFC0690FFF7CABB00228348059DD0
:103580001DEE106A1146DDE9067802F069F90121A5
:1035900000227E4802F064F900237D4A136003F0A4
:1035A000D5FC079003F0D2FC0A9906907E4801F002
:1035B000EDFBFFF79EB8B4EEC7DAF1EE10FA24DCAB
:1035C000BFEE00CADFED746AF0EE478AB5EE007A0E
:1035D000F6EE087AEDEE077AF0EE67DA18E79FED7F
:1035E000736A87E5B7EE086AFFF7FDB8F1EE10FAE7
:1035F00022D5B0EE47CADFED688AC2E5F0EE4B7A1D
:10360000E9E4B7EE00BA092141E6F0EE478A9FED02
:1036100062CAF7EE00DADFED606AB6E5B4EEC7DA4B
:10362000F6EE007AB0EE006AF1EE10FABFEE00CAD4
:1036300012DDF0EE47DADDE6B4EEC7DAF1EE10FAAD
:103640001DDCFFEE008ADFED546AB0EE47CABDE72D
:10365000B0EE00BA0B211AE67CEEE77AF0EE478A6C
:10366000ACEE86CAF0EEE77AECEEC68AA7EEC67A32
:10367000F0EE476AAAE7069B0793FEF7D6BFB0EEC7
:1036800047CADFED458AC4E7F5EE406AF1EE10FA6D
:103690007FF57BADB0EE660A12F046FA77E5444856
:1036A00001F074FBFEF783BF1C464FF4967008933D
:1036B00003F04EFC2046FEF7E7FCFEF7D4BE4DF2C9
:1036C000D863DFED3CBA0A93FEF728BFB0EE470A95
:1036D00012F02AFAFFF784BB12F026FAB0EE40CAC5
:1036E000FFF786BBB0EE680A12F01EFAFFF788BB40
:1036F00012F01AFAF0EE408AFFF78ABBB0EE480AE1
:1037000012F012FAFFF78CBB12F00EFAB0EE407A0C
:10371000FFF78EBBE6EE845ADFED273A66EEA67A17
:103720009FED263A37EE634A67EEA67AF0EE654AD9
:10373000C4EE035AA6EEA45A67EE857AFFF791B855
:103740001F4B1D68FEF7F2BF12F0EEF9F0EE407A63
:1037500049E5B0EE4C0A12F0E7F93CE512F0E4F965
:10376000F0EE407A2DE5B0EE680A12F0DDF920E5C2
:1037700012F0DAF9F0EE407A11E500BF04000024FF
:103780004FECC44EC87101083474010824070024AA
:10379000F4060024CDCCCC3D00000000CDCC0C3F85
:1037A0006666E63EDC710108EC710108CDCC4C3F49
:1037B00044710108247BB2379A99593F9A99193E6E
:1037C0001000002410B50E4800240E4A0E49046073
:1037D00044610462C46311F003FE0C494FF60B70A0
:1037E0000B4A0C4B0860CC60C1E90144C2E90004FB
:1037F000C2E90244C3E90004C3E9024410BD00BFAA
:103800000407002400000024E50A00086C070024D7
:103810005807002444070024143001F009BA00BFFF
:10382000143001F001BA00BF38B500F114050446A8
:103830002DED028B284601F0E9F9284601F0F4F954
:103840002846B0EE408A01F0DDF9D0ED007AF8EEBE
:10385000677A88EE277ABDEC028B84ED0E7A38BD4C
:1038600010B540F203338EB000244FF60B7240F2D5
:103870000341ADF8083009A80123ADF81020ADF8D8
:1038800024202246ADF80C100094029907940C9461
:10389000CDE90544CDE90A4402F01AF804A8012351
:1038A00022460399009402F013F809A802F0F6F8F2
:1038B00010B901200EB010BD04A802F0EFF8A0422C
:1038C0000CBF022020460EB010BD00BF2DE9F04114
:1038D00003239AB0012700240646CDE914373B4B59
:1038E000CDE9104340F20453CDE91647ADF8483016
:1038F000FFF7B6FFB842054625D0022845D040F66E
:103900000132334B0DF12C081894ADF82C200B9894
:103910001997CDF84A3000F0E3F810A906F13C0001
:1039200003F0F6F8302003224FF07E5341460D930A
:103930000E93CDE90B02F26B06F1140001F02AF9A7
:103940001AB0BDE8F0811023214A06A906908DF82F
:1039500028300DF12C081F4BCDF84A200793029414
:10396000CDE91804CDE9080402A802F009FB0823F8
:10397000029A03A94046ADF80C508DF80E4004950C
:1039800005930B9400F0ECF8C7E700200121104BE1
:103990000DF12C083A460094CDF84A304FF60B73DF
:1039A0000C94ADF82C302346CDE9180140F60131D6
:1039B0004046ADF818100699CDE90D4401F088FF96
:1039C0002146404602F076F8A7E700BF040204044F
:1039D000040604030704010B2DE9F04704462DED0E
:1039E000028B82B000294DD0012140F20112002348
:1039F0000091ADF804208DF80630364A0127364B89
:103A000004F10409354904F12908626040F20272A8
:103A1000A36040F60663E16004F1250AA4F82520BE
:103A2000A4F82930278284F8277084F82B7003F0DB
:103A300033FC054603F094FA6946064650BB4DB385
:103A400004F130008DF8067003F0ACFB072D3CD17B
:103A500004F114052046FFF739FF284601F0E4F889
:103A60002846B0EE408A01F0CDF8D0ED007AF8EEAD
:103A7000677A88EE277A84ED0E7A02B0BDEC028B6D
:103A8000BDE8F08740F2011300918DF80610ADF803
:103A90000430B2E704F1300003F084FB072D11D0AD
:103AA0004946204602F0B4FC0EB9002DD0D1504654
:103AB00002F00AF8404602F007F804F1120000F0A4
:103AC00079F9C5E7002EF2D1C2E74946204602F057
:103AD0009FFCBDE70508050905070506050A06065A
:103AE00010B584B003460124ADF8040003A8ADF876
:103AF0000C30ADF80E4001F0E7FF214603A802F0BC
:103B0000BFF8204603F024FA002103A802F0B8F819
:103B1000204603F01DFA214603A802F0B1F804B0D4
:103B200010BD00BF10B5C2F3002384B00C46017C69
:103B30008DF80D2043EA4402FA2402238DF80C206C
:103B400003AA009402F0B2FA18B10124204604B08E
:103B500010BD04460A2003F0FBF9204604B010BD56
:103B6000034670B543F8042B044684B007C983E8C4
:103B70000700A37983B91A210B461E22FA25237464
:103B80002046ADF80C20022303AA009502F08EFA1D
:103B900028B1012004B070BD1B210B46EDE70A20BF
:103BA00003F0D6F94FF4B85200950223ADF80C207B
:103BB000204603AA217C02F079FA0028E9D10A20E4
:103BC00003F0C6F941F2027200950223ADF80C2011
:103BD000204603AA217C02F069FA0028D9D10A20E4
:103BE00003F0B6F9042200950223ADF80C2020461C
:103BF00003AA217C02F05AFA0028CAD10A2003F055
:103C0000A7F9062200950223ADF80C20204603AA4E
:103C1000217C02F04BFA0028BBD10A2003F098F96E
:103C200041F2082200950223ADF80C20204603AA99
:103C3000217C02F03BFA0028ABD10A20064603F0B3
:103C400087F90095022303AA217C2046ADF80C6079
:103C500002F02CFA00289CD1304603F079F9009547
:103C600022790C232046002A8DF80C3003AA4FF04D
:103C7000020314BF622142218DF80D10217C02F055
:103C800015FA002885D1304603F062F92279D4E98B
:103C900002310B43DBB20AB943F0400362790AB147
:103CA00043F020030E22FA258DF80D3020460095B2
:103CB00002238DF80C2003AA217C02F0F7F90028DA
:103CC0007FF467AF0A2003F043F910220095022326
:103CD000ADF80C20204603AA217C02F0E7F9002869
:103CE0007FF457AF0A2003F033F912210095022325
:103CF000ADF80C1003AA217C204602F0D7F9002869
:103D00007FF447AF0A2003F023F90122092120465E
:103D1000FFF708FF003818BF01203BE7F0B510237C
:103D200087B0234C012200250126002702A9204646
:103D30000195CDE902234FF48052CDE904670AF0E2
:103D400067FE642004F0E6F802A94FF48052204692
:103D5000CDE9046702261027CDE902670AF058FE74
:103D60000322102302A92046CDE9022300230422C6
:103D7000CDE904234FF480520AF04AFE40F2322388
:103D8000042202A9019310232046CDE90223019ABF
:103D9000012305924FF4805204930AF039FE40F655
:103DA000060120460AF054FE284607B0F0BD00BFC9
:103DB000880700241C4B00221C494FF0400C30B5F2
:103DC000054689B00220596007219A601A620124D1
:103DD000DA620A224FF4006EDC6006922022CDE9FE
:103DE000000104200821CDE9020103201021CDE9C2
:103DF000040108206946C3E904024FF4C072181D8B
:103E0000C3E906C24FF48052C3E909E20AF0D6FDC5
:103E100038B92846FFF782FF003818BF012009B0E3
:103E200030BD204609B030BD840700244041005217
:103E3000614A0021D0B513688EB00A91002B40F082
:103E4000B9805E4B01214FF683700C241160022172
:103E5000D3F8D4200026032742F48052C3F8D4209C
:103E6000D3F8D42002F480520092009AD3F8E020D4
:103E700042F01002C3F8E020D3F8E02002F0100274
:103E80000192019AD3F8E02042F04002C3F8E0200A
:103E9000D3F8E02002F040020292029AD3F8E02028
:103EA00042F00802C3F8E020D3F8E02002F0080254
:103EB0000392039AD3F8E02042F48072C3F8E02022
:103EC000D3F8E02002F480720492049AD3F8E02040
:103ED00042F08002C3F8E020D3F8E02002F0800234
:103EE0000592059AD3F8E02042F02002C3F8E020C2
:103EF000D3F8E02002F020020692069AD3F8E020E0
:103F000042F00402C3F8E020D3F8E0300C9403F050
:103F1000040307930323079A0B93CDE9080108A92B
:103F2000274805F0A9FF48F23712022308A92548BF
:103F30000C94CDE90823CDE90A6705F09DFF4CF20A
:103F40000372022308A920480C94CDE90823CDE987
:103F50000A6705F091FF40F2FF62022308A91B489F
:103F60000C94CDE90823CDE90A6705F085FF4FF6EB
:103F70000C72022308A916480C94CDE90823CDE958
:103F80000A6705F079FF4FF63F02022308A911489E
:103F90000C94CDE90823CDE90A6705F06DFF2022D6
:103FA000022308A90A480C94CDE90A67CDE9082341
:103FB00005F062FF0EB0D0BD800700240044025817
:103FC0000010025800180258000C02580020025835
:103FD000001C0258001402582DE9F04FDFF810843D
:103FE00006460D46144608F118002DED028B89B0E7
:103FF00000AF02F085FED8F8183073B3D8F81C3043
:10400000D8F80490002B43690BBF4FF0080A4FF01B
:10401000100A4FF0020B4FF0040BB9F1000F2AD039
:10402000A200EA46012B02F1070222F00702ADEBE3
:10403000020D6846ADEB020D694600F03F81022B90
:1040400000F0D680002B6FD02246C847D5462437D3
:10405000BD46BDEC028BBDE8F08FD8F81C30002BBC
:10406000F5D0D8F804904FF0080A4FF0020B4369DE
:10407000B9F1000FD4D1FB61D8F80030BB61002B3F
:10408000E5D0D54802F0AEFE6B46BBF1020F786179
:1040900008EE103AFB6900F083816A465146A2EBB4
:1040A000C40295466200EA46B2FBFBF2AAEBC400EA
:1040B00085460AEB8200EE46F861ADEB010DF8692A
:1040C0000EEB820CC7F810C0EC46ADEB010D00EB17
:1040D0008201CCF80400CCF8081001EB82013869A9
:1040E000E946CCF80C1000EB8201CCF800A001EB03
:1040F0008202C9E900E0C9E90212012B00F06483E1
:10410000022B00F06C82002B00F08081620849468F
:104110006046BB69984718EE103A24379D46BD4665
:10412000BDEC028BBDE8F08F002C8DD01A46D8ED87
:104130000C6A9FEDB27A8446331D36F922E00CF109
:10414000080C07EE90EA33F922E00232F8EEE77A43
:10415000944267EE877A67EEA67A4CED027A07EE14
:1041600090EAF8EEE77A67EE877A67EEA67A4CED8A
:10417000017AE2D8F9612246C847984ED8ED0D6A17
:104180000020F9692B1D9FED9E7A9FED9E6ADFED61
:104190009E5A22E0F4EEC67AF1EE10FAC0F2C8841C
:1041A00047F6FE72D1ED017A45F8202066EEA77A37
:1041B000F4EEC77AF1EE10FA40F2F080F4EEC67A2F
:1041C000F1EE10FAC0F2D58447F6FE7243F82020D3
:1041D0000230083184427FF639AFD1ED007A66EEC5
:1041E000A77AF4EEC77AF1EE10FAD3D83246D9E7BF
:1041F000002C3FF429AFD8ED0C6A84469FED787A05
:104200000022331D8E4656F822100CF1080C07EEE2
:10421000901A53F822100232F8EEE77A944267EED1
:10422000877A67EEA67A4CED027A07EE901AF8EEDE
:10423000E77A67EE877A67EEA67A4CED017AE2D8E4
:1042400071462246C7F81CE0C847664ED8ED0D6A95
:104250000020F9692B1D9FED6A7A9FED6A6ADFF8ED
:1042600094C120E0F4EEC67AF1EE10FAC0F279843F
:104270003246D1ED017A45F8202066EEA77AF4EEB9
:10428000C77AF1EE10FA40F28780F4EEC67AF1EECA
:1042900010FAC0F25E84324643F820200230083122
:1042A00084427FF6D3AED1ED007A66EEA77AF4EEC3
:1042B000C77AF1EE10FAD5D86246DAE7002C3FF45F
:1042C000C3AED8ED0C6A86469FED477A4FF0000CDE
:1042D000331D56F82C200EF1080E82F40002A2F5D0
:1042E000000207EE902A53F82C200CF1020CF8EE95
:1042F000E77A82F400026445A2F5000267EE877A4D
:1043000067EEA67A4EED027A07EE902AF8EEE77A8B
:1043100067EE877A67EEA67A4EED017AD9D8F96111
:104320002246C847314ED8ED0D6A0020F9692B1D91
:104330009FED337A9FED336ADFF8BCC01FE0F4EEE7
:10434000C67AF1EE10FAC0F2FC833246D1ED017A62
:1043500045F8202066EEA77AF4EEC77AF1EE10FA5F
:1043600018D9F4EEC67AF1EE10FAC0F2DA833246CA
:1043700043F820200230083184427FF667AED1ED49
:10438000007A66EEA77AF4EEC77AF1EE10FAD6D884
:104390006246DBE76246EBE762467DE7324615E7B9
:1043A000A100D6466208073121F00701ADEB010DEF
:1043B000EA46ADEB010D6946ADEB0E0D0AEB82004E
:1043C000EC46ADEB0E0D01EB8202F861E946CCE95B
:1043D00000A0C9E9001290E6D80700240280FFFF80
:1043E000000000300082FF7F0000003482FF7F0069
:1043F000BC070024007E00807E0080FF00000038A3
:1044000004FF7FBF04FF7F3F00FEFF46002C00F04B
:10441000C982BBF1020FD8F8242000F0FA82796932
:10442000C7F8049002EB810E5FED0C5A8A00DCF8AD
:1044300008100EF104007A611A46DCF80C303B617A
:10444000331DD7F810903D61FD69C7E902CB8C465A
:10445000834636F92210D8ED0C7A06EE101A33F99D
:10446000221006EE901A3EF92210B8EEC66A07EE48
:10447000101AF8EEE66A3BF92210B8EEC77A26EE7B
:10448000256A66EEA56A27EE257A26EE276A66EE8D
:10449000A76A27EE277A07EE901A51080232F8EE43
:1044A000E77A0AEB8100944280ED006A05EB810017
:1044B00067EEA57AC0ED006A0CEB810009EB810183
:1044C00080ED007A98ED0C7A67EE877AC1ED007A7C
:1044D000BFD8D7F804903D69D7E902CB604662089F
:1044E000BB6949469847D8F82C307A69D8ED0D6AEF
:1044F0001A441FED3D7A1FED3D6A2B1D904602F1D7
:10450000040A5FED3F5A0022A84ED9E900EC51E0C1
:10451000F4EEC67AF1EE10FAC0F2C78247F6FE70EA
:1045200045F822000CEB0100D0ED007A66EEA77A88
:10453000F4EEC77AF1EE10FA4BD9F4EEC67AF1EE4A
:1045400010FAC0F2BA8247F6FE70BBF1020F43F8D0
:1045500022002BD0D9F808000844D0ED007A66EE8E
:10456000A77AF4EEC77AF1EE10FA36D9F4EEC67AED
:10457000F1EE10FAC0F2CD8247F6FE7048F8220044
:10458000D9F80C000144D1ED007A66EEA77AF4EE7A
:10459000C77AF1EE10FA1ED9F4EEC67AF1EE10FAEF
:1045A000C0F2AF8247F6FE714AF8221002329442FE
:1045B0007FF6B1AD51080EEB81008900D0ED007A95
:1045C00066EEA77AF4EEC77AF1EE10FAA0D830467C
:1045D000A6E73046B9E73146E6E73046CEE7002C9D
:1045E00000F0E081BBF1020FD8F8243000F0E18147
:1045F0007A69DCF8081003EB820EC7F80490930088
:10460000DFED6B5A0EF1040000227B61DCF80C3008
:104610003B61331DD7F810903D61FD69C7E902CBBE
:104620008C46834656F82210D8ED0C7A07EE101A05
:1046300053F82210B8EEC76A07EE101A5EF822107F
:10464000F8EEC76A07EE101A26EE256A5BF822100C
:10465000B8EEC77A66EEA56A26EE276A27EE257AB7
:1046600066EEA76A27EE277A07EE901A5108023203
:10467000F8EEE77A0AEB8100944280ED006A05EBE0
:10468000810067EEA57AC0ED006A0CEB810009EBB2
:10469000810180ED007A98ED0C7A67EE877AC1EDA2
:1046A000007ABFD8D7F804903D69D7E902CB6046BD
:1046B0006208BB6949469847D8F82C307A69D8ED2A
:1046C0000D6A1A449FED3E7A9FED3E6A131D924695
:1046D000DFF8E4C00022FB612B1D364ED9E9008EC5
:1046E0004EE0F4EEC67AF1EE10FAC0F2FC813046EC
:1046F00045F822000EEB0100D0ED007A66EEA77AB5
:10470000F4EEC77AF1EE10FA49D9F4EEC67AF1EE7A
:1047100010FAC0F2EF813046BBF1020F43F82200DD
:104720002AD0D9F808000844D0ED007A66EEA77ABE
:10473000F4EEC77AF1EE10FA35D9F4EEC67AF1EE5E
:1047400010FAC0F2C98130464AF82200D9F80C00AC
:104750000144D1ED007A66EEA77AF4EEC77AF1EE65
:1047600010FA1ED9F4EEC67AF1EE10FAC0F2AD815D
:104770003146F86940F82210023294427FF6CBAC01
:10478000510808EB81008900D0ED007A66EEA77A27
:10479000F4EEC77AF1EE10FAA3D86046A8E76046B7
:1047A000BAE76146E5E76046CEE700BF0280FFFF5B
:1047B000000000300082FF7F007E00800000003497
:1047C00004FF7FBF04FF7F3F002C00F0EB807A697D
:1047D0000021D8F82430C7F8109003EB820ED7F8E8
:1047E0001C909300FD610EF104021FED0C6A7B61C9
:1047F000331D154656F821204808D8ED0C6ABBF148
:10480000020F82F40002A2F5000207EE902A53F88C
:10481000212082F40002B8EEE77AA2F5000227EE2A
:10482000067A07EE902A0AEB8002F8EEE77A27EE86
:10483000267A67EE867A82ED007A09EB80024FEAEB
:10484000800067EEA67AC2ED007A27D05EF82120BC
:1048500082F40002A2F5000207EE902A55F821200A
:1048600082F40002B8EEE77AA2F5000227EE067A9B
:1048700007EE902ADCF80820F8EEE77A024427EEEB
:10488000267A67EE867A82ED007A98ED0C7ADCF86B
:104890000C2067EE877A0244C2ED007A02318C4226
:1048A000A8D8D7F8109060466208BB694946FD69F0
:1048B0009847D8F82C307A69D8ED0D6A1A441FED64
:1048C000407A1FED406A131D9246DFF8C4C20022F1
:1048D000FB612B1DAB4ED9E9008E4EE0F4EEC67A9B
:1048E000F1EE10FAC0F2C580304645F822000EEB1A
:1048F0000100D0ED007A66EEA77AF4EEC77AF1EE09
:1049000010FA49D9F4EEC67AF1EE10FAC0F2BF807F
:104910003046BBF1020F43F822002AD0D9F8080034
:104920000844D0ED007A66EEA77AF4EEC77AF1EE8D
:1049300010FA35D9F4EEC67AF1EE10FAC0F2AE8074
:1049400030464AF82200D9F80C000144D1ED007A33
:1049500066EEA77AF4EEC77AF1EE10FA1ED9F4EEFD
:10496000C67AF1EE10FAC0F28B803146F86940F851
:104970002210023294427FF6CEAB510808EB810040
:104980008900D0ED007A66EEA77AF4EEC77AF1EEF0
:1049900010FAA3D86046A8E76046BAE76146E5E7A3
:1049A0006046CEE7224649466046BB699847FFF716
:1049B000B2BBC7F810B0002298ED0C6A331DDFEDD2
:1049C000726AD7F81CB0786956F8221007EE901A70
:1049D00053F82210B8EEE77A07EE901A5108023227
:1049E000F8EEE77A27EE267A0AEB810E94420BEB7B
:1049F000810167EEA67A27EE067A67EE867A8EED5B
:104A0000007AC1ED007ADFD88300D7F810B07B615F
:104A10004DE61A46C7F810B098ED0C6A331DDFED6D
:104A20005B6AD7F81CB0786936F9221007EE101AC5
:104A300033F9221007EE901AB8EEC77A5108023205
:104A4000F8EEE77A27EE267A0AEB810E94420BEB1A
:104A5000810167EEA67A27EE067A67EE867A8EEDFA
:104A6000007AC1ED007ADFD88300D7F810B07B61FF
:104A700034E5F0EE675AFEEEE45A15EE900A34E79C
:104A8000F0EE675AFEEEE45A15EE901A6EE7F0EE7D
:104A9000675AFEEEE45A15EE900A3AE7F0EE675ACE
:104AA000FEEEE45A15EE900A4BE767EEA57AFDEEAE
:104AB000E77A17EE900A00B232E567EEA57AFDEECE
:104AC000E77A17EE900A00B23FE5F0EE675AFEEE85
:104AD000E05A15EE901A4CE6F0EE675AFEEEE05AF8
:104AE00015EE900A30E6F0EE675AFEEEE05A15EE4B
:104AF000900AFDE5F0EE675AFEEEE05A15EE900AD8
:104B00000AE667EEA57AFDEEE77A17EE901A09B28B
:104B10004AE567EEA57AFDEEE77A17EE900A00B255
:104B20002CE5F0EE675AFEEEE45A15EE902A1FE4EB
:104B300067EEA57AFDEEE77A17EE902A12B2FFF73C
:104B400031BBF0EE675AFEEEE45A15EE902AFFF7FD
:104B5000FDBBF0EE675AFEEEE05A15EE902AFFF725
:104B60009BBBF0EE675AFEEEE05A15EE902AFFF777
:104B700080BB67EEA57AFDEEE77A17EE902A12B2B7
:104B8000FFF724BB82FF7F000000003000000038E8
:104B90007E0080FF30B5184C154685B0046004F1E6
:104BA000080EEC460FC98EE80F00D4ED047AF5EE3E
:104BB000C07A8CE80F00F1EE10FA1ADDB7EE006A49
:104BC00094ED057A27EE277AC6EE276A84ED0D7AF2
:104BD000C4ED0C6A6DB1204640F8185F02F090F801
:104BE000064903690020064A2162A262E36005B01B
:104BF00030BD012005B030BDBC07002400200030CE
:104C00000000003000680830704700BFB1F5807FB9
:104C100003680A4628BF4FF48072B1F5807F9A601E
:104C200094BF0020012070470068183002F0C8B817
:104C300030B5046883B00D46E3694BB1A36800202A
:104C4000E26A616A9B00009004F11C0002F05AF8CD
:104C5000A3680748A26A9B00216A009004F118002B
:104C600002F050F80020C4E9005003B030BD00BF8E
:104C7000D93F000810B4074B4FF07E51302400227A
:104C8000032019619C60D8605DF8044B5961C3E949
:104C900006227047BC070024704700BFF8B5134FC9
:104CA0003C687F2C07D98023114A42F224411C46DC
:104CB0003B60A2F87E100F4D2B68012B0AD90C4ED9
:104CC0000D4D22463146284600F02CF90028F8D137
:104CD0003860F8BD22460649074800F023F900284D
:104CE000F7D12B68386001332B60F8BDF80700243A
:104CF000FC070024F40700247C08002430B4154C81
:104D00002168F1B14B1E144DE81810F801298C46AA
:104D100019460A2A01D00D2A02D14BB1013BF4E712
:104D20000CF102037F2B10D98023236030BC704725
:104D30000122022323600D200A236854AB5430BCA7
:104D4000704701220223044DF4E70CF10102614691
:104D5000F0E700BFF8070024FC07002410B5094C59
:104D600002460B46084821680844C1F1800111F051
:104D7000BFF8236818442060FFF7C0FFFFF78EFFDD
:104D800010BD00BFF8070024FC0700240FB400B5D5
:104D900083B004A951F8040B0191FFF7DFFF03B0C2
:104DA0005DF804EB04B0704710B5044600210A48D2
:104DB00000F032F8002C094B14BF022200220848F0
:104DC0001A60FFF7E3FF0748FFF7E0FF0A20BDE89E
:104DD000104002F0BDB800BF7C080024F407002496
:104DE0008C7A01089C7A0108064A0749074808B5E9
:104DF00010F0F6FA034A04490548BDE8084010F0EF
:104E0000EFBA00BF00000024994C00087C08002481
:104E100080080024704700BF012910B506D0022980
:104E200015D051B1BDE8104006F008BF0A4634481D
:104E300034490BF023FBE8B1FEE7334B0A46334C11
:104E4000334934481C600BF019FB68B1FEE70122BE
:104E50002C492B480BF012FB00B1FEE72E492848E5
:104E60000BF02EFBC0B1FEE72B492A480BF028FBC4
:104E700060B1FEE7284922480BF022FB00B1FEE7B3
:104E800026491F480BF0AAFA08B3FEE72449214837
:104E90000BF0A4FAA8B1FEE7204919480BF09EFADE
:104EA00000B1FEE716480BF021FB024640B9164B55
:104EB000164C174917481C600BF0E0FA68B1FEE782
:104EC000FEE714480BF012FB0028ABD0FEE70C48BD
:104ED0000BF00CFB0028A5D0FEE70F490D480BF0A6
:104EE000EFFA00B1FEE70E490A480BF077FA00B17D
:104EF000FEE708480BF0FAFA002893D0FEE700BF5F
:104F0000200B0024D4000024BC0D0024154E000802
:104F1000B8000024840800243C01002498000024E8
:104F200088000024084691B208B502F0EFFA003874
:104F300018BF012008BD00BF014806F05DB900BFE1
:104F4000203A0024014806F057B900BF203A002457
:104F5000014806F051B900BF203A002400B583B0E3
:104F60004FF0000E4FF0030C4274ADF80410BDF882
:104F7000043080F810E0A0F802C0038003B05DF8B0
:104F800004FB00BF2DE9F04FDFF81C8300258DB036
:104F9000C04C037008F140034260074601920E4680
:104FA000202229464046C4F86831C4F86481CDE91E
:104FB0000255CDE90455CDE90655CDE90855CDE9B1
:104FC0000A5510F02DFE2022294604F5A170C4F8E0
:104FD0003151C4F83551C4F83951C4F83D5110F07D
:104FE0001FFE019B84F8485284F830317A68002A09
:104FF0006AD02B4604F59871454606F1100A9E4684
:10500000F01856F803B0E2180EF1010ED0F80CC0FB
:10501000D0F80490D0F8088044F803B0C2F80CC06F
:105020004FF0000CC2F80490C2F80880008A25F8FE
:1050300002CB10821AF8032001F8012F002A70D049
:105040007A684FF001001233724584F84802D7D8CD
:105050004FF4802290489DF8043008214FF000085A
:105060004FF00009C4F884310023C4E95B02012237
:10507000C4F8743184F88031C4E95E2194F8481290
:10508000C4E96489A9B3C4F89821002284F8813165
:1050900084F888313B78C4E96722002B38D001229C
:1050A00000200121013B84F8A421C4E96C01082BF4
:1050B00030D8DFE813F0BD00C200C700CC00D1003B
:1050C000D600DB00E100E8009DF804300121C4F8BF
:1050D0007421C4F884314FF4802384F880216E4A0F
:1050E000C4E95B2308230022C4E95E130023C4E95A
:1050F00064230123002284F88131002384F888315D
:105100000323C4F898313B78C4E96722002BC6D149
:1051100084F8A431614803F035FB034638B1FFBE83
:10512000FEE77A68123372453FF66AAF90E702A94C
:105130005A48029303F084FC8246002876D1042268
:1051400040F2FF710A90CDE9081294F83021002A4C
:1051500000F0F3804FF006080AEBCA034FEACA09D1
:1051600004EB43035B7C072B07D8DFE803F0595CB3
:105170005653504D4A04072307930FFA8AF6D14439
:1051800006EBC60604EB490904EB460775003846F2
:1051900000F09AFC99F81030042B00F3AA80022B3F
:1051A00000F3BD8000F0B98004EB0A03002283F80D
:1051B000202114F81630002B78D0022B00F08A80C2
:1051C000012B40F0B2807B78012B00F0B080002BE7
:1051D000334B18BF002305A93048CDE9053802F04C
:1051E000FDFE002840F0AC800AF1010A94F830314D
:1051F0005FFA8AFA534540F2A0802A4B53F82A807E
:10520000AAE706230793B8E705230793B5E7042326
:105210000793B2E703230793AFE702230793ACE7B3
:1052200000230793A9E701230793A6E7FFBEFEE744
:1052300003224023C4E96A236CE707226023C4E900
:105240006A2367E70F228023C4E96A2362E71F22EB
:10525000A023C4E96A235DE73F22C023C4E96A238F
:1052600058E77F22E023C4E96A2353E7FF224FF483
:105270008073C4E96A234DE740F2FF124FF4907344
:10528000C4E96A2346E740F2FF324FF4A073C4E951
:105290006A233FE7C80D002400200240340F002499
:1052A0000002B025AC7A0108004000307B78062B64
:1052B00037D0072B3DD0022B4AD0032B4AD0002BEE
:1052C0004CD0012B48D0042B4AD0052B254B18BFBE
:1052D000002380E77B78042B25D0052B2BD08BB3C4
:1052E000012B31D0022B31D0032B1F4B18BF0023D1
:1052F00071E70323043504EB0A0B4FF00009254442
:105300008BF82031284609F1010900F0DDFB9BF8FC
:10531000203104354B45F5DC4BE70123EAE7022356
:10532000E8E7124B57E7124B55E7002353E7114BC1
:1053300051E7114B4FE7114B4DE70DB0BDE8F08F32
:10534000FFBEFEE70E4B46E70E4B44E70E4B42E72F
:105350000E4B40E70E4B3EE70E4B3CE70E4B3AE759
:105360000E4B38E70000B84F002090360800900C34
:105370001000C0102000F0148000501D000180219A
:105380000004002A0008302E001060320040C03AAD
:105390000080F03E00005247000021430000844B93
:1053A00038B5094C40F2FF724FF0011104F5B675A3
:1053B000284603F0F3FA94F83021D4F86411284613
:1053C000BDE8384003F05EB8C80D0024044B0F2937
:1053D000D3F8643198BF03EB41031888704700BFCE
:1053E000C80D0024214B02689A4200D07047204A21
:1053F00000232048D2F8D81030B51F4C41F02001CE
:1054000083B0C4F8D001092004F5E875C4E9750338
:105410004FF48060C2F8D810D2F8D8204FF4006161
:10542000C4E9773094F8480202F02002C4F8E4118D
:105430004FF40051984201922846C4F8E811C4E99B
:105440007C33019B14BF00234FF48073C4F8EC310C
:1054500003F048FE08B1FFBEFEE704F5B673C4F8DA
:10546000B851C4F8083203B030BD00BF002002407C
:105470000044025840000240C80D0024014804F0D6
:10548000A9B900BF980F002402682DE9F84F4B4BD3
:105490009A4201D0BDE8F88F494D95F84832002B6B
:1054A000F8D095F83031002B77D0002405F10C09A5
:1054B00005F5A17605F59877A04613E003F0010104
:1054C00017F811BCA9F1080000F0DAFBBBF1010FDD
:1054D00025D895F83031013409F112090236A2B20B
:1054E00093422BD917F8012F002AF4D0D5F8643154
:1054F0000021327833F81400D5F8683103EB041337
:1055000023F81200338801339BB233805FFA83FAA9
:105510003A789A42D2D88A46A6F80080D0E7CAF3F1
:105520004001A9F1040000F0ABFBBBF1020FCAF38C
:105530008001CED0484600F0A3FBCAE7002395F8CF
:105540004802204909229842C5F8D8314FF48060BA
:10555000C5F8D011C5F8D4214FF400614FF40052C2
:10556000C5F8DC3108BF4FF48073C5F8E821C5E900
:10557000780100221448C5E97B32C5F8F42103F014
:10558000B1FD08B1FFBEFEE795F83021D5F86411F2
:105590000E48BDE8F84F02F075BF0A4909224FF4E2
:1055A0008060C5F8D831C5E974124FF400614FF43A
:1055B0000052C5E97730C5E97912DAE700200240E8
:1055C000C80D002440000240980F0024340F00242E
:1055D000704700BF4F4B02689A4200D070474E4B55
:1055E000D3F8E81030B541F000514C4C85B0D4F8F8
:1055F0004821C3F8E810D3F8E81001F000510191F8
:105600000199D3F8E01041F00101C3F8E010D3F89C
:10561000E03003F001030293029B32F002033DD01D
:10562000013A012A6BD9D4F84C31012B0AD000225F
:105630003620114603F078FA362005B0BDE8304038
:1056400003F0B0BAD4F8483133F0020234D0013B51
:10565000012BECD8442240233149324DC4F88C1040
:1056600000212846C4F8B010C4E9242300224FF4D6
:105670008063C4E926234FF400624FF40053C4E969
:1056800028234FF480724FF48033C4E92A2303F0B7
:1056900029FD80B9E560C4F8C440C8E74FF48062D2
:1056A000032303A8ADF80C208DF80E3000F00CFA9F
:1056B000D4F84821B4E7FEE71B4BA26343226361A1
:1056C00040231A4DC4E9062300224FF48063284684
:1056D000C4E908234FF400624FF40053C4E90A23DD
:1056E0004FF480724FF48033C4E90C2303F0FAFCCA
:1056F00020B9D4F84831A560E464A8E7FEE74FF488
:10570000A062032303A8ADF80C208DF80E3000F042
:10571000DBF988E7007400400044025818100024A8
:1057200028040240A4100024100402402C1000247D
:10573000014804F04FB800BF2C100024014804F0C9
:1057400049B800BFA410002410B5054C204603F052
:1057500015FB04F58270BDE8104009F027BB00BFBF
:105760001810002430B58C463A4C3B4D8DB0046087
:1057700004F5A27EBCE80F00AEE80F00DCF80030B4
:1057800020462560CEF8003003F09AFA0023D4F8C2
:105790004C510393C5B11622012D049217D000225B
:1057A000D4F85411D4F848319142CDE9062218BFFB
:1057B0000222059233F0020235D0013B012B3CD985
:1057C000002528460DB030BD02230493E7E7234AA5
:1057D0000093C4F80C31C4F81431C4F80421C4F89F
:1057E0001C31CDE9013301F055FDD4F844314BF6BD
:1057F0008032C4F80851002B08BF1346B0FBF3F306
:1058000004F58270C4F8103109F03AF90028D8D1B3
:1058100020230290694604F58270009309F07EFB14
:105820000028BCD0CDE703A90A4803F0DBFA78B919
:10583000D4F84831013B012BC2D8102203A90548F6
:1058400003F0D0FA051E18BF012528460DB030BD63
:105850000125B6E718100024007400400010004035
:105860002DE9F0410668D6F84C5105BBD6F8503109
:105870000C461746002B0CBF4FF008084FF00008ED
:1058800031F0020305D0013C012C14D92846BDE8B3
:10589000F0811346294642463046013C03F054FA53
:1058A0002946304603F022FA012CEFD803E0012507
:1058B0002846BDE8F0813B4642461021304603F0C1
:1058C00043FA1021304603F011FA2846BDE8F08172
:1058D00010B592B0ADF804100180C9B2149C0B2928
:1058E000C460C0E901233FD090F801C0BCF10F0FA4
:1058F0003AD8022A3FD0032A02D0012A00D000223F
:105900000E92012B02D0022B18BF0023022C0F9302
:105910002CD0032C2AD0012C28D000230A29109344
:1059200027D85C4A02EB812202610A2914D8DFE8F9
:1059300001F0A39587796B5D4F4133250600564BE7
:10594000D3F8E01041F48061C3F8E010D3F8E03000
:1059500003F480630C930C9B01230DA9104603FAFA
:105960000CF30D9304F088FA12B010BD0A291094BC
:10597000D7D90022D8E711220E92C2E7464BD3F8BE
:10598000E01041F40071C3F8E010D3F8E03003F404
:1059900000730B930B9BDFE73F4BD3F8E01041F410
:1059A0008071C3F8E010D3F8E03003F480730A93F9
:1059B0000A9BD1E7384BD3F8E01041F08001C3F8DF
:1059C000E010D3F8E03003F080030993099BC3E7AC
:1059D000314BD3F8E01041F04001C3F8E010D3F8A8
:1059E000E03003F040030893089BB5E72A4BD3F857
:1059F000E01041F02001C3F8E010D3F8E03003F0EC
:105A000020030793079BA7E7234BD3F8E01041F04F
:105A10001001C3F8E010D3F8E03003F01003069350
:105A2000069B99E71C4BD3F8E01041F00801C3F83E
:105A3000E010D3F8E03003F008030593059B8BE7F3
:105A4000154BD3F8E01041F00401C3F8E010D3F88F
:105A5000E03003F004030493049B7DE70E4BD3F87E
:105A6000E01041F00201C3F8E010D3F8E03003F099
:105A700002030393039B6FE7074BD3F8E01041F059
:105A80000101C3F8E010D3F8E03003F00103029302
:105A9000029B61E7000002580044025808B501214A
:105AA00043780069994089B204F0EEFB003818BFD2
:105AB000012008BD01230A464178006903FA01F17B
:105AC00089B204F0E7BB00BF8378022B30B50446EF
:105AD0008FB037D0032B33D0012B31D000230A9362
