:020000040800F2
:1000000000000220A10A00089D0A000835650008CA
:100010009D0A00089D0A00089D0A000800000000D3
:100020000000000000000000000000009D0A000821
:100030009D0A0008000000009D0A0008B96400083D
:100040009D0A00089D0A00089D0A00089D0A0008F4
:100050009D0A00089D0A00089D0A00089D0A0008E4
:100060009D0A00089D0A00089D0A0008C16000085A
:10007000CD600008454B0008D9600008E560000825
:1000800055200108F15500089D0A00089D0A000846
:100090009D0A00089D0A00089D0A00089D0A0008A4
:1000A0009D0A00089D0A00089D0A00089D0A000894
:1000B0004D1401085914010865140108255600085B
:1000C0009D0A0008315600089D0A0008BD0C010871
:1000D000C90C0108891E0108B51E0108E91E0108A6
:1000E0009D0A00089D0A0008000000009D0A000803
:1000F0009D0A00089D0A00089D0A00089D0A000844
:100100009D0A00089D0A000871140108D50C010819
:100110001D1F0108511F0108114E00089D0A00080B
:10012000F94D0008054E0008F90C01082D0D0108D5
:10013000892001089D0A00089D0A00089D0A000800
:1001400000000000000000000000000000000000AF
:100150009D0A00089D0A00089D0A0008851F0108E5
:100160003D5600089D0A0008C9640008ED640008B7
:100170009D0A0008116500089D0A00089D0A0008F4
:100180009D0A00089D0A0008B91F0108ED1F01081B
:10019000E10C0108ED0C01089D0A00089D0A000809
:1001A0009D0A00089D0A00089D0A00089D0A000893
:1001B000E15D00089D0A00089D0A00089D0A0008EC
:1001C0009D0A00089D0A0008014600080D46000827
:1001D0009D0A0008194600089D0A00089D0A0008AB
:1001E0009D0A00089D0A00089D0A00089D0A000853
:1001F0009D0A00089D0A00089D0A00089D0A000843
:100200009D0A00089D0A00089D0A00089D0A000832
:100210009D0A00089D0A00089D0A00089D0A000822
:100220009D0A00089D0A00089D0A000800000000C1
:100230009D0A00089D0A0008000000009D0A0008B1
:100240009D0A00089D0A00089D0A00089D0A0008F2
:100250009D0A00089D0A00089D0A00089D0A0008E2
:100260009D0A00089D0A00089D0A00089D0A0008D2
:100270009D0A00089D0A00082120010800000000D6
:100280009D0A00089D0A00089D0A00080000000061
:08029000000000009D0A0008B7
:1002A00010B5054C237833B9044B13B10448AFF3B0
:1002B00000800123237010BD2806002400000000E8
:1002C0008068010808B5034B1BB103490348AFF32D
:1002D000008008BD000000002C0600248068010892
:1002E00001F0FF01102A2BDB10F0070F08D010F8E7
:1002F000013B013A8B422DD010F0070F42B3F6D1EB
:10030000F0B441EA012141EA014122F007047FF003
:1003100000070023F0E80256083C85EA010586EA5A
:10032000010685FA47F5A3FA87F586FA47F6A5FA96
:1003300087F68EB9EED1F0BC01F0FF0102F00702A2
:1003400032B110F8013B013A83EA010313B1F8D14D
:100350000020704701387047002D06BF354603382E
:10036000073815F0010F07D1013015F4807F02BF67
:10037000013015F4C03F0130F0BC0138704700BFB8
:1003800081F0004102E000BF83F0004330B54FEA46
:1003900041044FEA430594EA050F08BF90EA020FB3
:1003A0001FBF54EA000C55EA020C7FEA645C7FEA46
:1003B000655C00F0E2804FEA5454D4EB5555B8BF69
:1003C0006D420CDD2C4480EA020281EA030382EADA
:1003D000000083EA010180EA020281EA0303362D6C
:1003E00088BF30BD11F0004F4FEA01314FF4801C3F
:1003F0004CEA113102D0404261EB410113F0004F51
:100400004FEA03334CEA133302D0524263EB430307
:1004100094EA050F00F0A780A4F10104D5F1200EA5
:100420000DDB02FA0EFC22FA05F2801841F1000100
:1004300003FA0EF2801843FA05F359410EE0A5F1D4
:1004400020050EF1200E012A03FA0EFC28BF4CF005
:10045000020C43FA05F3C01851EBE37101F00045BB
:1004600007D54FF0000EDCF1000C7EEB00006EEBC8
:100470000101B1F5801F1BD3B1F5001F0CD3490852
:100480005FEA30004FEA3C0C04F101044FEA4452A9
:1004900012F5800F80F09A80BCF1004F08BF5FEA30
:1004A000500C50F1000041EB045141EA050130BD10
:1004B0005FEA4C0C404141EB0101013C28BFB1F522
:1004C000801FE9D291F0000F04BF01460020B1FA6D
:1004D00081F308BF2033A3F10B03B3F120020CDA40
:1004E0000C3208DD02F1140CC2F10C0201FA0CF01E
:1004F00021FA02F10CE002F11402D8BFC2F1200C83
:1005000001FA02F120FA0CFCDCBF41EA0C01904038
:10051000E41AA2BF01EB0451294330BD6FEA040481
:100520001F3C1CDA0C340EDC04F11404C4F120026C
:1005300020FA04F001FA02F340EA030021FA04F37E
:1005400045EA030130BDC4F10C04C4F1200220FAD5
:1005500002F001FA04F340EA0300294630BD21FA13
:1005600004F0294630BD94F0000F83F4801306BFD9
:1005700081F480110134013D4EE77FEA645C18BFCD
:100580007FEA655C29D094EA050F08BF90EA020F64
:1005900005D054EA000C04BF1946104630BD91EA5C
:1005A000030F1EBF0021002030BD5FEA545C05D15F
:1005B0004000494128BF41F0004130BD14F580049E
:1005C0003CBF01F5801130BD01F0004545F0FE4112
:1005D00041F470014FF0000030BD7FEA645C1ABF47
:1005E000194610467FEA655C1CBF0B46024650EA7E
:1005F000013406BF52EA033591EA030F41F40021AA
:1006000030BD00BF90F0000F04BF0021704730B52F
:100610004FF4806404F132044FF000054FF0000104
:1006200050E700BF90F0000F04BF0021704730B5C5
:100630004FF4806404F1320410F0004548BF40429A
:100640004FF000013EE700BF42004FEAE2014FEAEF
:1006500031014FEA02701FBF12F07F4393F07F4FCA
:1006600081F06051704732F07F4208BF704793F0CD
:100670007F4F04BF41F40021704730B54FF46074E0
:1006800001F0004521F000411CE700BF50EA0102E3
:1006900008BF704730B54FF000050AE050EA01028C
:1006A00008BF704730B511F0004502D5404261EBFC
:1006B00041014FF4806404F132045FEA915C3FF43D
:1006C000D8AE4FF003025FEADC0C18BF03325FEADA
:1006D000DC0C18BF033202EBDC02C2F1200300FA8B
:1006E00003FC20FA02F001FA03FE40EA0E0021FAB0
:1006F00002F11444BDE600BF7BB972B90029BEBF48
:1007000000204FF0004106E008BF00281CBF6FF03A
:1007100000414FF0FF3000F0BFB9ADF1080C6DE9BA
:1007200004CE002909DB002B1ADB00F04DF8DDF8C0
:1007300004E0DDE9022304B07047404261EB41016F
:10074000002B1BDB00F040F8DDF804E0DDE90223BC
:1007500004B0404261EB4101524263EB43037047F6
:10076000524263EB430300F02FF8DDF804E0DDE9CB
:10077000022304B0404261EB41017047524263EBF7
:10078000430300F021F8DDF804E0DDE9022304B0C2
:10079000524263EB4303704753B94AB9002908BF7B
:1007A00000281CBF4FF0FF314FF0FF3000F074B94C
:1007B000ADF1080C6DE904CE00F006F8DDF804E0B8
:1007C000DDE9022304B070472DE9F047089D044697
:1007D0008E46002B4DD18A42944669D9B2FA82F2F4
:1007E00052B101FA02F3C2F1200120FA01F10CFA30
:1007F00002FC41EA030E94404FEA1C48210CBEFB68
:10080000F8F61FFA8CF708FB16E341EA034306FBF0
:1008100007F199420AD91CEB030306F1FF3080F07F
:100820001F81994240F21C81023E63445B1AA4B2CC
:10083000B3FBF8F008FB103344EA034400FB07F76E
:10084000A7420AD91CEB040400F1FF3380F00A81AF
:10085000A74240F207816444023840EA0640E41BA4
:1008600000261DB1D4400023C5E900433146BDE850
:10087000F0878B4209D9002D00F0EF800026C5E9F2
:10088000000130463146BDE8F087B3FA83F6002E0A
:100890004AD18B4202D3824200F2F980841A61EB82
:1008A000030301209E46002DE0D0C5E9004EDDE7A0
:1008B00002B9FFDEB2FA82F2002A40F09280A1EB88
:1008C0000C014FEA1C471FFA8CFE0126200CB1FBDD
:1008D000F7F307FB131140EA01410EFB03F08842D6
:1008E00008D91CEB010103F1FF3802D2884200F263
:1008F000CB804346091AA4B2B1FBF7F007FB1011F5
:1009000044EA01440EFB00FEA64508D91CEB040492
:1009100000F1FF3102D2A64500F2BB800846A4EBED
:100920000E0440EA03409CE7C6F12007B34022FAD8
:1009300007FC4CEA030C20FA07F401FA06F31C4307
:10094000F9404FEA1C4900FA06F3B1FBF9F8200C14
:100950001FFA8CFE09FB181140EA014108FB0EF05A
:10096000884202FA06F20BD91CEB010108F1FF3AAA
:1009700080F08880884240F28580A8F102086144B6
:10098000091AA4B2B1FBF9F009FB101144EA0141C4
:1009900000FB0EFE8E4508D91CEB010100F1FF346F
:1009A0006CD28E456AD90238614440EA0840A0FB07
:1009B0000294A1EB0E01A142C846A64656D353D0DD
:1009C0005DB1B3EB080261EB0E0101FA07F722FA01
:1009D00006F3F1401F43C5E9007100263146BDE82A
:1009E000F087C2F12003D8400CFA02FC21FA03F38D
:1009F000914001434FEA1C471FFA8CFEB3FBF7F00E
:100A000007FB10360B0C43EA064300FB0EF69E4232
:100A100004FA02F408D91CEB030300F1FF382FD2CB
:100A20009E422DD9023863449B1B89B2B3FBF7F673
:100A300007FB163341EA034106FB0EF38B4208D94C
:100A40001CEB010106F1FF3816D28B4214D9023E8D
:100A50006144C91A46EA004638E72E46284605E7AB
:100A60000646E3E61846F8E64B45A9D2B9EB02087C
:100A700064EB0C0E0138A3E74646EAE7204694E70C
:100A80004046D1E7D0467BE7023B614432E730463F
:100A900009E76444023842E7704700BFFEE700BF41
:100AA0000B480C4A904203D0121A0B4914F06CF90F
:100AB0000A480B4A904203D0121A002114F072F92E
:100AC00005F098FF14F034F901F05AF9FEE700BF81
:100AD0000000002428060024B46801082806002429
:100AE000D0610024704700BF2F4B2DE9F04F2DED52
:100AF000108B93ED00EA87B00E46B5EEC0EA019286
:100B0000F1EE10FA00F11B85F7EE007AB4EE67EA19
:100B1000F1EE10FA37FE8EEA2449254A254B91ED75
:100B2000009A92ED00BA2449D3ED00BA234A244B2F
:100B300091ED00FAD2ED00EA224993ED00CA224A73
:100B4000224B2348D1ED00CA92ED00AAD3ED008AD2
:100B500002F0CAF9019BB0EE408A002B00F0EA8453
:100B6000F1EE086ADFED1B7A9FED1B7A00252FEE70
:100B700027FA1A4AC6EE806A194BDFF86CB0DFF824
:100B80006CA0DFF86C90DFF86C806EEEA7EA154C75
:100B900029EE077A68EEA77A8DED027ACDED037A19
:100BA000CDED046A58E200BFC006002420000024F6
:100BB00018000024C80600241C000024CC060024D1
:100BC000B8060024C4060024B4060024140000243F
:100BD000D006002400D7233C009CC43A080000241F
:100BE00010000024600600240C0000244C060024A1
:100BF000980600244406002400409C4648E17A3FC1
:100C000085EB913F0AD7233C6666A63F1FED067A27
:100C1000B4EEC75AF1EE10FA00F3678435EE055AC8
:100C200085EE087A5FED0B6AB4EE667AF1EE10FAA3
:100C300036FE877A5FED0E6AA7EEE61AF0EE086AD6
:100C4000B4EEE61AF1EE10FA00F33E84F8EE086A0C
:100C5000B4EEE61AF1EE10FA00F15184B3EE0B5A3D
:100C600061EE016AF2EE02AAF0EE459AE6EEAA9A69
:100C700076EE856A26EE811AC1EE296AB0EE085A30
:100C8000F4EEC53AF1EE10FA00F32884B8EE085AF3
:100C9000F4EEC53AF1EE10FA00F14284B3EE0B1A0D
:100CA00023EEA35AF2EE02AAF0EE419AE5EE2A9A5A
:100CB00035EE015A25EE235A85EE291A76EEC16AE1
:100CC000B0EE085AE6EE873AF4EEC53AC4ED003AC3
:100CD000F1EE10FA00F30684F8EE086AF4EEE63A54
:100CE000F1EE10FA00F11884B3EE0B5A63EEA36A2A
:100CF000F2EE029AB0EE451AA6EEA91A76EE856AD1
:100D000066EEA33AC3EE816AB0EE085AB4EEC54A65
:100D1000F1EE10FA00F3D583B8EE085AB4EEC54AE6
:100D2000F1EE10FA00F1E883F3EE0B3A24EE045AE8
:100D3000F2EE029AB0EE631AA5EE291A35EE235AA6
:100D400025EE045AC5EE013A76EEE36AB0EE085A93
:100D5000A7EE264AB4EEC54A84ED014AF1EE10FA38
:100D600000F3AC83F8EE086AB4EEE64AF1EE10FA4E
:100D700000F1DD83F3EE0B3A64EE046AB2EE021A80
:100D8000B0EE635AA6EE815A76EEA36A26EE844A46
:100D9000C4EE056AB0EE085AF4EEC54AF1EE10FA58
:100DA00000F38983B8EE085AF4EEC54AF1EE10FA62
:100DB00000F1BA83F3EE0B3A24EEA45AB2EE021A13
:100DC000B0EE634AA5EE014A35EE235A25EE245AC9
:100DD000C5EE043A76EEE36AB0EE085AE7EE264A2C
:100DE000F4EEC54AC4ED024AF1EE10FA00F3608356
:100DF000F8EE086AF4EEE64AF1EE10FA00F18983A3
:100E0000B3EE0B4A64EEA46AF2EE023AB0EE445A34
:100E1000A6EEA35A76EE846A66EEA44AC4EE856A0C
:100E2000B0EE085AF4EEC57AF1EE10FA00F33D8305
:100E3000B8EE085AF4EEC57AF1EE10FA00F16683C6
:100E4000F3EE0B4A27EEA75AF2EE023AB0EE644AEE
:100E5000A5EE234A35EE245A25EE275AC5EE044A5C
:100E60001FED985A76EEE46AB4EEC53AE7EE267ABC
:100E7000F1EE10FAC4ED037A3BD4B7EE005AB1EEAE
:100E8000004AB6EE007AF0EE453AFFEE006AF0EE68
:100E9000004AE3EE043AB0EE474A63EEA73AA3EE07
:100EA000874AFBFE443A74EE633AB0EE664AA3EE1C
:100EB000A44AF0EE663AB0EEC44A35EE444AE4EE97
:100EC000243AA3EE877AF0EE663ABBFE474A37EE45
:100ED000447A35EE434AE7EE243AB0EEE37A35EE53
:100EE000475AE5EE246A23EE263AA4EE273AF0EEBE
:100EF000437A5FEDBB6AB0EE087A67EEA67AF4EE4D
:100F0000C77AF1EE10FA17DCB8EE087AF4EEC77A79
:100F1000F1EE10FA00F1ED8227EEA75AB3EE0B7A4C
:100F2000F2EE024A75EE076AA5EE247A66EEA77A1B
:100F3000C7EE876A65EEA65A82EE887A316801EBC1
:100F40008501F7EE007AF7EE006A61EEA55AC1ED71
:100F5000005A716801EB8501C1ED005A32EE072A93
:100F6000E74936EE076AB4EEE72AF1EE10FAA8BFB9
:100F700032EE672AC0EE087A81ED002AE14937EEA9
:100F8000899ACDEE887AB4EEE69AF1EE10FAA8BF0F
:100F900039EE669AF7EE006A81ED009ADA4977EE4B
:100FA000A00ACDEE087AF4EEE60AF1EE10FAA8BF38
:100FB00070EEE60AF7EE006AC1ED000AD34977EE5B
:100FC000A88AF7EE007AF4EEE68AF1EE10FAB4EEB3
:100FD000E76AA8BF78EEE68ADFEDCD6AF1EE10FA97
:100FE000C1ED008AA8BF36EE676ACA49F6EE007AFC
:100FF00081ED006AC8499FEDC96A91ED007A7EEEE5
:10100000475AA5EE867AE7EE267A81ED007AC44942
:101010000F460968481CFCEEE77A17EE901AF02993
:1010200028BFF021EF2884BF0020BD4F81423860E7
:10103000BC4F94BF002101213878884207D0BA48BC
:10104000059104F09BF80599B84BB94A3970013500
:101050000199A94200F06E8293ED002AF0EE4FAAAA
:1010600099ED003AB4EECB2ADFEDB28A9FEDB20AD9
:101070009FEDB25AF1EE10FADFEDB19AB4EEEB3A11
:10108000D8ED001A9FEDAF9A58BFF0EE409A9FED51
:10109000AE7A58BFB0EE685AAC4FF1EE10FA9FED41
:1010A000AC6AF4EECC1ADFEDAB7AD7ED002A2BEE6A
:1010B000055A54BFF0EE476AF0EE496AA64954BF9C
:1010C000F0EE670AF0EE460ADFEDA45AF1EE10FAF0
:1010D000D1ED003AF4EEEC2ADFEDA14A6BEEA66A00
:1010E0009FEDA04AA2EE295A9BED002A9E48E3EE0E
:1010F000206A92ED001A54BFB0EE473AB0EE493A7A
:10110000DAED009A54BFF0EE670AF0EE460AF1EE0F
:1011100010FAF4EECA3A83ED005A2CEE033A48BFB7
:10112000B0EE497AC9ED006A58BFB0EE676A90ED3B
:10113000009AF1EE10FADFED8D6A2CEE877AE2EE7E
:1011400004AA58BFF0EE685A58BFF0EE404AB0EE1D
:101150006E2A6AEE255AA1EEA03ADFED700AA2EEE1
:10116000867ADDED031AE3EEA45A9DED026AA9EE3C
:10117000842ACBED00AAE9EE041AA1EE266A88EDD6
:10118000003A87ED007AF4EEE05AC1ED005A8AED9C
:10119000002AC0ED001AF1EE10FA82ED006A00F1AB
:1011A0007381D4ED037AD4ED003A94ED014AD4ED85
:1011B000024ADFED5A6AB4EEE6AAF1EE10FA0CD557
:1011C000DFED6B6AF4EEE65AF1EE10FA05DDF3EEB0
:1011D0000E6AE5EE8B6AB0EE66BA6649F7EE002A53
:1011E0009DED041AD1ED006A71EE266AB1EE001A87
:1011F000F4EEE26AF1EE10FAA4BF76EEE26A5D491F
:10120000F6EE002AC1ED006AF4EEE26AF1EE10FAA1
:1012100040F13581FFEE002AE6EE812A62EE226A75
:10122000DFED550AF7EE002A3549B6EE001A9FEDBC
:10123000530A91ED002AE6EEA02AB4EEC12AF1EE9F
:10124000006AF1EE10FA66EE222A22EE800A62EEC1
:1012500081DA32EEA2DA40F10D81BFEE006AA2EE31
:10126000266A2849F6EE006A9FED451A91ED009A2C
:1012700026EE016AB4EEE69AF1EE006AF1EE10FA9B
:1012800040F1F380BFEE001AA9EE261A1E49F1EED6
:1012900000FADFED3C6AD1ED000A21EE261ADFEDFF
:1012A0003A8A70EEA09ADFED396A1849E9EEA68A0B
:1012B000DFED376ADFED379AF5EEC08A68EEA99A5E
:1012C00068EEA66AF1EE10FA48BFF1EE688AE9EE20
:1012D000E86AF5EEC06AF1EE668AF1EE10FA54BFE4
:1012E000F0EE669AF0EE689AE6EEA98ADFED2A9AA9
:1012F000E8EEA96ADFED298AF6EE009A50E000BF19
:101300009C060024A006002458060024540600244D
:101310000000704348060024B00600246F12833A90
:10132000AC060024A80600241007002410000024A6
:10133000080000240080F33719FE7F3F00481D3A63
:10134000AED87F3F00D7A33C0012833AA406002406
:1013500048E17A3F77BE7F3F5C06002480C2F53CBF
:10136000EC51783FA4707D3F04000024B29D7F3F84
:1013700017B7D13850060024CDCC4C3D9FC8BF3F95
:101380003D0AD73EEC51383EDB0F49C0DB0F4940E8
:1013900083F9A23F7B81CF3E6666663EAE47E13E63
:1013A00066EEE86AD1ED008AF4EEE98AF1EE10FA11
:1013B00056D5FFEE009AE8EEAF9A6349F6EE00FAD2
:1013C00036EE011A91ED006AB4EEEF6A71EE266A0C
:1013D0009FED5E1AF1EE10FAE9EE816AB1EE001AA5
:1013E00039D5FFEE009AE6EE019A66EEA99AB7EEBD
:1013F000001A69EE879A31EE477AE7EE269AB0EE48
:10140000087A6AEEA9AAF4EEC7AAF1EE10FA16DC81
:10141000B8EE087AF4EEC7AAF1EE10FA73D4F3EE40
:101420000B6A2AEEAA7AB2EE021AF0EE669AE7EE9C
:10143000019A37EE267A67EE2AAA8AEEA91AB3EE47
:10144000047AB4EEC75AF1EE10FA7FF5DFAB9FEDE8
:10145000405AFFF7E5BBF0EE089AE6EE419AC4E782
:10146000F0EE089AE8EEEF9AA7E7B0EE081AA9EEB8
:10147000661A0BE7B0EE086AA2EE666AF1E6F0EED5
:10148000082AE6EEC12AC9E6D4ED003A94ED014AF5
:10149000D4ED024A63EEA73AD4ED036A24EE274A5C
:1014A00064EEA74A66EEA77A83E6F7EE004AD7E431
:1014B000F7EE006AB4E4F7EE003A8BE4F7EE006A68
:1014C00068E4F7EE003A3FE4B0EE085AF7EE006A3F
:1014D000F4EEC53AF1EE10FA7FF7D8ABB7EE001A8A
:1014E000FFF7ECBBF7EE006A0EE49FED1A5AFFF728
:1014F00097BBF1EE655A1FE5FFEE003A24E4FFEEDC
:10150000006AFFF7BBBBBFEE001A98E7FFEE004A88
:10151000A6E4FFEE006A83E4FFEE006AFFF7F4BB87
:10152000BFEE001AFFF7CABBFFEE003A52E4FFEE2F
:10153000006A2FE407B0BDEC108BBDE8F08F9FED83
:1015400006EAFFF7E9BA00BF48060024CDCCCC3D3F
:101550000000204200401C47000000002DE9F0413F
:10156000002482B01C4E0123DFF8788022461B4DF8
:101570003046D8F800101A4F009403F00DFD0520F6
:1015800005F04CF82246396801232846009403F000
:1015900003FD052005F042F823460122D8F800108B
:1015A0003046009403F0F8FC2146304603F0E6FD97
:1015B000052005F033F823460122396828460094B7
:1015C00003F0EAFC2846214603F0D8FD052002B0CE
:1015D000BDE8F04105F022B83807002424070024B4
:1015E000646401086864010870B5002482B0144D79
:1015F0000122144E234628460094316803F0CCFCA7
:101600002146284603F0BAFD052005F007F80E4AEA
:1016100001230E4811682246009403F0BDFC05200A
:1016200004F0FCFF2846012322463168009403F0B1
:10163000B3FC052002B0BDE8704004F0EFBF00BF6E
:101640003807002468640108646401082407002442
:101650002DE9F041072582B0DFF8E4800746354EDA
:1016600025E06246D8F80010CDF800C003F094FCE5
:101670000024052004F0D2FF0123224631682E48C1
:10168000013D009403F088FC052004F0C7FF2346C9
:10169000012229483168009403F07EFC2146264847
:1016A00003F06CFD052004F0B9FF6B1C14D001227F
:1016B00047FA05F14FF0000C204811EA02041346E6
:1016C000CFD1D8F800102346009403F065FC2146E2
:1016D0001A4803F053FDCBE72246D8F80010012347
:1016E0001648009403F058FC052004F097FF2246AA
:1016F000316801231048009403F04EFC052004F0EB
:101700008DFF0E4803F02EFD234601223168054669
:101710000094094803F040FC2146074803F02EFDE1
:10172000052004F07BFF85F00100C0B202B0BDE8E7
:10173000F08100BF646401082407002438070024F6
:10174000686401082DE9F043002283B0DFF8F480DB
:10175000074601233848D8F8001091460092072523
:10176000364E03F019FC0024052004F057FF012336
:10177000224631683248009403F00EFC052004F044
:101780004DFF2D4803F0EEFC01218646234601FA69
:1017900005FC0A462A48013D3168BEF1000F03D01E
:1017A0004CEA090C5FFA8CF9009403F0F5FB214632
:1017B000234803F0E3FC6B1CD5D1002F33D0D8F8BD
:1017C000001023461C480122009403F0E5FB21464B
:1017D000194803F0D3FC0024052004F01FFF3168F2
:1017E000224601231648009403F0D6FB052004F09E
:1017F00015FF2346012231681148009403F0CCFB09
:1018000021460F4803F0BAFC052004F007FF01232E
:101810002246D8F800100848009403F0BDFB484663
:1018200003B0BDE8F08301233A46D8F8001002481F
:10183000009703F0B1FBCEE7380700246464010889
:10184000240700246864010838B504460D46FFF7F4
:1018500085FEB420FFF7FCFE60B12046FFF7F8FEDE
:1018600040B12846FFF7F4FE044618B1FFF7BCFE6E
:10187000204638BD0024FFF7B7FE204638BD00BF24
:101880002DE9F04104460E461546FFF767FEB420E9
:10189000FFF7DEFE08B32046FFF7DAFEE8B1FFF7F8
:1018A0005DFEB520FFF7D4FE0746B0B185B1013D1E
:1018B000741E56FA85F8C6F1010630198542D4BF68
:1018C00000200120FFF73EFF04F8010F4445F4D14A
:1018D000FFF78AFE3846BDE8F0810027FFF784FE57
:1018E0003846BDE8F08100BF10B5632182B080208A
:1018F0004124FFF7A9FF0A2004F08EFE00215E209C
:10190000FFF7A2FF01212B20FFF79EFF01212C20D2
:10191000FFF79AFF10212D20FFF796FF20212E20A0
:10192000FFF792FF01212F20FFF78EFF01213020CA
:10193000FFF78AFF10213120FFF786FF2021322098
:10194000FFF782FF00213320FFF77EFF00213420C4
:10195000FFF77AFF00213520FFF776FF04212046AC
:10196000FFF772FF601C02340221C0B2E4B2FFF73D
:101970006BFF592CF2D111215B20FFF765FFF0219D
:101980005C20FFF761FF4C215D20FFF75DFF8C219C
:101990005E20FFF759FF642004F03EFE0023012281
:1019A0000DF107015E208DF80730FFF769FF9DF804
:1019B0000700A0F18C00B0FA80F0400902B010BD21
:1019C00010B586B00446182204206946FFF758FF78
:1019D000A01E6A4606AC537812F8021B1B02944202
:1019E00003F4407343EA010320F8023FF3D106B049
:1019F00010BD00BF2DE9F04192B02025002407461C
:101A00000DF1180830220021404613F0CBF968464A
:101A10004646FFF7D5FF6A46414600E00C6832F8BB
:101A2000023B2344424541F8043BF7D1052004F032
:101A3000F3FD013D01D0069CE9E7BA1E163756F8C2
:101A4000043B5B0922F8023FBA42F8D112B0BDE86C
:101A5000F08100BFA0F10A021C4B002A53F82110AC
:101A600030DD814230DD42F210700A3900FB02F2B3
:101A700092FBF1F38342A8BF0346002B1A46B8BF7E
:101A80005A1C5210511C93FBF1F2521848BF0132FC
:101A9000511093FBF1F2521848BF0132521093FBE0
:101AA000F2F18A1848BF0132521093FBF2F313444B
:101AB0005A1C07DB002BB8BF013358106428A8BF9D
:101AC0006420704700207047642070473464010828
:101AD0000022A0F1040C2DE9F04F13468DB006460C
:101AE0000D46964614460A750A705CF8042F724536
:101AF00001DD1C46964601330C2BF6D1BEF1090FD1
:101B000003DC00200DB0BDE8F08F04F10208A71E31
:101B1000B8F10B0F27EAE777A8BF4FF00B08B845DD
:101B2000C0F2AD806FF0404C4FF0000908F1010E9B
:101B3000BA46BC443A464846494606EB8C0C5CF82B
:101B4000043F23EAE373994502FB0300194401DAD9
:101B50009246994601327245F1D1002900F09880F1
:101B60004FF47A7B0BFB00F001EB810B01EB4B0B8D
:101B7000B0FBFBFBBBF57A7FA8BF4FF47A7B5146E5
:101B80004846FFF767FF0123EC46C5F804B02B7009
:101B90000023C5F81090C5E9020A684604E0013345
:101BA0004CF8042B0C2B0FD09F4206DC9845ACBFA1
:101BB000002101210A460029F1D056F823200133E3
:101BC0000C2B4CF8042BEFD1002319461E4650F87D
:101BD000042B8A4201DD1E46114601330C2BF6D13F
:101BE000331B48BFA31B092945DD032BCCBF0024B1
:101BF0000124002C3FD1A6F1020802360B2E28EA60
:101C0000E878A8BF0B2646453FDB721C6FF04046C4
:101C100040462746464421460DEB860656F8043FCB
:101C200023EAE3739C4203FB0077194401DA804600
:101C30001C4601308242F1D139B34FF47A7601EB80
:101C4000810307FB06F601EB4301B6FBF1F6B6F59F
:101C50007A7FA8BF4FF47A7641462046FFF7FAFE16
:101C600003460220AE616C62C5E9073801232B757B
:101C70000DB0BDE8F08F01200DB0BDE8F08FBA4681
:101C80004FF000094FF0FF3B79E74FF0FF36E3E7F5
:101C90004FF0FF3B73E700BF2DE9F047374C82B0B0
:101CA0000022234604F128088DF804208DF8052031
:101CB0001A789AB914334345FAD100290BDD01EBA8
:101CC000810301AA00EB830312F8011B002939D01C
:101CD00014309842F8D102B0BDE8F087002949DD00
:101CE00001AD844600224FF0FF3E4FF0C90A15F8BF
:101CF000016B5EB9DCF804605F68B6EB070948BFAA
:101D0000A7EB0609CA4501DD9646CA4601320CF129
:101D1000140C9142EBD1BEF1FF3F2BD00EEB8E02A3
:101D20000EF1080500EB82020DEB050E01250EF801
:101D3000045C55685D6095689D60D5681269DD60DA
:101D40001A61B7E7217819B1217D0029C0D101219D
:101D500001EB81010769466804EB8105D0E902ECDB
:101D6000C5E9016EC5E903C7012504F8215002F851
:101D7000015CADE700221A709CE700BF70060024EA
:101D80002DE9F04F0021754800242DED0A8BD5B0C8
:101D900001F086F90421714801F0AAF841F2883077
:101DA00004F03AFC6E490123224609686D4800940C
:101DB00003F0F2F86C490123224609686B4800944D
:101DC00003F0EAF8FFF790FD17AB002840F0F68724
:101DD000079300240125022612A96548139616943C
:101DE000CDE9144503F022F831462246604803F05D
:101DF0009BF8604B2A46604819682346009403F01C
:101E0000CBF821465C4803F0B9F903238DF8304044
:101E100032468DF831300DA80C9902F003FC2A46A9
:101E200004230DA95548254602F010FC534802F042
:101E30001BFE04F0EFFB064607E002F02BFE034614
:101E40000A2001341D4404F0E7FB04F0E3FB0346E1
:101E500000214A489B1BB3F5FA6FEED3002C00F02B
:101E6000A68742F23412B7EE007AB5FBF4F4A3B2BF
:101E7000934238BF13460A93A3F5FA5307EE903AFC
:101E8000F8EEE77A87EE27BA3D4B0DF174083D4A2C
:101E90000DF1A40A9FED4B8A0DF1B90B13603A4C7A
:101EA000F0EE489A394AF0EE48AA394BB0EE48AA0B
:101EB00038492A48136084ED008A01F011F8364B46
:101EC000C820DFF8FC90236004F0A6FB322084EDEC
:101ED000008A04F0A1FB002002F0CAFA2F4802F0A9
:101EE000B9FA2F4802F0B6FA8C2323222D492E4846
:101EF00002F0B0FA2D4802F0ADFA2D4802F0AAFA2D
:101F00002C4802F0A7FA2C4802F0A4FA04F082FB55
:101F1000089004F07FFB00230990059300211748E7
:101F200002F0B8FDB0F5FA5F40F293820A9B984246
:101F300080F06D85A0F5FA5007EE900AF8EEE77A8A
:101F400067EE8B7A1D4B3BAF40460126C3ED007A0E
:101F5000FFF736FD40463946079A3DE0D00600249B
:101F60006864010838070024646401082407002419
:101F7000F00600246C64010810070024E806002421
:101F800000008C4220000024B40600241800002425
:101F90000000C842E90A0008CDCCCC3E38620108F6
:101FA0004C620108606201086C62010884620108E9
:101FB000A8620108D0620108F06201081400002440
:101FC00070060024000000009E420B6001F1040135
:101FD000B8BF1E4690450ED032F8023B002530F8BF
:101FE000024B1B1BF0D52B460D6004319E42B8BF3F
:101FF0001E469045F0D131A93BA8FFF769FD051EAB
:1020000040F3548204F006FB089004F003FB0990AF
:10201000294631A8FFF740FE99F800300693002BBF
:1020200040F08283059B002B00F09E861FED1B6A0B
:102030000023D94AF0EE467ADFEDD85AF0EE466A30
:102040001370B0EE467AD64B83ED006A9FEDD56AE9
:10205000E9EEA57AAAEE067AEAEE866AF0EE679ACB
:10206000B0EE47AAF0EE66AA9FEDCF8A0021CF48D6
:102070006AEE087AFCEEE77A17EE903A9AB202F02E
:1020800053FF6AEE887A0121C848FCEEE77A17EE22
:10209000903A9AB202F048FFC54BC3ED009A99F806
:1020A0001430002B00F0E981D9ED067ADFEDC16A2A
:1020B000F8EEE77A87EEA67AB5EEC07AF1EE10FA7E
:1020C00000F16684F7EE007AB4EEE77AF1EE10FAEA
:1020D00000F36E85F6EE007AB0EE085A37EE677AB6
:1020E00027EE055AD9ED077ADFEDB36AF8EEE77A05
:1020F000C7EEA64AF5EEC04AF1EE10FA00F183846D
:10210000F7EE003AF4EEE34AF1EE10FA40F31E84E3
:10211000F0EE634AF0EE647ABAEE0E6AF1EE085A17
:10212000F2EE046AF0EE463A27EEA77AB0EE664A7F
:10213000E7EEA53A27EE277AA3EEA74A67EE047AE0
:10214000F5EEC07AF1EE10FA40F1A0849FED9B7A93
:10215000DFED9B6A34EEC77ADFED9A7A87EE264A86
:102160009FED987AF4EEC74AF1EE10FA00F19F82E3
:10217000B7EE007AF4EEC74AF1EE10FA40F38D8222
:10218000B5EEC04AF1EE10FA00F19982B7EE007A8E
:10219000B4EEC74AF1EE10FA00F38385F0EE005A70
:1021A0009FED876AB0EE087A64EE046AA4EE657A61
:1021B00066EE876A66EE866A834B83ED005A834B30
:1021C000C3ED007A824BC3ED006A8248002502F01D
:1021D00041F981487310059302F03CF957F8042B3C
:1021E000002A40F33B8102EB8200059B03EB800059
:1021F000B0FBF6F01428A8BF14205B236FEA0A0492
:102200008DF8A4300DF1A503E1188142ACBF202167
:10221000232103F8011B9B45F6D15D238DF8B930CE
:1022200000238DF8BA3099F80030002B00F01481AB
:10223000D9F80C30AB420CBF3123202399F814108D
:1022400021B1D9F82010A94208BF3223294601350F
:1022500000935346614802F0FDF80C2DBED17C2559
:102260002D2128220DF21D108DF81C5112F09AFD1F
:10227000002199F800308DF845518DF84611BBB119
:10228000D9F8043027224FF4FA70C3FB02014FF44F
:102290007A720023FEF730FA272800F3FA8120EA49
:1022A000E073013303F5A87331226B4403F8342C37
:1022B00099F81430C3B1D9F8183027224FF4FA70C6
:1022C0000021C3FB02014FF47A720023FEF714FAD7
:1022D000272800F3E08120EAE073013303F5A873B7
:1022E00032226B4403F8342C3D4D012647A93D486A
:1022F00002F0B0F82B78002B00F0B280AB68002B16
:1023000040F3B9801901384A3231A2FB0121490951
:102310001029A8BF10215B220AF111078DF8A42013
:102320000DF1A50210198842ACBF2020232002F82D
:10233000010B9742F6D15D22CDF800A031462B4823
:102340008DF8B520002214358DF8B62055F8102CE4
:1023500002F080F8022E40F08C80254BB2EE047A19
:102360009FED155AD3ED006A224BFDEEE66A93ED20
:10237000006A154B16EE901AFDEEC66AD3ED005AB0
:10238000124B65EE875A16EE902AD3ED007A1A4B5F
:10239000FDEEE55A32E000BFBC060024CDCCCC3DBA
:1023A000B40600246666E63E00F07F45F006002491
:1023B000C006002400007A440000C8429A99593FA0
:1023C0009A99193E00000000C8060024B8060024AF
:1023D000C40600242063010834630108586301081F
:1023E000700600246C6301081F85EB5178630108B7
:1023F0002000002418000024CC06002493ED007A6D
:1024000067EE857A15EE900A27EE057AFDEEE77AFB
:102410000028BDEEC77A38DBAA4BC51783FB004303
:10242000C5EBA3052B2305EB8504A0EB440406981C
:102430008DED037ACDED027A0590A348CDE90054E5
:1024400002F008F8A14802F005F83C2004F0E4F896
:1024500064E5DFEDAF7A75E52023EFE60020CCE6FA
:1024600031469B4801F0F6FF022E05F114053FF4BA
:1024700074AF02263EE700214DE70023954A136022
:10248000954A1360954A13609FE64342944CA4FB1F
:102490000354E40804EB8404A3EB4404894B83FB5A
:1024A0000053C017A0EBA3052D23C0E704F0B2F83A
:1024B000089BC01AB0F5FA6F80F03B8304F0AAF8CD
:1024C000099BC01A41F2873398427FF6A1AD0023E1
:1024D0000CEE105A1C4604F09DF80B970746079D1A
:1024E0000694CDE90846264604F094F87D4BC41BBB
:1024F000DFED7D6A9FED7D7AF7EE008AA3FB042372
:1025000042F6E0621B0A02FB134307EE903AF8EE34
:10251000E77A87EEA60A20EE070A12F0CDFAF6EE69
:10252000007A38EEC00AB6EE006AB7EE007A60EEC6
:10253000277AF0EE006A37EEA78A77EEC67A78EE51
:10254000C88AF0EEE77A38EE478AB7EE007AF5EE01
:10255000C08AA7EEE67AF1EE10FAB5EEC08A48BF5F
:10256000DFED6B8AF1EE10FAB5EEC07A48BF9FED51
:10257000688AF1EE10FA66D4B5EE407AF1EE10FA00
:1025800000F12784B1EEC70AB5EE400AF1EE10FA69
:1025900000F12584B1EEC09AF5EE408AF1EE10FA12
:1025A00000F12384B1EEE80AB5EE400AF1EE10FA2C
:1025B00000F12184F1EEC08AB5EE408AF1EE10FA06
:1025C00000F11F84B1EEC80AB5EE400AF1EE10FA30
:1025D00000F11D84B1EEC07ADFED45BA00219FED18
:1025E000458A454869EE2B7A27EE088AFCEEE77AA1
:1025F00017EE903A9AB202F097FC68EEAB7A01219E
:102600003D48FCEEE77A17EE903A9AB202F08CFC65
:102610003A4B83ED008ACEB123A8FFF7D1F923A866
:102620002A46002132F8023B30F8024B1B1B99422C
:10263000B8BF19469045F5D1092900F389820A20CF
:1026400003F0EAFF50E79FED327A9BE7069B3146A5
:102650002B480133069302F01DFA089AB4F5FA6F7D
:1026600002440892D8D3069BB7EE007A0126B2FB4B
:10267000F3F342F234129BB2934238BF13460A93EB
:10268000A3F5FA5307EE903AF8EEE77A87EE27BA09
:10269000C2E7282306E6282320E6B0EE006AF0EE23
:1026A000086A24EEA47AE4EEC66A27EE267AB5EE2E
:1026B000C04A25EE075AF1EE10FA7FF567ADDFED5F
:1026C000146A79E567666666C863010804640108F0
:1026D00098630108C8060024B8060024C406002434
:1026E000CDCCCCCCF119760500803B46DB0FC94040
:1026F00000F07F45CDCCCC3DF0060024C006002480
:10270000E806002400007A44F371B13F0000C8429B
:102710000000000000000C42006F313F9FCD2A3DB9
:1027200068B32A3ECDCC4C3F03F074FF059B002BD1
:1027300000F0F682D9ED017A5FED0E6AF8EEE77AE5
:1027400087EEA67AB5EEC07AF1EE10FA00F1278195
:10275000F7EE007AB4EEE77AF1EE10FA00F3A58214
:102760005FED176AB6EE006A1FED135A67EE266A30
:102770005FED185AA6EE856AB0EE675AA6EE865A45
:10278000E6EE857A67EEA57AD9ED026A1FED216A39
:10279000F8EEE66AC6EE865AF5EEC05AF1EE10FA89
:1027A00040F10D81FFEE084A1FED275A1FED276A01
:1027B000F4EEC67AF1EE10FA40F18681F1EE087A75
:1027C0001FED2B1ABAEE0E2A5FED2C1AF2EE042A38
:1027D0001FED2D3A65EE056AA5EE272AF6EE003AC2
:1027E00066EE856AF7EE007AB0EE464AE5EE022A1A
:1027F00066EEA26A76EEA66A66EE816AA6EEA13A57
:10280000E6EE833AB0EE673AA6EEA33AE6EE837AB6
:1028100067EE867AF3EE046AF4EEE67AF1EE10FAE9
:1028200040F17281F0EE667AF5EEC04AF1EE10FAF0
:1028300000F1B280F7EE006AF4EEE64AF1EE10FA2B
:1028400000F34582B0EE003A5FED4A3AF0EE086AD6
:1028500024EEA46AE4EEC36A26EE266A26EE236A14
:10286000B5EEC05AF7EE006AF1EE10FA07D4B4EEF6
:10287000E65AF1EE10FA40F31B82F7EE086AD04BED
:10288000B5EEC07ACF4A83ED004ACF4BF1EE10FA95
:10289000C3ED007ACD4B83ED006ACD4BC3ED006AEA
:1028A0004FF001031370CB4BCB4A136040F1B38060
:1028B000F5EEC05AF1EE10FA40F16781F7EE008AAA
:1028C0009FEDDA9AF6EE08BADFEDD87AB1EEE70AB4
:1028D000B5EE400AF1EE10FA00F1D282F1EEC07AC4
:1028E000F5EE408A2BEEA78AF1EE10FA00F1C382D2
:1028F000B1EEE80AB5EE400AF1EE10FA00F1B68248
:10290000F1EEC07AB5EE409A6BEEA78AF1EE10FABE
:1029100000F1A782B1EEC90AB5EE400AF1EE10FA55
:1029200000F19A82F1EEC07A9FEDAC7A059B6BEED6
:10293000A77A67EE877A002B40F0EF80F0EE679A77
:10294000F0EE68AAB0EE48AAFFF78EBBB1EE084AD7
:10295000DFEDB85ABAEE0E6A9FEDB77AF2EE046A6E
:1029600064EEA47AA4EE846A74EEE55A67EEA47A63
:1029700085EE874AE4EE866A67EEA67AF5EEC07ABF
:10298000F1EE10FA40F19680DFEDA87AFFF7E8BB90
:10299000BFEE085AFFF7A6BB9FEDA46A60E7D9ED2A
:1029A000027ADFED8F6AF8EEE77AC7EEA65AF5EE07
:1029B000C05AF1EE10FA00F14181DFED9B7AB7EEDB
:1029C000005AF4EEC55AF1EE10FA00F3F5809FEDCF
:1029D000966ADFED846AF4EEC67AF1EE10FA40F101
:1029E000798175EEE66A9FED8F4AB0EE655AF0EE9A
:1029F000467AC6EE844AB5EEC05AF1EE10FA6DD5AD
:102A0000B0EE674A10E7DFED894AFFF783BBF7EEC8
:102A1000007AFFF797BAF7EE006AB4EEE67AF1EEC5
:102A200010FAF5EEC05A00F37381F1EE10FA40F19E
:102A30007A81F6EE007AB0EE006ABFEE009AF6EE0A
:102A400008BA77EE677AF0EE668AA7EE069AE7EEA6
:102A5000468AB0EEE77AF0EE667AE7EE467AF5EE71
:102A6000C08AF1EE10FAB5EEC09A48BFDFED6F8A6A
:102A7000F1EE10FAF5EEC07A48BF9FED6C9AF1EED8
:102A800010FA40F18981DFED697A1FE7B7EE007A2D
:102A9000F4EEC77AF1EE10FA40F3BF819FED657A4C
:102AA000DFED656A34EEC77AF0EE667A87EE264A85
:102AB000FFF756BBF4EEE37AF1EE10FA7FF72CAB9A
:102AC000F0EE477AFFF74CBBDFED556AF4EEE67A9D
:102AD000F1EE10FA40F31181F0EE667AF7EE006A3B
:102AE000B4EEE65AF1EE10FA40F3AE80DFED3E6A46
:102AF000B0EE674A67EEA67AF3EE046AF4EEE67A81
:102B0000F1EE10FA3FF58EAEDFED386AF4EEE67ABC
:102B1000F1EE10FA76FEA77A86E69FED356ADFEDD4
:102B2000355A28EE067A68EE866A67EE867AFFF7EF
:102B30008DBA0023079889F8143089F80030FEF721
:102B400059FF2D4801F086FC03F064FD0890B5E4C0
:102B500000222A48099E1CEE105A11460B9F02F0D3
:102B6000E3F901210022254802F0DEF90023244A7E
:102B7000136003F04FFD099003F04CFD0A99089093
:102B8000204801F067FCFFF743BAF7EE008AF4EE45
:102B9000E85AF1EE10FA00F3D480BFEE009ADFEDB0
:102BA000237AB5EE007AF6EE08BAE5EE87BA56E774
:102BB000B7EE085AFFF796BADFED134AF6E500BF05
:102BC00020000024BC06002418000024CC060024A9
:102BD0001C000024EC51383FB4060024CDCCCC3D81
:102BE0000000C8429A99193F827A7C4000A08C4626
:102BF000CDCC0C3F6666E63EF8620108F006002484
:102C0000C006002408630108FFFF7F3F006F313FCB
:102C10009FCD2A3D68B32A3E1DB20443CDCC4C3F24
:102C200000000C43CDCCCC3E00000C420000000064
:102C3000247BB2379A99593F9A99193EFFEE084A78
:102C40001FED065A5FED087AF1EE083A1FED112AE2
:102C5000BAEE0E4A5FED122AF2EE046A1FED133A45
:102C600025EE056AA5EE234AF6EE003A26EE056A41
:102C7000E5EE046AB0EE674A26EE266AF7EE006AD1
:102C800036EE066A26EE026AA6EE223AE6EE033A2F
:102C9000B0EE663AA6EE233AE6EE036A67EEA67A4F
:102CA000B8E55FED1B6AFFF787BA5FED257A6BE544
:102CB000F0EE002AF0EE083A65EE054AB6EE003A6C
:102CC000E5EE623A24EEA35AE5EE036AD7E51FED7E
:102CD0002D6AC5E51FED2E6A75EEE66A1FED2F5AC7
:102CE000F4EEC67AC6EE854AF1EE10FAB0EE655AF9
:102CF000C8BFF0EE467A3FF77EAE5FED356AF4EE80
:102D0000E67AF1EE10FA40F19E80F0EE667A72E615
:102D1000F1EE10FA1CD5B0EE669A5FED3C8AD1E573
:102D200003F078FC06E5F4EEE65AF6EE007AB0EE33
:102D3000006AF1EE10FABFEE009A19DDF0EE66BA05
:102D40007FE61FED469AF7EE00BA5FED487ABDE5E3
:102D5000F4EEE65AF1EE10FA19DCFFEE008A5FEDB0
:102D60004D7AB0EE669A1CE703F054FCFFF75EB9AB
:102D700077EE677AF0EE668AA7EE069AE7EE468A65
:102D8000B0EEE77AF0EE667AE7EE467A09E7B0EE63
:102D9000669A5FED5A8AD6E7F5EE407AF1EE10FAC0
:102DA0007FF594ADB0EE670A11F080FF90E54DF22B
:102DB000D8631FED61BA0A93FFF766B81C464FF45B
:102DC0009670079303F028FC2046FEF713FEFFF7EA
:102DD00000B8B0EE470A11F069FFFFF7D5BB11F05C
:102DE00065FFB0EE409AFFF7D7BBB0EE680A11F06E
:102DF0005DFFFFF7D9BB11F059FFF0EE408AFFF7F6
:102E0000DBBBB0EE480A11F051FFFFF7DDBB11F05C
:102E10004DFFB0EE407AFFF7DFBBA7EEA56A1FEDCE
:102E20007B4A27EEA77A5FED7C3A74EEC45A27EE10
:102E3000277A85EEA34AE7EE866A67EE267A67EE82
:102E4000A37AFFF78DB9B5EEC05AF1EE10FA7FF50F
:102E500045AEB0EE674ADDE411F028FFF0EE407AAF
:102E600062E5B0EE490A11F021FF55E511F01EFFB1
:102E7000F0EE407A46E5B0EE680A11F017FF39E54A
:102E800011F014FFF0EE407A2AE500BF10B50E48AD
:102E900000240E4A0E49046044610462C46311F0C8
:102EA00003FE0C494FF60B700B4A0C4B0860CC60CC
:102EB000C1E90144C2E90004C2E90244C3E90004D3
:102EC000C3E9024410BD00BFD00600240000002466
:102ED000E50A00083807002424070024100700240E
:102EE000143001F009BA00BF143001F001BA00BF7C
:102EF00038B500F1140504462DED028B284601F08B
:102F0000E9F9284601F0F4F92846B0EE408A01F0CC
:102F1000DDF9D0ED007AF8EE677A88EE277ABDEC1D
:102F2000028B84ED0E7A38BD10B540F203338EB0BB
:102F300000244FF60B7240F20341ADF8083009A8A7
:102F40000123ADF81020ADF824202246ADF80C1076
:102F50000094029907940C94CDE90544CDE90A4404
:102F600002F01AF804A8012322460399009402F003
:102F700013F809A802F0F6F810B901200EB010BD40
:102F800004A802F0EFF8A0420CBF022020460EB0C9
:102F900010BD00BF2DE9F04103239AB001270024A2
:102FA0000646CDE914373B4BCDE9104340F20453BC
:102FB000CDE91647ADF84830FFF7B6FFB8420546F1
:102FC00025D0022845D040F60132334B0DF12C08B4
:102FD0001894ADF82C200B981997CDF84A3000F0D2
:102FE000E3F810A906F13C0003F0F6F830200322C4
:102FF0004FF07E5341460D930E93CDE90B02F26BD9
:1030000006F1140001F02AF91AB0BDE8F08110238E
:10301000214A06A906908DF828300DF12C081F4B87
:10302000CDF84A2007930294CDE91804CDE90804AD
:1030300002A802F009FB0823029A03A94046ADF852
:103040000C508DF80E40049505930B9400F0ECF8AD
:10305000C7E700200121104B0DF12C083A460094DF
:10306000CDF84A304FF60B730C94ADF82C30234654
:10307000CDE9180140F601314046ADF81810069927
:10308000CDE90D4401F088FF2146404602F076F874
:10309000A7E700BF04020404040604030704010BAD
:1030A0002DE9F04704462DED028B82B000294DD06A
:1030B000012140F2011200230091ADF804208DF8A7
:1030C0000630364A0127364B04F10409354904F12C
:1030D0002908626040F20272A36040F60663E16074
:1030E00004F1250AA4F82520A4F82930278284F8C1
:1030F000277084F82B7003F033FC054603F094FA34
:103100006946064650BB4DB304F130008DF8067099
:1031100003F0ACFB072D3CD104F114052046FFF76A
:1031200039FF284601F0E4F82846B0EE408A01F065
:10313000CDF8D0ED007AF8EE677A88EE277A84ED44
:103140000E7A02B0BDEC028BBDE8F08740F20113AD
:1031500000918DF80610ADF80430B2E704F13000AC
:1031600003F084FB072D11D04946204602F0B4FC41
:103170000EB9002DD0D1504602F00AF8404602F0B8
:1031800007F804F1120000F079F9C5E7002EF2D13A
:10319000C2E74946204602F09FFCBDE70508050945
:1031A00005070506050A060610B584B00346012486
:1031B000ADF8040003A8ADF80C30ADF80E4001F0F6
:1031C000E7FF214603A802F0BFF8204603F024FAE7
:1031D000002103A802F0B8F8204603F01DFA2146AA
:1031E00003A802F0B1F804B010BD00BF10B5C2F3DF
:1031F000002384B00C46017C8DF80D2043EA440284
:10320000FA2402238DF80C2003AA009402F0B2FAEB
:1032100018B10124204604B010BD04460A2003F072
:10322000FBF9204604B010BD034670B543F8042BEB
:10323000044684B007C983E80700A37983B91A213B
:103240000B461E22FA2523742046ADF80C200223DB
:1032500003AA009502F08EFA28B1012004B070BDD7
:103260001B210B46EDE70A2003F0D6F94FF4B852C4
:1032700000950223ADF80C20204603AA217C02F021
:1032800079FA0028E9D10A2003F0C6F941F2027266
:1032900000950223ADF80C20204603AA217C02F001
:1032A00069FA0028D9D10A2003F0B6F90422009562
:1032B0000223ADF80C20204603AA217C02F05AFA22
:1032C0000028CAD10A2003F0A7F90622009502239C
:1032D000ADF80C20204603AA217C02F04BFA00280E
:1032E000BBD10A2003F098F941F20822009502238D
:1032F000ADF80C20204603AA217C02F03BFA0028FE
:10330000ABD10A20064603F087F90095022303AAF1
:10331000217C2046ADF80C6002F02CFA00289CD1EC
:10332000304603F079F9009522790C232046002AD3
:103330008DF80C3003AA4FF0020314BF6221422122
:103340008DF80D10217C02F015FA002885D1304649
:1033500003F062F92279D4E902310B43DBB20AB9F6
:1033600043F0400362790AB143F020030E22FA25AC
:103370008DF80D302046009502238DF80C2003AA0D
:10338000217C02F0F7F900287FF467AF0A2003F0F0
:1033900043F9102200950223ADF80C20204603AA21
:1033A000217C02F0E7F900287FF457AF0A2003F0F0
:1033B00033F9122100950223ADF80C1003AA217CE9
:1033C000204602F0D7F900287FF447AF0A2003F027
:1033D00023F9012209212046FFF708FF003818BF12
:1033E00001203BE7F0B5102387B0234C01220025D4
:1033F0000126002702A920460195CDE902234FF4BA
:103400008052CDE904670AF067FE642004F0E6F814
:1034100002A94FF480522046CDE904670226102706
:10342000CDE902670AF058FE0322102302A92046C4
:10343000CDE9022300230422CDE904234FF4805276
:103440000AF04AFE40F23223042202A9019310231B
:103450002046CDE90223019A012305924FF48052C0
:1034600004930AF039FE40F6060120460AF054FEA5
:10347000284607B0F0BD00BF540700241C4B0022B3
:103480001C494FF0400C30B5054689B00220596008
:1034900007219A601A620124DA620A224FF4006E50
:1034A000DC6006922022CDE9000104200821CDE94C
:1034B000020103201021CDE9040108206946C3E977
:1034C00004024FF4C072181DC3E906C24FF48052C3
:1034D000C3E909E20AF0D6FD38B92846FFF782FFB2
:1034E000003818BF012009B030BD204609B030BDFA
:1034F0005007002440410052614A0021D0B51368B2
:103500008EB00A91002B40F0B9805E4B01214FF63E
:1035100083700C2411600221D3F8D42000260327E5
:1035200042F48052C3F8D420D3F8D42002F480525D
:103530000092009AD3F8E02042F01002C3F8E02095
:10354000D3F8E02002F010020192019AD3F8E020B3
:1035500042F04002C3F8E020D3F8E02002F040023D
:103560000292029AD3F8E02042F00802C3F8E02069
:10357000D3F8E02002F008020392039AD3F8E02087
:1035800042F48072C3F8E020D3F8E02002F48072A5
:103590000492049AD3F8E02042F08002C3F8E020BD
:1035A000D3F8E02002F080020592059AD3F8E020DB
:1035B00042F02002C3F8E020D3F8E02002F020021D
:1035C0000692069AD3F8E02042F00402C3F8E02005
:1035D000D3F8E0300C9403F0040307930323079A15
:1035E0000B93CDE9080108A9274805F0A9FF48F287
:1035F0003712022308A925480C94CDE90823CDE908
:103600000A6705F09DFF4CF20372022308A92048C7
:103610000C94CDE90823CDE90A6705F091FF40F24B
:10362000FF62022308A91B480C94CDE90823CDE9C9
:103630000A6705F085FF4FF60C72022308A91648A9
:103640000C94CDE90823CDE90A6705F079FF4FF620
:103650003F02022308A911480C94CDE90823CDE9C3
:103660000A6705F06DFF2022022308A90A480C947E
:10367000CDE90A67CDE9082305F062FF0EB0D0BDA1
:103680004C07002400440258001002580018025849
:10369000000C025800200258001C02580014025866
:1036A0002DE9F04FDFF8108406460D46144608F168
:1036B00018002DED028B89B000AF02F085FED8F81E
:1036C000183073B3D8F81C30D8F80490002B436935
:1036D0000BBF4FF0080A4FF0100A4FF0020B4FF0EB
:1036E000040BB9F1000F2AD0A200EA46012B02F127
:1036F000070222F00702ADEB020D6846ADEB020DAA
:10370000694600F03F81022B00F0D680002B6FD07D
:103710002246C847D5462437BD46BDEC028BBDE8DE
:10372000F08FD8F81C30002BF5D0D8F804904FF06B
:10373000080A4FF0020B4369B9F1000FD4D1FB61C5
:10374000D8F80030BB61002BE5D0D54802F0AEFEC2
:103750006B46BBF1020F786108EE103AFB6900F08E
:1037600083816A465146A2EBC40295466200EA464E
:10377000B2FBFBF2AAEBC40085460AEB8200EE46E0
:10378000F861ADEB010DF8690EEB820CC7F810C0C3
:10379000EC46ADEB010D00EB8201CCF80400CCF857
:1037A000081001EB82013869E946CCF80C1000EBF7
:1037B0008201CCF800A001EB8202C9E900E0C9E96E
:1037C0000212012B00F06483022B00F06C82002BAC
:1037D00000F08081620849466046BB69984718EE50
:1037E000103A24379D46BD46BDEC028BBDE8F08FF4
:1037F000002C8DD01A46D8ED0C6A9FEDB27A844623
:10380000331D36F922E00CF1080C07EE90EA33F98B
:1038100022E00232F8EEE77A944267EE877A67EEAA
:10382000A67A4CED027A07EE90EAF8EEE77A67EEB8
:10383000877A67EEA67A4CED017AE2D8F9612246E2
:10384000C847984ED8ED0D6A0020F9692B1D9FEDF1
:103850009E7A9FED9E6ADFED9E5A22E0F4EEC67AD4
:10386000F1EE10FAC0F2C88447F6FE72D1ED017A8B
:1038700045F8202066EEA77AF4EEC77AF1EE10FA4A
:1038800040F2F080F4EEC67AF1EE10FAC0F2D58480
:1038900047F6FE7243F820200230083184427FF65A
:1038A00039AFD1ED007A66EEA77AF4EEC77AF1EE81
:1038B00010FAD3D83246D9E7002C3FF429AFD8ED1F
:1038C0000C6A84469FED787A0022331D8E4656F8A6
:1038D00022100CF1080C07EE901A53F82210023255
:1038E000F8EEE77A944267EE877A67EEA67A4CEDB7
:1038F000027A07EE901AF8EEE77A67EE877A67EEBB
:10390000A67A4CED017AE2D871462246C7F81CE04F
:10391000C847664ED8ED0D6A0020F9692B1D9FED52
:103920006A7A9FED6A6ADFF894C120E0F4EEC67A05
:10393000F1EE10FAC0F279843246D1ED017A45F801
:10394000202066EEA77AF4EEC77AF1EE10FA40F284
:103950008780F4EEC67AF1EE10FAC0F25E84324649
:1039600043F820200230083184427FF6D3AED1EDF7
:10397000007A66EEA77AF4EEC77AF1EE10FAD5D89F
:103980006246DAE7002C3FF4C3AED8ED0C6A8646F7
:103990009FED477A4FF0000C331D56F82C200EF1A6
:1039A000080E82F40002A2F5000207EE902A53F8F6
:1039B0002C200CF1020CF8EEE77A82F40002644548
:1039C000A2F5000267EE877A67EEA67A4EED027ADC
:1039D00007EE902AF8EEE77A67EE877A67EEA67A26
:1039E0004EED017AD9D8F9612246C847314ED8ED5B
:1039F0000D6A0020F9692B1D9FED337A9FED336A24
:103A0000DFF8BCC01FE0F4EEC67AF1EE10FAC0F2A7
:103A1000FC833246D1ED017A45F8202066EEA77A84
:103A2000F4EEC77AF1EE10FA18D9F4EEC67AF1EE98
:103A300010FAC0F2DA83324643F82020023008310F
:103A400084427FF667AED1ED007A66EEA77AF4EE97
:103A5000C77AF1EE10FAD6D86246DBE76246EBE7AA
:103A600062467DE7324615E7A100D6466208073177
:103A700021F00701ADEB010DEA46ADEB010D694602
:103A8000ADEB0E0D0AEB8200EC46ADEB0E0D01EB3B
:103A90008202F861E946CCE900A0C9E9001290E68B
:103AA000A40700240280FFFF000000300082FF7F97
:103AB0000000003482FF7F0088070024007E008021
:103AC0007E0080FF0000003804FF7FBF04FF7F3FBF
:103AD00000FEFF46002C00F0C982BBF1020FD8F8AF
:103AE000242000F0FA827969C7F8049002EB810E75
:103AF0005FED0C5A8A00DCF808100EF104007A61C0
:103B00001A46DCF80C303B61331DD7F810903D614C
:103B1000FD69C7E902CB8C46834636F92210D8ED01
:103B20000C7A06EE101A33F9221006EE901A3EF9BE
:103B30002210B8EEC66A07EE101AF8EEE66A3BF9F4
:103B40002210B8EEC77A26EE256A66EEA56A27EE41
:103B5000257A26EE276A66EEA76A27EE277A07EE11
:103B6000901A51080232F8EEE77A0AEB810094428B
:103B700080ED006A05EB810067EEA57AC0ED006A72
:103B80000CEB810009EB810180ED007A98ED0C7A55
:103B900067EE877AC1ED007ABFD8D7F804903D6907
:103BA000D7E902CB60466208BB6949469847D8F816
:103BB0002C307A69D8ED0D6A1A441FED3D7A1FED5D
:103BC0003D6A2B1D904602F1040A5FED3F5A002228
:103BD000A84ED9E900EC51E0F4EEC67AF1EE10FA05
:103BE000C0F2C78247F6FE7045F822000CEB0100D8
:103BF000D0ED007A66EEA77AF4EEC77AF1EE10FA0D
:103C00004BD9F4EEC67AF1EE10FAC0F2BA8247F65A
:103C1000FE70BBF1020F43F822002BD0D9F8080048
:103C20000844D0ED007A66EEA77AF4EEC77AF1EE9A
:103C300010FA36D9F4EEC67AF1EE10FAC0F2CD825F
:103C400047F6FE7048F82200D9F80C000144D1ED87
:103C5000007A66EEA77AF4EEC77AF1EE10FA1ED972
:103C6000F4EEC67AF1EE10FAC0F2AF8247F6FE71BA
:103C70004AF82210023294427FF6B1AD51080EEBA1
:103C800081008900D0ED007A66EEA77AF4EEC77A5B
:103C9000F1EE10FAA0D83046A6E73046B9E7314633
:103CA000E6E73046CEE7002C00F0E081BBF1020FE2
:103CB000D8F8243000F0E1817A69DCF8081003EBD1
:103CC000820EC7F804909300DFED6B5A0EF10400EA
:103CD00000227B61DCF80C303B61331DD7F810907B
:103CE0003D61FD69C7E902CB8C46834656F8221038
:103CF000D8ED0C7A07EE101A53F82210B8EEC76A06
:103D000007EE101A5EF82210F8EEC76A07EE101AD6
:103D100026EE256A5BF82210B8EEC77A66EEA56A31
:103D200026EE276A27EE257A66EEA76A27EE277A1F
:103D300007EE901A51080232F8EEE77A0AEB81009A
:103D4000944280ED006A05EB810067EEA57AC0ED34
:103D5000006A0CEB810009EB810180ED007A98ED9F
:103D60000C7A67EE877AC1ED007ABFD8D7F8049055
:103D70003D69D7E902CB60466208BB69494698476E
:103D8000D8F82C307A69D8ED0D6A1A449FED3E7A46
:103D90009FED3E6A131D9246DFF8E4C00022FB61EE
:103DA0002B1D364ED9E9008E4EE0F4EEC67AF1EEC8
:103DB00010FAC0F2FC81304645F822000EEB0100FB
:103DC000D0ED007A66EEA77AF4EEC77AF1EE10FA3B
:103DD00049D9F4EEC67AF1EE10FAC0F2EF8130461E
:103DE000BBF1020F43F822002AD0D9F8080008449A
:103DF000D0ED007A66EEA77AF4EEC77AF1EE10FA0B
:103E000035D9F4EEC67AF1EE10FAC0F2C981304627
:103E10004AF82200D9F80C000144D1ED007A66EE90
:103E2000A77AF4EEC77AF1EE10FA1ED9F4EEC67A4C
:103E3000F1EE10FAC0F2AD813146F86940F8221077
:103E4000023294427FF6CBAC510808EB8100890026
:103E5000D0ED007A66EEA77AF4EEC77AF1EE10FAAA
:103E6000A3D86046A8E76046BAE76146E5E7604642
:103E7000CEE700BF0280FFFF000000300082FF7F1E
:103E8000007E00800000003404FF7FBF04FF7F3FFE
:103E9000002C00F0EB807A690021D8F82430C7F8B4
:103EA000109003EB820ED7F81C909300FD610EF189
:103EB00004021FED0C6A7B61331D154656F8212064
:103EC0004808D8ED0C6ABBF1020F82F40002A2F59B
:103ED000000207EE902A53F8212082F40002B8EE87
:103EE000E77AA2F5000227EE067A07EE902A0AEB9F
:103EF0008002F8EEE77A27EE267A67EE867A82ED80
:103F0000007A09EB80024FEA800067EEA67AC2EDE4
:103F1000007A27D05EF8212082F40002A2F5000288
:103F200007EE902A55F8212082F40002B8EEE77AD5
:103F3000A2F5000227EE067A07EE902ADCF80820A8
:103F4000F8EEE77A024427EE267A67EE867A82ED6B
:103F5000007A98ED0C7ADCF80C2067EE877A024440
:103F6000C2ED007A02318C42A8D8D7F81090604692
:103F70006208BB694946FD699847D8F82C307A69D0
:103F8000D8ED0D6A1A441FED407A1FED406A131DEB
:103F90009246DFF8C4C20022FB612B1DAB4ED9E96B
:103FA000008E4EE0F4EEC67AF1EE10FAC0F2C58053
:103FB000304645F822000EEB0100D0ED007A66EEA7
:103FC000A77AF4EEC77AF1EE10FA49D9F4EEC67A80
:103FD000F1EE10FAC0F2BF803046BBF1020F43F899
:103FE00022002AD0D9F808000844D0ED007A66EE05
:103FF000A77AF4EEC77AF1EE10FA35D9F4EEC67A64
:10400000F1EE10FAC0F2AE8030464AF82200D9F83C
:104010000C000144D1ED007A66EEA77AF4EEC77A7F
:10402000F1EE10FA1ED9F4EEC67AF1EE10FAC0F2F3
:104030008B803146F86940F82210023294427FF6B4
:10404000CEAB510808EB81008900D0ED007A66EE16
:10405000A77AF4EEC77AF1EE10FAA3D86046A8E783
:104060006046BAE76146E5E76046CEE72246494644
:104070006046BB699847FFF7B2BBC7F810B0002293
:1040800098ED0C6A331DDFED726AD7F81CB07869C1
:1040900056F8221007EE901A53F82210B8EEE77A7D
:1040A00007EE901A51080232F8EEE77A27EE267AE8
:1040B0000AEB810E94420BEB810167EEA67A27EEA4
:1040C000067A67EE867A8EED007AC1ED007ADFD847
:1040D0008300D7F810B07B614DE61A46C7F810B0E0
:1040E00098ED0C6A331DDFED5B6AD7F81CB0786978
:1040F00036F9221007EE101A33F9221007EE901A43
:10410000B8EEC77A51080232F8EEE77A27EE267A3F
:104110000AEB810E94420BEB810167EEA67A27EE43
:10412000067A67EE867A8EED007AC1ED007ADFD8E6
:104130008300D7F810B07B6134E5F0EE675AFEEEED
:10414000E45A15EE900A34E7F0EE675AFEEEE45AB0
:1041500015EE901A6EE7F0EE675AFEEEE45A15EE91
:10416000900A3AE7F0EE675AFEEEE45A15EE900A2E
:104170004BE767EEA57AFDEEE77A17EE900A00B2FC
:1041800032E567EEA57AFDEEE77A17EE900A00B207
:104190003FE5F0EE675AFEEEE05A15EE901A4CE657
:1041A000F0EE675AFEEEE05A15EE900A30E6F0EEB9
:1041B000675AFEEEE05A15EE900AFDE5F0EE675AFA
:1041C000FEEEE05A15EE900A0AE667EEA57AFDEEDD
:1041D000E77A17EE901A09B24AE567EEA57AFDEE86
:1041E000E77A17EE900A00B22CE5F0EE675AFEEE81
:1041F000E45A15EE902A1FE467EEA57AFDEEE77A01
:1042000017EE902A12B2FFF731BBF0EE675AFEEEBE
:10421000E45A15EE902AFFF7FDBBF0EE675AFEEE6A
:10422000E05A15EE902AFFF79BBBF0EE675AFEEEC0
:10423000E05A15EE902AFFF780BB67EEA57AFDEEF7
:10424000E77A17EE902A12B2FFF724BB82FF7F00B5
:1042500000000030000000387E0080FF30B5184CB0
:10426000154685B0046004F1080EEC460FC98EE8CF
:104270000F00D4ED047AF5EEC07A8CE80F00F1EE71
:1042800010FA1ADDB7EE006A94ED057A27EE277A68
:10429000C6EE276A84ED0D7AC4ED0C6A6DB1204636
:1042A00040F8185F02F090F8064903690020064ABA
:1042B0002162A262E36005B030BD012005B030BDCF
:1042C000880700240020003000000030006808301B
:1042D000704700BFB1F5807F03680A4628BF4FF4DE
:1042E0008072B1F5807F9A6094BF002001207047F2
:1042F0000068183002F0C8B830B5046883B00D46C5
:10430000E3694BB1A3680020E26A616A9B000090F8
:1043100004F11C0002F05AF8A3680748A26A9B0047
:10432000216A009004F1180002F050F80020C4E95E
:10433000005003B030BD00BFA136000810B4074BD9
:104340004FF07E5130240022032019619C60D86018
:104350005DF8044B5961C3E90622704788070024C1
:10436000704700BFF8B5134F3C687F2C07D98023F6
:10437000114A42F224411C463B60A2F87E100F4DC8
:104380002B68012B0AD90C4E0D4D2246314628468A
:1043900000F02CF90028F8D13860F8BD2246064913
:1043A000074800F023F90028F7D12B683860013363
:1043B0002B60F8BDC4070024C8070024C0070024F0
:1043C0004808002430B4154C2168F1B14B1E144D3F
:1043D000E81810F801298C4619460A2A01D00D2A3E
:1043E00002D14BB1013BF4E70CF102037F2B10D952
:1043F0008023236030BC70470122022323600D20FC
:104400000A236854AB5430BC704701220223044D88
:10441000F4E70CF101026146F0E700BFC407002495
:10442000C807002410B5094C02460B46084821680D
:104430000844C1F1800110F01DFE2368184420607B
:10444000FFF7C0FFFFF78EFF10BD00BFC4070024B9
:10445000C80700240FB400B583B004A951F8040BB9
:104460000191FFF7DFFF03B05DF804EB04B0704784
:1044700010B5044600210A4800F032F8002C094B20
:1044800014BF0222002208481A60FFF7E3FF074822
:10449000FFF7E0FF0A20BDE8104002F0BDB800BF02
:1044A00048080024C00700247064010880640108E3
:1044B000064A0749074808B510F0F6FA034A0449C6
:1044C0000548BDE8084010F0EFBA00BF0000002426
:1044D00061430008480800244C080024704700BFCE
:1044E000012910B506D0022915D051B1BDE8104000
:1044F00006F008BF0A46344834490BF023FBE8B104
:10450000FEE7334B0A46334C334934481C600BF00A
:1045100019FB68B1FEE701222C492B480BF012FB76
:1045200000B1FEE72E4928480BF02EFBC0B1FEE794
:104530002B492A480BF028FB60B1FEE728492248A6
:104540000BF022FB00B1FEE726491F480BF0AAFA48
:1045500008B3FEE7244921480BF0A4FAA8B1FEE70E
:10456000204919480BF09EFA00B1FEE716480BF0FF
:1045700021FB024640B9164B164C174917481C60E0
:104580000BF0E0FA68B1FEE7FEE714480BF012FB0F
:104590000028ABD0FEE70C480BF00CFB0028A5D0A0
:1045A000FEE70F490D480BF0EFFA00B1FEE70E49A8
:1045B0000A480BF077FA00B1FEE708480BF0FAFA68
:1045C000002893D0FEE700BFEC0A0024C0000024BE
:1045D000880D0024DD440008A400002450080024B5
:1045E000280100248400002474000024084691B2AD
:1045F00008B502F0EFFA003818BF012008BD00BF6F
:10460000014806F05DB900BFE8390024014806F012
:1046100057B900BFE8390024014806F051B900BF7E
:10462000E839002400B583B04FF0000E4FF0030CC2
:104630004274ADF80410BDF8043080F810E0A0F822
:1046400002C0038003B05DF804FB00BF2DE9F04F0A
:10465000DFF81C8300258DB0C04C037008F14003C7
:104660004260074601920E46202229464046C4F881
:104670006831C4F86481CDE90255CDE90455CDE92E
:104680000655CDE90855CDE90A5510F08BFB2022DF
:10469000294604F5A170C4F83151C4F83551C4F865
:1046A0003951C4F83D5110F07DFB019B84F848520C
:1046B00084F830317A68002A6AD02B4604F5987164
:1046C000454606F1100A9E46F01856F803B0E21867
:1046D0000EF1010ED0F80CC0D0F80490D0F808808C
:1046E00044F803B0C2F80CC04FF0000CC2F80490BC
:1046F000C2F80880008A25F802CB10821AF803203D
:1047000001F8012F002A70D07A684FF001001233AF
:10471000724584F84802D7D84FF4802290489DF81B
:10472000043008214FF000084FF00009C4F884312C
:104730000023C4E95B020122C4F8743184F880319B
:10474000C4E95E2194F84812C4E96489A9B3C4F8A5
:104750009821002284F8813184F888313B78C4E9BB
:104760006722002B38D0012200200121013B84F870
:10477000A421C4E96C01082B30D8DFE813F0BD0098
:10478000C200C700CC00D100D600DB00E100E80089
:104790009DF804300121C4F87421C4F884314FF429
:1047A000802384F880216E4AC4E95B230823002219
:1047B000C4E95E130023C4E964230123002284F8C2
:1047C0008131002384F888310323C4F898313B7881
:1047D000C4E96722002BC6D184F8A431614803F0F4
:1047E00035FB034638B1FFBEFEE77A6812337245E7
:1047F0003FF66AAF90E702A95A48029303F084FC9F
:104800008246002876D1042240F2FF710A90CDE959
:10481000081294F83021002A00F0F3804FF00608C7
:104820000AEBCA034FEACA0904EB43035B7C072B7C
:1048300007D8DFE803F0595C5653504D4A0407236C
:1048400007930FFA8AF6D14406EBC60604EB490932
:1048500004EB46077500384600F09AFC99F81030D2
:10486000042B00F3AA80022B00F3BD8000F0B98076
:1048700004EB0A03002283F8202114F81630002BE1
:1048800078D0022B00F08A80012B40F0B2807B7838
:10489000012B00F0B080002B334B18BF002305A97B
:1048A0003048CDE9053802F0FDFE002840F0AC802C
:1048B0000AF1010A94F830315FFA8AFA534540F25E
:1048C000A0802A4B53F82A80AAE706230793B8E76B
:1048D00005230793B5E704230793B2E70323079360
:1048E000AFE702230793ACE700230793A9E701236F
:1048F0000793A6E7FFBEFEE703224023C4E96A232D
:104900006CE707226023C4E96A2367E70F2280234C
:10491000C4E96A2362E71F22A023C4E96A235DE792
:104920003F22C023C4E96A2358E77F22E023C4E979
:104930006A2353E7FF224FF48073C4E96A234DE7EB
:1049400040F2FF124FF49073C4E96A2346E740F245
:10495000FF324FF4A073C4E96A233FE7900D0024AF
:1049600000200240FC0E00240002B02590640108E3
:10497000004000307B78062B37D0072B3DD0022B30
:104980004AD0032B4AD0002B4CD0012B48D0042B0B
:104990004AD0052B254B18BF002380E77B78042BDA
:1049A00025D0052B2BD08BB3012B31D0022B31D04E
:1049B000032B1F4B18BF002371E70323043504EBBF
:1049C0000A0B4FF0000925448BF82031284609F1E5
:1049D000010900F0DDFB9BF8203104354B45F5DC87
:1049E0004BE70123EAE70223E8E7124B57E7124BB4
:1049F00055E7002353E7114B51E7114B4FE7114B9C
:104A00004DE70DB0BDE8F08FFFBEFEE70E4B46E769
:104A10000E4B44E70E4B42E70E4B40E70E4B3EE792
:104A20000E4B3CE70E4B3AE70E4B38E70000B84F11
:104A3000002090360800900C1000C0102000F014E8
:104A40008000501D000180210004002A0008302E43
:104A5000001060320040C03A0080F03E0000524733
:104A6000000021430000844B38B5094C40F2FF722E
:104A70004FF0011104F5B675284603F0F3FA94F8E7
:104A80003021D4F864112846BDE8384003F05EB800
:104A9000900D0024044B0F29D3F8643198BF03EB29
:104AA00041031888704700BF900D0024214B026815
:104AB0009A4200D07047204A00232048D2F8D810EC
:104AC00030B51F4C41F0200183B0C4F8D00109205B
:104AD00004F5E875C4E975034FF48060C2F8D81096
:104AE000D2F8D8204FF40061C4E9773094F8480236
:104AF00002F02002C4F8E4114FF4005198420192F0
:104B00002846C4F8E811C4E97C33019B14BF002394
:104B10004FF48073C4F8EC3103F048FE08B1FFBED7
:104B2000FEE704F5B673C4F8B851C4F8083203B010
:104B300030BD00BF00200240004402584000024047
:104B4000900D0024014804F0A9B900BF600F0024B3
:104B500002682DE9F84F4B4B9A4201D0BDE8F88F1F
:104B6000494D95F84832002BF8D095F83031002B9C
:104B700077D0002405F10C0905F5A17605F59877A5
:104B8000A04613E003F0010117F811BCA9F10800D9
:104B900000F0DAFBBBF1010F25D895F83031013474
:104BA00009F112090236A2B293422BD917F8012F4C
:104BB000002AF4D0D5F864310021327833F814009B
:104BC000D5F8683103EB041323F81200338801335E
:104BD0009BB233805FFA83FA3A789A42D2D88A46F7
:104BE000A6F80080D0E7CAF34001A9F1040000F064
:104BF000ABFBBBF1020FCAF38001CED0484600F0F8
:104C0000A3FBCAE7002395F84802204909229842ED
:104C1000C5F8D8314FF48060C5F8D011C5F8D4215B
:104C20004FF400614FF40052C5F8DC3108BF4FF477
:104C30008073C5F8E821C5E9780100221448C5E968
:104C40007B32C5F8F42103F0B1FD08B1FFBEFEE7E9
:104C500095F83021D5F864110E48BDE8F84F02F000
:104C600075BF0A4909224FF48060C5F8D831C5E9FB
:104C700074124FF400614FF40052C5E97730C5E972
:104C80007912DAE700200240900D00244000024033
:104C9000600F0024FC0E0024704700BF4F4B0268D9
:104CA0009A4200D070474E4BD3F8E81030B541F02F
:104CB00000514C4C85B0D4F84821C3F8E810D3F823
:104CC000E81001F0005101910199D3F8E01041F092
:104CD0000101C3F8E010D3F8E03003F001030293C0
:104CE000029B32F002033DD0013A012A6BD9D4F87D
:104CF0004C31012B0AD000223620114603F078FAFD
:104D0000362005B0BDE8304003F0B0BAD4F84831E1
:104D100033F0020234D0013B012BECD84422402373
:104D20003149324DC4F88C1000212846C4F8B01027
:104D3000C4E9242300224FF48063C4E926234FF4FE
:104D400000624FF40053C4E928234FF480724FF4FB
:104D50008033C4E92A2303F029FD80B9E560C4F853
:104D6000C440C8E74FF48062032303A8ADF80C20C9
:104D70008DF80E3000F00CFAD4F84821B4E7FEE7C5
:104D80001B4BA2634322636140231A4DC4E90623EF
:104D900000224FF480632846C4E908234FF40062E0
:104DA0004FF40053C4E90A234FF480724FF4803368
:104DB000C4E90C2303F0FAFC20B9D4F84831A5600B
:104DC000E464A8E7FEE74FF4A062032303A8ADF86C
:104DD0000C208DF80E3000F0DBF988E700740040FD
:104DE00000440258E00F0024280402406C10002404
:104DF00010040240F40F0024014804F04FB800BF33
:104E0000F40F0024014804F049B800BF6C100024DE
:104E100010B5054C204603F015FB04F58270BDE883
:104E2000104009F027BB00BFE00F002430B58C46CE
:104E30003A4C3B4D8DB0046004F5A27EBCE80F00F7
:104E4000AEE80F00DCF8003020462560CEF80030D8
:104E500003F09AFA0023D4F84C510393C5B11622FB
:104E6000012D049217D00022D4F85411D4F84831FF
:104E70009142CDE9062218BF0222059233F00202C8
:104E800035D0013B012B3CD9002528460DB030BD63
:104E900002230493E7E7234A0093C4F80C31C4F8D3
:104EA0001431C4F80421C4F81C31CDE9013301F0F8
:104EB00055FDD4F844314BF68032C4F80851002B2C
:104EC00008BF1346B0FBF3F304F58270C4F8103149
:104ED00009F03AF90028D8D120230290694604F558
:104EE0008270009309F07EFB0028BCD0CDE703A9B7
:104EF0000A4803F0DBFA78B9D4F84831013B012BBA
:104F0000C2D8102203A9054803F0D0FA051E18BF25
:104F1000012528460DB030BD0125B6E7E00F00247D
:104F200000740040001000402DE9F0410668D6F8FA
:104F30004C5105BBD6F850310C461746002B0CBF20
:104F40004FF008084FF0000831F0020305D0013C93
:104F5000012C14D92846BDE8F08113462946424663
:104F60003046013C03F054FA2946304603F022FA59
:104F7000012CEFD803E001252846BDE8F0813B462F
:104F800042461021304603F043FA1021304603F028
:104F900011FA2846BDE8F08110B592B0ADF80410C2
:104FA0000180C9B2149C0B29C460C0E901233FD021
:104FB00090F801C0BCF10F0F3AD8022A3FD0032A63
:104FC00002D0012A00D000220E92012B02D0022B27
:104FD00018BF0023022C0F932CD0032C2AD0012CB5
:104FE00028D000230A29109327D85C4A02EB81229B
:104FF00002610A2914D8DFE801F0A39587796B5D77
:105000004F4133250600564BD3F8E01041F4806140
:10501000C3F8E010D3F8E03003F480630C930C9BEA
:1050200001230DA9104603FA0CF30D9304F088FA3E
:1050300012B010BD0A291094D7D90022D8E7112246
:105040000E92C2E7464BD3F8E01041F40071C3F86A
:10505000E010D3F8E03003F400730B930B9BDFE711
:105060003F4BD3F8E01041F48071C3F8E010D3F85F
:10507000E03003F480730A930A9BD1E7384BD3F8EE
:10508000E01041F08001C3F8E010D3F8E03003F005
:1050900080030993099BC3E7314BD3F8E01041F03B
:1050A0004001C3F8E010D3F8E03003F04003089368
:1050B000089BB5E72A4BD3F8E01041F02001C3F874
:1050C000E010D3F8E03003F020030793079BA7E735
:1050D000234BD3F8E01041F01001C3F8E010D3F8EF
:1050E000E03003F010030693069B99E71C4BD3F8BE
:1050F000E01041F00801C3F8E010D3F8E03003F00D
:1051000008030593059B8BE7154BD3F8E01041F09E
:105110000401C3F8E010D3F8E03003F00403049373
:10512000049B7DE70E4BD3F8E01041F00201C3F879
:10513000E010D3F8E03003F002030393039B6FE722
:10514000074BD3F8E01041F00101C3F8E010D3F8A9
:10515000E03003F001030293029B61E70000025874
:105160000044025808B5012143780069994089B28A
:1051700004F0EEFB003818BF012008BD01230A46E9
:105180004178006903FA01F189B204F0E7BB00BF7E
:105190008378022B30B504468FB037D0032B33D041
:1051A000012B31D000230A93E378012B2AD0022B64
:1051B00028D000230B93002320460C9302F0ECF838
:1051C0000546204602F0F0F823780990082B13D802
:1051D000DFE803F01F3245586B7E91A40500594B60
:1051E000D3F8E02042F48072C3F8E020D3F8E03036
:1051F00003F480730893089B09A9284604F0A0F9DA
:105200000FB030BD0B93D6E70A93CDE711230A9375
:10521000CAE74C4B09A92846D3F8E02042F0010226
:10522000C3F8E020D3F8E03003F001030093009BC3
:1052300004F086F90FB030BD424B09A92846D3F8D7
:10524000E02042F00202C3F8E020D3F8E03003F09F
:1052500002030193019B04F073F90FB030BD394B89
:1052600009A92846D3F8E02042F00402C3F8E02060
:10527000D3F8E03003F004030293029B04F060F9DA
:105280000FB030BD2F4B09A92846D3F8E02042F0DB
:105290000802C3F8E020D3F8E03003F008030393DA
:1052A000039B04F04DF90FB030BD264B09A92846E9
:1052B000D3F8E02042F01002C3F8E020D3F8E03049
:1052C00003F010030493049B04F03AF90FB030BDCF
:1052D0001C4B09A92846D3F8E02042F02002C3F86D
:1052E000E020D3F8E03003F020030593059B04F0A1
:1052F00027F90FB030BD134B09A92846D3F8E02099
:1053000042F04002C3F8E020D3F8E03003F040035D
:105310000693069B04F014F90FB030BD094B09A9A0
:105320002846D3F8E02042F08002C3F8E020D3F80A
:10533000E03003F080030793079B04F001F90FB0FE
:1053400030BD00BF0044025870B506460D4602F05D
:1053500023F80446304602F027F82A1E014620466C
:1053600018BF0122BDE8704004F0F8BA00231222F1
:1053700070B586B0CDE9022304930368032B01D8EE
:1053800004230593061D841D304602F005F80546EA
:10539000304602F009F8034601A92846019304F0BB
:1053A000CFF8204601F0F8FF034620461C4601F0E6
:1053B000FBFF01A903462046019304F0C1F806B0A3
:1053C00070BD00BF634A0368934210B58CB028D00B
:1053D000614A934258D0614A934200F09480604AF7
:1053E000934201D00CB010BD5E4C5F48D4F8E03061
:1053F00043F00203C4F8E030D4F8E03003F00203D5
:105400000A930A9BFFF7B2FFD4F8F43043F080030D
:10541000C4F8F430D4F8F43003F080030B930B9B02
:10542000E0E7504C5148D4F8E03043F00203C4F8B0
:10543000E030D4F8E03003F002030193019BFFF762
:1054400095FFD4F8E83000221F2043F400131146E2
:10545000C4F8E830D4F8E83003F400130293029B58
:10546000D4F8D83043F00103C4F8D830D4F8D83099
:1054700003F001030393039B02F0BAFE1F200CB05C
:10548000BDE8104002F0F2BE364C3948D4F8E030A6
:1054900043F08003C4F8E030D4F8E03003F0800338
:1054A0000493049BD4F8E03043F00203C4F8E030E6
:1054B000D4F8E03003F002030593059BFFF756FF95
:1054C000D4F8E8300022212043F480031146C4F8C8
:1054D000E830D4F8E83003F480030693069BD4F850
:1054E000D83043F00103C4F8D830D4F8D83003F0F2
:1054F00001030793079B02F07BFE21200CB0BDE85F
:10550000104002F0B3BE1B48FFF730FF154B0022DE
:105510004820D3F8E840114644F40004C3F8E840BA
:10552000D3F8E84004F400040894089CD3F8D84069
:1055300044F00104C3F8D840D3F8D83003F0010395
:105540000993099B02F054FE48200CB0BDE81040BE
:1055500002F08CBE0054004000580040005C004047
:10556000001C005800440258D41300244C1100249D
:1055700024120024FC1200242DE9F0431A4B87B0BA
:1055800000254FF010099E46EC46184BFF22E046DE
:1055900067461A700EF118060EF13004CDE9005579
:1055A000CDE90255ADF80090BCE80F00CDE90455F7
:1055B000AEE80F009CE803000095ADF800908EE87F
:1055C0000300B8E80F000FC69CE803000095ADF893
:1055D000009086E803000FCF0FC49CE8030084E826
:1055E000030007B0BDE8F083240000244811002424
:1055F00010B5EFF3108472B6084B1A78120602D574
:1056000004B962B610BD1B78D82205485BB202FB14
:105610000300143003F042FCF2E700BF48110024FD
:105620004C110024014805F031B800BFD811002406
:10563000014805F02BB800BFB0120024014805F066
:1056400025B800BF881300242DE9F0430F68D82443
:105650003F4D85B007FB04F4032F05EB0403036003
:1056600040DCCB680E46012B3CD84DD04FF0D8081B
:10567000B646DFF8FC9008FB0758BEE80F00C446AA
:10568000ACE80F00DEF800300DF1100ECCF8003061
:10569000D8F808C099E80F000EE90F000EEB870359
:1056A000BCF1010F53F8103CC8F88C3031D0BCF17C
:1056B000020F42D0BCF1000F35D0317C8C34D8239E
:1056C000002201202C4403FB07534900C3E92602B2
:1056D000C3F894102046C3E92822C3E92A2204F023
:1056E000C7FD18B1012005B0BDE8F0830146204692
:1056F00004F0D8FF0028F5D10146204604F0FCFF55
:10570000003818BF0120EEE70B7C103B672BADD9AA
:10571000E8E701F021F90F4B98420CBF0E4B0F4BFD
:10572000C8F89030C9E701F017F90A4B98420CBF4E
:105730000B4B0C4BC8F89030BFE701F00DF9054B4F
:1057400098420CBF084B094BC8F89030B5E700BF32
:105750004C110024000E27072D0FB0303211D0203D
:105760005F4390608A62E030200BA0101A0980101D
:10577000046201082DE9F041D0F8008082B00D46A6
:1057800017461E4608F18C04204604F087FF2028A7
:10579000FAD1D8F80C3073B96D002046089C334616
:1057A0003A46A9B2009404F0B9FD003818BF0120B0
:1057B00002B0BDE8F081089B32463946204604F02D
:1057C00081FEF2E7044B10221A7483F8E82083F874
:1057D000C02183F8982270474C11002430B5002373
:1057E00095B04FF48071062204460B9306921393F2
:1057F000CDE90C13CDE90E33CDE9113301F0B0F84A
:1058000007282BD004F1100541F2883206A928465A
:1058100005F0C4FE28B10123184684F85C3015B0A9
:1058200030BD0222022306A92846CDE9002310221A
:105830000123CDE9022300224FF48003CDE90423A4
:1058400005224FF0807306926A460F9341F2883327
:1058500006F010F80028DED115B030BD032301207A
:1058600084F85C3015B030BD70B50023A4B04FF0A3
:1058700080724FF480750446ADF806300D93CDE983
:1058800010320122CDE90E53CDE91223CDE91433B4
:10589000002943D0F02300F1100508AEADF8063022
:1058A000C02341F2883231462846089305F076FE3F
:1058B00028B10123184684F85C3024B070BD41F251
:1058C00088320DF10601284605F0D2FE0346002875
:1058D000EFD105224FF480711E93284616924FF0A7
:1058E00080721B9321931F9202AA9FED1F7BCDE92B
:1058F0001C13CDE922338DED027B9FED1D7B41F220
:10590000883316A98DED047B9FED1B7B8DED067B07
:1059100005F0B0FF0028CCD124B070BD00F1100517
:1059200008AE612341F2883231462846089305F0DB
:1059300035FE0028BDD141F288320DF1060128461E
:1059400005F014FF0028B4D1BDF80630204623F03E
:10595000780343F04003ADF80630FFF73FFF00281F
:105960009ED0A6E7AFF30080000000000100000019
:1059700010000000010000000000000000004000D6
:105980002DE9F04F00234FF4807501264FF0807809
:1059900004462DED028BABB08DF8073013932193A5
:1059A000299314950E96CDF85C80CDE91533CDE999
:1059B0001863CDE91A33CDE92253CDE92433CDE97B
:1059C000273306231C9300F0CBFF072808D004F1EF
:1059D000100741F288321CA9384605F0DFFD40B1BE
:1059E0000123184684F85C302BB0BDEC028BBDE877
:1059F000F08F4FF0020A4FF0020B4FF0050941F211
:105A0000883308AA1CA93846CDF89480CDF8709048
:105A10009FED2D8BCDE908AB4FF0000A4FF4800BC2
:105A20008DED0A8BCDE90CAB05F024FF0028D7D112
:105A300041F2883238460EA905F0B0FD0028CFD1DA
:105A4000402341F288320DF1070138468DF80730C6
:105A500005F00EFE0028C3D141F288330EA902AA38
:105A60003846CDF83890CDF85C809FED197B8DEDF0
:105A7000048BCDE906AB8DED027B05F0FBFE034602
:105A80000028ADD1CDF870904FF00109CDF8948089
:105A90004FF00008219308AA29931CA938462295A3
:105AA000CDE92333CDE9273341F288338DED0A8BDD
:105AB000CDE90CABCDE9088905F0DCFE002893D0D8
:105AC000304684F85C608FE71000000001000000A1
:105AD00040000000400000002DE9F043624CA3B0FC
