:020000040800F2
:1000000000000220A10A00089D0A00080D6F0008E8
:100010009D0A00089D0A00089D0A000800000000D3
:100020000000000000000000000000009D0A000821
:100030009D0A0008000000009D0A0008916E00085B
:100040009D0A00089D0A00089D0A00089D0A0008F4
:100050009D0A00089D0A00089D0A00089D0A0008E4
:100060009D0A00089D0A00089D0A0008996A000878
:10007000A56A00081D550008B16A0008BD6A00089D
:100080002D2A0108C95F00089D0A00089D0A000882
:100090009D0A00089D0A00089D0A00089D0A0008A4
:1000A0009D0A00089D0A00089D0A00089D0A000894
:1000B000251E0108311E01083D1E0108FD5F0008D4
:1000C0009D0A0008096000089D0A000895160108AD
:1000D000A1160108612801088D280108C12801081E
:1000E0009D0A00089D0A0008000000009D0A000803
:1000F0009D0A00089D0A00089D0A00089D0A000844
:100100009D0A00089D0A0008491E0108AD16010855
:10011000F528010829290108E95700089D0A000867
:10012000D1570008DD570008D1160108051701084E
:10013000612A01089D0A00089D0A00089D0A00081E
:1001400000000000000000000000000000000000AF
:100150009D0A00089D0A00089D0A00085D29010803
:10016000156000089D0A0008A16E0008C56E000811
:100170009D0A0008E96E00089D0A00089D0A000813
:100180009D0A00089D0A000891290108C529010857
:10019000B9160108C51601089D0A00089D0A000845
:1001A0009D0A00089D0A00089D0A00089D0A000893
:1001B000B96700089D0A00089D0A00089D0A00080A
:1001C0009D0A00089D0A0008D94F0008E54F000865
:1001D0009D0A0008F14F00089D0A00089D0A0008CA
:1001E0009D0A00089D0A00089D0A00089D0A000853
:1001F0009D0A00089D0A00089D0A00089D0A000843
:100200009D0A00089D0A00089D0A00089D0A000832
:100210009D0A00089D0A00089D0A00089D0A000822
:100220009D0A00089D0A00089D0A000800000000C1
:100230009D0A00089D0A0008000000009D0A0008B1
:100240009D0A00089D0A00089D0A00089D0A0008F2
:100250009D0A00089D0A00089D0A00089D0A0008E2
:100260009D0A00089D0A00089D0A00089D0A0008D2
:100270009D0A00089D0A0008F929010800000000F5
:100280009D0A00089D0A00089D0A00080000000061
:08029000000000009D0A0008B7
:1002A00010B5054C237833B9044B13B10448AFF3B0
:1002B00000800123237010BD4006002400000000D0
:1002C000E081010808B5034B1BB103490348AFF3B4
:1002D000008008BD0000000044060024E081010801
:1002E00001F0FF01102A2BDB10F0070F08D010F8E7
:1002F000013B013A8B422DD010F0070F42B3F6D1EB
:10030000F0B441EA012141EA014122F007047FF003
:1003100000070023F0E80256083C85EA010586EA5A
:10032000010685FA47F5A3FA87F586FA47F6A5FA96
:1003300087F68EB9EED1F0BC01F0FF0102F00702A2
:1003400032B110F8013B013A83EA010313B1F8D14D
:100350000020704701387047002D06BF354603382E
:10036000073815F0010F07D1013015F4807F02BF67
:10037000013015F4C03F0130F0BC0138704700BFB8
:1003800081F0004102E000BF83F0004330B54FEA46
:1003900041044FEA430594EA050F08BF90EA020FB3
:1003A0001FBF54EA000C55EA020C7FEA645C7FEA46
:1003B000655C00F0E2804FEA5454D4EB5555B8BF69
:1003C0006D420CDD2C4480EA020281EA030382EADA
:1003D000000083EA010180EA020281EA0303362D6C
:1003E00088BF30BD11F0004F4FEA01314FF4801C3F
:1003F0004CEA113102D0404261EB410113F0004F51
:100400004FEA03334CEA133302D0524263EB430307
:1004100094EA050F00F0A780A4F10104D5F1200EA5
:100420000DDB02FA0EFC22FA05F2801841F1000100
:1004300003FA0EF2801843FA05F359410EE0A5F1D4
:1004400020050EF1200E012A03FA0EFC28BF4CF005
:10045000020C43FA05F3C01851EBE37101F00045BB
:1004600007D54FF0000EDCF1000C7EEB00006EEBC8
:100470000101B1F5801F1BD3B1F5001F0CD3490852
:100480005FEA30004FEA3C0C04F101044FEA4452A9
:1004900012F5800F80F09A80BCF1004F08BF5FEA30
:1004A000500C50F1000041EB045141EA050130BD10
:1004B0005FEA4C0C404141EB0101013C28BFB1F522
:1004C000801FE9D291F0000F04BF01460020B1FA6D
:1004D00081F308BF2033A3F10B03B3F120020CDA40
:1004E0000C3208DD02F1140CC2F10C0201FA0CF01E
:1004F00021FA02F10CE002F11402D8BFC2F1200C83
:1005000001FA02F120FA0CFCDCBF41EA0C01904038
:10051000E41AA2BF01EB0451294330BD6FEA040481
:100520001F3C1CDA0C340EDC04F11404C4F120026C
:1005300020FA04F001FA02F340EA030021FA04F37E
:1005400045EA030130BDC4F10C04C4F1200220FAD5
:1005500002F001FA04F340EA0300294630BD21FA13
:1005600004F0294630BD94F0000F83F4801306BFD9
:1005700081F480110134013D4EE77FEA645C18BFCD
:100580007FEA655C29D094EA050F08BF90EA020F64
:1005900005D054EA000C04BF1946104630BD91EA5C
:1005A000030F1EBF0021002030BD5FEA545C05D15F
:1005B0004000494128BF41F0004130BD14F580049E
:1005C0003CBF01F5801130BD01F0004545F0FE4112
:1005D00041F470014FF0000030BD7FEA645C1ABF47
:1005E000194610467FEA655C1CBF0B46024650EA7E
:1005F000013406BF52EA033591EA030F41F40021AA
:1006000030BD00BF90F0000F04BF0021704730B52F
:100610004FF4806404F132044FF000054FF0000104
:1006200050E700BF90F0000F04BF0021704730B5C5
:100630004FF4806404F1320410F0004548BF40429A
:100640004FF000013EE700BF42004FEAE2014FEAEF
:1006500031014FEA02701FBF12F07F4393F07F4FCA
:1006600081F06051704732F07F4208BF704793F0CD
:100670007F4F04BF41F40021704730B54FF46074E0
:1006800001F0004521F000411CE700BF50EA0102E3
:1006900008BF704730B54FF000050AE050EA01028C
:1006A00008BF704730B511F0004502D5404261EBFC
:1006B00041014FF4806404F132045FEA915C3FF43D
:1006C000D8AE4FF003025FEADC0C18BF03325FEADA
:1006D000DC0C18BF033202EBDC02C2F1200300FA8B
:1006E00003FC20FA02F001FA03FE40EA0E0021FAB0
:1006F00002F11444BDE600BF7BB972B90029BEBF48
:1007000000204FF0004106E008BF00281CBF6FF03A
:1007100000414FF0FF3000F0BFB9ADF1080C6DE9BA
:1007200004CE002909DB002B1ADB00F04DF8DDF8C0
:1007300004E0DDE9022304B07047404261EB41016F
:10074000002B1BDB00F040F8DDF804E0DDE90223BC
:1007500004B0404261EB4101524263EB43037047F6
:10076000524263EB430300F02FF8DDF804E0DDE9CB
:10077000022304B0404261EB41017047524263EBF7
:10078000430300F021F8DDF804E0DDE9022304B0C2
:10079000524263EB4303704753B94AB9002908BF7B
:1007A00000281CBF4FF0FF314FF0FF3000F074B94C
:1007B000ADF1080C6DE904CE00F006F8DDF804E0B8
:1007C000DDE9022304B070472DE9F047089D044697
:1007D0008E46002B4DD18A42944669D9B2FA82F2F4
:1007E00052B101FA02F3C2F1200120FA01F10CFA30
:1007F00002FC41EA030E94404FEA1C48210CBEFB68
:10080000F8F61FFA8CF708FB16E341EA034306FBF0
:1008100007F199420AD91CEB030306F1FF3080F07F
:100820001F81994240F21C81023E63445B1AA4B2CC
:10083000B3FBF8F008FB103344EA034400FB07F76E
:10084000A7420AD91CEB040400F1FF3380F00A81AF
:10085000A74240F207816444023840EA0640E41BA4
:1008600000261DB1D4400023C5E900433146BDE850
:10087000F0878B4209D9002D00F0EF800026C5E9F2
:10088000000130463146BDE8F087B3FA83F6002E0A
:100890004AD18B4202D3824200F2F980841A61EB82
:1008A000030301209E46002DE0D0C5E9004EDDE7A0
:1008B00002B9FFDEB2FA82F2002A40F09280A1EB88
:1008C0000C014FEA1C471FFA8CFE0126200CB1FBDD
:1008D000F7F307FB131140EA01410EFB03F08842D6
:1008E00008D91CEB010103F1FF3802D2884200F263
:1008F000CB804346091AA4B2B1FBF7F007FB1011F5
:1009000044EA01440EFB00FEA64508D91CEB040492
:1009100000F1FF3102D2A64500F2BB800846A4EBED
:100920000E0440EA03409CE7C6F12007B34022FAD8
:1009300007FC4CEA030C20FA07F401FA06F31C4307
:10094000F9404FEA1C4900FA06F3B1FBF9F8200C14
:100950001FFA8CFE09FB181140EA014108FB0EF05A
:10096000884202FA06F20BD91CEB010108F1FF3AAA
:1009700080F08880884240F28580A8F102086144B6
:10098000091AA4B2B1FBF9F009FB101144EA0141C4
:1009900000FB0EFE8E4508D91CEB010100F1FF346F
:1009A0006CD28E456AD90238614440EA0840A0FB07
:1009B0000294A1EB0E01A142C846A64656D353D0DD
:1009C0005DB1B3EB080261EB0E0101FA07F722FA01
:1009D00006F3F1401F43C5E9007100263146BDE82A
:1009E000F087C2F12003D8400CFA02FC21FA03F38D
:1009F000914001434FEA1C471FFA8CFEB3FBF7F00E
:100A000007FB10360B0C43EA064300FB0EF69E4232
:100A100004FA02F408D91CEB030300F1FF382FD2CB
:100A20009E422DD9023863449B1B89B2B3FBF7F673
:100A300007FB163341EA034106FB0EF38B4208D94C
:100A40001CEB010106F1FF3816D28B4214D9023E8D
:100A50006144C91A46EA004638E72E46284605E7AB
:100A60000646E3E61846F8E64B45A9D2B9EB02087C
:100A700064EB0C0E0138A3E74646EAE7204694E70C
:100A80004046D1E7D0467BE7023B614432E730463F
:100A900009E76444023842E7704700BFFEE700BF41
:100AA0000B480C4A904203D0121A0B4915F0FAF881
:100AB0000A480B4A904203D0121A002115F000F99F
:100AC00006F084FC15F0C2F801F08CFCFEE700BFD4
:100AD000000000243C060024148201084006002483
:100AE00008620024704700BFAE4BD3ED007AF5EEEC
:100AF000C07A2DE9F04FF1EE10FA0F462DED108B74
:100B00009FB0069201F14480B0EE677AF7EE007A6A
:100B1000B4EE677AF1EE10FA77FE877ACDED097AB6
:100B2000A149A24AA24BD1ED007AD2ED00CAA14957
:100B3000D3ED00FAA04AA14BD1ED009A92ED009AB4
:100B40009F4993ED00FA9F4A9F4BA048D1ED00EAE0
:100B5000CDED077AD2ED00AAD3ED008A02F0B0FE07
:100B60009B4BB0EE408A9B4C1D6823680D2D28BF1F
:100B70000025AB4200F09680974BEA01019303EB0E
:100B8000C5130492D3ED1B7AF5EEC07AF1EE10FA9C
:100B900040F2F4879FED917ABFEE000A67EE877A04
:100BA00067EE887A80EE270A14F0A0FD019BEA0127
:100BB0001344D3ED197A8A4BF5EEC07A83ED000A1F
:100BC000F1EE10FA40F2F2879FED847ABFEE000A50
:100BD00067EE877A67EE887A80EE270A14F086FD42
:100BE000019BEA011344D3ED1A7A7E4BF5EEC07AED
:100BF00083ED000AF1EE10FA40F2D4879FED777A88
:100C0000BFEE000A67EE877A67EE887A80EE270AE1
:100C100014F06CFD019BEA011344D3ED1D7A724B75
:100C2000F5EEC07A83ED000AF1EE10FA40F2B687D5
:100C30009FED6A7ABFEE000A67EE877A67EE887AE0
:100C400080EE270A14F052FDF0EE407A019BEA0193
:100C5000DFF8BCB11344DFF8BCA1DFF8BC9193ED21
:100C60001C0A624BDFF8B481C3ED007A14F0B0FDCA
:100C70005F4BDDED077A2560C3ED007A5D4B5E4C7E
:100C8000C3ED00CA0023CBED009AE360A36063606C
:100C900023605A4BCAED00FA89ED00FAC8ED00EA6C
:100CA00083ED000ADFED4D7A554BF4EEE7AAF1EE45
:100CB00010FA07DD93ED007AB4EEE77AF1EE10FA60
:100CC00040F26087C3ED00AA069B002B00F051871D
:100CD000B1EE087ADFED4B7A3F4BEA01DFF83C8159
:100CE00087EE087A019303EBC51304924146002571
:100CF00093F83D201E7E0E9293F82420DFF810B169
:100D0000129293F83020DFF80CA1139293F83C2054
:100D1000DFF804911492374A8DED0D7A29EEA77A07
:100D2000354C8DED0A7A29EE277A68EEA77A8DED9B
:100D30000B7ACDED0C7AD3ED0A7A9FED337ACDEDB7
:100D40000F7AD3ED0D7ACDED107AD3ED167ACDED85
:100D5000117AD3ED057ACDED1A7AD3ED127A67EEDA
:100D6000677ACDED187AD3ED087ACDED1B7AD3ED05
:100D70000B7ACDED1C7AD3ED0E7ACDED1D7AD3ED45
:100D8000147ACDED057AD3ED047A154B00921693C3
:100D9000164B1E4A1793164BCDED157A98461997A8
:100DA0000B467AE2F4060024340000242C000024D0
:100DB000FC0600243000002400070024EC06002478
:100DC000F8060024E8060024280000240407002474
:100DD0001000002420000024D47401086F12833A0C
:100DE000E4060024D8060024DC060024E0060024E3
:100DF000140000241C0000247C060024D0060024DB
:100E0000CC06002400D7233C333373402400002455
:100E100018000024B40600245C060024C006002448
:100E200000409C4648E17A3F0AD7233C6666A63FCD
:100E3000000070431FED067AF4EEC75AF1EE10FA87
:100E400000F3448575EEA55A85EE887ADDED185AD3
:100E5000E5EE856A5FED0D5AB4EE657AF1EE10FAB3
:100E600035FE877AF0EE085AF4EEE56AF1EE10FAF4
:100E700000F3FD84F8EE085AF4EEE56AF1EE10FA9C
:100E800000F14D86F3EE0B4A66EEA65AB2EE021A58
:100E9000F0EE641AE5EE811A75EEA45A65EEA66AC4
:100EA000C6EEA15AF0EE086AB4EEE63AF1EE10FA98
:100EB00000F3E784F8EE086AB4EEE63AF1EE10FAD1
:100EC00000F12986F3EE0B4A63EE036AB2EE021AD2
:100ED000F0EE641AE6EE811A76EEA46A66EE836A94
:100EE000C6EEA14A75EEE45AF0EE086AA5EE873A1E
:100EF000B4EEE63A84ED003AF1EE10FA00F3E28443
:100F0000F8EE086AB4EEE63AF1EE10FA00F10F8658
:100F1000F3EE0B5A63EE036AF2EE021AF0EE654A44
:100F2000E6EEA14A76EEA56A26EE833AC3EE246A7F
:100F3000F0EE085AF4EEE53AF1EE10FA00F3BB8455
:100F4000F8EE085AF4EEE53AF1EE10FA00F1EB850E
:100F5000F3EE0B4A63EEA35AF2EE021AB0EE643AD5
:100F6000A5EEA13A75EEA45A65EEA35AC5EE834AE2
:100F700076EEE46AE7EE263AF0EE086AF4EEE63A38
:100F8000C4ED013AF1EE10FA00F39184F8EE086A2C
:100F9000F4EEE63AF1EE10FA00F1AA85F3EE0B5A00
:100FA00063EEA36AB2EE023AF0EE654AE6EE834AD9
:100FB00076EEA56A66EEA33AC3EEA46AF0EE085A8E
:100FC000B4EEE54AF1EE10FA00F36D84F8EE085A3B
:100FD000B4EEE54AF1EE10FA00F18685F3EE0B4A25
:100FE00064EE045AB2EE023AF0EE643AE5EE833A69
:100FF00075EEA45A65EE845AC5EEA34A76EEE46A0D
:10100000A7EE264AF0EE086AB4EEE64A84ED024AFC
:10101000F1EE10FA00F33984F8EE086AB4EEE64A0D
:10102000F1EE10FA00F16B85F3EE0B5A64EE046AF0
:10103000F2EE023AF0EE654AE6EEA34A76EEA56AD3
:1010400026EE844AC4EE246AF0EE085AB4EEE55A5D
:10105000F1EE10FA00F32384F8EE085AB4EEE55AE4
:10106000F1EE10FA00F14F85F3EE0B4A65EE055AEA
:10107000F2EE023AB0EE644AA5EEA34A75EEA45A27
:1010800065EE855AC5EE844A76EEE46AA7EE265AE6
:101090001FED9B7AF4EEC72AF1EE10FA84ED035AA5
:1010A0003BD4B7EE004AB1EE007AF0EE004AF0EE23
:1010B000446A74EE623AE2EE876AB6EE007AF0EEC7
:1010C000475A66EE856AE6EE875AFFEE006ABBFE77
:1010D000653A35EEC33AF0EE665AE3EE245AB0EEC6
:1010E000663AF0EEE55A74EE655AA5EEA43AA3EE20
:1010F000077AFBFE475A37EE657AF0EE665AE7EE5E
:10110000245AF0EEE55A74EE655AE5EEA46A62EEF2
:10111000A66AE3EE856AB0EE665A1FEDBC7A25EE4C
:10112000075AB0EE087AB4EEC75AF1EE10FA19DC9D
:10113000B8EE087AB4EEC75AF1EE10FA00F1E7847F
:10114000F3EE0B6A25EE057AF2EE024AF0EE665AED
:10115000E7EE245A37EE267A27EE055A85EE257AF1
:1011600026EE076A9DED157A2AEE066A199867EE53
:10117000877ADDED095A01685FEDD36A87EE887AD8
:1011800001EB850181ED006A4168CDEE087A01EB43
:10119000850181ED006AE0499FEDE06A37EE297A2A
:1011A000F7EE009AB4EEE97A37EE899ACCEE087A37
:1011B000F1EE10FAA8BF37EE697A81ED007AB7EE4A
:1011C000007AD749B4EEC79A77EEA88ACEEE087AAD
:1011D000F1EE10FAA8BF39EE479AB7EE007A81ED2A
:1011E000009AF4EEC78ACF49F1EE10FA37EE800A82
:1011F000CDEE887AA8BF78EEC78AB7EE007AC1ED47
:10120000008AB4EEC70AC849F1EE10FAA8BF30EE62
:10121000470A37EE822AB7EE007A81ED000AF6EE31
:10122000007AC249B4EEC72AF1EE10FAA8BF32EE36
:10123000472A81ED002ABE4991ED007A75EEC75A22
:10124000A5EE867AE7EE267A81ED007AB9490F4657
:101250000968481CFCEEE77A17EE901AF02928BFBF
:10126000F021EF2884BF0020B24F81423860B24F96
:1012700094BF002101213878884209D0AF480892F4
:10128000CDE9021304F066FC0299089A039B3970B9
:1012900001350699A94200F06C841699F7EE005AC0
:1012A0009DED076AD1ED007A009935EEE77AD8ED29
:1012B000006AD1ED004A27EE067AF4EEEC4AA6EE7B
:1012C000A77AF1EE10FA88ED007A00F173829C495A
:1012D000D1ED003A75EEE35A9AED003A6CEEA55A5C
:1012E0009FED985AB4EEEF3ADFED976AE4EEA35A19
:1012F000D9ED003A9BED004AF1EE10FADFED934A8A
:101300009DED0ABAF4EECF3A9FED916A54BFF0EE2C
:10131000661AF0EE451ADFED8F7AA4EE24BA93ED4B
:10132000004A54BFF0EE672AF0EE462A0099F1EE2B
:1013300010FA9DED0B1AB4EEEE4AC1ED005A6FEEB5
:10134000A11A85499DED0CAA8BED00BAE3EE221A95
:1013500054BFF0EE662AF0EE452A54BFB0EE673A6D
:10136000B0EE463AF1EE10FA6FEE222A48BFF0EEE8
:10137000456ACAED001A48BFF0EE467A92ED005A6F
:10138000E3EE832A6EEEA66AE4EE276A91ED004A48
:101390007249B4EEEA4AC9ED002AD1ED007AA7EE0F
:1013A000A41AF1EE10FAC3ED006AF7EE007A35EEFA
:1013B000675A81ED001A4CBF69496149D1ED004A75
:1013C000654937EEE46A26EE2A6AA4EE246ADFED68
:1013D0005F4A81ED006A634991ED004AA4EE24AAB8
:1013E00081ED00AA1799D1ED004AE5EE247AB0EE1E
:1013F000672AC2ED007ADFED497AB4EEE76AF1EED2
:1014000010FA00F1BC8194ED035A94ED003AD4ED4A
:10141000013A94ED024ADFED417AF4EEE7AAF1EEEB
:1014200010FA0CD5DFED507AB4EEE76AF1EE10FA5F
:1014300005DDF3EE0E7AE6EE2C7AF0EE67CA4B4944
:10144000F1EE000ADDED0D7AD1ED004A77EEA44A07
:10145000F7EE007AF4EEE74AF1EE10FAA4BF74EE6C
:10146000E74A4249F6EE007AC1ED004AF4EEE74A57
:10147000F1EE10FA40F17E81FFEE007AE4EEA07A00
:10148000F7EE004ADFED3A0A21EE271A0E99F0EE48
:10149000647AE1EE207A67EE277A67EE827A002995
:1014A00000F06081019904989FED327A0144E1EEE9
:1014B000874A91ED077A27EE877A27EE24DA9DEDA9
:1014C0000F7A022E144927EE87CA9DED107AD1EDCE
:1014D000009A27EE87EA9DED117A67EE87DA00F031
:1014E000B982032E00F07B81012E00F01982B6EE46
:1014F000007AF1EE004AF4EEC79AF1EE10FA00F12C
:101500007081B0EE087AA9EEE47ADDED1A4A27EE92
:10151000247A8DED027A2FE0B80600246F12833A08
:10152000BC0600247406002470060024640600240F
:10153000D4060024C8060024C4060024440700245E
:10154000DC06002400D7A33C0012833AA4707D3F40
:1015500048E17A3F77BE7F3F780600246806002482
:10156000D80600240C00002417B7D1386C060024DC
:10157000CDCC4C3DC0956C3DD64991ED009A129969
:10158000022900F03F81032900F0A382012900F025
:101590003282F6EE004AB4EEE49AF1EE004AF1EE41
:1015A00010FA40F1DD82FFEE000A9DED1B7AE9EEB4
:1015B000240A60EE870AC849D1ED008A13990229EE
:1015C00000F03381032900F00B82012900F0D9815A
:1015D000F6EE004AF4EEE48AF1EE004AF1EE10FA7B
:1015E00040F1A982BFEE001A9DED1C7AA8EEA41A64
:1015F00021EE071AB94991ED000A1499022900F069
:101600002781032900F0DE80012900F03182F6EE07
:10161000004AB4EEE40AF1EE004AF1EE10FA00F1ED
:10162000D380F0EE081A9DED1D7AE0EE641A21EEEB
:10163000877A8DED037ADDED054AF5EEC04AF1EECD
:1016400010FA40F3BC80DFF8BCC2049FDCF8001045
:10165000A34881EA4131DFEDA3BAD0ED004A81EA27
:101660005141DFEDA11A81EA411107EE101ACCF8C1
:1016700000100199B8EEC72A394491ED1E7A8DED1C
:10168000087AB0EE647A92EE2B7AE7EE214A9DED6D
:10169000087AC0ED004AD2EE2B4A74EEA44AE2EE7C
:1016A0006B4A64EE874AE2EE2B4A9DED052A64EE12
:1016B000824A9DED027A9DED032A37EE207A8B490E
:1016C00037EE017A37EE027A91ED002A77EE244A5E
:1016D000B6EE007AB4EEC72AB1EE007AF1EE10FA57
:1016E0003BD5FFEE001AE2EE071A64EEA11AB7EE40
:1016F000007A61EEA61A77EE666AE6EEA41AF0EEBC
:10170000086A2BEE21BAB4EEE6BAF1EE10FA00F355
:10171000D680B8EE087AB4EEC7BAF1EE10FA00F14E
:10172000EB81F3EE0B6A2BEE0B7AF2EE021AF0EE7F
:10173000664AE7EE214A37EE267A27EE0BBACBEE61
:10174000246AB3EE047AF4EEC75AF1EE10FA7FF58C
:1017500071ABDFED675AFFF777BBF0EE081AE2EEE8
:10176000471AC2E701990498014491ED077A27EEE0
:1017700087DAA4E6F0EE087AE4EEE07A80E6DFEDC0
:101780005D7A94ED003AD4ED013A94ED024A23EEED
:10179000273A94ED035A63EEA73A24EE274A25EE42
:1017A000275A84ED003AC4ED013A84ED024A84EDF3
:1017B000035A30E6DFED505ADFED503A8CE5DFEDAD
:1017C000574A76E7F0EE004AFFEE001A9DED1D7ACB
:1017D000E0EE241A21EE877A8DED037A2BE7F0EE06
:1017E000004ABFEE007A3B4991ED009AA9EEA47A37
:1017F000DDED1A4A1299022927EE247A8DED027A3C
:101800007FF4C1AEF6EE004AB4EEE49AF1EE10FABF
:1018100000F1A38130499DED1B7AD1ED008A139927
:10182000F1EE470A02297FF4CDAEF6EE004AF4EE5F
:10183000E48AF1EE10FA00F18D8128499DED1C7AC1
:1018400091ED000A1499B1EE471A02297FF4D9AE3E
:10185000F6EE004A9DED1D7AB4EEE40AF1EE10FAC0
:1018600000F17581B1EE477A8DED037AE3E6F0EE93
:10187000086AF7EE005AB4EEE63AF1EE10FA7FF796
:1018800019ABF7EE004AFFF72DBBF0EE085AF7EE62
:10189000006AB4EEE55AF1EE10FA7FF7DDABF7EE31
:1018A000004AFFF7F1BBF7EE004AFFF7A7BBF7EEE0
:1018B000006AFFF783BBF7EE004AFFF759BBF0EE73
:1018C000476A3EE7F7EE006AFFF732BBDFED0C5ADE
:1018D000FFF7BABABC060024740600247006002480
:1018E0006006002400000030CDCC4C3F640600248C
:1018F0000000204277BE7F3F00481D3AAED87F3FB0
:1019000000401C4708000024DB0F4940DB0F49C0A2
:1019100083F9A23F7B81CF3E6666663E00000000F1
:1019200039EEA92A1FED087A5FED084AE2EE074A70
:101930001FED097A1FED092AF5EEC04A24EE822A2E
:1019400024EE877AF1EE10FA48BFF1EE644AA2EE77
:10195000647AB5EEC07AF1EE474AF1EE10FA54BF60
:10196000B0EE472AB0EE642AE7EE024A1FED162ACF
:10197000A4EE827ADDED1A4A27EE647A8DED027AC2
:10198000FAE578EEA81A1FED202A5FED204A1FED38
:10199000201AE1EE824A1FED212A9DED1C7AF5EE18
:1019A000C04A24EE822A24EE811AF1EE10FA48BFD2
:1019B000F1EE644AA2EE641AB5EEC01AF1EE414AA5
:1019C000F1EE10FA54BFB0EE412AB0EE642AE1EE17
:1019D000024A1FED2F2AA4EE821A21EE471A09E6C9
:1019E000F0EE004A9DED1C7ABFEE001AA8EEA41A94
:1019F00021EE071AFEE579EE091A1FED3D2A5FED8B
:101A00003D4A5FED3D0AE1EE824A1FED3E2A9DED23
:101A10001B7AF5EEC04A24EE822A64EEA00AF1EEAB
:101A200010FA48BFF1EE644AE2EE640AF5EEC00A2D
:101A3000F1EE604AF1EE10FA54BFB0EE602AB0EE5B
:101A4000642AE0EE824A1FED4C2AE4EE820A60EE40
:101A5000C70AB0E5B6EE007AF4EEC79A9DED1A7AA1
:101A6000F1EE10FA70D4B1EE477A8DED027A83E58B
:101A700070EE001A1FED5C2A5FED5C4A9DED1D7A49
:101A8000E1EE824A5FED5E1A1FED5E2AF5EEC04A76
:101A900024EE822A64EEA11AF1EE10FA48BFF1EEAC
:101AA000644AE2EE641AF5EEC01AF1EE614AF1EE14
:101AB00010FA54BFB0EE612AB0EE642AE1EE824A19
:101AC0001FED6B2AE4EE821A21EEC77A8DED037AC0
:101AD000B1E5F0EE004A9DED1B7AFFEE000AE9EE5B
:101AE000240A60EE870A66E5FFEE004AFFF786BA31
:101AF000FFEE006AFFF762BAFFEE006A21E6FFEE32
:101B0000006AFFF7A1BAFFEE004AFFF7BDBAB1EED7
:101B1000466AFFF727BBFFEE004AFFF7E3B9FFEE87
:101B2000005AFFF7BFB9FFEE004AFFF721BAFFEEF8
:101B3000006AFFF7FDB9B0EE081A9DED1C7AA8EE19
:101B4000E41A21EE071A55E58DED027A14E58DEDC4
:101B5000037A70E59DED1C1A4CE5DDED1B0A2AE5C4
:101B6000F0EE080A9DED1B7AE9EE640A60EE870A42
:101B700021E51FB0BDEC108BBDE8F08F1FED990A79
:101B8000FFF714B80B490C4A09681160FFF79AB8BF
:101B9000DFED0A7ACDED097AFEF7C2BFDFED077AF5
:101BA000FFF754B89FED050AFFF734B89FED030A1D
:101BB000FFF716B8D006002424000024000000001F
:101BC0002DE9F041002482B01C4E0123DFF878801B
:101BD00022461B4D3046D8F800101A4F009403F0EF
:101BE000C7FE052005F006FA22463968012328467B
:101BF000009403F0BDFE052005F0FCF92346012208
:101C0000D8F800103046009403F0B2FE214630466A
:101C100003F0A0FF052005F0EDF923460122396805
:101C20002846009403F0A4FE2846214603F092FFC4
:101C3000052002B0BDE8F04105F0DCB96C070024D6
:101C400058070024547B0108587B010870B5002414
:101C500082B0144D0122144E234628460094316868
:101C600003F086FE2146284603F074FF052005F0A8
:101C7000C1F90E4A01230E4811682246009403F070
:101C800077FE052005F0B6F9284601232246316883
:101C9000009403F06DFE052002B0BDE8704005F031
:101CA000A9B900BF6C070024587B0108547B0108C8
:101CB000580700242DE9F041072582B0DFF8E480C1
:101CC0000746354E25E06246D8F80010CDF800C032
:101CD00003F04EFE0024052005F08CF90123224676
:101CE00031682E48013D009403F042FE052005F0C6
:101CF00081F92346012229483168009403F038FE17
:101D00002146264803F026FF052005F073F96B1CD9
:101D100014D0012247FA05F14FF0000C204811EAD7
:101D200002041346CFD1D8F800102346009403F0E4
:101D30001FFE21461A4803F00DFFCBE72246D8F8D4
:101D4000001001231648009403F012FE052005F050
:101D500051F92246316801231048009403F008FE2F
:101D6000052005F047F90E4803F0E8FE234601225E
:101D7000316805460094094803F0FAFD21460748FA
:101D800003F0E8FE052005F035F985F00100C0B24A
:101D900002B0BDE8F08100BF547B01085807002461
:101DA0006C070024587B01082DE9F043002283B022
:101DB000DFF8F480074601233848D8F80010914630
:101DC00000920725364E03F0D3FD0024052005F0D0
:101DD00011F90123224631683248009403F0C8FD0E
:101DE000052005F007F92D4803F0A8FE01218646DD
:101DF000234601FA05FC0A462A48013D3168BEF136
:101E0000000F03D04CEA090C5FFA8CF9009403F040
:101E1000AFFD2146234803F09DFE6B1CD5D1002F5A
:101E200033D0D8F8001023461C480122009403F058
:101E30009FFD2146194803F08DFE0024052005F082
:101E4000D9F83168224601231648009403F090FD2A
:101E5000052005F0CFF8234601223168114800948F
:101E600003F086FD21460F4803F074FE052005F0BF
:101E7000C1F801232246D8F800100848009403F066
:101E800077FD484603B0BDE8F08301233A46D8F811
:101E900000100248009703F06BFDCEE76C070024AA
:101EA000547B010858070024587B010838B50446C4
:101EB0000D46FFF785FEB420FFF7FCFE60B120461B
:101EC000FFF7F8FE40B12846FFF7F4FE044618B1CC
:101ED000FFF7BCFE204638BD0024FFF7B7FE2046C2
:101EE00038BD00BF2DE9F04104460E461546FFF708
:101EF00067FEB420FFF7DEFE08B32046FFF7DAFEE8
:101F0000E8B1FFF75DFEB520FFF7D4FE0746B0B19C
:101F100085B1013D741E56FA85F8C6F101063019E7
:101F20008542D4BF00200120FFF73EFF04F8010FD7
:101F30004445F4D1FFF78AFE3846BDE8F08100271A
:101F4000FFF784FE3846BDE8F08100BF10B563217D
:101F500082B080204124FFF7A9FF0A2005F048F84D
:101F600000215E20FFF7A2FF01212B20FFF79EFF3B
:101F700001212C20FFF79AFF10212D20FFF796FF5B
:101F800020212E20FFF792FF01212F20FFF78EFF47
:101F900001213020FFF78AFF10213120FFF786FF53
:101FA00020213220FFF782FF00213320FFF77EFF40
:101FB00000213420FFF77AFF00213520FFF776FF5C
:101FC00004212046FFF772FF601C02340221C0B2D8
:101FD000E4B2FFF76BFF592CF2D111215B20FFF720
:101FE00065FFF0215C20FFF761FF4C215D20FFF7CA
:101FF0005DFF8C215E20FFF759FF642004F0F8FF9D
:10200000002301220DF107015E208DF80730FFF754
:1020100069FF9DF80700A0F18C00B0FA80F040093C
:1020200002B010BD10B586B00446182204206946DF
:10203000FFF758FFA01E6A4606AC537812F8021B41
:102040001B02944203F4407343EA010320F8023F69
:10205000F3D106B010BD00BF2DE9F04192B02025AC
:10206000002407460DF1180830220021404613F0E5
:1020700027FE68464646FFF7D5FF6A46414600E020
:102080000C6832F8023B2344424541F8043BF7D147
:10209000052004F0ADFF013D01D0069CE9E7BA1E22
:1020A000163756F8043B5B0922F8023FBA42F8D1D2
:1020B00012B0BDE8F08100BFA0F10A021C4B002A5B
:1020C00053F8211030DD814230DD42F210700A39C0
:1020D00000FB02F292FBF1F38342A8BF0346002B00
:1020E0001A46B8BF5A1C5210511C93FBF1F25218F9
:1020F00048BF0132511093FBF1F2521848BF013230
:10210000521093FBF2F18A1848BF0132521093FB30
:10211000F2F313445A1C07DB002BB8BF01335810ED
:102120006428A8BF6420704700207047642070476F
:10213000A47401080022A0F1040C2DE9F04F13460D
:102140008DB006460D46964614460A750A705CF830
:10215000042F724501DD1C46964601330C2BF6D147
:10216000BEF1090F03DC00200DB0BDE8F08F04F1D3
:102170000208A71EB8F10B0F27EAE777A8BF4FF0B8
:102180000B08B845C0F2AD806FF0404C4FF000092D
:1021900008F1010EBA46BC443A464846494606EBA9
:1021A0008C0C5CF8043F23EAE373994502FB0300BF
:1021B000194401DA9246994601327245F1D100295B
:1021C00000F098804FF47A7B0BFB00F001EB810B61
:1021D00001EB4B0BB0FBFBFBBBF57A7FA8BF4FF4C9
:1021E0007A7B51464846FFF767FF0123EC46C5F866
:1021F00004B02B700023C5F81090C5E9020A6846A8
:1022000004E001334CF8042B0C2B0FD09F4206DC6A
:102210009845ACBF002101210A460029F1D056F8AB
:10222000232001330C2B4CF8042BEFD1002319464B
:102230001E4650F8042B8A4201DD1E46114601332A
:102240000C2BF6D1331B48BFA31B092945DD032BFB
:10225000CCBF00240124002C3FD1A6F10208023695
:102260000B2E28EAE878A8BF0B2646453FDB721CF8
:102270006FF0404640462746464421460DEB860611
:1022800056F8043F23EAE3739C4203FB00771944AA
:1022900001DA80461C4601308242F1D139B34FF455
:1022A0007A7601EB810307FB06F601EB4301B6FBEF
:1022B000F1F6B6F57A7FA8BF4FF47A76414620460C
:1022C000FFF7FAFE03460220AE616C62C5E90738EB
:1022D00001232B750DB0BDE8F08F01200DB0BDE8D6
:1022E000F08FBA464FF000094FF0FF3B79E74FF00F
:1022F000FF36E3E74FF0FF3B73E700BF2DE9F04700
:10230000374C82B00022234604F128088DF80420BF
:102310008DF805201A789AB914334345FAD100296B
:102320000BDD01EB810301AA00EB830312F8011B13
:10233000002939D014309842F8D102B0BDE8F087B6
:10234000002949DD01AD844600224FF0FF3E4FF0E9
:10235000C90A15F8016B5EB9DCF804605F68B6EB7A
:10236000070948BFA7EB0609CA4501DD9646CA46DC
:1023700001320CF1140C9142EBD1BEF1FF3F2BD096
:102380000EEB8E020EF1080500EB82020DEB050E3E
:1023900001250EF8045C55685D6095689D60D56800
:1023A0001269DD601A61B7E7217819B1217D002932
:1023B000C0D1012101EB81010769466804EB810569
:1023C000D0E902ECC5E9016EC5E903C7012504F8AF
:1023D000215002F8015CADE700221A709CE700BFB3
:1023E0008C0600242DE9F04F00219F4800242DED9C
:1023F0000C8BD7B001F040FB04219B4801F064FA3C
:1024000041F2883004F0F4FD98490123224609681E
:102410009748009403F0ACFA9649012322460968D4
:102420009548009403F0A4FAFFF790FD19AB00283B
:1024300041F086810A9300240125022614A98F48C1
:1024400015961894CDE9164503F0DCF9314622467D
:102450008A4803F055FA8A4B2A468A481968234667
:10246000009403F085FA2146864803F073FB0323AA
:102470008DF8384032468DF839300FA80E9902F0A9
:10248000BDFD2A4604230FA97F48254602F0CAFD58
:102490007D4802F0D5FF04F0A9FD064607E002F0F2
:1024A000E5FF03460A2001341D4404F0A1FD04F0B9
:1024B0009DFD0346002174489B1BB3F5FA6FEED3D4
:1024C000002C01F0488142F23412B7EE007AB5FBDD
:1024D000F4F4A3B2934238BF13460C93A3F5FA5316
:1024E00007EE903AF8EEE77AC7EE27BA674B00247A
:1024F000674F1D68674A07EBC513674E6749ED01D3
:1025000093ED018A664B78EE087A5748C2ED007A5F
:10251000644A1360346001F0CFF9634BC820336024
:1025200004F066FD3220346004F062FD002002F009
:102530008BFC5E4802F07AFC5D4802F077FC534B5E
:102540001B680C2B1846A8BF0C20002BC1F20A8177
:1025500000233A46194692F87C400133803204B990
:1025600001318342F7DD4A4B0022069393F87C0049
:10257000803300B901324F489842F7D1069BBDEE37
:10258000C88A4D485C195B598DED008AD4ED027AFA
:10259000FDEEE77ACDED017A02F048FC474802F003
:1025A00045FC94F83D30002B01F0C580444802F012
:1025B0003DFC44480DF1AC0A02F038FC424802F000
:1025C00035FC424802F032FCDFED419A04F00EFD8A
:1025D0000023F0EE69AA9FED3FBA1C46B0EE69AA4F
:1025E000DFF8F8900DF1C10B264608900D9304F02A
:1025F000FDFC0B9409900021234802F037FFB0F551
:10260000FA5F00F25F83344B9FED319A83ED009ABD
:1026100004F0ECFC0B9B0890002B40F0598741F232
:1026200088331A46089B9A180B9309930D920DF163
:10263000F4081FA8FFF7F6FC01271FA841460A9AD5
:1026400008E00B609F4201F10401B8BF1F461FABB9
:10265000934245D032F8023B002530F8024B1B1B59
:10266000EFD52B460D60EDE704070024587B0108E9
:102670006C070024547B0108580700242407002419
:102680005C7B0108440700241C070024040000248C
:10269000D474010834000024E8060024E90A000884
:1026A0000000C8422C000024CDCCCC3E547101085F
:1026B00068710108547B01087C7101089871010858
:1026C000BC7101080C7201084072010860720108B7
:1026D0000000000000007042280000248C06002446
:1026E00033A93DA8FFF726FD051E40F30E8304F035
:1026F0007DFC089004F07AFC0990294633A8FFF786
:10270000FDFD99F800300793002B40F00D8686F010
:102710000104002E00F0AF85784B1B680C2B03D012
:10272000764A774912680A60754A1568079A002A3E
:1027300040F038849FED736A0023734AED01F0EE98
:10274000467ADFED725AF0EE466A1370B0EE467AC2
:102750006F4B83ED006A9FED6F6AE9EEA57AAAEEF2
:10276000067AEAEE866AF0EE679AB0EE47AAF0EED5
:1027700066AA9FED698A002168486AEE087AFCEE35
:10278000E77A17EE903A9AB203F0BAF86AEE887ACE
:1027900001216248FCEEE77A17EE903A9AB203F014
:1027A000AFF85F4BC3ED009A99F81430002B00F09E
:1027B000C780D9ED067ADFED5B6AF8EEE77A87EE3F
:1027C000A67AB5EEC07AF1EE10FA00F13D86F7EE8A
:1027D000007AB4EEE77AF1EE10FA00F33487F6EE01
:1027E000007AB0EE086A37EE677A27EE066AD9ED0E
:1027F000077ADFED4D6AF8EEE77A87EEA67AB5EE56
:10280000C07AF1EE10FA00F1DF85F7EE006AB4EE5F
:10281000E67AF1EE10FA40F38B85F0EE667AB0EED0
:10282000677AFAEE0E5AB1EE084AB2EE045AF0EEAA
:10283000653A67EEA76AF0EE454AE7EE843A66EE3F
:10284000A76AE7EEA34A66EEA46AF5EEC06AF1EE67
:1028500010FA40F10186DFED356A9FED355A77EECB
:10286000666ADFED287AC6EE855A9FED265A069BEA
:102870002B44B4EEC57AD3ED186AF1EE10FA67EE88
:10288000A67A00F1E585F7EE006AB4EEE67AF1EE9D
:1028900010FA0BDCF0EE004AB0EE085A67EE076A59
:1028A000A7EE645A26EE857A26EE076AF5EEC05A40
:1028B000F1EE10FA00F15E85B7EE007AF4EEC75A39
:1028C000F1EE10FA09DCB0EE005AF0EE086A25EEDF
:1028D000A57AE5EEC56A27EE267A164B83ED006AE7
:1028E000154BC3ED007A069B2B44D3ED177A134B9F
:1028F00067EE277AC3ED007A29E000BF04000024C8
:102900001000002400000000F0060024CDCCCC3DD7
:10291000E80600246666E63E00F07F4524070024B2
:10292000F406002400007A440000C8429A99593FF6
:102930009A99193EFC060024EC060024F8060024AF
:102940000023C74A1360C74A1360C74A1360C74BC6
:102950001B680C2BC54B1B681C4600F0CF820C2B50
:102960004FF00001A8BF0C24002B09DBC04A0B4626
:1029700092F87C000133803200B90131A342F7DDC7
:10298000BB4B002293F87C00803300B90132B94878
:102990009842F7D1069B58195B5990ED027AD0ED19
:1029A000017ABDEEC77AB448FDEEE77A8DED017A83
:1029B000CDED007A02F03AFAB048002502F036FA7E
:1029C000AF487B10059302F031FA58F8042B002A27
:1029D00040F3398102EB8200059B03EB8000B0FBE2
:1029E000F7F01428A8BF14205B230DF1AD066FEAA1
:1029F0000A048DF8AC30334619198142ACBF20214E
:102A0000232103F8011B9B45F6D15D238DF8C130CE
:102A100000238DF8C23099F80030002B00F01181AE
:102A2000D9F80C30AB420CBF3123202399F8141095
:102A300021B1D9F82010A94208BF32232946013517
:102A4000009353468F4802F0F1F90C2DBDD17C253F
:102A50002D2128220DF225108DF8245113F030F984
:102A6000002199F800308DF84D518DF84E11BBB111
:102A7000D9F8043027224FF4FA70C3FB02014FF457
:102A80007A720023FDF738FE272800F3338220EA0C
:102A9000E073013303F5AC7331226B4403F8342C3B
:102AA00099F81430C3B1D9F8183027224FF4FA70CE
:102AB0000021C3FB02014FF47A720023FDF71CFED4
:102AC000272800F3198220EAE073013303F5AC7381
:102AD00032226B4403F8342C6B4F49A96B484FF0FA
:102AE000010802F0A3F93B780AF11105002B00F070
:102AF000B280BB68002B40F3E1801801644A323099
:102B0000A2FB002040091028A8BF10205B228DF8EE
:102B1000AC200DF1AD02A1188142ACBF20212321D0
:102B200002F8011B9542F6D15D22CDF800A0414686
:102B300058488DF8BD2000228DF8BE207A6802F03A
:102B400075F9B8F1020F07F114077ED1B7EE007ADC
:102B5000DFED516AF6EE007A37EE499AE9EE267A11
:102B6000FDEEE77A17EE903A17EE901A642BA8BFA5
:102B70006421002B21EAE17140F3A2800A01444B59
:102B80003232A3FB023252095B238DF8AC30331989
:102B90009A42D4BF2023232306F8013BB542F6D145
:102BA0005D2352463D488DF8BD3000238DF8BE3080
:102BB00002F03CF93A4BF2EE044A9FED375AD3ED5E
:102BC000006A384BFDEEE66A93ED006A244B16EE80
:102BD000901AFDEEC66AD3ED005A224B65EEA45A58
:102BE00016EE902AD3ED007A2F4BFDEEE56A93EDB9
:102BF000007A67EE857A16EE900A27EE057AFDEEEA
:102C0000E77A0028BDEEC77A6EDB284BC51783FB39
:102C10000043C5EBA3052B2305EB8504A0EB44047F
:102C20008DED037ACDED027A2148079ECDE900545F
:102C300002F0FCF81F4802F0F9F83C2004F0D8F943
:102C4000D9E42023F2E60020CEE63B784FF00208DC
:102C5000002B7FF44EAF4146174802F0E7F870E7CB
:102C6000FC060024EC060024F806002404000024DE
:102C7000D4740108547B0108D4720108F072010871
:102C800004730108287301088C0600243C730108B2
:102C90001F85EB51487301080000C8429873010872
:102CA000340000242C0000240007002467666666B8
:102CB000B4730108F073010868730108002025E768
:102CC000002261E70C9B834240F25883A0F5FA5042
:102CD00007EE900AB8EEE79A29EE2B9A984B83ED0F
:102CE000009A00230B93A2E44342964CA4FB0354A6
:102CF000E40804EB8404A3EB4404934B83FB0053EC
:102D0000C017A0EBA3052D238AE704F06FF9089BF9
:102D1000C01AB0F5FA6F80F0688404F067F9099B77
:102D2000C01A41F2873398427FF6E7AC00220DEEDD
:102D3000105A144604F05AF9079608972646CDF81B
:102D4000248007462546DDF82880059404F04EF9D6
:102D50007E4BC41BDFED7E6A9FED7E7AF7EE008A24
:102D6000A3FB042342F6E0621B0A02FB134307EEB7
:102D7000903AF8EEE77A87EEA60A20EE070A12F0FC
:102D800087FBF6EE007A38EEC00AB6EE006AB7EEC0
:102D9000007A60EE277AF0EE006A37EEA78A77EEC7
:102DA000C67A78EEC88AF0EEE77A38EE478AB7EE50
:102DB000007AF5EEC08AA7EEE67AF1EE10FAB5EEEB
:102DC000C08A48BFDFED648AF1EE10FAB5EEC07A32
:102DD00048BF9FED618AF1EE10FA67D4B5EE407AF4
:102DE000F1EE10FA00F1C184B1EEC70AB5EE400A67
:102DF000F1EE10FA00F1BF84B1EEC0CAF5EE408AE0
:102E0000F1EE10FA00F1BD84B1EEE80AB5EE400A29
:102E1000F1EE10FA00F1BB84F1EEC08AB5EE408A03
:102E2000F1EE10FA00F1B984B1EEC80AB5EE400A2D
:102E3000F1EE10FA00F1B784B1EEC07ADFED47CAC7
:102E400000219FED478A47486CEE2C7A27EE088ACE
:102E5000FCEEE77A17EE903A9AB202F051FD68EE76
:102E6000AC7A01213F48FCEEE77A17EE903A9AB22D
:102E700002F046FD3C4B83ED008AD6B125A8FFF752
:102E8000D1F825A84246002132F8023B30F8024B27
:102E90001B1B9942B8BF19461FAB9342F4D10929B5
:102EA00000F3B3830A2004F0A3F84FE79FED2A7ADA
:102EB0009AE731462D4802F0D9FA059BB4F5FA6F2E
:102EC00005F1010503440593D8D342F23412B7EE5D
:102ED000007A0126B3FBF5F39BB2934238BF134649
:102EE0000C93A3F5FA5307EE903AF8EEE77AC7EEA3
:102EF00027BAC3E72823CDE52823E7E50C2B4FF0BD
:102F00000001A8BF0C24002B09DB194A0B4692F8DC
:102F10007C000133803200B90131A342F7DD144B4C
:102F2000002293F87C00803300B9013211489842A6
:102F3000F7D1069B10485B5901F078FF3CE500BFD4
:102F400028000024CDCCCCCC67666666F1197605E6
:102F500000803B46DB0FC9400000000000F07F45C9
:102F6000CDCCCC3D24070024F40600241C0700240B
:102F7000D4740108547B0108A472010800007A444B
:102F80000000C842006F313F9FCD2A3D68B32A3E02
:102F900077BE7F3F00A08C469A99193FCDCCCC3E9E
:102FA000CDCC4C3FD9ED017A1FED0C7AF8EEE77AE3
:102FB000C7EE87CAF5EEC0CAF1EE10FA00F1B18192
:102FC000B7EE007AF4EEC7CAF1EE10FA37FE2C7AAB
:102FD000D9ED027A5FED166AF8EEE77A87EEA6DAA7
:102FE000B5EEC0DAF1EE10FA00F12B82B7EE008AEE
:102FF000B4EEC8DAF1EE10FA38FE0D8A069AF6EE53
:10300000006A1FED1E6AF7EE007A02EBC512ED01B1
:10301000D2ED035A92ED01CA27EE257AD2ED028A4B
:10302000E7EE066AB0EE676AA6EE876AE6EE077A12
:103030006CEE277AB4EEE7CAF1EE10FA00F3AF8136
:10304000F4EE687AF1EE10FA78FEA77A0C2B4BFEBC
:10305000277AB4EEE7CAF1EE10FA40F3A581B5EE97
:10306000C08AF0EE4C8AF1EE10FA00F1AA81F7EE78
:10307000007AB4EEE78AF1EE10FA0FDCB1EE086ADE
:10308000FAEE0E6AB2EE047A68EE087AE8EE066AA4
:1030900067EE887AA8EE267A67EE877A069BF6EEC8
:1030A000006A5FED484AB7EE007A2B441FED4A5A9A
:1030B0001FED4A6A93ED114A5FED4B5A67EE847A31
:1030C000D3ED150AF4EEE50A67EEA47AF1EE10FAF4
:1030D000A7EE856AE6EE276AB0EE476AA6EEA76A13
:1030E000A6EE277AF0EE47DAC0F26C82F0EE687A4C
:1030F000069BF3EE046A2B4493ED106A67EE867A22
:1031000067EEAD7AF4EEE67AF1EE10FA00F1448162
:103110001FED607AF4EE477AF1EE10FA77FE277A27
:103120001FED637A1FED636A38EE477AC7EE066AD1
:10313000F5EEC06AF1EE10FA00F12381B7EE007AE5
:10314000F4EEC76AF1EE10FA00F38982B0EE005A8D
:103150005FED6D5AB0EE087A26EEA66AA6EEC57A45
:1031600026EE076A26EE256AB5EEC08AF1EE10FA61
:1031700000F10F81F7EE006AB4EEE68AF1EE10FA84
:1031800009DCF0EE005AB0EE087A68EE086AA8EEA4
:10319000657A66EE876ABE4BB7EE007AF5EEC0CA76
:1031A000BC4AC3ED008ABC4BF1EE10FAC3ED007AC5
:1031B000F0EE477AB94B83ED006A069B2B4493ED02
:1031C000136AB74BE6EE267AC3ED007A4FF001039F
:1031D0001370B44BB44A136040F1FA80B5EEC0DA14
:1031E000F1EE10FA40F13E82F0EE478A9FEDAFCA51
:1031F000F6EE08DADFEDAD6AB1EEE60AB5EE400AAA
:10320000F1EE10FA00F10383F1EEC07AF5EE408A98
:1032100027EEAD8AF1EE10FA00F1F482B1EEE80A81
:10322000B5EE400AF1EE10FA00F1E782F1EEC07A55
:10323000B5EE40CA6DEEA78AF1EE10FA00F1D88221
:10324000B1EECC0AB5EE400AF1EE10FA00F1CB82F5
:10325000F1EEC07A9FED967A6DEEA77A67EE877AE7
:10326000002C00F0B681F0EE679AF0EE68AAB0EE9E
:1032700048AAFFF77EBA03F0B9FE8E4B1B680C2BF1
:103280007FF44EAA079A002A00F0A982D9ED017AAC
:103290009FED897AF8EEE77AC7EE87CAF5EEC0CAE5
:1032A000F1EE10FA00F1F581F7EE007AF4EEE7CADC
:1032B000F1EE10FA00F31882F1EE007A7F498048AF
:1032C0006CEEA77ABDEEE77A17EE102A032AA8BFA4
:1032D000032207EE102A51F82210B8EEC77A77EED3
:1032E000C77AB0EE677ABEEECF7A17EE102A032ABD
:1032F000A8BF032200EB820292ED00BA714AF5EEFC
:10330000C0CA0698116011461268F1EE10FA0D68F5
:1033100000EBC212079CD2ED017A2BEE27BA7FF5A3
:103320004FAE9FED627A53E603F060FEFFF7EFB910
:10333000F1EE085A9FED644AFAEE0E4ADFED633A69
:10334000B2EE045A67EE077AE7EE254A37EE444AB2
:1033500067EE877AC4EE235AA7EE245A67EE857A81
:10336000F5EEC07AF1EE10FA40F18880DFED4F7A89
:10337000FFF77BBA9FED4D7AFFF7AFBAB7EE009A31
:10338000ACE4B5EEC08A9FED496AF1EE10FA7FF524
:10339000F1AEDFED466AFEE6F0EE667AC0E60C2B93
:1033A00000F07481F0EE4C7AF4EEE78AF1EE10FA58
:1033B000B5EEC08A58BFF0EE678AF1EE10FA7FF5DD
:1033C00056AEDFED3A7A69E6DFED387AFFF727BAD5
:1033D000F4EEC7CAF1EE10FAB5EEC0DA00F33781A9
:1033E000F1EE10FA40F16281F6EE007AB0EE006A7A
:1033F000BFEE00CAF6EE08DA7CEEE77AF0EE478A16
:10340000ACEE86CAF0EEE77AECEEC68AA7EEC67A94
:10341000F0EE476AF5EEC08AF1EE10FAB5EEC0CADA
:1034200048BFDFED228AF1EE10FAF5EEC06A48BF20
:103430009FED1ECAF1EE10FA40F17281DFED1B6ABA
:10344000DAE69FED1A8AD9E5BFEE086AFFF7CFB931
:1034500026EE056AFFF72ABAF7EE007AF4EEE76A7D
:10346000F1EE10FA40F3A581DFED176A9FED175AD0
:1034700077EE666AC6EE855AFFF7F7B9F4EEE67A9C
:10348000F1EE10FA7FF7CDA9F0EE667AFFF7EDB90D
:1034900034000024F00600242C000024000700243F
:1034A00030000024EC51383FE80600240000000002
:1034B000CDCCCC3D0400002400007A448474010883
:1034C00094740108100000249A99593F9A99193E62
:1034D000089B0D9A9B1A002BC0F20281CE4B069DD1
:1034E0001C68611C04F10E00CC4ACB1782FB0172F0
:1034F000C3EBA20303EB430203EB8203CB1A0131BC
:1035000005EBC31292F87C20002A00F0F18088427B
:10351000EAD1C14B1C601B680C2B1846A8BF0C20BD
:10352000002BC0F2FB800023BD4A1C4692F87C10A1
:103530000133803201B901348342F7DDB84B0022F8
:1035400093F87C10803301B90132B6499942F7D122
:10355000B14B06991B68B448DB01CB58214601F0FA
:1035600065FC24B3002540F6FF720021AF48013509
:1035700002F0C6F940F6FF720121AC4802F0C0F932
:10358000AB4FAC4B6E203B6003F032FD0022A748EE
:10359000114602F0B5F900220121A44802F0B0F969
:1035A00000238C203B6003F023FDA542DBD103F018
:1035B0001DFD00F5FA639FEDA09A0D93089B0993FA
:1035C000FFF735B888EE8C0A12F06AF96CEE007AD3
:1035D0008EE59FED9A6ADFED9A5A28EE067A68EE3C
:1035E000866A67EE867AFFF7B6B800230A9889F8EC
:1035F000143089F80030FEF72FFD924801F016FCD8
:1036000003F0F4FC0890FFF788BB00228748079E70
:103610001DEE105A1146DDE9087802F071F901211A
:103620000022824802F06CF90023814A136003F003
:10363000DDFC099003F0DAFC0C990890824801F057
:10364000F5FBFFF75AB8B7EE086AFFF7D0B8F1EE0E
:1036500010FA39D5B0EE47CADFED778AC8E59FED9D
:103660007B6A81E5B4EEC7DAF1EE10FA15DCBFEE45
:1036700000CADFED716AF0EE478AB5EE007AF6EE29
:10368000087AEDEE077AF0EE67DAC3E6F0EE4B7AF1
:10369000DFE4B7EE00BA092130E6F0EE478A9FED8D
:1036A00066CAF7EE00DADFED646AA5E5B4EEC7DAC4
:1036B000F6EE007AB0EE006AF1EE10FABFEE00CA44
:1036C0001DDDF0EE47DA97E6B4EEC7DAF1EE10FA58
:1036D00010DCFFEE008ADFED586AB0EE47CACCE797
:1036E000089B0993FEF7A3BFB0EE00BA0B2105E6D5
:1036F0001C460EE7B0EE47CADFED4F8AD1E77CEEFD
:10370000E77AF0EE478AACEE86CAF0EEE77AECEEA6
:10371000C68AA7EEC67AF0EE476AAEE700240DE748
:10372000F5EE406AF1EE10FA7FF566ADB0EE660A8E
:1037300012F04AFA62E5464801F078FBFEF739BF1D
:103740001C464FF496700A9303F052FC2046FEF795
:1037500083FCFEF770BE4DF2D863DFED3EBA0C93EA
:10376000FEF7C4BE0021FEF7FEBEB0EE470A12F01F
:103770002BFAFFF73BBB12F027FAB0EE40CAFFF777
:103780003DBBB0EE680A12F01FFAFFF73FBB12F024
:103790001BFAF0EE408AFFF741BBB0EE480A12F088
:1037A00013FAFFF743BB12F00FFAB0EE407AFFF7BF
:1037B00045BBE6EE845ADFED283A66EEA67A9FED29
:1037C000273A37EE634A67EEA67AF0EE654AC4EE12
:1037D000035AA6EEA45A67EE857AFFF746B8204B47
:1037E0001D68FEF7A7BF12F0EFF9F0EE407A31E561
:1037F000B0EE4C0A12F0E8F924E512F0E5F9F0EE2B
:10380000407A15E5B0EE680A12F0DEF908E512F02C
:10381000DBF9F0EE407AF9E4040000244FECC44EEA
:10382000D4740108547B010868720108240700243D
:10383000F4060024CDCCCC3D00000000CDCC0C3FE4
:103840006666E63E7C7201088C720108CDCC4C3F66
:10385000E4710108247BB2379A99593F9A99193E2D
:103860001000002410B50E4800240E4A0E490460D2
:1038700044610462C46311F003FE0C494FF60B70FF
:103880000B4A0C4B0860CC60C1E90144C2E900045A
:10389000C2E90244C3E90004C3E9024410BD00BF09
:1038A0000407002400000024E50A00086C07002437
:1038B0005807002444070024143001F009BA00BF5F
:1038C000143001F001BA00BF38B500F11405044608
:1038D0002DED028B284601F0E9F9284601F0F4F9B4
:1038E0002846B0EE408A01F0DDF9D0ED007AF8EE1E
:1038F000677A88EE277ABDEC028B84ED0E7A38BDAC
:1039000010B540F203338EB000244FF60B7240F234
:103910000341ADF8083009A80123ADF81020ADF837
:1039200024202246ADF80C100094029907940C94C0
:10393000CDE90544CDE90A4402F01AF804A80123B0
:1039400022460399009402F013F809A802F0F6F851
:1039500010B901200EB010BD04A802F0EFF8A0428B
:103960000CBF022020460EB010BD00BF2DE9F04173
:1039700003239AB0012700240646CDE914373B4BB8
:10398000CDE9104340F20453CDE91647ADF8483075
:10399000FFF7B6FFB842054625D0022845D040F6CD
:1039A0000132334B0DF12C081894ADF82C200B98F4
:1039B0001997CDF84A3000F0E3F810A906F13C0061
:1039C00003F0F6F8302003224FF07E5341460D936A
:1039D0000E93CDE90B02F26B06F1140001F02AF907
:1039E0001AB0BDE8F0811023214A06A906908DF88F
:1039F00028300DF12C081F4BCDF84A200793029474
:103A0000CDE91804CDE9080402A802F009FB082357
:103A1000029A03A94046ADF80C508DF80E4004956B
:103A200005930B9400F0ECF8C7E700200121104B40
:103A30000DF12C083A460094CDF84A304FF60B733E
:103A40000C94ADF82C302346CDE9180140F6013135
:103A50004046ADF818100699CDE90D4401F088FFF5
:103A60002146404602F076F8A7E700BF04020404AE
:103A7000040604030704010B2DE9F04704462DED6D
:103A8000028B82B000294DD0012140F201120023A7
:103A90000091ADF804208DF80630364A0127364BE8
:103AA00004F10409354904F12908626040F2027208
:103AB000A36040F60663E16004F1250AA4F825201E
:103AC000A4F82930278284F8277084F82B7003F03B
:103AD00033FC054603F094FA6946064650BB4DB3E5
:103AE00004F130008DF8067003F0ACFB072D3CD1DB
:103AF00004F114052046FFF739FF284601F0E4F8E9
:103B00002846B0EE408A01F0CDF8D0ED007AF8EE0C
:103B1000677A88EE277A84ED0E7A02B0BDEC028BCC
:103B2000BDE8F08740F2011300918DF80610ADF862
:103B30000430B2E704F1300003F084FB072D11D00C
:103B40004946204602F0B4FC0EB9002DD0D15046B3
:103B500002F00AF8404602F007F804F1120000F003
:103B600079F9C5E7002EF2D1C2E74946204602F0B6
:103B70009FFCBDE70508050905070506050A0606B9
:103B800010B584B003460124ADF8040003A8ADF8D5
:103B90000C30ADF80E4001F0E7FF214603A802F01B
:103BA000BFF8204603F024FA002103A802F0B8F879
:103BB000204603F01DFA214603A802F0B1F804B034
:103BC00010BD00BF10B5C2F3002384B00C46017CC9
:103BD0008DF80D2043EA4402FA2402238DF80C20CC
:103BE00003AA009402F0B2FA18B10124204604B0EE
:103BF00010BD04460A2003F0FBF9204604B010BDB6
:103C0000034670B543F8042B044684B007C983E823
:103C10000700A37983B91A210B461E22FA252374C3
:103C20002046ADF80C20022303AA009502F08EFA7C
:103C300028B1012004B070BD1B210B46EDE70A201E
:103C400003F0D6F94FF4B85200950223ADF80C20DA
:103C5000204603AA217C02F079FA0028E9D10A2043
:103C600003F0C6F941F2027200950223ADF80C2070
:103C7000204603AA217C02F069FA0028D9D10A2043
:103C800003F0B6F9042200950223ADF80C2020467B
:103C900003AA217C02F05AFA0028CAD10A2003F0B4
:103CA000A7F9062200950223ADF80C20204603AAAE
:103CB000217C02F04BFA0028BBD10A2003F098F9CE
:103CC00041F2082200950223ADF80C20204603AAF9
:103CD000217C02F03BFA0028ABD10A20064603F013
:103CE00087F90095022303AA217C2046ADF80C60D9
:103CF00002F02CFA00289CD1304603F079F90095A7
:103D000022790C232046002A8DF80C3003AA4FF0AC
:103D1000020314BF622142218DF80D10217C02F0B4
:103D200015FA002885D1304603F062F92279D4E9EA
:103D300002310B43DBB20AB943F0400362790AB1A6
:103D400043F020030E22FA258DF80D302046009511
:103D500002238DF80C2003AA217C02F0F7F9002839
:103D60007FF467AF0A2003F043F910220095022385
:103D7000ADF80C20204603AA217C02F0E7F90028C8
:103D80007FF457AF0A2003F033F912210095022384
:103D9000ADF80C1003AA217C204602F0D7F90028C8
:103DA0007FF447AF0A2003F023F9012209212046BE
:103DB000FFF708FF003818BF01203BE7F0B51023DC
:103DC00087B0234C012200250126002702A92046A6
:103DD0000195CDE902234FF48052CDE904670AF042
:103DE00067FE642004F0E6F802A94FF480522046F2
:103DF000CDE9046702261027CDE902670AF058FED4
:103E00000322102302A92046CDE902230023042225
:103E1000CDE904234FF480520AF04AFE40F23223E7
:103E2000042202A9019310232046CDE90223019A1E
:103E3000012305924FF4805204930AF039FE40F6B4
:103E4000060120460AF054FE284607B0F0BD00BF28
:103E5000880700241C4B00221C494FF0400C30B551
:103E6000054689B00220596007219A601A62012430
:103E7000DA620A224FF4006EDC6006922022CDE95D
:103E8000000104200821CDE9020103201021CDE921
:103E9000040108206946C3E904024FF4C072181DEA
:103EA000C3E906C24FF48052C3E909E20AF0D6FD25
:103EB00038B92846FFF782FF003818BF012009B043
:103EC00030BD204609B030BD840700244041005277
:103ED000614A0021D0B513688EB00A91002B40F0E2
:103EE000B9805E4B01214FF683700C2411600221D2
:103EF000D3F8D4200026032742F48052C3F8D420FC
:103F0000D3F8D42002F480520092009AD3F8E02033
:103F100042F01002C3F8E020D3F8E02002F01002D3
:103F20000192019AD3F8E02042F04002C3F8E02069
:103F3000D3F8E02002F040020292029AD3F8E02087
:103F400042F00802C3F8E020D3F8E02002F00802B3
:103F50000392039AD3F8E02042F48072C3F8E02081
:103F6000D3F8E02002F480720492049AD3F8E0209F
:103F700042F08002C3F8E020D3F8E02002F0800293
:103F80000592059AD3F8E02042F02002C3F8E02021
:103F9000D3F8E02002F020020692069AD3F8E0203F
:103FA00042F00402C3F8E020D3F8E0300C9403F0B0
:103FB000040307930323079A0B93CDE9080108A98B
:103FC000274805F0A9FF48F23712022308A925481F
:103FD0000C94CDE90823CDE90A6705F09DFF4CF26A
:103FE0000372022308A920480C94CDE90823CDE9E7
:103FF0000A6705F091FF40F2FF62022308A91B48FF
:104000000C94CDE90823CDE90A6705F085FF4FF64A
:104010000C72022308A916480C94CDE90823CDE9B7
:104020000A6705F079FF4FF63F02022308A91148FD
:104030000C94CDE90823CDE90A6705F06DFF202235
:10404000022308A90A480C94CDE90A67CDE90823A0
:1040500005F062FF0EB0D0BD800700240044025876
:104060000010025800180258000C02580020025894
:10407000001C0258001402582DE9F04FDFF810849C
:1040800006460D46144608F118002DED028B89B046
:1040900000AF02F085FED8F8183073B3D8F81C30A2
:1040A000D8F80490002B43690BBF4FF0080A4FF07B
:1040B000100A4FF0020B4FF0040BB9F1000F2AD099
:1040C000A200EA46012B02F1070222F00702ADEB43
:1040D000020D6846ADEB020D694600F03F81022BF0
:1040E00000F0D680002B6FD02246C847D546243733
:1040F000BD46BDEC028BBDE8F08FD8F81C30002B1C
:10410000F5D0D8F804904FF0080A4FF0020B43693D
:10411000B9F1000FD4D1FB61D8F80030BB61002B9E
:10412000E5D0D54802F0AEFE6B46BBF1020F7861D8
:1041300008EE103AFB6900F083816A465146A2EB13
:10414000C40295466200EA46B2FBFBF2AAEBC40049
:1041500085460AEB8200EE46F861ADEB010DF86989
:104160000EEB820CC7F810C0EC46ADEB010D00EB76
:104170008201CCF80400CCF8081001EB8201386908
:10418000E946CCF80C1000EB8201CCF800A001EB62
:104190008202C9E900E0C9E90212012B00F0648340
:1041A000022B00F06C82002B00F0808162084946EF
:1041B0006046BB69984718EE103A24379D46BD46C5
:1041C000BDEC028BBDE8F08F002C8DD01A46D8EDE7
:1041D0000C6A9FEDB27A8446331D36F922E00CF169
:1041E000080C07EE90EA33F922E00232F8EEE77AA3
:1041F000944267EE877A67EEA67A4CED027A07EE74
:1042000090EAF8EEE77A67EE877A67EEA67A4CEDE9
:10421000017AE2D8F9612246C847984ED8ED0D6A76
:104220000020F9692B1D9FED9E7A9FED9E6ADFEDC0
:104230009E5A22E0F4EEC67AF1EE10FAC0F2C8847B
:1042400047F6FE72D1ED017A45F8202066EEA77A96
:10425000F4EEC77AF1EE10FA40F2F080F4EEC67A8E
:10426000F1EE10FAC0F2D58447F6FE7243F8202032
:104270000230083184427FF639AFD1ED007A66EE24
:10428000A77AF4EEC77AF1EE10FAD3D83246D9E71E
:10429000002C3FF429AFD8ED0C6A84469FED787A64
:1042A0000022331D8E4656F822100CF1080C07EE42
:1042B000901A53F822100232F8EEE77A944267EE31
:1042C000877A67EEA67A4CED027A07EE901AF8EE3E
:1042D000E77A67EE877A67EEA67A4CED017AE2D844
:1042E00071462246C7F81CE0C847664ED8ED0D6AF5
:1042F0000020F9692B1D9FED6A7A9FED6A6ADFF84D
:1043000094C120E0F4EEC67AF1EE10FAC0F279849E
:104310003246D1ED017A45F8202066EEA77AF4EE18
:10432000C77AF1EE10FA40F28780F4EEC67AF1EE29
:1043300010FAC0F25E84324643F820200230083181
:1043400084427FF6D3AED1ED007A66EEA77AF4EE22
:10435000C77AF1EE10FAD5D86246DAE7002C3FF4BE
:10436000C3AED8ED0C6A86469FED477A4FF0000C3D
:10437000331D56F82C200EF1080E82F40002A2F52F
:10438000000207EE902A53F82C200CF1020CF8EEF4
:10439000E77A82F400026445A2F5000267EE877AAC
:1043A00067EEA67A4EED027A07EE902AF8EEE77AEB
:1043B00067EE877A67EEA67A4EED017AD9D8F96171
:1043C0002246C847314ED8ED0D6A0020F9692B1DF1
:1043D0009FED337A9FED336ADFF8BCC01FE0F4EE47
:1043E000C67AF1EE10FAC0F2FC833246D1ED017AC2
:1043F00045F8202066EEA77AF4EEC77AF1EE10FABF
:1044000018D9F4EEC67AF1EE10FAC0F2DA83324629
:1044100043F820200230083184427FF667AED1EDA8
:10442000007A66EEA77AF4EEC77AF1EE10FAD6D8E3
:104430006246DBE76246EBE762467DE7324615E718
:10444000A100D6466208073121F00701ADEB010D4E
:10445000EA46ADEB010D6946ADEB0E0D0AEB8200AD
:10446000EC46ADEB0E0D01EB8202F861E946CCE9BA
:1044700000A0C9E9001290E6D80700240280FFFFDF
:10448000000000300082FF7F0000003482FF7F00C8
:10449000BC070024007E00807E0080FF0000003802
:1044A00004FF7FBF04FF7F3F00FEFF46002C00F0AB
:1044B000C982BBF1020FD8F8242000F0FA82796992
:1044C000C7F8049002EB810E5FED0C5A8A00DCF80D
:1044D00008100EF104007A611A46DCF80C303B61DA
:1044E000331DD7F810903D61FD69C7E902CB8C46BA
:1044F000834636F92210D8ED0C7A06EE101A33F9FD
:10450000221006EE901A3EF92210B8EEC66A07EEA7
:10451000101AF8EEE66A3BF92210B8EEC77A26EEDA
:10452000256A66EEA56A27EE257A26EE276A66EEEC
:10453000A76A27EE277A07EE901A51080232F8EEA2
:10454000E77A0AEB8100944280ED006A05EB810076
:1045500067EEA57AC0ED006A0CEB810009EB8101E2
:1045600080ED007A98ED0C7A67EE877AC1ED007ADB
:10457000BFD8D7F804903D69D7E902CB60466208FE
:10458000BB6949469847D8F82C307A69D8ED0D6A4E
:104590001A441FED3D7A1FED3D6A2B1D904602F136
:1045A000040A5FED3F5A0022A84ED9E900EC51E021
:1045B000F4EEC67AF1EE10FAC0F2C78247F6FE704A
:1045C00045F822000CEB0100D0ED007A66EEA77AE8
:1045D000F4EEC77AF1EE10FA4BD9F4EEC67AF1EEAA
:1045E00010FAC0F2BA8247F6FE70BBF1020F43F830
:1045F00022002BD0D9F808000844D0ED007A66EEEE
:10460000A77AF4EEC77AF1EE10FA36D9F4EEC67A4C
:10461000F1EE10FAC0F2CD8247F6FE7048F82200A3
:10462000D9F80C000144D1ED007A66EEA77AF4EED9
:10463000C77AF1EE10FA1ED9F4EEC67AF1EE10FA4E
:10464000C0F2AF8247F6FE714AF82210023294425D
:104650007FF6B1AD51080EEB81008900D0ED007AF4
:1046600066EEA77AF4EEC77AF1EE10FAA0D83046DB
:10467000A6E73046B9E73146E6E73046CEE7002CFC
:1046800000F0E081BBF1020FD8F8243000F0E181A6
:104690007A69DCF8081003EB820EC7F804909300E7
:1046A000DFED6B5A0EF1040000227B61DCF80C3068
:1046B0003B61331DD7F810903D61FD69C7E902CB1E
:1046C0008C46834656F82210D8ED0C7A07EE101A65
:1046D00053F82210B8EEC76A07EE101A5EF82210DF
:1046E000F8EEC76A07EE101A26EE256A5BF822106C
:1046F000B8EEC77A66EEA56A26EE276A27EE257A17
:1047000066EEA76A27EE277A07EE901A5108023262
:10471000F8EEE77A0AEB8100944280ED006A05EB3F
:10472000810067EEA57AC0ED006A0CEB810009EB11
:10473000810180ED007A98ED0C7A67EE877AC1ED01
:10474000007ABFD8D7F804903D69D7E902CB60461C
:104750006208BB6949469847D8F82C307A69D8ED89
:104760000D6A1A449FED3E7A9FED3E6A131D9246F4
:10477000DFF8E4C00022FB612B1D364ED9E9008E24
:104780004EE0F4EEC67AF1EE10FAC0F2FC8130464B
:1047900045F822000EEB0100D0ED007A66EEA77A14
:1047A000F4EEC77AF1EE10FA49D9F4EEC67AF1EEDA
:1047B00010FAC0F2EF813046BBF1020F43F822003D
:1047C0002AD0D9F808000844D0ED007A66EEA77A1E
:1047D000F4EEC77AF1EE10FA35D9F4EEC67AF1EEBE
:1047E00010FAC0F2C98130464AF82200D9F80C000C
:1047F0000144D1ED007A66EEA77AF4EEC77AF1EEC5
:1048000010FA1ED9F4EEC67AF1EE10FAC0F2AD81BC
:104810003146F86940F82210023294427FF6CBAC60
:10482000510808EB81008900D0ED007A66EEA77A86
:10483000F4EEC77AF1EE10FAA3D86046A8E7604616
:10484000BAE76146E5E76046CEE700BF0280FFFFBA
:10485000000000300082FF7F007E008000000034F6
:1048600004FF7FBF04FF7F3F002C00F0EB807A69DC
:104870000021D8F82430C7F8109003EB820ED7F847
:104880001C909300FD610EF104021FED0C6A7B6128
:10489000331D154656F821204808D8ED0C6ABBF1A7
:1048A000020F82F40002A2F5000207EE902A53F8EC
:1048B000212082F40002B8EEE77AA2F5000227EE8A
:1048C000067A07EE902A0AEB8002F8EEE77A27EEE6
:1048D000267A67EE867A82ED007A09EB80024FEA4B
:1048E000800067EEA67AC2ED007A27D05EF821201C
:1048F00082F40002A2F5000207EE902A55F821206A
:1049000082F40002B8EEE77AA2F5000227EE067AFA
:1049100007EE902ADCF80820F8EEE77A024427EE4A
:10492000267A67EE867A82ED007A98ED0C7ADCF8CA
:104930000C2067EE877A0244C2ED007A02318C4285
:10494000A8D8D7F8109060466208BB694946FD694F
:104950009847D8F82C307A69D8ED0D6A1A441FEDC3
:10496000407A1FED406A131D9246DFF8C4C2002250
:10497000FB612B1DAB4ED9E9008E4EE0F4EEC67AFA
:10498000F1EE10FAC0F2C580304645F822000EEB79
:104990000100D0ED007A66EEA77AF4EEC77AF1EE68
:1049A00010FA49D9F4EEC67AF1EE10FAC0F2BF80DF
:1049B0003046BBF1020F43F822002AD0D9F8080094
:1049C0000844D0ED007A66EEA77AF4EEC77AF1EEED
:1049D00010FA35D9F4EEC67AF1EE10FAC0F2AE80D4
:1049E00030464AF82200D9F80C000144D1ED007A93
:1049F00066EEA77AF4EEC77AF1EE10FA1ED9F4EE5D
:104A0000C67AF1EE10FAC0F28B803146F86940F8B0
:104A10002210023294427FF6CEAB510808EB81009F
:104A20008900D0ED007A66EEA77AF4EEC77AF1EE4F
:104A300010FAA3D86046A8E76046BAE76146E5E702
:104A40006046CEE7224649466046BB699847FFF775
:104A5000B2BBC7F810B0002298ED0C6A331DDFED31
:104A6000726AD7F81CB0786956F8221007EE901ACF
:104A700053F82210B8EEE77A07EE901A5108023286
:104A8000F8EEE77A27EE267A0AEB810E94420BEBDA
:104A9000810167EEA67A27EE067A67EE867A8EEDBA
:104AA000007AC1ED007ADFD88300D7F810B07B61BF
:104AB0004DE61A46C7F810B098ED0C6A331DDFEDCD
:104AC0005B6AD7F81CB0786936F9221007EE101A25
:104AD00033F9221007EE901AB8EEC77A5108023265
:104AE000F8EEE77A27EE267A0AEB810E94420BEB7A
:104AF000810167EEA67A27EE067A67EE867A8EED5A
:104B0000007AC1ED007ADFD88300D7F810B07B615E
:104B100034E5F0EE675AFEEEE45A15EE900A34E7FB
:104B2000F0EE675AFEEEE45A15EE901A6EE7F0EEDC
:104B3000675AFEEEE45A15EE900A3AE7F0EE675A2D
:104B4000FEEEE45A15EE900A4BE767EEA57AFDEE0D
:104B5000E77A17EE900A00B232E567EEA57AFDEE2D
:104B6000E77A17EE900A00B23FE5F0EE675AFEEEE4
:104B7000E05A15EE901A4CE6F0EE675AFEEEE05A57
:104B800015EE900A30E6F0EE675AFEEEE05A15EEAA
:104B9000900AFDE5F0EE675AFEEEE05A15EE900A37
:104BA0000AE667EEA57AFDEEE77A17EE901A09B2EB
:104BB0004AE567EEA57AFDEEE77A17EE900A00B2B5
:104BC0002CE5F0EE675AFEEEE45A15EE902A1FE44B
:104BD00067EEA57AFDEEE77A17EE902A12B2FFF79C
:104BE00031BBF0EE675AFEEEE45A15EE902AFFF75D
:104BF000FDBBF0EE675AFEEEE05A15EE902AFFF785
:104C00009BBBF0EE675AFEEEE05A15EE902AFFF7D6
:104C100080BB67EEA57AFDEEE77A17EE902A12B216
:104C2000FFF724BB82FF7F00000000300000003847
:104C30007E0080FF30B5184C154685B0046004F145
:104C4000080EEC460FC98EE80F00D4ED047AF5EE9D
:104C5000C07A8CE80F00F1EE10FA1ADDB7EE006AA8
:104C600094ED057A27EE277AC6EE276A84ED0D7A51
:104C7000C4ED0C6A6DB1204640F8185F02F090F860
:104C8000064903690020064A2162A262E36005B07A
:104C900030BD012005B030BDBC070024002000302D
:104CA0000000003000680830704700BFB1F5807F19
:104CB00003680A4628BF4FF48072B1F5807F9A607E
:104CC00094BF0020012070470068183002F0C8B877
:104CD00030B5046883B00D46E3694BB1A36800208A
:104CE000E26A616A9B00009004F11C0002F05AF82D
:104CF000A3680748A26A9B00216A009004F118008B
:104D000002F050F80020C4E9005003B030BD00BFED
:104D10007940000810B4074B4FF07E513024002238
:104D2000032019619C60D8605DF8044B5961C3E9A8
:104D300006227047BC070024704700BFF8B5134F28
:104D40003C687F2C07D98023114A42F224411C463B
:104D50003B60A2F87E100F4D2B68012B0AD90C4E38
:104D60000D4D22463146284600F02CF90028F8D196
:104D70003860F8BD22460649074800F023F90028AC
:104D8000F7D12B68386001332B60F8BDF807002499
:104D9000FC070024F40700247C08002430B4154CE0
:104DA0002168F1B14B1E144DE81810F801298C460A
:104DB00019460A2A01D00D2A02D14BB1013BF4E772
:104DC0000CF102037F2B10D98023236030BC704785
:104DD0000122022323600D200A236854AB5430BC07
:104DE000704701220223044DF4E70CF101026146F1
:104DF000F0E700BFF8070024FC07002410B5094CB9
:104E000002460B46084821680844C1F1800111F0B0
:104E1000BFF8236818442060FFF7C0FFFFF78EFF3C
:104E200010BD00BFF8070024FC0700240FB400B534
:104E300083B004A951F8040B0191FFF7DFFF03B021
:104E40005DF804EB04B0704710B5044600210A4831
:104E500000F032F8002C094B14BF0222002208484F
:104E60001A60FFF7E3FF0748FFF7E0FF0A20BDE8FD
:104E7000104002F0BDB800BF7C080024F4070024F5
:104E8000607B0108707B0108064A0749074808B59E
:104E900010F0F6FA034A04490548BDE8084010F04E
:104EA000EFBA00BF00000024394D00087C08002440
:104EB00080080024704700BF012910B506D00229E0
:104EC00015D051B1BDE8104006F008BF0A4634487D
:104ED00034490BF023FBE8B1FEE7334B0A46334C71
:104EE000334934481C600BF019FB68B1FEE701221E
:104EF0002C492B480BF012FB00B1FEE72E49284845
:104F00000BF02EFBC0B1FEE72B492A480BF028FB23
:104F100060B1FEE7284922480BF022FB00B1FEE712
:104F200026491F480BF0AAFA08B3FEE72449214896
:104F30000BF0A4FAA8B1FEE7204919480BF09EFA3D
:104F400000B1FEE716480BF021FB024640B9164BB4
:104F5000164C174917481C600BF0E0FA68B1FEE7E1
:104F6000FEE714480BF012FB0028ABD0FEE70C481C
:104F70000BF00CFB0028A5D0FEE70F490D480BF005
:104F8000EFFA00B1FEE70E490A480BF077FA00B1DC
:104F9000FEE708480BF0FAFA002893D0FEE700BFBE
:104FA000200B0024D4000024BC0D0024B54E0008C2
:104FB000B8000024840800243C0100249800002448
:104FC00088000024084691B208B502F0EFFA0038D4
:104FD00018BF012008BD00BF014806F05DB900BF41
:104FE000203A0024014806F057B900BF203A0024B7
:104FF000014806F051B900BF203A002400B583B043
:105000004FF0000E4FF0030C4274ADF80410BDF8E1
:10501000043080F810E0A0F802C0038003B05DF80F
:1050200004FB00BF2DE9F04FDFF81C8300258DB095
:10503000C04C037008F140034260074601920E46DF
:10504000202229464046C4F86831C4F86481CDE97D
:105050000255CDE90455CDE90655CDE90855CDE910
:105060000A5510F02DFE2022294604F5A170C4F83F
:105070003151C4F83551C4F83951C4F83D5110F0DC
:105080001FFE019B84F8485284F830317A68002A68
:105090006AD02B4604F59871454606F1100A9E46E3
:1050A000F01856F803B0E2180EF1010ED0F80CC05B
:1050B000D0F80490D0F8088044F803B0C2F80CC0CF
:1050C0004FF0000CC2F80490C2F80880008A25F85E
:1050D00002CB10821AF8032001F8012F002A70D0A9
:1050E0007A684FF001001233724584F84802D7D82D
:1050F0004FF4802290489DF8043008214FF00008BA
:105100004FF00009C4F884310023C4E95B02012296
:10511000C4F8743184F88031C4E95E2194F84812EF
:10512000C4E96489A9B3C4F89821002284F88131C4
:1051300084F888313B78C4E96722002B38D00122FB
:1051400000200121013B84F8A421C4E96C01082B53
:1051500030D8DFE813F0BD00C200C700CC00D1009A
:10516000D600DB00E100E8009DF804300121C4F81E
:105170007421C4F884314FF4802384F880216E4A6E
:10518000C4E95B2308230022C4E95E130023C4E9B9
:1051900064230123002284F88131002384F88831BC
:1051A0000323C4F898313B78C4E96722002BC6D1A9
:1051B00084F8A431614803F035FB034638B1FFBEE3
:1051C000FEE77A68123372453FF66AAF90E702A9AC
:1051D0005A48029303F084FC8246002876D10422C8
:1051E00040F2FF710A90CDE9081294F83021002AAC
:1051F00000F0F3804FF006080AEBCA034FEACA0931
:1052000004EB43035B7C072B07D8DFE803F0595C12
:105210005653504D4A04072307930FFA8AF6D14498
:1052200006EBC60604EB490904EB46077500384651
:1052300000F09AFC99F81030042B00F3AA80022B9E
:1052400000F3BD8000F0B98004EB0A03002283F86C
:10525000202114F81630002B78D0022B00F08A8021
:10526000012B40F0B2807B78012B00F0B080002B46
:10527000334B18BF002305A93048CDE9053802F0AB
:10528000FDFE002840F0AC800AF1010A94F83031AC
:105290005FFA8AFA534540F2A0802A4B53F82A80DD
:1052A000AAE706230793B8E705230793B5E7042386
:1052B0000793B2E703230793AFE702230793ACE713
:1052C00000230793A9E701230793A6E7FFBEFEE7A4
:1052D00003224023C4E96A236CE707226023C4E960
:1052E0006A2367E70F228023C4E96A2362E71F224B
:1052F000A023C4E96A235DE73F22C023C4E96A23EF
:1053000058E77F22E023C4E96A2353E7FF224FF4E2
:105310008073C4E96A234DE740F2FF124FF49073A3
:10532000C4E96A2346E740F2FF324FF4A073C4E9B0
:105330006A233FE7C80D002400200240340F0024F8
:105340000002B025807B0108004000307B78062BEE
:1053500037D0072B3DD0022B4AD0032B4AD0002B4D
:105360004CD0012B48D0042B4AD0052B254B18BF1D
:10537000002380E77B78042B25D0052B2BD08BB323
:10538000012B31D0022B31D0032B1F4B18BF002330
:1053900071E70323043504EB0A0B4FF000092544A1
:1053A0008BF82031284609F1010900F0DDFB9BF85C
:1053B000203104354B45F5DC4BE70123EAE70223B6
:1053C000E8E7124B57E7124B55E7002353E7114B21
:1053D00051E7114B4FE7114B4DE70DB0BDE8F08F92
:1053E000FFBEFEE70E4B46E70E4B44E70E4B42E78F
:1053F0000E4B40E70E4B3EE70E4B3CE70E4B3AE7B9
:105400000E4B38E70000B84F002090360800900C93
:105410001000C0102000F0148000501D00018021F9
:105420000004002A0008302E001060320040C03A0C
:105430000080F03E00005247000021430000844BF2
:1054400038B5094C40F2FF724FF0011104F5B67502
:10545000284603F0F3FA94F83021D4F86411284672
:10546000BDE8384003F05EB8C80D0024044B0F2996
:10547000D3F8643198BF03EB41031888704700BF2D
:10548000C80D0024214B02689A4200D07047204A80
:1054900000232048D2F8D81030B51F4C41F020012D
:1054A00083B0C4F8D001092004F5E875C4E9750398
:1054B0004FF48060C2F8D810D2F8D8204FF40061C1
:1054C000C4E9773094F8480202F02002C4F8E411ED
:1054D0004FF40051984201922846C4F8E811C4E9FB
:1054E0007C33019B14BF00234FF48073C4F8EC316C
:1054F00003F048FE08B1FFBEFEE704F5B673C4F83A
:10550000B851C4F8083203B030BD00BF00200240DB
:105510000044025840000240C80D0024014804F035
:10552000A9B900BF980F002402682DE9F84F4B4B32
:105530009A4201D0BDE8F88F494D95F84832002BCA
:10554000F8D095F83031002B77D0002405F10C0904
:1055500005F5A17605F59877A04613E003F0010163
:1055600017F811BCA9F1080000F0DAFBBBF1010F3C
:1055700025D895F83031013409F112090236A2B26A
:1055800093422BD917F8012F002AF4D0D5F86431B3
:105590000021327833F81400D5F8683103EB041396
:1055A00023F81200338801339BB233805FFA83FA09
:1055B0003A789A42D2D88A46A6F80080D0E7CAF351
:1055C0004001A9F1040000F0ABFBBBF1020FCAF3EC
:1055D0008001CED0484600F0A3FBCAE7002395F82F
:1055E0004802204909229842C5F8D8314FF480601A
:1055F000C5F8D011C5F8D4214FF400614FF4005222
:10560000C5F8DC3108BF4FF48073C5F8E821C5E95F
:10561000780100221448C5E97B32C5F8F42103F073
:10562000B1FD08B1FFBEFEE795F83021D5F8641151
:105630000E48BDE8F84F02F075BF0A4909224FF441
:105640008060C5F8D831C5E974124FF400614FF499
:105650000052C5E97730C5E97912DAE70020024047
:10566000C80D002440000240980F0024340F00248D
:10567000704700BF4F4B02689A4200D070474E4BB4
:10568000D3F8E81030B541F000514C4C85B0D4F857
:105690004821C3F8E810D3F8E81001F00051019157
:1056A0000199D3F8E01041F00101C3F8E010D3F8FC
:1056B000E03003F001030293029B32F002033DD07D
:1056C000013A012A6BD9D4F84C31012B0AD00022BF
:1056D0003620114603F078FA362005B0BDE8304098
:1056E00003F0B0BAD4F8483133F0020234D0013BB1
:1056F000012BECD8442240233149324DC4F88C10A0
:1057000000212846C4F8B010C4E9242300224FF435
:105710008063C4E926234FF400624FF40053C4E9C8
:1057200028234FF480724FF48033C4E92A2303F016
:1057300029FD80B9E560C4F8C440C8E74FF4806231
:10574000032303A8ADF80C208DF80E3000F00CFAFE
:10575000D4F84821B4E7FEE71B4BA2634322636100
:1057600040231A4DC4E9062300224FF480632846E3
:10577000C4E908234FF400624FF40053C4E90A233C
:105780004FF480724FF48033C4E90C2303F0FAFC29
:1057900020B9D4F84831A560E464A8E7FEE74FF4E7
:1057A000A062032303A8ADF80C208DF80E3000F0A2
:1057B000DBF988E700740040004402581810002408
:1057C00028040240A4100024100402402C100024DD
:1057D000014804F04FB800BF2C100024014804F029
:1057E00049B800BFA410002410B5054C204603F0B2
:1057F00015FB04F58270BDE8104009F027BB00BF1F
:105800001810002430B58C463A4C3B4D8DB00460E6
:1058100004F5A27EBCE80F00AEE80F00DCF8003013
:1058200020462560CEF8003003F09AFA0023D4F821
:105830004C510393C5B11622012D049217D00022BA
:10584000D4F85411D4F848319142CDE9062218BF5A
:105850000222059233F0020235D0013B012B3CD9E4
:10586000002528460DB030BD02230493E7E7234A04
:105870000093C4F80C31C4F81431C4F80421C4F8FE
:105880001C31CDE9013301F055FDD4F844314BF61C
:105890008032C4F80851002B08BF1346B0FBF3F365
:1058A00004F58270C4F8103109F03AF90028D8D113
:1058B00020230290694604F58270009309F07EFB74
:1058C0000028BCD0CDE703A90A4803F0DBFA78B979
:1058D000D4F84831013B012BC2D8102203A9054856
:1058E00003F0D0FA051E18BF012528460DB030BDC3
:1058F0000125B6E718100024007400400010004095
:105900002DE9F0410668D6F84C5105BBD6F8503168
:105910000C461746002B0CBF4FF008084FF000084C
:1059200031F0020305D0013C012C14D92846BDE812
:10593000F0811346294642463046013C03F054FAB2
:105940002946304603F022FA012CEFD803E0012566
:105950002846BDE8F0813B4642461021304603F020
:1059600043FA1021304603F011FA2846BDE8F081D1
:1059700010B592B0ADF804100180C9B2149C0B2987
:10598000C460C0E901233FD090F801C0BCF10F0F03
:105990003AD8022A3FD0032A02D0012A00D000229E
:1059A0000E92012B02D0022B18BF0023022C0F9362
:1059B0002CD0032C2AD0012C28D000230A291093A4
:1059C00027D85C4A02EB812202610A2914D8DFE859
:1059D00001F0A39587796B5D4F4133250600564B47
:1059E000D3F8E01041F48061C3F8E010D3F8E03060
:1059F00003F480630C930C9B01230DA9104603FA5A
:105A00000CF30D9304F088FA12B010BD0A2910941B
:105A1000D7D90022D8E711220E92C2E7464BD3F81D
:105A2000E01041F40071C3F8E010D3F8E03003F463
:105A300000730B930B9BDFE73F4BD3F8E01041F46F
:105A40008071C3F8E010D3F8E03003F480730A9358
:105A50000A9BD1E7384BD3F8E01041F08001C3F83E
:105A6000E010D3F8E03003F080030993099BC3E70B
:105A7000314BD3F8E01041F04001C3F8E010D3F807
:105A8000E03003F040030893089BB5E72A4BD3F8B6
:105A9000E01041F02001C3F8E010D3F8E03003F04B
:105AA00020030793079BA7E7234BD3F8E01041F0AF
:105AB0001001C3F8E010D3F8E03003F010030693B0
:105AC000069B99E71C4BD3F8E01041F00801C3F89E
:105AD000E010D3F8E03003F008030593059B8BE753
