:020000040800F2
:100000000000022089060008850600080553000844
:100010008506000885060008850600080000000027
:10002000000000000000000000000000850600083D
:1000300085060008000000008506000889520008B7
:100040008506000885060008850600088506000864
:100050008506000885060008850600088506000854
:10006000850600088506000885060008914E0008F0
:100070009D4E000885060008A94E0008B54E0008F0
:100080001DF50008C1430008850600088506000824
:100090008506000885060008850600081910000876
:1000A0008506000885060008850600088506000804
:1000B00015E9000821E900082DE90008F5430008CA
:1000C00085060008014400088506000885E100084F
:1000D00091E1000851F300087DF30008B1F3000836
:1000E0008506000885060008000000008506000857
:1000F00085060008850600088506000885060008B4
:10010000850600088506000839E900089DE1000819
:10011000E5F3000819F400088506000885060008C4
:100120008506000885060008C1E10008F5E1000821
:1001300051F50008850600088506000885060008B8
:1001400000000000000000000000000000000000AF
:100150008506000885060008850600084DF400089D
:100160000D4400088506000899520008BD52000899
:1001700085060008E152000885060008850600088B
:10018000850600088506000881F40008B5F400081B
:10019000A9E10008B5E10008850600088506000809
:1001A0008506000885060008850600088506000803
:1001B000B14B000885060008850600088506000882
:1001C0008506000885060008453D0008513D0008E9
:1001D000850600085D3D00088506000885060008C4
:1001E00085060008850600088506000885060008C3
:1001F00085060008850600088506000885060008B3
:1002000085060008850600088506000885060008A2
:100210008506000885060008850600088506000892
:100220008506000885060008850600080000000015
:100230008506000885060008000000008506000805
:100240008506000885060008850600088506000862
:100250008506000885060008850600088506000852
:100260008506000885060008850600088506000842
:100270008506000885060008E9F400080000000073
:1002800085060008850600088506000800000000B5
:080290000000000085060008D3
:1002A00010B5054C237833B9044B13B10448AFF3B0
:1002B00000800123237010BD2806002400000000E8
:1002C000A03C010808B5034B1BB103490348AFF339
:1002D000008008BD000000002C060024A03C01089E
:1002E00001F0FF01102A2BDB10F0070F08D010F8E7
:1002F000013B013A8B422DD010F0070F42B3F6D1EB
:10030000F0B441EA012141EA014122F007047FF003
:1003100000070023F0E80256083C85EA010586EA5A
:10032000010685FA47F5A3FA87F586FA47F6A5FA96
:1003300087F68EB9EED1F0BC01F0FF0102F00702A2
:1003400032B110F8013B013A83EA010313B1F8D14D
:100350000020704701387047002D06BF354603382E
:10036000073815F0010F07D1013015F4807F02BF67
:10037000013015F4C03F0130F0BC0138704700BFB8
:1003800053B94AB9002908BF00281CBF4FF0FF31FC
:100390004FF0FF3000F074B9ADF1080C6DE904CEF8
:1003A00000F006F8DDF804E0DDE9022304B0704750
:1003B0002DE9F047089D04468E46002B4DD18A4218
:1003C000944669D9B2FA82F252B101FA02F3C2F14B
:1003D000200120FA01F10CFA02FC41EA030E9440DC
:1003E0004FEA1C48210CBEFBF8F61FFA8CF708FBFD
:1003F00016E341EA034306FB07F199420AD91CEBD5
:10040000030306F1FF3080F01F81994240F21C8106
:10041000023E63445B1AA4B2B3FBF8F008FB10334E
:1004200044EA034400FB07F7A7420AD91CEB040483
:1004300000F1FF3380F00A81A74240F20781644453
:10044000023840EA0640E41B00261DB1D4400023D8
:10045000C5E900433146BDE8F0878B4209D9002D3C
:1004600000F0EF800026C5E9000130463146BDE8C6
:10047000F087B3FA83F6002E4AD18B4202D3824230
:1004800000F2F980841A61EB030301209E46002DDF
:10049000E0D0C5E9004EDDE702B9FFDEB2FA82F234
:1004A000002A40F09280A1EB0C014FEA1C471FFA92
:1004B0008CFE0126200CB1FBF7F307FB131140EA79
:1004C00001410EFB03F0884208D91CEB010103F146
:1004D000FF3802D2884200F2CB804346091AA4B208
:1004E000B1FBF7F007FB101144EA01440EFB00FEDC
:1004F000A64508D91CEB040400F1FF3102D2A64541
:1005000000F2BB800846A4EB0E0440EA03409CE7DF
:10051000C6F12007B34022FA07FC4CEA030C20FA8C
:1005200007F401FA06F31C43F9404FEA1C4900FAAC
:1005300006F3B1FBF9F8200C1FFA8CFE09FB181129
:1005400040EA014108FB0EF0884202FA06F20BD99C
:100550001CEB010108F1FF3A80F08880884240F2EC
:100560008580A8F102086144091AA4B2B1FBF9F030
:1005700009FB101144EA014100FB0EFE8E4508D92B
:100580001CEB010100F1FF346CD28E456AD90238B0
:10059000614440EA0840A0FB0294A1EB0E01A14295
:1005A000C846A64656D353D05DB1B3EB080261EB03
:1005B0000E0101FA07F722FA06F3F1401F43C5E9DD
:1005C000007100263146BDE8F087C2F12003D84013
:1005D0000CFA02FC21FA03F3914001434FEA1C4755
:1005E0001FFA8CFEB3FBF7F007FB10360B0C43EA47
:1005F000064300FB0EF69E4204FA02F408D91CEBF7
:10060000030300F1FF382FD29E422DD902386344F4
:100610009B1B89B2B3FBF7F607FB163341EA034194
:1006200006FB0EF38B4208D91CEB010106F1FF38E3
:1006300016D28B4214D9023E6144C91A46EA0046DA
:1006400038E72E46284605E70646E3E61846F8E66C
:100650004B45A9D2B9EB020864EB0C0E0138A3E7B5
:100660004646EAE7204694E74046D1E7D0467BE796
:10067000023B614432E7304609E76444023842E70E
:10068000704700BFFEE700BF0B480C4A904203D002
:10069000121A0B4911F03AFF0A480B4A904203D054
:1006A000121A002111F040FF05F08AF811F002FF44
:1006B00001F04EF8FEE700BF0000002424060024ED
:1006C000D43C010828060024F85D0024704700BFD0
:1006D0002DE9F04F40480D46404C414B2DED108B1D
:1006E00094ED009A89B090ED00DA3E4CD3ED007A9B
:1006F0003D483E4BD4ED008ACDED017A90ED008A65
:100700003B4CD3ED007A3B483B4BCDED027AD4ED28
:10071000007A1446D0ED00BACDED037AD3ED007A1D
:1007200036486BEEA7BA01F081FF002C00F065841B
:100730009FED337ADFED337A29EE077A324A334878
:10074000D2ED001A8DED047A28EEA77A68EE277AAA
:100750002F4ADFF8D8B0D2ED002ACDED067AF1EEBF
:10076000087A2C4ADFF8C8A0C7EE807A92ED003AEA
:10077000294ADFF8C090DFF8C080DFF8C0E0DFF87A
:10078000C0C0264F264E2749D2ED003A264A8DEDAD
:10079000057ADBED00DA9AED009AD9ED00CA90ED0A
:1007A000006AD0ED016A90ED027A98ED00CA9EEDE4
:1007B00000AA9CED001AD7ED008A96ED008AD0EDD4
:1007C000035A91ED002A92ED004ACDED077AD5E962
:1007D000003503EB84041BE2100000241800002401
:1007E000C006002414000024C4060024B40600241B
:1007F000BC060024B00600241C000024C806002407
:10080000009CC43A00D7233C500600246006002414
:10081000A00600245806002454060024A80600243C
:100820005C0600249C0600244806002404000024E2
:100830000C000024080000244C0600249806002424
:100840004406002400409C4648E17A3F66663640F4
:100850000AD7233C6666A63FB29D7F3F00D7A33CE4
:100860000080F3375FED090AB4EEE09AF1EE10FA7A
:1008700000F3598379EE099AC9EE800A5FED0E9A6A
:10088000F4EE690AF1EE10FA79FEA00A5FED119A12
:10089000E5EEE97AF0EE089AF4EEE97AF1EE10FA74
:1008A00000F33E83F8EE089AF4EEE97AF1EE10FADE
:1008B00000F14583F3EE0BAA67EEA79AB2EE02FAB7
:1008C000B0EE6ABAA9EE8FBA79EEAA9A69EEA77A63
:1008D000C7EE8B9AF0EE087AB4EEE76AF1EE10FA02
:1008E00000F31B83F8EE087AB4EEE76AF1EE10FA33
:1008F00000F12283F3EE0BAA66EE067AB2EE02FA5C
:10090000B0EE6ABAA7EE8FBA77EEAA7A67EE867A69
:10091000C7EE8BAA79EEEA9AF0EE087AA9EEA06A01
:10092000B4EEE76AF1EE10FA00F3F482F8EE087A1A
:10093000B4EEE76AF1EE10FA00F1FB82F3EE0B9AE7
:1009400066EE067AB2EE02BAF0EE69AA77EEA99ADE
:10095000E7EE8BAA69EE869AC9EEAA7AF0EE089ABB
:10096000F4EEE96AF1EE10FA00F3D182F8EE089A9B
:10097000F4EEE96AF1EE10FA00F1D882F3EE0BAA78
:1009800066EEA69AB2EE02FAB0EE6ABAA9EE8FBA95
:1009900079EEAA9A69EEA69AC9EE8BAA77EEEA7A60
:1009A000E0EEA76AF0EE087AF4EEE76AF1EE10FAEC
:1009B00000F3AA82F8EE087AF4EEE76AF1EE10FA94
:1009C00000F1C982F3EE0B9A66EEA67AB2EE02BA95
:1009D000F0EE69AA77EEA99AE7EE8BAA69EEA69ADD
:1009E000C9EEAA7AF0EE089AB4EEE97AF1EE10FABE
:1009F00000F38782F8EE089AB4EEE97AF1EE10FA85
:100A000000F1A682F3EE0BAA67EE079AB2EE02FAA5
:100A1000B0EE6ABAA9EE8FBA79EEAA9A69EE879A11
:100A2000C9EE8BAA77EEEA7AA0EEA77AF0EE087A02
:100A3000B4EEE77AF1EE10FA00F36082F8EE087A8D
:100A4000B4EEE77AF1EE10FA00F17F82F3EE0B9A42
:100A500067EE077AB2EE02BAF0EE69AA77EEA99ACB
:100A6000E7EE8BAA69EE879AC9EEAA7AF0EE089AA9
:100A7000F4EEE95AF1EE10FA00F33D82F8EE089A2E
:100A8000F4EEE95AF1EE10FA00F15C82F3EE0BAAF3
:100A900065EEA59AB2EE02FAB0EE6ABAA9EE8FBA86
:100AA00079EEAA9A69EEA59AC9EE8BAA77EEEA7A50
:100AB000E0EEA75A5FED9A7AB4EEE71AF1EE10FA7B
:100AC00000F11682B7EE00BAF1EE000AF0EE00AACD
:100AD000F0EE4B7A3BEE41FAE1EE207AF6EE000AB8
:100AE000F0EE609A67EEA57AE7EEA09AFFEE007A44
:100AF000FBFE69FA79EEEFFAF0EE679AEFEEAA9A4A
:100B0000F0EE67FAF0EEE99A7BEE699AE9EEAAFA5E
:100B1000EFEEA00AFBFE609A70EEE90AF0EE679A2B
:100B2000E0EEAA9AF0EEE99A7BEE699AE9EEAA7AEB
:100B300061EE277AEFEE257A5FEDBA0A67EEA07ACA
:100B4000F0EE080AF4EEE07AF1EE10FA00F3CD814F
:100B5000F8EE080AF4EEE07AF1EE10FA00F1018204
:100B6000F3EE0B9A67EEA70AB2EE02BAF0EE69AAAC
:100B7000E0EE8BAA70EEA90A60EEA77A87EEAABA19
:100B80002BEE08BAC5EE007AA3EC01BAA5EC01BAC7
:100B9000B7EE005A32EE272A34EE274AF7EE007AF3
:100BA000B4EEC52AF1EE10FAA8BF32EE452A84EE63
:100BB000805ACEEE004A72EE852AB7EE005AF4EE65
:100BC000C52A73EEA43AF1EE10FAA8BF72EEC52A58
:100BD0008EEE805A33EE053AB7EE005AB4EEC53ABF
:100BE000F1EE10FAA8BF33EE453AB7EE005AF4EE34
:100BF000C53AF1EE10FAB4EEE74AA8BF73EEC53A73
:100C0000F1EE10FAA8BF34EE674A9C4200F0CC81A6
:100C10005FEDEF7AB4EEC9DA9DED045A5FEDF19A1B
:100C2000ADEEA75A5FEDF2EAF1EE10FA9FEDCEEAD3
:100C30009FEDCEBA9DED01FA79FEAE4A6DEE244AE3
:100C4000B4EECAFADFEDCA7AF0EE45DA9FEDC95A82
:100C5000DFEDC90A75FE0EAAEAEE894AF1EE10FA36
:100C6000DDED02FADFEDC5AAF4EEC1FAB0EE649A4A
:100C7000DDED054AECEE8B4AF0EE64CADDED064A86
:100C8000ECEE0B4A39FEA7BA2FEE0BBA35FE20FA6E
:100C9000F1EE10FAAFEE0ABA9FEDB9FAB0EE64CAFF
:100CA000DDED034AF4EEE84AB0EE4BAA39FEA7BAEE
:100CB0002FEE8BBA75FE20FAF1EE10FAF4EEC8BAF8
:100CC000AFEE81BA79FEA77A64EEA77A35FE205A94
:100CD000F1EE10FAE5EE287A7AFE8EAAB0EE4B1A03
:100CE000F0EE678ADFEDA77A77FEAE4A6BEEA44A94
:100CF000EAEE884AF4EECF4AB0EE648AF1EE10FADA
:100D000007D526EE206A66EEA06A27EE207A65EE09
:100D1000A05ADFED9B7AF4EEE7BAF1EE10FA0CD5AB
:100D2000DFED997AB4EEE78AF1EE10FA05DDF3EE25
:100D30000E7AE8EE0D7AB0EE67DADDED077AB1EE05
:100D4000005A71EEA71AF7EE007AF4EEE71AF1EE08
:100D500010FAA8BF71EEE71AF6EE007AF4EEE71A81
:100D6000F1EE10FA40F1BC80FFEE007AE1EE857AF8
:100D7000F7EE004ADFED850A6CEE277AB0EE645A92
:100D8000A7EEA05ADFED827AF1EE000AEAEE274ADA
:100D9000F6EE007AB4EEE72A2DEE855AF1EE10FA5F
:100DA00065EE244A65EE27EA35EE05EA40F19380C8
:100DB000FFEE007AE2EE207AF6EE000AF4EEE02A88
:100DC00067EEA07AF1EE000AF1EE10FA7ED5BFEEE2
:100DD00000BAA2EEA0BAF6EE000ADFED6E9AF1EECE
:100DE00000AA2BEE29BAB4EEE03AF1EE10FA68D57B
:100DF000FFEE000AE3EE2A0AF6EE00AADFED669A9D
:100E000060EEA90AF4EEEA3AF1EE009AF1EE10FA79
:100E100052D5FFEE00AAE3EEA9AAB6EE00FADFED86
:100E20005FFA77EE8B9AF1EE007AB4EECF4A79EE64
:100E3000A09AF1EE10FAEAEEAF9A38D5FFEE000A6A
:100E4000E4EE270A60EEA90AF7EE007AF0EE08AAAF
:100E500060EEA80A37EEE8BAEBEE290A6CEEA00ABB
:100E6000F4EEEA0AF1EE10FA16DCF8EE087AF4EE87
:100E7000E70AF1EE10FA71D4F3EE0B9A60EEA07A65
:100E8000B2EE02BAF0EE69AAE7EE8BAA77EEA97A83
:100E900067EEA00AC0EEAA7AF3EE040AB4EEE09A76
:100EA000F1EE10FA7FF5DEACDFED3D9AE4E4F0EE12
:100EB000080AE4EE670AC5E7F0EE08AAE3EEE9AA3D
:100EC000ABE7F0EE080AE3EE6A0A95E7B0EE08BA7F
:100ED000A2EEE0BA7FE7F0EE087AE2EE607A6BE726
:100EE000F0EE087AE1EEC57A42E7B0EE48BA49E69C
:100EF000F0EE657A20E6F7EE00AAD7E5F7EE007A85
:100F0000B4E5F7EE00AA8DE5F7EE007A6AE5F7EEB4
:100F100000AA43E5F7EE007A20E5F7EE00AAF9E42F
:100F2000F7EE009AD6E4DFED1F9AA5E4FFEE00AAE3
:100F300034E5FFEE007A11E5FFEE00AAEAE4FFEEE9
:100F4000009AC7E4FFEE00AAB0E5FFEE007A8DE557
:100F5000FFEE00AA66E5FFEE007A43E5FFEE007AB9
:100F60009AE7B1EE48BA0DE619FE7F3FA4707D3FC7
:100F70000012833A48E17A3F77BE7F3FEC51783FD9
:100F80006F12833A80C2F53C17B7D138CDCC4C3DB7
:100F9000C0956C3DAE47613EEC51383E9A99193E82
:100FA0000000204200401C47164BCBED00DAC3ED99
:100FB000001A154B8AED009AC3ED002A134BC9EDB8
:100FC00000CA83ED003A124B88ED00CAC3ED003A27
:100FD000104B8EED00AA8CED001AC7ED008A86ED4D
:100FE000008A81ED002A80ED006AC0ED016A80ED83
:100FF000027AC0ED035A83ED004A09B0BDEC108BB4
:10100000BDE8F08F50060024A006002458060024F6
:1010100054060024480600244FF0B043D3F888203B
:10102000920605D50349012020220870C3F88820C4
:10103000704700BFA406002438B5104D0121104CA4
:10104000284602F083FF022004F0D0F90121204657
:1010500002F07CFF022004F0C9F90021284602F0CA
:1010600075FF022004F0C2F92046002102F06EFF55
:101070000220BDE8384004F0B9B900BF1C070024C5
:101080000807002438B507240546012145FA04F372
:101090001B48013C0B4004BF1946194802F056FF9B
:1010A000022004F0A3F90121164802F04FFF0220AC
:1010B00004F09CF90021134802F048FF022004F0DC
:1010C00095F9631CE1D101210D4802F03FFF022098
:1010D00004F08CF901210B4802F038FF022004F0E3
:1010E00085F9074802F026FF00210446054802F072
:1010F0002DFF022004F07AF984F00100C0B238BD5F
:101100001C0700240807002470B582B001210724C1
:10111000002501901F48019E02F018FF022004F0F4
:1011200065F901211C4802F011FF022004F05EF96C
:10113000184802F0FFFE024601230021164812B1B2
:10114000A3402B43DDB2013C02F000FF631CE5D15C
:10115000DEB100210F4802F0F9FE022004F046F94A
:1011600001210D4802F0F2FE022004F03FF90021B7
:10117000094802F0EBFE022004F038F9012105488D
:1011800002F0E4FE284602B070BD0121014802F0E1
:10119000DDFEE2E71C0700240807002438B50446FA
:1011A0000D46FFF749FFB420FFF76CFFF8B120466A
:1011B000FFF768FFD8B12846FFF764FF0446B0B1D7
:1011C0000021174802F0C2FE022004F00FF90121AD
:1011D000144802F0BBFE022004F008F90121104877
:1011E00002F0B4FE022004F001F9204638BD0021CF
:1011F0000B4802F0ABFE022004F0F8F80121094888
:10120000002402F0A3FE022004F0F0F801210448BB
:1012100002F09CFE022004F0E9F8204638BD00BF31
:101220001C070024080700242DE9F04104460E465F
:101230001546FFF701FFB420FFF724FF30B3204627
:10124000FFF720FF10B3FFF7F7FEB520FFF71AFFF7
:101250000746D8B185B1013D741E56FA85F8C6F12E
:10126000010630198542D4BF00200120FFF74CFF52
:1012700004F8010F4445F4D10021114802F066FE44
:10128000022004F0B3F801210E4809E000210C48C7
:1012900002F05CFE022004F0A9F8002701210948B1
:1012A00002F054FE022004F0A1F80121044802F0EB
:1012B0004DFE022004F09AF83846BDE8F08100BFE8
:1012C0001C0700240807002410B5632182B0802089
:1012D0004124FFF763FF0A2004F086F800215E2016
:1012E000FFF75CFF01212B20FFF758FF01212C2085
:1012F000FFF754FF10212D20FFF750FF20212E2053
:10130000FFF74CFF01212F20FFF748FF012130207C
:10131000FFF744FF10213120FFF740FF202132204A
:10132000FFF73CFF00213320FFF738FF0021342076
:10133000FFF734FF00213520FFF730FF042120465E
:10134000FFF72CFF601C02340221C0B2E4B2FFF7A9
:1013500025FF592CF2D111215B20FFF71FFF5021EF
:101360005C20FFF71BFF78215D20FFF717FF8C2122
:101370005E20FFF713FF642004F036F800230122FB
:101380000DF107015E208DF80730FFF74DFF9DF846
:101390000700A0F18C00B0FA80F0400902B010BD47
:1013A00010B586B00446182204206946FFF73CFFBA
:1013B000A01E6A4606AC537812F8021B1B02944228
:1013C00003F4407343EA010320F8023FF3D106B06F
:1013D00010BD00BF2DE9F04192B020250024074642
:1013E0000DF1180830220021404611F09DF86846A2
:1013F0004646FFF7D5FF6A46414600E00C6832F8E2
:10140000023B2344424541F8043BF7D1052003F059
:10141000EBFF013D01D0069CE9E7BA1E163756F8EE
:10142000043B5B0922F8023FBA42F8D112B0BDE892
:10143000F08100BF07382BD410282BDC42F2107249
:101440001549164B02FB00F081FB0021C217A3FBDC
:1014500000C34FF05A0C084411491B09C2EBA020ED
:1014600065304010B3FBF0F210444210B3FBF2F0D1
:1014700010444010B3FBF0F3184440100CFB00F094
:10148000A1FB003040090A306428A8BF64207047DF
:101490000020704764207047EDF3AC98F1F0F0F055
:1014A0001F85EB510022A0F1040C2DE9F04F1346EB
:1014B0008DB006460D46964614460A750A705CF8CD
:1014C000042F724501DD1C46964601330C2BF6D1E4
:1014D000BEF1060F03DC00200DB0BDE8F08F04F173
:1014E0000208A71EB8F10B0F27EAE777A8BF4FF055
:1014F0000B08B845C0F2AC806FF0404C4FF00009CB
:1015000008F1010EBA46BC443A464946484606EB45
:101510008C0C5CF8043F23EAE373994502FB03114A
:10152000184401DA9246994601327245F1D10028F9
:1015300000F097804FF47A7B0BFB01F100EB800BFE
:1015400000EB4B0BB1FBFBFBBBF57A7FA8BF4FF465
:101550007A7B4846FFF76EFF0123EC46C5F804B0DE
:101560002B700023C5F81090C5E9020A684604E014
:1015700001334CF8042B0C2B0FD09F4206DC98450E
:10158000ACBF002101210A460029F1D056F82320E2
:1015900001330C2B4CF8042BEFD1002319461E46C7
:1015A00050F8042B8A4201DD1E46114601330C2BF4
:1015B000F6D1331B48BFA31B062945DD032BCCBF47
:1015C00000240124002C3FD1B71E02360B2E27EA3F
:1015D000E777A8BF0B26BE4240DB6FF04040721C8D
:1015E000394626463844A4460DEB800050F8043FA7
:1015F00023EAE3739C4203FB01669C4401DA0F4635
:101600001C4601318A42F1D1BCF1000F26D04FF4C3
:101610007A7303FB06F60CEB8C030CEB430CB6FB66
:10162000FCF6B6F57A7FA8BF4FF47A762046FFF72E
:1016300001FF03460220AE616C62C5E90737012352
:101640002B750DB0BDE8F08F01200DB0BDE8F08F17
:10165000BA464FF000094FF0FF3B7AE74FF0FF36F4
:10166000E4E74FF0FF3B74E72DE9F047374C82B0D9
:101670000022234604F128088DF804208DF8052067
:101680001A789AB914334345FAD100290BDD01EBDE
:10169000810301AA00EB830312F8011B002939D052
:1016A00014309842F8D102B0BDE8F087002949DD36
:1016B00001AD844600224FF0FF3E4FF0C90A15F8F5
:1016C000016B5EB9DCF804605F68B6EB070948BFE0
:1016D000A7EB0609CA4501DD9646CA4601320CF160
:1016E000140C9142EBD1BEF1FF3F2BD00EEB8E02DA
:1016F0000EF1080500EB82020DEB050E01250EF838
:10170000045C55685D6095689D60D5681269DD6010
:101710001A61B7E7217819B1217D0029C0D10121D3
:1017200001EB81010769466804EB8105D0E902EC11
:10173000C5E9016EC5E903C7012504F8215002F887
:10174000015CADE700221A709CE700BF7006002420
:101750002DE9F04F0021ABB0C348032401F042F85B
:101760000421C1480DF1200B00F064FF002002F0BD
:1017700021FABE4ABE480123BE49009409681060A0
:101780000222BD4802F0F0FABC4900230122096898
:10179000BB48009402F0E8FA0121B74802F0D6FBFA
:1017A0000121B74802F0D2FBFFF78EFD002840F080
:1017B000B283B44B00241EA9B348D3F8E0202746D7
:1017C000DFF8048342F00202B04DDFF80093C3F863
:1017D000E0202022D3F8E0301E9203F00203AC4A4E
:1017E00022940793079B01232194CDE91F2300F046
:1017F00007FD22460521172000F036FC172000F0D7
:1018000071FCA44BA44AA5491360A54BA54A964870
:1018100013600023A44A136000F004FF03F0E2FD0C
:10182000049406460EAC03F0DDFDD8F80030C31A70
:10183000312B13D92B78C8F800007BB12B7D002BFE
:1018400040F0B082944B2A69D3ED007A9748FDEEC0
:10185000E77AAB6817EE901A02F09EF98A4B1B6983
:1018600099F8002003F0200302F0FF0AA2B99BB10F
:1018700097B903F0B7FD801BB0F5FA6F80F0DF80F9
:101880000120002703F0B0FD03F0ACFDD8F80030D4
:10189000C31A312BE2D9CDE700232046274689F829
:1018A0000030FFF77DFD5A461EA9B44632F8023BD0
:1018B000002637F8020B04311B1A54BF41F8043CD0
:1018C00041F8046C9442F1D114A91EA86646FFF7B2
:1018D000E9FD011ECCBF01270027059140F31081CF
:1018E00003F080FD0599064614A8FFF7BDFE95F8A4
:1018F00000A0BAF1000F40F01281049B002B00F011
:10190000078300236A4A13700023674A13602B7D04
:10191000002B00F09F80D5ED067ADFED6D6AF8EEC2
:10192000E77A87EEA67AB5EEC07AF1EE10FA00F10A
:10193000F981F7EE007AB4EEE77AF1EE10FA00F3EF
:101940008182F6EE007AB0EE084A37EE677A27EE2B
:10195000044AD5ED077A9FED606AF8EEE77AC7EEA4
:10196000866AF5EEC06AF1EE10FA00F1D881F7EE62
:10197000003AF4EEE36AF1EE10FA40F3B081F0EED3
:10198000637AF0EE676AFAEE0E5AF1EE084AB2EEAA
:10199000046AF0EE653A27EEA77AB0EE465AE7EE13
:1019A000A43A27EE277AA3EEA75A67EE057AF5EE5A
:1019B000C07AF1EE10FA40F111829FED3E7A9FED70
:1019C0003E6A36EEC77ADFED457AC7EE065A9FEDDE
:1019D000437AF4EEC76AF1EE10FA00F17581B7EEC2
:1019E000007AF4EEC76AF1EE10FA40F36381F5EE87
:1019F000C05AF1EE10FA00F16F81B7EE007AF4EE02
:101A0000C75AF1EE10FA00F33782B0EE005A9FED9C
:101A10002A6AF0EE086A25EEA57AE5EEC56A27EE99
:101A2000267A27EE067A254BCDF810A083ED004AE2
:101A3000234BC3ED007A234B83ED007AF3E658463F
:101A400085F814A085F800A0FFF7C4FC03F0CAFCD9
:101A5000064615E70023194ACDF810A01360184A6E
:101A60001360184A1360DEE6C80600241C00002438
:101A70006666663F0C3A01081C070024083A010814
:101A8000080700240044025800040258700600248D
:101A9000000021115CCF024318000024D106000889
:101AA0000000C84210000024B0060024F0390108EC
:101AB000B80600249A99593F9A99193EC006002405
:101AC000B4060024BC060024AC060024A4060024AE
:101AD00000007A44B459E53F0000C842000000000D
:101AE00000004842006F313F68B32A3E9FCD2A3D37
:101AF000010070410000484300A08C46CDCC4C3F13
:101B000003F070FC801B0599B0F5FA6FFFF4ECAEA2
:101B1000002358462B752B70FFF75CFCE0E603F0C2
:101B200061FC049B002B00F0F081D5ED017A5FEDA4
:101B3000186AF8EEE77A87EEA67AB5EEC07AF1EE8B
:101B400010FA00F1FC80F7EE007AB4EEE77AF1EEDD
:101B500010FA00F38E815FED215AF6EE006A1FED58
:101B60001E6A27EE257A1FED225AE7EE066AB0EECE
:101B7000676AA7EE266AE7EE067A27EE855AD5ED64
:101B8000027A5FED2B6AB8EEE77AC7EE267AF5EEB9
:101B9000C07AF1EE10FA40F1E280FFEE084A5FED04
:101BA000317A5FED315AB4EEE55AF1EE10FA40F1B8
:101BB0002881B1EE087A5FED351ABAEE0E3A5FED84
:101BC000363AF2EE046A1FED372A27EEA76A5FED78
:101BD000382AA7EE873AB2EE081A26EE276AB0EE48
:101BE000655AF0EE635AB6EE004AE7EE836AB7EE46
:101BF000007A66EE266AB0EE446A66EE816A66EEA8
:101C0000A16AE6EE825AA6EEA56AF0EE475AE6EE23
:101C1000865AA6EEA57A27EE227A5FED4A6AB4EEDE
:101C2000E67AF1EE10FA00F10A815FED4D6AB4EE4A
:101C3000667AF1EE10FA36FE877AF5EEC04AF1EEDA
:101C400010FA72D4F7EE006AF4EEE64AF1EE10FAFA
:101C500000F3FB80B0EE004A5FED585AF0EE086AE0
:101C600024EEA46AE4EEC46A26EE266A26EE256A0D
:101C7000F5EEC07AF1EE10FA5ED4F7EE006AF4EEFB
:101C8000E67AF1EE10FA40F32F81F0EE0C7AC14BB8
:101C9000C14A83ED005AC14B83ED007AC04B83EDFE
:101CA000006AC04BC3ED007A01231370BE4BBF4ADC
:101CB00013602CE6B0EE005AB0EE087A26EEA66A63
:101CC000A6EEC57A26EE077AF5EEC05A24EE074A4C
:101CD000F1EE10FA7FF591AE9FEDB57AA3E6F1EE45
:101CE000085ADFEDB44ABAEE0E5A9FEDB36AF2EE2F
:101CF000047A26EEA67AA6EEA55A76EEE44A27EEF8
:101D0000267AC4EE865AE6EE857A67EE277AF5EEF5
:101D1000C07AF1EE10FA58D5DFEDA57A57E6DFED7F
:101D2000A47A2EE6BFEE084A13E6F5EEC07A9FEDE0
:101D3000A06AF1EE10FAA0D5F7EE007AA7E7D5ED8C
:101D4000027ADFED9E6AB8EEE77AC7EE267AF5EE04
:101D5000C07AF1EE10FA00F192809FED995AB7EE39
:101D6000007AF4EEC77AF1EE10FA71DC9FED946A16
:101D7000B4EEC65AF1EE10FA40F1F780DFED916A49
:101D8000B0EE465ADFED905A77EEE66A9FED8F7A15
:101D9000C6EEA54AF5EEC07AF1EE10FA3CD59FEDFD
:101DA0008C7A4AE77B4B2A69D3ED007AEB69FDEE2A
:101DB000E77A884802936B6A17EE901A0193AB6931
:101DC0000093AB6801F0E8FE48E5F4EEE37AF1EE4B
:101DD00010FA7FF7D8ADF0EE467AF8E5B7EE007A64
:101DE000F4EEC77AF1EE10FA40F3A8809FED717A15
:101DF0009FED716A36EEC77AF0EE467AC7EE065A64
:101E0000E5E5DFED756AB4EEE65AF1EE10FA24DD91
:101E1000B0EE665A9FED717AF7EE006AF4EEE67A5C
:101E2000F1EE10FA33DDDFED6E6A27EE267ADFED94
:101E3000686AB4EEE67AF1EE10FA7FF5F6AEB0EE2F
:101E4000667AFAE6B7EE084A83E59FED666A0FE721
:101E5000F0EE477ADFED644AA3E6DFED596AB4EEAF
:101E6000E65AF1EE10FA5ED5B0EE665A9FED577A5B
:101E700090E79FED5E5A82E69FED4F7AD3E5FFEE45
:101E8000084A9FED527ADFED4A7A9FED4D5AB1EE46
:101E9000086A9FED572ABAEE0E3ADFED562AF2EEA7
:101EA000043A9FED554A67EEA76AA7EE863AF2EE2E
:101EB000081A66EEA76AF6EE005AB7EE006AE7EE79
:101EC000833A66EEA36A66EEA16A66EE826AA6EEC1
:101ED000A24AE6EE845AB0EE464AA6EEA54AA6EE1F
:101EE000846A27EE067A98E6F0EE003AF0EE085A99
:101EF00067EEA74AB0EE044AE7EEE35AF0EE667AE0
:101F000064EEA55AE5EE847AC1E603F06BFA0CE6BE
:101F100003F068FAF5E44FF4967003F065FA58465A
:101F2000FFF758FA45E4F5EEC07A9FED347A25EED6
:101F3000077AF1EE10FA3FF570AE6DE7E7EEA45ABE
:101F4000DFED1C3A27EEA77A9FED1B3A76EEE34AC7
:101F500027EE277AB0EE655AC4EE835AA7EE856A5B
:101F600067EE067A67EE837A31E5DFED1B6A9FED57
:101F7000157AB4EEE65A9FED146A37EEC77AF1EEA1
:101F800010FAC7EE064A7FF768AF9FED147AB0EEFD
:101F9000665AFFE618000024B8060024100000244A
:101FA000C406002414000024EC51383FB00600247D
:101FB000000000009A99593F9A99193E0000C842C2
:101FC000000048429A99193FCDCCCC3E01007041A7
:101FD00000004843BC390108000096430000B442A9
:101FE00067AEA943CDCC4C3FFFFF7F3FABE68543B7
:101FF000006F313F9FCD2A3D68B32A3E9A99993EA2
:1020000010B50B4800240B4A0B490460446104627C
:10201000C46310F033FA094A094B4FF60B71D460D0
:102020001160C2E90144C3E90014C3E9024410BDD0
:10203000C806002400000024CD0600081C07002468
:102040000807002406494FF6FF0C0002054BCA683A
:1020500000F4E06002EA0C0210430343CB607047D7
:1020600000ED00E00000FA051B4BDB68C3F3022320
:1020700000B5C3F1070E03F1040CBEF1040F28BF35
:102080004FF0040EBCF1060F1AD9033B4FF0FF3C92
:102090000CFA03FC22EA0C024FF0FF3C00280CFA79
:1020A0000EFC21EA0C0101FA03F141EA02010ADB0C
:1020B00009010A4BC9B2034483F800135DF804FB1D
:1020C00000221346E8E700F00F000901044BC9B2F3
:1020D000034419765DF804FB00ED00E000E100E048
:1020E000FCEC00E0002807DB00F01F0101234009A1
:1020F000024A8B4042F82030704700BF00E100E008
:1021000000280DDB4309012200F01F0005492033A0
:1021100002FA00F041F82300BFF34F8FBFF36F8F37
:10212000704700BF00E100E0431EB3F1807F0CD296
:102130004FF0E022002006494FF0F00C53610723D6
:1021400081F823C09061136170470120704700BF80
:1021500000ED00E0BFF35F8F044B00215A6A22F4C8
:1021600080325A62C3F89410704700BF00ED00E05F
:10217000064B40F00100C3F894005A6A42F48032E2
:102180005A62BFF34F8FBFF36F8F704700ED00E0CF
:10219000174A4378C2F89830017821B3436800B5F4
:1021A000C2F89C30C37A90F80CC01B0690F80FE080
:1021B00043EA0C7390F80AC00B43817B43EACC439B
:1021C00090F80DC043EA8C4390F809C043EA4143BC
:1021D000017A43EA0E4343EA0C2343EA4103C2F87F
:1021E000A0305DF804FBC2F89C10C2F8A010704744
:1021F00000ED00E0704700BF08B5FFF7FBFF08BD2A
:102200002DE9F04F0D6883B0002D00F0D58000233C
:10221000DFF8688201229A4012EA050C00F0C780BC
:102220004E6826F01009B9F1020F40F0C88003F0A3
:1022300007044FEAD30E4FF00F0A4FEA840900EB70
:102240008E0E0AFA09FADEF8204024EA0A0A0C691E
:1022500004FA09F406F0030944EA0A04CEF820401F
:102260004FEA430E0324D0F800A009FA0EF904FA4D
:102270000EF42AEA040AE44349EA0A09C0F8009085
:10228000D0F808A0CF6804EA0A0A07FA0EF949EA6A
:102290000A09C0F80890C6F30019D0F804A009FA9A
:1022A00003F92AEA020249EA02024260C268F70020
:1022B00004EA02048A6802FA0EF242EA0402C260E8
:1022C00075D5644C23F0030E03F00309D4F8F42011
:1022D000C6444FEA890942F00202C4F8F420D4F857
:1022E000F42002F002020192019A0F22DEF8084067
:1022F00002FA09F224EA0202574CA04225D004F562
:102300008064A0427BD0554CA0427ED0544CA04269
:102310006FD0544CA04200F08480534CA04200F097
:102320008680524CA04276D0514CA04200F085806D
:10233000504CA04200F087804F4CA0420CBF0924B3
:102340000A2404FA09F942EA0902CEF808204FF0FB
:10235000B0426FEA0C0EF403D2F880204FF0B04484
:1023600054BF0EEA02024CEA0202C4F88020B20313
:10237000D4F884404FF0B04254BF0EEA04044CEA53
:102380000404F702C2F8844014684FF0B04254BF0E
:102390000EEA04044CEA04041460B40252684FF0DC
:1023A000B04454BF0EEA02024CEA020262600133FA
:1023B00035FA03F27FF42EAF03B0BDE8F08F4FEA99
:1023C000430E0324D0F800B006F0030A04FA0EF41A
:1023D00009F1FF390AFA0EFA2BEA040BB9F1010FE1
:1023E0006FEA04044AEA0B0AC0F800A03FF65EAFA9
:1023F00046E7032404FA09F942EA0902A5E70124A1
:1024000004FA09F942EA09029FE7022404FA09F9E9
:1024100042EA090299E7062404FA09F942EA0902A4
:1024200093E7042404FA09F942EA09028DE7052436
:1024300004FA09F942EA090287E7072404FA09F9CC
:1024400042EA090281E7082404FA09F942EA09028A
:102450007BE700BF00440258000002580008025801
:10246000000C0258001002580014025800180258BC
:10247000001C025800200258002402580004005892
:10248000002900F0A88000232DE9F04FDFF86891C3
:1024900083B0DFF86881DFF868A1DFF868B14FF03A
:1024A000010E0EFA03F212EA010C6FD023F00305BD
:1024B00003F003040F2640454D444FEAC404AF68BF
:1024C00006FA04F607EA0607019721D0504566D0C0
:1024D000584567D0434FB8426ED0434FB84270D092
:1024E000424FB84263D0424FB84256D0414FB842F3
:1024F00072D0DFF814E1704568D0DFF810E1704564
:1025000014BF4FF00A0E4FF0090E0EFA04F400E06B
:102510000024019FA74219D1AC6824EA06064FF0B7
:10252000B044AE60D4F8805025EA0C05C4F8805061
:10253000D4F8845025EA0C05C4F88450256825EAAF
:102540000C052560656825EA0C05656003255C00BF
:1025500003F007070F2605FA04F40568BF002543BA
:1025600006FA07F70560DD0800EB85052E6A26EA06
:1025700007062E62856825EA04058560456825EA18
:1025800002024260C26822EA0404C460013331FAE4
:1025900003F284D103B0BDE8F08F4FF0060E0EFABF
:1025A00004F4B6E74FF0020E0EFA04F4B1E74FF070
:1025B000050E0EFA04F4ACE74FF0030E0EFA04F425
:1025C000A7E74FF0040E0EFA04F4A2E74FF0080E4E
:1025D0000EFA04F49DE770474FF0070E0EFA04F46C
:1025E00097E700BF000C0258001002580014025870
:1025F00000180258001C025800040058000002583D
:102600000004025800080258002002580024025812
:102610000369194214BF01200020704702B9090460
:1026200081617047143001F009BA00BF143001F025
:1026300001BA00BF38B500F1140504462DED028B38
:10264000284601F0E9F9284601F0F4F92846B0EEF1
:10265000408A01F0DDF9D0ED007AF8EE677A88EE75
:10266000277ABDEC028B84ED0E7A38BD10B540F2AE
:1026700003338EB000244FF60B7240F20341ADF8E5
:10268000083009A80123ADF81020ADF82420224617
:10269000ADF80C100094029907940C94CDE9054410
:1026A000CDE90A4401F060FB04A801232246039906
:1026B000009401F059FB09A801F03CFC10B901207D
:1026C0000EB010BD04A801F035FCA0420CBF0220E2
:1026D00020460EB010BD00BF2DE9F04103239AB093
:1026E000012700240646CDE914373B4BCDE91043C2
:1026F00040F20453CDE91647ADF84830FFF7B6FF76
:10270000B842054625D0022845D040F60132334B69
:102710000DF12C081894ADF82C200B981997CDF8D2
:102720004A3000F0E3F810A906F13C0002F03CFC4E
:10273000302003224FF07E5341460D930E93CDE996
:102740000B02F26B06F1140001F02AF91AB0BDE891
:10275000F0811023214A06A906908DF828300DF14A
:102760002C081F4BCDF84A2007930294CDE918049A
:10277000CDE9080402A801F04FFE0823029A03A93C
:102780004046ADF80C508DF80E40049505930B941F
:1027900000F0ECF8C7E700200121104B0DF12C08E8
:1027A0003A460094CDF84A304FF60B730C94ADF8CE
:1027B0002C302346CDE9180140F601314046ADF8F2
:1027C00018100699CDE90D4401F0CEFA2146404695
:1027D00001F0BCFBA7E700BF0402040404060403E5
:1027E0000704010B2DE9F04704462DED028B82B062
:1027F00000294DD0012140F2011200230091ADF8D3
:1028000004208DF80630364A0127364B04F10409BE
:10281000354904F12908626040F20272A36040F673
:102820000663E16004F1250AA4F82520A4F8293004
:10283000278284F8277084F82B7002F077FF054612
:1028400002F0DAFD6946064650BB4DB304F1300094
:102850008DF8067002F0F2FE072D3CD104F114054C
:102860002046FFF739FF284601F0E4F82846B0EE8D
:10287000408A01F0CDF8D0ED007AF8EE677A88EE64
:10288000277A84ED0E7A02B0BDEC028BBDE8F087AA
:1028900040F2011300918DF80610ADF80430B2E754
:1028A00004F1300002F0CAFE072D11D0494620463F
:1028B00001F0FAFF0EB9002DD0D1504601F050FBC7
:1028C000404601F04DFB04F1120000F079F9C5E734
:1028D000002EF2D1C2E74946204601F0E5FFBDE7F0
:1028E0000508050905070506050A060610B584B0A2
:1028F00003460124ADF8040003A8ADF80C30ADF890
:102900000E4001F02DFB214603A801F005FC2046F6
:1029100002F06AFD002103A801F0FEFB204602F050
:1029200063FD214603A801F0F7FB04B010BD00BF12
:1029300010B5C2F3002384B00C46017C8DF80D2045
:1029400043EA4402FA2402238DF80C2003AA0094DF
:1029500001F0F8FD18B10124204604B010BD044672
:102960000A2002F041FD204604B010BD034670B5B8
:1029700043F8042B044684B007C983E80700A37911
:1029800083B91A210B461E22FA2523742046ADF87E
:102990000C20022303AA009501F0D4FD28B10120E8
:1029A00004B070BD1B210B46EDE70A2002F01CFDB0
:1029B0004FF4B85200950223ADF80C20204603AA2C
:1029C000217C01F0BFFD0028E9D10A2002F00CFDB6
:1029D00041F2027200950223ADF80C20204603AAB2
:1029E000217C01F0AFFD0028D9D10A2002F0FCFCC7
:1029F000042200950223ADF80C20204603AA217C76
:102A000001F0A0FD0028CAD10A2002F0EDFC062248
:102A100000950223ADF80C20204603AA217C01F08A
:102A200091FD0028BBD10A2002F0DEFC41F2082211
:102A300000950223ADF80C20204603AA217C01F06A
:102A400081FD0028ABD10A20064602F0CDFC00959E
:102A5000022303AA217C2046ADF80C6001F072FD30
:102A600000289CD1304602F0BFFC009522790C234F
:102A70002046002A8DF80C3003AA4FF0020314BF41
:102A8000622142218DF80D10217C01F05BFD0028B0
:102A900085D1304602F0A8FC2279D4E902310B43FB
:102AA000DBB20AB943F0400362790AB143F0200374
:102AB0000E22FA258DF80D302046009502238DF860
:102AC0000C2003AA217C01F03DFD00287FF467AFB4
:102AD0000A2002F089FC102200950223ADF80C2098
:102AE000204603AA217C01F02DFD00287FF457AF7A
:102AF0000A2002F079FC122100950223ADF80C1097
:102B000003AA217C204601F01DFD00287FF447AF79
:102B10000A2002F069FC012209212046FFF708FF84
:102B2000003818BF01203BE7F0B5102387B0234CD5
:102B3000012200250126002702A920460195CDE9A2
:102B400002234FF48052CDE9046708F0AFFF642000
:102B500003F02AFC02A94FF480522046CDE9046715
:102B600002261027CDE9026708F0A0FF03221023F8
:102B700002A92046CDE9022300230422CDE9042343
:102B80004FF4805208F092FF40F23223042202A94F
:102B9000019310232046CDE90223019A01230592D7
:102BA0004FF48052049308F081FF40F6060120465E
:102BB00008F09CFF284607B0F0BD00BF380700248E
:102BC0001C4B00221C494FF0400C30B5054689B023
:102BD0000220596007219A601A620124DA620A22EF
:102BE0004FF4006EDC6006922022CDE90001042043
:102BF0000821CDE9020103201021CDE904010820BC
:102C00006946C3E904024FF4C072181DC3E906C245
:102C10004FF48052C3E909E208F01EFF38B9284694
:102C2000FFF782FF003818BF012009B030BD2046F1
:102C300009B030BD3407002440410052614A0021F0
:102C4000D0B513688EB00A91002B40F0B9805E4B6E
:102C500001214FF683700C2411600221D3F8D42097
:102C60000026032742F48052C3F8D420D3F8D4209E
:102C700002F480520092009AD3F8E02042F0100251
:102C8000C3F8E020D3F8E02002F010020192019A8C
:102C9000D3F8E02042F04002C3F8E020D3F8E0206F
:102CA00002F040020292029AD3F8E02042F00802B9
:102CB000C3F8E020D3F8E02002F008020392039A60
:102CC000D3F8E02042F48072C3F8E020D3F8E0208B
:102CD00002F480720492049AD3F8E02042F0800259
:102CE000C3F8E020D3F8E02002F080020592059AB4
:102CF000D3F8E02042F02002C3F8E020D3F8E0202F
:102D000002F020020692069AD3F8E02042F0040274
:102D1000C3F8E020D3F8E0300C9403F004030793E9
:102D20000323079A0B93CDE9080108A92748FFF769
:102D300067FA48F23712022308A925480C94CDE916
:102D40000823CDE90A67FFF75BFA4CF2037202230E
:102D500008A920480C94CDE90823CDE90A67FFF7BC
:102D60004FFA40F2FF62022308A91B480C94CDE9F8
:102D70000823CDE90A67FFF743FA4FF60C720223E6
:102D800008A916480C94CDE90823CDE90A67FFF796
:102D900037FA4FF63F02022308A911480C94CDE9F7
:102DA0000823CDE90A67FFF72BFA2022022308A99E
:102DB0000A480C94CDE90A67CDE90823FFF720FA09
:102DC0000EB0D0BD30070024004402580010025855
:102DD00000180258000C025800200258001C02582B
:102DE000001402582DE9F04FDFF8108406460D4616
:102DF000144608F118002DED028B89B000AF02F0E7
:102E0000CBF9D8F8183073B3D8F81C30D8F8049040
:102E1000002B43690BBF4FF0080A4FF0100A4FF028
:102E2000020B4FF0040BB9F1000F2AD0A200EA46C2
:102E3000012B02F1070222F00702ADEB020D6846FA
:102E4000ADEB020D694600F03F81022B00F0D68009
:102E5000002B6FD02246C847D5462437BD46BDEC6F
:102E6000028BBDE8F08FD8F81C30002BF5D0D8F8D5
:102E700004904FF0080A4FF0020B4369B9F1000FBC
:102E8000D4D1FB61D8F80030BB61002BE5D0D54828
:102E900002F0F4F96B46BBF1020F786108EE103ACC
:102EA000FB6900F083816A465146A2EBC402954655
:102EB0006200EA46B2FBFBF2AAEBC40085460AEBCD
:102EC0008200EE46F861ADEB010DF8690EEB820C65
:102ED000C7F810C0EC46ADEB010D00EB8201CCF859
:102EE0000400CCF8081001EB82013869E946CCF8FF
:102EF0000C1000EB8201CCF800A001EB8202C9E9C2
:102F000000E0C9E90212012B00F06483022B00F0FB
:102F10006C82002B00F08081620849466046BB69E4
:102F2000984718EE103A24379D46BD46BDEC028BFB
:102F3000BDE8F08F002C8DD01A46D8ED0C6A9FEDBD
:102F4000B27A8446331D36F922E00CF1080C07EE04
:102F500090EA33F922E00232F8EEE77A944267EE23
:102F6000877A67EEA67A4CED027A07EE90EAF8EEE1
:102F7000E77A67EE877A67EEA67A4CED017AE2D8B7
:102F8000F9612246C847984ED8ED0D6A0020F969CC
:102F90002B1D9FED9E7A9FED9E6ADFED9E5A22E0EB
:102FA000F4EEC67AF1EE10FAC0F2C88447F6FE726B
:102FB000D1ED017A45F8202066EEA77AF4EEC77AC3
:102FC000F1EE10FA40F2F080F4EEC67AF1EE10FA6B
:102FD000C0F2D58447F6FE7243F820200230083153
:102FE00084427FF639AFD1ED007A66EEA77AF4EE2F
:102FF000C77AF1EE10FAD3D83246D9E7002C3FF465
:1030000029AFD8ED0C6A84469FED787A0022331DF3
:103010008E4656F822100CF1080C07EE901A53F861
:1030200022100232F8EEE77A944267EE877A67EE72
:10303000A67A4CED027A07EE901AF8EEE77A67EE80
:10304000877A67EEA67A4CED017AE2D8714622467D
:10305000C7F81CE0C847664ED8ED0D6A0020F96934
:103060002B1D9FED6A7A9FED6A6ADFF894C120E01C
:10307000F4EEC67AF1EE10FAC0F279843246D1ED60
:10308000017A45F8202066EEA77AF4EEC77AF1EED1
:1030900010FA40F28780F4EEC67AF1EE10FAC0F230
:1030A0005E84324643F820200230083184427FF6A5
:1030B000D3AED1ED007A66EEA77AF4EEC77AF1EEE0
:1030C00010FAD5D86246DAE7002C3FF4C3AED8ED4B
:1030D0000C6A86469FED477A4FF0000C331D56F878
:1030E0002C200EF1080E82F40002A2F5000207EE79
:1030F000902A53F82C200CF1020CF8EEE77A82F4B7
:1031000000026445A2F5000267EE877A67EEA67AB0
:103110004EED027A07EE902AF8EEE77A67EE877AAC
:1031200067EEA67A4EED017AD9D8F9612246C847F2
:10313000314ED8ED0D6A0020F9692B1D9FED337AD1
:103140009FED336ADFF8BCC01FE0F4EEC67AF1EE03
:1031500010FAC0F2FC833246D1ED017A45F8202006
:1031600066EEA77AF4EEC77AF1EE10FA18D9F4EE0B
:10317000C67AF1EE10FAC0F2DA83324643F8202024
:103180000230083184427FF667AED1ED007A66EEF8
:10319000A77AF4EEC77AF1EE10FAD6D86246DBE7EA
:1031A0006246EBE762467DE7324615E7A100D64668
:1031B0006208073121F00701ADEB010DEA46ADEBE6
:1031C000010D6946ADEB0E0D0AEB8200EC46ADEB4E
:1031D0000E0D01EB8202F861E946CCE900A0C9E9D5
:1031E000001290E6880700240280FFFF00000030F4
:1031F0000082FF7F0000003482FF7F006C07002404
:10320000007E00807E0080FF0000003804FF7FBF4A
:1032100004FF7F3F00FEFF46002C00F0C982BBF197
:10322000020FD8F8242000F0FA827969C7F80490D8
:1032300002EB810E5FED0C5A8A00DCF808100EF1EB
:1032400004007A611A46DCF80C303B61331DD7F874
:1032500010903D61FD69C7E902CB8C46834636F983
:103260002210D8ED0C7A06EE101A33F9221006EE71
:10327000901A3EF92210B8EEC66A07EE101AF8EE60
:10328000E66A3BF92210B8EEC77A26EE256A66EEAA
:10329000A56A27EE257A26EE276A66EEA76A27EE4C
:1032A000277A07EE901A51080232F8EEE77A0AEB15
:1032B0008100944280ED006A05EB810067EEA57AFB
:1032C000C0ED006A0CEB810009EB810180ED007A12
:1032D00098ED0C7A67EE877AC1ED007ABFD8D7F8FF
:1032E00004903D69D7E902CB60466208BB69494654
:1032F0009847D8F82C307A69D8ED0D6A1A441FED3A
:103300003D7A1FED3D6A2B1D904602F1040A5FEDE8
:103310003F5A0022A84ED9E900EC51E0F4EEC67AFB
:10332000F1EE10FAC0F2C78247F6FE7045F82200AF
:103330000CEB0100D0ED007A66EEA77AF4EEC77AC6
:10334000F1EE10FA4BD9F4EEC67AF1EE10FAC0F2B3
:10335000BA8247F6FE70BBF1020F43F822002BD071
:10336000D9F808000844D0ED007A66EEA77AF4EEAA
:10337000C77AF1EE10FA36D9F4EEC67AF1EE10FA09
:10338000C0F2CD8247F6FE7048F82200D9F80C0052
:103390000144D1ED007A66EEA77AF4EEC77AF1EE39
:1033A00010FA1ED9F4EEC67AF1EE10FAC0F2AF822E
:1033B00047F6FE714AF82210023294427FF6B1AD10
:1033C00051080EEB81008900D0ED007A66EEA77AF5
:1033D000F4EEC77AF1EE10FAA0D83046A6E73046F0
:1033E000B9E73146E6E73046CEE7002C00F0E08151
:1033F000BBF1020FD8F8243000F0E1817A69DCF8E3
:10340000081003EB820EC7F804909300DFED6B5AAF
:103410000EF1040000227B61DCF80C303B61331DAF
:10342000D7F810903D61FD69C7E902CB8C46834611
:1034300056F82210D8ED0C7A07EE101A53F8221025
:10344000B8EEC76A07EE101A5EF82210F8EEC76AE7
:1034500007EE101A26EE256A5BF82210B8EEC77A3E
:1034600066EEA56A26EE276A27EE257A66EEA76A3B
:1034700027EE277A07EE901A51080232F8EEE77A23
:103480000AEB8100944280ED006A05EB810067EE53
:10349000A57AC0ED006A0CEB810009EB810180ED9B
:1034A000007A98ED0C7A67EE877AC1ED007ABFD882
:1034B000D7F804903D69D7E902CB60466208BB6942
:1034C00049469847D8F82C307A69D8ED0D6A1A44E5
:1034D0009FED3E7A9FED3E6A131D9246DFF8E4C0F1
:1034E0000022FB612B1D364ED9E9008E4EE0F4EE32
:1034F000C67AF1EE10FAC0F2FC81304645F822009F
:103500000EEB0100D0ED007A66EEA77AF4EEC77AF2
:10351000F1EE10FA49D9F4EEC67AF1EE10FAC0F2E3
:10352000EF813046BBF1020F43F822002AD0D9F8D0
:1035300008000844D0ED007A66EEA77AF4EEC77A68
:10354000F1EE10FA35D9F4EEC67AF1EE10FAC0F2C7
:10355000C98130464AF82200D9F80C000144D1ED67
:10356000007A66EEA77AF4EEC77AF1EE10FA1ED969
:10357000F4EEC67AF1EE10FAC0F2AD813146F86988
:1035800040F82210023294427FF6CBAC510808EB8F
:1035900081008900D0ED007A66EEA77AF4EEC77A52
:1035A000F1EE10FAA3D86046A8E76046BAE7614694
:1035B000E5E76046CEE700BF0280FFFF0000003075
:1035C0000082FF7F007E00800000003404FF7FBF88
:1035D00004FF7F3F002C00F0EB807A690021D8F8CF
:1035E0002430C7F8109003EB820ED7F81C9093009C
:1035F000FD610EF104021FED0C6A7B61331D15465F
:1036000056F821204808D8ED0C6ABBF1020F82F46D
:103610000002A2F5000207EE902A53F8212082F45E
:103620000002B8EEE77AA2F5000227EE067A07EE6E
:10363000902A0AEB8002F8EEE77A27EE267A67EE08
:10364000867A82ED007A09EB80024FEA800067EE0D
:10365000A67AC2ED007A27D05EF8212082F400021B
:10366000A2F5000207EE902A55F8212082F400020C
:10367000B8EEE77AA2F5000227EE067A07EE902A66
:10368000DCF80820F8EEE77A024427EE267A67EEA7
:10369000867A82ED007A98ED0C7ADCF80C2067EEE1
:1036A000877A0244C2ED007A02318C42A8D8D7F85A
:1036B000109060466208BB694946FD699847D8F892
:1036C0002C307A69D8ED0D6A1A441FED407A1FED4F
:1036D000406A131D9246DFF8C4C20022FB612B1D15
:1036E000AB4ED9E9008E4EE0F4EEC67AF1EE10FA58
:1036F000C0F2C580304645F822000EEB0100D0ED47
:10370000007A66EEA77AF4EEC77AF1EE10FA49D99C
:10371000F4EEC67AF1EE10FAC0F2BF803046BBF18B
:10372000020F43F822002AD0D9F808000844D0ED4F
:10373000007A66EEA77AF4EEC77AF1EE10FA35D980
:10374000F4EEC67AF1EE10FAC0F2AE8030464AF8D6
:103750002200D9F80C000144D1ED007A66EEA77A78
:10376000F4EEC77AF1EE10FA1ED9F4EEC67AF1EE55
:1037700010FAC0F28B803146F86940F8221002320C
:1037800094427FF6CEAB510808EB81008900D0ED62
:10379000007A66EEA77AF4EEC77AF1EE10FAA3D8B3
:1037A0006046A8E76046BAE76146E5E76046CEE7CF
:1037B000224649466046BB699847FFF7B2BBC7F847
:1037C00010B0002298ED0C6A331DDFED726AD7F855
:1037D0001CB0786956F8221007EE901A53F82210A0
:1037E000B8EEE77A07EE901A51080232F8EEE77A5F
:1037F00027EE267A0AEB810E94420BEB810167EEED
:10380000A67A27EE067A67EE867A8EED007AC1ED0B
:10381000007ADFD88300D7F810B07B614DE61A46F6
:10382000C7F810B098ED0C6A331DDFED5B6AD7F86E
:103830001CB0786936F9221007EE101A33F92210FD
:1038400007EE901AB8EEC77A51080232F8EEE77A1E
:1038500027EE267A0AEB810E94420BEB810167EE8C
:10386000A67A27EE067A67EE867A8EED007AC1EDAB
:10387000007ADFD88300D7F810B07B6134E5F0EE32
:10388000675AFEEEE45A15EE900A34E7F0EE675AF6
:10389000FEEEE45A15EE901A6EE7F0EE675AFEEE71
:1038A000E45A15EE900A3AE7F0EE675AFEEEE45A53
:1038B00015EE900A4BE767EEA57AFDEEE77A17EE74
:1038C000900A00B232E567EEA57AFDEEE77A17EED0
:1038D000900A00B23FE5F0EE675AFEEEE05A15EEB0
:1038E000901A4CE6F0EE675AFEEEE05A15EE900A9A
:1038F00030E6F0EE675AFEEEE05A15EE900AFDE56E
:10390000F0EE675AFEEEE05A15EE900A0AE667EE10
:10391000A57AFDEEE77A17EE901A09B24AE567EE4E
:10392000A57AFDEEE77A17EE900A00B22CE5F0EEEC
:10393000675AFEEEE45A15EE902A1FE467EEA57A68
:10394000FDEEE77A17EE902A12B2FFF731BBF0EEE8
:10395000675AFEEEE45A15EE902AFFF7FDBBF0EE33
:10396000675AFEEEE05A15EE902AFFF79BBBF0EE89
:10397000675AFEEEE05A15EE902AFFF780BB67EE1D
:10398000A57AFDEEE77A17EE902A12B2FFF724BB74
:1039900082FF7F0000000030000000387E0080FFC2
:1039A00030B5184C154685B0046004F1080EEC469D
:1039B0000FC98EE80F00D4ED047AF5EEC07A8CE8DA
:1039C0000F00F1EE10FA1ADDB7EE006A94ED057AF9
:1039D00027EE277AC6EE276A84ED0D7AC4ED0C6ACD
:1039E0006DB1204640F8185F01F0D6FB0649036927
:1039F0000020064A2162A262E36005B030BD0120CA
:103A000005B030BD6C0700240020003000000030FD
:103A100000680830704700BFB1F5807F03680A4630
:103A200028BF4FF48072B1F5807F9A6094BF002068
:103A3000012070470068183001F00EBC30B50468F2
:103A400083B00D46E3694BB1A3680020E26A616A66
:103A50009B00009004F11C0001F0A0FBA368074844
:103A6000A26A9B00216A009004F1180001F096FB05
:103A70000020C4E9005003B030BD00BFE52D0008B0
:103A800010B4074B4FF07E513024002203201961FF
:103A90009C60D8605DF8044B5961C3E90622704709
:103AA0006C070024704700BFF8B5134F3C687F2CAB
:103AB00007D98023114A42F224411C463B60A2F8F8
:103AC0007E100F4D2B68012B0AD90C4E0D4D22464E
:103AD0003146284600F02CF90028F8D13860F8BDAE
:103AE00022460649074800F023F90028F7D12B6841
:103AF000386001332B60F8BDA8070024AC07002410
:103B0000A40700242C08002430B4154C2168F1B11E
:103B10004B1E144DE81810F801298C4619460A2A44
:103B200001D00D2A02D14BB1013BF4E70CF10203A5
:103B30007F2B10D98023236030BC704701220223E1
:103B400023600D200A236854AB5430BC7047012217
:103B50000223044DF4E70CF101026146F0E700BFD7
:103B6000A8070024AC07002410B5094C02460B46F8
:103B7000084821680844C1F180010EF03DFE236829
:103B800018442060FFF7C0FFFFF78EFF10BD00BF95
:103B9000A8070024AC0700240FB400B583B004A923
:103BA00051F8040B0191FFF7DFFF03B05DF804EB60
:103BB00004B0704710B5044600210A4800F032F8FE
:103BC000002C094B14BF0222002208481A60FFF79C
:103BD000E3FF0748FFF7E0FF0A20BDE8104001F0CF
:103BE00003BC00BF2C080024A4070024103A0108DD
:103BF000203A0108064A0749074808B50EF03EFC7E
:103C0000034A04490548BDE808400EF037BC00BF30
:103C100000000024A53A00082C08002430080024E5
:103C2000704700BF012910B506D0022915D051B147
:103C3000BDE8104005F050B80A463448344909F050
:103C4000E5F9E8B1FEE7334B0A46334C33493448D3
:103C50001C6009F0DBF968B1FEE701222C492B4812
:103C600009F0D4F900B1FEE72E49284809F0F0F92F
:103C7000C0B1FEE72B492A4809F0EAF960B1FEE736
:103C80002849224809F0E4F900B1FEE726491F4817
:103C900009F06CF908B3FEE72449214809F066F9F8
:103CA000A8B1FEE72049194809F060F900B1FEE724
:103CB000164809F0E3F9024640B9164B164C17496D
:103CC00017481C6009F0A2F968B1FEE7FEE7144846
:103CD00009F0D4F90028ABD0FEE70C4809F0CEF982
:103CE0000028A5D0FEE70F490D4809F0B1F900B151
:103CF000FEE70E490A4809F039F900B1FEE7084825
:103D000009F0BCF9002893D0FEE700BFD00A0024D8
:103D1000BC0000246C0D0024213C0008A0000024FD
:103D200034080024240100248000002470000024B2
:103D3000084691B208B501F033FE003818BF0120E3
:103D400008BD00BF014804F0A5BA00BF103600242A
:103D5000014804F09FBA00BF10360024014804F067
:103D600099BA00BF1036002410B592B0ADF8041017
:103D70000180C9B2149C0B29C460C0E901233FD063
:103D800090F801C0BCF10F0F3AD8022A3FD0032AA5
:103D900002D0012A00D000220E92012B02D0022B69
:103DA00018BF0023022C0F932CD0032C2AD0012CF7
:103DB00028D000230A29109327D85C4A02EB8122DD
:103DC00002610A2914D8DFE801F0A39587796B5DB9
:103DD0004F4133250600564BD3F8E01041F4806183
:103DE000C3F8E010D3F8E03003F480630C930C9B2D
:103DF00001230DA9104603FA0CF30D93FEF700FA08
:103E000012B010BD0A291094D7D90022D8E7112288
:103E10000E92C2E7464BD3F8E01041F40071C3F8AC
:103E2000E010D3F8E03003F400730B930B9BDFE753
:103E30003F4BD3F8E01041F48071C3F8E010D3F8A1
:103E4000E03003F480730A930A9BD1E7384BD3F830
:103E5000E01041F08001C3F8E010D3F8E03003F047
:103E600080030993099BC3E7314BD3F8E01041F07D
:103E70004001C3F8E010D3F8E03003F040030893AA
:103E8000089BB5E72A4BD3F8E01041F02001C3F8B6
:103E9000E010D3F8E03003F020030793079BA7E777
:103EA000234BD3F8E01041F01001C3F8E010D3F831
:103EB000E03003F010030693069B99E71C4BD3F800
:103EC000E01041F00801C3F8E010D3F8E03003F04F
:103ED00008030593059B8BE7154BD3F8E01041F0E1
:103EE0000401C3F8E010D3F8E03003F004030493B6
:103EF000049B7DE70E4BD3F8E01041F00201C3F8BC
:103F0000E010D3F8E03003F002030393039B6FE764
:103F1000074BD3F8E01041F00101C3F8E010D3F8EB
:103F2000E03003F001030293029B61E700000258B6
:103F30000044025808B5012143780069994089B2CC
:103F4000FEF766FB003818BF012008BD01230A46B2
:103F50004178006903FA01F189B2FEF75FBB00BF47
:103F60008378022B30B504468FB037D0032B33D083
:103F7000012B31D000230A93E378012B2AD0022BA6
:103F800028D000230B93002320460C9302F0EAF87C
:103F90000546204602F0EEF823780990082B13D846
:103FA000DFE803F01F3245586B7E91A40500594BA2
:103FB000D3F8E02042F48072C3F8E020D3F8E03078
:103FC00003F480730893089B09A92846FEF718F9A3
:103FD0000FB030BD0B93D6E70A93CDE711230A93B8
:103FE000CAE74C4B09A92846D3F8E02042F0010269
:103FF000C3F8E020D3F8E03003F001030093009B06
:10400000FEF7FEF80FB030BD424B09A92846D3F8A1
:10401000E02042F00202C3F8E020D3F8E03003F0E1
:1040200002030193019BFEF7EBF80FB030BD394B53
:1040300009A92846D3F8E02042F00402C3F8E020A2
:10404000D3F8E03003F004030293029BFEF7D8F8A4
:104050000FB030BD2F4B09A92846D3F8E02042F01D
:104060000802C3F8E020D3F8E03003F0080303931C
:10407000039BFEF7C5F80FB030BD264B09A92846B3
:10408000D3F8E02042F01002C3F8E020D3F8E0308B
:1040900003F010030493049BFEF7B2F80FB030BD99
:1040A0001C4B09A92846D3F8E02042F02002C3F8AF
:1040B000E020D3F8E03003F020030593059BFEF7E2
:1040C0009FF80FB030BD134B09A92846D3F8E02064
:1040D00042F04002C3F8E020D3F8E03003F04003A0
:1040E0000693069BFEF78CF80FB030BD094B09A96B
:1040F0002846D3F8E02042F08002C3F8E020D3F84D
:10410000E03003F080030793079BFEF779F80FB0C8
:1041100030BD00BF0044025870B506460D4602F09F
:1041200021F80446304602F025F82A1E01462046B2
:1041300018BF0122BDE87040FEF770BA00231222BA
:1041400070B586B0CDE9022304930368032B01D830
:1041500004230593061D841D304602F003F805462E
:10416000304602F007F8034601A928460193FEF7FE
:1041700047F8204601F0F6FF034620461C4601F0B2
:10418000F9FF01A9034620460193FEF739F806B06E
:1041900070BD00BF634A0368934210B58CB028D04D
:1041A000614A934258D0614A934200F09480604A39
:1041B000934201D00CB010BD5E4C5F48D4F8E030A3
:1041C00043F00203C4F8E030D4F8E03003F0020317
:1041D0000A930A9BFFF7B2FFD4F8F43043F0800350
:1041E000C4F8F430D4F8F43003F080030B930B9B45
:1041F000E0E7504C5148D4F8E03043F00203C4F8F3
:10420000E030D4F8E03003F002030193019BFFF7A4
:1042100095FFD4F8E83000221F2043F40013114624
:10422000C4F8E830D4F8E83003F400130293029B9A
:10423000D4F8D83043F00103C4F8D830D4F8D830DB
:1042400003F001030393039BFDF70EFF1F200CB047
:10425000BDE81040FDF746BF364C3948D4F8E03091
:1042600043F08003C4F8E030D4F8E03003F080037A
:104270000493049BD4F8E03043F00203C4F8E03028
:10428000D4F8E03003F002030593059BFFF756FFD7
:10429000D4F8E8300022212043F480031146C4F80A
:1042A000E830D4F8E83003F480030693069BD4F892
:1042B000D83043F00103C4F8D830D4F8D83003F034
:1042C00001030793079BFDF7CFFE21200CB0BDE84B
:1042D0001040FDF707BF1B48FFF730FF154B0022CA
:1042E0004820D3F8E840114644F40004C3F8E840FD
:1042F000D3F8E84004F400040894089CD3F8D840AC
:1043000044F00104C3F8D840D3F8D83003F00103D7
:104310000993099BFDF7A8FE48200CB0BDE81040AA
:10432000FDF7E0BE0054004000580040005C004033
:10433000001C005800440258FC0F0024740D002497
:104340004C0E0024240F00242DE9F0431A4B87B0B3
:1043500000254FF010099E46EC46184BFF22E04620
:1043600067461A700EF118060EF13004CDE90055BB
:10437000CDE90255ADF80090BCE80F00CDE9045539
:10438000AEE80F009CE803000095ADF800908EE8C1
:104390000300B8E80F000FC69CE803000095ADF8D5
:1043A000009086E803000FCF0FC49CE8030084E868
:1043B000030007B0BDE8F08320000024710D002445
:1043C00010B5EFF3108472B6084B1A78120602D5B6
:1043D00004B962B610BD1B78D82205485BB202FB57
:1043E0000300143002F056FCF2E700BF710D002408
:1043F000740D0024014803F033BE00BF000E0024FA
:10440000014803F02DBE00BFD80E0024014803F080
:1044100027BE00BFB00F00242DE9F0430F68D82459
:104420003F4D85B007FB04F4032F05EB0403036045
:1044300040DCCB680E46012B3CD84DD04FF0D8085D
:10444000B646DFF8FC9008FB0758BEE80F00C446EC
:10445000ACE80F00DEF800300DF1100ECCF80030A3
:10446000D8F808C099E80F000EE90F000EEB87039B
:10447000BCF1010F53F8103CC8F88C3031D0BCF1BE
:10448000020F42D0BCF1000F35D0317C8C34D823E0
:10449000002201202C4403FB07534900C3E92602F4
:1044A000C3F894102046C3E92822C3E92A2203F066
:1044B000C9FB18B1012005B0BDE8F08301462046D4
:1044C00003F0DAFD0028F5D10146204603F0FEFD99
:1044D000003818BF0120EEE70B7C103B672BADD9ED
:1044E000E8E701F021F90F4B98420CBF0E4B0F4B40
:1044F000C8F89030C9E701F017F90A4B98420CBF91
:104500000B4B0C4BC8F89030BFE701F00DF9054B91
:1045100098420CBF084B094BC8F89030B5E700BF74
:10452000740D0024000E27072D0FB0303211D0205B
:104530005F4390608A62E030200BA0101A0980105F
:10454000883901082DE9F041D0F8008082B00D468D
:1045500017461E4608F18C04204603F089FD2028EA
:10456000FAD1D8F80C3073B96D002046089C334658
:104570003A46A9B2009403F0BBFB003818BF0120F3
:1045800002B0BDE8F081089B32463946204603F070
:1045900083FCF2E7044B10221A7483F8E82083F8B6
:1045A000C02183F898227047740D002430B5002391
:1045B00095B04FF48071062204460B930692139334
:1045C000CDE90C13CDE90E33CDE9113301F0AEF88E
:1045D00007282BD004F1100541F2883206A928469D
:1045E00004F0C6FC28B10123184684F85C3015B0ED
:1045F00030BD0222022306A92846CDE9002310225D
:104600000123CDE9022300224FF48003CDE90423E6
:1046100005224FF0807306926A460F9341F2883369
:1046200004F012FE0028DED115B030BD03230120B6
:1046300084F85C3015B030BD70B50023A4B04FF0E5
:1046400080724FF480750446ADF806300D93CDE9C5
:1046500010320122CDE90E53CDE91223CDE91433F6
:10466000002943D0F02300F1100508AEADF8063064
:10467000C02341F2883231462846089304F078FC82
:1046800028B10123184684F85C3024B070BD41F293
:1046900088320DF10601284604F0D4FC03460028B8
:1046A000EFD105224FF480711E93284616924FF0E9
:1046B00080721B9321931F9202AA9FED1F7BCDE96D
:1046C0001C13CDE922338DED027B9FED1D7B41F262
:1046D000883316A98DED047B9FED1B7B8DED067B4A
:1046E00004F0B2FD0028CCD124B070BD00F110055B
:1046F00008AE612341F2883231462846089304F01F
:1047000037FC0028BDD141F288320DF10601284660
:1047100004F016FD0028B4D1BDF80630204623F081
:10472000780343F04003ADF80630FFF73FFF002861
:104730009ED0A6E7AFF3008000000000010000005B
:104740001000000001000000000000000000400018
:104750002DE9F04F00234FF4807501264FF080784B
:1047600004462DED028BABB08DF8073013932193E7
:10477000299314950E96CDF85C80CDE91533CDE9DB
:104780001863CDE91A33CDE92253CDE92433CDE9BD
:10479000273306231C9300F0C9FF072808D004F133
:1047A000100741F288321CA9384604F0E1FB40B101
:1047B0000123184684F85C302BB0BDEC028BBDE8B9
:1047C000F08F4FF0020A4FF0020B4FF0050941F253
:1047D000883308AA1CA93846CDF89480CDF870908B
:1047E0009FED2D8BCDE908AB4FF0000A4FF4800B05
:1047F0008DED0A8BCDE90CAB04F026FD0028D7D156
:1048000041F2883238460EA904F0B2FB0028CFD11D
:10481000402341F288320DF1070138468DF8073008
:1048200004F010FC0028C3D141F288330EA902AA7B
:104830003846CDF83890CDF85C809FED197B8DED32
:10484000048BCDE906AB8DED027B04F0FDFC034645
:104850000028ADD1CDF870904FF00109CDF89480CB
:104860004FF00008219308AA29931CA938462295E5
:10487000CDE92333CDE9273341F288338DED0A8B1F
:10488000CDE90CABCDE9088904F0DEFC002893D01B
:10489000304684F85C608FE71000000001000000E3
:1048A00040000000400000002DE9F043624CA3B03E
:1048B0000D46046000F03AFF072800F0A980286840
:1048C00023466968AA6807C31E46AB8926F8043BDD
:1048D0003046257B677B04F02DFBE0B9574B012D5B
:1048E0004FF00108E061236114BF4FF480134FF4CF
:1048F0000003C4E9058893FAA3F3B3FA83F34FF4F2
:104900008079013BC4F82490C4E90B00304623624F
:1049100004F0A4FA38B10122134684F85C2018464A
:1049200023B0BDE8F08366230B90139041F28832E8
:1049300006A90693CDE90C90CDE90E00CDE9110052
:10494000304604F015FB0028E5D1992341F2883266
:1049500006A93046069304F00BFB0028DBD10523A3
:104960001C9019906A4614934FF08073219014A9FB
:104970001D9341F288339FED2A7BCDE91A90CDE952
:104980001F008DED007B9FED287B30468DED027B77
:104990009FED277B8DED047B04F056FC0028BAD1F7
:1049A00029462046FFF748FE0028B4D12046FFF7ED
:1049B000CFFE03460028AED1002FB0D11893304669
:1049C0000027002606AA14A9CDF86890CDE91F3368
:1049D000EB2314934FF440631B934FF4005317934E
:1049E0004FF440431C93A0231693062319934FF0D2
:1049F000805321934FF04073CDE906671D9304F077
:104A00009BFC034600288AD0434684F85C8086E7F6
:104A100001230322184684F85C2023B0BDE8F0830C
:104A20000000000001000000100000000100000074
:104A30000000000000004000D4100024005000528C
:104A40002DE9F04F8FB0414B0024026800AF9A422D
:104A50007C63C7E90944C7E90B4403D03C37BD4632
:104A6000BDE8F08F3A4B40F609213A48EB46D3F8BF
:104A7000D42007F11C0607F1220A4FF0020942F484
:104A800080424FF00308C3F8D420D3F8D42002F4B6
:104A90008042BA60BA68D3F8E02042F04002C3F81E
:104AA000E020D3F8E02002F04002FA60FA68D3F880
:104AB000E02042F02002C3F8E020D3F8E02002F02A
:104AC00020023A613A69D3F8E02042F01002C3F8BC
:104AD000E020D3F8E02002F010027A617A69D3F87E
:104AE000E02042F00202C3F8E020D3F8E030F861A1
:104AF00003F002033984BB61174B7B60BB697B68A1
:104B000053F8040F7B6001F02DFB7B6805461868A5
:104B100001F030FB16F8013B786207F124012846CA
:104B2000C7F830807B63C7E90A94FDF769FB5645F7
:104B3000E5D100225C201146FDF796FA5C20FDF7D6
:104B4000D1FA3C37DD46BD46BDE8F08F005000523B
:104B5000004402580A0A090930110024114B026866
:104B60009A4200D07047104A70B5D2F8D4300F4C3A
:104B700023F4804304F11806C2F8D43054F8040F2B
:104B800001F0F0FA0546206801F0F4FA01462846E3
:104B9000FDF776FCB442F1D15C20BDE87040FDF732
:104BA000AFBA00BF00500052004402583011002438
:104BB000014804F04DBC00BFE4100024084B1A1D4E
:104BC000981D03F1080110B49C1C9A6603F10A02B7
:104BD000C3E91834C3E91B015DF8044B5A677047F9
:104BE000D410002438B5036871B9026A00F12805B1
:104BF00000F5AC74012A0CBF002140218BBB1D4B7A
:104C00005722C0F858310DE0426A00F1C00500F5A6
:104C1000E874012A0CBF00214021EBB1164B5A2247
:104C2000C0F8D03100232046C4E901214FF480525E
:104C30004FF48061636262614FF48042C4E90331E2
:104C40004FF48073C4E906234FF40033236201F06C
:104C5000A9FC58B1FFBEFEE7084B5822C0F8D0317E
:104C6000E0E7074B5922C0F85831DBE7C5E920449B
:104C7000A56338BD100002407000024028000240C9
:104C8000580002402DE9F043821D05468BB0031DFC
:104C900005F10A010830CDE9052305F10C02AB69E5
:104CA000CDE907010992002B3DD0EB69B3FA83F8F7
:104CB0004FEA58180123022205AE0AAF4FF0060949
:104CC0000393CDE9012356F8044B2B7922789342C4
:104CD00016D02B68F3B1012B02D1F2B10A23049351
:104CE000204601F047FA03462046009301F03AFAC5
:104CF0006946FDF785FABE42E5D10BB0BDE8F08309
:104D0000697963789942E4D1B8F1000FF3D02B6848
:104D1000002BE0D1CDF81090E2E76378022B14BFAE
:104D20000A230823DBE74FF00108C3E7534A03686F
:104D3000934230B505468BB055D02032934252D0C5
:104D40004F4A934204D02032934201D00BB030BD81
:104D50004C4C4D48D4F8E03043F00103C4F8E03047
:104D6000D4F8E03003F001030593059BD4F8E0305C
:104D700043F00803C4F8E030D4F8E03003F008034F
:104D80000693069BD4F8E03043F04003C4F8E030CB
:104D9000D4F8E03003F040030793079BD4F8F030D9
:104DA00043F40003C4F8F030D4F8F03003F4000307
:104DB0000893089BFFF766FFD4F8D830296843F0C2
:104DC00001032F4A3048C4F8D830891AD4F8D830B3
:104DD00018BF012103F001030993099B0BB0BDE843
:104DE0003040FFF7FFBE274C2848D4F8E03043F0AE
:104DF0000103C4F8E030D4F8E03003F0010300937D
:104E0000009BD4F8E03043F01003C4F8E030D4F84D
:104E1000E03003F010030193019BD4F8E03043F03D
:104E20004003C4F8E030D4F8E03003F040030293CC
:104E3000029BD4F8F03043F48003C4F8F030D4F887
:104E4000F03003F480030393039BFFF71BFFD4F8B8
:104E5000D830296843F00103084A0C48C4F8D83018
:104E6000891AD4F8D83018BF012103F00103049344
:104E7000049B0BB0BDE83040FFF7B4BE04580140BE
:104E8000045C014000440258A81300244C11002483
:104E9000014801F0FFBE00BFA4120024014801F048
:104EA000F9BE00BF1C130024014801F0F3BE00BF8F
:104EB00000150024014801F0EDBE00BF7815002464
:104EC0001A4A0368934210B40BD02032934208D0A0
:104ED000174A934216D02032934213D05DF8044B08
:104EE0007047144B0022D3F85442C3F85822002CC8
:104EF000F4D0D3F84802D3E9931223465DF8044B6B
:104F0000520818470B4B0022D3F8B044C3F8B4241E
:104F1000002CE3D0D3F8AC24D3F8A814D3F8A4041D
:104F2000520823465DF8044B184700BF045801405F
:104F3000045C01404C110024184A0368934210B4E9
:104F40000BD02032934208D0154A934217D020321A
:104F5000934214D05DF8044B7047124BD3E994246C
:104F60005208C3F85822002CF4D0D3E9920123460A
:104F700001EB820100EB82005DF8044B1847094BFE
:104F8000D3F8AC24D3F8B0445208C3F8B424002CAE
:104F9000E0D0D3F8A814D3F8A404E8E704580140FB
:104FA000045C01404C1100242DE9F04F0C684FF4D3
:104FB0001776754F87B004FB06F6012C07EB060A3F
:104FC000C0F800A000F3A0800D468E464FF0000808
:104FD000D44669A3D3E9002369A1D1E90001CDE951
:104FE000022306ABCAF8508203EB8403CDE9040127
:104FF00053F810BC53F8083CCAE992880193BEE804
:105000000F00ACE80F00BEE80F00ACE80F00019BFA
:105010009EE80300CAF828B0CAF8C0308CE8030044
:105020002B69042B0CD8DFE803F0737D8791030014
:105030004FF41773554A03FB04739A64C3F8E020D6
:10504000AA692B6A002A43D0002B4FF4177308BFBC
:10505000022203FB047318BF0322DA6201221A63DF
:10506000EA696B6A002A40D1191E4FF4177318BF02
:10507000012103FB0473C3E931126B69022B05D8CC
:10508000434A12F80380434A52F823904FF41773AF
:1050900006F128004246494603FB047400233844C5
:1050A00063646363E365C4F8DC30C4F8CC30C4F8EF
:1050B000F430C4E90F33C4E91533C4E93533C4E926
:1050C0003B33022306F066FA002849D0FFBEFEE714
:1050D000191E4FF4177318BF012103FB0473C3E9B2
:1050E0000B12EA696B6A002ABED0002B4FF41773CB
:1050F00008BF022203FB047318BF0322C3F8C420B5
:105100000122C3F8C820B8E7012007B0BDE8F08F3E
:105110004FF417734FF4FA5203FB04739A64C3F805
:10512000E0208DE74FF417734FF47A5203FB0473BA
:105130009A64C3F8E02083E74FF417734FF4FA4200
:1051400003FB04739A64C3F8E02079E74FF4177304
:105150004BF6803203FB04739A64C3F8E0206FE7D8
:1051600006F1C000022342464946384406F012FACE
:105170000028CAD0FFBEFEE704580140045C01408D
:1051800024580140245C01404C11002400770100A8
:10519000303A0108343A01080068704770B5046875
:1051A00082B015460E46C4F85032C4E99212069AEF
:1051B000C4F85422A269012A26D0626A012A9AB24E
:1051C00011D0294604F1C000019206F09FFA236A2B
:1051D000019A012B10D0294604F1280006F096FA16
:1051E000002002B070BD04F1C000019206F020FB67
:1051F000236A019A012BEED1314604F1280006F012
:1052000017FB002002B070BD226A012A9AB211D0A9
:10521000294604F12800019206F078FA636A019A9F
:10522000012B10D0294604F1C00006F06FFA0020CF
:1052300002B070BD04F12800019206F0F9FA636A29
:10524000019A012BEED1314604F1C00006F0F0FACC
:10525000002002B070BD00BF03681B69042B05D895
:10526000044A02EB830393ED000A70479FED020AA4
:10527000704700BF403A010800803B470368D3F8FD
:1052800058027047704700BF08B501F07BF8BDE8D1
:105290000840FCF7B1BF00BF064808B503680BB172
:1052A00002F04AF8044803681BB1BDE8084002F068
:1052B000F1BF08BD20400024183A0024064808B574
:1052C00003680BB102F038F8044803681BB1BDE86D
:1052D000084002F0DFBF08BD20400024183A002437
:1052E000064808B503680BB102F026F804480368C5
:1052F0001BB1BDE8084002F0CDBF08BD204000242E
:10530000183A0024364BDA6A520062D59A6A9A6AD1
:105310009A6A9B6A180600D500BE314B9B6A9906B3
:1053200000D500BE2E4B9B6ADA0600D500BE2C4B82
:105330009B6A1B0700D500BE294B9B6A980700D5C6
:1053400000BE274B9B6AD90700D500BE244B9B6A41
:105350001A0400D500BE224B9B6A9B0400D500BEF8
:105360001F4B9B6AD80400D500BE1D4B9B6A1905D4
:1053700000D500BE1A4B9B6A5A0500D500BE184BDB
:105380009B6A9B0500D500BE154B9B6AD80500D5CE
:1053900000BE134B9B6A990100D500BE104B9B6A5F
:1053A000DA0100D500BE0E4B9B6A1B0300D500BE80
:1053B0000B4B9B6A580300D500BE094B9B6A9903AF
:1053C00000D500BE064B9B6ADA0306D400BE00BEC1
:1053D000FEE7DB6A9B07FAD5F8E700BEF6E700BFF9
:1053E00000ED00E000F0DABF00F0DEBF014601484A
:1053F00009F022BB041600240A4B9B6803F1784392
:10540000B3F5003F0BD3084B986848B19868012862
:1054100006D09868022803D09B68032070470120BB
:10542000704700BF00ED00E0000080382DE9F0413A
:10543000CEB004464C2200210AA80DF075F82022B7
:10544000002102A80DF070F8BC2200211EA80DF06A
:105450006BF8022003F01AFC2368012B4FF00003C5
:1054600054D0534A02250193C820D16A514B21F0F0
:105470000101D162D26A02F0010201929A6942F4FA
:1054800040429A619B6903F440430193019B494A5E
:1054900093699B04FCD548490224002201268B6AAB
:1054A00004274FF0080823F0030323438B620523EE
:1054B00016900AA818934FF48033109617941994F5
:1054C0001597CDF86880CDE91B222122CDE9134440
:1054D000CDE90A2304F0C4F800B1FEE73F2203231C
:1054E000294602A8CDE9022300220823CDE904239E
:1054F00040224023CDE9062340234FF48062CDE9CA
:10550000082304F0DBFB0346B8B1FEE7294A042573
:105510000093F0209169264B41F4404191619269DA
:1055200002F440420092DA6A42F00102DA62DB6A77
:1055300003F001030093009BA9E720224FF4805160
:1055400025934FF440152B9280222D931EA8309363
:10555000269135914FF48071249234920C22339429
:10556000439140F2271120921022CDF884802A978F
:105570001F96CDE92E34CDE93B334FF48033CDE98E
:1055800022463193002446930623CDE93E452793D6
:105590004FF48063094C2C931E94CDE9281204F03B
:1055A000E9FD00B1FEE703F097FB4EB0BDE8F081E6
:1055B0000004005800480258004402580F130F031B
:1055C00070B584B00124FCF7C5FD4FF480764FF030
:1055D0004052194B68460025ADF800400396CDE9CE
:1055E0000123FCF7D5FD19224FF0404368468DF8A2
:1055F000082001938DF80F40ADF80D608DF8014043
:105600008DF80A50FCF7C4FD02230B2268468DF882
:105610000F508DF801304FF062538DF80820019340
:10562000ADF80D408DF80A40FCF7B2FD0420FCF700
:105630009FFD04B070BD00BF0E00010330B50D46E4
:10564000044685B0D1E9000184E8030000F06AFE59
:10565000AB79A3B30AF0FCF8FEF776FE08F052FD32
:1056600009F0F8FD2B798BBB6B799BB1BFF34F8FA2
:10567000BFF36F8F2A4B0022C3F85022BFF34F8F26
:10568000BFF36F8F5A6942F400325A61BFF34F8FF4
:10569000BFF36F8F4FF0FF320023002400256946CF
:1056A000204802928DF80C30CDE9004509F04AF906
:1056B0001C4809F0AFF908F055F905B030BD204697
:1056C000FFF7B4FE2046FFF77BFFC3E7144C00232F
:1056D000C4F88430BFF34F8FD4F8801043F6E07ED7
:1056E000C1F34E3CC1F3C9014FEA4C1C0CEA0E0059
:1056F0000B4640EA8372013BC4F860225A1CF8D181
:10570000ACF1200C1CF1200FF0D1BFF34F8F636977
:1057100043F480336361BFF34F8FBFF36F8FA3E711
:1057200000ED00E00416002404F0F8BB1C4B9B685D
:1057300003F17842B2F5003F25D3B3F5803F20D383
:1057400003F16042B2F5003F1FD303F15C42B2F5B2
:10575000002F1CD303F17042B2F5902F19D303F13F
:105760004842B2F5803F16D303F18042B2F1806F18
:1057700013D303F1E043B3F5000F2CBF082007203B
:1057800070470120704700207047022070470320B7
:10579000704704207047052070470620704700BFFF
:1057A00000ED00E003480023034A044903600CF0C5
:1057B00065BE00BF041600240000002485520008C6
:1057C00010B4204C0022204B83B0D4F888101F481E
:1057D00041F47001C4F8881019681D4C41F00101B2
:1057E00019601A61196808401A4918609A61DA61EB
:1057F0001A629A62DA621A635A639A63DA631A6403
:105800005A64186820F4802018601A66D3F8DC20E7
:1058100042F06042C3F8DC20D3F8DC300193019BF6
:1058200023681940B1F1005F03D20B4B0122C3F88A
:105830000821044B4FF000629A6003B05DF8044BFE
:10584000704700BF00ED00E0004402587FEDF6EA2B
:105850000010005C0000FFFF00800051704700BF97
:105860000020704770B50446074E0D46304621466D
:1058700007F08EFB304607F0ADFB044B204629466F
:105880001B689847002070BD3408002408360024A7
:1058900070B50446074E0D463046214607F078FBAA
:1058A000304607F097FB044B204629461B68984773
:1058B000002070BDD00A00240C36002400220949C3
:1058C000094808B507F05AFB0849074807F060FB8C
:1058D000074B1A680AB1002008BD064A00201A606A
:1058E00008BD00BF08260024340800240816002440
:1058F000083600245D58000800220949094808B507
:1059000007F03CFB0849074807F042FB074B1A68C1
:105910000AB1002008BD064A00201A6008BD00BF79
:10592000082E0024D00A0024081E00240C3600246F
:105930005D58000820280AD0212806D1094B186894
:105940009A889B7908608A808B7100207047054B8C
:105950000868B1F804C08A7918600020A3F804C070
:105960009A7170479000002420280AD0212806D17F
:10597000094B18689A889B7908608A808B7100208F
:105980007047054B0868B1F804C08A791860002098
:10599000A3F804C09A717047980000240020704753
:1059A00010B5094CD4F89032D3F814320BB1012061
:1059B00010BD0A460146204607F0E0FA2046BDE841
:1059C000104007F0EDBA00BF340800244B4A0368CA
:1059D00030B593428BB04FF00004CDE90444CDE9DB
:1059E0000644089404D0464A934249D00BB030BDD7
:1059F000444D4FF4C0524448D5F8E03043F0010321
:105A0000C5F8E030D5F8E03003F00103009302233D
:105A1000009904A9CDE904230A230893FCF7F0FBBD
:105A20004FF40072002304A937480694CDE90423FB
:105A3000FCF7E6FBD5F8D8302246214643F0006358
:105A40006220C5F8D830D5F8D83003F00063019350
:105A5000019BFCF709FB6220FCF744FB2246214630
:105A60006320FCF701FB6320FCF73CFB2246214648
:105A70006520FCF7F9FA6520FCF734FB0BB030BD6C
:105A8000204D4FF4404204A9D5F8E03043F0020322
:105A9000C5F8E030D5F8E03003F0020302930223AA
:105AA00002981A48CDE904230C230893FCF7A8FBBD
:105AB000D5F8D830224621464A2043F00073C5F875
:105AC000D830D5F8D83003F000730393039BFCF76C
:105AD000CBFA4A20FCF706FB224621464B20FCF776
