:020000040800F2
:1000000000000220C10A0008BD0A0008F19F000894
:10001000BD0A0008BD0A0008BD0A00080000000073
:10002000000000000000000000000000BD0A000801
:10003000BD0A000800000000BD0A0008759F000806
:10004000BD0A0008BD0A0008BD0A0008BD0A000874
:10005000BD0A0008BD0A0008BD0A0008BD0A000864
:10006000BD0A0008BD0A0008BD0A0008519A000830
:100070005D9A0008217B0008699A0008759A0008BB
:10008000295B0108CD850008BD0A0008BD0A0008EB
:10009000BD0A0008BD0A0008BD0A0008BD0A000824
:1000A000BD0A0008BD0A0008BD0A0008BD0A000814
:1000B000214F01082D4F0108394F01080186000822
:1000C000BD0A00080D860008BD0A00089147010816
:1000D0009D4701085D59010889590108BD5901086A
:1000E000BD0A0008BD0A000800000000BD0A0008A3
:1000F000BD0A0008BD0A0008BD0A0008BD0A0008C4
:10010000BD0A0008BD0A0008454F0108A9470108BB
:10011000F1590108255A0108ED7D0008BD0A0008C3
:10012000D57D0008E17D0008CD47010801480108A0
:100130005D5B0108BD0A0008BD0A0008BD0A000891
:1001400000000000000000000000000000000000AF
:10015000BD0A0008BD0A0008BD0A0008595A010876
:1001600019860008BD0A0008859F0008A99F00089D
:10017000BD0A0008CD9F0008BD0A0008BD0A00089E
:10018000BD0A0008BD0A00088D5A0108C15A0108BD
:10019000B5470108C1470108BD0A0008BD0A0008AB
:1001A000BD0A0008BD0A0008BD0A0008BD0A000813
:1001B00071970008BD0A0008BD0A0008BD0A0008C2
:1001C000BD0A0008BD0A0008DD750008E9750008D1
:1001D000BD0A0008F5750008BD0A0008BD0A000840
:1001E000BD0A0008BD0A0008BD0A0008BD0A0008D3
:1001F000BD0A0008BD0A0008BD0A0008BD0A0008C3
:10020000BD0A0008BD0A0008BD0A0008BD0A0008B2
:10021000BD0A0008BD0A0008BD0A0008BD0A0008A2
:10022000BD0A0008BD0A0008BD0A00080000000061
:10023000BD0A0008BD0A000800000000BD0A000851
:10024000BD0A0008BD0A0008BD0A0008BD0A000872
:10025000BD0A0008BD0A0008BD0A0008BD0A000862
:10026000BD0A0008BD0A0008BD0A0008BD0A000852
:10027000BD0A0008BD0A0008F55A01080000000088
:10028000BD0A0008BD0A0008BD0A00080000000001
:0802900000000000BD0A000897
:1002A00010B5054C237833B9044B13B10448AFF3B0
:1002B00000800123237010BD4008002400000000CE
:1002C00040D5010808B5034B1BB103490348AFF300
:1002D000008008BD000000004408002440D501084B
:1002E00010F8012B11F8013B012A28BF9A42F7D0E0
:1002F000D01A70470000000000000000000000005D
:1003000001F0FF01102A2BDB10F0070F08D010F8C6
:10031000013B013A8B422DD010F0070F42B3F6D1CA
:10032000F0B441EA012141EA014122F007047FF0E3
:1003300000070023F0E80256083C85EA010586EA3A
:10034000010685FA47F5A3FA87F586FA47F6A5FA76
:1003500087F68EB9EED1F0BC01F0FF0102F0070282
:1003600032B110F8013B013A83EA010313B1F8D12D
:100370000020704701387047002D06BF354603380E
:10038000073815F0010F07D1013015F4807F02BF47
:10039000013015F4C03F0130F0BC0138704700BF98
:1003A00081F0004102E000BF83F0004330B54FEA26
:1003B00041044FEA430594EA050F08BF90EA020F93
:1003C0001FBF54EA000C55EA020C7FEA645C7FEA26
:1003D000655C00F0E2804FEA5454D4EB5555B8BF49
:1003E0006D420CDD2C4480EA020281EA030382EABA
:1003F000000083EA010180EA020281EA0303362D4C
:1004000088BF30BD11F0004F4FEA01314FF4801C1E
:100410004CEA113102D0404261EB410113F0004F30
:100420004FEA03334CEA133302D0524263EB4303E7
:1004300094EA050F00F0A780A4F10104D5F1200E85
:100440000DDB02FA0EFC22FA05F2801841F10001E0
:1004500003FA0EF2801843FA05F359410EE0A5F1B4
:1004600020050EF1200E012A03FA0EFC28BF4CF0E5
:10047000020C43FA05F3C01851EBE37101F000459B
:1004800007D54FF0000EDCF1000C7EEB00006EEBA8
:100490000101B1F5801F1BD3B1F5001F0CD3490832
:1004A0005FEA30004FEA3C0C04F101044FEA445289
:1004B00012F5800F80F09A80BCF1004F08BF5FEA10
:1004C000500C50F1000041EB045141EA050130BDF0
:1004D0005FEA4C0C404141EB0101013C28BFB1F502
:1004E000801FE9D291F0000F04BF01460020B1FA4D
:1004F00081F308BF2033A3F10B03B3F120020CDA20
:100500000C3208DD02F1140CC2F10C0201FA0CF0FD
:1005100021FA02F10CE002F11402D8BFC2F1200C62
:1005200001FA02F120FA0CFCDCBF41EA0C01904018
:10053000E41AA2BF01EB0451294330BD6FEA040461
:100540001F3C1CDA0C340EDC04F11404C4F120024C
:1005500020FA04F001FA02F340EA030021FA04F35E
:1005600045EA030130BDC4F10C04C4F1200220FAB5
:1005700002F001FA04F340EA0300294630BD21FAF3
:1005800004F0294630BD94F0000F83F4801306BFB9
:1005900081F480110134013D4EE77FEA645C18BFAD
:1005A0007FEA655C29D094EA050F08BF90EA020F44
:1005B00005D054EA000C04BF1946104630BD91EA3C
:1005C000030F1EBF0021002030BD5FEA545C05D13F
:1005D0004000494128BF41F0004130BD14F580047E
:1005E0003CBF01F5801130BD01F0004545F0FE41F2
:1005F00041F470014FF0000030BD7FEA645C1ABF27
:10060000194610467FEA655C1CBF0B46024650EA5D
:10061000013406BF52EA033591EA030F41F4002189
:1006200030BD00BF90F0000F04BF0021704730B50F
:100630004FF4806404F132044FF000054FF00001E4
:1006400050E700BF90F0000F04BF0021704730B5A5
:100650004FF4806404F1320410F0004548BF40427A
:100660004FF000013EE700BF42004FEAE2014FEACF
:1006700031014FEA02701FBF12F07F4393F07F4FAA
:1006800081F06051704732F07F4208BF704793F0AD
:100690007F4F04BF41F40021704730B54FF46074C0
:1006A00001F0004521F000411CE700BF50EA0102C3
:1006B00008BF704730B54FF000050AE050EA01026C
:1006C00008BF704730B511F0004502D5404261EBDC
:1006D00041014FF4806404F132045FEA915C3FF41D
:1006E000D8AE4FF003025FEADC0C18BF03325FEABA
:1006F000DC0C18BF033202EBDC02C2F1200300FA6B
:1007000003FC20FA02F001FA03FE40EA0E0021FA8F
:1007100002F11444BDE600BF7BB972B90029BEBF27
:1007200000204FF0004106E008BF00281CBF6FF01A
:1007300000414FF0FF3000F0BFB9ADF1080C6DE99A
:1007400004CE002909DB002B1ADB00F04DF8DDF8A0
:1007500004E0DDE9022304B07047404261EB41014F
:10076000002B1BDB00F040F8DDF804E0DDE902239C
:1007700004B0404261EB4101524263EB43037047D6
:10078000524263EB430300F02FF8DDF804E0DDE9AB
:10079000022304B0404261EB41017047524263EBD7
:1007A000430300F021F8DDF804E0DDE9022304B0A2
:1007B000524263EB4303704753B94AB9002908BF5B
:1007C00000281CBF4FF0FF314FF0FF3000F074B92C
:1007D000ADF1080C6DE904CE00F006F8DDF804E098
:1007E000DDE9022304B070472DE9F047089D044677
:1007F0008E46002B4DD18A42944669D9B2FA82F2D4
:1008000052B101FA02F3C2F1200120FA01F10CFA0F
:1008100002FC41EA030E94404FEA1C48210CBEFB47
:10082000F8F61FFA8CF708FB16E341EA034306FBD0
:1008300007F199420AD91CEB030306F1FF3080F05F
:100840001F81994240F21C81023E63445B1AA4B2AC
:10085000B3FBF8F008FB103344EA034400FB07F74E
:10086000A7420AD91CEB040400F1FF3380F00A818F
:10087000A74240F207816444023840EA0640E41B84
:1008800000261DB1D4400023C5E900433146BDE830
:10089000F0878B4209D9002D00F0EF800026C5E9D2
:1008A000000130463146BDE8F087B3FA83F6002EEA
:1008B0004AD18B4202D3824200F2F980841A61EB62
:1008C000030301209E46002DE0D0C5E9004EDDE780
:1008D00002B9FFDEB2FA82F2002A40F09280A1EB68
:1008E0000C014FEA1C471FFA8CFE0126200CB1FBBD
:1008F000F7F307FB131140EA01410EFB03F08842B6
:1009000008D91CEB010103F1FF3802D2884200F242
:10091000CB804346091AA4B2B1FBF7F007FB1011D4
:1009200044EA01440EFB00FEA64508D91CEB040472
:1009300000F1FF3102D2A64500F2BB800846A4EBCD
:100940000E0440EA03409CE7C6F12007B34022FAB8
:1009500007FC4CEA030C20FA07F401FA06F31C43E7
:10096000F9404FEA1C4900FA06F3B1FBF9F8200CF4
:100970001FFA8CFE09FB181140EA014108FB0EF03A
:10098000884202FA06F20BD91CEB010108F1FF3A8A
:1009900080F08880884240F28580A8F10208614496
:1009A000091AA4B2B1FBF9F009FB101144EA0141A4
:1009B00000FB0EFE8E4508D91CEB010100F1FF344F
:1009C0006CD28E456AD90238614440EA0840A0FBE7
:1009D0000294A1EB0E01A142C846A64656D353D0BD
:1009E0005DB1B3EB080261EB0E0101FA07F722FAE1
:1009F00006F3F1401F43C5E9007100263146BDE80A
:100A0000F087C2F12003D8400CFA02FC21FA03F36C
:100A1000914001434FEA1C471FFA8CFEB3FBF7F0ED
:100A200007FB10360B0C43EA064300FB0EF69E4212
:100A300004FA02F408D91CEB030300F1FF382FD2AB
:100A40009E422DD9023863449B1B89B2B3FBF7F653
:100A500007FB163341EA034106FB0EF38B4208D92C
:100A60001CEB010106F1FF3816D28B4214D9023E6D
:100A70006144C91A46EA004638E72E46284605E78B
:100A80000646E3E61846F8E64B45A9D2B9EB02085C
:100A900064EB0C0E0138A3E74646EAE7204694E7EC
:100AA0004046D1E7D0467BE7023B614432E730461F
:100AB00009E76444023842E7704700BFFEE700BF21
:100AC0000B480C4A904203D0121A0B4918F03EF919
:100AD0000A480B4A904203D0121A002118F044F938
:100AE00009F0E6FC18F0FEF800F054F8FEE700BF4D
:100AF000000000243C08002478D5010840080024A8
:100B0000B09B0324704700BF002840D000292DE986
:100B1000F043CCBF00260126BEBBFDEEC07A1C4BC5
:100B2000441E7F2717EE909A83FB09234FEAE97E44
:100B3000CEEB630E0EEB4E03F046A9EB830E23467D
:100B400014F901CFBCEB0E0203F1020348BFAEEB78
:100B50000C021B1AC2F10C05AA42A8BF2A46BA42CF
:100B600001DA174666469942E9DC07EE909A08EBEF
:100B70004808F8EEE77A06EB880630EE670A07EEDB
:100B8000906AF8EEE77A37EE800ABDE8F0837047A6
:100B9000ABAAAA2A2DE9F04F00213C482DED0C8B81
:100BA000ADF5057D05F04EFA0421384805F072F9DF
:100BB000374B002135481C6808F01CFD0368013BD9
:100BC000012B01F2E687446870AB0DEE903A0E2CD3
:100BD00001D82F4B1C602E4A13680E2B02F00E809A
:100BE00013682C4A41F28830136009F073FA02F05E
:100BF00015FB02F05DFA3DAB002841F0F48710933D
:100C000000250124022638A923483B9439963C95B7
:100C10003A9507F0F9F831462A461F4807F072F96D
:100C20001E4B22461E4819682B46009507F0A2F974
:100C300029461B4807F090FA03238DF87C50324672
:100C40008DF87D3033A81F9906F0DAFC224633A9CF
:100C5000042314482C4606F0E7FC124806F0F2FE86
:100C600020AB24930DF18203259321AB26934DF203
:100C7000D863ADF880304CF27C43ADF882300A4B3B
:100C8000219309F025FA064618E000BF5C0800240D
:100C900008000024040000247C08002404B2010899
:100CA0009C08002474080024EF4FC63706F0E0FECD
:100CB00003460A2001351C4409F00CFA09F008FA31
:100CC000034600219F489B1BB3F5FA6FEED355B343
:100CD00042F234129FED9C6AF7EE006AB4FBF5F322
:100CE0009BB2934238BF134607EE903AADF880307E
:100CF000A3F5FA53B8EEE77A07EE903AF8EEE77A02
:100D0000A7EEC67AFCEEC77A17EE903A9BB2ADF822
:100D10008230A3F5FA5307EE903AF8EEE77A86EEC2
:100D2000A77A8DED217A894F0025894B3C681A46B8
:100D3000B023884903FB0423874E884893ED018A3A
:100D4000874B78EE087A0792C1ED007A85490B60EF
:100D50008549356005F096F8844BC820336009F06A
:100D6000B9F93220356009F0B5F9002006F052FBE0
:100D700004F062FD7E4806F03FFB7E4806F03CFB37
:100D80003B680E2B1D46A8BF0E25002BC1F23E87E7
:100D90000023079A194692F87C000133B03200B95B
:100DA0000131AB42F7DD6A4B0022079393F87C00D8
:100DB000B03300B9013270489842F7D1B023079898
:100DC000BDEEC88A04FB03F3C4188DED008AC35836
:100DD000D4ED027A6948FDEEE77ACDED017A06F0AE
:100DE0000BFB674806F008FB94F83D30002B01F040
:100DF000CB86644806F000FB634806F0FDFA6348C2
:100E000006F0FAFA624806F0F7FA09F061F915906F
:100E100009F05EF90D9009F05BF94C4B1B901B68D3
:100E20000E2B1846A8BF0E20002BC1F2F28600231D
:100E3000474A1D4692F87C100133B03201B90135A2
:100E40009842F7DA002D01F0E486524E00241896FD
:100E500040F6FF7200215048013407F053F840F685
:100E6000FF7201214C4807F04DF84C4B6E20336067
:100E700009F030F900224848114607F043F80022F3
:100E80000121454807F03EF800238C20336009F02B
:100E900021F9A542DCD19FED429AF7EE008A0023AA
:100EA000DFF808B1B0EE49AABDF88280F0EE499AA9
:100EB0000DF58679129322930F930C9316930B934F
:100EC000199309930E931A930893CDE92733CDE92B
:100ED0002933CDE92B33CDE92D33CDE92F33CDE9BE
:100EE0003133CDE91C3304F0B1FC0021154806F084
:100EF000BFFD404580F06385B0F5FA5F40F22D8775
:100F0000A0F5FA509DED217A264B07EE900AB8EE37
:100F1000E78ADFED257A28EE078AB4EE678A83ED4B
:100F2000008A099BF1EE10FAA8BF002309934846F6
:100F3000012402F029F957AB4846109A1946149338
:100F40003EE000BF74080024CDCCCC3D0800002456
:100F5000B4A7010884010024543E03245C08002443
:100F60000000C8427C010024C1360008CDCCCC3E34
:100F7000D0A30108E4A3010804B20108F8A3010802
:100F800014A4010838A4010888A40108D0A4010809
:100F9000F0A40108603E03247C080024CDCC4C3D25
:100FA0000000000070010024CDCCCC3ED808002405
:100FB0009C420B6001F10401B8BF1C4691450ED064
:100FC00032F8023B002630F8025B5B1BF0D533465B
:100FD0000E6004319C42B8BF1C469145F0D10422FA
:100FE0001DEE901A57A802F087F9064609F070F82E
:100FF0000546002E40F32C850E9B1690002B00F02A
:10100000B7860127C64BC74A1360099B002B01F026
:10101000D0820B9B83F001033B400B9300F0FF86D3
:101020001C9BEB1A952BC04B01F3DA831B680E2B2C
:1010300001F06583002E40F3FB8609F049F8159016
:1010400009F046F80D9031461DEE900A02F018FAAC
:101050009BF800300693002B40F0C785089B002BBF
:1010600000F0B88500231193AF4BD3F80080B8F19E
:101070000E0F02D01B68AD4A136000232FAF2BAEBA
:1010800022AD23934993AA4B179309F021F823AA81
:10109000A74B864649A913920DF18C0C27AA9B46B3
:1010A0000A9405971878002800F019840124B8F1F3
:1010B0000E0FC2F800E00C7000F01C849B4C4FF047
:1010C000B00A079F24680AFB047494ED217AD3EDDB
:1010D000027A2C78F8EEE77A002C40F03A840598F2
:1010E000C6ED007AC0F800E001208CF800000598F9
:1010F00014330131043604300CF1010C0135043293
:1011000005908C489842CDD1B8F10E0F0A9C00F0A2
:10111000DE869DF88C302BB19DF8883013B1012309
:10112000854A13709DF824318DF888309DF825315B
:101130008DF889309DF826318DF88A309DF8273159
:101140008DF88B307D4B1B78002B00F00E85069BB5
:101150007B4D002B00F01385DBED017ADFED796A22
:10116000B8EEE77AC7EE267AF5EEC07AF1EE10FA1D
:1011700000F10486B7EE007AF4EE477AF1EE10FA49
:1011800077FE277A9BED027ADFED6F6AB8EEC77AB9
:1011900087EE26BAB5EEC0BAF1EE10FA00F12B8652
:1011A000B7EE007AB4EE47BAF1EE10FA37FE0BBA9A
:1011B00095ED036AB6EE007ADFED646AF7EE00AAF9
:1011C00067EE867A95ED01CAD5ED02BAA7EEA67A4A
:1011D000F0EE6A6AE7EE276AE6EEA7AA6CEE2AAAA4
:1011E000B4EEEACAF1EE10FA00F30186F4EE6BAA4F
:1011F000F1EE10FA7BFEAAAA95F888301BB1119B7C
:10120000002B41F0DF80F4EECCAAF1EE10FA40F1B1
:10121000DE85B5EEC0BAF0EE4CBAF1EE10FA00F190
:10122000E285F7EE007AB4EEE7BAF1EE10FA0FDCE1
:10123000B1EE086AFAEE0E6AF2EE047A2BEE0B7A41
:10124000EBEE066A27EE0B7AEBEE267A67EE277A4C
:1012500095ED117AF7EE00AA9FED3D5A67EE877A79
:10126000DFED3C5ADFED396AB6EE007AD5ED150AAE
:1012700067EE857A9FED386AF4EEC60AE7EEA56A56
:10128000F1EE10FAA6EEA77AF0EE6A6AE7EE276AA8
:10129000E6EEA7AAC0F21386F0EE6B7AD5ED106ADF
:1012A000B3EE047A67EEA67A67EEAAAAF4EEC7AAAE
:1012B000F1EE10FA00F1AF85DFED287AF4EE67AABF
:1012C000F1EE10FA77FEAAAADFED257ADFED256AA6
:1012D0007BEE677A87EEA67AB5EEC07AF1EE10FA69
:1012E00000F18D85F7EE007AB4EEE77AF1EE10FAB0
:1012F00001F33F80B0EE006ADFED1B6AF0EE087A82
:1013000067EE07CAE7EE467A6CEEA7CA6CEEA6CA8D
:10131000B5EEC0BAF1EE10FA00F1798526E000BF13
:101320009A99593F70010024080000240400002409
:10133000D808002428090024643E03242041032403
:101340008801002400007A440000C84268B32A3EA5
:10135000006F313F9FCD2A3D77BE7F3F00A08C4676
:101360009A99193FCDCCCC3ECDCC4C3FF7EE007ACC
:10137000B4EEE7BAF1EE10FA09DCF0EE006AB0EE76
:10138000087A6BEE0B7AABEE667A67EE877AB7EE89
:1013900000CA95ED137A089BA7EE27CA2BB9F0EE89
:1013A0004B8A08F095FE08F093FEF7EE007A95ED73
:1013B000207AC24B0126DFEDC26A77EEC77AC3ED11
:1013C00000BAC04BE7EE287AC3ED00AABE4BC3EDCE
:1013D00000CABE4B83ED00CA67EEA67ABC4B1E70F6
:1013E000BC4BC3ED007A0C9B002B00F3D3830F9B07
:1013F000002B00F0038408F06BFE129BC31A002B35
:1014000013DB0C9B0022013B11460F920C9300F161
:101410008C03B148129306F075FD00220121AE48FD
:1014200006F070FD0023189A13609BF81430002B0F
:1014300000F0D482002E00F0D182DBED067ADFEDE1
:10144000A76AF8EEE77A87EEA67AB5EEC07AF1EEF3
:1014500010FA00F12C85F7EE007AB4EEE77AF1EE9F
:1014600010FA01F32481F6EE007AF0EE085A37EE16
:10147000677A67EE255ADBED077A9FED997AF8EEE9
:10148000E77A87EE876AB5EEC06AF1EE10FA00F1EE
:101490000A85F7EE006AB4EEE66AF1EE10FA40F360
:1014A000E084F0EE667AB0EE676ABAEE0E5AB1EEFC
:1014B000084AF2EE046AF0EE453A27EEA77AF0EE1B
:1014C000664AE7EE843A27EE277AE7EEA34A27EE4C
:1014D000247AB5EEC07AF1EE10FA41F13E809FED2C
:1014E000817ADFED816A36EE477ADFED807A87EE2A
:1014F000265ADFED7E6A95ED187AB4EEE66A67EE5D
:10150000877AF1EE10FA00F1E185B7EE007AB4EED9
:10151000C76AF1EE10FA0BDCF0EE004AF0EE086A52
:1015200026EE067AE6EE646A27EE267A65EE875A9C
:10153000B5EEC05AF1EE10FA00F1BD84B7EE007AB4
:10154000B4EEC75AF1EE10FA09DCB0EE006AF0EE24
:10155000086A25EE057AE5EE466A27EE267A644BA0
:10156000D5ED176AC3ED005A624BC3ED007A67EE02
:10157000267A614BC3ED007A04F050F90646002844
:1015800040F0398208F0A4FD1B9BC01A772840F276
:10159000328208F09DFD594B1B901B680E2B01F009
:1015A0006382564B31461B680E2B1F46A8BF0E2781
:1015B000002B09DB524A334692F87C000133B032EB
:1015C00000B90131BB42F7DD4D4B002293F87C009E
:1015D000B03300B901324B489842F7D1D5ED027AC9
:1015E0002B68FDEEE77A4848CDED017AD5ED017A1A
:1015F000FDEEE77ACDED007A05F0FEFE43484FEAB6
:10160000640805F0F9FE424805F0F6FE0026DDF814
:1016100050A05AF8042B002A40F3EE8202EB82001D
:1016200008EB8000B0FBF4F01428A8BF14205B2363
:101630000DF23D174FA98DF83C313B46CD43E918DB
:101640008142ACBF2021232103F8011B0DF251116F
:101650009942F4D15D238DF8513100238DF8523138
:101660009BF80030002B00F0C582DBF80C30B34251
:101670000CBF312320239BF8141021B1DBF820107C
:10168000B14208BF32233146013600934FAB2148A7
:1016900005F0B2FE0C2EBCD17C2428222D210DF2A7
:1016A0008D108DF88C41A84617F05EFB1A4E002372
:1016B0008DF8B54131248DF8B6312FE08401002436
:1016C000EC51383F7C010024703E0324800100244B
:1016D0005C3E0324543E03247C08002400007A442A
:1016E0000000C8429A99593F9A99193E000000009B
:1016F0006C3E0324583E0324683E03240800002463
:10170000B4A7010804B20108C0A50108DCA50108BE
:10171000F0A5010814A60108D808002496F800E0F6
:101720004FF0270C4FF4FA7000214FF47A72002327
:10173000BEF1000F10D07568C5FB0C01FEF7ECFF81
:10174000272820EAE0704FF02803D8BF431C03F598
:1017500004736B4403F8844C01341436E4B2352C22
:10176000DCD163A9A84805F047FE4546DDF85C805A
:1017700001260DF24D1498F80030002B01F09F80E7
:10178000D8F80830002B41F3318119019F4A3231DA
:10179000A2FB012149091029A8BF10215B228DF865
:1017A0003C210DF23D1250198842ACBF202023206D
:1017B00002F8010B9442F6D14FAA314694480092A8
:1017C0005D228DF84D2100228DF84E21D8F804209D
:1017D00005F012FE022E08F1140841F06A80B7EEFF
:1017E000007ADFED8C6AF6EE007A37EE488AE8EE92
:1017F000267AFDEEE77A17EE903A17EE901A642BF0
:10180000A8BF6421002B21EAE17141F3EC800A01B9
:101810007E4B3232A3FB023252095B238DF83C31FE
:10182000EB199342ACBF2023232307F8013BA742C7
:10183000F6D15D234FAA78488DF84D3100238DF8FD
:101840004E3105F0D9FD754BF2EE044A9FED715A09
:10185000D3ED006A724BFDEEE66A93ED006A714BC0
:1018600016EE901AFDEEC66AD3ED005A6E4B65EE89
:10187000A45A16EE902AD3ED007A6C4BFDEEE56A81
:1018800093ED007A67EE857A16EE900A27EE057AD8
:10189000FDEEE77A0028BDEEC77AC1F2AA80644B5C
:1018A000C51783FB0043C5EBA3052B2305EB85047C
:1018B000A0EB440406988DED037ACDED027A0890F2
:1018C0005C48CDE9005405F097FD5B4805F094FDB8
:1018D000032008F0FFFBBDF88280FFF704BB14680B
:1018E000AEEB0404272C63DC0124B8F10E0F0C705E
:1018F0007FF4E4ABD3ED017ADFED506AF8EEE77ADE
:1019000087EEA67AB5EEC07AF1EE10FA53D4F7EE70
:10191000007AB4EEE77AF1EE10FA4CDCF0EE477A9A
:10192000474F4FF0B00AFEEECF7A17EE904AD3ED54
:10193000027A032CF8EEE77AA8BF032457F8244074
:10194000079F0AFB047494ED217A2C78002C3FF455
:10195000C6AB00283FF4CBABF6EE006A96ED006A0A
:10196000B5EEC07A67EEA67AF1EE10FAE6EE267AC8
:10197000C6ED007A7FF7BBAB77EEC67AF3EE026A6C
:10198000F4EEE67AF1EE10FA7FF7B1AB059FBDEE0B
:10199000C77A386817EE104AAEEB0000A042FFF697
:1019A000A6AB0120C7F800E08CF80000FFF79FBB52
:1019B0000870FFF79CBB9FED237AFFF788BBB0F55B
:1019C000FA5FF7EE007A8CBF00230123B0EE678A3E
:1019D00009931D4BC3ED007AFFF7A9BA0023114A02
:1019E0001360114A1360194A136003F017FF06468B
:1019F00000283FF4C7AD069B0320089308F06AFB5C
:101A0000BDF88280FFF76FBA28A601081F85EB5149
:101A100034A601080000C84284A6010884010024FD
:101A20007C0100246C3E0324583E0324703E0324B2
:101A300067666666A0A60108DCA6010800007A4475
:101A400084A701080000C84370010024683E0324F5
:101A5000169BC71A0E9B3B2FCCBF00270127002BDC
:101A60007FF4D0AA099B002B01F0FB80199B002B6F
:101A700000F02883EB1AB3F5FA6FC0F03C86002320
:101A8000C04AC1481360B022036802FB03F3079AFF
:101A9000D15803680E9A0E2B9E46A8BF4FF00E0E2B
:101AA000002B0CDBB9481346944690F87C20013398
:101AB000B0300AB90CF1010C9E45F6DA6246B34823
:101AC0004FF0000C90F87C30B0300BB90CF1010CE9
:101AD000AF4B8342F6D16346AE4805F08DFCAA4B6E
:101AE0001B680E2B1846A8BF0E20002BC0F25E8785
:101AF0000023A64A9C4692F87C100133B03209B903
:101B00000CF1010C8342F6DD6346CDF830C0002BAA
:101B100000F04C8740F6FF7200219F480B9706F0BB
:101B2000F1F940F6FF7201219B4806F0EBF99B4B5F
:101B3000189A0D95136005F16E031293099B0F938C
:101B400001230E9308F0C4FA401BB0F5FA6F80F041
:101B5000778108F0BDFA0D9BC01A41F28733984295
:101B600000F2EC821595FFF76EBA8D4B079A1D684F
:101B7000B02303FB0525069B002B7FF4EDAA002371
:101B8000884A0126137000237E4A13600C9B002BA9
:101B90007FF72DAC08F09CFA129BC31A002BFFF6BE
:101BA00044AC0F9B002B7FF42CAC00F16E030F991B
:101BB00040F6FF727848129306F0A4F940F6FF72DF
:101BC0000121754806F09EF9744B189A13600123A1
:101BD0000F932AE408F07CFA1A9BC01AC72894BF16
:101BE000002301231193FFF73FBA08F071FA1A900E
:101BF000FFF734BA20233EE5002018E5069B002BB2
:101C000000F0EE81DBED017ADFED676AF8EEE77A4E
:101C100087EEA67AB5EEC07AF1EE10FA00F15385A0
:101C2000F7EE007AB4EEE77AF1EE10FA00F374867C
:101C3000DBED026ADFED5D5AB8EEE66AC6EE256AB4
:101C4000F5EEC06AF1EE10FA40F1F286F6EE006AA7
:101C5000B0EE006AFFEE00BAB6EE08CA77EE666A2A
:101C6000B0EE67BAE7EE06BAF0EEE66AA7EE46BA5D
:101C7000E6EEC67AB0EE677AB5EEC0BAF1EE10FACB
:101C8000F5EEC0BA48BF9FED4DBAF1EE10FAB5EED1
:101C9000C07A48BFDFED49BAF1EE10FA40F19787FC
:101CA0009FED467AB1EEC70AB5EE400AF1EE10FAA2
:101CB00001F10B80F1EEC07AB5EE40BA67EE8CAA66
:101CC000F1EE10FA00F1FB87B1EECB0AB5EE400A57
:101CD000F1EE10FA00F1D787F1EEC07AF5EE40BAD6
:101CE00027EE8CBAF1EE10FA00F1C787B1EEEB0ADD
:101CF000B5EE400AF1EE10FA00F1B987F1EEC07AC4
:101D00009FED2B7A089B67EE8C7A67EE877A002B23
:101D100040F0DB85B0EE679AB0EE4BAAF0EE6A9A1F
:101D2000DFED24AA00211C4869EEAA7AFCEEE77ACE
:101D300017EE903A9AB206F0E5F86AEE2AAA012167
:101D40001548FCEEEAAA1AEE903A9AB206F0DAF8D2
:101D5000189B83ED009AFFF768BBDFED187A164BEE
:101D6000B0EE678AC3ED007A01230993FFF7DFB86D
:101D700001230B930E9B1993FFF75FB9DFED0F7AE9
:101D8000FFF700BA543E032408000024B4A701085A
:101D900004B20108F8A401087C080024CDCC4C3D15
:101DA000040000245C3E032400007A440000C84282
:101DB000CDCC4C3D00F07F457001002400000000B8
:101DC00095F89C30F0EE4CAA002B40F04D83F4EED9
:101DD000EBAAF1EE10FAB5EEC0BA7BFEAABAF1EEAC
:101DE00010FA7FF51EAA5FED0B7AFFF731BAF0EE1D
:101DF0004CAAFFF701BA1FED0FBAFFF7D9B9B5EE3C
:101E0000C0BA5FED12CAF1EE10FA7FF5AFAA5FED2E
:101E1000157AFFF7BCBAF0EE47AAFFF755BAAD4BFB
:101E20001B680E2B00F06B84002E0B973FF705A963
:101E30000D9508F04DF9401BB0F5FA6FFFF489AE2F
:101E4000002310988BF814308BF8003001F0B6F9AD
:101E500003F0E4FC002800F0448508F039F9054659
:101E600077E6B1EE085A9FED9C4AFAEE0E4ADFED96
:101E70009B3AF2EE047A26EE067AE6EE054A36EE54
:101E8000444A27EE067A84EE235AE6EE247A67EE79
:101E9000277AF5EEC07AF1EE10FA40F17083DFEDAB
:101EA000907AFFF726BBDFED8E7AFFF7FCBAFFEEE4
:101EB000085AFFF7E0BA9FED8A7AFFF750BB8BEE26
:101EC0008C0A16F039FD60EE0C7AFFF7E7B9854E03
:101ED000A0F150070025DDF84C8018F8013B4BBB02
:101EE00049AB5B5D1BB922AA525D02B1737001352B
:101EF0004C361437042DF0D100237B4A13609DF833
:101F000024318DF888309DF825318DF889309DF881
:101F100026318DF88A309DF827318DF88B30734B40
:101F20001B7803F0FF06002B00F0C5830026704DE0
:101F3000FFF759BAD7ED017ADFED6E6AB8EEE77AAE
:101F4000C7EE267AF5EEC07AF1EE10FA00F124839E
:101F5000F7EE00AAF4EEEA7AF1EE10FA57DDB3EEEE
:101F600009DADFED65BADFED650A4FF00B0A9FED88
:101F700064CADFED64CADFED64AA9FED64BA8CEE3B
:101F80002C0A16F0D9FC20EE2C0A20EE0D0AF3EEF6
:101F9000047A60EE2AAAF4EEE7AAF1EE10FA00F154
:101FA000F882DFED5B7AF4EE67AAF1EE10FA77FEC5
:101FB000AAAA584803F06AFFF7EE001AB0EE402ACA
:101FC0005146F0EE4B0A3046B0EE6A1AB0EE4C0ABB
:101FD0007BEEA11A01F0CAFA4F4BC3F800A086E7C6
:101FE000DFED3F7ADFED4D5AF0EE676AB0EE677ACB
:101FF0009FED4B6AE9EE257AA9EE867AEAEE066A4B
:10200000B0EE679AF0EE479AB0EE66AA88E6B1EEB7
:10201000007A4449B023DFED443A9FED444AF6EE9E
:10202000006A67EE877A9FED426A9FED425ADFEDC4
:10203000374ABDEEE77A17EE102A032AA8BF03221B
:1020400007EE102A51F822A0079AB8EEC77A03FBD0
:102050000A23394A77EEC77A93ED117AD3ED205AE5
:1020600027EE237AD3ED01CA3AEEE5BAD3ED150A8D
:1020700093ED10DAA7EE046AD3ED13BAF4EEC50AB5
:102080003BEE25BA2BEE24BAE7EE066AB0EE6A6A9A
:10209000A7EE266AE7EE06AAB0EE677ABEEECF7A22
:1020A00017EE103A032BA8BF0323F1EE10FA02EB50
:1020B000830393ED000A2CEE800AB0EE40CABFF60F
:1020C00064AF5CE70B9719950D953BE565EEA65A55
:1020D000FFF72EBA080000249A99593F9A99193EA1
:1020E0000000000040000024543E0324204103244B
:1020F0008801002400007A449A99993FCDCC4C3E47
:102100000000FA4500007A45827A7C40EC51383F65
:1021100000A08C465C08002404000024CDCCCC3DFB
:102120006666E63E84A70108006F313F9FCD2A3DD9
:1021300068B32A3E77BE7F3FA4A70108002707F0B7
:10214000C7FFCDF828B00546B846BA46DDF840B01E
:10215000CDE90546189E07F0BBFF884B441BDFED19
:10216000886A9FED887AB7EE00BAA3FB042342F693
:10217000E0621B0A02FB134307EE903AF8EEE77A9F
:1021800087EEA60A20EE070A16F06AF9F6EE007A44
:102190003BEE400AF6EE006AB0EE007A20EE270A27
:1021A000F7EE007A70EE00AA30EE660A3BEE6ABAED
:1021B000B0EEC00A7AEEE7AAF7EE007AB5EEC0BA42
:1021C000E0EE477AF1EE10FAF5EEC0AA48BF9FEDB7
:1021D0006EBAF1EE10FAF5EEC07A48BFDFED6AAAEA
:1021E000F1EE10FA00F19F80F5EE407AF1EE10FA70
:1021F00000F11985B1EEE70AB5EE400AF1EE10FAEA
:1022000000F11785F1EEC0BAB5EE40BAF1EE10FA62
:1022100000F11585B1EECB0AB5EE400AF1EE10FAE9
:1022200000F11385B1EEC0BAF5EE40AAF1EE10FA56
:1022300000F11185B1EEEA0AB5EE400AF1EE10FAAE
:1022400000F1EB84F1EEC07A9FED50CA0021DFED82
:1022500050AA50486BEE8CBA67EEAAAAFCEEEBBA15
:102260001BEE903A9AB205F04DFE2BEE0CBA01210E
:102270004848BCEECBBA1BEE103A9AB205F042FECB
:1022800000214548C6ED00AA05F0F2FBB0F5FA5F63
:102290004CD997BBB4F5FA6F824408F101082CD3EE
:1022A00042F234129FED3D6AF7EE006A0127BAFB55
:1022B000F8F39BB2934238BF1346A3F5FA5207EEE8
:1022C000903A07EE102AF8EEE77A249AB8EEC77A29
:1022D0001380259AE7EE467AFCEEE77A17EE903AFD
:1022E0009BB21380A3F5FA5307EE903A269BF8EEC3
:1022F000E77A86EEA77A83ED007A49A800F044FFDA
:1023000049A85A46002132F8023B30F8024B1B1B09
:102310009942B8BF19469145F5D1092906DC0A2032
:1023200007F0D8FE17E7DFED187A63E700221948B7
:10233000DDF828B01146DDE9054605F0E3FD012191
:102340000022144805F0DEFD0023189A136007F000
:10235000BFFE0D9007F0BCFE159003F05FFA002859
:102360007EF471AEBDF880100D4805F045F8FEF71B
:102370006ABEDFED0CCAFEF7CBBF00BFF1197605D0
:1023800000803B46DB0FC9400000000000F07F45A5
:10239000CDCC4C3D7C08002474080024CDCCCC3D31
:1023A00078A50108CDCC4C3F0000DC434CA6AA3EEA
:1023B000CDCC4C3E00008A42977F8A41C0956C3D4F
:1023C00068B32A3E1FED085AF7EE006A5FED095A1E
:1023D000CAEE857A5FED0A3A1FED0A7A1FED0A4AC6
:1023E000B0EE470AD5E9230177EEE64A37EEA66A52
:1023F000C4EE867AB0EE656AF0EE665A67EEA74ADA
:1024000077EEA77AA4EEA36AE6EE245A5FED154AAA
:10241000B6EE006A67EEA57A5FED175AA7EE840A5A
:10242000FEF772FB70EE477AB0EE467AB0EE666A5F
:1024300067EEA47AA7EEA57AA7EE276AE6EE276AEA
:1024400066EE85AAB4EEEACAF1EE10FA3FF7B8AC30
:10245000F4EE6ABA95F89C30F1EE10FA48BFF0EE4F
:102460006BAA002B3EF4CFAE002800F0F9820029C1
:10247000CCBF00230123002B40F0F282FDEEC07A96
:102480009846C14E00F1FF3C4FF07F0E17EE903A98
:1024900086FB0326DA17C2EB6602BC4E02EB420251
:1024A000A3EB82030C33A6FB0326F60806EB4606D5
:1024B000A3EB860643461CF9012F971B48BFB71AAA
:1024C000774501DA9846BE4601339942F3DC08F1BC
:1024D000020308F1040698FBF1F201FB128802EBFB
:1024E000420210F9087007EB820293FBF1F701FB3F
:1024F000173307EB4707C35603EB870396FBF1F748
:1025000001FB17619B1A405607EB470100EB810165
:102510008A1A0BEE902AD5F8A420B2EE08CA02EB74
:10252000420203EB820207EE902AB8EEE70A80EE41
:102530000C0A16F035F9964B83ED000AF8EEEBBA6B
:102540008BEE8C0A16F02CF9924B95ED01CAD5ED65
:1025500002BA83ED000AFEF756BEF7EE007AB4EE3B
:10256000E77AF1EE10FA40F394839FED8B7ADFED7A
:102570008B6A36EE477A87EE265AFEF7BABFF4EE3C
:10258000E67AF1EE10FA7EF790AFF0EE667AFEF79B
:10259000B0BFF0EE67AA0CE5B3EE0ECADFED80BA6D
:1025A000B0EE08DA4FF0090AF6EE000AF0EE4CCA77
:1025B000E1E47C4B0999D3F800A002237A48CDF8D6
:1025C00028A1499307F016F8804607F027FF002856
:1025D00040F00482D8F804309A450AD0082200213D
:1025E000714806F01DFF49AB082200216E4806F035
:1025F00013FF6C4B00211B680E2B9C46A8BF4FF0AD
:102600000E0C002B09DB694A0B4692F87C00013363
:10261000B03200B901316345F7DD644B002293F815
:102620007C00B03300B9013261489842F7D15D4B6C
:10263000B0201B6800FB03F30798C3585D4804F003
:10264000DBFE584B1B680E2B1846A8BF0E20002B34
:10265000C0F274810023554A9C4692F87C100133E5
:10266000B03209B90CF1010C9842F6DA6346CDF8A4
:1026700030C0002B00F0628140F6FF7200214E480E
:102680000B9705F03FFC40F6FF7201214A4805F028
:1026900039FC4A4B189900220B6005F16E031D921C
:1026A0001293012319920F930E92FEF7C3BCF7EE1B
:1026B000085AFEF7E0BE424B079A1D68B02303FBA1
:1026C0000525FEF790BEDBED027A9FED3E7AF8EE2F
:1026D000E77AC7EE876AF5EEC06AF1EE10FA40F1CC
:1026E0000581B7EE00BADFED38BAB6EE08CA9FED45
:1026F000367AFFF7D7BA0B970D95FFF723BA1D9BD4
:10270000D3B1EB1A002B17DB274803F0BFFBDFED3B
:102710002F1AB0EE402A9FED2E1ADFED1F0A0A2174
:102720009FED2C0A2C4800F021FF00232B4A1D931B
:1027300082F84D30936D53670C9B002B40F0B781AE
:102740000F9BC3B1129BEB1A002B14DB0C9B0022D6
:102750001948013B11460C9305F18C03129305F0C7
:10276000D1FB00220121144805F0CCFB0023189A6C
:10277000136000230F9303200D950B9707F0AAFC1D
:102780001595FEF7B0BB00BFABAAAA2AABAAAAAAAE
:102790002C000024300000249A99593F9A99193E40
:1027A0006666E63F080000245C080024B4A7010820
:1027B00004B201083CA501087C080024CDCC4C3DA6
:1027C000040000240000C842000000003433F33F3E
:1027D0000020FD45000016438C000024400000242A
:1027E000D3F800C0DDF81CE00CF101020CF1100080
:1027F000CDF814C0BF4B4FEAE27AB02183FB02C38D
:102800001344CAEBE303C3EB0313D31A013201FBF6
:1028100003E191F87C10002900F0DE809042E9D1BC
:10282000DDF814C0B44B0021C3F800C01B680E2BA8
:102830009C46A8BF4FF00E0C002B09DBAF4A0B469D
:1028400092F87C000133B03200B901316345F7DD05
:10285000AA4B002293F87C00B03300B90132A8489B
:102860009842F7D1A44BB0201B6800FB03F30798F4
:10287000C358A44804F0C0FD40F6FF720021A248EE
:1028800005F040FB40F6FF7201219F4805F03AFB3E
:102890009E4B189A136005F16E02974B12921B68BB
:1028A0000E2B0B9B0F935FD001231C950C93FEF70F
:1028B000C1BB98F800300226002B7EF461AF314690
:1028C000934804F099FDFEF785BF9FED926ADFED16
:1028D000925A2AEE867A6BEE066A67EE867AFFF7E0
:1028E00087BB8E4804F088FDFFF7B7BAB7EE00BA91
:1028F000F4EECB6AF1EE10FA00F3AA80FFEE00BA14
:102900009FED937AB5EE006AF6EE087AE6EE867AE7
:10291000B0EE67CAFFF7B0B99BED027A9FED806A0F
:10292000B8EEC77AC7EE066AF5EEC06AF1EE10FAA5
:1029300071D5F0EE67BA9FED86BAD6E600220B9706
:102940007148174611460F9205F0DCFA3A4601210C
:102950006D4805F0D7FA0023189A0C9713601D975D
:1029600019970E97FEF766BB00246E4B6E4A1C70DB
:1029700000236E48136003F089FADFED6D1AB0EEA4
:10298000402A9FED6C1AB3EE0E0ADFED6B0A0921A7
:102990006A4800F0EBFD694AD3685470936205F110
:1029A0009603CDE91C5301230C93E4E600220B9718
:1029B0005548174611460C9205F0A4FA3A460121F3
:1029C000514805F09FFA0023189A0D9513600123D2
:1029D0000F970E93FFF7B6B89C4623E708214046B1
:1029E00007F0B0FAF6E50022FEF717BF0021FEF768
:1029F000D5BE4342524CA4FB0354E40804EB8404C8
:102A0000A3EB44044F4B83FB0053C017A0EBA3057B
:102A10002D23FEF74FBFF4EEE76AF1EE10FA00F354
:102A20009980BFEE00BA9FED4A7AF0EE67BA69E787
:102A3000F4EEE76AF1EE10FA40F39180F6EE006AE8
:102A4000B0EE006AFFEE00BAB0EE67CAFFF706B953
:102A5000DFED3FBAB7EE00CA9FED3D7AFFF722B92E
:102A6000DFED39BA042356E5234B31461B680E2BA4
:102A70001F46A8BF0E27002B09DB204A334692F8D9
:102A80007C000133B03200B901319F42F7DA1B4BB1
:102A9000002293F87C00B03300B901321848984204
:102AA000F7D12B68294804F0A7FCFEF7A7BD129BBD
:102AB000EB1A002BFFF65FAE0F9B002B7FF446AEA8
:102AC0000C9B002B7FF757AE0F9940F6FF720E4814
:102AD00005F018FA40F6FF7201210B4805F012FAD2
:102AE00005F16E03189A1293084B1360099B0F931C
:102AF00041E600BF8988888808000024B4A701083F
:102B000004B2010854A501087C080024CDCC4C3D3A
:102B100054A60108CDCC0C3F6666E63E68A50108C8
:102B20000000C8425C3E0324543E03245C08002499
:102B3000B81E0540000087439A99593F4000002481
:102B4000CDCCCCCC676666660700000090A5010876
:102B500000000000F0EE67BA1FED03BA7AE7B6EEA8
:102B6000006AF0EE005AB0EE67BA37EE466AFFEE42
:102B700000BAA7EE65BAB0EEC66AE7EE25BAE6EE91
:102B8000657AB0EE677ABDE6534804F035FCFEF78F
:102B900033B9012300215148CDE9703406F02AFDF4
:102BA000054607F03BFC60BB6B689C423EF40CA8FA
:102BB00008220021494806F033FC70AB08220021AE
:102BC00046480DEE903A06F027FCFEF700B8B5EE49
:102BD000407AF1EE10FA7FF565A8B0EE470A16F0DC
:102BE0003FF8FFF761B81C464FF49670109307F05A
:102BF00071FA204600F0E2FAFEF702B80923FDF769
:102C0000F0BF0821284607F09DF9CDE70021FEF727
:102C1000CAB8334B1893FEF73EB916F021F8F0EE20
:102C2000407AFFF711BBB0EE670A16F019F8FFF70C
:102C3000E3BA16F015F8F0EE40BAFFF7E5BAB0EED9
:102C40004B0A16F00DF8FFF7E7BA16F009F8B0EEE8
:102C500040BAFFF7E9BAB0EE6A0A16F001F8FFF7DA
:102C6000EBBA099B159D0B971993FEF76BBF15F0F7
:102C7000F7FFF0EE407AFFF743B8B0EE6B0A15F0BD
:102C8000EFFFFFF735B815F0EBFFF0EE407AFFF7F6
:102C900025B8A7EE045ADFED133A67EE077A9FEDE9
:102CA000123A36EE634A67EE877AF0EE454A84EED2
:102CB000035AE7EE246A67EEA67AFEF71ABCB0EE76
:102CC0004B0A15F0CDFFFFF701B815F0C9FFF0EE84
:102CD000407AFEF7F1BF00BF60A401085C08002441
:102CE000603E03249A99593F9A99193E10B50948B4
:102CF0000024094A0949046044610462C46315F070
:102D0000A7FB074B4FF60B72C3E90244C3E900244B
:102D100010BD00BF5C08002400000024050B000863
:102D20009C0800242DE9F041002482B01C4E0123B0
:102D3000DFF8788022461B4D3046D8F800101A4F35
:102D4000009405F017F9052007F0C6F92246396806
:102D500001232846009405F00DF9052007F0BCF981
:102D600023460122D8F800103046009405F002F9FD
:102D70002146304605F0F0F9052007F0ADF923466D
:102D8000012239682846009405F0F4F828462146C7
:102D900005F0E2F9052002B0BDE8F04107F09CB96A
:102DA000C4080024B008002408B201080CB20108CD
:102DB00070B5002482B0144D0122144E23462846DB
:102DC0000094316805F0D6F82146284605F0C4F98C
:102DD000052007F081F90E4A01230E4811682246AA
:102DE000009405F0C7F8052007F076F9284601237E
:102DF00022463168009405F0BDF8052002B0BDE818
:102E0000704007F069B900BFC40800240CB2010883
:102E100008B20108B00800242DE9F041072582B06E
:102E2000DFF8E4800746354E25E06246D8F800100A
:102E3000CDF800C005F09EF80024052007F04CF9FD
:102E40000123224631682E48013D009405F092F896
:102E5000052007F041F923460122294831680094F2
:102E600005F088F82146264805F076F9052007F098
:102E700033F96B1C14D0012247FA05F14FF0000C16
:102E8000204811EA02041346CFD1D8F80010234697
:102E9000009405F06FF821461A4805F05DF9CBE77C
:102EA0002246D8F8001001231648009405F062F875
:102EB000052007F011F922463168012310480094DB
:102EC00005F058F8052007F007F90E4805F038F925
:102ED00023460122316805460094094805F04AF866
:102EE0002146074805F038F9052007F0F5F885F088
:102EF0000100C0B202B0BDE8F08100BF08B2010815
:102F0000B0080024C40800240CB201082DE9F043E5
:102F1000002283B0DFF8F480074601233848D8F850
:102F20000010914600920725364E05F023F8002444
:102F3000052007F0D1F80123224631683248009479
:102F400005F018F8052007F0C7F82D4805F0F8F847
:102F500001218646234601FA05FC0A462A48013D1E
:102F60003168BEF1000F03D04CEA090C5FFA8CF90E
:102F7000009404F0FFFF2146234805F0EDF86B1C98
:102F8000D5D1002F33D0D8F8001023461C48012299
:102F9000009404F0EFFF2146194805F0DDF8002405
:102FA000052007F099F8316822460123164800945D
:102FB00004F0E0FF052007F08FF823460122316876
:102FC0001148009404F0D6FF21460F4805F0C4F8DC
:102FD000052007F081F801232246D8F800100848A0
:102FE000009404F0C7FF484603B0BDE8F083012316
:102FF0003A46D8F800100248009704F0BBFFCEE72D
:10300000C408002408B20108B00800240CB201086A
:1030100038B504460D46FFF785FEB420FFF7FCFEE9
:1030200060B12046FFF7F8FE40B12846FFF7F4FEF6
:10303000044618B1FFF7BCFE204638BD0024FFF758
:10304000B7FE204638BD00BF2DE9F04104460E46CC
:103050001546FFF767FEB420FFF7DEFE08B32046F3
:10306000FFF7DAFEE8B1FFF75DFEB520FFF7D4FE0B
:103070000746B0B185B1013D741E56FA85F8C6F118
:10308000010630198542D4BF00200120FFF73EFF22
:1030900004F8010F4445F4D1FFF78AFE3846BDE835
:1030A000F0810027FFF784FE3846BDE8F08100BFBD
:1030B00010B5632182B080204124FFF7A9FF0A20C8
:1030C00007F008F800215E20FFF7A2FF01212B2066
:1030D000FFF79EFF01212C20FFF79AFF10212D20E2
:1030E000FFF796FF20212E20FFF792FF01212F20CE
:1030F000FFF78EFF01213020FFF78AFF10213120DA
:10310000FFF786FF20213220FFF782FF00213320C6
:10311000FFF77EFF00213420FFF77AFF00213520E2
:10312000FFF776FF04212046FFF772FF601C023490
:103130000221C0B2E4B2FFF76BFF592CF2D111218A
:103140005B20FFF765FFF0215C20FFF761FF48215E
:103150005D20FFF75DFF8C215E20FFF759FF6420A3
:1031600006F0B8FF002301220DF107015E208DF863
:103170000730FFF769FF9DF80700A0F18C00B0FA57
:1031800080F0400902B010BD10B586B00446182288
:1031900004206946FFF758FFA01E6A4606AC537824
:1031A00012F8021B1B02944203F4407343EA01032A
:1031B00020F8023FF3D106B010BD00BF2DE9F04169
:1031C00092B02025002407460DF118083022002176
:1031D000404615F0C9FD68464646FFF7D5FF6A46EA
:1031E000414600E00C6832F8023B2344424541F876
:1031F000043BF7D1052006F06DFF013D01D0069C90
:10320000E9E7BA1E163756F8043B5B0922F8023F7D
:10321000BA42F8D112B0BDE8F08100BF10B50A493A
:1032200082B000240123094822460968009404F072
:10323000A1FE07490123224609680648009404F0CC
:1032400099FE02B010BD00BF0CB20108C4080024F2
:1032500008B20108B008002400230649064A4FF6C8
:103260000B70CB600860C1E90133C2E90003C2E919
:1032700002337047C4080024B0080024A0F10A02F9
:103280001C4B002A53F8211030DD814230DD42F220
:1032900010700A3900FB02F292FBF1F38342A8BFDF
:1032A0000346002B1A46B8BF5A1C5210511C93FB00
:1032B000F1F2521848BF0132511093FBF1F252184B
:1032C00048BF0132521093FBF2F18A1848BF013215
:1032D000521093FBF2F313445A1C07DB002BB8BFC8
:1032E000013358106428A8BF64207047002070473D
:1032F0006420704710B201082DE9F04FB2F1000BC5
:1033000095B0039140F3B7800B460BEB8B0103EBB9
:103310008101002203F8142B9942FAD1044608AE29
:1033200000F130072068103454F80C1C354654F86E
:10333000082C103654F8043CBC420FC5F2D14FF0B3
:10334000000A5B465646002208A81546144650F867
:10335000041BA94201DD14460D4601320C2AF6D1A8
:10336000092D27DD56B304AD002101E08E4225D0A2
:1033700055F8042B0131A01A48BF101B0328F5DCB7
:10338000A51E04F1020808AA02EB85020B2D4FF0DE
:10339000000105F1010502F1040298BF42F8041C86
:1033A0004545F3DD0AF1010A32465645B8BF52469B
:1033B0009A42C8DB304615B0BDE8F08F04F1020830
:1033C000A51EB8F10B0FC34625EAE571A8BF4FF063
:1033D0000B0B8B454ADB6FF0404C4FF0000908AAFD
:1033E0000BF1010B8C440846CE464F4602EB8C0C89
:1033F0005CF8042F22EAE2724A4500FB02EE174411
:1034000001DD0146914601308345F1D187B34FF488
:103410007A7202FB0EFE07EB870207EB4207BEFB48
:10342000F7F7B7F57A7FA8BF4FF47A7706EB8602F5
:1034300048464FEA860B0293019201360091FFF74E
:103440001DFF0BF15003019A4FF0010C00990DEB99
:10345000030B039B4BF8404C03EB820403F822C0A0
:10346000029BC4E90170C4E903198CE74FF000091D
:103470004FF0FF37DAE70026304615B0BDE8F08F91
:103480002DE9F0470023384E82B006F15009019330
:1034900033461A789AB914334B45FAD100290BDD1B
:1034A00001EB810101AD00EB810115F8013B002B1F
:1034B00038D014308842F8D102B0BDE8F087002936
:1034C0004EDD0DF1040E844600224FF0FF384FF020
:1034D000C90A1EF8014B4CB9DCF804405D68671B53
:1034E00048BF2F1BBA4501DD9046BA4601320CF1A8
:1034F000140C9142EDD1B8F1FF3F31D008EB8802B6
:1035000008F1080400EB82020DEB0408012408F81E
:10351000044C54685C6094689C60D4681269DC60F8
:103520001A61B8E732461478143234B10133042BEF
:10353000BFD014781432002CF8D103EB8303D0F8F9
:1035400010C0446806EB8302D0E902E7C2E9014EED
:10355000C2E9037C012206F8232005F8012CA8E724
:1035600000221A7097E700BFD8080024DFED507AD8
:10357000B0EE407A40F20113416061EE277AC0ED6F
:10358000030A038080ED027A87EE820A80ED041A36
:10359000C0ED051A70B52DED028B9FED468AF0EE59
:1035A000428A04460D4680ED098A80ED088A80ED46
:1035B000078A80ED068A80ED0A8A80ED0C8A80ED0C
:1035C0000D8A15F07BF8F7EE007A37EEC00AB4EEFC
:1035D000C80AF1EE10FA5ED4B4EE670AF1EE10FA02
:1035E00037FE800A344EB02384ED0E0A03FB0563D8
:1035F000D3ED197AF5EEC07AF1EE10FA4ED99FEDBF
:103600002F7ABFEE000A67EE877A67EEA87A80EE1F
:10361000270A15F053F8B02384ED0F0A03FB056366
:10362000D3ED1A7AF5EEC07AF1EE10FA3CD99FED9F
:10363000237ABFEE000A67EE877A67EEA87A80EEFB
:10364000270A15F03BF8B02384ED100A03FB05634D
:10365000D3ED1D7AF5EEC07AF1EE10FA21D99FED87
:10366000172ABFEE000A67EE827A67EEA88A80EE1C
:10367000280A15F023F8B02184ED110A01FB056535
:1036800095ED1C0A15F08CF884ED120A84ED0B0AF6
:10369000BDEC028B70BDB0EE480AA3E79FED050AB2
:1036A000B9E79FED040AE6E79FED020ACBE700BF0A
:1036B000DB0FC9C00000000080B201086F12833A1E
:1036C000D54BD3ED007AF5EEC07A2DE9F04FF1EE4F
:1036D00010FA88462DED108BA3B0069201F1828777
:1036E000B0EE677AF7EE007AB4EE677AF1EE10FA90
:1036F00077FE877ACDED0C7AC84BC949D3ED007AB5
:10370000C84ACDED077AD1ED007AC74BC749B0EE74
:1037100067BAD2ED007AC64A93ED009ACDED087AE9
:10372000D1ED008AC34BD2ED007AC349CDED097AC1
:10373000D3ED007AC14AC24BCDED0A7AD1ED007AC1
:1037400092ED008ABF49F0EE67AAD3ED007ABE4A37
:10375000CDED1C7AD1ED007ABC4BCDED1D7AD2EDCA
:10376000007ABB48F0EE67BAD3ED007AB94DCDEDE3
:103770001E7A02F08BFBB849F0EE409A9FEDB77AC3
:10378000D1ED007AB64B67EE877AB64A67EE807A5B
:10379000FDEEE77ACDED1F7AD3ED007AB24BCDED99
:1037A000207AD2ED007A1F682A78B04B0F2F2C7840
:1037B000D2B2297828BF00271878CDED217A1C7065
:1037C000002941F0CA86AA4CB02303FB0744A94B49
:1037D000A94E1B680B933368BB4202D1904200F0A4
:1037E000AB80D4ED1B7AF5EEC07AF1EE10FA41F21F
:1037F000FF869FED9A0A67EE807ABFEE000A67EEB9
:10380000A97A80EE270A14F059FFD4ED197A9B4B60
:10381000F5EEC07A83ED000AF1EE10FA41F2F0867F
:103820009FED8E0A67EE807ABFEE000A67EEA97AF6
:1038300080EE270A14F042FFD4ED1A7A904BF5EE91
:10384000C07A83ED000AF1EE10FA41F2D5869FEDC1
:10385000830A67EE807ABFEE000A67EEA97A80EEEF
:10386000270A14F02BFFD4ED1D7A9FED86AA864B14
:10387000F4EECA7A83ED000AF1EE10FA41F298866E
:103880009FED760A67EE807ABFEE000A67EEA97AAE
:1038900080EE270A14F012FF7C4B83ED000A94EDB2
:1038A0001C0A14F07DFFD4ED257A794BF4EECA7A28
:1038B00083ED000AF1EE10FA41F38C869FED677AF2
:1038C000BFEE000A67EE877A67EEA97A80EE270AD4
:1038D00014F0F4FED4ED257A6E4B376083ED000AC8
:1038E0000023F5EEC07A6C4EDDED077AF360F1EE61
:1038F00010FAB36073603360CCBFD4F898204FF0F7
:103900007E52664BDFF8B4911A60654BC9ED007AC0
:1039100083ED00BA634BDDED087A83ED009A624BCC
:10392000C3ED007A614BDDED097AC3ED007A604B9F
:10393000DDED0A7AC3ED007A2B78002B00F0E780EA
:103940005C4E5D4D33682A689A4200F0E080D4ED09
:103950001B7AF5EEC07AF1EE10FA41F259869FED2E
:103960003F7ABFEE000A67EE877A67EEA97A80EEAB
:10397000270A14F0A3FED4ED197A404BF5EEC07A75
:1039800083ED000AF1EE10FA41F260869FED337A82
:10399000BFEE000A67EE877A67EEA97A80EE270A03
:1039A00014F08CFED4ED1A7A354BF5EEC07A83ED27
:1039B000000AF1EE10FA41F245869FED287ABFEE3B
:1039C000000A67EE877A67EEA97A80EE270A14F07C
:1039D00075FED4ED1D7A9FED2BAA2B4BF4EECA7A1F
:1039E00083ED000AF1EE10FA41F216869FED1B7A84
:1039F000BFEE000A67EE877A67EEA97A80EE270AA3
:103A000014F05CFE214B83ED000A94ED1C0A14F0C7
:103A1000C7FED4ED257A53E0603E032484010024E0
:103A20007C0100246C3E032480010024703E0324AA
:103A3000583E0324683E0324543E032470010024AE
:103A40002C0000243000002474010024780100249C
:103A50005C080024204103243C0000246F12833AB8
:103A6000340000243800002404000024343E0324E1
:103A700080B2010808000024200000244C3E0324EA
:103A80003C3E032400000000403E0324443E032447
:103A9000303E0324483E032448090024503E0324BA
:103AA0001C00002418000024E03B02242809002404
:103AB0001C3E03241C410324283E0324140000243C
:103AC000484BF4EECA7A83ED000AF1EE10FA41F3A6
:103AD000B5859FED457ABFEE000A67EE877A67EEFF
:103AE000A97A80EE270A14F0E9FDD4ED257A3F4B40
:103AF000326883ED000AF5EEC07A2A603C4AF1EEA6
:103B000010FACCBFD4F898304FF07E531360DFED3D
:103B1000367A384BF4EEE7AAF1EE10FA0FDD93EDAA
:103B2000007AB4EEE77AF1EE10FA08D8324A11784A
:103B300089B1002111700B9A0E2A08D10BE02E4A90
:103B4000117881B1002111700B9A0E2A0BD02B4AEB
:103B5000114600220A60234A294811684FF07E521C
:103B6000016028490A60C3ED00AAF0EE6AFA069BDC
:103B7000002B01F07182F1EE087A234BF0EE4BAA94
:103B800000271193C7EEA97A204BDFF8A09012937B
:103B9000164B1F4E1393164B14931E4B00931E4B44
:103BA00015931E4BCDED107A16931D4BDFED1D7A4C
:103BB00017931D4B29EE277A1893104B8DED0D7A34
:103BC00028EEA77A019368EE277A0D4BF0EE6B8A08
:103BD0008DED0E7A19930B4BCDED0F7A1A9300F001
:103BE000BABD00BF303E03246F12833A483E03241F
:103BF000503E03242C3E0324643E03244409002445
:103C000028000024240000244C3E0324443E0324C6
:103C1000480900241C00002418000024E03B022472
:103C20002809002400D7233C1C3E03241400002450
:103C3000E24B93ED003A36EE436A169B2AEE866A13
:103C4000DDED080A93ED005A1599A3EE836AB4EEF0
:103C5000E05A179ADA48D1ED001AF1EE10FA92ED17
:103C6000004A9FEDD87ADFEDD86ADFEDD84A9DEDA6
:103C7000090A9DED0DAA90ED002AB4EEC04A189DE8
:103C8000A1EEA4AA9DED0E1A54BFF0EE471AF0EE75
:103C9000661ADFEDCF2AA2EE241ADFEDCE5AD5ED5B
:103CA000004A60EEA11A9DED0A2A54BFF0EE653A73
:103CB000F0EE623AF1EE10FA81ED00AAF4EEC24A9B
:103CC0001399E5EE231A009854BFB0EE473AB0EED0
:103CD000663A91ED005A54BFF0EE653AF0EE623A62
:103CE0001499F1EE10FA80ED006A20EE033AB44820
:103CF00058BFF0EE476AC3ED001AB7EE007A019B99
:103D0000A4EE233AD1ED003A1A9948BFF0EE625A78
:103D100037EE457A80ED001A91ED004A62EE266A90
:103D200027EE237AE4EEA56A82ED003AA4EE057A46
:103D300093ED005AC5ED006A67EE2F3A81ED007AE7
:103D4000B4EEE35AF1EE10FA00F125859FEDA27A68
:103D5000F4EEC7FAF1EE10FA00F31D85974B93EDE0
:103D6000004AB7EE007A199B1299D3ED005A77EE0C
:103D7000442A9A4A75EEC75A9DED0F9AD2ED004A31
:103D800062EEA33AE5EE043A91ED005A9FED8F4AB8
:103D9000A5EE857A0199A4EE849AC1ED003AB0EEC1
:103DA000472A9FED8D7A82ED009AF4EEC73A83EDB3
:103DB000002AF1EE10FA00F10185D6ED035A96EDD6
:103DC000004AD6ED014A96ED025A9FED837AF4EE51
:103DD000C7FAF1EE10FA0CD59FED817AF4EEC73AEE
:103DE000F1EE10FA05DDB3EE0E7AA3EEAA7AF0EE4C
:103DF00047AA7C4BF1EE000A9DED107AD3ED002A24
:103E000077EE222AB7EE007AF4EEC72AF1EE10FA26
:103E1000A4BF72EEC72A734BB6EE007AC3ED002A38
:103E2000F4EEC72AF1EE10FA40F1C284BFEE007A38
:103E3000A2EEA07AF7EE002ADFED6B0A21EE071A58
:103E400094F83D30B0EE627AA1EE207A27EE877AC0
:103E500027EE027A002B00F0A384DFED647A94ED64
:103E6000072AE1EEA72A67EE027A67EEA27ACDED85
:103E7000057AD4ED0A7A217E67EE277A5C4B022917
:103E800093ED008ACDED027AD4ED0D7A67EE277AB4
:103E9000CDED037AD4ED167A67EE277ACDED047A6C
:103EA00000F0A286032900F03487012900F003877F
:103EB000F6EE007AB4EEE78AF1EE007AF1EE10FA4F
:103EC00040F19387BFEE00BAA8EE27BA94F82420F9
:103ED000D4ED052A474B022A22EE8BBA93ED000A55
:103EE00000F0DA86032A00F0CF86012A00F09E86D1
:103EF000F6EE007AB4EEE70AF1EE007AF1EE10FA8F
:103F000040F16D87BFEE00DAA0EE27DA94F830308A
:103F1000D4ED081A3848022B21EE8DDAD0ED000AD4
:103F200000F07586032B00F02186012B00F0F08550
:103F3000F6EE007AB1EE001AF4EEE70AF1EE10FAAE
:103F400040F15987FFEE00CAE0EE81CA94F83C3098
:103F5000D4ED0B7A2948022B6CEEA7CA90ED001A1B
:103F600000F0C785032B00F03786012B00F0068692
:103F7000F6EE007AF1EE00BAB4EEE71AF1EE10FABE
:103F800040F13F87BFEE00CAA1EE2BCA94ED14EAC0
:103F9000D4ED0E7AB5EEC0EA2CEE27CAF1EE10FA97
:103FA00040F38B85164D17482B68DFED17EA83EA3F
:103FB0004333DFED167A83EA534329E0403E03247E
:103FC000340900240012833A00D7A33CA4707D3F3B
:103FD00048E17A3F77BE7F3F6F12833A100000249A
:103FE00017B7D13838090024CDCC4C3DC0956C3D75
:103FF000E43B0224E83B0224400900243C0900245D
:104000000C0000242C09002400000030CDCC4C3FD3
:1040100083EA43130BEE903A2B60F8EEEBDAD0ED27
:1040200000BAB0EE6BFA9DEEAEFAEFEE27BAD4ED21
:104030001E7AC0ED00BADDEEAEBA7BEEABBAEDEEA5
:10404000EEBA6BEEA77AEDEEAE7A2EEE27EA3BEEF5
:104050000DBA94F89C303BEE2CBA7BEE0C7A77EEDE
:104060008E7A002B00F0CC80D94D02299DED1CBA30
:10407000DDED1DBA2BEE07BA94ED28EA6BEE87DA78
:1040800095ED00DA00F0DC87032900F0CF870129E5
:1040900000F09E87F6EE00BAB4EEEBDAF1EE00BA6D
:1040A000F1EE10FA41F13982BFEE00CAADEE2BCA33
:1040B00022EE8CCAC748022AD0ED00CA00F07C87E5
:1040C000032A00F06F87012A00F03E87F6EE00BA5F
:1040D000F1EE00EAF4EEEBCAF1EE10FA41F11582CE
:1040E000FFEE00BAECEEAEBA61EEABBA7CEE2BBAE4
:1040F000B94B022993ED00CAEBEE8E7ACDED1B7A17
:1041000000F01687032900F00987012900F0D886FE
:10411000F6EE00BAF1EE00EAB4EEEBCAF1EE10FAF8
:1041200041F10F82FFEE00BAECEE2EBA62EEAB2A3E
:10413000AA49022AD1ED00BA00F0B686032A00F09F
:10414000A986012A00F07686F6EE00EAB1EE00FAC2
:10415000F4EEEEBAF1EE10FA41F1EB81FFEE00EA77
:10416000EBEE8FEA61EEAE1A72EEA12AD4ED041ADC
:10417000DDED1B7A61EE8BEAE2EE8E7AB7EE00EAB5
:10418000CEEEA92A22EE0BBA61EEAD1A22EE2D2A4E
:1041900072EE8D2AF4EECE2AF1EE10FAA8BF72EE7E
:1041A000CE2AC5ED002ACBEE292A72EEAC2AF7EE14
:1041B00000CAF4EEEC2AF1EE10FAA8BF72EEEC2A77
:1041C000C0ED002AC1EEA92A72EE8C2AB7EE00CA11
:1041D000F4EECC2AF1EE10FAA8BF72EECC2AC3EDB1
:1041E000002AC2EE292A72EEAB2AF7EE00BAF4EEEC
:1041F000EB2AF1EE10FAA8BF72EEEB2AC1ED002A0D
:10420000774BB6EE002AD3ED002AF4EEC22AB1EEC7
:10421000002AF1EE10FA40F1F082FFEE001AE2EE11
:10422000821A67EEA11AB7EE002A61EEA61A72EEA4
:10423000666AE6EEA71AF0EE087A2AEE21AAB4EE34
:10424000E7AAF1EE10FA17DCF8EE087AB4EEE7AA66
:10425000F1EE10FA00F18585F3EE0B6A6AEE0A7A48
:10426000B2EE022AF0EE661AE7EE821A77EEA67A2E
:1042700027EE8AAA8AEE212AF3EE047AB4EEE76AE0
:10428000F1EE10FA00F1B682DFED567AB4EEE76A8D
:10429000F1EE10FA00F3B78436EE066AC6EE297A1C
:1042A000D4ED126A9FED506A66EE666AA6EEA52A04
:1042B000DFED4E6AF4EE667AF1EE10FA76FEA77A3A
:1042C000F0EE086AB4EEE62AF1EE10FA00F3FC8391
:1042D000F8EE086AB4EEE62AF1EE10FA00F12D8548
:1042E000B3EE0B6A62EE026AB2EE02AAF0EE461A72
:1042F000E6EE8A1A76EE866A26EE822AC2EE216AF7
:10430000B0EE086AB4EEC64AF1EE10FA00F3D983B3
:10431000B8EE086AB4EEC64AF1EE10FA00F11D8557
:10432000B3EE0B2A24EE046AB2EE02AAF0EE421AB1
:10433000E6EE0A1A36EE026A26EE046A86EE212AB4
:1043400076EEC26AA6EEA74AF0EE086AB4EEE64A36
:1043500086ED004AF1EE10FA00F3C283F8EE086A27
:10436000B4EEE64AF1EE10FA00F1DB84B3EE0B6A2C
:1043700064EE046AF2EE021AB0EE462AA6EEA12A14
:1043800076EE866A26EE844AC4EE026AB0EE086AC9
:10439000F4EEC64AF1EE10FA00F39F83B8EE086A15
:1043A000F4EEC64AF1EE10FA00F1D384B3EE0B4AF4
:1043B00024EEA46AF2EE021AB0EE442AA6EE212AF6
:1043C00036EE046A26EE246A86EE024A14E000BF46
:1043D0000C3E0324143E0324103E0324183E032401
:1043E0003009002400409C463333734048E17A3F53
:1043F0000AD7233C6666A63F76EEC46AE7EEA64A75
:10440000F0EE086AF4EEE64AC6ED014AF1EE10FA63
:1044100000F36083F8EE086AF4EEE64AF1EE10FA73
:1044200000F19384B3EE0B6A64EEA46AB2EE022A42
:10443000B0EE464AA6EE824A76EE866A66EEA44A58
:10444000C4EE846AB0EE086AB4EEC65AF1EE10FA11
:1044500000F33D83B8EE086AB4EEC65AF1EE10FAE6
:1044600000F16F84F3EE0B4A25EE056AB2EE022AE4
:10447000B0EE644AA6EE024A36EE246A26EE056ADB
:10448000C6EE044A76EEE46AA7EEA65AF0EE086A93
:10449000B4EEE65A86ED025AF1EE10FA00F32683E6
:1044A000F8EE086AB4EEE65AF1EE10FA00F1418433
:1044B000B3EE0B6A65EE056AB2EE024AF0EE464ACA
:1044C000E6EE844A76EE866A26EE855AC5EE246AC2
:1044D000B0EE086AF4EEC65AF1EE10FA00F3038368
:1044E000B8EE086AF4EEC65AF1EE10FA00F11D8437
:1044F000B3EE0B5A25EEA56AB2EE024AF0EE454A3B
:10450000E6EE044A36EE056A26EE256A86EE245A61
:1045100076EEC56AE7EEA65A5FED4B7AB4EEE73A5F
:10452000F1EE10FAC6ED035A3BD4F7EE004AF1EE75
:10453000007AB0EE005AF0EE646A34EEC34AE3EE5D
:10454000276AF6EE007AB0EE676A66EEA56AA6EE16
:10455000A76AFFEE006ABBFE462A36EE422AB0EE9C
:10456000666AA2EE056AB0EE662AB0EEC66A34EE5E
:10457000C66AA6EE052AE2EE277ABBFE676A77EEE8
:10458000C67AB0EE666AA7EE856AB0EEC66A34EE09
:10459000C66AE6EE056A63EE266AE4EE256AF0EE88
:1045A000665A5FED6C7A65EEA75AF0EE087AF4EE83
:1045B000E75AF1EE10FA19DCF8EE087AF4EEE75A51
:1045C000F1EE10FA00F1D183F3EE0B6A65EEA57AF5
:1045D000B2EE025AB0EE666AA7EE856A77EEA67A68
:1045E00067EEA55AC5EE867A63EEA73AD4ED2A5A4D
:1045F000F5EEC05AF1EE10FA00F3AB81F0EE636A0B
:10460000D4ED2B7AF5EEC07AF1EE10FA00F3FA80D1
:104610000B9B69EE266A0E2B00F03481D8F800302F
:10462000B7EE006ADDED0C5A03EB8703C3ED006AB9
:10463000D8F8043003EB8703C3ED006AD4ED047AA5
:10464000CE4B27EE277ADFEDCE6AC7EE297AB7EE9A
:10465000007A37EE888ADDED057AC7EEA97AB4EEE6
:10466000C68AF1EE10FAA8BF38EE468A9FEDC56AF9
:1046700083ED008AC44B37EE800ADDED027AC7EE87
:10468000A97AB4EEC70AF1EE10FAA8BF30EE470AD5
:10469000B7EE007A83ED000ABC4B77EEA00ADDEDA1
:1046A000037AC7EEA97AF4EEC70AF1EE10FAA8BFB2
:1046B00070EEC70AB7EE007AC3ED000AB44B37EECE
:1046C000811ADDED047AC7EEA97AB4EEC71AF1EECD
:1046D00010FAA8BF31EE471AB7EE007A83ED001A40
:1046E000AC4B77EEA22AF6EE007AF4EEC72AF1EE92
:1046F00010FAA8BF72EEC72AC3ED002AA64B93EDAD
:10470000007A75EEC75AA5EE867AE7EE267A83ED33
:10471000007AA24B19680131FCEEE77A17EE905A45
:10472000F02D28BFF025EF2984BF9C4B00218D423E
:1047300019609B4B94BF002501251B78AB4205D027
:104740002946984803F008FD954B1D700137069BDC
:10475000BB4200F08184119BB7EE006ADDED075A81
:1047600093ED007A009B76EE477AD9ED006AD3ED9F
:10477000003A67EEA57AF4EEEA3AE6EE877AF1EED1
:1047800010FAC9ED007A7FF553AA9FED876A9FED75
:10479000873AFFF752BA864B93ED004AFFF7E1BA2A
:1047A00094ED072A67EE027ACDED057AFFF761BB3B
:1047B000B0EE087AA2EEE07AFFF73CBB9FED7D7A7F
:1047C00096ED004AD6ED014A96ED025A24EE074ACC
:1047D000D6ED035A64EE874A25EE075A65EE875AEE
:1047E00086ED004AC6ED014A86ED025AC6ED035A2F
:1047F000FFF7EBBA9FED706A50E5F0EE081AE2EEB3
:10480000C21A0EE51F9B48F69F416C4867EEA33A1B
:104810009942D0F88022A8BF19460129ACBF531A8B
:1048200002F1FF33002B02DA03F50C43A033644995
:10483000D0EDA15ADFED637A01EB830301EB820136
:10484000013265EEA77A93ED006ADFED5F5A48F614
:104850009F43E6EE257ADDED205A9A42E5EEA73A2F
:10486000C0EDA17AC1ED003A00F38282C0F8802247
:10487000DDED217A0B9BE7EE866A0E2B69EE266A48
:104880007FF4CCAEDFF85CB14FF0000A4F4B9FEDE8
:10489000505ADBF8000003F5987E93F800C0BCF195
:1048A000000F00F069825A785968002A00F094825B
:1048B000D3ED035AD3ED0A7AF7EE006AF4EEE57A07
:1048C000F1EE10FA4CBF93ED0F6A93ED106A76EE9D
:1048D000C66A66EEA56AE7EE866AC3ED0A6A3AB969
:1048E000DFED3C7AF4EEE76AF1EE10FA00F10986AA
:1048F000F7EE007AD3ED0B5AD3ED114AB025364AC4
:1049000075EEE75AB0EE676A05FB01252D7EA5EE30
:10491000A46AD3ED025A022D83ED0B6A26EE256AB6
:10492000D3ED065A00F0F083032D00F0E683012D4D
:1049300000F09783F6EE007AF1EE004AF4EEE75AC3
:10494000F1EE10FA40F11B86FFEE007AE5EEA47A54
:10495000B3E3224865EEA35ADFED217A40F2BF4C63
:1049600000F13005DFF880E065EEA75ADFED186A48
:104970000021A5F5813A62463EE000BFE43B0224F7
:10498000000070436F12833AE83B02244009002480
:104990003C09002430090024383E0324243E03242B
:1049A000203E03249C08002400481D3AAED87F3FD7
:1049B0003C3E032477BE7F3F00002042583902244A
:1049C000580900249A99993E3333333F400000241C
:1049D0000000000017B7D13980B20108BC3D0324A4
:1049E0008FC2753C0C00002454B20108CDCCCC3EE3
:1049F0009A99193F5EF8042B50F804CB4FF4DC630E
:104A0000D5ED007A4FF0000B03FB01C31FED096ADF
:104A10001FED095A0CF1010C0AEB830367EE867A4D
:104A2000944501F1010193ED006AE6EE057AB0EEDE
:104A3000655A76EE866AA8EEA75AE5EC017A83ED10
:104A4000005AB4BF40F804CC40F804BC0829D1D1C6
:104A5000EF4840F25D25DFF8C4C30021A64650F8B8
:104A6000042B40F25D23B0EE666A002403FB0123B1
:104A7000F6EE005A0132013103F55C53AA420AEB0B
:104A80008303D3ED007AA7EEA56A77EEE67AF0EE1F
:104A9000676A83ED006AB4BF40F8042C40F8044C08
:104AA000042902D05CF8045BD9E7F0EE636A9DED5F
:104AB0001E6A7446E6EE276AA2E59FEDD6EAFFF786
:104AC000C6BAB7EE002A3BE4F7EE006A18E4F7EE48
:104AD000004AD7E4F7EE006AB4E4B7EE004A8BE48C
:104AE000F7EE006A52E4B7EE005A11E5F7EE006AFD
:104AF000EEE4F6EE007AB7EE00CAB4EEE71AFFEE87
:104B0000007AF1EE10FA58BFB0EE67CAFFF73EBA6E
:104B100070EEA0BA9FEDC21ADFEDC27ADFEDC2CA15
:104B2000EBEE817A9FEDC11AF5EEC07A27EE811A7D
:104B300067EEACCAF1EE10FA48BFF1EE677AE1EE2B
:104B400067CAF5EEC0CAF1EE6C7AF1EE10FA54BF06
:104B5000B0EE6C1AB0EE671AECEE817A9FEDB41AE3
:104B6000E7EE81CAF1EE6CCAFFF7F0B9B0EE001AB9
:104B7000FFEE00CAE0EE81CAFFF7E8B931EE01CAE4
:104B8000DFEDA7BADFEDA77ADFEDA9DAECEE2B7A3D
:104B90009FEDA5CADFEDA5BAF5EEC07A67EEABBA18
:104BA00027EE8CCAF1EE10FA48BFF1EE677AABEE51
:104BB000E7CAB5EEC0CAF1EE4CBAF1EE10FA54BF36
:104BC000F0EE4C7AF0EE6B7AECEE27BAABEEADCAB3
:104BD000B1EE4CCAFFF7DAB9F0EE00BABFEE00CA88
:104BE000A1EE2BCAFFF7D2B9F6EE007AB7EE00BA03
:104BF000B4EEE78AFFEE007AF1EE10FA58BFB0EE9D
:104C000067BAFFF763B99FED846AFFF747BBF6EE1B
:104C1000007AF7EE00CAF4EEE70AFFEE007AF1EE52
:104C200010FA58BFF0EE67CAFFF790B930EE001ADD
:104C3000DFED7B1ADFED7B7A9FED7BDAE1EE217A07
:104C4000DFED7A1AF5EEC07A67EEA11A27EE8DDA5B
:104C5000F1EE10FA48BFF1EE677AA1EEE7DAB5EEB1
:104C6000C0DAF1EE4D7AF1EE10FA54BFF0EE4D1AC3
:104C7000F0EE671AEDEE217ADFED6D1AA7EEA1DAFC
:104C8000B1EE4DDAFFF742B9F0EE007ABFEE00DA8E
:104C9000A0EE27DAFFF73AB9F6EE007AB7EE00DABF
:104CA000B4EEE70AFFEE007AF1EE10FA58BFB0EE6C
:104CB00067DAFFF72BB978EE081ADFED592ADFED36
:104CC000597A9FED59BAE1EEA27ADFED582AF5EE56
:104CD000C07A67EEA22A27EE8BBAF1EE10FA48BF2F
:104CE000F1EE677AA2EEE7BAB5EEC0BAF1EE4B7A12
:104CF000F1EE10FA54BFF0EE4B2AF0EE672AEBEE1D
:104D0000227ADFED4B2AA7EEA2BAB1EE4BBAFFF73B
:104D1000DDB8F0EE007ABFEE00BAA8EE27BAFFF7D2
:104D2000D5B8FFEE006AFFF731BBBFEE005AFFF7C0
:104D3000EFBBFFEE006AFFF7CBBBFFEE006AFFF7A9
:104D4000DFBAFFEE004AFFF79DBBFFEE006AFFF7F8
:104D500079BBBFEE004AFFF74FBBBFEE002AFFF75B
:104D6000EFBABFEE002AFFF787BAF1EE633A3DE4EF
:104D70000023C0F880327BE5DFED266A4C3335EE48
:104D8000265A9E457FF489ADBAF1000F01D0CBF8C9
:104D90000000F0EE087AB4EEE75AF1EE10FA00F3F4
:104DA0001D84F8EE087AB4EEE75AF1EE10FA00F13D
:104DB0002B84F3EE0B6A65EE057AF2EE025AB0EE42
:104DC000666AA7EEA56A77EEA67A27EE855AC5EE43
:104DD000066A66EE896A21E4DFED0E5A6AE5B0EEF6
:104DE00008DAA0EE67DAFFF791B8B0EE08BAA8EEDD
:104DF00067BAFFF76BB8F0EE08CAE0EEC1CAFFF77A
:104E0000A5B8B0EE08CAA1EE6BCAFFF7BFB800BFE5
:104E1000DC3D03240000000000401C4744B20108B0
:104E2000DB0F4940DB0F49C083F9A23F7B81CF3EB6
:104E30006666663E7BEEABEA1FED06FAF0EE6E7A32
:104E40005FED09EAA7EEAEFA5FED09EA5FED097AD8
:104E5000B5EEC0FA6FEE277A6FEE2EEAF1EE10FA99
:104E600048BFB1EE4FFAE7EECFEAF5EEC0EAB1EE99
:104E70006EFAF1EE10FA54BFF0EE6E7AF0EE4F7A61
:104E8000AEEEA7FA5FED167AEFEE27EA6EEEE11AC4
:104E9000FFF76AB9B0EE00FAFFEE00EAEBEE8FEA38
:104EA00061EEAE1AFFF760B9F6EE00EAF4EEEEBA84
:104EB000F1EE10FA3FF558A9F1EE611AFFF754B977
:104EC0003CEE0CFA5FED2ABA5FED2AEAEFEE2BEA30
:104ED0005FED2BBA1FED2BFAF5EEC0EA2EEE8FFA3E
:104EE0006EEEABBAF1EE10FA48BFF1EE6EEAEFEEFD
:104EF0006EBAF5EEC0BAF1EE6BEAF1EE10FA54BFFD
:104F0000B0EE6BFAB0EE6EFAEBEE8FEA1FED38FA08
:104F1000EEEE8FBA6BEEE22AFFF70AB9F0EE00EA86
:104F2000FFEE00BAECEE2EBA62EEAB2AFFF700B944
:104F3000F6EE00BAB4EEEBCAF1EE10FA3FF5F8A8BF
:104F4000F1EE622AFFF7F4B83CEEACFA5FED4CBA32
:104F50005FED4CEAEFEE2BEA5FED4DBA1FED4DFA37
:104F6000F5EEC0EA2EEE8FFA6EEEABBAF1EE10FA65
:104F700048BFF1EE6EEAEFEE6EBAF5EEC0BAF1EEB2
:104F80006BEAF1EE10FA54BFB0EE6BFAB0EE6EFAC7
:104F9000EBEE8FEA1FED5AFAEEEE8FBA6BEEE1BA46
:104FA000FFF7A4B8F0EE00EAFFEE00BAECEEAEBAFE
:104FB00061EEABBAFFF79AB8F6EE00BAF4EEEBCAC0
:104FC000F1EE10FA00F1B182F1EE61BAFFF78EB89E
:104FD0007DEE0DCA1FED6ECA5FED6EBAECEE8CBAB7
:104FE0001FED6FCA5FED6FCAF5EEC0BA6BEEACCACB
:104FF0002BEE8CCAF1EE10FA48BFF1EE6BBAACEEB4
:10500000EBCAB5EEC0CAF1EE4CBAF1EE10FA54BFDD
:10501000F0EE4CCAF0EE6BCAECEE2CBA5FED7CCA37
:10502000ABEEACCA2CEE62CAFFF744B8F0EE00BAA1
:10503000BFEE00CAADEE2BCA22EE8CCAFFF73AB81B
:10504000F6EE00BAB4EEEBDAF1EE10FA00F181827E
:10505000B1EE62CAFFF72EB823B0BDEC108BBDE8ED
:10506000F08F35EEA54A5FED927A5FED924AE4EE5D
:10507000274A5FED937A1FED934AF5EEC04A24EE7E
:10508000844A64EEA77AF1EE10FA48BFF1EE644A62
:10509000E4EE647AF5EEC07AF1EE674AF1EE10FACA
:1050A00054BFB0EE674AB0EE644AE7EE844A1FEDA3
:1050B000A04AE4EE847AF1EE677AB02593ED073AE0
:1050C00005FB0125D5ED054A95F8245067EEA47A35
:1050D000022D78D0032D6FD0012D21D0F6EE004A9D
:1050E000B1EE004AB4EEE43AF1EE10FA40F1428239
:1050F000FFEE004AE3EE044A3EE0F0EE004AFFEE27
:10510000007AE5EEA47AD8E7F6EE004AF4EEE45A27
:10511000FFEE004AF1EE10FA58BFF0EE647ACCE7E9
:1051200073EE033A5FEDC24A1FEDC24AA3EEA44AF2
:105130005FEDC34A5FEDC33AB5EEC04A64EE233A71
:1051400064EE244AF1EE10FA48BFB1EE444AE3EEB1
:10515000C44AF5EEC04AB1EE644AF1EE10FA54BF0B
:10516000F0EE643AF0EE443AA4EEA34A5FEDD03A92
:10517000E4EE234AF1EE644AB02593ED082A05FBDC
:10518000012595ED084A95F83050E4EE247A022D79
:105190007CD0032D73D0012D23D0F6EE004AB1EE62
:1051A000004AB4EEE42AF1EE10FA40F1DE81FFEE9F
:1051B000004AE2EE044A40E0B0EE004AFFEE004A48
:1051C000E3EE044AD8E7F6EE004ABFEE004AB4EE3A
:1051D000E43AF7EE004AF1EE10FA58BFF0EE444A16
:1051E000CAE772EE023ADFEDE84A9FEDE84AA3EE25
:1051F000A44ADFEDE74ADFEDE73AB5EEC04A64EED8
:10520000233A64EE244AF1EE10FA48BFB1EE444A64
:10521000E3EEC44AF5EEC04AB1EE644AF1EE10FA8C
:1052200054BFF0EE643AF0EE443AA4EEA34ADFED48
:10523000DA3AE4EE234AF1EE644AB025D3ED093AB6
:1052400005FB012595ED0B4A95F83C50E4EE247AD8
:10525000022D00F04281032D00F03881012D23D072
:10526000F6EE004AF4EEE43AF1EE004AF1EE10FAFE
:1052700040F17681BFEE004AA3EEA44A40E0B0EED2
:10528000004AFFEE004AE2EE044AD6E7F6EE004A94
:10529000BFEE004AB4EEE42AF7EE004AF1EE10FA4F
:1052A00058BFF0EE444AC8E773EEA31A9FEDB64A22
:1052B000DFEDB64AE1EE844A9FEDB54ADFEDB51A5F
:1052C000F5EEC04A64EEA11A24EE844AF1EE10FA1B
:1052D00048BFF1EE644AA1EEE44AB5EEC04AF1EEF1
:1052E000444AF1EE10FA54BFF0EE441AF0EE641A9C
:1052F000E4EE214ADFEDA81AA4EEA14AB1EE444A39
:10530000B02505FB0125D5ED0E1A95ED14AAE1EEA9
:10531000847AB5EEC0AAF1EE10FAF0EE674A26DD07
:1053200080EA4030D3ED0C7A9FED9C4AE24680EA59
:105330005040B0EE67CADFED9ABA80EA401095EDB2
:105340001EBA01EE900AF8EEE11A91EE84CAECEE74
:105350002B7AC3ED0C7AD1EE847A77EEA77AE1EE60
:10536000C47A67EE8B7AE1EE847AEAEE274AD3EDCF
:10537000057A64EEA77AF0EE084AF4EEE47AF1EEEC
:1053800010FA00F3A080F8EE084AF4EEE47AF1EEA9
:1053900010FA00F1B380B3EE0B4A67EEA74AB2EE03
:1053A00002AAF0EE441AE4EE8A1A74EE844A64EE1D
:1053B000A77A87EEA14AB02505FB0125D5ED044A61
:1053C000B02566EE244A05FB0125C4EEA97A77EEE6
:1053D000A55AD3ED0D7A74EE674A93ED0E4AE4EECA
:1053E000247AF7EE004AF4EEE45AC3ED0D7AF1EEBA
:1053F00010FAA8BF75EEE45AD5ED074AB02566EE5F
:10540000244AC3ED065A05FB0125C4EEA95AD5ED81
:105410000A4AB02505FB012266EE244A35EE833A9E
:10542000F7EE005AB4EEE53AF1EE10FAA8BF33EE0B
:10543000653AC4EEA95A83ED073A35EE822AF7EEB3
:10544000005AB4EEE52AF1EE10FAA8BF32EE652A52
:10545000D2ED0D5A26EE256A83ED082AC6EE295AAA
:10546000B7EE006A75EEA33AF4EEC63AF1EE10FA22
:10547000A8BF73EEC63A9FED4B6A67EE867AB0EE30
:10548000086AC3ED093AF4EEC67AF1EE10FA3FF776
:1054900075ACB8EE086AF4EEC67AF1EE10FA2AD4CA
:1054A000F3EE0B5A27EEA76AB2EE024AF0EE654A17
:1054B000E6EE044A36EE256A66EE277A87EEA46A9F
:1054C00066EE866A5AE4B7EE004A74E7F0EE004AE8
:1054D000BFEE004AA3EEA44A12E7F6EE004AB7EE8A
:1054E000004AF4EEE43AFFEE004AF1EE10FA58BF3B
:1054F000B0EE644A04E7F1EE666A3FE4BFEE004AAC
:1055000059E7DFED296A1A7038E4F0EE08BAECEEDC
:10551000EEBA61EEABBAFEF7E9BDB0EE08CAADEE89
:105520006BCA22EE8CCAFEF7C5BDF0EE61BAFEF77B
:10553000DDBDF0EE08EAEBEECFEA61EEAE1AFEF763
:1055400013BEF0EE08BAECEE6EBA62EEAB2AFEF7CE
:10555000EFBDB0EE62CAFEF7ADBD144CFEF737B931
:10556000B0EE084AA3EEE44ACAE6F0EE084AE2EEDC
:10557000444A62E6F0EE084AE3EE444AFCE5F0EE07
:10558000087AE5EEE47A98E5DB0F4940DB0F49C085
:1055900083F9A23F7B81CF3E6666663E0000003005
:1055A000CDCC4C3F6666A63F000000008801002479
:1055B000284B94ED1C0A83ED00AA13F0F1F8D4ED0A
:1055C000257A254BF5EEC07A83ED000AF1EE10FA4C
:1055D0003EF774A9B0EE4A0AFEF77EB9F0EE496ACA
:1055E000FFF71CB8DFED1D7ACDED0C7AFEF784B81D
:1055F0009FED1A0AFEF709B99FED180AFEF733B9B5
:105600009FED160AFEF718B9F1EE496AFFF706B8E2
:105610009FED120AFEF7AFB90E4B94ED1C0A83ED15
:1056200000AA13F0BDF8D4ED257A0B4BF5EEC07A45
:1056300083ED000AF1EE10FA3EF74BAAB0EE4A0AEB
:10564000FEF755BA9FED050AFEF7C3B99FED030AB1
:10565000FEF7A8B9443E0324303E032400000000B6
:105660000378092B03D110F8013F092BFBD0202B25
:10567000F9D02D2B22D02B2BB7EE000A08BF01301A
:105680000278DFED1F7AA2F13003D9B2092910D8D0
:1056900007EE103AF2EE046A10F8012FB8EEC77A5E
:1056A000A2F13003A7EEA67AD9B20929F0EE477A23
:1056B000EED92E2A06D020EE270A7047BFEE000A48
:1056C0000130DDE742780130A2F13003DAB2092A75
:1056D000F1D89FED0C7A10F8012F06EE903AA2F166
:1056E0003003B8EEE66ADFED076ADAB2E6EE077A73
:1056F000092A27EE267AEED920EE270A704700BF46
:1057000000000000CDCCCC3D0378092B03D110F86C
:10571000013F092BFBD0202BF9D02D2B19D02B2B9F
:105720004FF0010C08BF01300178A1F13002D3B273
:10573000092B17D8002310F8011F03EB830302EB9A
:105740004303A1F13002D1B20929F4D903FB0CF0D3
:105750007047417801304FF0FF3CA1F13002D3B2E5
:10576000092BE7D9002070470B68CBB101380D49F0
:1057700030B50D4D00EB030E08E00A8810F801CF9C
:1057800092B2704504F802C00B8008D00B882A88BA
:105790000133064C92B2C3F308039A42EDD130BDF7
:1057A000704700BF7440032476400324743E0324F2
:1057B000B5EEC00A014610B5F1EE10FA82B024D45D
:1057C0002022BDEEC07ADFED136AF6EE007A42F2D7
:1057D0000F73B8EEC76A30EE460AE0EE267AFDEEA9
:1057E000E77A17EE904A9C4207DD17EE103AA4F5CF
:1057F0001C540133103C07EE103A17EE103A0648DD
:10580000009401F0F9FD02B010BDB1EE400A2D2266
:10581000D7E700BF00401C46D0BC0108044B1B78F2
:1058200003F0FF001BB1034B187880F001007047B4
:10583000204103242141032400220249024801F0AF
:10584000B1BE00BF69570008800800242DE9F04F61
:10585000AE4CAF4E2288338892B29BB29A422DED65
:10586000028B83B057D0AB4FAB4D0BE09E2B03DCCC
:10587000581CAA4A2860D1542288338892B29BB21D
:105880009A4248D023889BB2FA5C23880D2AD1B271
:1058900003F10103C3F3080323802B6801D00A2915
:1058A000E4D100229D489342C25402DC00232B60C5
:1058B000E2E79B4913F094FB81460028F6D0994912
:1058C000FAF70EFD00286BD097494846FAF708FD15
:1058D000804628B395494846FAF702FD002800F0B3
:1058E000DB8093494846FAF7FBFC8046002866D0E7
:1058F00090494846FAF7F4FC002800F091818E495F
:105900004846FAF7EDFC002800F0EA8049468B484B
:1059100001F072FDCAE703B0BDEC028BBDE8F08F69
:105920007F4913F05DFB82467D49404613F058FBEA
:105930008346BAF1000F00F08980002800F08680CD
:105940007F495046FAF7CCFC002840F07A817D4927
:105950005846FAF7C5FC002800F021827A495846DB
:10596000FAF7BEFC002800F0228278495846FAF780
:10597000B7FC002840F08B80754B764AC3F88C202A
:105980000722C3F89020DFF8FCC15A4651467248FE
:10599000DCF800300133CCF8003001F02DFD85E754
:1059A0005F4913F01DFB18B1FFF7AEFE002851D17F
:1059B0006A4B00226A481A7001F01EFD76E7DFF894
:1059C00090916848D9F8001001F016FD4346042272
:1059D00009EB0201032B13D8DFE803F030271E0286
:1059E00019F802306048013B6049614ADBB251F866
:1059F0003810022B98BF50F823205E4801F0FCFCC1
:105A000008F10108594BB8F12A0F03EBC80300F065
:105A1000CF809A889B79DBE7544B19F8022053F822
:105A20003810554801F0E8FCEAE7504B59F80220DD
:105A300053F83810504801F0DFFCE1E74B4B91ED93
:105A4000000A53F83800FFF7B3FED9E74B4801F0DE
:105A5000D3FC2BE74A4BB022DFF84C9119683C4B42
:105A60000F29184628BF002102FB019113F06EF99F
:105A7000444A4FF0010EDFF8E4C013680168734434
:105A8000414813608CF800E001F0B6FC0EE7514687
:105A90003E4801F0B1FC09E7214913F0A1FA0028C2
:105AA00000F07881FFF730FE0E28804600F2728108
:105AB000374B0CBF092202461860314B1A60274A47
:105AC0001278002A40F0FD80DFF8DC90B0234146D8
:105AD000304803FB08F359F8032001F08DFCE5E69C
